:020000040800F2
:100000009805002045010008CF230008972100082B
:10001000CD23000887050008F9280008000000002B
:10002000000000000000000000000000D3230008D2
:100030008905000800000000D1230008D52300082E
:100040005F0100085F0100085F0100085F01000810
:100050005F0100085F0100085F0100085F01000800
:100060005F0100085F0100085F0100085F010008F0
:100070005F0100085F0100085F0100085F010008E0
:100080005F0100085F0100085F0100085F010008D0
:10009000ED2800085F0100085F0100085F0100080B
:1000A0005F0100085F0100085F0100085F010008B0
:1000B000B9240008C5240008D12400085F01000805
:1000C0005F0100085F0100085F0100085F01000890
:1000D0005F010008E12800085F0100085F010008D7
:1000E0005F0100085F0100085F0100085F01000870
:1000F0005F0100085F0100085F0100085F01000860
:100100005F0100085F0100085F0100085F0100084F
:100110005F0100085F0100085F0100085F0100083F
:100120005F0100085F0100085F0100085F0100082F
:10013000DFF80CD000F0F4F900480047C92A0008A5
:10014000980500200648804706480047FEE7FEE77E
:10015000FEE7FEE7FEE7FEE7FEE7FEE7FEE7FEE777
:100160003724000831010008202A04DB203A21FA54
:1001700002F00021704721FA02F3D040C2F12002C0
:100180009140084319467047D2B201E000F8012BB4
:10019000491EFBD270470022F6E710B513460A4607
:1001A00004461946FFF7F0FF204610BD0EB540F299
:1001B000334102910021CDE900110A460B4600F0BF
:1001C00046F803B000BD70B5C1F30A5201F0004516
:1001D0000024C1F3130140F2FF3341F480119A422D
:1001E00001DA002070BD40F233439A42A2F233425A
:1001F00003DC5242FFF7B8FF00E090402C43F1D0FF
:10020000404270BD30B50B4601460020202201243B
:1002100009E021FA02F59D4205D303FA02F5491BD4
:1002200004FA02F52844151EA2F10102F1DC30BDEA
:1002300010B5141E73F1000408DA401C41F10001EE
:1002400092185B411A4301D120F0010010BD2DE945
:10025000F04D92469B4611B1B1FA81F202E0B0FA3C
:1002600080F22032904600F06DF904460F4640EAD5
:100270000A0041EA0B0153465A46084313D011467F
:1002800053EA010019D0C8F140025046FFF76CFF55
:1002900005460E4650465946424600F053F908437B
:1002A00005D0012004E020463946BDE8F08D00204D
:1002B000054346EAE0762C4337430A986305E40A8F
:1002C000A0EB08000022FD0A44EA47540A3002D598
:1002D00000200146E9E7010510196941DDE90845FB
:1002E00000196941BDE8F04DA2E72DE9FE4F8046B7
:1002F00081EA0300C00F0C46009021F0004123F07A
:100300000045B8EB0200A94105D24046214690467F
:100310001C460B46024623F00040104347D0270DF1
:10032000C7F30A00C3F30A510290401A0190402813
:100330006BDAC3F3130040F4801B0098924620B19F
:100340000023D2EB030A63EB0B0B01985946C0F173
:100350004002504600F0F6F806460D465046594613
:10036000019A00F0FEF810EB08006141002487EAD2
:10037000115284EAE7731A4340D0009A62B3019A9B
:10038000012A4FEA075215DC001B61EB02014FF016
:10039000004202EA0752CDE90042001C41F58011FB
:1003A00032462B46FFF753FF03B0BDE8F08F4046BF
:1003B0002146F9E7001B61EB0201001C41F58013A7
:1003C00000185B412018A2F5001747EB030140EA33
:1003D000D570B6196D4111E06D084FEA360645EA51
:1003E000C0754FEA0752001B61EB0201001C41F58A
:1003F000801149084FEA30000019514132462B461E
:1004000003B0BDE8F04FFFF713BF00980122400092
:100410000023D0EB020263EBE073009821464FEA21
:10042000E074B8EB000061EB0401E9E783F00043FE
:100430005BE781F0004158E72DE9F041054621F0E6
:1004400000400C46284309D0C4F30A5040F233411F
:10045000884205DD28462146BDE8F0812846FBE7B5
:1004600040F2FE31884210DC0CDB4FEA043040EAF7
:10047000155050EA053105D0104804F00041014301
:100480000020E9E700200146E6E7A0F233404642BB
:10049000C6F140022846214600F054F80746884637
:1004A000284621463246FFF75FFE43463A46FFF7AD
:1004B000BFFE3246BDE8F04100F044B80000F03F16
:1004C00030B5041E71F1000404DB4FF000444042DB
:1004D00064EB0101141E73F1000405DB1C464FF0B0
:1004E0000043524263EB04038B4208BF824230BD9B
:1004F00030B5041E71F1000404DB4FF000444042AB
:1005000064EB0101141E73F1000405DB1C464FF07F
:100510000043524263EB0403994208BF904230BD4E
:10052000064C074D06E0E06840F0010394E8070040
:1005300098471034AC42F6D3FFF7FEFDC42B0008F9
:10054000E42B0008202A04DB203A00FA02F1002004
:1005500070479140C2F1200320FA03F31943904001
:100560007047202A06DBCB17203A41FA02F043EA13
:10057000E07306E041FA02F3D040C2F1200291405C
:10058000084319467047FEE7704772B6FEE790F8D9
:100590002020012A07D0022A05D0416A41F4802197
:1005A000416201207047006842690A4342610020AD
:1005B0007047000010B590F820300268012B07D07A
:1005C000022B05D0416A41F480214162012010BD17
:1005D000D2F8000240F00100C2F80002087D00F0ED
:1005E0001F0301209840D2F81C328343C2F81C320A
:1005F000CB69B3B9D2F80C328343C2F80C328C8980
:100600004B6864F31F434C6902EBC404C4F84032E6
:100610000C890B6864F31F434C6902EBC404C4F8F3
:100620004432CB69012B16D1D2F80C320343C2F805
:100630000C320C884B6864F31F434C6902EBC40412
:10064000C4F840320C89CB6864F31F434C6902EB59
:10065000C404C4F844328B69002BD2F804320FD0A2
:1006600053EA0003C2F804320B69002BD2F81432AB
:1006700008D00343C2F81432096A012904D008E003
:100680008343EFE78343F5E7D2F81C120143C2F836
:100690001C12D2F8000220F00100C2F80002002073
:1006A00010BD704770B590F82040012C05D0022C89
:1006B00003D0416A41F4802128E0046809B3246929
:1006C000A40720D04FF4D874056804EB01142D5909
:1006D00015F00405956005682D591AD0ED08556090
:1006E00005682C5904F00204D4604FF4DA740568EC
:1006F00004EB01142E5906F00F06082E0CD3082522
:100700000DE0E468DCE7416A41F400114162012038
:1007100070BD6D0D1560E3E72D5905F00F051561EE
:1007200005682D59C5F30725956105682C59240CDA
:1007300054614FF4DC72046802EB0112A4581C707F
:100740000468A458240A5C700468A458240C9C70A3
:100750000468A258120EDA704FF4DE72046802EBDD
:100760000112A4581C710468A458240A5C7104681E
:10077000A458240C9C710468A258120EDA71006807
:1007800029B1016941F020010161002070BDC168FB
:1007900041F02001C160F8E72DE9F05F05460068EF
:1007A00000244669D0F804908768D0F80CB0D0F8DF
:1007B00010A0D0F81880F10748D0F90714D0012113
:1007C0008160B80703D5284600F0F5F90CE07807FA
:1007D00002D54FF4006407E0380702D54FF4805487
:1007E00002E0284600F0E6F9F80516D529684FF42E
:1007F00080708860B80503D5284600F0DEF90CE06B
:10080000780502D544F4005407E0380502D544F4D5
:10081000804402E0284600F0CFF9F80316D5296895
:100820004FF480308860B80303D5284600F0C7F93C
:100830000CE0780302D544F4004407E0380302D505
:1008400044F4803402E0284600F0B8F9300707D5B8
:100850005FEACB6004D52968102044F40074C860B6
:1008600070074FF0080707D55FEA0B7004D52868BA
:10087000C760284600F05AF9B00706D52868C06856
:10088000800702D0284600F053F9700607D55FEACA
:10089000CA6004D52968102044F480640861B00659
:1008A00007D55FEA0A7004D528680761284600F07A
:1008B00051F9F00606D528680069800702D028465D
:1008C00000F049F9B00308D55FEAC96005D5296889
:1008D00010204860284600F03FF9F00307D55FEA92
:1008E000097004D528684760284600F069F930048B
:1008F00046D55FEA497040D5F00504D55FEAC87077
:1009000001D044F00104B00504D55FEA887001D538
:1009100044F00204700504D55FEA487001D544F044
:100920000404300529D518F0700F26D008F07000A7
:10093000402815D006DC102809D020280AD03028FD
:1009400016D10AE050280ED0602811D10EE044F0F4
:1009500008040DE044F010040AE044F0200407E02D
:1009600044F0400404E044F0800401E044F4807466
:100970002868816921F0700181612968042048603C
:10098000002C05D0686A204368622846FFF789FE7C
:10099000BDE8F09F70B5040003D094F8200010B1BA
:1009A00004E0012070BD204600F082F82068016854
:1009B00041F00101016000F0DBFA0546052604E084
:1009C00000F0D6FA401B0A2811D820684068C007FA
:1009D000F6D02068016821F00201016000F0C8FA39
:1009E00005460BE000F0C4FA401B0A2806D9606AED
:1009F00040F40030606284F82060D2E720684068EC
:100A00008007EFD4207E0128206801683DD021F0C6
:100A100080010160607E01282068016838D021F0E3
:100A200040010160A07E01282068016833D021F0D8
:100A300020010160E07E0128206801682ED041F08D
:100A400010010160207F01282068016829D021F071
:100A500008010160607F01282068016824D021F02E
:100A600004010160D4E902010843D4E904121143EE
:100A700008436168491E08432168C861002060621C
:100A8000012084F82000002070BD41F08001C0E703
:100A900041F04001C5E741F02001CAE721F0100113
:100AA000CFE741F00801D4E741F00401D9E70000A5
:100AB00010B586B000210091019102910391006868
:100AC000174988422AD11748C16941F00071C161B4
:100AD000C16901F000710491816941F004018161F3
:100AE0008069114C00F0040004904FF40060009005
:100AF0006946204600F032F9A014009002200190CF
:100B0000032003906946204600F028F90022114690
:100B1000142000F099FA142000F088FA06B010BDF5
:100B200000640040001002400008014070470000CF
:100B300010B5064B064A0021FFF7B4FD002803D08C
:100B4000BDE81040FFF721BD10BD000004000020EB
:100B500024000020704770477047000070B50446BD
:100B600090F82000012804D0606A40F40020606200
:100B700018E0022084F820002068016821F00101BB
:100B8000016000F0F5F905460EE000BF00F0F0F955
:100B9000401B0A2808D9606A40F4003060620520D2
:100BA00084F82000012070BD20684068C007EDD1A6
:100BB000606270BD704770477047704770477047FC
:100BC000704710B590F821100022022905D00421A9
:100BD000816380F82020012010BD01680B6823F09C
:100BE0000E030B6001680B6823F001030B6090F8A3
:100BF0004030C46B012101FA03F3636080F82110D7
:100C000080F82020104610BD2DE9F05F90F82110EB
:100C10000024022903D004218163012485E00168B6
:100C20000A6822F00E020A6001680A6822F00102D6
:100C30000A603F4E3E4FB215DFF8F4C0DFF8F09087
:100C4000DFF8ECA0DFF8E8B0DFF8E4E00168783F17
:100C500013011502ACF1640CA9F15009AAF13C0A88
:100C6000ABF1280BAEF1140E4FF48018B14227D926
:100C7000B9420ED0614512D049451DD0514518D01A
:100C8000594518D0714501D1424615E0294EB1426F
:100C900001D1012210E0274E1436B14201D11022B9
:100CA0000AE0244E2836B14206D0224A3C32914214
:100CB00001D11A4600E02A461E49091F0A602BE0AE
:100CC000B94213D0614517D0494522D051451DD0B6
:100CD00059451DD0714501D142461AE0B14202D1B9
:100CE0004FF0807215E0134EB14201D1012210E0A5
:100CF000104E1436B14201D110220AE00D4E2836B2
:100D0000B14206D00B4A3C32914201D11A4600E072
:100D10002A46074980394A60012180F821100021C4
:100D200080F82010416B01B188472046BDE8F09F54
:100D3000800002400804024070B5044600F018F933
:100D40000546601C02D004480078044400F010F905
:100D5000401BA042FAD370BD140000202DE9F84FCB
:100D6000DFF8C8910024A9F1040B23460F2709F1ED
:100D7000040AABF1040ED1E00125A54006EA050204
:100D8000AA4276D1DFF8A8C14E68A6EB0C086645EA
:100D90002BD00DDC032E34D005DC36B3012E19D058
:100DA000022E2FD11BE0112E16D0122E2AD119E0BF
:100DB000B8F5881F19D006DCB8F5803F15D0B8F516
:100DC000801F1FD111E0B8F5001F0ED0B8F5041F29
:100DD00018D10AE0CB6815E0CB681B1D12E0CB6888
:100DE00008330FE0CB680C330CE08B682BB1012B80
:100DF0004FF0080303D0456104E0042302E00561DD
:100E000000E00023FF2A01D8064601E000F10406B5
:100E10004FEA840501D9A5F12005D6F8008007FA2C
:100E200005FC28EA0C0803FA05F548EA0508C6F8A7
:100E300000804D68ED0070D53E4DAE6946F001066C
:100E4000AE61AD6924F0030605F0010500953A4D49
:100E500006EB050CDCF80850A607360F07FA06F873
:100E600025EA0805DFF8D480404503D14FF000089B
:100E700025E052E0DFF8C880404502D14FF001087C
:100E80001DE0DFF8C080404502D14FF0020816E0B7
:100E9000DFF8B480404502D14FF003080FE0DFF8DF
:100EA000AC80404502D14FF0040808E0DFF8A08094
:100EB000404502D14FF0050801E04FF0060808FA5E
:100EC00006F848EA0508CCF808804D68D9F80060B3
:100ED000ED024D4601D5164300E096432E604D6865
:100EE000DAF80060AD02554601D5164300E096439E
:100EF0002E604D68DBF80060AD035D4601D51643FA
:100F000000E096432E604D68DEF80060ED03754604
:100F100001D5164300E096432E60641C0A6816460D
:100F2000E2407FF429AFBDE8F88F000008040140DB
:100F300000001110001002400000014000080140B4
:100F4000000C014000100140001401400018014055
:100F5000001C0140C26821EA02030A4043EA024140
:100F6000016170470AB1016170470904FBE70000A5
:100F70000148806870470000140000200248816822
:100F8000027811448160704714000020074810B5B2
:100F9000016841F010010160032000F075F80F2096
:100FA00000F006F800F024F8002010BD00200240F8
:100FB00070B50D4D04464FF47A712878B1FBF0F00E
:100FC0000A490968B1FBF0F000F0DCFA48B9102CCE
:100FD00007D200222146501E00F036F800206C6037
:100FE00070BD012070BD0000140000202000002012
:100FF0000C4808B5816941F001018161816901F006
:1010000001010091C16941F08051C161C06900F0E6
:10101000805000900448416821F0E06141F0007187
:10102000416008BD0010024000000140002809DBBB
:1010300000F01F02012191404009800000F1E020F2
:10104000C0F8001170470000F0B40E4B1B680C464E
:10105000C3F30223C3F10705042D00D90425191D8C
:10106000072901D2002300E0DB1E012606FA05F164
:10107000491E214099409E40761E16403143F0BCE7
:1010800001F04CBC0CED00E0064900F007020868D6
:101090004FF6FF03184040EA0220034A104308605D
:1010A000704700000CED00E00000FA052DE9F04764
:1010B0000F46050061D0434E306800F00700B8428B
:1010C00009D2306820F0070038433060306800F003
:1010D0000700B84251D128683B4C810712D5400720
:1010E00003D5606840F4E06060602878000703D5AD
:1010F000606840F4605060606068A96820F0F000AB
:10110000084360602878C00728D06868012810D09C
:101110002168022810D0890700292EDA616821F0A1
:10112000030101436160FFF723FF804641F28839E4
:101130000DE021688903EFE78901EDE7FFF718FF6C
:10114000A0EB0801494502D90320BDE8F08760689B
:10115000696800F00C00B0EB810FEFD1306800F04F
:101160000700B8420BD9306820F0070038433060E0
:10117000306800F00700B84201D00120E5E7287888
:10118000400705D56068E96820F4E06008436060C6
:101190002878000706D56068296920F4605040EA85
:1011A000C100606000F038F86168084AC1F30311BB
:1011B000515CC8400649086006480068FFF7F8FE21
:1011C0000020C2E70020024000100240AA2B0008C5
:1011D00020000020180000200448054900684968E4
:1011E000044AC1F30221515CC8407047200000202E
:1011F00000100240BA2B00080448054900684968FD
:10120000044AC1F3C221515CC8407047200000204D
:1012100000100240BA2B00080E4A51680E4801F037
:101220000C03042B11D0082B0FD10C48C1F38343BE
:10123000C903C05C0AD55168084AC1F34041921EF7
:10124000515C054A5043B0FBF1F0704704494843F4
:10125000704700000010024000127A009A2B00082C
:1012600000093D002DE9F84F040070D02078C04DF2
:10127000C00749D06868C0F38100012807D06868BA
:10128000C0F38100022809D16868C00306D5286828
:10129000800339D560680028E7D035E06068B0F594
:1012A000803F0BD010B1B0F5A02F11D0286820F4EA
:1012B00080302860286820F4802002E0286840F40C
:1012C00080302860606890B1FFF752FE06460AE061
:1012D000286840F480202860F0E700BFFFF748FE50
:1012E000801B642873D828688003F7D50CE0FFF7CB
:1012F0003FFE064605E000BFFFF73AFE801B64286C
:10130000F0D828688003F7D420789A4E80074FF0F1
:1013100001094FF0000839D5686810F00C0F07D0AC
:101320006868C0F38100022809D16868C00306D448
:101330002868800714D52069012808D110E02069A9
:10134000B0B1C6F80090FFF713FE074605E00AE1CA
:10135000FFF70EFEC01B0228C4D828688007F7D507
:101360002868616920F0F80040EAC10028600DE0BB
:10137000C6F80080FFF7FCFD074604E0FFF7F8FD24
:10138000C01B022823D828688007F7D420780007DC
:101390002CD57948A169D9B1C0F80090FFF7E8FDD4
:1013A000074604E0FFF7E4FDC01B02280FD8686A77
:1013B0008007F7D571484FF4FA510068B0FBF1F09F
:1013C000009000BF0098411E0091FAD20EE080E02C
:1013D000C0F80080FFF7CCFD074604E0FFF7C8FD2A
:1013E000C01B022875D8686A8007F7D420784007A8
:1013F00060D5E8690027C00008D4E86940F0805053
:10140000E861E869012700F0805000905C480168BD
:10141000C90513D40168834641F480710160FFF768
:10142000A7FD824606E000BFFFF7A2FDA0EB0A0081
:1014300064284ED8DBF80000C005F5D5E068012827
:101440000AD008B1052813D0286A20F001002862CC
:10145000286A20F0040002E0286A40F001002862B7
:10146000E06841F2883B98B1FFF782FD82460BE0CD
:10147000286A40F004002862EEE700BFFFF778FD1D
:10148000A0EB0A0159455AD8286A8007F6D50CE026
:10149000FFF76EFD824605E0FFF76AFDA0EB0A014B
:1014A00059454CD8286A8007F6D41FB1E86920F066
:1014B0008050E861E06988B36968C1F3810102295D
:1014C00044D00228C6F8608004D0FFF751FD0446DE
:1014D00038E034E0FFF74CFD074604E0FFF748FD35
:1014E000C01B02282BD828688001F7D4206AB0F5E9
:1014F000803F05D16868A16820F400300843686027
:10150000D4E908010843696821F47411084368604C
:10151000C6F86090FFF72CFD044606E025E000BF0A
:10152000FFF726FD001B022809D828688001F7D59F
:101530001BE000BFFFF71CFD001B022802D903209F
:10154000BDE8F88F28688001F4D40EE00128F7D0B8
:101550006868226A00F48031914204D1616A00F423
:101560007010884201D00120EAE70020E8E700007F
:10157000001002400000424280044242200000204D
:101580000070004010B5401EB0F1807F01D30120F3
:1015900010BD4FF0E02460610F21601701F0BEF92B
:1015A0000020A06107202061002010BD7047704717
:1015B00070B590F83C20012A2CD0012480F83C40E2
:1015C000022280F83D2003685A689D6822F0700668
:1015D0000A6832435A60104B02689A420ED00F4B91
:1015E0009A420BD0B2F1804F08D00D4B9A4205D0F1
:1015F0000C4B9A4202D00C4B9A4204D1496825F018
:1016000080031943916080F83D40002180F83C1030
:10161000084670BD022070BD002C0140003401401E
:101620000004004000080040000C004010B5040019
:1016300003D094F83D0010B107E0012010BD002058
:1016400084F83C00204600F01FF8022084F83D009A
:10165000211D206800F042FF012084F8460084F834
:101660003E0084F83F0084F8400084F8410084F88C
:10167000420084F8430084F8440084F8450084F86C
:101680003D00002010BD000070B586B0002500951B
:1016900001950295039500684449454E454CB0F1CB
:1016A000804F2BD0444A90425FD1C86940F002007D
:1016B000C861C86900F002000490886940F0080021
:1016C00088618869694600F0080004901020009045
:1016D0003046FFF743FB606820F4406040F0E06074
:1016E00040F400606060002211461D20FFF7ACFC52
:1016F0005FF01D00FFF79AFC06B070BDC86940F0AE
:101700000100C861C86900F001000490886940F0D8
:1017100004008861886900F004000490886940F042
:10172000080088618869694600F0080004900C2070
:101730000090012002902148FFF710FB0820CDE91E
:101740000005694630460295FFF708FB606820F403
:10175000407040F0E06040F480706060002211460C
:101760001C20FFF771FC1C20C4E7154A9042C3D12E
:10177000C86940F00400C861C86900F00400049022
:10178000886940F0080088618869694600F00800AF
:101790000490402000903046FFF7E0FA0022114606
:1017A0001E20FFF751FC1E20A4E70000001002409D
:1017B000000C01400000014000040040000801400E
:1017C0000008004070B5044690F83C000025012850
:1017D00017D0012684F83C60022084F83D00206880
:1017E000826822F0770222F47F42826008685028E3
:1017F00038D00DDC20284FD005DC90B3102811D153
:101800004AE0022070BD302846D040280AD13BE093
:1018100060282FD070280DD0B0F5805F03D0B0F5D0
:10182000005F12D0012584F83D60002084F83C0060
:10183000284670BDCB68D1E90121206800F0A1FEE7
:101840002068816841F0770109E0CB68D1E9012186
:10185000206800F096FE2068816841F48041816034
:10186000E1E719E0CA684968206800F09CFE502151
:10187000206806E0CA684968206800F0DBFE602145
:10188000206800F088FECEE7CA684968206800F04A
:101890008AFE40212068F4E7226801461046F0E7FE
:1018A00070B50068B0F1804F12D1124C124D207803
:1018B00001280ED002280BD10821104800F05BFA55
:1018C000686008210D4800F057F92078401C20700E
:1018D00070BD0821094800F04EFA286007480168E9
:1018E0000A6A22F400720A620068016A41F4007117
:1018F0000162EAE70C000020880100206800002057
:101900002DE9F041054690F83C0000260C460128E0
:1019100010D0012085F83C0072B1042A1CD0082A9E
:101920002CD00C2A50D00126002085F83C003046EF
:10193000BDE8F0810220FBE7D4E90012E3682868E3
:1019400000F042FE2868816921F00C01816128685D
:101950008169A26811430FE0D4E90012E3682868A6
:1019600000F07AFE2868816921F44061816128686D
:101970008169A26841EA02218161D5E72868D4E93A
:10198000002C277B036A016A21F480710162C1691E
:1019900023F4007321F0030141EA0C0121F0F00C63
:1019A00039074FF400774CEA116107EA02221A4323
:1019B000C16102622868C16921F00C01C161286817
:1019C000C169A26811432BE02868D4E90021E768C7
:1019D000036AD0F820C02CF4805CC0F820C0D0F896
:1019E0001CC023F400532CF4407C4CEA012121F468
:1019F000704C4FF6FF7101EA07314FF4005741EA8E
:101A00000C0107EA02321A43C16102622868C16907
:101A100021F44061C1612868C169A26841EA0221DC
:101A2000C16181E710B5040003D094F83D0010B106
:101A300007E0012010BD002084F83C00204600F0A3
:101A40001EF8022084F83D00211D206800F046FDAC
:101A5000012084F8460084F83E0084F83F0084F8B2
:101A6000400084F8410084F8420084F8430084F880
:101A7000440084F8450084F83D00002010BD704704
:101A800030B50446002551B104290DD0082910D0E5
:101A900094F8412094F84500012A11D10EE094F801
:101AA0003E2094F84200F7E794F83F2094F8430072
:101AB000F2E794F8402094F84400EDE7012801D0C3
:101AC000012030BD022059B1042912D0082919D0B3
:101AD00084F8410084F845000C293ED001253AE005
:101AE00084F83E0084F842002068C26842F0020296
:101AF00010E084F83F0084F843002068C26842F098
:101B0000040207E084F8400084F844002068C268BA
:101B100042F00802C2600122206800F025FD114950
:101B2000206888420ED0104988420BD0B0F1804F17
:101B300008D00E49884205D00D49884202D00D498F
:101B4000884204D1816801F00701062903D00168A9
:101B500041F001010160284630BD2068C26842F0B2
:101B60001002D7E7002C014000340140000400407F
:101B700000080040000C004070B50D0004464FF016
:101B8000000607D0042D0AD0082D0DD00C2D10D042
:101B900001262FE02068C16821F002010DE02068D5
:101BA000C16821F0040108E02068C16821F0080143
:101BB00003E02068C16821F01001C16000222946BD
:101BC000206800F0D1FC2068016A41F21112114234
:101BD00007D1016A9210114203D1016821F001017D
:101BE0000160012045B1042D09D0082D0AD004F868
:101BF000410F2071304670BD04F83E0FF9E704F83C
:101C00003F0FF6E704F8400FF3E770B504460068AD
:101C100001694FF00005C943890715D4C168C9435C
:101C2000890711D4E91E01610120207720688069AD
:101C30008007204602D0FFF733FE04E000F098F85A
:101C4000204600F096F8257720680169C9434907C6
:101C500017D4C168C943490713D46FF00401016167
:101C6000022020772068806910F4407F204602D04F
:101C7000FFF716FE04E000F07BF8204600F079F84C
:101C8000257720680169C943090716D4C168C9438B
:101C9000090712D46FF00801016104202077206841
:101CA000C0698007204602D0FFF7FAFD04E000F08B
:101CB0005FF8204600F05DF8257720680169C94388
:101CC000C90617D4C168C943C90613D46FF01001FF
:101CD0000161082020772068C06910F4407F204609
:101CE00002D0FFF7DDFD04E000F042F8204600F0EE
:101CF00040F8257720680169C943C90708D1C16840
:101D0000C943C90704D1891E0161204600F032F899
:101D100020680169C943090609D4C168C943090695
:101D200005D46FF0800101612046FFF73FFC206879
:101D30000169C943490609D4C168C943490605D4A4
:101D40006FF040010161204600F02AF82068016927
:101D5000C94389060BD4C168C943890607D46FF00B
:101D6000200101612046BDE87040FFF720BC70BD36
:101D70007047704770470246002041B1042909D0DE
:101D800008290AD00C2901D11068006C704710682E
:101D9000406B70471068806B70471068C06B70476D
:101DA0007047704770470000F8B50168044608683E
:101DB000CA684B6910F00F0F4FF000055AD003F0BE
:101DC000010602F49077374365D0C10705D0D105ED
:101DD00003D5616C41F001016164410705D5D90764
:101DE00003D0616C41F002016164810705D5D90718
:101DF00003D0616C41F004016164010707D502F072
:101E00002001314303D0616C41F008016164616CD1
:101E100000293BD0800604D5900602D5204600F06C
:101E200065FC20684069616CC0F3801001F0080116
:101E3000014320462BD000F032FC20684069400668
:101E400021D52068143050E8001F21F0400140E8FF
:101E50000012002AF5D1E06BA8B16D494163E06B37
:101E6000FEF7D2FE002811D0E06B416B01B0BDE857
:101E7000F040084783060ED593060CD52046BDE8F2
:101E8000F84000F033BC2046FFF78CFFF8BDFFF7A9
:101E900089FF6564F8BD266B2023012E7CD1C60620
:101EA0007AD5D60678D508684868009048694FF01A
:101EB0000206400640D5E16B086840680004000C4B
:101EC000E8D0A28D8242E5D9E085886920282DD00E
:101ED00020680C3050E8001F21F4807140E80012A7
:101EE000002AF5D12168143151E8000F20F00100DB
:101EF00041E80002002AF5D12068143050E8001FA4
:101F000021F0400140E80012002AF5D184F8423067
:101F1000256320680C3050E8001F21F0100140E8D4
:101F20000012002AF5D1E06BFEF74BFE6663A08D30
:101F3000E18D401A81B22AE0A08DE18D401A81B274
:101F4000E08D0028A6D00029A4D022680C3252E8E7
:101F5000000F20F4907042E80007002FF5D12068B0
:101F6000143050E8002F22F0010240E80027002F33
:101F7000F5D184F84230256320680C3050E8002FFA
:101F800022F0100240E80023002BF5D166632046C2
:101F9000FFF707FFF8BDFFE705062BD5150629D586
:101FA00094F841002128F5D1A068B0F5805F01D1F7
:101FB0002069B0B1206A411C216221680078486024
:101FC000E08C401E0004000CE084E3D12068C1686E
:101FD00021F08001C1602068C16841F04001C1600A
:101FE000D8E7206A0088C0F308004860206A801C97
:101FF0002062E5E74006CDD55006CBD5CA6820461D
:1020000022F04002CA6084F8413000F0C3F8C1E712
:102010008F26000870B5040004D094F84100002514
:1020200010B106E0012070BD84F84050204600F059
:1020300023F8242084F841002068C16821F400516D
:10204000C160204600F0B4FB2068016921F4904192
:1020500001612068416921F02A0141612068C1685D
:1020600041F40051C1606564202084F8410084F887
:1020700042006563002070BD30B585B00024009437
:102080000194029403940068184988422CD118489E
:10209000816941F480418161816901F48041049149
:1020A000816941F0040181618069124D00F00400F2
:1020B00004904FF4007000900220019003200390E0
:1020C00069462846FEF74AFE2815CDE90004694610
:1020D00028460294FEF742FE002211462520FEF714
:1020E000B3FF2520FEF7A2FF05B030BD0038014048
:1020F000001002400008014070472DE9F8430446F3
:1021000090F841001F4616460D46202802D00220B6
:10211000BDE8F8837DB176B100206064212084F8A9
:102120004100FEF725FFA6848046E684A068B0F54E
:10213000805F02D003E00120EAE7206910B12E465B
:1021400000250EE000260CE08021204600F08CFBEC
:10215000A0B9AEB116F8010B21684860E08C401EB2
:10216000E084E08C43464FF0000200970028EBD15A
:102170004FF04001204600F077FB30B10320C7E765
:1021800035F8020BC0F30800E6E7202084F8410090
:102190000020BDE77047FEE710B51F488AB01D4913
:1021A000016006210024C0E901144FF00071C160F4
:1021B0004FF4E02101614FF400114161047644764F
:1021C0008476C47604774477FEF7E4FB08B1FEF723
:1021D000DCF90120CDE906400890059404940094B0
:1021E0000194029469460C480394FEF7E3F908B1A0
:1021F000FEF7CBF90848FEF7B1FC08B1FEF7C5F9C8
:1022000002210548FEF7C3F9002801D0FEF7BDF909
:102210000AB010BD00640040400000202DE9F043EA
:1022200085B000242B4800940194029403948169A2
:1022300041F020018161816901F0200104918169EF
:1022400041F004018161816901F004010491816917
:1022500041F0080181618069DFF87C8000F00800AE
:10226000049000224FF4F8714046FEF77BFEDFF841
:102270006C904FF41047002239464846FEF772FE34
:10228000102001250326CDE90005CDE90246694667
:102290004046FEF763FD4FF4F070CDE90005CDE94F
:1022A000024669464046FEF759FD46F68240CDE9B2
:1022B0000004694648460294FEF750FD00970396D5
:1022C000CDE9015469464846FEF748FD05B0BDE832
:1022D000F08300000010024000080140000C0140A3
:1022E00010B58AB000242A480494059406940794F3
:1022F000089409940094019402944FF0804103944F
:1023000001604721C0E901144CF24F31C0E90314C8
:1023100080218161FFF78AF908B1FEF736F94FF4A1
:102320008050049004A91A48FFF74CFA08B1FEF750
:102330002CF91748FFF776FB08B1FEF726F9089449
:1023400008A913480994FFF733F908B1FEF71DF9FE
:102350000120CDE900400294042269460C48039410
:10236000FFF7CEFA08B1FEF710F9082269460848CF
:10237000FFF7C6FA08B1FEF708F90C2269460448CF
:10238000FFF7BEFA002801D0FEF7FFF80AB010BD33
:10239000680000200C4810B50A4901604FF4E13193
:1023A0004160002181600C22C160C0E9041281619A
:1023B000C161FFF72FFE002803D0BDE81040FEF7F3
:1023C000E4B810BD0038014040010020FEE7FEE700
:1023D00070477047FEF7D2BD30B58FB028216846F0
:1023E000FDF7D9FE14210AA8FDF7D5FE0121080446
:1023F000CDE900100024029402250491CDE9075094
:102400004FF4E01009906846FEF72CFF08B172B651
:10241000FEE70F20CDE90A054FF48060CDE90C40BE
:1024200002210AA80E94FEF741FE002801D072B6E0
:10243000FEE70FB030BD704710B5164C2078C0B124
:10244000032815D11448D0E90012501A8A4202D844
:102450004CF2503108446060FDF7A8FE00F052FBDA
:10246000FDF7B1FE01460DA000F048FA00202070F3
:1024700010BD012020700F4801680A6A22F4007222
:102480000A620068016A0162BDE81040082109483B
:10249000FFF7F6BA0C000020880100206869676821
:1024A0005F74696D652069732025642075730D0A5A
:1024B00000000000680000200148FFF7A6BB0000F4
:1024C000680000200148FFF7A0BB0000B00000201A
:1024D0000148FFF79ABB0000F8000020F0B5026841
:1024E0001C4B1D4D1D4E1E4F1E4C4FF0804C9842F4
:1024F00009D0A04207D0604505D0A84203D0B04221
:1025000001D0B84204D122F0700E4A6842EA0E02AD
:10251000984209D0A04207D0604505D0A84203D018
:10252000B04201D0B84203D122F44075CA682A43B0
:102530004D6922F080022A4302608A68C2620A68FA
:102540008262984201D0A04201D109690163012150
:102550004161F0BD002C0140000400400008004033
:10256000000C00400034014010B501F01F030121B0
:10257000046A99408C430462016A9A4011430162E3
:1025800010BD10B5846842EA032224F47F440A4354
:102590002243826010BD826822F070020A4342F03A
:1025A00007018160704710B5036A046A24F00104D2
:1025B0000462846924F0F00444EA021423F00A025D
:1025C0000A438461026210BD70B5056A046A24F092
:1025D000010404628469124EB0420ED0114EB04222
:1025E0000BD0B0F1804F08D00F4EB04205D00F4E47
:1025F000B04202D00E4EB04203D124F00304144383
:1026000001E044F001041A0724F0F00444EA1262E5
:1026100025F00A0301F00A0119438261016270BDCD
:10262000002C01400034014000040040000800403C
:10263000000C004010B5036A046A24F01004046220
:10264000846923F0A00324F4704444EA023243EA8C
:1026500001118261016210BD30B5046A056A25F07E
:1026600010050562856925F4407545EA022222F4C9
:1026700070454FF6FF7202EA033224F0A0032A43AA
:10268000A02404EA011119438261016230BD10B532
:10269000406A0021C185C184FFF784FB10BD016839
:1026A0000C3151E8002F22F4907241E80023002BF6
:1026B000F5D10168143151E8002F22F0010241E800
:1026C0000023002BF5D1016B012909D101680C31E0
:1026D00051E8002F22F0100241E80023002BF5D131
:1026E000202180F8421000210163704708B590F85E
:1026F0004210222901D0022008BD82684FF4805385
:102700009A4201D1016921B1816A9A421BD04AB132
:102710000AE00268816A5268C2F308020A80816A8C
:10272000891C08E0026972B10268526802F07F02F7
:102730000A70816A491C8162C18D491E0904090C15
:10274000C18503D01BE002685268F1E70168CA68DE
:1027500022F02002CA600168CA6822F48072CA604E
:1027600001684A6922F001024A61202180F8421082
:1027700000214163026B012A03D0FFF7BDFC00205A
:1027800008BD016301680C3151E8002F22F01002EE
:1027900041E80023002BF5D101680A68D20602D572
:1027A0000A6849680091818DFFF7FBFAE7E70000AE
:1027B00070B5044600680169E26821F44051114394
:1027C00001612169A0680843616908432168CA68FA
:1027D00041F20C639A430243CA6020684169A269CE
:1027E00021F44071114341611E492068884202D1A1
:1027F000FEF702FD01E0FEF7EFFC00EBC00101EB8C
:102800000012606864218000B2FBF0F3B3FBF1F3C7
:102810006FF018067343B2FBF0F5B2FBF0F605EB70
:102820008305322303EB0515B5FBF1F5B6FBF1F695
:1028300005F0F00505EB0615B2FBF0F6B2FBF0F083
:10284000B0FBF1F06FF01802504306EB800003EB91
:102850000010B0FBF1F0216800F00F002844886000
:1028600070BD0000003801402DE9F0419846174640
:102870000E460446069D27E0681C25D02DB1FEF7C4
:1028800077FBA0EB0800A8421ED920680C3050E866
:10289000001F21F4D07140E80012002AF5D1206811
:1028A000143050E8001F21F0010140E80012002A16
:1028B000F5D1202084F8410084F84200002084F8FB
:1028C00040000320BDE8F0812068006836EA00007F
:1028D00004D00020B842CFD00020F3E70120F9E770
:1028E0000148FFF761BA0000400100200148FDF7F0
:1028F00053BF000040000020FEE700000FB4054B6E
:1029000010B503A9044A029800F028F810BC5DF83D
:1029100014FB0000B12A0008000000200907090E7E
:10292000002804DB00F1E02080F80014704700F07C
:102930000F0000F1E02080F8141D704702E008C885
:10294000121F08C1002AFAD170477047002001E029
:1029500001C1121F002AFBD1704700002DE9FF4F73
:1029600089B09B460446002506E025280BD05A4630
:102970000B999047641C6D1C20780028F5D10DB090
:102980002846BDE8F08F0027B8460122474900E0FD
:10299000074314F8013F203B02FA03F00842F7D145
:1029A00020782E2819D114F8010F47F004072A289F
:1029B0000ED06FF02F022078A0F1300109290CD839
:1029C00008EB880102EB410100EB0108641CF2E70F
:1029D0000A98641C50F8048B0A9020780028CED006
:1029E000642808D0692806D075281ED05A460B994D
:1029F00090476D1C58E00A994FF00A0901C90A91E5
:102A0000002802DA40422D2102E0390504D52B21AD
:102A10008DF82010012103E0F90704D02021F7E709
:102A20008A4608AE0DE00021FAE70A994FF00A093C
:102A300001C90A91F7E74946FDF7E4FB303106F892
:102A4000011D0028F7D1ADEB060000F12009780741
:102A500001D44FF00108C84502DDA8EB090000E0F1
:102A600000208046002706E008A85A46C05D0B9962
:102A700090476D1C7F1C5745F6DB04E030205A461A
:102A80000B9990476D1CB8F10001A8F10108F5DC25
:102A900005E016F8010B5A460B9990476D1CB9F1E9
:102AA0000001A9F10109F4DC641C65E709280100B3
:102AB00013B54FF6FF73012269460248FFF71DFB6D
:102AC00000981CBD40010020FEF760FAFFF784FC6F
:102AD000FFF7A4FBFFF760FBFFF702FCFFF75AFCD0
:102AE000074D4FF480544FF4FA7621462846FEF7FE
:102AF00031FA3046FEF720F9FFF79EFCF5E70000BB
:102B0000000C01402DE9F04D07460E46FDF794FC00
:102B100004460D463A463346FDF78BFCDFF86CA0C1
:102B2000DFF86CB01B4B0746884616F0004F4FF09D
:102B300000020AD0FDF7C4FC0AD900225B463846E1
:102B40004146FDF7D5FC1BD212E0FDF7B9FC08D2D7
:102B50000022534620462946FDF768FC04460D46F0
:102B60000EE000225B4638464146FDF7C1FC07D81F
:102B70000022534620462946FDF7B7FB04460D4682
:102B80003146204665F31E01BDE8F08D0000F03FA0
:102B90000000E03F0000E0BF010202030405060759
:102BA00008090A0B0C0D0E0F1010000000000000A9
:102BB00000000102030406070809000000000102EA
:102BC00003040000E42B00080000002024000000A3
:102BD0003C290008082C000824000020740500008F
:102BE0004C29000800000000000000000000000068
:102BF00000000000000000000100000010000000C4
:082C0000000000000024F400B4
:0400000508000131BD
:00000001FF
