:020000040800F2
:1000000098520020E90200082726000879200008FD
:1000100025260008B1060008792E0008000000001F
:10002000000000000000000000000000290200089D
:10003000B3060008000000008502000871280008CF
:100040000303000803030008030300080303000878
:100050000303000803030008F5060008FB06000878
:100060000303000803030008030300080303000858
:100070000303000803030008030300080303000848
:100080000303000803030008030300080303000838
:100090000303000803030008030300080303000828
:1000A0003129000865290008592900084D29000850
:1000B000712900087D290008892900080303000828
:1000C00003030008030300080303000803030008F8
:1000D00003030008030300086D2E00080303000853
:1000E00003030008030300080303000803030008D8
:1000F000AD290008030300080303000803030008F8
:1001000003030008030300080303000803030008B7
:10011000030300080303000895290008A12900082B
:100120000303000803030008030300080303000897
:100130000303000803030008030300080303000887
:100140000303000803030008030300080303000877
:100150000303000803030008030300080303000867
:100160000303000803030008030300080303000857
:100170000303000803030008030300080000000055
:10018000030300080303000800F002F800F03CF845
:100190000AA090E8000C82448344AAF10107DA45E2
:1001A00001D100F031F8AFF2090EBAE80F0013F0F8
:1001B000010F18BFFB1A43F001031847784A0000EB
:1001C000984A0000103A24BF78C878C1FAD852077C
:1001D00024BF30C830C144BF04680C6070470000C1
:1001E0000023002400250026103A28BF78C1FBD840
:1001F000520728BF30C148BF0B6070471FB504F0DD
:1002000093FC1FBD10B510BD00F00CFA1146FFF7AE
:10021000F5FF02F04FFE00F03EFA03B4FFF7F2FFE5
:1002200003BC02F03AFE00002C4B19680868B0E8E5
:10023000F04F80F30988BFF36F8F4FF0000080F319
:10024000118870470000000008480068006880F3CB
:1002500008884FF0000080F3148862B661B6BFF3DF
:100260004F8FBFF36F8F00DF00BF00BF08ED00E0CE
:10027000DFF80C00016841F470010160704700BFB5
:1002800088ED00E0EFF30980BFF36F8F134B1A681E
:100290001EF0100F08BF20ED108A20E9F04F10600B
:1002A00009B44FF0500080F31188BFF34F8FBFF3B4
:1002B0006F8F03F05BFD4FF0000080F3118809BCE5
:1002C00019680868B0E8F04F1EF0100F08BFB0ECD6
:1002D000108A80F30988BFF36F8F70474C000020AD
:1002E000EFF3058070470000094880470948004740
:1002F000FEE7FEE7FEE7FEE7FEE7FEE7FEE7FEE7D6
:10030000FEE7FEE704480549054A064B7047000032
:100310002129000889010008984C002098520020EB
:10032000984E0020984E002053EA020C00F069809D
:100330002DE9F04B4FF00006002B1FBFB3FA83F5F9
:1003400003FA05F424FA05F65E4012BF1643B2FA2A
:1003500082F502FA05F4C5F120051EBF22FA05FC5C
:1003600044EA0C04203556EA044C4FEA144418BF02
:10037000641C4FF000084FF00009904271EB030C31
:1003800039D3002919BFB1FA81F701FA07F6B0FA9B
:1003900080F700FA07F6C7F120071EBF20FA07FC16
:1003A00046EA0C062037B6FBF4FCA7EB0507103F26
:1003B00007F01F0BCBF120060CFA0BFB2CFA06F60C
:1003C00044BFB3460026202FA4BF5E464FF0000B6B
:1003D0005BEA060C08BF4FF0010B19EB0B09ABFBF6
:1003E000027C48EB0608C01B06FB02CC0BFB03CCCF
:1003F00071EB0C01C1E70B46024641464846BDE899
:10040000F08B13B54FF000004FF00001AFF3008008
:10041000BDE81C40704700000FB4044910B503AAA2
:10042000029800F07DF810BC5DF814FB3800002045
:10043000032A40F2308010F0030C00F0158011F810
:10044000013BBCF1020F624498BF11F801CB00F8E8
:10045000013B38BF11F8013BA2F1040298BF00F83C
:1004600001CB38BF00F8013B11F0030300F06A80B4
:10047000083AC0F0088051F8043B083A51F804CB20
:10048000A0E80810F5E7121D5CBF51F8043B40F8E6
:10049000043BAFF30080D20724BF11F8013B11F8F1
:1004A00001CB48BF11F8012B24BF00F8013B00F835
:1004B00001CB48BF00F8012B704702F0FF0343EA6D
:1004C000032242EA024200F071B84FF0000200B588
:1004D000134694469646203922BFA0E80C50A0E867
:1004E0000C50B1F12001BFF4F7AF090728BFA0E815
:1004F0000C5048BF0CC05DF804EB890028BF40F8E1
:10050000042B08BF704748BF20F8022B11F0804F22
:1005100018BF00F8012B7047704770477047000004
:10052000074B70B50D467B4400F065F8044628463D
:1005300000F074F810B14FF0FF3070BD204670BD70
:100540007329000010B5203AC0F00B80B1E81850B4
:10055000203AA0E81850B1E81850A0E81850BFF4AD
:10056000F5AF5FEA027C24BFB1E81850A0E818504C
:1005700044BF18C918C0BDE810405FEA827C24BFA0
:1005800051F8043B40F8043B08BF7047D20728BF2E
:1005900031F8023B48BF11F8012B28BF20F8023B7D
:1005A00048BF00F8012B70474FF000020429C0F04B
:1005B000128010F0030C3FF48AAFCCF1040CBCF1B4
:1005C000020F18BF00F8012BA8BF20F8022BA1EBE7
:1005D0000C01FFF77CBF5FEAC17C24BF00F8012B50
:1005E00000F8012B48BF00F8012B704701694A1C35
:1005F00002610878704700B58FB0CDE90131002164
:10060000059105497944CDE903101146684600F08B
:100610002EF80FB000BD0000E5FFFFFF007B00F0EB
:1006200080007047754600F03FF8AE460500694609
:10063000534620F00700854618B020B5FFF762FE4C
:10064000BDE820404FF000064FF000074FF00008D3
:100650004FF0000B21F00701AC46ACE8C009ACE854
:10066000C009ACE8C009ACE8C0098D4670472DE967
:10067000F04106460024D6E90170F5688046304610
:1006800003E04146B847641C3046A8470028F8D12B
:100690002046BDE8F08110B50446AFF30080204647
:1006A000BDE81040FFF7B9BD00487047344C00204A
:1006B000FEE7704710B5064C00220121204600F0ED
:1006C00095F90022A1152046BDE8104000F08EB932
:1006D000000C024010B5064C01221146204600F0E5
:1006E00085F920460122BDE81040110200F07EB9D4
:1006F000000C0240012000F075B8022000F072B832
:1007000072B6FEE72DE9F0410446876D00F074F9FA
:10071000064694F835000025022806D08020606542
:1007200084F834500120BDE8F0812068016821F090
:10073000160101602068416921F080014161206C4F
:1007400008B9A06C20B12068016821F0080101609F
:100750002068016821F0010101600CE000F04CF913
:10076000801B052807D920206065032084F8350008
:1007700084F83450D7E720680068C007EED194F8B9
:100780005C103F208840B860012084F8350084F870
:1007900034500020C7E790F83510022903D080219B
:1007A000416501207047052180F835100068016817
:1007B00021F00101016000207047000070B504467F
:1007C00000F01AF90546601C02D004480078044481
:1007D00000F012F9401BA042FAD370BD3C0000208B
:1007E00070470000044910B50A68024202D0086050
:1007F000FFF7F6FF10BD0000143C01402DE9F84F53
:10080000DFF8BCA10022012503264FF00F090AF1F1
:10081000040BAAF1040E00BF0B6805FA02F4234092
:10082000A34270D10F7907F00307012F01D0022FE7
:1008300016D187684FEA420806FA08FC27EA0C0737
:10084000D1F80CC00CFA08FC4CEA070CC0F808C040
:100850004768A7430C79C4F3001494403C434460B8
:100860000C79E443A4070AD0C4684FEA420C06FAA4
:100870000CF7BC438F6807FA0CF72743C7600C7965
:1008800004F00304022C12D1D40800EB840CDCF831
:1008900020405707FF0E09FA07F824EA0804D1F8A8
:1008A000108008FA07F848EA0408CCF820800468A9
:1008B0004FEA420C06FA0CF7BC430F7907F0030726
:1008C00007FA0CF7274307604C6814F4403F70D0D8
:1008D0003C4C276847F480472760246822F00307D0
:1008E00004F480440094384C07EB040CDCF808480E
:1008F00097074FEA177809FA08F7BC43334FB84215
:1009000002D1002724E054E0314FB84201D1012741
:100910001EE0304FB84201D1022719E02E4FB842F5
:1009200001D1032714E02D4FB84201D104270FE075
:100930002B4FB84201D105270AE02A4FB84201D116
:10094000062705E0284FB84201D1072700E0082715
:1009500007FA08F72743CCF80878DAF8004057463A
:10096000D1F804C09C435FEACC2C00D51C433C600A
:10097000DBF800405F46D1F804C09C435FEA8C2C52
:1009800000D51C433C60DEF800407746D1F804C037
:100990009C435FEA8C3C00D51C433C60084F083FF9
:1009A0003C68D1F804C09C435FEACC3C00D51C43B2
:1009B0003C60521C102AFFF42FAFBDE8F88F0000F6
:1009C000083C014044380240003001400000024031
:1009D0000004024000080240000C024000100240E7
:1009E0000014024000180240001C02400AB181615C
:1009F00070470904FBE70000014880687047000069
:100A00003C000020024881680278114481607047F0
:100A10003C0000200B4810B5016841F400710160F2
:100A2000016841F480610160016841F480710160F6
:100A3000032000F09FF80F2000F006F800F050F8B7
:100A4000002010BD003C024030B505461F4887B06D
:100A50000024016841F080010160006806A900F0EF
:100A60008000009001A800F031F90498A8B100F0CE
:100A70004DF940001649174AB0FBF1F11648491EDE
:100A8000026040F2E732C0E90324C0E90114846146
:100A900000F08CFB040003D015E000F037F9E9E723
:100AA0000D4800F0CFFC04000DD12C2000F034F8EC
:100AB000102D07D2002229462C2000F03BF80748D1
:100AC000056000E0012407B0204630BD40380240F8
:100AD00040420F00001C004018030020400000208E
:100AE0000C4882B0016841F480410160006800F464
:100AF000804000900748001F016841F0805101606C
:100B00000068002200F0805000900F21901E02B07B
:100B100000F010B844380240002809DB00F01F0242
:100B2000012191404009800000F1E020C0F800114F
:100B300070470000F0B40E4B1B680C46C3F3022351
:100B4000C3F10705042D00D90425191D072901D279
:100B5000002300E0DB1E012606FA05F1491E2140B4
:100B600099409E40761E16403143F0BC02F085B994
:100B70000CED00E0064900F0070208684FF6FF039D
:100B8000184040EA0220034A104308607047000002
:100B90000CED00E00000FA052DE9F0470E460500D7
:100BA00065D0DFF81481D8F80000F7B200F0070034
:100BB000B04207D288F80070D8F8000000F00700B3
:100BC000B04254D128683D4C810712D5400703D567
:100BD000206840F4E05020602878000703D52068A2
:100BE00040F4604020602068A96820F0F0000843CD
:100BF00020602878C0072DD030496868083901285E
:100C000012D0022813D0032811D0096889070029BF
:100C10002DDA216821F0030101432160FFF7ECFE8A
:100C2000814641F2883A0EE009688903EFE70968D6
:100C30008901ECE7FFF7E0FEA0EB0901514502D97D
:100C40000320BDE8F0872068696800F00C00B0EB75
:100C5000810FEFD1D8F80010404601F00701B142F2
:100C600007D90770006800F00700B04201D00120EA
:100C7000E7E72878400705D52068E96820F4E050C8
:100C8000084320602878000706D52068296920F4E9
:100C9000604040EAC100206000F058F82168084A2E
:100CA000C1F30311515CC84006490860064800685A
:100CB000FFF7CAFE0020C4E7003C024008380240AB
:100CC000D44B000848000020400000200F220260A2
:100CD0000C4A136803F003034360136803F0F00346
:100CE0008360136803F4E053C36012684FF4E05369
:100CF00003EAD20202610448006800F007000860BD
:100D00007047000008380240003C02400448054992
:100D100000680968044AC1F38221515CC8407047E9
:100D20004800002008380240E44B00080448054908
:100D300000680968044AC1F34231515CC8407047F9
:100D40004800002008380240E44B0008154810B560
:100D5000006810F00C02144813D04110042A0FD080
:100D6000082A0ED10F4C241F2268236802F03F028C
:100D70005B0207D52068C0F38810A0FB010106E0E4
:100D8000084610BD2168C1F38811A1FB00010023B2
:100D9000FFF7CAFA2168C1F30141491C4900B0FBC1
:100DA000F1F010BD083802400024F4002DE9F84F9E
:100DB00004006ED02078DFF84C93C007A9F1040539
:100DC0004AD009F104000168C1F38101012908D06A
:100DD0000068C0F3810002280AD1D9F8000040025F
:100DE00006D52868800337D560680028E1D033E055
:100DF0006068B0F5803F10D0B0F5A02F286810D003
:100E000020F480302860286820F480202860606802
:100E1000A8B1FFF7F1FD06460DE0286840F48030E8
:100E2000F4E740F480202860F7E700BFFFF7E4FD17
:100E3000801B642873D828688003F7D50CE0FFF77F
:100E4000DBFD064605E000BFFFF7D6FD801B6428EA
:100E5000F0D828688003F7D42078DFF8AC828007C8
:100E60004FF0000A3ED5A748001D016811F00C0F95
:100E700008D00068C0F3810002280BD1D9F8000027
:100E8000400207D42868800716D5E068012800D101
:100E900012E033E1E068B8B10120C8F80000FFF7C4
:100EA000ABFD064605E000BFFFF7A6FD801B02284C
:100EB000C0D828688007F7D52868216920F0F80095
:100EC00040EAC10028600DE0C8F800A0FFF794FDDB
:100ED000064604E0FFF790FD801B02281FD8286813
:100EE0008007F7D42078000722D5864F87486169AC
:100EF000703771B101210160FFF77EFD064604E005
:100F0000FFF77AFD801B022809D838688007F7D5DB
:100F10000EE0C0F800A0FFF76FFD064605E082E096
:100F2000FFF76AFD801B02287DD838688007F7D458
:100F30002078400768D5DFF8CCB100270BF13C0BD7
:100F4000DBF80000C0000BD4DBF8001041F080514A
:100F5000CBF80010DBF80000012700F08050009073
:100F60006B4E3068C00510D4306840F4807030603B
:100F7000FFF742FD009005E0FFF73EFD0099401AA3
:100F8000022850D83068C005F6D55E4EA0686C3691
:100F900001280FD00528306810D020F00100306003
:100FA000306820F004003060A068B8B1FFF724FD7D
:100FB00000900FE0306840F00100F4E740F00400DA
:100FC0003060F7E7FFF718FD0099411A41F28830C9
:100FD000814266D830688007F4D50EE0FFF70CFD3B
:100FE000009007E0FFF708FD0099411A41F28830B0
:100FF000814256D830688007F4D42FB1DBF8001056
:1010000021F08051CBF80010A069C8B33D49091DFB
:101010000968C1F3810102294AD00228504607D04D
:10102000C8F8600000E03CE0FFF7E6FC04463BE067
:101030004746C8F86000FFF7DFFC064605E000BF42
:10104000FFF7DAFC801B02282BD828688001F7D430
:10105000D4E907010843A16A2E4A490802EB01417D
:10106000626A41EA8211084394F82C1040EA016157
:10107000C9F8001001203866FFF7BEFC044606E000
:101080003EE000BFFFF7B8FC001B022809D8286823
:101090008001F7D534E000BFFFF7AEFC001B02284B
:1010A00002D90320BDE8F88F28688001F4D427E036
:1010B0000128F7D0D9F80000E26900F480019142DC
:1010C0001CD1226A00F03F01914217D147F6C0714E
:1010D000626A0140B1EB821F10D1A26A4FF0FF3368
:1010E00000F4403103EB5202B1EB024F06D194F809
:1010F0002C1000F07060B0EB016F01D00120D1E73F
:101100000020CFE70438024000004742800E4742EB
:10111000007000400000FFFF7047704770B590F806
:101120003C20012A32D0012480F83C40022280F881
:101130003D2003685A689D6822F070060A683243B1
:101140005A60134B02689A4214D0B2F1804F11D00A
:10115000104B9A420ED0104B9A420BD00F4B9A4232
:1011600008D00F4B9A4205D00E4B9A4202D00E4B3C
:101170009A4204D1496825F080031943916080F8B0
:101180003D40002180F83C10084670BD022070BD33
:10119000000001400004004000080040000C004036
:1011A00000040140004001400018004010B5040058
:1011B00003D094F83D0010B107E0012010BD0020DD
:1011C00084F83C00204600F01FF8022084F83D001F
:1011D000211D206801F0F0FB012084F8460084F80E
:1011E0003E0084F83F0084F8400084F8410084F811
:1011F000420084F8430084F8440084F8450084F8F1
:101200003D00002010BD0000F0B587B00446142159
:101210006846FFF75AF98249804A25680023804EC4
:10122000143902247F484FF0010C954237D13268BF
:1012300042F001023260326802F0010205920A684F
:1012400042F010020A60096801F010010591610383
:101250000091CDE90143CDE9033C6946FFF7CEFAA1
:10126000002205211820FFF765FC1820FFF754FC29
:10127000002205211920FFF75DFC1920FFF74CFC27
:10128000002205211A20FFF755FC1A20FFF744FC25
:10129000002205211B20FFF74DFC1B204DE0604A7A
:1012A000614F121FB5F1804F26D0DFF880E14FF07B
:1012B000400C754545D1106840F002001060106880
:1012C00000F002000590086840F00100086008681E
:1012D000CDF800C0CDE9014300F00100CDE90440A4
:1012E000694603935248FFF789FA002205211D2021
:1012F000FFF720FC1D2020E0106840F00100106086
:10130000106800F001000590086840F002000860D5
:101310000868694600F0020005904FF48060009074
:10132000CDE90143CDE9033C3846FFF767FA0022D7
:1013300005211C20FFF7FEFB1C20FFF7EDFB07B08B
:10134000F0BDDFF8F0E0754520D1106840F00400F2
:101350001060106800F004000590086840F002007A
:1013600008600868CDF800C0CDE9014300F0020034
:10137000CDE90440694603933846FFF73FFA00225F
:1013800005211E20FFF7D6FB1E20D6E72A4FBD42BF
:101390000ED1106840F0100010601068002200F0BC
:1013A0001000059005213620FFF7C4FB3620C4E766
:1013B000224FBD420ED1106840F02000106010682E
:1013C000002200F02000059005213720FFF7B2FB36
:1013D0003720B2E71A4A9542B1D1326842F48032DE
:1013E0003260326802F4803205920A6842F01002DC
:1013F0000A60096801F01001059160210091CDE9B2
:1014000001430321CDE903316946FFF7F7F90022D3
:1014100005211820FFF78EFB18208EE70000014001
:101420004438024000100240000402400004004022
:10143000000002400008004000100040001400407E
:101440000040014090F83D10012901D00120704773
:10145000022180F83D100168CA6842F00102CA60AA
:1014600000681149884214D0B0F1804F11D00F4963
:1014700088420ED00E4988420BD00E49884208D0CF
:101480000D49884205D00D49884202D00C49884256
:1014900004D1816801F00701062903D0016841F0F9
:1014A000010101600020704700000140000400407D
:1014B00000080040000C00400004014000400140D2
:1014C000001800400168CA6822F00102CA60016881
:1014D0000A6A41F211131A4207D10A6A9B101A4292
:1014E00003D10A6822F001020A60012180F83D1050
:1014F0000020704770B5044690F83C000025012894
:1015000017D0012684F83C60022084F83D00206852
:10151000826822F0770222F47F42826008685028B5
:1015200038D00DDC20284FD005DC90B3102811D125
:101530004AE0022070BD302846D040280AD13BE066
:1015400060282FD070280DD0B0F5805F03D0B0F5A3
:10155000005F12D0012584F83D60002084F83C0033
:10156000284670BDCB68D1E90121206801F09DFAC1
:101570002068816841F0770109E0CB68D1E9012159
:10158000206801F092FA2068816841F4804181600E
:10159000E1E719E0CA684968206801F098FA50212B
:1015A000206806E0CA684968206801F0E1FA602115
:1015B000206801F084FACEE7CA684968206801F023
:1015C00086FA40212068F4E7226801461046F0E7D9
:1015D0002DE9F84F01686B4CB1F1804F23D06A4A76
:1015E00000250126DFF8A481DFF8A4A14CF25037D2
:1015F0004FF08059914260D1007F01282BD1E078D3
:101600004FF00001002863483FD000F025FB80B276
:101610006081E57021898842A0EB010000D8384440
:10162000A081A08964E0007F022814D1594DA078E0
:10163000E43D012811D002280DD1082105F1540004
:1016400000F00AFB6860082105F1540000F0F0F991
:10165000A078401CA070BDE8F88F4E480821903853
:1016600000F0FAFA28604B48903801680A6A22F4C0
:1016700020620A6201680A6A22F420620A62006833
:10168000016A41F400710162E2E700F0E5FA2081AD
:10169000E670C6E703F04CF80128DCD06946D8F8BC
:1016A000000002F00AFE00980028D4D0CAF800908A
:1016B000BFF34F8FBFF36F8FCDE7374A91421FD1F2
:1016C000007F0128C7D120794FF000010028314860
:1016D00000F1D8000FD000F0BFFA80B2208225714F
:1016E000E1898842A0EB010000D838446082608A1A
:1016F0000528CFD0AFE700F0AFFAE0812671F6E71A
:10170000264A91421DD1007F0128A4D160794FF073
:10171000000100281F48A0F148000DD000F09CFAFD
:1017200080B2E0826571A18A8842A0EB010000D8F6
:1017300038442083208BDBE700F08EFAA0826671AC
:10174000F8E7174A914286D1007F012883D1A0791A
:101750004FF00C0100280F48A0F1D8000DD000F088
:101760007BFA80B2A083A571618B8842A0EB010057
:1017700000D83844E083E08BBAE700F06DFA60836C
:10178000A671F8E7140000200008004010000020B7
:1017900004ED00E0B00100200040014000040040E2
:1017A000000001402DE9F041054690F83C0000267C
:1017B0000C46012810D0012085F83C0072B1042AA3
:1017C0001CD0082A2CD00C2A50D00126002085F8E5
:1017D0003C003046BDE8F0810220FBE7D4E900126E
:1017E000E368286801F084F92868816921F00C0118
:1017F000816128688169A26811430FE0D4E9001271
:10180000E368286801F0C6F92868816921F440611D
:10181000816128688169A26841EA02218161D5E776
:101820002868D4E9002C277B036A016A21F48071BF
:101830000162C16923F4206321F0030141EA0C0134
:1018400021F0F00C39074FF420674CEA116107EAE8
:1018500002221A43C16102622868C16921F00C01A9
:10186000C1612868C169A26811432BE02868D4E9E6
:101870000021E768036AD0F820C02CF4805CC0F82F
:1018800020C0D0F81CC023F420432CF4407C4CEA48
:10189000012121F4704C4FF6FF7101EA07314FF43A
:1018A000204741EA0C0107EA02321A43C161026291
:1018B0002868C16921F44061C1612868C169A268D2
:1018C00041EA0221C16181E710B5040003D094F818
:1018D0003D0010B107E0012010BD002084F83C005D
:1018E000204600F01EF8022084F83D00211D2068EB
:1018F00001F062F8012084F8460084F83E0084F884
:101900003F0084F8400084F8410084F8420084F8E5
:10191000430084F8440084F8450084F83D0000202A
:1019200010BD704730B50446002551B104290DD0D3
:10193000082910D094F8410094F84520012811D1CD
:101940000EE094F83E0094F84220F7E794F83F0048
:1019500094F84320F2E794F8400094F84420EDE72F
:10196000012A01D0012030BD022059B1042912D032
:10197000082919D084F8410084F845000C2944D086
:10198000012540E084F83E0084F842002068C268E7
:1019900042F0020210E084F83F0084F8430020681F
:1019A000C26842F0040207E084F8400084F8440072
:1019B0002068C26842F00802C2600122206801F07B
:1019C00067F814492068884214D0B0F1804F11D0D4
:1019D000114988420ED0114988420BD010498842E3
:1019E00008D01049884205D00F49884202D00F49DB
:1019F000884204D1816801F00701062903D00168FB
:101A000041F001010160284630BD2068C26842F003
:101A10001002D1E70000014000040040000800402F
:101A2000000C00400004014000400140001800404C
:101A300070B50D0004464FF0000607D0042D0AD003
:101A4000082D0DD00C2D10D001262FE02068C16884
:101A500021F002010DE02068C16821F0040108E0D6
:101A60002068C16821F0080103E02068C16821F006
:101A70001001C16000222946206801F009F82068A1
:101A8000016A41F21112114207D1016A921011420A
:101A900003D1016821F001010160012045B1042D4D
:101AA00009D0082D0AD004F8410F2071304670BDCE
:101AB00004F83E0FF9E704F83F0FF6E704F8400F8B
:101AC000F3E72DE9F04104460068C66805694FF068
:101AD0000007A90713D5B10711D5F91E016101202F
:101AE0002077206880698007204602D0FFF770FDCC
:101AF00004E000F07EF8204600F07CF827776807C5
:101B000016D5700714D521686FF004000861022013
:101B100020772068806910F4407F204602D0FFF7CC
:101B200057FD04E000F065F8204600F063F82777E1
:101B3000280715D5300713D521686FF00800086114
:101B4000042020772068C0698007204602D0FFF774
:101B50003FFD04E000F04DF8204600F04BF82777F9
:101B6000E80616D5F00614D521686FF0100008615C
:101B7000082020772068C06910F4407F204602D0FA
:101B8000FFF726FD04E000F034F8204600F032F8BC
:101B90002777E80708D0F00706D021686FF001002A
:101BA0000861204600F028F8280608D5300606D53A
:101BB00021686FF0800008612046FFF7ADFA6806E3
:101BC00008D5700606D521686FF0400008612046F0
:101BD00000F057F8A8060AD5B00608D521686FF0BE
:101BE000200008612046BDE8F041FFF796BABDE845
:101BF000F08170477047000010B504460068124934
:101C0000884201D1FEF7FEFE1049206888421AD1B1
:101C10000F4C2078401C00F00F0020706178491CA8
:101C200001F00F01617000F0FFFC607800F020FD12
:101C300020786178084306D10648FFF743FCBDE8E9
:101C40001040FEF737BD10BD001C004000100040E2
:101C500014000020F80100200246002041B10429B0
:101C600009D008290AD00C2901D11068006C7047EE
:101C70001068406B70471068806B70471068C06BCD
:101C80007047704770477047F8B5016804460868A8
:101C9000CA684B6910F00F0F4FF000055AD003F0DF
:101CA000010602F49077374365D0C10705D0D1050E
:101CB00003D5616C41F001016164410705D5D90785
:101CC00003D0616C41F002016164810705D5D90739
:101CD00003D0616C41F004016164010707D502F093
:101CE0002001314303D0616C41F008016164616CF3
:101CF00000293BD0800604D5900602D5204600F08E
:101D000093FF20684069616CC0F3801001F0080106
:101D1000014320462BD000F060FF20684069400658
:101D200021D52068143050E8001F21F0400140E820
:101D30000012002AF5D1E06BA8B16E490165E06B95
:101D4000FEF729FD002811D0E06B016D01B0BDE860
:101D5000F040084783060ED593060CD52046BDE813
:101D6000F84000F061BF2046FFF78DFFF8BDFFF798
:101D70008AFF6564F8BD266B2023012E7DD1C6063F
:101D80007BD5D60679D508684868009048694FF039
:101D90000206400641D5E16B086840680004000C6B
:101DA000E8D0A28D8242E5D9E085C869B0F5807F90
:101DB0002DD020680C3050E8001F21F4807140E8DD
:101DC0000012002AF5D12168143151E8000F20F0EB
:101DD000010041E80002002AF5D12068143050E8E3
:101DE000001F21F0400140E80012002AF5D184F8DC
:101DF0004230256320680C3050E8001F21F01001AC
:101E000040E80012002AF5D1E06BFEF77BFC666328
:101E1000A08DE18D401A81B22AE0A08DE18D401A9B
:101E200081B2E08D0028A5D00029A3D022680C3211
:101E300052E8000F20F4907042E80007002FF5D11F
:101E40002068143050E8002F22F0010240E80027FB
:101E5000002FF5D184F84230256320680C3050E81B
:101E6000002F22F0100240E80023002BF5D166631A
:101E70002046FFF707FFF8BDFFE705062BD515063F
:101E800029D594F841002128F5D1A068B0F5805FEC
:101E900001D12069B0B1206A411C2162216800781B
:101EA0004860E08C401E0004000CE084E3D1206810
:101EB000C16821F08001C1602068C16841F0400123
:101EC000C160D8E7206A0088C0F308004860206A33
:101ED000801C2062E5E74006CDD55006CBD5CA6808
:101EE000204622F04002CA6084F8413000F0C3F876
:101EF000C1E70000CB2B000870B5040004D094F8B3
:101F00004100002510B106E0012070BD84F840506A
:101F1000204600F023F8242084F841002068C1689E
:101F200021F40051C160204600F0E0FE2068016904
:101F300021F4904101612068416921F02A01416149
:101F40002068C16841F40051C1606564202084F8B4
:101F5000410084F842006563002070BD10B586B072
:101F6000044614216846FEF7B0FA174920688842F3
:101F700028D116480021026842F40032026000684D
:101F800000F40030059011481038026842F0010258
:101F90000260006800F0010005900C200090022013
:101FA000CDE9010103200390072004906946084809
:101FB000FEF724FC002205212620FEF7BBFD26208B
:101FC000FEF7AAFD06B010BD0044004040380240B4
:101FD0000000024070472DE9F843044690F84100A4
:101FE000984616460D46202802D00220BDE8F88308
:101FF00085B17EB100206064212084F84100FEF7A5
:10200000FBFCA6848146E684A0682027B0F5805FAB
:1020100002D003E00120E9E7206910B12E46002537
:102020000EE000260CE08021204600F0E5FEA8B975
:10203000C6B116F8010B21684860E08C401EE084B0
:10204000E08C4B464FF00002CDF800800028EAD12A
:102050004FF04001204600F0CFFE40B184F84170BF
:102060000320C3E735F8020BC0F30800E3E784F868
:1020700041700020BAE77047FEE7000010B50B4C36
:10208000012291032046FEF7B1FC012251032046B4
:10209000FEF7ACFC0122D1032046FEF7A7FC01228B
:1020A000BDE8104011460248FEF7A0BC000C0240FB
:1020B0000010024010B50D4C00224FF48041204624
:1020C000FEF794FC00224FF400512046FEF78EFCF0
:1020D00000224FF400412046FEF788FC0022BDE8B4
:1020E000104001210248FEF781BC0000000C0240B4
:1020F0000010024010B5124A0021082000F032FF03
:10210000104C0F4A00212061903A0F4800F076FFF2
:102110000B4A20606C3A00210C4800F06FFF084A1F
:102120006060483A00210A4800F068FF044AA06055
:10213000243A0021074800F061FFE06010BD000074
:10214000C44B000800000020D9270008F126000831
:102150007D270008B92600082DE9F04786B0142134
:102160006846FEF7B2F93F480024016841F01001CB
:102170000160016801F010010591016841F08001E2
:102180000160016801F080010591016841F00101E1
:102190000160016801F001010591016841F002014F
:1021A0000160016801F002010591016841F0080138
:1021B00001600068DFF8B08000F0080005900022A0
:1021C00008214046FEF712FCDFF8A0900022022111
:1021D0004846FEF70BFCDFF898A04FF61F77002269
:1021E00039465046FEF702FC012203214046FEF725
:1021F000FDFB0B200126CDE900060225694640467D
:10220000CDE90245FEF7FAFACDE90056694648469F
:10221000CDE90245FEF7F2FA032000904FF4881052
:10222000CDE9010469461348FEF7E8FA01AA112036
:10223000009782E8310069465046FEF7DFFA002237
:1022400005210620FEF776FC0620FEF765FC00223D
:1022500005210720FEF76EFC0720FEF75DFC06B0A7
:10226000BDE8F08730380240001002400000024014
:10227000000C02400004024010B58AB0002424483B
:102280000494059406940794089409940094019486
:1022900002941E4903940160A721C0E901144CF285
:1022A0004F31C0E903148021C0E90541FEF77EFFEC
:1022B00008B1FEF725FA4FF48050049004A91448A1
:1022C000FFF718F908B1FEF71BFA1148FFF7FCFAFF
:1022D00008B1FEF715FA089408A90D480994FEF70D
:1022E0001DFF08B1FEF70CFA022000900120CDE995
:1022F00001040C22694606480394FFF753FA0028AC
:1023000001D0FEF7FDF90AB010BD00000000014049
:10231000D800002010B58AB0002422480494059407
:1023200006940794089409940094019402944FF041
:102330008041039401605321C0E901141A49C0E9A6
:10234000031480218161FEF731FF08B1FEF7D8F94F
:102350004FF48050049004A91248FFF7CBF808B15D
:10236000FEF7CEF90F48FFF7AFFA08B1FEF7C8F94C
:10237000089408A90B480994FEF7D0FE08B1FEF7AF
:10238000BFF90120CDE900400294082269460548C2
:102390000394FFF707FA002801D0FEF7B1F90AB05D
:1023A00010BD0000200100209F86010010B58AB0FA
:1023B00000242348049405940694079408940994EF
:1023C0000094019402941D49039401605321C0E9D3
:1023D00001144CF24F31C0E9031480218161FEF7F2
:1023E000E5FE08B1FEF78CF94FF48050049004A983
:1023F0001348FFF77FF808B1FEF782F91048FFF79E
:1024000063FA08B1FEF77CF9089408A90C4809940E
:10241000FEF784FE08B1FEF773F902200090012058
:10242000CDE901040022694605480394FFF7BAF993
:10243000002801D0FEF764F90AB010BD0004004086
:102440006801002010B58AB0002423480494059444
:1024500006940794089409940094019402941D49E9
:10246000039401605321C0E901144CF24F31C0E9DB
:10247000031480218161FEF799FE08B1FEF740F94F
:102480004FF48050049004A91348FFF733F808B1C3
:10249000FEF736F91048FFF717FA08B1FEF730F9E2
:1024A000089408A90C480994FEF738FE08B1FEF715
:1024B00027F9022000900120CDE90104002269469D
:1024C00005480394FFF76EF9002801D0FEF718F9CC
:1024D0000AB010BD00080040B00100201CB5002467
:1024E0000E4800940C49019401605321C0E9011485
:1024F0000921C16080218161FEF758FE08B1FEF715
:10250000FFF80094694605480194FEF707FE00288D
:1025100001D0FEF7F5F81CBD00100040F8010020C6
:102520001CB500240F4800940D490194016042F24B
:10253000CF01C0E9011440F2F311C1608021816133
:10254000FEF734FE08B1FEF7DBF800946946054853
:102550000194FEF7E3FD002801D0FEF7D1F81CBD81
:10256000001400404002002010B588B000241E482E
:1025700005940694079404940094019402941949D4
:10258000039401605321C0E901144CF24F31C0E9BA
:10259000031480218161FEF709FE08B1FEF7B0F84F
:1025A0004FF48050049004A90F48FEF7A3FF08B130
:1025B000FEF7A6F80C48FFF787F908B1FEF7A0F878
:1025C000022000900120CDE901040022694606485E
:1025D0000394FFF7E7F8002801D0FEF791F808B060
:1025E00010BD000000400140880200200C4810B5DA
:1025F0000A4901604FF4E1314160002181600C2201
:10260000C160C0E904128161C161FFF775FC002857
:1026100003D0BDE81040FEF773B810BD0044004081
:10262000D0020020FEE7FEE72DE9F04100F00F00A8
:102630000E4FC208C0F38005C0F3400400F001064D
:1026400010213846FEF7D2F92A4608213846FEF70F
:10265000CDF9224604213846FEF7C8F932463846FD
:10266000BDE8F0410221FEF7C1B90000000C0240B4
:102670002DE9F04100F00F000E4FC208C0F38005B5
:10268000C0F3400400F001064FF480513846FEF7D5
:10269000ADF92A46F9143846FEF7A8F9224639154D
:1026A0003846FEF7A3F9324679153846BDE8F041C1
:1026B000FEF79CB9000C024008B50C4C4FF4FA75BB
:1026C0006A460021206901F0E3FE206901F03BF930
:1026D00010F0FF0F06D0FFF7EDFC2846FEF76EF86E
:1026E000FFF7CCFC012000F002FCE9E7000000202D
:1026F00008B5164D164E174FDFF85C804FF0FF34CB
:10270000214623466A46002002F08AF8012806D0B6
:1027100012A0FDF781FE012000F0E9FBF0E7286838
:10272000C16841F01001C1603068C16841F0020128
:10273000C1603868C16841F00201C160D8F800008A
:10274000C16841F00201C160E5E70000D800002047
:1027500068010020B00100208802002053746172DB
:102760007449435461736BC8CECEF1CDA8D6AABBD1
:10277000F1C8A1CAA7B0DC0D0A00000008B54FF0EF
:10278000FF34214623466A46002002F049F801281A
:1027900006D006A0FDF740FE012000F0A8FBF0E700
:1027A000FDF798FF0B48FEF74DFEF5E75374617295
:1027B000745265635F7377697463685461736BC83F
:1027C000CECEF1CDA8D6AABBF1C8A1CAA7B0DC0D68
:1027D0000A000000F80100201E4D1F4E1F4C2078FB
:1027E00010B1032831D114E0012020701C48016889
:1027F0000A6A22F420620A6201680A6A22F42062EC
:102800000A620068016A016208211548FFF78AF828
:102810001BE0D5E900108842A0EB010001D211496C
:10282000084430600020207030681B280DD105203E
:1028300020700023032219460B4801F009FF0023F2
:1028400003221946094801F003FF0A2000F04FFB5C
:10285000C5E70000CC000020340000201600002056
:1028600020010020A0860100F12600087D27000835
:1028700010B54FF0E020006901F05AFF012803D0A5
:10288000BDE8104001F01EBB10BD000030B593B094
:1028900030216846FDF719FE14210CA8FDF715FE3E
:1028A0001D480025016841F080510160006800F07A
:1028B000805011901948016841F48041016000681E
:1028C000022400F480401190012000900004019047
:1028D0008001CDE9064008AA0420A82182E813005F
:1028E0000B906846FEF762FA08B172B6FEE70CA9D3
:1028F0000F2081E831004FF4A0500F904FF480502A
:10290000109005210CA8FEF747F9002801D072B6F7
:10291000FEE713B030BD00004038024000700040B8
:102920000248016841F470010160704788ED00E0E1
:1029300010B50448FFF7C5F8BDE810400248FFF79E
:10294000C0B80000D8000020880200200148FFF72E
:10295000B8B80000D80000200148FFF7B2B8000066
:10296000D80000200148FFF7ACB80000D8000020D4
:102970000148FFF7A6B80000200100200148FFF73A
:10298000A0B80000680100200148FFF79AB80000D5
:10299000B00100200148FFF794B80000F8010020C2
:1029A0000148FFF78EB80000400200200148FFF701
:1029B00088B8000018030020F0B50268294C2A4DA1
:1029C0002A4E2B4F2B4B4FF0804CA04209D0604534
:1029D00007D0A84205D0B04203D0B84201D09842F7
:1029E00004D122F0700E4A6842EA0E02A0421BD0C7
:1029F000604519D0A84217D0B04215D0B84213D0C4
:102A0000984211D01C4DA8420ED01C4DA8420BD0AC
:102A10001B4DA84208D01B4DA84205D01A4DA84214
:102A200002D01A4DA84203D122F44075CA682A4345
:102A30004D6922F080022A4302608A68C2620A68F5
:102A40008262A04201D0984201D10969016301214B
:102A500041610169C90703D0016921F001010161E8
:102A6000F0BD0000000001400004004000080040EC
:102A7000000C0040000401400040014000440140BF
:102A80000048014000180040001C004000200040A9
:102A900010B501F01F030121046A99408C430462C0
:102AA000016A9A401143016210BD10B5846842EA80
:102AB000032224F47F440A432243826010BD8268CB
:102AC00022F070020A4342F007018160704710B59E
:102AD000036A046A24F001040462846924F0F004A7
:102AE00044EA021423F00A020A438461026210BD20
:102AF00070B5056A046A24F0010404628469154E05
:102B0000B04214D0B0F1804F11D0134EB0420ED06D
:102B1000124EB0420BD0124EB04208D0114EB0420D
:102B200005D0114EB04202D0104EB04203D124F075
:102B30000304144301E044F001041A0724F0F004F4
:102B400044EA126225F00A0301F00A011943826186
:102B5000016270BD00000140000400400008004018
:102B6000000C0040000401400040014000180040FB
:102B700010B5036A046A24F010040462846923F027
:102B8000A00324F4704444EA023243EA0111826152
:102B9000016210BD30B5046A056A25F010050562B2
:102BA000856925F4407545EA022222F470454FF606
:102BB000FF7202EA033224F0A0032A43A02404EAAD
:102BC000011119438261016230BD10B5806B002193
:102BD000C185C184FFF757F810BD01680C3151E879
:102BE000002F22F4907241E80023002BF5D10168F8
:102BF000143151E8002F22F0010241E80023002B9C
:102C0000F5D1016B012909D101680C3151E8002F80
:102C100022F0100241E80023002BF5D1202180F89A
:102C2000421000210163704708B590F84210222934
:102C300001D0022008BD82684FF480539A4201D12E
:102C4000016921B1816A9A421BD04AB10AE0026847
:102C5000816A5268C2F308020A80816A891C08E00E
:102C6000026972B10268526802F07F020A70816ADA
:102C7000491C8162C18D491E0904090CC18503D01C
:102C80001BE002685268F1E70168CA6822F020027E
:102C9000CA600168CA6822F48072CA6001684A6921
:102CA00022F001024A61202180F842100021416394
:102CB000026B012A03D0FFF78DF9002008BD0163E4
:102CC00001680C3151E8002F22F0100241E8002386
:102CD000002BF5D101680A68D20602D50A68496856
:102CE0000091818DFEF7CEFFE7E7000070B5044646
:102CF00000680169E26821F44051114301612169D2
:102D0000A068E26908436169114308432168CA6801
:102D100049F20C639A430243CA6020684169A26980
:102D200021F440711143416131492068884202D049
:102D30003049884202D1FDF7F9FF01E0FDF7E6FFD7
:102D4000E2690023192164253226B2F5004F62683A
:102D500028D0A0FB0101930F9200FDF7E5FA014690
:102D6000B0FBF5F06FF01802504301EB800006EB6A
:102D70000010B0FBF5F000F0F002B1FBF5F002EB53
:102D80000012B1FBF5F06FF01803584301EB80001F
:102D900006EB0010B0FBF5F000F00F0021681044C6
:102DA000886070BDA0FB010192185B41FDF7BCFA81
:102DB0000146B0FBF5F00201B1FBF5F06FF018032E
:102DC000584301EB800006EBC000B0FBF5F000F0CB
:102DD000F80002EB4002B1FBF5F0584301EB800034
:102DE00006EBC000B0FBF5F000F00700D6E70000EE
:102DF00000100140001401402DE9F84398461746A1
:102E00000D460446089E24E0701C22D0FDF7F4FD18
:102E1000A0EB0800B0421AD8CEB12068C1684907BB
:102E200017D5802D15D0402D13D00168C94309074F
:102E30000FD401680025406800902046FFF7CDFEC2
:102E40000820606484F840500120BDE8F883032026
:102E5000FBE72068006835EA000004D00020B84293
:102E6000D2D00020F1E70120F9E700000148FEF789
:102E70000BBF0000D0020020FEE70907090E002862
:102E800004DB00F1E02080F80014704700F00F0030
:102E900000F1E02080F8141D7047704713B54FF61D
:102EA000FF73012269460248FFF795F800981CBDA0
:102EB000D0020020FDF7AEFDFFF7E8FCFFF74CF96C
:102EC000FFF7DAF9FFF726FAFFF770FAFFF7BAFA19
:102ED000FFF74AFBFFF78AFBFFF700FBFFF720FB3A
:102EE00000F012F8FFF706F900F020F8FEE710B541
:102EF000EFF3058111B16FF0050403E0002408B180
:102F000000F080FE204610BDEFF3058010B16FF099
:102F1000050070470448016811B14FF0FF30704759
:102F200001210160002070479C00002010B5EFF3E4
:102F3000058010B16FF0050010BD08480168012937
:102F400002D04FF0FF3010BD054A002182F8141D59
:102F50000221016000F0BEFE002010BD9C00002098
:102F60000BE000E0F8B5144603460E464FF00005AE
:102F7000EFF3058098BB93B39E423DD84CB1A06857
:102F80000028E06803D0502836D3012002E008B1C1
:102F900032E00020012B05D010B31846A26800F0E3
:102FA000C4FF20E040B10320009000221146012020
:102FB000A36800F0FBFF04E003220021012000F0E1
:102FC000D4FF050018D086B100231A46194601F037
:102FD00065F8012809D0284600F0C6FD00250BE061
:102FE000184600F085FF050006D00CB1216800E00E
:102FF0000021284600F0A4FD2846F8BD2DE9FF4138
:103000000B464FF00005EFF30581039549BB40B334
:103010008027182100244AB3166806B13446966901
:103020001EB13146761E382E02D21679F60703D02D
:10303000002004B0BDE8F081566906B1B708D2F8A7
:1030400008C0BCF1000F0DD0D5685C2D18D31269F3
:103050003AB136B18DE806103A46214601F0CDFA74
:1030600003900DE0D6685EB912694AB903AACDE9AA
:103070000012BAB2214601F093FA012800D003955C
:103080000398D6E72DE9F041134C0F460546E66854
:103090002068001D00F044FC681C07D137B121688E
:1030A000BDE8F0410D48091D00F09CBC2068354486
:1030B000B5424560216805D2A06BBDE8F041091D0D
:1030C00000F078BC606B091D00F074FCA06A8542BA
:1030D00000D2A562BDE8F0814C000020500800201D
:1030E0002DE9F041054600F089FC2D4CA068401CFC
:1030F000A06020682B4F10B1606930B32BE02560D1
:10310000A068012827D1002606EB860007EB800087
:1031100000F042FC761C382EF6D3234800F03CFC2D
:103120002148143000F038FC1F48283000F034FCEF
:103130001D483C3000F030FC1B48503000F02CFCA7
:10314000194860631430A06305E02068E96AC06A2A
:10315000884200D82560606A401C60626864E86A42
:103160002169884200D9206100EB800007EB8000D4
:10317000291D00F037FC00F061FC606900280CD0CC
:103180002068E96AC06A884207D208494FF0805037
:103190000860BFF34F8FBFF36F8FBDE8F081000071
:1031A0004C000020A00300200008002004ED00E0F7
:1031B00038B500F023FC104C2068C8B90F4800F067
:1031C000EBFB0E48143000F0E7FB0C48E0601430D5
:1031D00020610A4B0020F03B009003F150021021C7
:1031E0000A2000F0E3FE206010B105A100F0A8FC69
:1031F000BDE8384000F022BC8800002054090020BF
:10320000546D72510000000030B4026C0B46002A6D
:103210000BD0C1681144C1608468A14201D3016828
:10322000C16030BC1846FDF703B930BC70472DE9CA
:10323000F041856B174604460026026C82B1C7B187
:10324000E068FDF7F5F8E168206C091AE160226892
:10325000914202D2A168081AE060022F16D017E04E
:103260002068A8B9A06801F021FB06460020A060F4
:103270000EE06068FDF7DCF8216C6068084460606F
:10328000A168884204D32068606001E005B16D1E2A
:103290006D1CA5633046BDE8F08110B5044690F87A
:1032A000590058B101280CD002280FD0502080F3CB
:1032B0001188BFF34F8FBFF36F8FFEE7206B00F0D5
:1032C000D1FB2046BDE8104000F0CCBB10BD000093
:1032D00010484FF47051420706D0C01D0D4920F030
:1032E0000700411AC1F570510B4A00230144C2E99D
:1032F00000030839183A21F0070111604B600B6098
:103300000B1AC0E9001393604FF000405360506106
:103310007047000034100020B8000020144E154CF7
:10332000A6F29C474FF08058DFF84C9012E000BFA7
:1033300000F064FBF068C568281D00F0F1FAA06891
:10334000401EA0606068401E606000F077FB284669
:10335000FFF7A3FF60680028EAD138680128F9D98F
:10336000C9F80080BFF34F8FBFF36F8FF2E7000003
:103370003C0800204C00002004ED00E070B51D4624
:10338000049C51B1C4F80020C4E90F01012120467A
:1033900000F040FE84F84C5070BD2460F4E700005B
:1033A0002DE9F05F8846DDE90B94154683469100D0
:1033B0009A460A9EA522206BFDF77FF86FF0030165
:1033C000206B01EB8501084420F00707780707D040
:1033D000502080F31188BFF34F8FBFF36F8FFEE74C
:1033E0000025B8F1000F0FD05FF00000221818F888
:1033F000001082F8341018F8001011B1401C102889
:10340000F4D384F8435001E084F83450382E00D3CC
:103410003726E662C4E91365201D00F0C8FA04F1FE
:10342000180000F0C4FA2461C6F138006462A0619B
:10343000656584F8585052465946384600F05AFAA5
:103440002060B9F1000F01D0C9F80040BDE8F09F3D
:1034500030B5114900E011460A688242FBD34B683F
:103460005C18844203D140681844486008464368A9
:103470001C18944209D1084C183C2468A24209D077
:1034800052681A4442600A6812680260814200D0A1
:10349000086030BD0460F9E7B800002070B5002472
:1034A00041600B4D0061914206D8D11A8269914268
:1034B00006D2011D286907E09A4203D2994201D33E
:1034C000012403E0011DE86800F074FA204670BD95
:1034D0008800002010B5044600F090FAA06B28B1D7
:1034E0005FF0000400F0AAFA204610BD0124F9E7BD
:1034F00030B589B03C4D6EE00498002806DADDE96D
:103500000601059A90470498002864DB069C6069D0
:1035100010B1201D00F004FA03A800F0D7F802460D
:1035200004980A2857D2DFE800F00505052D334A34
:1035300005052D3394F8280040F0010084F8280098
:103540000599A069059B01442046FFF7A7FF68B3D2
:10355000216A2046884794F8280040073BD5002080
:1035600000900598A169002342181946204601F0F1
:10357000A7FAD8B9502080F31188BFF34F8FBFF35B
:103580006F8FFEE714F8280F20F00100207022E072
:1035900094F8280040F0010084F828000598A06104
:1035A00028B1811813462046FFF778FF13E050201A
:1035B00080F31188BFF34F8FBFF36F8FFEE794F84E
:1035C0002800810703D4204600F04CFA03E020F0E5
:1035D000010084F82800002204A9286800F0BCFE3D
:1035E000002889D109B030BD880000202DE9FC41B8
:1035F0000F46054600F0B2FB01A800F067F804464C
:10360000019818B101F0CAF9BDE8FC81254EAFB1AF
:1036100030690068D0B30027291B3A46306800F0B3
:10362000CFFA01F0BBF90028EED11F494FF08050CE
:103630000860BFF34F8FBFF36F8FE5E7A542EBD86C
:1036400001F0ACF9F0682746C068C468201D00F09E
:1036500067F994F82800410719D5A0692B4641194C
:103660003A462046FFF71AFFA8B10020034601465C
:1036700000902A46204601F023FA60B9502080F3DA
:103680001188BFF34F8FBFF36F8FFEE707E020F085
:10369000010084F82800216A20468847B4E7012702
:1036A000BAE700008800002004ED00E00648416B06
:1036B000096829B1416BC968C96849688162704766
:1036C0004FF0FF31FAE700004C00002070B50546CE
:1036D00001F03CF8064E0446B068844203D200F084
:1036E00009F8012000E0002028602046B46070BD89
:1036F00088000020F8B5194D20E0C068C46806684D
:10370000201D00F00DF9216A2046884794F8280012
:10371000400713D5A0693044B04206D924616060E7
:10372000211DE86800F046F908E000200346014644
:1037300000903246204601F0C3F938B1E8680168CC
:103740000029DAD12969C5E90310F8BD502080F3BA
:103750001188BFF34F8FBFF36F8FFEE78800002003
:1037600008484068401C4FF0500080F3118804D096
:10377000BFF34F8FBFF36F8FFEE7BFF34F8FBFF3E2
:103780006F8FFEE7C0000020074CE068016841B180
:10379000C0680021D0F80000FFF728FFFFF7A8FE5F
:1037A000F3E701210020F7E7880000202DE9F04130
:1037B000044600F023F994F9455004F1240609E089
:1037C000606A48B1304601F0B1F808B100F048FA3B
:1037D0006D1E6DB2002DF3DC4FF0FF3684F84560AE
:1037E00000F02CF900F00AF994F9445004F11007A4
:1037F00009E0206948B1384601F098F808B100F0B6
:103800002FFA6D1E6DB2002DF3DC84F84460BDE824
:10381000F04100F013B900002DE9F0410546002702
:1038200000F09CFA324E306808B9FFF751FD70691C
:1038300005424ED1C5B3083568070ED005F0070024
:10384000C0F108000544680707D0502080F31188B4
:10385000BFF34F8FBFF36F8FFEE72DB370688542C4
:1038600037D82348183001460C6801E020460C4642
:103870006168A94202D221680029F7D131688C42DF
:1038800027D007682168016060680837411B10294C
:103890000FD96019420708D0502080F31188BFF378
:1038A0004F8FBFF36F8FFEE713E041606560FFF756
:1038B000CFFD61687068401A7060B268904200D2B3
:1038C000B060706901430020C4E90001F068401C49
:1038D000F06001F063F8780707D0502080F311887A
:1038E000BFF34F8FBFF36F8FFEE73846BDE8F0811F
:1038F000A000002010B5031F4FF080741C601B1F38
:1039000021F001011960191F044B0B6014390A6082
:10391000091F6FF0020244380A6010BD61370008C9
:10392000D0E9013201699A60D0E901235A604A68FE
:10393000824201D182684A60002202610868401E0A
:1039400008600868704710B5040006D000F056F80B
:10395000A46B00F073F8204610BD502080F311884E
:10396000BFF34F8FBFF36F8FFEE70000034B036081
:1039700003F15C0008608020106070477C09002023
:10398000044B036003F15C0008604FF4807010602A
:1039900070470000D80B002000F108014FF0FF3203
:1039A000C0E90112C160016100210160704700217E
:1039B0000161704730B50B685A1C02D000F1080253
:1039C00002E0026904E02246546825689D42FAD963
:1039D00053684B6099608A60516008610168491CB6
:1039E000016030BD42684A6093688B60936859609B
:1039F000916008610168491C01607047502080F3A4
:103A00001188BFF34F8FBFF36F8F0A494868401C7E
:103A1000486001280CD10848006810F0FF0F07D05B
:103A2000502080F31188BFF34F8FBFF36F8FFEE7F5
:103A300070470000C000002004ED00E0084948681D
:103A400028B1401E486001D180F311887047502092
:103A500080F31188BFF34F8FBFF36F8FFEE7000035
:103A6000C000002070B500282AD0164DA0F108042F
:103A700060686969084207D1502080F31188BFF35C
:103A80004F8FBFF36F8FFEE722683AB1502080F36B
:103A90001188BFF34F8FBFF36F8FFEE788436060DD
:103AA00000F05CF960686968084468602046FFF7C8
:103AB000CFFC2869401C2861BDE8704000F06EBF53
:103AC00070BD0000A00000204FF0E0200021016147
:103AD000816105494FF47A720968B1FBF2F1491E20
:103AE00041610721016170474800002010B5FCF7D3
:103AF000F7FB114910280ED300F1E02090F8F003F5
:103B00000A78904207D2502080F31188BFF34F8F7C
:103B1000BFF36F8FFEE709480068896800F4E06032
:103B2000884207D9502080F31188BFF34F8FBFF32D
:103B30006F8FFEE710BD0000C00000200CED00E01C
:103B400010B5084B002200BF53F832401CB1521C84
:103B5000082AF9D310BD43F8321003EBC2014860C4
:103B600010BD00006003002010B504000AD000F072
:103B700013F894F8460000280CD12046BDE8104008
:103B8000FFF770BF502080F31188BFF34F8FBFF352
:103B90006F8FFEE710BD0000084A002102EBC10351
:103BA0005B68834206D1002042F8310002EBC1017C
:103BB00048607047491C0829F0D370476003002013
:103BC00070B515460E460446FFF718FF94F94410E9
:103BD0000020491C01D184F8440094F94510491C87
:103BE00001D184F84500FFF729FFA06B28B92A46C8
:103BF000314604F1240000F051F82046BDE8704041
:103C0000FFF7D4BD10B5020014D00F48006B38B1D7
:103C1000502080F31188BFF34F8FBFF36F8FFEE703
:103C200000F09CF800211046FFF72CFA00F0B6FED9
:103C3000002807D105494FF080500860BFF34F8F2F
:103C4000BFF36F8F10BD00004C00002004ED00E0BA
:103C500002490A6A0260C968416070474C0000204E
:103C600001490120C86170474C00002010B50C4686
:103C700050B1094909681831FFF79CFE2046BDE89C
:103C800010400121FFF7FEB9502080F31188BFF3E7
:103C90004F8FBFF36F8FFEE74C00002070B51446C6
:103CA0000D4668B10A4909681831FFF79BFE0CB14F
:103CB0004FF0FF3521462846BDE87040FFF7E2B9D6
:103CC000502080F31188BFF34F8FBFF36F8FFEE753
:103CD0004C00002030B587B00024039405AA04A945
:103CE00003A80494FFF742FEDDE903010094CDE947
:103CF0000110002315A11748059A00F07EFC164D0F
:103D00000028E8621FD000F0ABFE012809D0401C5B
:103D100019D1502080F31188BFF34F8FBFF36F8FFD
:103D2000FEE7502080F31188BFF34F8FBFF36F8FF2
:103D30004FF0FF30A86201206861EC6007B0BDE879
:103D4000304000F045B807B030BD000049444C4554
:103D5000000000001D3300084C0000200248016BE9
:103D6000491C0163704700004C000020164810B544
:103D7000016B11B10121C16110BD0021C161016957
:103D8000124A01E0B9B1491E01EB810352F8233018
:103D9000002BF7D001EB810302EB830202F1080450
:103DA00053685B685360A34201D15B685360DA6873
:103DB0000260016110BD502080F31188BFF34F8F66
:103DC000BFF36F8FFEE700004C000020A00300202F
:103DD0001CB537480168374A914207D1502080F31B
:103DE0001188BFF34F8FBFF36F8FFEE70068314933
:103DF000491E884207D1502080F31188BFF34F8FAE
:103E0000BFF36F8FFEE72C4908780190FF20087000
:103E100008788DF800009DF800009DF8002000F063
:103E2000F000904207D0502080F31188BFF34F8FED
:103E3000BFF36F8FFEE79DF80000204C00F05000AC
:103E400020700720A06005E09DF8002052008DF84A
:103E50000020401E9DF800201206F5D4A060032823
:103E600007D0502080F31188BFF34F8FBFF36F8FBF
:103E7000FEE74FF44070A060019808700C482030B5
:103E8000016841F470010160016841F07041016016
:103E9000FFF71AFE00206060FCF7EAF908480168A5
:103EA00041F040410160FCF7CFF900201CBD00004B
:103EB00000ED00E071C20F4100E400E0C00000200E
:103EC00034EF00E010B5502080F31188BFF34F8F1E
:103ED000BFF36F8F00F040FC18B104494FF08050E1
:103EE0000860002080F3118810BD000004ED00E0A0
:103EF00010B50C4648B184420FD9502080F3118888
:103F0000BFF34F8FBFF36F8FFEE7502080F3118810
:103F1000BFF34F8FBFF36F8FFEE70222002100F047
:103F200024F8002800D0846310BD38B50C4648B191
:103F300084420FD9502080F31188BFF34F8FBFF315
:103F40006F8FFEE7502080F31188BFF34F8FBFF3D0
:103F50006F8FFEE70221134600220091114600F008
:103F600025F8002800D0846338BDF8B517460E4602
:103F7000050013D005FB06F05030FFF74DFC0400A0
:103F80000AD0002084F8460004F150023B46314636
:103F900028460094FFF7F2F92046F8BD502080F340
:103FA0001188BFF34F8FBFF36F8FFEE738B5049DC5
:103FB00018B153B1CAB181B120E0502080F311880B
:103FC000BFF34F8FBFF36F8FFEE7502080F3118850
:103FD000BFF34F8FBFF36F8FFEE7502080F3118840
:103FE000BFF34F8FBFF36F8FFEE739B1502080F3DF
:103FF0001188BFF34F8FBFF36F8FFEE750241C462D
:10400000012384F846302B460094FFF7B7F9204689
:1040100038BD000070B50D46040025D0FFF7EEFC5A
:10402000D4E90F20216802FB0011A1600021A163E7
:10403000216861600A46D4E90F01401E00FB01219E
:10404000E16021464FF0FF3001F8440F487004F161
:1040500010008DB1FFF7A0FC04F12400FFF79CFCD9
:10406000FFF7ECFC012070BD502080F31188BFF3F6
:104070004F8FBFF36F8FFEE721690029F0D000F06A
:1040800055FC0028ECD004494FF080500860BFF385
:104090004F8FBFF36F8FE3E704ED00E02DE9FF479B
:1040A00082B01D468A464FF00008040003D0BAF1E2
:1040B000000F08D011E0502080F31188BFF34F8F1C
:1040C000BFF36F8FFEE7206C38B1502080F311886A
:1040D000BFF34F8FBFF36F8FFEE7022D0AD1E06B66
:1040E000012807D0502080F31188BFF34F8FBFF312
:1040F0006F8FFEE700F01CFB3F4F4FF000094FF0C1
:10410000805648B9049838B1502080F31188BFF325
:104110004F8FBFF36F8FFEE7FFF770FCA06BE16B73
:10412000884207D3022D05D00498D0B1B8F1000F12
:104130001AD01EE02A4651462046FFF778F8616AF9
:1041400019B104F1240000F0F1FB20B13E60BFF38F
:104150004F8FBFF36F8FFFF771FC012006B0BDE8F2
:10416000F087FFF76BFC22E06846FFF771FD4FF028
:104170000108FFF763FCFFF7F1FDFFF73FFC94F93F
:104180004400401C01D184F8449094F94500401C3F
:1041900001D184F84590FFF751FC04A9684600F06E
:1041A000C5F930B12046FFF701FB00F0F7FB002016
:1041B000D4E7FFF723FCA06BE16B884213D1FFF734
:1041C0003DFC04F110000499FFF750FD2046FFF775
:1041D000EDFA00F0E3FB00289ED13E60BFF34F8F65
:1041E000BFF36F8F98E7FFF729FC2046FFF7DEFA51
:1041F00000F0D4FB90E7000004ED00E02DE9F0476B
:104200001F4690468946040003D0B9F1000F08D03C
:1042100011E0502080F31188BFF34F8FBFF36F8FF1
:10422000FEE7206C38B1502080F31188BFF34F8F28
:10423000BFF36F8FFEE7022F0AD1E06B012807D092
:10424000502080F31188BFF34F8FBFF36F8FFEE7CD
:10425000FFF74CFC5020EFF3118680F31188BFF379
:104260004F8FBFF36F8FA06BE16B884206D3022F95
:1042700004D0002086F31188BDE8F08794F94550FA
:10428000A06B3A4649462046FEF7D1FF681C04D091
:104290006D1C84F845500120ECE7606A0028FAD0D4
:1042A00004F1240000F042FB0028F4D0B8F1000F24
:1042B000F1D00121C8F80010EDE770B50E460400FA
:1042C00009D0206C78B1502080F31188BFF34F8F54
:1042D000BFF36F8FFEE7502080F31188BFF34F8F3D
:1042E000BFF36F8FFEE7206848B9A06838B150204F
:1042F00080F31188BFF34F8FBFF36F8FFEE7FFF797
:10430000F5FB5020EFF3118580F31188BFF34F8F39
:10431000BFF36F8FA16BE06B884218D994F9450009
:10432000491CA163411C04D0401C84F845000120B5
:104330000EE0606A0028FAD004F1240000F0F6FADA
:104340000028F4D0002EF2D001203060EFE70020EA
:1043500085F3118870BD00002DE9F747002683B072
:104360008A46040003D0BAF1000F08D011E05020B3
:1043700080F31188BFF34F8FBFF36F8FFEE7206C80
:1043800038B1502080F31188BFF34F8FBFF36F8F88
:10439000FEE700F0CDF9DFF8F4804FF000094FF0B0
:1043A000805748B9059838B1502080F31188BFF381
:1043B0004F8FBFF36F8FFEE7FFF720FBA56BC5B1F3
:1043C00051462046FEF720FF6D1EA563206950B1BF
:1043D00004F1100000F0AAFA28B1C8F80070BFF389
:1043E0004F8FBFF36F8FFFF729FB012006B0BDE8A9
:1043F000F087059808B11EB106E0FFF71FFB27E024
:104400006846FFF725FC0126FFF718FBFFF7A6FC1F
:10441000FFF7F4FA94F94400401C01D184F8449069
:1044200094F94500401C01D184F84590FFF706FB44
:1044300005A9684600F07AF8002820460AD0FFF760
:10444000B5F900F0ABFA2046FFF744F80028B3D0E6
:104450000020CBE7FFF73EF890B104F12400059966
:10446000FFF704FC2046FFF7A1F900F097FA0028B7
:10447000A2D1C8F80070BFF34F8FBFF36F8F9BE7D7
:104480002046FFF793F900F089FA95E704ED00E084
:104490002DE9F04790468946040003D0B9F1000F9A
:1044A00008D011E0502080F31188BFF34F8FBFF385
:1044B0006F8FFEE7206C38B1502080F31188BFF376
:1044C0004F8FBFF36F8FFEE7FFF710FB5020EFF326
:1044D000118680F31188BFF34F8FBFF36F8FA76BE7
:1044E000F7B194F9445049462046FEF78DFE7F1EF1
:1044F000A763681C04D06D1C84F84450012010E0B0
:1045000020690028FAD004F1100000F00FFA00280A
:10451000F4D0B8F1000FF1D00121C8F80010EDE798
:10452000002086F31188BDE8F08700002DE9F041F6
:104530000C46050011D0C4B1FFF760FA174BDA68DA
:104540006E682068911B471C17D02F681B6A9F421A
:1045500019D0964217D8012410E0502080F311881A
:10456000BFF34F8FBFF36F8FFEE7502080F31188AA
:10457000BFF34F8FBFF36F8FFEE70024FFF75EFAA4
:104580002046BDE8F081884205D9401A20602846BF
:10459000FFF75EFBF1E700202060DCE74C00002025
:1045A0002DE9FF5F8346DDE90E87994616468A4668
:1045B0009000FFF731F905001CD05C20FFF72CF9C3
:1045C000040014D00020256384F85900CDE902408E
:1045D000CDE900874B46324651465846FEF7E0FE8D
:1045E0002046FEF77DFD012004B0BDE8F09F28467F
:1045F000FFF738FA4FF0FF30F6E7F0B585B0DDE9A8
:104600000B640A9DA6B1DCB15C27009726630226E5
:1046100084F85960002604AFCDE90246CDE9005781
:10462000FEF7BEFE2046FEF75BFD049805B0F0BD28
:10463000502080F31188BFF34F8FBFF36F8FFEE7D9
:10464000502080F31188BFF34F8FBFF36F8FFEE7C9
:104650002DE9F0411F4690460D46012690B10446D3
:10466000FFF7CCF90FB1606D386094F85800022163
:1046700084F85810B8F1050F19D2DFE808F0230BC1
:104680000E141200502080F31188BFF34F8FBFF338
:104690006F8FFEE7616D294301E0616D491C616523
:1046A00010E0022801D065650CE0002634E0616D61
:1046B000491C07D0502080F31188BFF34F8FBFF300
:1046C0006F8FFEE7012827D1201DFFF729F9154D2F
:1046D000E06A2969884200D92861134900EB80000B
:1046E00001EB8000211DFFF77DF9A06A38B1502051
:1046F00080F31188BFF34F8FBFF36F8FFEE7E06A3F
:104700002968C96A884207D908494FF08050086073
:10471000BFF34F8FBFF36F8FFFF790F93046BDE8BF
:10472000F08100004C000020A003002004ED00E018
:104730000548416919B1006B18B10020704701208C
:1047400070470220704700004C0000200148C068FC
:10475000704700004C0000202DE9F0412E4C00274E
:10476000206B28B1A069401CA0613846BDE8F081EB
:10477000E668761CE66013D1606B006838B15020A3
:1047800080F31188BFF34F8FBFF36F8FFEE7606B2D
:10479000A16B6163A063206A401C2062FEF786FF64
:1047A000A06ADFF87880864209D3606B0068A0B108
:1047B000606BC068C5686868864211D2A0622068D4
:1047C000C06A00EB800158F82100012800D90127B8
:1047D000E0690028C9D00127C7E74FF0FF30EDE7B7
:1047E000281DFFF79DF8A86A18B105F11800FFF71A
:1047F00097F8E86A2169884200D9206100EB8001BE
:1048000008EB8100291DFFF7EDF8E86A2168C96A05
:104810008842CAD30127C8E74C000020A00300202B
:104820002DE9F0411E46154688460746FFF7E6F893
:104830001C4C206890F85800022814D02068416D64
:10484000B94341652168012081F858005EB101211A
:104850003046FEF717FC14494FF080500860BFF354
:104860004F8FBFF36F8FFFF7E9F8FFF7C7F815B168
:104870002068406D2860206890F85800022801D018
:10488000002505E02068416D21EA08014165012508
:104890002168002081F85800FFF7D0F82846BDE8CD
:1048A000F08100004C00002004ED00E070B5040031
:1048B0004FF0000133D01B4D2868844207D05020B0
:1048C00080F31188BFF34F8FBFF36F8FFEE7206D2A
:1048D00038B1401E2065E36CE26A9A421FD040B1B5
:1048E0001DE0502080F31188BFF34F8FBFF36F8F0F
:1048F000FEE7201DFFF714F8E06CE062C0F138001D
:10490000A061E06A2969884200D92861064900EB64
:10491000800001EB8000211DFFF764F801210846AB
:1049200070BD00004C000020A003002070B5C068DE
:10493000C46854B104F118000646FEF7F1FF144DA7
:10494000286B50B13146134815E0502080F3118890
:10495000BFF34F8FBFF36F8FFEE7201DFEF7E0FF21
:10496000E06A2969884200D928610B4900EB800080
:1049700001EB8000211DFFF735F8E06A2968C96A5C
:10498000884202D90120E86170BD002070BD00009E
:104990004C00002028080020A00300202DE9F0474B
:1049A0002C4D00242746286B38B1FFF727F8286BD9
:1049B000401E2863286B40B146E0502080F31188E8
:1049C000BFF34F8FBFF36F8FFEE7A968224E012020
:1049D000D1B3A6F5916980463068E0B1F068C4684B
:1049E00004F11800FEF79CFF201DFEF799FFE06A16
:1049F0002969884200D9286100EB800109EB810018
:104A0000211DFEF7EFFFE06A2968C96A8842E3D3F7
:104A1000C5F81C80E0E70CB1FEF748FEAC694CB16C
:104A20004FEA0806FFF798FE00B1EE61641EF9D167
:104A30000020A861E86938B10849012738070860F3
:104A4000BFF34F8FBFF36F8FFEF7F8FF3846BDE817
:104A5000F08700004C0000202808002004ED00E052
:104A600010B586B0FEF7A4FB114C2068B8B1002049
:104A70000390049005AA04A903A8FEF781FFDDE9CD
:104A8000032102208DE8070000230AA10B48059AA4
:104A9000FFF7B3FD606010B106B0012010BD5020DB
:104AA00080F31188BFF34F8FBFF36F8FFEE70000D5
:104AB00088000020546D7220537663008937000807
:104AC0002DE9FF411E46134602000A9D4FF00000EB
:104AD00016D0144C2768002F0FD0CDE90013029296
:104AE000062917DAFFF724FE02284FF000030FD043
:104AF000002269462068FFF7D1FA04B0BDE8F081D2
:104B0000502080F31188BFF34F8FBFF36F8FFEE704
:104B10002A46EEE70023324669463846FFF76EFB29
:104B2000EBE70000880000204FF04070E1EE100A33
:104B300070470000F44B0008000000000000000077
:104B4000000000000000000000020000180000004B
:104B50000000000000000000EC4B00080000000016
:104B60000000000000000000000000000002000043
:104B7000080000000000000000000000004C0008D9
:104B80000000000000000000000000000000000025
:104B9000000200000800000000000000000000000B
:104BA000244C00080000000000000000000000008D
:104BB00000000000000200000800000000000000EB
:104BC00000000000104C0008000000000000000081
:104BD00000000000000000000000000001020304CB
:104BE000060708090000000001020304494354615C
:104BF000736B000053594E435461736B0000000007
:104C00005265635F5377697463685461736B000026
:104C1000486F6C6573436F756E74696E6753656D2D
:104C200000000000486F6C65735F4F757470757499
:104C300054617300544C000800000020CC000000B8
:104C4000C4010008204D0008CC000020CC51000019
:104C5000E00100080000000000000000000000006B
:104C60000000000000000000000000000000000044
:104C70000000000000000000000000000000000034
:104C80000000000000000000000000000000000024
:104C90000100000010000000000000000024F400EB
:104CA0000000000000000000000000000000000004
:104CB00000000000000000000000000000000000F4
:104CC00000000000000000000000000000000000E4
:104CD00000000000000000000000000000000000D4
:104CE00000000000000000000000000000000000C4
:104CF00000000000000000000000000000000000B4
:104D000000000000000000000000000000000000A3
:104D10000000000000000000AAAAAAAA00000000EB
:040000050800018965
:00000001FF
