:020000040800F2
:100000006807002089010008DF1C00080F1A00089B
:10001000DD1C000871030008B31F00080000000089
:10002000000000000000000000000000E31C0008C9
:100030007303000800000000E11C0008E51C000834
:10004000A3010008A3010008A3010008A301000800
:10005000A3010008A3010008A3010008A3010008F0
:10006000A3010008A3010008A3010008A3010008E0
:10007000A3010008A3010008A3010008A3010008D0
:10008000A3010008A301000891020008A3010008D1
:10009000A3010008A3010008A3010008A3010008B0
:1000A000A3010008A3010008A3010008A3010008A0
:1000B000651D0008A3010008711D0008A3010008C8
:1000C000A3010008A3010008A3010008A301000880
:1000D000A3010008A3010008A3010008A301000870
:1000E000A3010008A3010008A301000800F002F822
:1000F00000F03AF80AA090E8000C82448344AAF188
:100100000107DA4501D100F02FF8AFF2090EBAE885
:100110000F0013F0010F18BFFB1A43F0010318473B
:100120004023000060230000103A24BF78C878C143
:10013000FAD8520724BF30C830C144BF04680C60ED
:10014000704700000023002400250026103A28BF35
:1001500078C1FBD8520728BF30C148BF0B60704739
:100160001FB51FBD10B510BD00F058F81146FFF7C0
:10017000F7FF01F02FFF00F076F803B4FFF7F2FF6E
:1001800003BC00F07DF8000009488047094800479B
:10019000FEE7FEE7FEE7FEE7FEE7FEE7FEE7FEE737
:1001A000FEE7FEE704480549054A064B7047000094
:1001B000611D0008ED0000086801002068070020AC
:1001C00068030020680300204FF0000200B51346CA
:1001D00094469646203922BFA0E80C50A0E80C5067
:1001E000B1F12001BFF4F7AF090728BFA0E80C5018
:1001F00048BF0CC05DF804EB890028BF40F8042B11
:1002000008BF704748BF20F8022B11F0804F18BF7D
:1002100000F8012B7047704770477047754600F033
:100220002BF8AE4605006946534620F00700854688
:1002300018B020B5FFF7B6FFBDE820404FF000062C
:100240004FF000074FF000084FF0000B21F00701BE
:10025000AC46ACE8C009ACE8C009ACE8C009ACE801
:10026000C0098D46704710B50446AFF300802046A4
:10027000BDE81040FFF781BF00487047080100202B
:1002800001491820ABBEFEE72600020070470000BF
:10029000014800F061B900004800002070B5044634
:1002A00000688168C943C90717D1816821F001013D
:1002B000816000F0A7FC05460AE000BF00F0A2FC48
:1002C000401B022804D920688068C043C00706D0BC
:1002D00020688068C043C007F0D0002070BDA06ACD
:1002E00040F01000A062E06A40F00100E0620120EE
:1002F00070BD0000F8B500260446009600688168CD
:10030000C943C9072DD0816841F0010181601648B9
:1003100016490068B0FBF1F000E0401E0090002894
:10032000FBD100F06FFC054616E000BF00F06AFC50
:10033000401B022810D920688068C043C0070BD03A
:10034000A06A40F01000A062E06A40F00100E062A4
:1003500084F824600120F8BD20688068C043C0078D
:10036000E4D10020F8BD00001400002040420F003E
:10037000FEE7704772B6FEE7F8B500250446009523
:1003800090F8240001280BD0012084F82400204696
:10039000FFF784FF2046FFF7ADFF060002D050E0D4
:1003A0000220F8BDA06A20F4885040F00200A0624C
:1003B000022000F0C5FC25490968B1FBF0F04000BF
:1003C00000E0401E00900028FBD12068816841F0C9
:1003D0000801816000F016FC074608E000F012FCFE
:1003E000C01B0A2803D920688068000715D420683C
:1003F00080680007F2D42068816841F004018160C0
:1004000000F000FC074612E000F0FCFBC01B0A28CD
:100410000DD920688068400709D5A06A20F0020045
:1004200040F01000A06284F824500120F8BD20683C
:1004300080684007E8D4A06A20F0020040F0010084
:10044000A06284F824503046F8BD0000140000205B
:1004500070470000F8B50024009490F82420254649
:10046000012A12D0012280F824204A681F23072A7B
:100470000DD20668776B521E02EB820293409F43B7
:100480000B6893401F43776319E00220F8BD0668AC
:100490000D2A0AD2376BD21F02EB820293409F4390
:1004A0000B6893401F43376309E0F76A0D3A02EB8C
:1004B000820293409F430B6893401F43F7620A6890
:1004C000072306680A2A0AD3F7680A3A02EB4202AF
:1004D00093409F438B6893401F43F76008E0376960
:1004E00002EB420293409F438B6893401F43376166
:1004F0000A68102A01D0112A20D1124B02689A42B0
:1005000017D193681B0219D4936843F400039360D6
:100510000968102912D10C490C4A0968B1FBF2F1A3
:1005200001EB8101490000E0491E00910029FBD147
:1005300004E0816A41F020018162012480F82450A6
:100540002046F8BD002401401400002040420F0066
:1005500070470068C06C704770B504460068066854
:100560004568A90625D5B10723D5A16AC90603D4D4
:10057000A16A41F40071A1628168C1F34241072977
:1005800010D1217B71B9416821F020014160A06A3E
:1005900020F48070A062A06AC00403D4A06A40F076
:1005A0000100A0622046FFF7D3FF21686FF0120020
:1005B000086028062ED570072CD5A06AC00603D483
:1005C000A06A40F40050A06220688168C1F3023143
:1005D000072909D04168490515D48168C1F3424112
:1005E000072910D1217B71B9416821F08001416058
:1005F000A06A20F48050A062A06AC00503D4A06A5B
:1006000040F00100A0622046FFF722FF21686FF052
:100610000C00086068060CD5F0070AD0A06A40F408
:100620008030A062204600F093F821686FF001004E
:10063000086070BD2DE9F0414FF0000704003D4611
:100640007ED0A06A002628B9E66284F8246020469D
:1006500000F080F82046FFF721FEA16A01F01001AA
:10066000014304D0A06A40F01000A06268E0A16AD3
:1006700021F4885141F00201A1626268E169237BA3
:100680000A4347EA43010A43A1684FF48077B9421D
:1006900008D0012906D0002194F814C0BCF1010F44
:1006A00002D00AE03946F7E7F3B1A36A43F020032A
:1006B000A362E36A43F00103E3622368D3F804C052
:1006C0002CF4694C4CEA010CC3F804C02368996807
:1006D000DFF870C001EA0C0111439960A168B942CA
:1006E0000BD0012909D00CE0DFF85CC0A3690CEB4A
:1006F00043330B4343F40061DFE7218A0D05A5F581
:1007000080152168CB6A23F470032B43CB622168E8
:1007100089680E4B1940914208D1E662A16A21F026
:10072000020141F00101A162BDE8F081A06A20F060
:10073000020040F01000A062E06A40F00100E062B8
:100740000120F1E7FDF7E1FF00E0FFFFFE0E1FFFD4
:100750007047000010B586B0002100910191029110
:1007600003910068194988422ED11948816941F4E2
:1007700000718161816901F400710491816941F026
:1007800004018161816901F004010491816941F0F2
:10079000080181618069032400F008000490FC20B6
:1007A000CDE9000469460B4800F02EF90094694633
:1007B0000948019400F028F900221146122000F0A7
:1007C0008DFA122000F07CFA06B010BD0024014022
:1007D0000010024000080140000C01402DE9F843E0
:1007E00000270D460446009700F00CFA804620686A
:1007F0008168C90508D5A06A40F02000A06284F88D
:1008000024700120BDE8F8834168C90503D4C06A9B
:1008100010F4700F2AD0022000F092FA3B490968C8
:10082000B1FBF0F62068036939490B424FEA6101D8
:100830004FEAA1121FD1C3684FEA611C13EA0C0FE3
:1008400019D103690B4225D1C068104222D114206E
:1008500023E0681C0AD02DB100F0D4F9A0EB080009
:10086000A84203D920680068800725D52068006861
:100870008007EED52DE003690B4202D1C168114219
:1008800006D0026923490A4206D1C068084203D152
:10089000542002E0292000E0FC204643009816E0A6
:1008A000681C11D02DB100F0ADF9A0EB0800A842F2
:1008B0000AD90098B04207D2A06A40F00400A062B2
:1008C00084F8247003209DE70098401C0090B042FB
:1008D000E6D321686FF012000860A06A40F400704F
:1008E000A06220688068C0F3424007280CD1207BBA
:1008F00050B9A06A20F48070A062A06AC00403D43A
:10090000A06A40F00100A06200207BE714000020F4
:10091000244992244992240070B5044690F824009A
:1009200001280DD0012084F824002046FFF7E2FCC6
:1009300002004FF0000005D084F82400104670BD7E
:10094000022070BDA16A40F20123994341F48071F5
:10095000A1621F4D23681F49AB4218D10E6816F4DF
:10096000702F14D0A66A46F48016A6620E6876052B
:1009700005D5A66A26F4005646F48056A662A66AF5
:10098000F6040AD5E66A26F00606E66206E0A66ADE
:1009900026F48016A6625E68E9E7E06284F8240027
:1009A0006FF00200186020688368C3F34243072B8E
:1009B00005D1A84208D1096811F4702F04D08168CC
:1009C00041F480118160B9E7816841F4A001F9E741
:1009D000002801400424014070B5044600F012F9DB
:1009E0000546601C02D004480078044400F00AF96F
:1009F000401BA042FAD370BD0800002001494860A6
:100A000070470000000000202DE9F84FDFF8B89192
:100A10000024A9F1040B23460F2709F1040AABF1C6
:100A2000040EC9E00125A5402A40AA427DD1674EA7
:100A3000D1F804C0ACEB0608B44532D014DCBCF1EC
:100A4000030F3AD009DCBCF1000F2AD0BCF1010F32
:100A50001CD0BCF1020F31D11DE0BCF1110F17D039
:100A6000BCF1120F2AD119E0B8F5881F19D006DCA5
:100A7000B8F5803F15D0B8F5801F1FD111E0B8F54B
:100A8000001F0ED0B8F5041F18D10AE0CB6815E09E
:100A9000CB681B1D12E0CB6808330FE0CB680C332A
:100AA0000CE08B682BB1012B4FF0080303D045619C
:100AB00004E0042302E0056100E00023FF2A01D8DE
:100AC000064601E000F104064FEA840501D9A5F1CC
:100AD0002005D6F8008007FA05FC28EA0C0803FA7E
:100AE00005F548EA0508C6F800804D68ED0062D5B6
:100AF000374DAE6946F00106AE61AD6924F00306DC
:100B000005F001050095334D06EB050CDCF80850A7
:100B1000A607360F07FA06F825EA0805DFF8B880B9
:100B2000404503D14FF0000817E044E0DFF8AC8007
:100B3000404502D14FF001080FE0DFF8A4804045A6
:100B400002D14FF0020808E0DFF89880404502D15A
:100B50004FF0030801E04FF0040808FA06F848EAED
:100B60000508CCF808804D68D9F80060ED024D46C4
:100B700001D5164300E096432E604D68DAF8006018
:100B8000AD02554601D5164300E096432E604D68F0
:100B9000DBF80060AD035D4601D5164300E09643E7
:100BA0002E604D68DEF80060ED03754601D51643F2
:100BB00000E096432E60641C0D682A46E5407FF4F1
:100BC00031AFBDE8F88F00000804014000001110AB
:100BD000001002400000014000080140000C0140EC
:100BE0000010014000140140C26821EA02030A40DB
:100BF00043EA0241016170470AB10161704709048B
:100C0000FBE70000014880687047000008000020F2
:100C10000248816802781144816070470800002012
:100C2000074810B5016841F010010160032000F091
:100C300075F80F2000F006F800F024F8002010BD31
:100C40000020024070B50D4D04464FF47A712878AB
:100C5000B1FBF0F00A490968B1FBF0F000F094FB39
:100C600048B9102C07D200222146501E00F036F859
:100C700000206C6070BD012070BD000008000020E5
:100C8000140000200C4808B5816941F00101816120
:100C9000816901F001010091C16941F08051C16198
:100CA000C06900F0805000900448416821F0E06184
:100CB00041F00071416008BD001002400000014099
:100CC000002809DB00F01F0201219140400980004B
:100CD00000F1E020C0F8001170470000F0B40E4BA6
:100CE0001B680C46C3F30223C3F10705042D00D98A
:100CF0000425191D072901D2002300E0DB1E01266F
:100D000006FA05F1491E214099409E40761E164084
:100D10003143F0BC01F04EB90CED00E0064900F0A3
:100D2000070208684FF6FF03184040EA0220034A12
:100D300010430860704700000CED00E00000FA0569
:100D400010B501460020234C012922D0022939D0B8
:100D500010291DD161682268D20119D51E48C1F33E
:100D60008342C903805C0AD561681B4AC1F34041D4
:100D7000921E515C194AB2FBF1F1484301E0184957
:100D800048436168490203D440000321B0FBF1F0FD
:100D900010BD226AC2F30121012903D1920701D5B6
:100DA000C80310BD022905D1626A920702D549F62F
:100DB000404010BD0329FCD121688903F9D54FF2C9
:100DC000244010BD00F01AF96168C1F38131491C5B
:100DD0004900DBE7001002403624000800127A00C8
:100DE00000093D002DE9F84305460078354CC00761
:100DF00054D0E0690026C00008D4E06940F080507B
:100E0000E061E069012600F0805000902E48016802
:100E1000C90512D40168804641F480710160FFF772
:100E2000F1FE074605E000BFFFF7ECFEC01B64289B
:100E300023D8D8F80000C005F6D5206A10F4407019
:100E400021D0A98801F4407181421CD0206A1F4939
:100E5000012220F440700A6000220A602062C0076C
:100E600011D0FFF7CFFE074641F2883808E000BFF7
:100E7000FFF7C8FEC11B414502D90320BDE8F88336
:100E8000206A8007F4D5206A696820F4407008431E
:100E900020621EB1E06920F08050E0612878800770
:100EA00005D56068A96820F4404008436060287850
:100EB000C00605D56068E96820F4800008436060DA
:100EC0000020DBE700100240007000404004424276
:100ED0002DE9F0470F46050061D0434E306800F021
:100EE0000700B84209D2306820F00700384330606C
:100EF000306800F00700B84251D128683B4C8107A8
:100F000012D5400703D5606840F4E060606028783F
:100F1000000703D5606840F4605060606068A968AD
:100F200020F0F000084360602878C00728D0686887
:100F3000012810D02168022810D0890700292EDA54
:100F4000616821F0030101436160FFF75BFE8046A9
:100F500041F288390DE021688903EFE78901EDE767
:100F6000FFF750FEA0EB0801494502D90320BDE878
:100F7000F0876068696800F00C00B0EB810FEFD17A
:100F8000306800F00700B8420BD9306820F0070045
:100F900038433060306800F00700B84201D00120CB
:100FA000E5E72878400705D56068E96820F4E06047
:100FB000084360602878000706D56068296920F436
:100FC000605040EAC100606000F028F86168084A9B
:100FD000C1F30311515CC840064908600648006827
:100FE000FFF730FE0020C2E7002002400010024060
:100FF00046240008140000200C0000200448054985
:1010000000684968044AC1F3C221515CC840704776
:101010001400002000100240562400080E4A5168B7
:101020000E4801F00C03042B11D0082B0FD10C48F3
:10103000C1F38343C903C05C0AD55168084AC1F3B0
:101040004041921E515C054A5043B0FBF1F070479D
:1010500004494843704700000010024000127A0023
:101060002424000800093D002DE9F84F040070D049
:101070002078C04DC00749D06868C0F381000128BE
:1010800007D06868C0F38100022809D16868C003EE
:1010900006D52868800339D560680028E7D035E098
:1010A0006068B0F5803F0BD010B1B0F5A02F11D023
:1010B000286820F480302860286820F4802002E02E
:1010C000286840F480302860606890B1FFF79AFD8E
:1010D00006460AE0286840F480202860F0E700BF58
:1010E000FFF790FD801B642873D828688003F7D52C
:1010F0000CE0FFF787FD064605E000BFFFF782FD25
:10110000801B6428F0D828688003F7D420789A4E92
:1011100080074FF001094FF0000839D5686810F0DA
:101120000C0F07D06868C0F38100022809D16868F5
:10113000C00306D42868800714D52069012808D187
:1011400010E02069B0B1C6F80090FFF75BFD0746DC
:1011500005E00AE1FFF756FDC01B0228C4D8286845
:101160008007F7D52868616920F0F80040EAC100DF
:1011700028600DE0C6F80080FFF744FD074604E054
:10118000FFF740FDC01B022823D828688007F7D44A
:10119000207800072CD57948A169D9B1C0F8009012
:1011A000FFF730FD074604E0FFF72CFDC01B0228C7
:1011B0000FD8686A8007F7D571484FF4FA51006874
:1011C000B0FBF1F0009000BF0098411E0091FAD2F0
:1011D0000EE080E0C0F80080FFF714FD074604E051
:1011E000FFF710FDC01B022875D8686A8007F7D486
:1011F0002078400760D5E8690027C00008D4E86976
:1012000040F08050E861E869012700F080500090CC
:101210005C480168C90513D40168834641F48071B4
:101220000160FFF7EFFC824606E000BFFFF7EAFC33
:10123000A0EB0A0064284ED8DBF80000C005F5D505
:10124000E06801280AD008B1052813D0286A20F0E8
:1012500001002862286A20F0040002E0286A40F0B9
:1012600001002862E06841F2883B98B1FFF7CAFCB0
:1012700082460BE0286A40F004002862EEE700BFD7
:10128000FFF7C0FCA0EB0A0159455AD8286A80072D
:10129000F6D50CE0FFF7B6FC824605E0FFF7B2FC9E
:1012A000A0EB0A0159454CD8286A8007F6D41FB133
:1012B000E86920F08050E861E06988B36968C1F3AB
:1012C0008101022944D00228C6F8608004D0FFF7CB
:1012D00099FC044638E034E0FFF794FC074604E04C
:1012E000FFF790FCC01B02282BD828688001F7D498
:1012F000206AB0F5803F05D16868A16820F400300D
:1013000008436860D4E908010843696821F474114E
:1013100008436860C6F86090FFF774FC044606E076
:1013200025E000BFFFF76EFC001B022809D82868E3
:101330008001F7D51BE000BFFFF764FC001B02280B
:1013400002D90320BDE8F88F28688001F4D40EE0AC
:101350000128F7D06868226A00F48031914204D1F4
:10136000616A00F47010884201D00120EAE7002091
:10137000E8E70000001002400000424280044242C0
:10138000140000200070004010B5401EB0F1807FB6
:1013900001D3012010BD4FF0E02460610F216017E0
:1013A00000F008FE0020A06107202061002010BD91
:1013B0007047704770B590F83C20012A26D0012470
:1013C00080F83C40022280F83D2003685A689D68FE
:1013D00022F070060A6832435A600D4B02689A4246
:1013E00008D0B2F1804F05D00A4B9A4202D00A4B86
:1013F0009A4204D1496825F080031943916080F82E
:101400003D40002180F83C10084670BD022070BDB0
:10141000002C0140000400400008004010B504000A
:1014200003D094F83D0010B107E0012010BD00206A
:1014300084F83C00204600F01FF8022084F83D00AC
:10144000211D206800F09AFC012084F8460084F8F1
:101450003E0084F83F0084F8400084F8410084F89E
:10146000420084F8430084F8440084F8450084F87E
:101470003D00002010BD000008B501681448B1F11E
:10148000804F14D0134A914220D1C16941F0040128
:10149000C161C069002200F00400009011461E20C6
:1014A000FFF71CFC1E20BDE80840FFF709BCC1691E
:1014B00041F00101C161C069002200F0010000900B
:1014C00011461C20FFF70AFC1C20ECE708BD0000B9
:1014D000001002400008004090F83D10012901D0A2
:1014E00001207047022180F83D100168CA6842F06F
:1014F0000102CA6000680B49884208D0B0F1804FF1
:1015000005D00949884202D00849884204D181683F
:1015100001F00701062903D0016841F001010160D3
:1015200000207047002C01400004004000080040EB
:1015300070B5044690F83C000025012817D001261C
:1015400084F83C60022084F83D002068826822F024
:10155000770222F47F4282600868502838D00DDC80
:1015600020284FD005DC90B3102811D14AE002208A
:1015700070BD302846D040280AD13BE060282FD0EB
:1015800070280DD0B0F5805F03D0B0F5005F12D0A9
:10159000012584F83D60002084F83C00284670BD99
:1015A000CB68D1E90121206800F02BFC206881681C
:1015B00041F0770109E0CB68D1E90121206800F012
:1015C00020FC2068816841F480418160E1E719E0F6
:1015D000CA684968206800F0C9FC5021206806E00C
:1015E000CA684968206800F0D2FC6021206800F0D9
:1015F00012FCCEE7CA684968206800F0B7FC4021B9
:101600002068F4E7226801461046F0E7704770B59D
:101610000446006801694FF00005C943890715D4E5
:10162000C168C943890711D4E91E016101202077EF
:10163000206880698007204602D0FFF7E7FF04E0BA
:1016400000F0D2F8204600F064F92577206801699F
:10165000C943490717D4C168C943490713D46FF078
:1016600004010161022020772068806910F4407F26
:10167000204602D0FFF7CAFF04E000F0B5F820468C
:1016800000F047F9257720680169C943090716D496
:10169000C168C943090712D46FF008010161042031
:1016A00020772068C0698007204602D0FFF7AEFF90
:1016B00004E000F099F8204600F02BF92577206827
:1016C0000169C943C90617D4C168C943C90613D4FF
:1016D0006FF010010161082020772068C06910F4C4
:1016E000407F204602D0FFF791FF04E000F07CF835
:1016F000204600F00EF9257720680169C943C90723
:1017000008D1C168C943C90704D1891E01612046B7
:1017100000F04EF920680169C943090609D4C1687F
:10172000C943090605D46FF0800101612046FFF727
:101730003FFE20680169C943490609D4C168C9430D
:10174000490605D46FF040010161204600F05EF9C2
:1017500020680169C94389060BD4C168C943890659
:1017600007D46FF0200101612046BDE87040FFF70B
:1017700020BE70BD10B586B000210091019102918C
:1017800003910368144802210322B3F1804F15D05E
:10179000124CA34210D1836943F00803836180692E
:1017A000039200F0080004904020CDE900010C48AD
:1017B000694600BFFFF728F906B010BD836943F002
:1017C0000403836180690091019100F00400CDE978
:1017D000032069460348EDE700100240000800407E
:1017E000000C014000080140704770B5044690F8B5
:1017F0003C0000260D4601280FD0012084F83C0053
:101800006AB1042A1DD0082A2FD00C2A3FD0012605
:10181000002084F83C00304670BD022070BD206876
:1018200000F002FB2068816941F0080181612068B5
:10183000816921F004018161206881692A6911436D
:1018400011E0206800F018FB2068816941F4006114
:1018500081612068816921F48061816120688169EA
:101860002A6941EA02218161D2E7206800F030FB59
:101870002068C16941F00801C1612068C16921F097
:101880000401C1612068C1692A69114311E020681F
:1018900000F04AFB2068C16941F40061C161206821
:1018A000C16921F48061C1612068C1692A6941EA86
:1018B0000221C161ACE710B5040003D094F83D00EB
:1018C00010B107E0012010BD002084F83C00204644
:1018D00000F01EF8022084F83D00211D206800F071
:1018E0004DFA012084F8460084F83E0084F83F0059
:1018F00084F8400084F8410084F8420084F84300F2
:1019000084F8440084F8450084F83D00002010BDB0
:101910007047704710B50446022249B104290ED021
:10192000082913D094F84100012816D0012010BDD9
:1019300094F83E000128F9D184F83E200FE094F895
:101940003F000128F2D184F83F2008E094F84000DD
:101950000128EBD184F8402001E084F841200122E5
:10196000206800F041FA0F492068884203D1426C98
:1019700042F4004242642068884208D0B0F1804FAF
:1019800005D00949884202D00849884204D18168BB
:1019900001F00701062903D0016841F0010101604F
:1019A000002010BD002C0140000400400008004051
:1019B00030B500681249884220D1124812490023EC
:1019C000027809684AB10225052A09D00E4C483C24
:1019D000062A07D0262A0BD107E005244C6307E02E
:1019E0004D6305E021688D6302E04B6321688B63E2
:1019F000521CD1B201703C2900D1037030BD0000EF
:101A00000008004000000020C00000207047FEE7F2
:101A1000FEB50024344800940194324902940160D8
:101A200089158160012606730475082505614FF448
:101A300060214460C161FEF7FDFD08B1FEF79AFC2C
:101A400002270097CDE9016469462748FEF702FDA9
:101A500008B1FEF78FFC0324CDE900476946224810
:101A6000FEF7F8FC08B1FEF785FC0426CDE900641A
:101A700069461D48FEF7EEFC08B1FEF77BFC052425
:101A8000CDE9004669461848FEF7E4FC08B1FEF7C8
:101A900071FC0626CDE9006469461348FEF7DAFCBE
:101AA00008B1FEF767FC0724CDE9004669460E48F9
:101AB000FEF7D0FC08B1FEF75DFCCDE900546946A5
:101AC0000948FEF7C7FC08B1FEF754FC0920CDE930
:101AD000000569460448FEF7BDFC002801D0FEF76A
:101AE00049FCFEBD00240140480000202DE9F047DC
:101AF00086B00025294800950195029503958169D6
:101B000041F020018161816901F020010491816926
:101B100041F004018161816901F00401049181694E
:101B200041F0080181618069DFF8749000F00800DD
:101B30000490012204214846FFF75EF84FF4C047A5
:101B4000002239464846FFF757F8DFF858A04FF40F
:101B50000068012241465046FFF74EF80124042058
:101B6000CDE900040326CDE9024669464846FEF762
:101B70004BFF01AA009782E8700069464846FEF7CD
:101B800043FFCDF80080CDE90145694650460394F6
:101B9000FEF73AFF06B0BDE8F087000000100240F3
:101BA000000C01400008014010B58EB000240794DD
:101BB000089409940A940B941C2168460C94FEF72F
:101BC00003FB1E484FF0804101604721C0E901142A
:101BD0000421C0E9031480218161FFF71FFC08B1D3
:101BE000FEF7C8FB4FF48050079007A91348FFF792
:101BF0009FFC08B1FEF7BEFB1048FFF75CFE08B182
:101C0000FEF7B8FB0B940BA90C480C94FFF7D2FB22
:101C100008B1FEF7AFFB6020CDE900040294042276
:101C2000694606480494FFF7E0FD08B1FEF7A2FB01
:101C30000248FFF79FFD0EB010BD000078000020A5
:101C400010B58EB000240794089409940A940B945C
:101C50001C2168460C94FEF7B7FA1F481D49016025
:101C60004721C0E901140421C0E9031480218161E6
:101C7000FFF7D4FB08B1FEF77DFB4FF480500790CF
:101C800007A91548FFF754FC08B1FEF773FB12488B
:101C9000FFF711FE08B1FEF76DFB0B940BA90E4880
:101CA0000C94FFF787FB08B1FEF764FB60200090FF
:101CB0000220CDE901040022694607480494FFF799
:101CC00094FD08B1FEF756FB0348FFF753FD0EB035
:101CD00010BD000000080040C0000020FEE7FEE745
:101CE00070477047FEF794BF30B593B0282168461F
:101CF000FEF76AFA14210AA8FEF766FA0025012009
:101D00000F9510951195010412958DE8230004900C
:101D10004FF4E010CDE90810022407946846FFF75D
:101D2000A3F908B172B6FEE70AA90F2081E83100D5
:101D30004FF48060CDE90D0502210AA8FFF7C8F82D
:101D400008B172B6FEE74FF4004011900F940FA84F
:101D5000FFF748F8002801D072B6FEE713B030BD97
:101D6000704700000148FFF752BC000078000020D7
:101D70000148FFF74CBC0000C0000020F0B502682D
:101D8000164B174C174D4FF08047984205D0B8427C
:101D900003D0A04201D0A84203D122F070064A68C5
:101DA0003243984205D0B84203D0A04201D0A842A5
:101DB00003D122F44074CA6822434C6922F08002A5
:101DC000224302608A68C2620A688262984201D134
:101DD0000969016301214161F0BD0000002C01404F
:101DE000000400400008004010B501F01F0301216D
:101DF000046A99408C430462016A9A40114301626B
:101E000010BD10B5846842EA032224F47F440A43DB
:101E10002243826010BD826822F070020A4342F0C1
:101E2000070181607047000030B5036A026A22F042
:101E3000010202624268846924F073050C682C4335
:101E400023F002058B682B430A4DA8420BD123F0E7
:101E50000805CB6822F440722B434D6923F004033C
:101E600015438A692A434260846149684163036279
:101E700030BD0000002C014030B5026A036A23F037
:101E800010030362436884690D6824F4E64444EA5D
:101E900005248D6822F0200242EA05120B4DA8426B
:101EA0000ED1CD6822F0800242EA05124D6923F47A
:101EB000406343EA85038D6922F0400243EA8503CB
:101EC0004360846149688163026230BD002C014037
:101ED00030B5036A026A22F4807202624268C46901
:101EE00023F4007324F073050C682C438D6843EAD7
:101EF00005230C4DA8420ED1CD6823F4006343EABC
:101F000005234D6922F4405242EA05128D6923F4FB
:101F1000806342EA05124260C4614968C16303629A
:101F200030BD0000002C014030B5046A026A22F482
:101F3000805202624268C3690D6823F4E64343EAB3
:101F400005238D6824F4005444EA0534064DA84264
:101F500004D14D6922F4804242EA85124260C36195
:101F600049680164046230BD002C014010B5036A69
:101F7000046A24F001040462846924F0F00444EA51
:101F8000021423F00A020A438461026210BD10B5F4
:101F9000036A046A24F010040462846923F0A00335
:101FA00024F4704444EA023243EA0111826101627E
:101FB00010BDFEE70907090E002804DB00F1E02050
:101FC00080F80014704700F00F0000F1E02080F866
:101FD000141D7047FEF724FEFFF786FE4820FEF72B
:101FE0000DFDFFF783FDFFF72BFEFFF711FDFFF758
:101FF000DBFD00211F48FFF78DFC1E48FFF76CFA40
:1020000004211D48FFF786FC1C48FEF7B5F91B4864
:10201000FEF782FC1A4DDFF86C801B4E4FF06637DE
:102020006FF00B0900240A211448FEF7D7FB134870
:10203000FEF78FFA25F8140035F8140000F062F866
:102040003A46434600F072F84A4600F0A4F900F020
:102050001FF806EB8401641C4860082CE3DB4FF496
:10206000FA70FEF7B9FC4FF400510848FEF7BCFDCA
:10207000D8E70000C00000207800002048000020C1
:102080003800002066660A4018000020000C01405D
:1020900021F00042A2F16052B2F5801F01F000432E
:1020A00028BFD2F17F6C0BD95FEA001C43EAC20261
:1020B00042EB507018BF704728BF20F001007047F6
:1020C000B2F5801FBCBF184670474FEA410C1CF5A3
:1020D000001F02D2084600F027B970B500F0D0F812
:1020E00000000089FFF7F6BF4FF00040A0F5800028
:1020F0007047000002494FF0000000F01AB900BF1D
:102100000000F87FB0FA80F310FA03F10AD0C3F1AF
:102110001D0303F580634FEA41504FEA035202EB7F
:10212000D12170474FF0000070470000DFF848C130
:1021300070B51CEA111E1EBF1CEA13159EEA0C0F97
:1021400095EA0C0F00F06F8081EA030423EA4C1338
:102150004EEAD47E21EA4C1141F4801143F48013FD
:10216000AE44A1FB024CA0FB0365AEF17F7E3619A5
:1021700055EB0C05A1FB034C4CF10003A0FB021C2A
:1021800016EB0C06654153F10003094218BF46F0F7
:10219000010613F4007F0BD14FEA03314FEA0530FB
:1021A000340341EA155140EA16506FF003020AE089
:1021B0004FEAC3214FEAC520F40241EA555140EAF3
:1021C00056506FF0020202EB2E4201EB025585EAF7
:1021D000CE710AD05FEA440C18BF24F0004450F1DD
:1021E000000041F1000120EAD47040F2FE7C62451B
:1021F00000D270BDA84214BF4FF080444FF040445D
:10220000002E08BF0024BEF1806FA8BFA1F1C0411D
:10221000BDE8704080F282804FF0000001F1C041C3
:1022200001F0004170479EEA0C0F0CEA131518BF2D
:1022300095EA0C0F06D04FF0000081EA030E0EF075
:10224000004170BD00F01CF88900013E00F007B8A5
:1022500000F009B84FEA430C5FEA5C5C08D081EA01
:10226000030100F05BB84FEA410C5FEA5C5CF6D119
:102270004FF00000014970470000FF070000F87FA1
:102280000EF1020E2EF0030E5EF8046B364205D4FA
:10229000012A43EB030515F5001F12D8012841EB75
:1022A000010C1CF5001F0CD80ED14FEAD17C15F59E
:1022B000001F0CEB4C0C0CF1020C08BF4CEBD37C58
:1022C00004E04FF0080C01E04FEAD37C0CEB4C0526
:1022D00026FA05F606F00706B6F1040C06D20EEB58
:1022E000860CBDE870404CF0010C6047DFE80CF054
:1022F000090B02024FF000414FF00000A1F5002150
:1023000070BD19461046012851EB010418BFD4F5E1
:10231000001484BF002001F0004170BD0808A0F542
:1023200000114FEA31017047FF2141EAD050C0054A
:1023300070470CF00F03092B08BF082000F05980EC
:102340000A2B0BD0082B18BF704708BF1CF0400F9A
:102350000AD04FF000004FF0000170471CF0400F12
:1023600018BF4FF0004070471CF0100F08D020F04D
:10237000704300F07F4242EAD3014FEA4370704756
:1023800000F0604021F07F4242EA000201F07F400D
:1023900040EA727070474FF0FF0C4CF4E06C1CEA9E
:1023A00011531CBF9CEA030C9445C2BFDA4201EBF7
:1023B00002517047002B0DD0BCF1000F0FD0002A46
:1023C00001F00041A4BF41F0E04141F07F614FF0D6
:1023D0000000704701F000414FF00000704750EAE4
:1023E00001334FF09B0C18BF4CF0806C7FF482AE31
:1023F00070471CF4801F11D01CF4E02F03D06FEA4B
:10240000CC31490070474FF04050EFF3008222F08A
:10241000704242EA000282F3008870474FF00000E9
:102420007047010202030405060708090A0B0C0D98
:102430000E0F1010010202030405060708090A0B1B
:102440000C0D0E0F10100000000000000000010233
:10245000030406070809000000000102030400004D
:102460008024000800000020180000002801000857
:1024700098240008180000205007000044010008BC
:10248000000000000000000001000000100000003B
:08249000000000000024F4002C
:04000005080000ED02
:00000001FF
