:020000040800F2
:10000000D81D002021020008092E0008212A00081E
:10001000052E000873040008753A0008000000006F
:10002000000000000000000000000000890100083E
:100030007704000800000000CD010008C13200086C
:100040003B0200083B0200083B0200083B0200089C
:100050003B0200083B0200083B0200083B0200088C
:100060003B0200083B0200083B0200083B0200087C
:100070003B0200083B0200083B0200083B0200086C
:100080003B0200083B0200083B0200083B0200085C
:100090003B0200083B0200083B0200083B0200084C
:1000A0003B0200087D3300083B0200083B020008C9
:1000B0008D3300089D330008AD3300083B02000873
:1000C0003B0200083B0200083B020008C12E00086A
:1000D0003B020008653A00083B0200083B020008AA
:1000E0003B0200083B0200083B02000800F002F857
:1000F00000F03AF80AA090E8000C82448344AAF188
:100100000107DA4501D100F02FF8AFF2090EBAE885
:100110000F0013F0010F18BFFB1A43F0010318473B
:10012000E86E0000086F0000103A24BF78C878C15C
:10013000FAD8520724BF30C830C144BF04680C60ED
:10014000704700000023002400250026103A28BF35
:1001500078C1FBD8520728BF30C148BF0B60704739
:100160001FB51FBD10B510BD00F01BF91146FFF7FC
:10017000F7FF03F09DFC00F039F903B4FFF7F2FF3D
:1001800003BC00F041F90000224B19680868B0E890
:10019000F00F80F30988BFF36F8F4FF0000080F3FA
:1001A00011884EF00D0E70470000000006480068F0
:1001B000006880F3088862B661B6BFF34F8FBFF363
:1001C0006F8F00DF00BF00BF08ED00E0EFF3098094
:1001D000BFF36F8F0F4B1A6820E9F00F106008B55E
:1001E0004FF0500080F31188BFF34F8FBFF36F8F34
:1001F00004F040FE4FF0000080F31188BDE8084095
:1002000019680868B0E8F00F80F30988BFF36F8FB2
:10021000704700BF48000020EFF3058070470000E2
:100220000948804709480047FEE7FEE7FEE7FEE78A
:10023000FEE7FEE7FEE7FEE7FEE7FEE704480549C6
:10024000054A064B7047000079330008ED000008AE
:10025000D8170020D81D0020D8190020D819002058
:10026000032A40F2308010F0030C00F0158011F8E2
:10027000013BBCF1020F624498BF11F801CB00F8BA
:10028000013B38BF11F8013BA2F1040298BF00F80E
:1002900001CB38BF00F8013B11F0030300F02580CB
:1002A000083AC0F0088051F8043B083A51F804CBF2
:1002B000A0E80810F5E7121D5CBF51F8043B40F8B8
:1002C000043BAFF30080D20724BF11F8013B11F8C3
:1002D00001CB48BF11F8012B24BF00F8013B00F807
:1002E00001CB48BF00F8012B704710B5203AC0F091
:1002F0000B80B1E81850203AA0E81850B1E8185027
:10030000A0E81850BFF4F5AF5FEA027C24BFB1E863
:100310001850A0E8185044BF18C918C0BDE81040D4
:100320005FEA827C24BF51F8043B40F8043B08BFDD
:100330007047D20728BF31F8023B48BF11F8012BA4
:1003400028BF20F8023B48BF00F8012B70474FF050
:10035000000200B5134694469646203922BFA0E815
:100360000C50A0E80C50B1F12001BFF4F7AF090721
:1003700028BFA0E80C5048BF0CC05DF804EB890012
:1003800028BF40F8042B08BF704748BF20F8022B55
:1003900011F0804F18BF00F8012B7047704770476D
:1003A0007047754600F02CF8AE4605006946534686
:1003B00020F00700854618B020B5FFF73FFFBDE8E5
:1003C00020404FF000064FF000074FF000084FF0BC
:1003D000000B21F00701AC46ACE8C009ACE8C0094D
:1003E000ACE8C009ACE8C0098D46704710B50446BA
:1003F000AFF300802046BDE81040FFF7BEBE00000E
:10040000004870477417002001491820ABBEFEE772
:1004100026000200704770B50446002520688068F9
:1004200000F0010018B32068806820F00100216806
:10043000886000F0D3FB054613E000F0CFFB401BC3
:1004400002280ED92068806800F0010048B1A06A37
:1004500040F01000A062E06A40F00100E06201207C
:1004600070BD2068806800F001000028E5D1002000
:10047000F6E700BFFEE7704772B600BFFEE7000078
:1004800038B5024600230020009000BF92F82400F7
:10049000012801D1022038BD012082F8240000BFCC
:1004A0004868072812D21068406B0C79641E04EB70
:1004B00084051F24AC40A0430D796D1E05EB850516
:1004C0000C68AC4020431468606327E048680D283E
:1004D00012D21068006B0C79E41F04EB84051F2412
:1004E000AC40A0430D79ED1F05EB85050C68AC40D1
:1004F00020431468206311E01068C06A0C790D3C39
:1005000004EB84051F24AC40A0430D790D3D05EBA1
:1005100085050C68AC4020431468E06208680A282E
:1005200012D31068C0680C780A3C04EB4405072419
:10053000AC40A0430D780A3D05EB45058C68AC4006
:1005400020431468E0600FE0106800690C7804EB49
:1005500044050724AC40A0430D7805EB45058C68A5
:10056000AC402043146820610868102802D0086855
:10057000112827D1174C1068A0421ED1106880683E
:1005800000F40000F0B91068806840F400001468BE
:10059000A0600868102815D10F4800680F4CB0FB08
:1005A000F4F000EB80004000009002E00098401E54
:1005B000009000980028F9D104E0906A40F02000F3
:1005C0009062012300BF002082F8240000BF18467B
:1005D00061E70000002401404400002040420F0079
:1005E0002DE9F0410446002700250026A84614B94D
:1005F0000120BDE8F081A06810B1207D00B100BFEE
:10060000A06A30B90020E06284F82400204600F09F
:1006100089F82046FFF7FFFE0746A06A00F01000A9
:10062000002873D1002F71D1A06A20F4885040F0C7
:100630000200A062E16960680843217B40EA410052
:100640000643A068B0F5807F02D0A068012802D1DF
:100650004FF4807000E000200543207D012811D177
:10066000207B38B9A069401E4FF4006141EA403058
:10067000054307E0A06A40F02000A062E06A40F075
:100680000100E0622068406820F469402843216846
:1006900048602068806821490840304321688860AC
:1006A000A068B0F5807F02D0A068012802D14FF485
:1006B000807000E00020B0F5807F03D1208A401ECA
:1006C0004FEA00582068C06A20F4700040EA080031
:1006D0002168C8622068806811490840B04208D18A
:1006E0000020E062A06A20F0020040F00100A06259
:1006F00011E0A06A20F0020040F01000A062E06A61
:1007000040F00100E062012705E0FFE7A06A40F049
:100710001000A062012738466BE70000FDF7E1FFFB
:10072000FE0E1FFF10B586B0044600200290039015
:100730000490059014492068884222D100BF1348D4
:10074000806940F40070114988610846806900F4AE
:100750000070019000BF00BF00BF0846806940F0F4
:10076000040088610846806900F00400019000BF21
:1007700000BF022002900320039002A9044800F069
:100780008DF806B010BD00000024014000100240AA
:10079000000801400146002291F82100022808D0FB
:1007A0000420886300BF002081F8200000BF0120E2
:1007B00070470868006820F00E000B681860086831
:1007C000006820F001000B68186091F840300120AB
:1007D0009840CB6B5860012081F8210000BF0020B9
:1007E00081F8200000BF1046E2E7000070B5044623
:1007F000002594F82100022803D00420A0630125DD
:1008000048E02068006820F00E0021680860206839
:10081000006820F00100216808601F4920688842B4
:1008200001D1012026E01C4914312068884201D101
:1008300010201FE0184928312068884201D1801516
:1008400018E015493C312068884201D1801411E03C
:10085000114950312068884202D14FF4803009E0BC
:100860000D4964312068884202D14FF4801001E0C4
:100870004FF08070084908394860012084F8210051
:1008800000BF002084F8200000BF606B10B120463C
:10089000616B8847284670BD080002402DE9F84783
:1008A0000346002294466EE14FF0010808FA02F474
:1008B000D1F8008008EA0400A0427DD1DFF8DCA274
:1008C000D1F80480A8EB0A09D0453AD014DCB8F17D
:1008D000030F50D009DCB8F1000F31D0B8F1010F8F
:1008E0001CD0B8F1020F49D120E0B8F1110F18D097
:1008F000B8F1120F42D11EE0B9F5881F25D006DCF1
:10090000B9F5803F20D0B9F5801F37D11AE0B9F58D
:10091000001F18D0B9F5041F30D117E0D1F80CC072
:100920002DE0D1F80C8008F1040C28E0D1F80C80FF
:1009300008F1080C23E0D1F80C8008F10C0C1EE043
:1009400000BF00BF00BF00BF00BF00BFD1F80880DC
:10095000B8F1000F02D14FF0040C0BE0D1F8088081
:10096000B8F1010F03D14FF0080C1C6102E04FF009
:10097000080C5C6103E04FF0000C00E000BF00BF1A
:10098000FF2801D8984601E003F104084646FF28F5
:1009900002D84FEA820803E0A2F108084FEA88086B
:1009A0004746D6F800804FF00F0909FA07F928EA00
:1009B00009080CFA07F900E088E048EA0908C6F8D7
:1009C0000080D1F8048008F08058B8F1805F7DD1B4
:1009D00000BFDFF8CC81D8F8188048F00108DFF8B4
:1009E000C091C9F81880C846D8F8188008F00108E6
:1009F000CDF8008000BF00BF4FEAB9384FEA920936
:100A000058F829504FEA82784FEA18794FF00F08CA
:100A100008FA09F825EA0805DFF88881434502D17C
:100A20004FF0000816E0DFF88081434502D14FF017
:100A300001080FE0DFF87481434502D14FF002084E
:100A400008E0DFF86C81434502D14FF0030801E074
:100A50004FF004084FEA82794FEA197908FA09F849
:100A600048EA0505DFF84C814FEA920948F8295019
:100A7000D1F8048008F48018B8F5801F0AD1DFF897
:100A80003881D8F8008048EA0008DFF82C91C9F8CE
:100A9000008009E0DFF82081D8F8008028EA00080B
:100AA000DFF81491C9F80080D1F8048008F4001828
:100AB000B8F5001F10D1DFF8008108F10408D8F85C
:100AC000008048EA0008DFF8F09000E05AE009F101
:100AD0000409C9F800800DE0DFF8DC8008F10408A3
:100AE000D8F8008028EA0008DFF8CC9009F1040962
:100AF000C9F80080D1F8048008F40038B8F5003F48
:100B00000ED1DFF8B480A8F10408D8F8008048EAD4
:100B10000008DFF8A490A9F10409C9F800800DE0ED
:100B2000DFF89480A8F10408D8F8008028EA0008CB
:100B3000DFF88490A9F10409C9F80080D1F8048095
:100B400008F48038B8F5803F0ED1DFF86C80A8F14A
:100B50000808D8F8008048EA0008DFF85C90A9F19E
:100B60000809C9F800800DE0DFF84C80A8F10808FA
:100B7000D8F8008028EA0008DFF83C90A9F10809BD
:100B8000C9F80080521CD1F8008028FA02F8B8F1A8
:100B9000000F7FF489AEBDE8F88700000000111057
:100BA0000010024000080140000C0140001001400C
:100BB00000140140080001400804014010B5C2685B
:100BC00021EA020302EA010443EA0443036110BD7F
:100BD0000AB1016101E00B0403617047014800683C
:100BE0007047000038000020034800680349097876
:100BF0000844014908607047380000204000002088
:100C000010B50848006840F010000649086003204D
:100C100000F0D8F80F2000F007F800F055F8002099
:100C200010BD000000200240F0B587B00446002649
:100C30000027002500BF1F48806940F400601D495F
:100C400088610846806900F40060009000BF00BF22
:100C500001A902A800F028FA00F05EFA064616483C
:100C6000B6FBF0F0471E15481549086040F2E73121
:100C70001348C1604760002101618160816100F01B
:100C80002FFF054695B90E4800F0D6FF05466DB911
:100C9000192000F049F8102C07D200222146192013
:100CA00000F052F80748046000E00125284607B02C
:100CB000F0BD00000010024040420F00002C014037
:100CC000140900203C00002008B500BF14488069CA
:100CD00040F00100124988610846806900F0010077
:100CE000009000BF00BF00BF0846C06940F08050C0
:100CF000C8610846C06900F08050009000BF00BF86
:100D000000220F21901E00F01FF800BF054948681F
:100D100020F0E06040F00070486000BF08BD0000B7
:100D2000001002400000014001460846002809DB8F
:100D300000F01F0301229A4043099B0003F1E023C6
:100D4000C3F8002100BF70472DE9F05F80460D46D3
:100D50001646002702F090FE074639462A463346DB
:100D600001F00700C0F1070ABAF1040F02D94FF0F1
:100D7000040A01E0C0F1070AD14600F1040ABAF101
:100D8000070F02D24FF0000A01E0A0F1030AD44697
:100D90004FF0010A0AFA09FAAAF1010A0AEA020A5C
:100DA0000AFA0CFA4FF0010B0BFA0CFBABF1010B3A
:100DB0000BEA030B4AEA0B042146404602F064FEAC
:100DC000BDE8F09F00BF00F00702064B19684FF620
:100DD000FF031940044B0B4343EA0221014B196006
:100DE00000BF70470CED00E00000FA05F8B50446BE
:100DF00000260025207800F0010000286BD0002795
:100E00004348C06900F0805070B900BF4048C069D5
:100E100040F080503E49C8610846C06900F08050EB
:100E2000009000BF00BF01273A48006800F48070BE
:100E3000B0B93848006840F4807036490860FFF760
:100E4000CDFE064606E0FFF7C9FE801B642801D9E7
:100E50000320F8BD2F48006800F480700028F2D00D
:100E60002B48006A00F440752DB3A08800F4407050
:100E7000A84220D02648006A20F440750120264967
:100E80000860002008602248056205F0010090B16A
:100E9000FFF7A4FE064608E0FFF7A0FE801B41F224
:100EA0008831884201D90320D3E71948006A00F04D
:100EB00002000028F0D01648006A20F440706168F3
:100EC000084313490862012F04D10846C06920F085
:100ED0008050C86100BF207800F00200022807D1CE
:100EE0000B48406820F44040A16808430849486026
:100EF000207800F01000102807D10548406820F441
:100F00008000E1680843024948600020A1E7000032
:100F100000100240007000404004424270B5044698
:100F20000D460CB9012070BD5A48006800F007005A
:100F3000A8420ED25748006820F0070028435549C0
:100F400008600846006800F00700A84201D00120B0
:100F5000E9E7207800F0020002281DD1207800F097
:100F60000400042805D14C48406840F4E0604A4938
:100F70004860207800F00800082805D146484068FD
:100F800040F46050444948604348406820F0F00015
:100F9000A168084340494860207800F0010078B318
:100FA0006068012806D13C48006800F4003090B920
:100FB0000120B8E76068022806D13748006800F0D1
:100FC000007040B90120AEE73348006800F002002D
:100FD00008B90120A7E73048406820F003006168A5
:100FE00008432D494860FFF7F9FD064609E0FFF781
:100FF000F5FD801B41F28831884202D9032092E737
:1010000007E02548406800F00C006168B0EB810FF4
:10101000EDD12048006800F00700A8420ED91D4815
:10102000006820F0070028431A4908600846006855
:1010300000F00700A84201D0012074E7207800F0FA
:101040000400042807D11448406820F4E060E168F7
:10105000084311494860207800F00800082808D1AA
:101060000D48406820F46050216940EAC1000A49F7
:10107000486000F061F808494968C1F30311074A64
:10108000515CC8400649086006480068FFF7CCFD7F
:10109000002048E70020024000100240BA6F00081C
:1010A000440000203C0000200F2202600D4A5268DC
:1010B00002F0030242600B4A526802F0F0028260C2
:1010C000084A526802F4E062C260064A526802F4BA
:1010D0006052D2080261044A126802F007020A60F4
:1010E00070470000001002400020024001480068E4
:1010F000704700004400002000B5FFF7F7FF0449E7
:101100004968C1F30221034A515CC84000BD000098
:1011100000100240CA6F000800B5FFF7E7FF04495E
:101120004968C1F3C221034A515CC84000BD0000B8
:1011300000100240CA6F000870B500210022002490
:1011400000230020134D696801F00C05F5B1042D52
:1011500002D0082D19D101E00F4819E00F4DC1F35D
:101160008346AB5D01F4803555B10A4D6D68C5F31A
:1011700040450B4E725D084D5D43B5FBF2F402E055
:10118000084D03FB05F4204602E000BF024800BF03
:1011900000BF70BD0010024000127A00A86F000866
:1011A000B86F000800093D00F8B504460CB90120ED
:1011B000F8BD207800F00100002878D0F848406899
:1011C00000F00C0004280CD0F548406800F00C003A
:1011D000082811D1F248406800F48030B0F5803F13
:1011E0000AD1EF48006800F4003000285FD0606842
:1011F00000285CD10120DBE700BF6068B0F5803FCC
:1012000006D1E748006840F48030E549086028E0EE
:10121000606858B9E248006820F48030E04908600E
:101220000846006820F4802008601AE06068B0F585
:10123000A02F0BD1DA48006840F48020D84908601C
:101240000846006840F4803008600AE0D44800682E
:1012500020F48030D24908600846006820F48020DD
:10126000086000BF606888B1FFF7B8FC054606E07B
:10127000FFF7B4FC401B642801D9032098E7C84855
:10128000006800F400300028F2D010E0FFF7A6FC60
:10129000054606E0FFF7A2FC401B642801D90320A5
:1012A00086E7BF48006800F400300028F2D12078BB
:1012B00000F00200022857D1B948406800F00C0045
:1012C00050B1B748406800F00C00082818D1B44865
:1012D000406800F4803098B9B148006800F002001E
:1012E00020B12069012801D0012061E7AC480068E5
:1012F00020F0F800616940EAC100A949086033E0C4
:101300002069E8B10120A7490860FFF767FC05469E
:1013100006E0FFF763FC401B022801D9032047E7E2
:101320009F48006800F002000028F2D09C48006846
:1013300020F0F800616940EAC1009949086013E0B3
:10134000002098490860FFF749FC054606E0FFF7D2
:1013500045FC401B022801D9032029E7904800687A
:1013600000F002000028F2D1207800F008000828E0
:101370002DD1A069B8B101208B490860FFF72EFC80
:10138000054606E0FFF72AFC401B022801D903208E
:101390000EE78348406A00F002000028F2D00120E6
:1013A00001F07AFD13E000207F490860FFF716FC8A
:1013B000054606E0FFF712FC401B022801D9032076
:1013C000F6E67748406A00F002000028F2D1207863
:1013D00000F00400042873D100277148C06900F0B0
:1013E000805070B900BF6E48C06940F080506C49B1
:1013F000C8610846C06900F08050009000BF00BF7F
:1014000001276A48006800F48070B0B96748006836
:1014100040F4807065490860FFF7E0FB054606E090
:10142000FFF7DCFB401B642801D90320C0E65F48BE
:10143000006800F480700028F2D000BFE068012846
:1014400006D15748006A40F001005549086227E07C
:10145000E06858B95248006A20F00100504908621B
:101460000846006A20F00400086219E0E0680528D8
:101470000BD14B48006A40F0040049490862084615
:10148000006A40F0010008620AE04548006A20F066
:101490000100434908620846006A20F0040008621F
:1014A00000BFE068A0B1FFF799FB054609E0FFF730
:1014B00095FB401B41F28831884202D9032077E630
:1014C00022E03748006A00F002000028EFD012E066
:1014D000FFF784FB054608E0FFF780FB401B41F265
:1014E0008831884201D9032062E62D48006A00F065
:1014F00002000028F0D1012F05D12948C06920F051
:1015000080502749C86100BFE069C8B324484068DB
:1015100000F00C00082860D0E069022848D10020C3
:1015200020490866FFF75AFB054606E0FFF756FB21
:10153000401B022801D903203AE61948006800F050
:1015400000700028F2D1206AB0F5803F07D114481E
:10155000406820F40030A168084311494860D4E98C
:10156000080108430E49496821F4741108430C49E5
:10157000486001200B490866FFF730FB054607E08D
:101580003DE0FFF72BFB401B022801D903200FE6AB
:101590000348006800F000700028F2D02FE000003F
:1015A00000100240000042428004424200700040AD
:1015B000002014490866FFF711FB054606E0FFF717
:1015C0000DFB401B022801D90320F1E50E480068FD
:1015D00000F000700028F2D111E0E069012800D18C
:1015E000E6E50948466806F48031206A814204D164
:1015F00006F47011606A814201D00120D8E5002014
:10160000D6E5000000004242001002407047000092
:10161000F8B504462068466820688568C5F38010E0
:1016200048B905F0010030B1C6F3801018B120466A
:10163000216C8847F8BDC5F3400030B1C6F3C01037
:1016400018B12046616C8847F4E7C5F3401018B91B
:10165000C5F38010002871D0C6F3401000286DD06B
:10166000C5F38010F0B194F8510003280ED0606DDE
:1016700040F00400606500BF002000902068C06852
:10168000009020688068009000BF0BE000BF002041
:1016900000902068C068009020688068009000BFBB
:1016A00000BFC7E7C5F3401088B1606D40F001008E
:1016B000606500BF0020009020688068009020686E
:1016C000006820F040002168086000BF00BF606D26
:1016D00070B32068406820F0E00021684860012075
:1016E00084F8510006F0020010B906F0010000B3C2
:1016F0002068406820F0030021684860E06C50B129
:101700000F48E16C4863E06CFFF770F818B1606D4A
:1017100040F040006065A06C50B10948A16C48637E
:10172000A06CFFF763F818B1606D40F04000606591
:1017300002E02046FFF76AFF7CE7FFE700BF79E79A
:10174000112F000810B504460CB9012010BD606AC5
:1017500038B96068B0F5827F00D105E00021E16111
:1017600002E00021216161610021A16294F8510031
:1017700028B9002084F85000204600F043F80220E9
:1017800084F851002068006820F04000216808605B
:10179000A08800F48270218901F404410843A189E2
:1017A00001F400610843217C01F002010843217D1E
:1017B00001F001010843218B01F400710843217FEE
:1017C00001F0380108432021095D01F08001084340
:1017D000218D01F400510843216808600421A069AB
:1017E00001EA1040216848602068C06920F4006068
:1017F0002168C86100206065012084F85100002044
:10180000A4E7000010B586B00446002002900390C3
:10181000049005901D492068884235D100BF1C48BE
:10182000806940F480501A4988610846806900F454
:101830008050019000BF00BF00BF0846806940F0A3
:10184000040088610846806900F00400019000BF30
:1018500000BFA0200290022003900320059002A95F
:101860000C48FFF71BF840200290002003900490E2
:1018700002A90848FFF712F8002205212320FFF7EC
:1018800063FA2320FFF750FA06B010BD0030014084
:1018900000100240000801402DE9F84304460F46BD
:1018A00016461D46FFF79AF98046B14694F8510056
:1018B000012802D00220BDE8F88307B10EB901204B
:1018C000F9E700BF94F85000012801D10220F2E7A7
:1018D000012084F8500000BF032084F8510000204C
:1018E00060652763A686E686A063A087E0876064BC
:1018F0002064A068B0F5004F0BD12068006820F08C
:101900004000216808602068006840F48040216839
:1019100008602068006800F04000402805D020687A
:10192000006840F0400021680860E068B0F5006F92
:1019300037D1606810B1B9F1010F09D1206B00886F
:101940002168C860206B801C2063E08E401EE0860A
:1019500023E02068806800F0020002280AD1206B92
:1019600000882168C860206B801C2063E08E401EC8
:10197000E08612E0FFF732F9A0EB0800A84201D39D
:10198000681C00B94DB9012084F8510000BF002047
:1019900084F8500000BF03208DE7E08E0028D8D1E6
:1019A00036E0606810B1B9F1010F09D1206B007801
:1019B00021680873206B401C2063E08E401EE08687
:1019C00023E02068806800F0020002280AD1206B22
:1019D000007821680873206B401C2063E08E401E55
:1019E000E08612E0FFF7FAF8A0EB0800A84201D366
:1019F000681C00B94DB9012084F8510000BF0020D7
:101A000084F8500000BF032055E7E08E0028D8D1AD
:101A100042462946204601F085FA08B1202060653B
:101A2000A06850B900BF002000902068C0680090F6
:101A300020688068009000BF00BF012084F851003A
:101A400000BF002084F8500000BF606D08B1012085
:101A500031E700202FE770477047000030B502469D
:101A60000B4600BF92F83C00012801D1022030BD96
:101A7000012082F83C0000BF022082F83D0010687F
:101A800044681068816824F0700418680443106882
:101A90004460104D1068A8420BD01068B0F1804F20
:101AA00007D00D4D1068A84203D00C4D1068A84215
:101AB00005D121F080015868014310688160012040
:101AC00082F83D0000BF002082F83C0000BF00BF4C
:101AD000CDE70000002C0140000400400008004059
:101AE00010B504460CB9012010BD94F83D0028B98A
:101AF000002084F83C00204600F026F8022084F8FC
:101B00003D00211D206801F059FC012084F84600A9
:101B100000BF84F83E0001213F20015540200155BF
:101B20004120015500BF00BF012084F8420043203E
:101B30000155442001554520015500BF012084F87E
:101B40003D000020D0E7000010B586B0044600201C
:101B500002900390049005902068B0F1804F2CD142
:101B600000BF3148C06940F001002F49C8610846F4
:101B7000C06900F00100019000BF00BF00BF08462F
:101B8000806940F0040088610846806900F0040024
:101B9000019000BF00BF0420029000200390049039
:101BA00002A92248FEF77AFE002205211C20FFF739
:101BB000CBF81C20FFF7B8F834E01D4920688842B4
:101BC00016D100BF1848C06940F002001649C8612C
:101BD0000846C06900F00200019000BF00BF00226B
:101BE00005211D20FFF7B0F81D20FFF79DF819E033
:101BF00010492068884215D100BF0B48C06940F0E9
:101C000004000949C8610846C06900F00400019059
:101C100000BF00BF002205211E20FFF795F81E20FF
:101C2000FFF782F806B010BD001002400008014026
:101C30000004004000080040014691F83D000128E2
:101C400001D001207047022081F83D000868C0687B
:101C500040F001000B68D860124B086898420BD026
:101C60000868B0F1804F07D00F4B0868984203D046
:101C70000E4B086898420CD10868806800F0070293
:101C8000062A0CD00868006840F001000B68186054
:101C900005E00868006840F001000B68186000204B
:101CA000D0E70000002C0140000400400008004084
:101CB0002DE9F04104460D46002700BF94F83C0092
:101CC000012802D10220BDE8F081012084F83C0007
:101CD00000BF022084F83D002068866826F0770661
:101CE00026F47F46206886602868502833D00CDCB4
:101CF000202850D004DC00284BD0102851D149E0D6
:101D0000302849D040284CD139E060282DD07028A7
:101D100007D0B0F5805F03D0B0F5005F41D10DE092
:101D200041E0D5E902136A68206801F09AFB206857
:101D3000866846F077062068866034E0D5E90213AD
:101D40006A68206801F08DFB2068806840F480405C
:101D50002168886027E0EA686968206801F052FC21
:101D60005021206801F088FB1DE0EA68696820685E
:101D700001F090FC6021206801F07EFB13E0EA682E
:101D80006968206801F03EFC4021206801F074FB86
:101D900009E000BF00BF00BF2968206801F06CFBAC
:101DA00001E0012700BF00BF012084F83D0000BF13
:101DB000002084F83C0000BF384684E72DE9F84352
:101DC00004464FF000092068B0F1804F72D1207FA7
:101DD00004286FD1002038490968486237480078E4
:101DE00048B10821364800F003FC3649088000203D
:101DF000324908705EE00821314800F0F9FB3249B1
:101E00000880084600882F490988884212DD2E493B
:101E100009882C4A1288881A04F043FA07463A4681
:101E20000B460020294904F0B7F8054603F0CEFF21
:101E3000814614E0234909884FF6FF72511A224A5D
:101E40001288881804F02DFA05462A460B46002011
:101E50001E4904F0A1F8074603F0B8FF81461C486C
:101E60000078F0B11B480168484604F01DFD0546A6
:101E70004FF0804104F086FD174908606946174815
:101E8000006802F0DFFE009838B14FF0805014492E
:101E90000860BFF34F8FBFF36F8F00200C490870AD
:101EA00005E00C48C0F800900120094908700120A5
:101EB00002490870BDE8F88384080020240000204F
:101EC000F40700202600002028000020006AF840C7
:101ED00034000020300000202C00002018000020DA
:101EE00004ED00E02DE9F04104460D4616460027BA
:101EF00000BF94F83C00012802D10220BDE8F08127
:101F0000012084F83C0000BF96B9EB68D5E90012C7
:101F1000206801F08BFB2068806920F00C002168AC
:101F2000886120688069A96808432168886141E068
:101F3000042E13D1EB68D5E90012206801F0BEFB36
:101F40002068806920F44060216888612068806989
:101F5000A96840EA0120216888612BE0082E12D18F
:101F6000EB68D5E90012206801F0C5FB2068C06964
:101F700020F00C002168C8612068C069A968084386
:101F80002168C86116E00C2E13D1EB68D5E9001268
:101F9000206801F0CCFB2068C06920F44060216813
:101FA000C8612068C069A96840EA01202168C86149
:101FB00000E0012700BF002084F83C0000BF384645
:101FC0009CE710B504460CB9012010BD94F83D0003
:101FD00028B9002084F83C00204600F025F80220B3
:101FE00084F83D00211D206801F0E8F9012084F803
:101FF000460000BF84F83E0001213F2001554020EB
:1020000001554120015500BF00BF012084F8420066
:1020100043200155442001554520015500BF0120B2
:1020200084F83D000020D0E7704700002DE9F04320
:1020300004460D46002615B994F83E000BE0042D29
:1020400002D13F20005D06E0082D02D14020005D56
:1020500001E04120005D804615B994F842000BE094
:10206000042D02D14320005D06E0082D02D144205A
:10207000005D01E04520005D8146B8F1010F02D10D
:10208000B9F1010F02D00120BDE8F0831DB9022093
:1020900084F83E000EE0042D03D102213F200155BB
:1020A00008E0082D03D102214020015502E0022161
:1020B000412001551DB9022084F842000EE0042D94
:1020C00003D102214320015508E0082D03D102214C
:1020D0004420015502E002214520015535B1042D6F
:1020E0000BD0082D10D00C2D1CD114E02068C06836
:1020F00040F002002168C86016E02068C06840F027
:1021000004002168C8600FE02068C06840F0080043
:102110002168C86008E02068C06840F010002168AD
:10212000C86001E0012600BF00BF06BB01222946AE
:10213000206801F085F91249206888420BD0206898
:10214000B0F1804F07D00F492068884203D00E4974
:10215000206888420CD12068806800F00707062FAD
:102160000CD02068006840F001002168086005E09C
:102170002068006840F0010021680860304683E76D
:10218000002C0140000400400008004070B50446E7
:102190002068C5682068066906F00200022819D187
:1021A00005F00200022815D1401F216808610120B6
:1021B00020772068806900F0030018B12046FFF7FF
:1021C000FDFD05E0204600F0C3F8204600F077F959
:1021D0000020207706F00400042819D105F004003F
:1021E000042815D1C04321680861022020772068A7
:1021F000806900F4407018B12046FFF7DFFD05E06C
:10220000204600F0A5F8204600F059F9002020777C
:1022100006F00800082819D105F00800082815D193
:10222000C04321680861042020772068C06900F05D
:10223000030018B12046FFF7C1FD05E0204600F07D
:1022400087F8204600F03BF90020207706F01000C8
:10225000102819D105F01000102815D1C0432168AD
:102260000861082020772068C06900F4407018B128
:102270002046FFF7A3FD05E0204600F069F8204660
:1022800000F01DF90020207706F0010048B105F0AC
:10229000010030B16FF0010021680861204600F0B4
:1022A00079F906F08000802809D105F080008028A7
:1022B00005D1C043216808612046FFF7CCFB06F03A
:1022C0004000402809D105F04000402805D1C04316
:1022D00021680861204600F0A4F906F020002028BB
:1022E00009D105F02000202805D1C04321680861EC
:1022F0002046FFF7B1FB70BD10B586B00446002044
:1023000002900390049005900E492068884216D1EF
:1023100000BF0D48806940F008000B4988610846FD
:10232000806900F00800019000BF00BF0220029009
:1023300003900320059002A90448FEF7AFFA06B007
:1023400010BD00000004004000100240000C0140DD
:1023500070472DE9F04104460D461646002700BFA0
:1023600094F83C00012802D10220BDE8F081012050
:1023700084F83C0000BF36B1042E1BD0082E31D0AB
:102380000C2E5ED145E02946206801F07FF82068D8
:10239000806940F00800216888612068806920F029
:1023A00004002168886120688069296908432168E0
:1023B000886148E02946206801F098F82068806923
:1023C00040F40060216888612068806920F48060A2
:1023D0002168886120688069296940EA01202168B4
:1023E000886130E02946206801F0B4F82068C069AF
:1023F00040F008002168C8612068C06920F004002E
:102400002168C8612068C069296908432168C861DA
:1024100019E02946206801F0D1F82068C06940F42D
:1024200000602168C8612068C06920F4806021686C
:10243000C8612068C069296940EA01202168C86133
:1024400001E0012700BF00BF00BF002084F83C006E
:1024500000BF384689E710B504460CB9012010BD0D
:1024600094F83D0028B9002084F83C00204600F094
:1024700025F8022084F83D00211D206800F09EFF11
:10248000012084F8460000BF84F83E0001213F206F
:102490000155402001554120015500BF00BF0120DA
:1024A00084F8420043200155442001554520015540
:1024B00000BF012084F83D000020D0E7704770473E
:1024C00070B504460D4615B994F83E000BE0042D96
:1024D00002D13F20005D06E0082D02D14020005DC2
:1024E00001E04120005D012801D0012070BD1DB92F
:1024F000022084F83E000EE0042D03D102213F208B
:10250000015508E0082D03D102214020015502E0C9
:1025100002214120015501222946206800F090FF48
:1025200019492068884201D1012000E0002028B12B
:102530002068406C40F400402168486412492068DB
:1025400088420BD02068B0F1804F07D00F49206837
:10255000884203D00E49206888420CD120688068E8
:1025600000F00706062E0CD02068006840F001003D
:102570002168086005E02068006840F001002168DB
:1025800008600020B2E70000002C01400004004079
:102590000008004038B5044610492068884202D13E
:1025A000FEF722FB19E00E492068884215D1002071
:1025B0000C49086003F04CF901280ED069460A481E
:1025C000006802F03FFB009838B14FF08050074997
:1025D0000860BFF34F8FBFF36F8F38BD002C0140F1
:1025E000000800402C0000201800002004ED00E04E
:1025F0000246002031B1042907D0082908D00C294F
:102600000CD108E01368586B09E01368986B06E07A
:102610001368D86B03E01368186C00E000BF00BFBC
:1026200070477047704770472DE9F84F044620689F
:1026300005682068C668206847694FF00009CA46E7
:1026400005F00F09B9F1000F0AD105F0200038B1EB
:1026500006F0200020B1204601F0D7F8BDE8F88F41
:10266000B9F1000F7BD007F0010018B906F49070A3
:10267000002874D005F0010030B106F4807018B164
:10268000606C40F00100606405F0040030B107F0B8
:10269000010018B1606C40F00200606405F00200B7
:1026A00030B107F0010018B1606C40F004006064C4
:1026B00005F0080048B106F0200010B907F001004D
:1026C00018B1606C40F008006064606C002845D070
:1026D00005F0200028B106F0200010B1204601F0DE
:1026E00094F820684069C0F3801A606C00F008001C
:1026F00010B9BAF1000F2CD0204601F040F8206844
:10270000406900F0400000B300BF00BF21681431F1
:1027100051E8001F21F040002168143141E8000217
:10272000002AF3D100BFE06B50B17748E16B4863FA
:10273000E06BFEF75BF888B1E06B416B88470DE01A
:102740002046FFF770FF09E009E02046FFF76BFF26
:1027500004E02046FFF767FF002060647EE7206BFF
:10276000012877D105F01000002873D006F0100082
:102770000028FAD000BF0020009020680068009078
:1027800020684068009000BF00BF2068406900F0EA
:10279000400000285FD0E06B006840681FFA80F8B6
:1027A000B8F1000F55D0A08D404552DDA4F82E8021
:1027B000E06B8069202843D000BF00BF21680C3146
:1027C00051E8001F21F4807021680C3141E80002BB
:1027D000002AF3D100BF00BF00BF2168143151E8C7
:1027E000001F21F001002168143141E80002002A95
:1027F000F3D100BF00BF00BF2168143151E8001FB2
:1028000021F040002168143141E80002002AF3D190
:1028100000BF202084F842000020206300BF00BFDA
:1028200021680C3151E8001F21F0100021680C31A3
:1028300041E80002002AF3D100BFE06BFDF7AAFFD8
:1028400002206063A08DE28D801A81B22046FFF7DE
:10285000E9FE03E742E0A08DE18D401A1FFA80F8FF
:10286000E08DD0B3B8F1000F37D000BF00BF2168B2
:102870000C3151E8001F21F4907021680C3141E8BF
:102880000002002AF3D100BF00BF00BF216814314D
:1028900051E8001F21F001002168143141E80002D5
:1028A000002AF3D100BF202084F8420000202063DA
:1028B00000BF00BF21680C3151E8001F21F010005B
:1028C00021680C3141E80002002AF3D100BF022048
:1028D000606341462046FFF7A5FEBFE605F0800095
:1028E00030B106F0800018B1204601F08BF8B5E653
:1028F00005F0400030B106F0400018B1204600F06D
:1029000074FFABE600BFA9E66B37000810B50446BC
:102910000CB9012010BDA06900B100E000BF94F81F
:10292000410028B9002084F84000204600F02AF831
:10293000242084F841002068C06820F400502168F9
:10294000C860204600F0E0FF2068006920F4904055
:10295000216808612068406920F02A0021684861E8
:102960002068C06840F400502168C860002060649E
:10297000202084F8410084F842000020606300BFFA
:10298000C8E7000010B586B004460020029003900E
:10299000049005901E492068884236D100BF1D482A
:1029A000806940F480401B4988610846806900F4D2
:1029B0008040019000BF00BF00BF0846806940F022
:1029C000040088610846806900F00400019000BF9F
:1029D00000BF48150290022003900320059002A931
:1029E0000D48FDF75BFF4FF48060029000200390DC
:1029F000049002A90848FDF751FF00220521252077
:102A0000FEF7A2F92520FEF78FF906B010BD0000F1
:102A10000038014000100240000801407047704734
:102A200000BFFEE70EB50020009001900290114813
:102A300011490860002110488160017301754FF44D
:102A40006021C16100200C49486001210A480161F0
:102A5000FDF7C6FD08B1FDF70FFD012000900190C4
:102A60000020029069460448FDF70AFD08B1FDF711
:102A700003FD0EBD002401406C07002000B59FB08F
:102A80001E4903C9CDE91D01002211461DA801F010
:102A900081F81B4908601C221849083116A8FDF767
:102AA00024FC002116A801F045F8164908601C22F4
:102AB000124924310FA8FDF718FC00210FA801F0DE
:102AC00039F8114908601C220C49403108A8FDF76B
:102AD0000CFC002108A801F02DF80C4908601C220C
:102AE00006495C3101A8FDF700FC002101A801F0B6
:102AF00021F8074908601FB000BD0000306F0008D2
:102B000020000020100000201400002018000020E9
:102B10001C00002000B585B00020019002900390B9
:102B2000049000BF2748806940F020002549886153
:102B30000846806900F02000009000BF00BF00BF81
:102B40000846806940F0040088610846806900F00A
:102B50000400009000BF00BF00BF0846806940F03D
:102B6000080088610846806900F00800009000BFF6
:102B700000BF01224FF401611348FEF729F801223A
:102B80004FF440611148FEF723F84FF401600190C3
:102B900001200290002003900320049001A90A481C
:102BA000FDF77CFE4FF44060019001200290002070
:102BB00003900320049001A90448FDF76FFE05B0BF
:102BC00000BD00000010024000080140000C014060
:102BD00010B50E480E4908604FF48270486000211D
:102BE0000B488160C160016101214161490281613D
:102BF0000821C16100210162416281620A21C16232
:102C0000FEF7A0FD08B1FDF737FC10BD0030014014
:102C10009C07002000B58BB0002007900890099019
:102C20000A900590069001900290039004904FF056
:102C300080401F490860B320486000211C48816023
:102C40004FF6FF71C1600021016180218161FEF7B3
:102C500047FF08B1FDF710FC4FF48050079007A91B
:102C60001348FFF725F808B1FDF706FC1048FFF7F9
:102C7000A8F908B1FDF700FC00200590069005A911
:102C80000B48FEF7EBFE08B1FDF7F6FB00200190C4
:102C900001200290002003900490082201A904481A
:102CA000FFF720F908B1FDF7E7FB0BB000BD00000E
:102CB000F407002000B58DB0002009900A900B9019
:102CC0000C90079008901C216846FDF740FB2148B6
:102CD000214908601120486000211F48816041F2AD
:102CE0008731C1600021016180218161FEF7F8FE1A
:102CF00008B1FDF7C1FB4FF48050099009A91648AF
:102D0000FEF7D6FF08B1FDF7B7FB1348FFF7A3FBAB
:102D100008B1FDF7B1FB00200790089007A90E4805
:102D2000FEF79CFE08B1FDF7A7FB6020009040F67F
:102D3000C41001900020029004900C2269460648BD
:102D4000FFF707FB08B1FDF797FB0348FFF7D4FA3D
:102D50000DB000BD000400403C08002000B587B065
:102D60000020039004900590069001900290154871
:102D70001549086040F207704860002112488160E0
:102D800043F69721C1600021016180218161FEF736
:102D9000A7FE08B1FDF770FB4FF48050039003A924
:102DA0000948FEF785FF08B1FDF766FB002001909A
:102DB000029001A90448FEF751FE08B1FDF75CFB43
:102DC00007B000BD000800408408002010B50B4883
:102DD0000B4908604FF4E1304860002108488160E9
:102DE000C16001610C21416100218161C161FFF776
:102DF0008DFD08B1FDF740FB10BD0000003801401B
:102E0000CC08002000BFFEE700BFFEE72DE9F84F29
:102E100082461C49504603F013FF1B49009003F003
:102E200043FD834603F014FD804642460B460020D6
:102E3000164903F0B1F8064601F0B8FC044603F069
:102E400003FA401E124908600846006811490968E3
:102E5000C8620F480068401C03F0AAFE81464FF08C
:102E6000804103F08FFD804603F0F2FC064601F03E
:102E70009DFC044603F0E8F9064909680864BDE8CA
:102E8000F88F0000000020410000484380842E415C
:102E9000080000203C08002008B508490968C90856
:102EA0004FF47A72B1FBF2F14143009100BF00BFD1
:102EB00000994A1E00920029F9D108BD4400002063
:102EC00010B50248FEF7A4FB10BD00009C070020CF
:102ED0002DE9F84305460C462612E7B28DF800505E
:102EE0008DF801608DF80270002210210748FDF76F
:102EF0006FFE0321684600F037F88046012210215A
:102F00000248FDF765FE4046BDE8F8830008014031
:102F100070B505466C6A0020E087E0862046FEF723
:102F200075FB70BDF8B504460E46154633460122C2
:102F300002212046009500F023F828B1606D40F092
:102F4000200060650320F8BD334600228021204622
:102F5000009500F015F828B1606D40F02000606524
:102F60000320F0E70020EEE770B504460D46642329
:102F70002A4621460148FEF78FFC70BD9C070020C1
:102F80002DE9F84F04460D4690461E46DDF8289080
:102F9000FDF724FEA0EB0900371AFDF71FFE82465D
:102FA0002C480068C0F3CB307843009045E0701C9B
:102FB000002842D0FDF712FEA0EB0A00B84200D272
:102FC000A7BB2068406820F0E00021684860606886
:102FD000B0F5827F0DD1A068B0F5004F03D0A06896
:102FE000B0F5806F05D12068006820F040002168AE
:102FF0000860A06AB0F5005F0DD100BF20680068CE
:1030000020F40050216808602068006840F40050F7
:103010002168086000BF012084F8510000BF002033
:1030200084F8500000BF0320BDE8F88FFFE7009848
:1030300000B900270098401E009020688068284052
:10304000A84201D1012000E000204045AFD100207E
:10305000EAE700004400002010B5044600224FF4C7
:1030600000610248FDF7B4FD10BD0000000C0140F6
:1030700000BF4FF400610548FDF7A0FD4FF4FA7062
:1030800001F0A0FD012000F044FDF2E7000801403E
:1030900008B54FF0000B0020009000BF002108464B
:1030A00001F0CEFB8246BAF1010F1ED11148006833
:1030B00003F0CEFB8046104A104B03F045F906465C
:1030C0000F4A104B02F0B4FE044602F07FFE00905F
:1030D0000D49009803F0B4FD8346584603F048FDBF
:1030E00084B221460020FFF7F3FE0A2000F011FD14
:1030F000D4E70000040000207B14AE47E17A943F3F
:103100009A9999999999D93FCDCCCC4608B5002583
:1031100000BF5648008898B1554D284603F028FD59
:1031200086B231460020FFF7D3FE284603F020FD8B
:1031300086B231460020FFF7CBFE00204B490880C5
:103140000021084601F07CFB0446012C50D149487F
:1031500001684948006803F0D7FC49D00021454880
:10316000006803F039FE54D244494248006803F035
:1031700033FD4ED80023022219464148006802F070
:10318000D3FA0023022219463E48006802F0CCFA26
:1031900038480068384908603B493648006803F001
:1031A0001BFE26D839493348006803F015FD20D8A6
:1031B00037480088002855D002F05AFB0646002008
:1031C00003463246022100903248006802F0BCFDFE
:1031D00002F04EFB064642F21070002332460121F7
:1031E00000902C48006802F0AFFD002028490880BC
:1031F00038E02748008810BB002003460246032120
:1032000000902448006802F09FFD012020490880BA
:1032100028E000211748006803F076FC10D1002058
:10322000FFF7F4FD124D284603F0A2FC86B23146AA
:103230000020FFF74DFE0F4800680F49086011E0BD
:103240000E490C48006803F0C7FD0BD20B48FFF78E
:10325000DDFD114D284603F08BFC86B2314600207F
:10326000FFF736FE0A2000F054FC52E70000002071
:103270000AD723462C000020040000200000A042B2
:1032800010000020140000200000A0410000E041D8
:103290000C00002020000020CDCC4C4700BF0021B6
:1032A000084601F0CDFA0446012C03D1034800681A
:1032B000FFF7ACFD0A2000F02CFCF0E70400002032
:1032C00010B500BF502080F31188BFF34F8FBFF3BC
:1032D0006F8F00BF02F0D2FA18B14FF0805004494E
:1032E000086000BF002080F3118800BF10BD0000FF
:1032F00004ED00E000B593B0282109A8FDF727F8F8
:10330000142104A8FDF723F80020009001900290FA
:1033100003900120099000040A9000200B900120E6
:103320000D9002201090C10311914FF4E011129101
:1033300009A8FDF739FF08B1FDF79EF80F200490AA
:1033400002200590902006904FF4806007900020A6
:103350000890022104A8FDF7E1FD08B1FDF78CF803
:1033600002200090002002906846FDF73FFD08B162
:10337000FDF782F813B000BD7047000010B5024899
:10338000FEF704FF10BD00001409002010B502482C
:10339000FEF7FCFE10BD0000F407002010B5024847
:1033A000FEF7F4FE10BD00003C08002010B50248F6
:1033B000FEF7ECFE10BD00008408002010B5026886
:1033C0001C4B984208D0B0F1804F05D01A4B984260
:1033D00002D01A4B984203D122F070024B681A4374
:1033E000144B984208D0B0F1804F05D0124B984250
:1033F00002D0124B984203D122F44072CB681A4398
:1034000022F080034C6943EA040202608B68C362C5
:103410000B688362074B984201D10B690363012358
:103420004361036903F001031BB1036923F0010346
:10343000036110BD002C0140000400400008004062
:1034400030B501F01F05012404FA05F3046A9C431A
:103450000462046A01F01F0502FA05F52C430462B8
:1034600030BD30B50C46816821F47F4142EA032526
:1034700025432943816030BD0A46816821F07001EF
:1034800042F00703194381607047000030B5026ABB
:10349000056A25F0010505624368846924F070041B
:1034A00024F003040D682C4322F002028D682A43A5
:1034B0000D4DA84206D100BF22F00802CD682A4374
:1034C00022F00402084DA84207D123F4807323F4AC
:1034D00000734D692B438D692B43436084614D68B4
:1034E0004563026230BD0000002C014030B5026A25
:1034F000056A25F0100505624368846924F4E044F8
:1035000024F440740D6844EA052422F020028D68FA
:1035100042EA05120E4DA84207D100BF22F08002F8
:10352000CD6842EA051222F04002094DA84209D1B5
:1035300023F4806323F400634D6943EA85038D69B6
:1035400043EA8503436084614D688563026230BD50
:10355000002C014030B5026A056A25F480750562C9
:103560004368C46924F0700424F003040D682C43FC
:1035700022F400728D6842EA05220F4DA84207D15D
:1035800000BF22F40062CD6842EA052222F4806284
:10359000094DA84209D123F4805323F400534D6907
:1035A00043EA05138D6943EA05134360C4614D681E
:1035B000C563026230BD0000002C014030B5036AD3
:1035C000056A25F4805505624468C26922F4E04228
:1035D00022F440720D6842EA052223F400538D68FC
:1035E00043EA0533064DA84204D124F480444D69D2
:1035F00044EA85144460C2614D680564036230BDCD
:10360000002C014030B50B461446026A056A25F0CD
:1036100001050562816921F0F00141EA041122F0FF
:103620000A021A438161026230BD000070B50C4687
:103630001546026A066A26F0010606628169124E84
:10364000B04208D0B0F1804F05D0104EB04202D049
:103650000F4EB04201D1012600E000261EB121F03C
:103660000301294301E041F0010121F0F001F026BE
:1036700006EA0316314322F00A0204F00A06324336
:103680008161026270BD0000002C01400004004016
:103690000008004030B50B461446026A056A25F062
:1036A00010050562816921F4704141EA043122F07C
:1036B000A00242EA03128161026230BD70B50C467D
:1036C0001546026A066A26F010060662816921F430
:1036D000407141EA052121F470414FF4704606EA39
:1036E0000336314322F0A002A02606EA0416324334
:1036F0008161026270BD70B50C461546026A066AA9
:1037000026F480760662C16921F00301294321F085
:10371000F001F02606EA0316314322F400724FF45A
:10372000007606EA04263243C161026270BD70B5BC
:103730000C461546026A066A26F480560662C1697E
:1037400021F4407141EA052121F470414FF47046A3
:1037500006EA0336314322F400524FF4005606EADB
:1037600004363243C161026270BD70B505466C6AB1
:103770000020E085E0842046FEF755FF70BD00BFC5
:1037800000BF02680C3252E8002F22F490710268E8
:103790000C3242E80013002BF3D100BF00BF00BF82
:1037A0000268143252E8002F22F00101026814323C
:1037B00042E80013002BF3D100BF016B01290ED1A9
:1037C00000BF00BF02680C3252E8002F22F0100147
:1037D00002680C3242E80013002BF3D100BF202115
:1037E00080F8421000210163704710B5044620683C
:1037F000C06820F040002168C860202084F84100A3
:103800002046FFF70CF9002010BDF8B5044694F8E7
:103810004200222875D1A068B0F5805F0CD12069E4
:1038200050B90025A66A20684068C0F308003080BF
:10383000A06A801CA06215E0A56A0026A068B0F509
:10384000805F03D0A06828B9206918B92068406853
:10385000287004E02068406800F07F002870A06AAB
:10386000401CA062E08D401E80B2E085002846D159
:103870002068C06820F020002168C8602068C06807
:1038800020F480702168C8602068406920F0010041
:1038900021684861202084F8420000206063206B8A
:1038A000012826D10020206300BF00BF21680C3111
:1038B00051E8001F21F0100021680C3141E800029E
:1038C000002AF3D100BF2068006800F01000102823
:1038D0000AD100BF00200090206800680090206896
:1038E0004068009000BF00BFA18D2046FEF79AFE01
:1038F00002E02046FFF792F80020F8BD01E000202A
:10390000FBE70220F9E7000070B504462168096969
:1039100021F44051E2681143226811612269A168D3
:103920001143626941EA02052168C96841F20C62EB
:10393000914329432268D1602168496921F440718B
:10394000A2691143226851612D4A2168914202D136
:10395000FDF7E2FB01E0FDF7CFFB00EBC00101EB5F
:10396000001162689200B1FBF2F100EBC00202EBC1
:10397000001263689B00B2FBF3F26423B2FBF3F224
:1039800002EBC20303EB0212A1EB8201322202EB33
:1039900001116422B1FBF2F101F0F00100EBC00271
:1039A00002EB001263689B00B2FBF3F26423B2FBEC
:1039B000F3F201EB021200EBC00101EB00116368AE
:1039C0009B00B1FBF3F100EBC00303EB001366684F
:1039D000B600B3FBF6F36426B3FBF6F303EBC306C2
:1039E00006EB0313A1EB8301322303EB01116423E4
:1039F000B1FBF3F101F00F0111442268916070BD39
:103A000000380140014691F84100212828D18868FA
:103A1000B0F5805F0BD1086948B90A6A1088C0F315
:103A200008000B685860086A801C086205E00B6A91
:103A3000581C086218780B685860C88C401E80B209
:103A4000C88458B90868C06820F080000B68D86046
:103A50000868C06840F040000B68D86000207047DC
:103A60000220FCE710B50248FEF7DEFD10BD0000A5
:103A7000CC08002000BFFEE702480068C0F3022027
:103A8000704700000CED00E010B5002804DB0A07C9
:103A9000130E054A135406E00A07140E034A00F0F9
:103AA0000F031B1FD45410BD00E400E018ED00E02C
:103AB000FDF7A6F8FFF71EFCFFF72CF8FEF7B2FFA4
:103AC000FFF786F8FFF7A6F8FFF780F9FFF746F94A
:103AD000FFF7F0F80C210848FEF7F2FC0821074830
:103AE000FEF7A4FA0648FEF7A7F8FEF7C7FF00F0B6
:103AF0001CF800BFFEE700003C080020F40700208F
:103B00008408002001460020842901D0CA1C1044EA
:103B1000704770B5044625460DB1294600E00121E5
:103B2000084601F04FF8002070BD10B501F03EF9D5
:103B3000002010BD7FB504460D46606998B1A069AC
:103B400088B1B4F90800FFF7DDFF0646D4E9051097
:103B5000CDE9006102902B462269D4E9001001F002
:103B600085FD039013E0B4F90800FFF7CBFF06468C
:103B700003A8CDE90060238A9AB22B46D4E900104D
:103B800001F042FD012802D0002004B070BD03986E
:103B9000FBE700007CB504460D461646606878B128
:103BA000D4E90001CDE90001012D01D1012000E09F
:103BB000002002463346012108A002F050F87CBDE7
:103BC00020680090012D01D1012000E00020024674
:103BD0003346012101A002F027F8F0E700000000C1
:103BE0002DE9F04105460E461C4807681C48006850
:103BF000001D00F05FFE50B91948006890F82C10C5
:103C00000120884017490968814316480160681CF3
:103C100038B936B112480168091D134800F0A0FEFA
:103C20001AE07C190E4800684460BC4207D20C4878
:103C30000168091D0D48006800F078FE0CE0084896
:103C40000168091D0A48006800F070FE0948006814
:103C5000844201D207480460BDE8F0815C00002086
:103C60004800002060000020780A0020500000205A
:103C70004C0000207800002010B5044600F07CFEC7
:103C800023480068401C224908602248006840B967
:103C9000204804600846006801280DD100F020FA91
:103CA0000AE01D48006838B91A480068C06AE16A2D
:103CB000884201D81748046018480068401C17491A
:103CC000086094F82C1001208840154909680843C1
:103CD00013490860E16A01EB8101124A02EB81009D
:103CE000211D00F03DFE00F071FE0B48006868B138
:103CF00008480068C06AE16A884207D24FF08050E5
:103D000009490860BFF34F8FBFF36F8F10BD0000EC
:103D100058000020480000206400002074000020AB
:103D2000600000209C09002004ED00E008B500F0D0
:103D300023FE12480068E8B9114800F0E7FD114879
:103D400000F0E4FD0E48104908600E480F49086075
:103D500000200F4B0F4A0C2100900A2001F04CF973
:103D6000064908600846006820B10BA103480068B6
:103D700000F0ECFE00F02AFE08BD00008C000020E0
:103D80008C0A0020A00A0020840000208800002067
:103D9000B40A0020FC0A0020546D7251000000009B
:103DA00010B516E000F0E8FD0C48C068C468201D9E
:103DB00000F080FD0A480068401E09490860094873
:103DC0000068401E0749086000F000FE204600F031
:103DD0005FF8044800680028E4D110BD640A0020A0
:103DE000580000205400002070B504460D46206C99
:103DF00070B1216CE0680144E160D4E902108842AE
:103E000001D32168E1602846226CE168FCF728FABA
:103E100070BD2DE9F04104460F4615464FF00008ED
:103E2000A66B206C48B9206800282CD1A06801F04E
:103E3000C9FD80460020A06025E07DB93946226C8E
:103E40006068FCF70DFA216C606808446060D4E992
:103E50000101884217D32068606014E03946226C63
:103E6000E068FCF7FDF9216CE068411AE160216827
:103E7000E068884203D2216CA068411AE160022DFB
:103E800001D106B1761E701CA0634046BDE8F081EA
:103E900010B5044694F8510030B9206B00F0B4FD21
:103EA000204600F0B1FD1AE094F85100012803D13A
:103EB000204600F0A9FD12E094F85100022801D13B
:103EC000012000E0002050B900BF502080F311888D
:103ED000BFF34F8FBFF36F8F00BF00BFFEE710BD72
:103EE0000146084A126812680AB9012200E000225D
:103EF0000A600A6822B9034A1268D268106800E0B2
:103F0000002070478400002030B54FF4406317480C
:103F100000F007042CB1C01D20F00700134C041B57
:103F20001B1B0246124C22600024114D6C60D018FD
:103F3000083820F007000F4C206000240D4D2D683C
:103F40006C600C4D2D682C601146441A4C60094C75
:103F500024680C60084D4C682C60084D4C682C603F
:103F60004FF00044064D2C6030BD0000740B002063
:103F700098000020A0000020A8000020A40000203D
:103F8000B400002000BFFFF70BFF064800680128BF
:103F9000F9D94FF0805004490860BFF34F8FBFF349
:103FA0006F8FF0E79C09002004ED00E02DE9F0415F
:103FB00006460D4617469846069C0DB9246000E05B
:103FC0002760E66325640121204601F085F8BDE8FD
:103FD000F0812DE9FF5F81460E469246DDE90E7BBA
:103FE000109CAAF10100216B01EB800828F0070862
:103FF00008F0070008B9012000E0002050B900BF18
:10400000502080F31188BFF34F8FBFF36F8F00BF35
:1040100000BFFEE786B1002507E0715D04F13400C2
:104020004155705D00B902E06D1C102DF5D300BF45
:1040300000214320015502E0002084F83400072FBE
:1040400000D30627E76267640020A064201D00F00B
:104050006AFC04F1180000F066FC2461C7F1070057
:10406000A06164620020E06484F850004946404644
:10407000039A00F089FB2060BBF1000F01D0CBF860
:104080000040BDE8FF9F2DE9F04706460D46174664
:104090009846DDE908940DB1012000E0002050B9F8
:1040A00000BF502080F31188BFF34F8FBFF36F8F95
:1040B00000BF00BFFEE78CB1FFF738FE2660A561A8
:1040C000C4F81C80C4F82090201D00F02CFC2FB1F7
:1040D00094F8240040F0040084F82400BDE8F08740
:1040E00010B5002407E004EB84010F4A02EB8100C5
:1040F00000F00CFC641C072CF5D30C4800F006FC07
:104100000B4800F003FC0B4800F000FC0A4800F0EC
:10411000FDFB0A4800F0FAFB04480949086004481E
:104120000849086010BD00009C090020280A0020F2
:104130003C0A0020500A0020640A0020780A00206F
:104140004C0000205000002010B50146164800E049
:10415000006803688B42FBD30246436813448B42DA
:1041600004D143684C682344436001460A464B68C7
:1041700013440468A34211D10C4C03682468A34281
:1041800008D04B680468646823444B6003681B686C
:104190000B6005E0054B1B680B6001E003680B60DA
:1041A000884200D0016010BD98000020A0000020CF
:1041B0002DE9F04104460D4616461F464FF0000813
:1041C00065602461B5420CD8F01BA169884202D316
:1041D0004FF0010811E0211D0948006800F0A6FB1E
:1041E0000BE0BE4204D2BD4202D34FF0010804E00E
:1041F000211D0448006800F099FB4046BDE8F081AD
:10420000880000208400002070B5054600F0B4FB53
:10421000A86B08B9012400E0002400F0D7FB204679
:1042200070BD70B5054600F0A7FBA86BE96B88422E
:1042300001D1012400E0002400F0C8FB204670BD3D
:10424000F8B505460F461A480068C068C468201DC6
:1042500000F030FB94F8240000F00400E8B1A069FD
:1042600041192B463A462046FFF7A2FFD8B100205D
:1042700003462A4601460090204601F065FD0646A9
:1042800056B900BF502080F31188BFF34F8FBFF3A2
:104290006F8F00BF00BFFEE705E094F8240020F018
:1042A000010084F824002046216A8847F8BD0000F8
:1042B0008400002070B586B08BE003980028FBDBFB
:1042C000059C606908B9012000E0002010B9201D9C
:1042D00000F0F0FA02A800F0DDF8054603980A287D
:1042E00075D2DFE800F009050739416306083A4254
:1042F00000BF00BF00BF00BF94F8240040F00100E1
:1043000084F824000498A269811803462A462046AE
:10431000FFF74EFFF8B12046216A884794F8240041
:1043200000F00400B8B1002000900498A169421880
:1043300000231946204601F007FD064656B900BF86
:10434000502080F31188BFF34F8FBFF36F8F00BFF2
:1043500000BFFEE700BF3BE000BF94F8240020F060
:10436000010084F8240033E000BF94F8240040F0FA
:10437000010084F824000498A061A06908B101201C
:1043800000E0002050B900BF502080F31188BFF337
:104390004F8FBFF36F8F00BF00BFFEE7A0694119C9
:1043A0002B462A462046FFF703FF11E094F824002D
:1043B00000F0020018B9204600F026FB05E094F852
:1043C000240020F0010084F8240001E0FFE700BF92
:1043D00000BF002203A90448006801F01BF8002870
:1043E0007FF46BAF06B070BD8C000020F8B50546B9
:1043F0000C4600F037FD684600F04CF80646009881
:1044000020BB44B9B54206D801F08CFB31462846A2
:10441000FFF716FF1CE03CB10E480068006808B9C1
:10442000012000E000200446A91B22460A4800683B
:1044300000F0A2FB01F076FB50B94FF08050074925
:104440000860BFF34F8FBFF36F8F01E001F06AFB8D
:10445000F8BD0000880000208C00002004ED00E082
:104460000A490968096809B9012100E0002121B160
:104470004FF0FF31064A116006E004490968C96837
:10448000C868034A41681160704700004C00002072
:104490007800002070B5044601F0EAF905460748A7
:1044A0000068854204D200F00BF80120206001E092
:1044B0000020206001480560284670BD940000205F
:1044C0002DE9F84334E025480068C06805682348B2
:1044D0000068C068C468201D00F0ECF92046216A1D
:1044E000884794F8240000F0040008B3A069461936
:1044F000AE4207D966602461211D1848006800F0AB
:1045000015FA15E0002003462A4601460090204691
:1045100001F01AFC074657B900BF502080F31188FC
:10452000BFF34F8FBFF36F8F00BF00BFFEE700BF29
:104530000A480068006808B9012000E0002000284F
:10454000C1D00648D0F800800548006803490860DB
:104550000348C0F80080BDE8F88300008400002014
:10456000880000200E480068401C08B9012000E0C7
:10457000002050B900BF502080F31188BFF34F8F47
:10458000BFF36F8F00BF00BFFEE700BF502080F376
:104590001188BFF34F8FBFF36F8F00BF00BFFEE7DF
:1045A000B800002008B500BF6846FFF799FC044634
:1045B00020460099FFF71AFFFFF77CFEF4E770B57D
:1045C000044600F0D9F994F9455010E0606A08B942
:1045D000012000E0002038B904F1240001F056FA6F
:1045E00018B100F029FB00E003E0681E45B2002D81
:1045F000ECDC00BFFF2084F8450000F0E7F900F094
:10460000BBF994F9445010E0206908B9012000E09A
:10461000002048B904F1100001F038FA08B100F0A8
:104620000BFB681E45B200E001E0002DECDC00BF92
:10463000FF2084F8440000F0C9F970BD2DE9F04175
:1046400004464FF0000800F00DFC4948006808B926
:10465000FFF75AFC474800682040002870D1D4B1C9
:10466000083404F00700B0B104F00700C0F10800FE
:10467000044404F0070008B9012000E0002050B90C
:1046800000BF502080F31188BFF34F8FBFF36F8FAF
:1046900000BF00BFFEE7002C52D0374800688442BC
:1046A0004ED8364E3046056801E02E462D686868C3
:1046B000A04202D228680028F7D12D480068854220
:1046C0003ED0306800F10808286830606868001B38
:1046D000102819D92F1907F0070008B9012000E0A8
:1046E000002050B900BF502080F31188BFF34F8FD6
:1046F000BFF36F8F00BF00BFFEE76868001B7860E4
:104700006C603846FFF720FD1B4968680968081A85
:10471000194908600846006819490968884203D2A7
:104720001548006816490860124968680968084316
:1047300068600020286013480068401C1149086028
:1047400001F0F0F908F0070008B9012000E00020AE
:1047500050B900BF502080F31188BFF34F8FBFF3D3
:104760006F8F00BF00BFFEE74046BDE8F08100004C
:10477000A0000020B4000020A40000209800002029
:10478000A8000020AC000020001F4FF080730360E1
:10479000001F21F001030360001F034B0360143866
:1047A0000260203870470000654500082DE9F04D93
:1047B00007460E4601F0FCFE04460D463A463346D7
:1047C00001F050FFDFF86CA0DFF86CB01B4B074620
:1047D000884616F0004F4FF000020AD001F078FD35
:1047E0000AD900225B463846414601F0ABFE1BD297
:1047F00012E001F06DFD08D2002253462046294602
:1048000001F03CFF04460D460EE000225B463846B0
:10481000414601F097FE07D800225346204629461C
:1048200001F006FB04460D463146204665F31E01A5
:10483000BDE8F08D0000F03F0000E03F0000E0BF69
:1048400070B506460D4600F097F818480068C06C31
:1048500088B901201549096881F850005DB101212E
:104860002846FFF7BDF94FF0805011490860BFF3AB
:104870004F8FBFF36F8F00F0A9F800F07DF80B4861
:104880000068C46C4CB126B1002008490968C864AE
:1048900003E0601E05490968C864002003490968EF
:1048A00081F8500000F092F8204670BD48000020CA
:1048B00004ED00E001460A69D1E901309860D1E9D0
:1048C000010358605068884201D188685060002018
:1048D00008611068401E106010687047034B036049
:1048E000034B0B608023136070470000C40000205E
:1048F00018010020034B0360034B0B604FF48073DF
:1049000013607047180300206C03002000F10801B9
:1049100041604FF0FF31816000F10801C160016129
:1049200000210160704700210161704710B5024607
:104930000B685C1C0CB9106907E002F1080000E08C
:104940004068446824689C42FAD944684C604C68CA
:10495000A160886041600A611468641C146010BD25
:1049600042684A6093688B609368596091600861FF
:1049700003685B1C0360704700BF502080F3118800
:10498000BFF34F8FBFF36F8F00BF0E480068401C0E
:104990000C49086008460068012812D10A480068DE
:1049A000C0B208B9012000E0002050B900BF50207B
:1049B00080F31188BFF34F8FBFF36F8F00BF00BF2D
:1049C000FEE77047B800002004ED00E00D480068E5
:1049D00050B900BF502080F31188BFF34F8FBFF351
:1049E0006F8F00BF00BFFEE706480068401E054904
:1049F00008600846006820B9002080F3118800BFD5
:104A000000BF7047B800002070B506463546002E3E
:104A100044D0083D2C46224960680968084008B126
:104A2000012000E0002050B900BF502080F3118821
:104A3000BFF34F8FBFF36F8F00BF00BFFEE720684B
:104A400008B9012000E0002050B900BF502080F3D9
:104A50001188BFF34F8FBFF36F8F00BF00BFFEE71A
:104A60000F49606809680840C0B12068B0B90C49B6
:104A7000606809688843606000F0F4F9094960687B
:104A800009680844074908602046FFF75DFB0648AF
:104A90000068401C0449086001F044F870BD000043
:104AA000B4000020A4000020B000002000204FF03F
:104AB000E02108618861064800684FF47A71B0FB14
:104AC000F1F0401E4FF0E021486107200861704777
:104AD0004400002070B5FBF79FFB0446102C16D352
:104AE00004F1E02090F8F05315480078854201DB8E
:104AF000012000E0002050B900BF502080F3118851
:104B0000BFF34F8FBFF36F8F00BF00BFFEE70D48AD
:104B1000006800F4E0600C490968884201D801206F
:104B200000E0002050B900BF502080F31188BFF38F
:104B30004F8FBFF36F8F00BF00BFFEE770BD000057
:104B4000BC0000200CED00E0C00000200246002068
:104B50000BE0084B53F8303033B9064B43F83010B4
:104B600003EBC0035A6002E0401C0828F1D300BFE9
:104B7000704700005C0900202DE9F04105460E4613
:104B800017462C46FFF7F8FE94F94400401C10B974
:104B9000002084F8440094F94500401C10B900201E
:104BA00084F84500FFF712FFA06B28B93A4631465A
:104BB00004F1240000F0DAF82046FFF700FDBDE81C
:104BC000F081000070B504460025D4B11248006899
:104BD00008B9012000E0002050B900BF502080F348
:104BE0001188BFF34F8FBFF36F8F00BF00BFFEE789
:104BF00000F038F900212046FEF7F2FF00F092FFA6
:104C000005463DB94FF0805004490860BFF34F8F0F
:104C1000BFF36F8F70BD00008000002004ED00E046
:104C20000349096801600349096841607047000051
:104C3000700000205C0000200120014908607047DE
:104C40006C0000202DE9F04105460F4655B900BF24
:104C5000502080F31188BFF34F8FBFF36F8F00BFD9
:104C600000BFFEE7FFF736FF2C4600BF5021EFF3F1
:104C7000118081F31188BFF34F8FBFF36F8F00BF97
:104C8000064694F85080022084F85000E06C401CE6
:104C9000E064B8F1010F3AD1A06A08B9012000E040
:104CA000002050B900BF502080F31188BFF34F8F10
:104CB000BFF36F8F00BF00BFFEE718480068A8B9B8
:104CC000201DFFF7F7FD94F82C10012088401449AF
:104CD0000968084312490860E16A01EB8101114A41
:104CE00002EB8100211DFFF73BFE04E004F11801F7
:104CF0000D48FFF735FE0D49E06A0968C96A884228
:104D000005D90FB10120386001200949086000BFB2
:104D100086F3118800BFBDE8F0810000800000200C
:104D2000600000209C090020500A0020480000205C
:104D30006C00002070B504460D4654B900BF5020E9
:104D400080F31188BFF34F8FBFF36F8F00BF00BF99
:104D5000FEE70548016818312046FFF7E7FD01210D
:104D60002846FEF73DFF70BD4800002070B505469F
:104D70000E46144655B900BF502080F31188BFF38A
:104D80004F8FBFF36F8F00BF00BFFEE7064801687B
:104D900018312846FFF7E4FD0CB14FF0FF362146ED
:104DA0003046FEF71DFF70BD4800002010B586B0EC
:104DB00000200590049003AA04A905A8FFF78EFD22
:104DC0000022DDE904101346CDE9002102901EA166
:104DD0001F48039A00F04AFC1E4908600846006814
:104DE00008B1012400E00024012C02D100F070FF82
:104DF0000446012C15D100BF502080F31188BFF369
:104E00004F8FBFF36F8F00BF4FF0FF301249086024
:104E100001201249086000201149086000F070F874
:104E200010E0601C08B1012000E0002050B900BF74
:104E3000502080F31188BFF34F8FBFF36F8F00BFF7
:104E400000BFFEE706B010BD49444C45000000001D
:104E5000853F00087C0000207800002064000020CE
:104E60005C00002002480068401C0149086070474F
:104E7000800000201D48006818B101201C4908600E
:104E800032E000201A4908601A480068B0FA80F041
:104E9000C0F11F0101EB8100174A52F8200008B150
:104EA000012000E0002050B900BF502080F311889D
:104EB000BFF34F8FBFF36F8F00BF00BFFEE701EB63
:104EC00081020D4B03EB820042685268426000F1A0
:104ED00008024368934202D14268526842604268C5
:104EE000D268064B1A6000BF7047000080000020A7
:104EF0006C000020600000209C0900204800002079
:104F00001CB53849084600780190FF200A46107009
:104F10000846007800909DF8000000F0F0009DF831
:104F20000020904201D1012000E0002050B900BFD4
:104F3000502080F31188BFF34F8FBFF36F8F00BFF6
:104F400000BFFEE79DF8000000F05000264A1070F8
:104F50000720264A106009E024480068401E234AC2
:104F600010609DF800004006000E00909DF80000C3
:104F700000F080008028EFD01C480068C0F10700D6
:104F8000042801D1012000E0002050B900BF5020CA
:104F900080F31188BFF34F8FBFF36F8F00BF00BF47
:104FA000FEE7124800680002104A106010460088B0
:104FB00000F4E06010600B4A019810700C48006823
:104FC00040F470000A4908600846006840F07040EC
:104FD0000860FFF76BFD002006490860FBF7E6F864
:104FE00000201CBD00E400E0BC000020C000002048
:104FF00020ED00E0B80000202DE9F84380460E4681
:1050000017461D46DDF82090B8F1000F01D00120B1
:1050100000E0002050B900BF502080F31188BFF39A
:105020004F8FBFF36F8F00BF00BFFEE70DB10120B0
:1050300000E0002050B900BF502080F31188BFF37A
:105040004F8FBFF36F8F00BF00BFFEE707B10EB1F8
:10505000012000E0002050B900BF502080F31188EB
:10506000BFF34F8FBFF36F8F00BF00BFFEE707B9DD
:105070000EB9012000E0002050B900BF502080F39D
:105080001188BFF34F8FBFF36F8F00BF00BFFEE7E4
:10509000482000900098482801D1012000E000201D
:1050A00050B900BF502080F31188BFF34F8FBFF37A
:1050B0006F8F00BF00BFFEE700BF2C464CB1012040
:1050C00084F846004B463A46314640460094FEF787
:1050D0006DFF2046BDE8F88370B505460E462C46A8
:1050E00054B900BF502080F31188BFF34F8FBFF336
:1050F0006F8F00BF00BFFEE7FFF73EFCD4E90F1241
:10510000206801FB0200A0600020A06320686060AE
:10511000E06B401E226C216800FB0211E160FF2061
:1051200084F8440084F845009EB9206908B901203C
:1051300000E00020A8B904F1100000F0A7FC80B145
:105140004FF0805009490860BFF34F8FBFF36F8F56
:1051500007E004F11000FFF7D9FB04F12400FFF78A
:10516000D5FBFFF733FC012070BD000004ED00E02B
:105170002DE9FF4383B0064688461D464FF00009DF
:10518000344654B900BF502080F31188BFF34F8FCD
:10519000BFF36F8F00BF00BFFEE7B8F1000F01D172
:1051A000206C08B9012000E0002050B900BF502059
:1051B00080F31188BFF34F8FBFF36F8F00BF00BF25
:1051C000FEE7022D02D1E06B012801D1012000E0B1
:1051D000002050B900BF502080F31188BFF34F8FDB
:1051E000BFF36F8F00BF00BFFEE700F031FB08B9CF
:1051F000059808B9012000E0002050B900BF5020F8
:1052000080F31188BFF34F8FBFF36F8F00BF00BFD4
:10521000FEE700BFFFF7B0FBA06BE16B884201D354
:10522000022D28D12A4641462046FEF7F2FD0746C8
:10523000606A08B9012000E0002068B904F1240088
:1052400000F024FC88B14FF0805032490860BFF371
:105250004F8FBFF36F8F08E03FB14FF080502D4963
:105260000860BFF34F8FBFF36F8FFFF7AFFB0120D5
:1052700007B0BDE8F083059818B9FFF7A7FB002039
:10528000F6E7B9F1000F04D101A8FFF7C9FC4FF010
:105290000109FFF79BFBFFF7E5FDFFF76DFB94F9B5
:1052A0004400401C10B9002084F8440094F94500E3
:1052B000401C10B9002084F84500FFF787FB05A9C2
:1052C00001A800F05BF9F0B92046FEF7AAFFA0B1F3
:1052D00004F110000599FFF72DFD2046FFF76FF947
:1052E00000F020FC002895D14FF08050094908605B
:1052F000BFF34F8FBFF36F8F8CE72046FFF75FF947
:1053000000F010FC86E72046FFF759F900F00AFC90
:105310000020ADE704ED00E02DE9F84F07468A468E
:1053200090461E463C4654B900BF502080F3118879
:10533000BFF34F8FBFF36F8F00BF00BFFEE7BAF11F
:10534000000F01D1206C08B9012000E0002050B905
:1053500000BF502080F31188BFF34F8FBFF36F8FD2
:1053600000BF00BFFEE7022E02D1E06B012801D191
:10537000012000E0002050B900BF502080F31188C8
:10538000BFF34F8FBFF36F8F00BF00BFFEE7FFF784
:10539000A1FB00BF5021EFF3118081F31188BFF30F
:1053A0004F8FBFF36F8F00BF0546A06BE16B884244
:1053B00001D3022E25D194F945B0A06B009032465E
:1053C00051462046FEF725FD0BF1010088B9606AC1
:1053D00008B9012000E0002050B904F1240000F0D9
:1053E00055FB28B1B8F1000F02D00120C8F8000029
:1053F00004E00BF1010040B284F845004FF00109D0
:1054000001E04FF0000900BF85F3118800BF484656
:10541000BDE8F88F2DE9F74183B005460E464FF001
:1054200000082C4654B900BF502080F31188BFF308
:105430004F8FBFF36F8F00BF00BFFEE70EB9206C28
:1054400008B9012000E0002050B900BF502080F3CF
:105450001188BFF34F8FBFF36F8F00BF00BFFEE710
:1054600000F0F6F908B9059808B9012000E000201D
:1054700050B900BF502080F31188BFF34F8FBFF3A6
:105480006F8F00BF00BFFEE700BFFFF775FAA76B85
:10549000F7B131462046FEF7A7FC781EA0632069CD
:1054A00008B9012000E0002060B904F1100000F00C
:1054B000EDFA38B14FF080502F490860BFF34F8F9D
:1054C000BFF36F8FFFF782FA012006B0BDE8F081CD
:1054D000059818B9FFF77AFA0020F6E7B8F1000F3F
:1054E00004D101A8FFF79CFB4FF00108FFF76EFA0B
:1054F000FFF7B8FCFFF740FA94F94400401C10B9DC
:10550000002084F8440094F94500401C10B90020A4
:1055100084F84500FFF75AFA05A901A800F02EF813
:10552000F0B92046FEF770FEA0B104F12400059901
:10553000FFF700FC2046FFF742F800F0F3FA0028DE
:10554000A3D14FF080500C490860BFF34F8FBFF3D9
:105550006F8F9AE72046FFF732F800F0E3FA94E7FE
:105560002046FFF72CF800F0DDFA2046FEF74CFE4F
:1055700000288AD00020A8E704ED00E070B50546B9
:105580000C4655B900BF502080F31188BFF34F8FF0
:10559000BFF36F8F00BF00BFFEE754B900BF5020BC
:1055A00080F31188BFF34F8FBFF36F8F00BF00BF31
:1055B000FEE7FFF7E1F9124802686868131A2068ED
:1055C000401C08B9002617E00E492868096888427F
:1055D00004D06868904201D801260DE02068984206
:1055E00007D92068C01A20602846FFF719FB00265B
:1055F00002E0002020600126FFF7E8F9304670BD88
:105600005C000020700000202DE9FF4F85B080462F
:1056100089461746DDE912ABB800FFF70FF80646DA
:1056200056B15420FFF70AF804460CB1266304E093
:105630003046FFF7E9F900E000248CB1002084F83F
:105640005100CDE900ABCDE902403A46494640461B
:10565000089BFEF7BEFC2046FEF70EFB012501E08D
:105660004FF0FF35284609B0BDE8F08F2DE9F04F27
:1056700085B00746884691469A46DDE90EB6109CED
:105680000EB1012000E0002050B900BF502080F38F
:105690001188BFF34F8FBFF36F8F00BF00BFFEE7CE
:1056A0000CB1012000E0002050B900BF502080F371
:1056B0001188BFF34F8FBFF36F8F00BF00BFFEE7AE
:1056C000542003900398542801D1012000E00020C9
:1056D00050B900BF502080F31188BFF34F8FBFF344
:1056E0006F8F00BF00BFFEE700BFB4B1AEB125466B
:1056F0002C462E63022085F85100002004A9534651
:105700004A46CDE900B1CDE9025041463846FEF7A0
:1057100060FC2846FEF7B0FA01E0002004900498EF
:1057200005B0BDE8F08F00002DE9F04706460D46B4
:10573000174698464FF0010A56B900BF502080F333
:105740001188BFF34F8FBFF36F8F00BF00BFFEE71D
:105750003446FFF711F9B8F1000F02D0E06CC8F839
:10576000000094F85090022084F85000052F17D2C2
:10577000DFE807F01503070B0D00E06C2843E06439
:1057800021E0E06C401CE0641DE0E5641BE0B9F141
:10579000020F01D0E56401E04FF0000A13E012E0CF
:1057A000E06C401C08B9012000E0002050B900BFA7
:1057B000502080F31188BFF34F8FBFF36F8F00BF6E
:1057C00000BFFEE700BF00BFB9F1010F33D1201DBC
:1057D000FFF770F894F82C100120884018490968E8
:1057E000084317490860E16A01EB8101154A02EBA1
:1057F0008100211DFFF7B4F8A06A08B9012000E07C
:10580000002050B900BF502080F31188BFF34F8FA4
:10581000BFF36F8F00BF00BFFEE70B49E06A096866
:10582000C96A884207D94FF0805008490860BFF321
:105830004F8FBFF36F8FFFF7C9F85046BDE8F08771
:10584000600000209C0900204800002004ED00E0DA
:105850000549096809B9012005E00449096809B941
:10586000022000E00020704764000020800000203B
:1058700001490868704700005C0000202DE9F041F4
:105880004FF000084448006800287CD14348006875
:10589000451C4248056015BB41480068006808B9CE
:1058A000012000E0002050B900BF502080F3118893
:1058B000BFF34F8FBFF36F8F00BF00BFFEE73848C5
:1058C0000768384800683649086036480760364837
:1058D0000068401C34490860FEF7C2FD00BF334831
:1058E000006885423CD300BF2D480068006808B9B5
:1058F000012000E0002020B14FF0FF302B4908606C
:105900002DE027480068C068C4686668B54202D2C6
:105910002648066023E0201DFEF7CCFFA06A18B1E0
:1059200004F11800FEF7C6FF94F82C1001208840FF
:105930001F49096808431E490860E16A01EB8101BB
:105940001C4A02EB8100211DFFF70AF81A49E06AA0
:105950000968C96A8842C7D34FF00108C4E700BF8D
:1059600015480068C06A00EB8000124951F8200019
:10597000012801D94FF001081048006808B14FF024
:10598000010805E0FFE70E480068401C0C4908606C
:105990004046BDE8F0810000800000205C0000204F
:1059A0004C000020500000207000002078000020F3
:1059B000600000209C090020480000206C000020AE
:1059C0006800002070B505462C460026002D55D0F5
:1059D0002B480068844201D1012000E0002050B92A
:1059E00000BF502080F31188BFF34F8FBFF36F8F3C
:1059F00000BF00BFFEE7A06C50B900BF502080F38D
:105A00001188BFF34F8FBFF36F8F00BF00BFFEE75A
:105A1000A06C401EA064616CE06A88422ED0A06C2D
:105A200060BB201DFEF746FF78B9E06A00EB8000FE
:105A3000144951F8200040B994F82C1001208840F6
:105A400011490968814310480160606CE062E06AB6
:105A5000C0F10700A06194F82C10012088400A4989
:105A60000968084308490860E16A01EB8101054AB9
:105A700002EB8100211DFEF773FF0126304670BD49
:105A8000480000209C0900206000002070B50646F8
:105A9000F068C46854B900BF502080F31188BFF388
:105AA0004F8FBFF36F8F00BF00BFFEE704F11800F8
:105AB000FEF700FF15480068A8B9201DFEF7FAFEA2
:105AC00094F82C10012088401149096808431049B6
:105AD0000860E16A01EB81010E4A02EB8100211DA1
