:020000040800F2
:10000000A85400241D001008692F0008992F10081B
:10001000AD32100861051008A73B10080000000071
:100020000000000000000000000000002D03000898
:100030005D0C000800000000890300081535000869
:100040003700100837001008370010083700100874
:100050003700100837001008370010083700100864
:100060003700100837001008370010083700100854
:100070003700100837001008370010083700100844
:100080003700100837001008370010083700100834
:100090003700100837001008370010083700100824
:1000A00037001008B9361008370010083D35000831
:1000B0004D350008C93610085D35000837001008B6
:1000C00037001008370010083700100837001008F4
:1000D00037001008370010083700100837001008E4
:1000E0003700100837001008000000003700100823
:1000F0007D35000837001008E93610083700100871
:1001000037001008370010083700100837001008B3
:100110005D39100837001008D93610086D35000811
:100120003700100837001008370010083700100893
:100130003700100837001008370010083700100883
:1001400000000000000000000000000000000000AF
:100150003700100837001008370010083700100863
:100160003700100837001008370010083700100853
:100170003700100837001008370010080000000092
:100180003700100837001008370010083700100833
:100190003700100837001008370010083700100823
:1001A0003700100837001008370010083700100813
:1001B0003700100837001008370010083700100803
:1001C00037001008370010083700100837001008F3
:1001D00037001008370010083700100837001008E3
:1001E00037001008370010083700100837001008D3
:1001F00037001008370010083700100837001008C3
:1002000037001008370010083700100837001008B2
:100210002D35000837001008A936100837001008DF
:1002200037001008370010083700100800000000E1
:1002300037001008370010080000000037001008D1
:100240003700100837001008370010083700100872
:100250003700100837001008370010083700100862
:100260003700100837001008370010083700100852
:100270003700100837001008370010080000000091
:100280003700100837001008370010080000000081
:10029000000000003700100800F002F800F036F807
:1002A0000AA090E8000C82448344AAF10107DA45D1
:1002B00001D100F02BF8AFF2090EBAE80F0013F0ED
:1002C000010F18BFFB1A43F001031847444F000009
:1002D000644F0000103A24BF78C878C1FAD852079A
:1002E00024BF30C830C144BF04680C6070470000B0
:1002F0000023002400250026103A28BF78C1FBD82F
:10030000520728BF30C148BF0B60704700F135F875
:100310001146FFF075FE03F0F5FC00F0E7FA03B4B8
:10032000FFF078FE03BC00F19FF800002C4B196829
:100330000868B0E8F04F80F30988BFF36F8F4FF083
:10034000000080F311887047000000000848006832
:10035000006880F308884FF0000080F3148862B6CC
:1003600061B6BFF34F8FBFF36F8F00DF00BF00BFD9
:1003700008ED00E0DFF80C00016841F47001016055
:10038000704700BF88ED00E0EFF30980BFF36F8F87
:10039000134B1A681EF0100F08BF20ED108A20E9D9
:1003A000F04F106009B44FF0500080F31188BFF394
:1003B0004F8FBFF36F8F04F0DDF94FF0000080F333
:1003C000118809BC19680868B0E8F04F1EF0100FDA
:1003D00008BFB0EC108A80F30988BFF36F8F7047B5
:1003E00088000024EFF30580704700000FB4044933
:1003F00010B503AA0298FFF0DBFE10BC5DF814FBF9
:100400009C4D0024032A40F2308010F0030C00F0D1
:10041000158011F8013BBCF1020F624498BF11F83E
:1004200001CB00F8013B38BF11F8013BA2F10402F7
:1004300098BF00F801CB38BF00F8013B11F003036F
:1004400000F02580083AC0F0088051F8043B083AD3
:1004500051F804CBA0E80810F5E7121D5CBF51F875
:10046000043B40F8043BAFF30080D20724BF11F8EF
:10047000013B11F801CB48BF11F8012B24BF00F854
:10048000013B00F801CB48BF00F8012B704710B5C5
:10049000203AC0F00B80B1E81850203AA0E818507C
:1004A000B1E81850A0E81850BFF4F5AF5FEA027C3D
:1004B00024BFB1E81850A0E8185044BF18C918C0AC
:1004C000BDE810405FEA827C24BF51F8043B40F84D
:1004D000043B08BF7047D20728BF31F8023B48BF32
:1004E00011F8012B28BF20F8023B48BF00F8012B70
:1004F00070474FF000020429C0F0128010F0030C86
:1005000000F0AA83CCF1040CBCF1020F18BF00F874
:10051000012BA8BF20F8022BA1EB0C01FFF01FBE9E
:100520005FEAC17C24BF00F8012B00F8012B48BF13
:1005300000F8012B7047000001694A1C026108782D
:10054000704700B58FB0CDE9013100210591054913
:100550007944CDE903101146684600F02CF80FB03D
:1005600000BD0000E5FFFFFF70B50446051F00F069
:10057000D3F90068002C14BF446870BD002C18BF6C
:10058000AC423CBF20466468F8D301680A18AA420E
:1005900018BF456003D12A680546114401602868E8
:1005A0004119A1421CBF6C6070BD6168696021681F
:1005B0000844286070BD2DE9F04106460024D6E9C4
:1005C0000170F5688046304603E04146B847641C38
:1005D0003046A8470028F8D12046BDE8F0812DE933
:1005E000F04705460C46C86820F4201040F480000F
:1005F000C860800602D5084600F0ADFAE06841F216
:1006000082014FF0FF390140022903D0204600F05B
:100610004BFAB5E000F42041B1F5004F0FD1C00313
:1006200006D56168E06A884200D80846606006E046
:100630002069E06260606069FFF099FEA061A068D7
:100640000022EEB200280DDAE1688B050AD4C0431F
:10065000A06041F490302260E0606068411C6160FD
:100660000670A5E0E0689046226040F40050E0602B
:10067000206968BB6069FFF06CFE012704F1240566
:10068000A0B1A08910F4407F08D0E069FFF0BDFE62
:10069000206118B1E06840F4006016E0E761256170
:1006A000E06820F4407040F480600EE0E069FFF004
:1006B000ACFE00282061F1D0E06840F4006010F446
:1006C000407FE06002D140F48070E06020696060AB
:1006D000E06825696FF0010AC1051FD56168E06A0D
:1006E000884200D80846411B04D02246284600F024
:1006F000E5F9F0BBE068010203D5E562C4E9015801
:1007000054E0691CE1626160E16940F48030491E97
:10071000C4E9021030462E70BDE8F087010202D510
:1007200000F480320AE06068411C61600670E06895
:100730000A2E40F48030E06006D00022E16A606852
:10074000814203D90B4602E00122F7E70346A7895D
:100750005B1B7F0503D4E7699F4200DDE2B1814264
:1007600000D80146E5620F1AC4E90158002B09DDE3
:1007700000E005E022461946284600F09FF908B13E
:100780004846C9E747B1A069E5626560C01BA06142
:10079000E06840F01000E060E068000208D56168A1
:1007A000A069E562491B08446560A0615046B3E753
:1007B0003046B1E72DE9F0410C4607461646104693
:1007C00000F06EF82078611C61280AD0722802D0EF
:1007D00077283CD102E00125002405E0022504240D
:1007E00002E0082448F2020511F8010B2B2806D07C
:1007F000622809D011F8010C74280AD00BE045F0EA
:10080000030544F00204EFE745F0040544F0010459
:10081000EAE744F0100438462146FFF07BFD411C16
:1008200015D00021316171604FF40071F560F16104
:100830007061200704D530460222002100F0B8F88C
:10084000306D40F0010030653046BDE8F081002099
:10085000FBE72DE9F0410D460646104C206DC1071F
:1008600004D0410804D020F00104F7E722460EE04E
:100870005420FFF0CAFD07000ED0206D47F00101A3
:100880000843542120653846FFF067FC3A46294664
:100890003046BDE8F0418DE70020D6E7484D002402
:1008A0002DE9F04704464FF000094FF0FF37C568C7
:1008B000D4E90486A80707D0204600F029F930467D
:1008C000FFF032FD002802DA3846BDE8F08728053F
:1008D00002D54046FFF748FE4C212046FFF03DFC84
:1008E000206D20F0010020654846EEE710B5044673
:1008F000AFF300802046BDE81040FFF710BD10B5F3
:1009000000F050F9BDE8104000F046B900487047CB
:10091000444E002470470000004870474C4E0024AD
:10092000704770477047704738B504460A46002044
:100930006946AFF30080002808BF38BD0246009921
:100940002046FFF09EFD012038BD012000F07CB95B
:10095000F8B5AFF30080054600200C46102000BF1C
:100960000646A819A0420DD9324669460020AFF3C9
:100970000080070008BF00F067F90098A04218BF88
:100980000546C419FFF7C8FF05600746F01D20F0B3
:10099000070046192846FFF06DFDB44208BFF8BDB8
:1009A000A21B31463868BDE8F840FFF06ABD000080
:1009B0002DE9F041044616460D464769007B800745
:1009C0002ED03846FFF0C5FC50BB3EB3012E02D0FE
:1009D000022E25D104E02046FFF06DFD05441DE008
:1009E0003846FFF0C4FCE168002841F01001E160E6
:1009F00005DA204600F058F80120BDE8F081C9036F
:100A00000BD56268E16A914200D81146A26911448F
:100A10002269891A814200DD08460544002D01DA69
:100A20000220EAE7E16A6068E268814206D2910347
:100A3000E06203D522F4003141F01002A6690027DC
:100A4000AE4213DCE16A814201D90B4600E0034665
:100A500003EB060C2369ACEB030CAC4506DD8142CD
:100A600001D98C4600E084469C4505D1A7602760EB
:100A700042F02000A5620DE0AD1BE669AE1B81428D
:100A8000A66000D90846C01A281A2060581960606C
:100A900022F0200003490840E060002084F84870FC
:100AA000ABE70000BFCFD7FFC16821F4001141F0D0
:100AB0008001C16000218160016070472DE9F0472D
:100AC000814614460E464FF0FF383248D5685769C4
:100AD000054209D03846A169FFF041FC002811DB2E
:100AE0002C48C0430540E5602B463246494638460F
:100AF000FFF020FCA16920F00042B21A1144002846
:100B0000A16103D02046FFF7CFFF4046BDE8F08744
:100B100070B504460569C06A6168884200D8084615
:100B2000E16821F42011E160C90312D5A84208D080
:100B30002246411B2846FFF7C1FF10B14FF0FF309E
:100B400070BD0020E562C4E90150E06820F4803007
:100B5000E060002070BD10B50446C06820F02000A1
:100B6000E060A16AA06988420DD02046FFF7D0FF5F
:100B7000E06820F4405040F01000E060A06AA061FE
:100B80002069E062606044F24001E0688843E06010
:100B900010BD000010000200002801D0FFF064BC6E
:100BA0007047000010B5014602A000F034F80120A3
:100BB00010BD000053494752545245443A205265F3
:100BC0006469726563743A2063616E2774206F7084
:100BD000656E3A200000000010B5431C02E010F8DA
:100BE000011B71B18107FAD14FF0013202C88C1A92
:100BF0008C4314EAC211F9D0C01A0A0603D0C01EF1
:100C000010BDC01A10BD0A0401D0801E10BD09021B
:100C1000FCD0401E10BD70B505460C460A2000E011
:100C20006D1CFFF069FC35B128780028F8D102E08E
:100C3000641CFFF061FC14B120780028F8D1BDE8F5
:100C400070400A20FFF058BC10B5FFF061FCBDE811
:100C50001040FFF7A1BF0000FFF081BA704700000D
:100C600010B501220221044800F0EEF90122D1035F
:100C7000024800F0E9F910BD000C025800040258C7
:100C800072B600BFFEE7000070B504460CB9012043
:100C900070BD94F83500022803D0802060650120E3
:100CA000F6E7DC492068884249D0DA4918312068E3
:100CB000884244D0D7493031206888423FD0D54956
:100CC0004831206888423AD0D24960312068884251
:100CD00035D0D04978312068884230D0CD49903124
:100CE000206888422BD0CB49A8312068884226D082
:100CF000C9492068884222D0C749183120688842F3
:100D00001DD0C54930312068884218D0C2494831C9
:100D10002068884213D0C0496031206888420ED0D4
:100D2000BD4978312068884209D0BB49903120689C
:100D3000884204D0B849A8312068884201D10120F6
:100D400000E00020F0B3042084F83500B1492068A9
:100D500088424BD0AF4918312068884246D0AD490F
:100D600030312068884241D0AA4948312068884201
:100D70003CD0A84960312068884237D0A5497831F5
:100D80002068884232D0A3499031206888422DD013
:100D9000A049A8312068884228D09F49206888420D
:100DA00024D09D491831206888421FD09A4930319B
:100DB000206888421AD0984948312068884215D066
:100DC000954900E020E06031206888420ED09249C9
:100DD00078312068884209D08F4990312068884254
:100DE00004D08D49A8312068884206D12068006867
:100DF00020F001002168086009E12068006820F007
:100E000001002168086002E12068006820F00E00FF
:100E1000216808607F492068884249D07D4918319F
:100E20002068884244D07B493031206888423FD0D6
:100E300078494831206888423AD076496031206844
:100E4000884235D0734978312068884230D0714962
:100E50009031206888422BD06E49A83120688842A2
:100E600026D06D492068884222D06B49183120680D
:100E700088421DD0684930312068884218D06649C0
:100E800048312068884213D0634960312068884225
:100E90000ED0614978312068884209D05E4990318E
:100EA0002068884204D05C49A8312068884206D175
:100EB0002068006820F001002168086005E02068D3
:100EC000006820F0010021680860524920688842CB
:100ED00070D050491831206888426BD04D4930316C
:100EE0002068884266D04B4948312068884261D0EA
:100EF00048496031206888425CD046497831206892
:100F0000884257D0434990312068884252D04149A5
:100F1000A831206888424DD03F492068884249D096
:100F20003D4918312068884244D03B49303120681F
:100F300088423FD038494831206888423AD0364903
:100F400060312068884235D0334978312068884242
:100F500030D031499031206888422BD02E49A831B9
:100F60002068884226D02D492068884222D02B490B
:100F70001431206888421DD02849283120688842D1
:100F800018D026493C312068884213D0234950317B
:100F9000206888420ED0214964312068884209D0F7
:100FA0001E4978312068884204D01C498C31206861
:100FB000884201D1012000E00020D8B1206E0068F5
:100FC00020F48070216E0860A56D94F85C0000F03C
:100FD0001F01012088406860D4E919104860E06E64
:100FE00040B1E06E006820F48070E16E0860D4E9E2
:100FF0001C104860012084F8350000BF002084F8F0
:10100000340000BF206D10B12046216D88470020BC
:101010003EE600001000024010040240085402584E
:1010200070B5044600F016F806462546681C10B157
:1010300004480078054400BF00F00CF8801BA8426B
:10104000FAD370BD7C0000240AB1816101E00B0479
:1010500083617047014800687047000074000024F5
:1010600010B5032000F016F901F16EF81049096877
:10107000C1F303210F4A515C01F01F0120FA01F472
:101080000B48006800F00F001146085C00F01F00DC
:1010900024FA00F008490860084804600F2000F0B6
:1010A0000FF808B1012010BDFFF02AFE0020FAE77A
:1010B00018440258045100088400002480000024D1
:1010C00070B58AB00446102C0AD200222146762040
:1010D00000F0A2F8762000F08BF81948046002E0D6
:1010E00001200AB070BD00BF1648006840F480209F
:1010F000144908600846006800F48020009000BF92
:1011000000BF01A902A800F1B1FF00F0EFF945000E
:101110000D48B5FBF0F0461E0C480D49086040F242
:10112000E7310B48C160466000210161816000F039
:101130001CFE18B9064801F185F9D2E70120D0E775
:1011400078000024F044025840420F00004801405B
:10115000280400244178154A1160144908310968AF
:1011600021F00101114A08321160121F416811601B
:10117000017B0907C27A41EA0261827A41EAC241EF
:10118000427B41EA8241827B41EA4241C27B41EAA1
:101190000241427A41EA0221027A41EA420102789E
:1011A0001143024A083211607047000098ED00E0D8
:1011B00040F001010D4A11600C497039096841F491
:1011C00080310A4A703A116000BF00BF00BFBFF310
:1011D0004F8F00BF00BF00BF00BF00BF00BFBFF305
:1011E0006F8F00BF00BF00BF7047000094ED00E0AC
:1011F0000146084600280DDB00BF00BF00F01F03BA
:1012000001229A4043099B0003F1E023C3F8002127
:1012100000BF00BF00BF70472DE9F05F80460D465C
:10122000164602F057FD074639462A46334601F076
:101230000700C0F1070ABAF1040F02D94FF0040AFF
:1012400001E0C0F1070AD14600F1040ABAF1070F24
:1012500002D24FF0000A01E0A0F1030AD4464FF099
:10126000010A0AFA09FAAAF1010A0AEA020A0AFAC2
:101270000CFA4FF0010B0BFA0CFBABF1010B0BEA74
:10128000030B4AEA0B042146404602F18FFCBDE8FD
:10129000F09F000000BF00F00702064B19684FF6F0
:1012A000FF031940044B0B4343EA0221014B196031
:1012B00000BF70470CED00E00000FA0570B5014674
:1012C000844D2D6805F00303824D2D68C5F305504C
:1012D000804D2D1D2D68C5F300247E4D1C352D68D5
:1012E000C5F3CC0515FB04F501EE105AB8EE411A12
:1012F000F0EE410A00286FD023B1012B4ED0022B13
:101300006BD16BE0734D283D2D68C5F340153DB39F
:10131000704D283D2D68C5F3C1066F4D25FA06F2C4
:1013200001EE102AF8EE411A01EE100AB8EE411A49
:1013300081EE812A9FED691AC0EE811A654D18353C
:101340002D68C5F3080501EE105AB8EE411A31EECA
:10135000811AF7EE001A31EE211A22EE010A1CE082
:1013600001EE100AB8EE411ADFED5D1A81EE812A16
:101370009FED5A1AC0EE811A564D18352D68C5F3E7
:10138000080501EE105AB8EE411A31EE811AF7EE57
:10139000001A31EE211A22EE010A5BE001EE100A7A
:1013A000B8EE411ADFED4F1A81EE812A9FED4B1AFC
:1013B000C0EE811A474D18352D68C5F3080501EEBA
:1013C000105AB8EE411A31EE811AF7EE001A31EEDA
:1013D000211A22EE010A3DE077E01DE001EE100A3D
:1013E000B8EE411A9FED402AC2EE011A9FED3B1A5A
:1013F00080EE812A374D18352D68C5F3080501EEBA
:10140000105AB8EE411A32EE011AB7EE002A31EE48
:10141000021A21EE810A1DE001EE100AB8EE411A0F
:10142000DFED301A81EE812A9FED2C1AC0EE811A71
:10143000284D18352D68C5F3080501EE105AB8EE91
:10144000411A31EE811AF7EE001A31EE211A22EE1E
:10145000010A00BF00BF1F4D18352D68C5F3462592
:1014600001EE105AB8EE411AF7EE001A31EE211AC9
:10147000C0EE011ABCEEE11A81ED001A154D1835C7
:101480002D68C5F3064501EE105AB8EE411AF7EE85
:10149000001A31EE211AC0EE011ABCEEE11A81EDFC
:1014A000011A0C4D18352D68C5F3066501EE105A6A
:1014B000B8EE411AF7EE001A31EE211AC0EE011A09
:1014C000BCEEE11A81ED021A03E000250D604D60CB
:1014D0008D6070BD284402580090D0030000004683
:1014E0000024744C0024744A20BCBE4B00B500F1AB
:1014F000F3FD05490968C1F30221044A515C01F07A
:101500001F01C84000BD00001C44025804510008DF
:101510002DE9F047044614B90120BDE8F087207892
:1015200000F00100002870D0FA48006800F0380888
:10153000F8481830D0F80090B8F1100F06D0B8F184
:10154000180F0FD109F0030002280BD1F148103811
:101550000068C0F3404000286AD06068002867D166
:101560000120DAE700BF6068B0F5803F08D1E948A4
:101570001038006840F48030E649103908602EE0E9
:10158000606868B9E3481038006820F48030E149A9
:10159000103908600846006820F4802008601EE0CA
:1015A0006068B0F5A02F0DD1DA481038006840F41B
:1015B0008020D849103908600846006840F480301F
:1015C00008600CE0D3481038006820F48030D1491E
:1015D000103908600846006820F48020086000BFC9
:1015E000606898B1FFF736FD054606E0FFF732FD6B
:1015F000401B642801D903208FE7C64810380068D3
:10160000C0F340400028F1D012E012E0FFF722FDC5
:10161000054606E0FFF71EFD401B642801D90320A4
:101620007BE7BC4810380068C0F340400028F1D187
:1016300000BF207800F00200022874D1B54800688D
:1016400000F03808B3481830D0F80090B8F1000F17
:1016500005D0B8F1180F56D109F00300D0BBAD4842
:1016600010380068C0F3800018B1E06808B90120A4
:1016700053E7A8481038006820F01900E1680843D3
:10168000A44910390860FFF7E5FC054606E0FFF7BE
:10169000E1FC401B022801D903203EE79D48103899
:1016A0000068C0F380000028F1D000BFFFF000FB0D
:1016B00041F2030188421AD8206940280BD195488D
:1016C0000C38006820F47C3040F4003091490C392B
:1016D000086017E017E08F480C38006820F47C3071
:1016E000216940EA01308B490C3908600AE08948D9
:1016F0000C38006820F0FE40217C40EA01608549FA
:101700000C39086066E0E06888B3824810380068E9
:1017100020F01900E16808437E4910390860FFF79E
:1017200099FC054607E056E0FFF794FC401B0228B1
:1017300001D90320F1E6774810380068C0F3800033
:101740000028F1D000BFFFF0B3FA41F20301884254
:101750001AD8206940280BD16E480C38006820F454
:101760007C3040F400306B490C39086017E017E01A
:1017700068480C38006820F47C30216940EA013068
:1017800064490C3908600AE062480C38006820F0AF
:10179000FE40217C40EA01605E490C39086019E096
:1017A0005C481038006820F001005A491039086080
:1017B000FFF750FC054606E0FFF74CFC401B0228F3
:1017C00001D90320A9E6534810380068C0F380000F
:1017D0000028F1D100BF207800F0100010287CD143
:1017E0004C48006800F038084A481830D0F800909B
:1017F000B8F1080F06D0B8F1180F3DD109F0030079
:10180000012839D1434810380068C0F3002020B1C6
:10181000E069802801D001207FE600BFFFF048FA90
:1018200041F2030188421AD8206A20280AD1394897
:101830000C38006820F0F84040F0804035490C3901
:10184000086018E033480C38006820F0F84094F83D
:10185000201040EA81602F490C3908600BE02D48C8
:10186000001F006820F07C5094F8201040EA0160CE
:101870002849091F086066E0E06978B325481038F8
:10188000006840F08000234910390860FFF7E2FB50
:10189000054606E0FFF7DEFB401B022801D90320C6
:1018A0003BE61C4810380068C0F300200028F1D047
:1018B00000BFFFF0FDF941F2030188421CD8206A05
:1018C00020280CD113480C38006820F0F84040F074
:1018D000804010490C3908601AE035E01CE00D48E2
:1018E0000C38006820F0F84094F8201040EA81603D
:1018F00008490C3908600BE00648001F006820F01A
:101900007C5094F8201040EA01600249091F0860E9
:1019100019E0000010440258FA48006820F08000E6
:10192000F8490860FFF796FB054606E0FFF792FBD3
:10193000401B022801D90320EFE5F2480068C0F3FC
:1019400000200028F2D100BF207800F0080008280D
:1019500036D16069D0B1EB487430006840F00100C6
:10196000E84974310860FFF775FB054606E0FFF7AC
:1019700071FB401B022801D90320CEE5E1487430F9
:101980000068C0F340000028F1D019E0DD48743051
:10199000006820F00100DB4974310860FFF75AFB52
:1019A000054606E0FFF756FB401B022801D903203D
:1019B000B3E5D44874300068C0F340000028F1D18A
:1019C000207800F02000202830D1A069B8B1CD489F
:1019D000006840F48050CB490860FFF73BFB0546A8
:1019E00006E0FFF737FB401B022801D9032094E5EE
:1019F000C4480068C0F340300028F2D016E0C14867
:101A0000006820F48050BF490860FFF723FB0546BB
:101A100006E0FFF71FFB401B022801D903207CE5ED
:101A2000B8480068C0F340300028F2D1207800F0B8
:101A3000040004287DD1B448006840F48070B249A5
:101A40000860FFF707FB054606E0FFF703FB401BB6
:101A5000642801D9032060E5AB48006800F4807079
:101A60000028F2D000BFA068012808D1A548703036
:101A7000006840F00100A349703108602DE0A068C3
:101A800068B9A0487030006820F001009D497031AD
:101A900008600846006820F0040008601DE0A068A7
:101AA00005280DD197487030006840F00400954932
:101AB000703108600846006840F0010008600CE0E2
:101AC00090487030006820F001008E497031086045
:101AD0000846006820F00400086000BFA068A0B1BC
:101AE000FFF7B8FA054608E0FFF7B4FA401B41F2E9
:101AF0008831884201D903200FE5824870300068A0
:101B0000C0F340000028EFD013E0FFF7A3FA05462A
:101B100008E0FFF79FFA401B41F28831884201D963
:101B20000320FAE4774870300068C0F340000028D2
:101B3000EFD1606A00287DD072481030006800F054
:101B40003800182877D0606A022875D16D4800687F
:101B500020F080706B490860FFF77CFA054606E0CC
:101B6000FFF778FA401B022801D90320D5E4654825
:101B70000068C0F340600028F2D100BFD4E90A1029
:101B800041EA00105F492831096840F2F33291437D
:101B900008435C4928310860208E401EC0F30800CD
:101BA000616B491E4FF47E4202EA41210843218FB6
:101BB000491ED20102EA014108433C21095D491E48
:101BC000120202EA016108434E493031086000BF49
:101BD000081F006820F00100091F086049483430E0
:101BE00000684FF6F8718843A16C40EAC10045498E
:101BF0003431086043482C30006820F00C00216C20
:101C0000084340492C3108600846006820F0020073
:101C1000616C08433B492C3108600846006840F479
:101C2000803008600846006840F4003008600846CC
:101C3000006802E093E038E01FE040F48020086094
:101C40000846006840F0010008602E48006840F037
:101C500080702C490860FFF7FDF9054606E0FFF7A4
:101C6000F9F9401B022801D9032056E425480068F1
:101C7000C0F340600028F2D071E02248006820F0F4
:101C8000807020490860FFF7E5F9054606E0FFF798
:101C9000E1F9401B022801D903203EE419480068FD
:101CA000C0F340600028F2D159E016482830076898
:101CB000144830300668606A012821D007F003011B
:101CC000A06A81421CD1C7F30511E06A884217D18E
:101CD000C6F30801206B401E814211D1606B401E8B
:101CE000C6F3462188420BD1A06B401EC6F30641C5
:101CF000884205D1E06B401EC6F30661884205D0DC
:101D000001200AE4004402580048025815480068BF
:101D1000C0F3CC07A06CB84221D012480838006844
:101D200020F001000F4908390860FFF793F90546D4
:101D300000BFFFF78FF9401BFBD00A4800684FF641
:101D4000F8718843A16C40EAC10006490860054863
:101D50000838006840F00100024908390860002096
:101D60004AE4000034440258704710B504460CB9E8
:101D7000012010BD94F83D0028B9002084F83C00F3
:101D8000204600F029F8022084F83D00211D20683B
:101D900001F1B2FC012084F8480000BF84F83E0045
:101DA00001213F200155402001554120015542208D
:101DB00001554320015500BF00BF012084F84400B5
:101DC00045200155462001554720015500BF0120FF
:101DD00084F83D000020CCE710B586B004461421FD
:101DE00001A8FEF0BAF92068B0F1804F35D100BFEC
:101DF000AC48006840F00100AA4908600846006845
:101E000000F00100009000BF00BF00BFA5480838E7
:101E1000006840F00200A3490839086008460068DD
:101E200000F00200009000BF00BF4FF4006001907E
:101E300002200290002003900220049001200590CF
:101E400001A99948FEF02CFE002205211C20FFF775
:101E5000E3F91C20FFF7CCF922E19449206888427D
:101E600033D100BF8F48006840F002008D49086000
:101E70000846006800F00200009000BF00BF00BFED
:101E800088480838006840F004008649083908602E
:101E90000846006800F00400009000BF00BF40202A
:101EA00001900220029000200390022004900590EF
:101EB00001A97F48FEF0F4FD002205211D20FFF757
:101EC000ABF91D20FFF794F9EAE07A4920688842CF
:101ED00033D100BF7348006840F0040071490860C6
:101EE0000846006800F00400009000BF00BF00BF7B
:101EF0006C480838006840F002006A4908390860F8
:101F00000846006800F00200009000BF00BF4020BB
:101F1000019002200290002003900220049005907E
:101F200001A96148FEF0BCFD002205211E20FFF73B
:101F300073F91E20FFF75CF9B2E05F492068884220
:101F400016D100BF5748006840F01000554908609E
:101F50000846006800F01000009000BF00BF00229B
:101F600005213620FFF758F93620FFF741F997E0B1
:101F700052492068884216D100BF4A48006840F0A4
:101F80002000484908600846006800F020000090E2
:101F900000BF00BF002205213720FFF73DF93720A1
:101FA000FFF726F97CE04649206888423ED100BF11
:101FB0003C480830006840F002003A4908310860A7
:101FC0000846006800F00200009000BF00BF00BF9C
:101FD00034480838006840F0040032490839086085
:101FE0000846006800F00400009000BF00BF802099
:101FF0000190022002900020039002200490032010
:10200000059001A92A48FEF04BFD002205212C2055
:10201000FFF702F92C20FFF7EBF8002205212E2014
:10202000FFF7FAF82E20FFF7E3F839E0254920689A
:10203000884235D100BF1B480830006840F480302A
:102040001849083108600846006800F480300090A4
:1020500000BF00BF00BF13480838006840F0100000
:102060001049083908600846006800F01000009028
:1020700000BF00BF4020019002200290002003908A
:10208000022004900420059001A90F48FEF008FDED
:10209000002205217420FFF7BFF87420FFF7A8F88D
:1020A00006B010BDE8440258000402580004004085
:1020B00000080258000800400010004000140040D2
:1020C0000004014000400140001002582DE9F04199
:1020D00004460D46002700BF94F83C00012802D1B9
:1020E0000220BDE8F081012084F83C0000BF0220FE
:1020F00084F83D00206886684048064026F47F4604
:10210000206886602868702826D00CDC00F00F015B
:10211000002966D10011072863D2DFE800F0555688
:1021200057584B374100B0F1101F52D009DCB0F5C1
:10213000805F10D0B0F5005F1BD0B0F5801F50D18C
:1021400046E0A0F580102038002843D0102842D067
:10215000202846D140E046E0D5E902136A682068AD
:1021600001F138FB2068866846F0770620688660B3
:1021700039E0D5E902136A68206801F12BFB206879
:10218000806840F48040216888602CE0EA686968D3
:10219000206801F137FB5021206801F127FB22E084
:1021A000EA686968206801F189FB6021206801F113
:1021B0001DFB18E0EA686968206801F123FB4021F3
:1021C000206801F113FB0EE000BF00BF00BF00BF9D
:1021D00000BF00BF00BF00BF2968206801F106FBF7
:1021E00001E0012700BF00BF012084F83D0000BFCF
:1021F000002084F83C0000BF384672E788FFCEFF1D
:1022000038B50446FE492068884240D1207F08281E
:102210003CD1FC480078012802D0022836D125E0C4
:102220000C21F94800F009FBF8490860F6480068FD
:10223000006A20F42040F4490968086200BFF248AF
:102240000068006A20F42040EF4909680862EE48FF
:102250000068006A40F40050EB490968086200BF5A
:10226000E8480078401CE74908700FE00C21E64878
:1022700000F0E3FAE54948600C21E34800F176FA02
:10228000E0480078401CDF49087000BF10E2E049D8
:10229000206888426BD1207F012867D1DD48007813
:1022A00048B90021DC4800F0C8FADC490880012068
:1022B000D849087020E00021D74800F0BEFAD8497C
:1022C00008800020D3490870D5480088D349098880
:1022D00088420ADCD24800884CF250310844CF4989
:1022E0000988401ACF49088006E0CD480088CB49CC
:1022F0000988401ACB490880CA480088052835D18A
:1023000002F0ACFD012831D0C748007890B1C74831
:10231000007800F10F05E81705EB10700011A5EB30
:102320000012012000FA02F16A46C148006802F07A
:10233000ADFA11E0BF48007800F10F05E81705EB92
:1023400010700011A5EB0012012000FA02F16A469C
:10235000B948006802F09AFA009838B14FF08050FE
:10236000B6490860BFF34F8FBFF36F8FA0E1B44948
:10237000206888426BD1207F022867D1B14800785D
:1023800048B90421B04800F058FAB049088001204B
:10239000AC49087020E00421AB4800F04EFAAC498B
:1023A00008800020A7490870A9480088A749098823
:1023B00088420ADCA64800884CF250310844A34900
:1023C0000988401AA349088006E0A14800889F496F
:1023D0000988401A9F4908809E480088052835D101
:1023E00002F03CFD012831D08F48007890B18F4831
:1023F000007800F10F05E81705EB10700011A5EB50
:102400000012012000FA02F16A469348006802F0C7
:102410003DFA11E08748007800F10F05E81705EB59
:1024200010700011A5EB0012012000FA02F16A46BB
:102430008A48006802F02AFA009838B14FF08050BC
:102440007E490860BFF34F8FBFF36F8F30E184493F
:10245000206888426BD1207F012867D181480078AD
:1024600048B90021804800F0E8F98049088001203F
:102470007C49087020E000217B4800F0DEF97C49AF
:1024800008800020774908707948008877490988D2
:1024900088420ADC764800884CF25031084473497F
:1024A0000988401A7349088006E0714800886F491E
:1024B0000988401A6F4908806E480088052835D180
:1024C00002F0CCFC012831D05748007890B1574831
:1024D000007800F10F05E81705EB10700011A5EB6F
:1024E0000012012000FA02F16A466348006802F017
:1024F000CDF911E04F48007800F10F05E81705EB22
:1025000010700011A5EB0012012000FA02F16A46DA
:102510005A48006802F0BAF9009838B14FF080507C
:1025200046490860BFF34F8FBFF36F8FC0E020684C
:10253000B0F1804F62D1207F082860D150480078E8
:1025400048B90C214F4800F078F94F490880012024
:102550004B49087020E00C214A4800F06EF94B49C5
:102560000880002046490870484800884649098884
:1025700088420ADC454800884CF250310844424900
:102580000988401A4249088006E0404800883E49D0
:102590000988401A3E4908803D48008805282ED108
:1025A00002F05CFC01282AD01F48007890B11F4837
:1025B000007800F10F05E81705EB10700011A5EB8E
:1025C0000012012000FA02F16A463248006802F067
:1025D0005DF911E01748007800F10F05E81705EBE9
:1025E00010700011A5EB0012012000FA02F16A46FA
:1025F0002948006802F04AF900984FE058E056E098
:102600000000014048000024340100244000002460
:102610000008004054000024180200245000002448
:102620005200002456000024710000243C000024C5
:102630001C0000243D0000242C00002404ED00E0D8
:10264000004001405C00002448030024580000249E
:102650005A0000245E0000242000002430000024E2
:102660000004004064000024CC0100246000002429
:1026700062000024660000242400002434000024AA
:102680006C00002480010024680000246A000024FB
:102690006E000024280000243800002438B14FF0D8
:1026A000805004490860BFF34F8FBFF36F8F00BFA6
:1026B00038BD000004ED00E02DE9F04104460D4670
:1026C0001646002700BF94F83C00012802D10220E2
:1026D000BDE8F081012084F83C0000BF96B9EB68AA
:1026E000D5E90012206801F1A1F82068806920F086
:1026F0000C002168886120688069A9680843216806
:10270000886141E0042E13D1EB68D5E900122068FE
:1027100001F1E8F82068806920F440602168886150
:1027200020688069A96840EA0120216888612BE05F
:10273000082E12D1EB68D5E90012206800F037FFAF
:102740002068C06920F00C002168C8612068C06959
:10275000A96808432168C86116E00C2E13D1EB6804
:10276000D5E90012206801F1DAF82068C06920F488
:1027700040602168C8612068C069A96840EA0120FA
:102780002168C86100E0012700BF002084F83C00F8
:1027900000BF38469CE7000010B586B004461421FF
:1027A00001A8FDF0DAFC2149206888423CD100BF35
:1027B0001F48006840F001001D4908600846006895
:1027C00000F00100009000BF00BF00BF18481038A3
:1027D000006840F01000164910390860084600688B
:1027E00000F01000009000BF00BF4FF48040019047
:1027F0000220029000200390022004900120059006
:1028000001A90C48FEF04CF9002205211920FEF721
:1028100003FD1920FEF7ECFC002205211B20FEF72A
:10282000FBFC1B20FEF7E4FC06B010BD00000140DD
:10283000F04402580010025870470246002031B19F
:10284000042907D0082908D00C290CD108E0136806
:10285000586B09E01368986B06E01368D86B03E0C7
:102860001368186C00E000BF00BF70477047014656
:1028700000BF91F88400012801D102207047012097
:1028800081F8840000BF2420C1F88800086802682D
:102890000868006820F001000B68186022F0005200
:1028A00000204866086802602020C1F8880000BF48
:1028B000002081F8840000BF00BFDFE7704770B5DB
:1028C00004460D4600BF94F88400012801D102207F
:1028D00070BD012084F8840000BF2420C4F8880063
:1028E000206806682068006820F001002168086000
:1028F0002068806820F06060284321688860204656
:1029000001F134F8206806602020C4F8880000BF78
:10291000002084F8840000BF00BFD9E770B50446EA
:102920000D4600BF94F88400012801D1022070BD3B
:10293000012084F8840000BF2420C4F888002068A7
:1029400006682068006820F001002168086020689F
:10295000806820F06040284321688860204601F1AB
:1029600005F8206806602020C4F8880000BF002019
:1029700084F8840000BF00BFD9E7704710B5044653
:102980000CB9012010BDA06900B100E000BFD4F86F
:10299000880028B9002084F88400204600F02AF836
:1029A0002420C4F888002068006820F00100216815
:1029B0000860A06A10B1204601F104F8204600F03A
:1029C0006DFE012800D1DDE72068406820F49040CA
:1029D000216848602068806820F02A0021688860AB
:1029E0002068006840F0010021680860204601F17D
:1029F00065F8C7E710B5B8B00446142132A8FDF059
:102A0000ACFBC02102A8FDF0A8FB22492068884247
:102A10003DD102210020CDE90210209002A8FEF055
:102A2000E1FA08B1FEF72CF900BF1B48006840F43A
:102A30000020194908600846006800F40020019051
:102A400000BF00BF00BF14480838006840F0010014
:102A50001149083908600846006800F0010001903B
:102A600000BF00BF0320329002203390002034903A
:102A700035900820369032A90848FEF011F800225F
:102A800005213420FEF7C8FB3420FEF7B1FB38B037
:102A900010BD0000004C0040E844025800000258FD
:102AA0007047000010B502210648FEF0F7F8052037
:102AB000FEF7B6FA02210348FEF0F0F80520FEF713
:102AC000AFFA10BD0004025810B5294A00211020A9
:102AD00001F049F927490860274A0021274801F0F9
:102AE000A8F927490860274A0021274801F0A1F9E1
:102AF00026490860264A0021264801F09AF926490D
:102B00000860264A0021264801F093F9254908600B
:102B1000254A0021254801F08CF9254908602548FF
:102B200001F16DF824490860244801F168F824494E
:102B30000860244801F163F823490860234801F143
:102B40005EF823490860234801F159F822490860DA
:102B5000224801F154F822490860224801F14FF857
:102B600021490860214801F14AF82149086010BD57
:102B7000DC50100818000024285010083D340008CC
:102B8000040000244C50100875330008080000248D
:102B900070501008E53300080C0000249450100811
:102BA0001534100810000024B850100869310008CE
:102BB00014000024EC5010081C000024FC501008E5
:102BC000200000240C511008240000241C5110087F
:102BD000280000242C5110082C0000243C5110081F
:102BE000300000244C511008340000245C511008BF
:102BF0003800002400B587B0142102A8FDF0ADFA1A
:102C000000BF5448006840F0100052490860084670
:102C1000006800F01000019000BF00BF00BF084630
:102C2000006840F0800008600846006800F08000FE
:102C3000019000BF00BF00BF0846006840F00100DF
:102C400008600846006800F00100019000BF00BF66
:102C500000BF0846006840F00200086008460068AF
:102C600000F00200019000BF00BF00BF08460068EE
:102C700040F0080008600846006800F00800019075
:102C800000BF00BF00BF0846006840F004000860B5
:102C90000846006800F00400019000BF00BF002259
:102CA00008212D48FEF7D0F9002204212B48FEF719
:102CB000CBF9002248F206012948FEF7C5F90122A6
:102CC00041F63E712748FEF7BFF900220121254851
:102CD000FEF7BAF90820029001200390002004902A
:102CE0000220059002A91C48FDF0DAFE04200290A3
:102CF00001200390002004900220059002A91748AB
:102D0000FDF0CEFE062002900120039000200490EA
:102D10000220059002A91248FDF0C2FE4FF40040C7
:102D2000029011200390002004900220059002A937
:102D30000B48FDF0B5FE41F63F7002901120039064
:102D4000002004900220059002A90648FDF0A8FE8C
:102D500007B000BDE04402580010025800000258BD
:102D600000040258000C025800B58BB000200790F8
:102D7000089009900A9004900590069000900190A8
:102D8000029003901F4820490860EF20486000210E
:102D90001D4881604CF24F31C160002101614161E9
:102DA00080218161FEF7E1FF08B1FDF769FF4FF473
:102DB0008050079007A91448FFF788F908B1FDF77C
:102DC0005FFF1148FFF0B7FB08B1FDF759FF002086
:102DD0000490069004A90C48FFF0CEFA08B1FDF764
:102DE0004FFF0220009001200190002002900390EC
:102DF000042269460448FFF75FFC08B1FDF740FF75
:102E00000BB000BD004001404803002400B58BB06A
:102E100000200790089009900A9004900590069071
:102E200000900190029003901F4820490860EF2015
:102E3000486000211D4881604CF24F31C160002183
:102E4000016180218161FEF790FF08B1FDF718FF55
:102E50004FF48050079007A91448FFF737F908B1DD
:102E6000FDF70EFF1148FFF066FB08B1FDF708FF04
:102E700000200490069004A90C48FFF07DFA08B1E8
:102E8000FDF7FEFE0020009001200190002002903E
:102E90000390002269460548FFF70EFC08B1FDF7D4
:102EA000EFFE0BB000BD0000000800401802002437
:102EB0000EB500200090019002900E480E49086067
:102EC000EF20486000210C48816040F2F311C1609E
:102ED00080218161FEF749FF08B1FDF7D1FE002096
:102EE0000090029069460448FFF046FA08B1FDF7E9
:102EF000C7FE0EBD00140040B002002410B51848F3
:102F0000184908604FF4E13048600021154881609D
:102F1000C16001610C21416100218161C1610162D7
:102F2000416200200F4988620846FFF727FD08B17B
:102F3000FDF7A6FE00210B48FFF7F0FC08B1FDF7F6
:102F40009FFE00210748FFF7BAFC08B1FDF798FE85
:102F50000448FFF78CFC08B1FDF792FE10BD00009D
:102F6000004C00409403002400BFFEE72DE9F0412F
:102F7000044604F00F04E508C4F38006C4F34007D8
:102F800004F001082A4620210948FEF75DF8324680
:102F900010210748FEF758F83A4608210448FEF782
:102FA00053F8424604210248FEF74EF8BDE8F0818E
:102FB000000C02582DE9F041044604F00F04E50826
:102FC000C4F38006C4F3400704F001082A464FF416
:102FD00080510B48FEF738F832464FF4006108483C
:102FE000FEF732F83A464FF480610548FEF72CF8B8
:102FF00042464FF400710248FEF726F8BDE8F08122
:10300000000C02582DE9F04104460E4600275548B1
:10301000006800F00300032802D10120BDE8F08120
:1030200050482838006820F080504E492839086000
:10303000FEF710F8054606E0FEF70CF8401B0228E4
:1030400001D90320EAE7474828380068C0F34070F8
:103050000028F1D100BF4348006820F07C7021882F
:1030600040EA01503F490860A088401EC0F30800B4
:10307000A168491E4FF47E4202EA41210843A1891A
:10308000491ED20102EA01410843217C491E120275
:1030900002EA0161084333491831086000BF314832
:1030A000001D006820F44060616908432D49091D36
:1030B00008600846006820F40070A16908432949A7
:1030C000091D08600846006820F4807008602548E3
:1030D0001C3000684FF6F8718843E16940EAC1008E
:1030E00020491C3108601F48001D006840F48070B2
:1030F0001C49091D08602EB90846006840F480008C
:10310000086012E0012E08D11648001D006840F446
:1031100000001449091D086007E01248001D0068FE
:1031200040F080700F49091D08600E48283800687B
:1031300040F080500B4928390860FDF78BFF0546A9
:1031400006E0FDF787FF401B022801D9032065E751
:10315000044828380068C0F340700028F1D0384691
:103160005CE700002844025890B000200C900D90BD
:103170000E900F90089009900A900B90704800688C
:1031800000907048006801906F48006802906F4896
:10319000006803906E48006804906E4800680590CF
:1031A0006D48006806906D480068079000BF0021D8
:1031B000084601F125F80446012C34D1684800780E
:1031C00090B300206749087026E06649097801221B
:1031D00002EB41015DF8210000F1FCFC81B2624884
:1031E000604A127840F822105E49097849005DF87B
:1031F000210000F1EFFC5C495A4A127851F8221084
:1032000041EA00405849574A127841F8220055488F
:103210000078401C53490870524800780428D4DBD9
:1032200000204F49087086E0FFE700204D490870F4
:1032300068E04C490978012202EB41015DF8210068
:1032400000F1C8FC81B20CA8464A127840F822105E
:103250004449097849005DF8210000F1BBFC0CA944
:10326000404A127851F8221041EA00400CA93D4A28
:10327000127841F822003C483A49097850F8210078
:103280000CA9384A127851F8221048403749354A7B
:10329000127841F822000CA83249097850F8210030
:1032A0003149304A127851F82210411A08A82D4AA3
:1032B000127840F822102D482A49097850F8210048
:1032C00088B108A82749097850F8210000280ADDAC
:1032D00001F0C4FD012806D000230222194624482B
:1032E000006801F1EBFC0CA81E49097850F8210098
:1032F0001D491C4A127841F822001A480078401CE7
:103300001849087017480078042892DB00201549F6
:1033100008700CE0134A12785DF822004FF6FF7136
:1033200001F10AFA0F480078401C0E4908700D4858
:1033300000780828EEDB012000F006FD37E70000EA
:103340001C0000242C000024200000243000002455
:103350002400002434000024280000243800002425
:10336000020000240300002414010024240100248E
:103370001000002400BF0021084600F141FF044670
:10338000012C10D100210B48FFF00CF904210A4850
:10339000FFF008F900210948FFF004F90C21084862
:1033A000FFF000F902E007A0FDF720F8012000F08F
:1033B000CBFCE0E71802002448030024CC010024E1
:1033C00080010024537461727449435461736BC863
:1033D000CECEF1CDA8D6AABBF1C8A1CAA7B0DC0D4C
:1033E0000A00000000BF0021084600F109FF044662
:1033F000012C05D1FDF734FC0548FFF023F802E06D
:1034000004A0FCF7F3FF012000F09EFCEBE70000B6
:103410006402002453746172745265635F73776948
:103420007463685461736BC8CECEF1CDA8D6AABBC5
:10343000F1C8A1CAA7B0DC0D0A00000000BF2E48E9
:10344000007810B1032852D121E02B480078401CAD
:103450002949087029480068006A20F4204027495B
:103460000968086200BF25480068006A20F420400F
:1034700022490968086221480068006A1F490968F2
:10348000086200BF0C211D48FFF08CF82FE01C489B
:1034900040681B490968884209D21948406819499F
:1034A000084417490968401A1749086006E014489B
:1034B000406813490968401A1349086012480068B7
:1034C0001B2811D105200C4908700023022219463F
:1034D0000E48006801F1F2FB0023022219460C4855
:1034E000006801F1EBFB02E000200349087000BF17
:1034F000012000F029FCA2E7480000243401002448
:1035000040000024A08601004C0000240800002494
:103510000C00002410B54FF0E020006901F09EFC83
:10352000012801D001F1ACF910BD000010B502482E
:10353000FFF097F910BD00004803002410B50248C1
:10354000FFF08FF910BD00003401002410B50248CF
:10355000FFF087F910BD00008001002410B502487B
:10356000FFF07FF910BD00001802002410B50248DA
:10357000FFF077F910BD0000B002002410B502483A
:10358000FFF06FF910BD0000FC02002430B501F01F
:103590001F05012404FA05F3046A9C430462046ACB
:1035A00001F01F0502FA05F52C43046230BD70B529
:1035B0000C461546026A066A26F480760662C169E0
:1035C00021F00301294321F0F001F02606EA031659
:1035D000314322F420624FF4206606EA0426324387
:1035E000C161026270BD70B50546AC6B0020A4F8E5
:1035F0005E00A4F856002046FFF082FA70BD00007D
:1036000000BF00BF026852E8002F22F490710368E7
:1036100043E80012002AF5D100BF00BF00BF0268D6
:10362000083252E8002F104B02EA03010268083208
:1036300042E80013002BF2D100BFC16E01290CD16A
:1036400000BF00BF026852E8002F22F0100103689B
:1036500043E80012002AF5D100BF2021C0F88C10E9
:103660000021C16641677047FEFFFFEF10B50446B9
:1036700000BF00BF216851E8001F21F04000226810
:1036800042E800010029F5D100BF2020C4F88800DD
:103690000020A0672046FFF703FA10BD2DE9F04F88
:1036A00089B0054600200890F8492868884200D172
:1036B00000E000BF2969A868084369690843E9690F
:1036C00040EA010828680068F149084040EA08001B
:1036D000296808602868406820F44050E968084379
:1036E00029684860D5F81880E8492868884202D0DF
:1036F000286A40EA080828688068E649084040EAE5
:103700000800296888602868C06A20F00F00696A8C
:1037100008432968C86200BFDF492868884220D171
:10372000DE48006800F03800182811D005DC48B1E8
:10373000082809D0102811D108E020280AD028280C
:103740000CD109E001240BE0042409E0082407E07F
:10375000102405E0202403E0402401E0802400BF81
:10376000F8E0CF492868884219D1CC48006800F0B9
:103770000700062810D2DFE800F0030507090B0D4B
:1037800000240BE0042409E0082407E0102405E0ED
:10379000202403E0402401E0802400BFDAE0C14996
:1037A0002868884219D1BD48006800F00700062843
:1037B00010D2DFE800F0030507090B0D00240BE031
:1037C000042409E0082407E0102405E0202403E095
:1037D000402401E0802400BFBCE0B349286888424F
:1037E00019D1AE48006800F00700062810D2DFE8C3
:1037F00000F0030507090B0D00240BE0042409E089
:10380000082407E0102405E0202403E0402401E020
:10381000802400BF9EE0A5492868884219D19F48AE
:10382000006800F00700062810D2DFE800F003056A
:1038300007090B0D00240BE0042409E0082407E02D
:10384000102405E0202403E0402401E0802400BF90
:1038500080E097492868884220D19048006800F0AD
:103860003800182811D005DC48B1082809D01028E4
:1038700011D108E020280AD028280CD109E0012421
:103880000BE0042409E0082407E0102405E02024CC
:1038900003E0402401E0802400BF5BE08549286804
:1038A000884219D17D48006800F00700062810D230
:1038B000DFE800F0030507090B0D00240BE00424EA
:1038C00009E0082407E0102405E0202403E0402458
:1038D00001E0802400BF3DE077492868884219D183
:1038E0006E48006800F00700062810D2DFE800F0FC
:1038F000030507090B0D00240BE0042409E008244C
:1039000007E0102405E0202403E0402401E08024A7
:1039100000BF1FE05D49286888421AD15F48001D3A
:10392000006800F00700062810D2DFE800F0030569
:1039300007090B0D02240BE0042409E0082407E02A
:10394000102405E0202403E0402401E0802400BF8F
:1039500000E0802400BF4D49286888427DD1102CAA
:103960001AD006DC022C09D0042C0BD0082C29D14B
:103970000DE0202C21D0402C24D120E0FDF008FACD
:10398000064623E005A8FDF015FA069E1EE002A8F3
:10399000FDF794FC039E19E0404854380068C0F3DA
:1039A000401040B13D4854380068C0F3C10143485D
:1039B00020FA01F600E0414E08E0414E06E04FF4E7
:1039C000004603E000260120089000BF00BF002E43
:1039D00010D03C49686A31F81000B6FBF0F968680D
:1039E00000EB4000484503D868680003484502D210
:1039F0000120089003E13349686A31F810C062463B
:103A0000002330461946FCF029FB4FF48073002256
:103A10008446ACFB030B01FB03B10CFB021C696881
:103A20004908034659184CEB0200CDE90010D5F8BF
:103A300004C06246002308460199FCF00FFB0746CC
:103A4000B7F5407F06D3B7F5801F03D22868C7605B
:103A5000D5E002E001200890D1E0E869B0F5004F20
:103A60007BD1082C39D005DC5CB1012C2CD0042C86
:103A70004CD12DE0102C35D0202C42D0402C45D1FB
:103A800041E0FEF04FFB064644E00000000C005809
:103A9000F369FFCFFFF4FF110010014054440258B6
:103AA0000044004000480040004C004000500040EE
:103AB0000014014000780040007C00400090D003DA
:103AC00000093D006C511008FDF710FD064621E08D
:103AD00005A8FDF06FF9069E1CE002A8FDF7EEFBBD
:103AE000039E17E04C480068C0F3401038B14A48C4
:103AF0000068C0F3C101494820FA01F600E0474ED2
:103B000008E0474E06E04FF4004603E0002601209F
:103B1000089000BF00BFFEB14249686A31F810004A
:103B2000B6FBF0F04000696800EB5100B0FBF1F724
:103B3000102F0FD3B7F5803F0CD24FF6F07007EA85
:103B4000000AC7F342004AEA000A2868C0F80CA03D
:103B500055E002E00120089051E0082C1AD005DC65
:103B60005CB1012C0DD0042C2DD10EE0102C16D000
:103B7000202C23D0402C26D122E0FEF0D3FA06469A
:103B800025E0FDF7B3FC064621E005A8FDF012F99B
:103B9000069E1CE002A8FDF791FB039E17E01E485D
:103BA0000068C0F3401038B11B480068C0F3C10181
:103BB0001A4820FA01F600E0184E08E0184E06E018
:103BC0004FF4004603E000260120089000BF00BF2C
:103BD000AEB11449686A31F81000B6FBF0F06968BC
:103BE00000EB5100B0FBF1F7102F06D3B7F5803F83
:103BF00003D2B8B22968C86001E001200890012012
:103C0000A5F86A00A5F8680000206867A86708980A
:103C100009B0BDE8F08F0000004402580090D003C6
:103C200000093D006C5110082DE9F04104460D4695
:103C300017469846069E41E0701C00283ED0FDF7CE
:103C400009FAA0EB0800B04200D816B90320BDE87D
:103C5000F0812068006800F0040070B3802D2DD042
:103C6000402D2BD02068C069C0F3C00078B1082077
:103C7000216808622046FFF7C3FC0820C4F89000C2
:103C800000BF002084F8840000BF0120DFE7206827
:103C9000C069C0F3C02080B14FF4006021680862A1
:103CA0002046FFF7ADFC2020C4F8900000BF0020A4
:103CB00084F8840000BF0320C9E7FFE72068C069DB
:103CC0002840A84201D1012000E00020B842B3D032
:103CD0000020BCE702480068C0F3022070470000E3
:103CE0000CED00E0EFF3058070478A68002A01DCE4
:103CF000FCF775BC521E8A604A68C0B2531C4B6008
:103D000010707047FFF04AF9FDF7AAF9FFF0B6FB13
:103D1000FEF770FFFFF0AEF9FFF0FCF9FFF776F861
:103D2000FFF070FAFFF720F8FFF064F9FFF7E6F80C
:103D3000FFF042FAFFF7BCF8FFF084FFFEF7C4FE85
:103D4000FFF096FF00BFFEE770B50546FFF7CAFF1C
:103D500010B16FF0050404E0002415B1284600F10D
:103D6000B9FB204670BD2DE9F84305460F461446C1
:103D70004FF00008FFF7B6FF002857D1002D55D0AF
:103D8000AF4253D8461E64B1A06820B1E068502805
:103D900001D3012606E0A06820B9E06810B900262A
:103DA00000E00026701C002840D0012D23D1012EF8
:103DB00009D103200090002211460120A36800F0E1
:103DC0008BFE804605E003220021012000F172FDF8
:103DD0008046B8F1000F1CD0DFB100231A46194607
:103DE000404600F0E9FE012813D0404600F11AFBDE
:103DF0004FF000080DE0012E06D139462846A26892
:103E000000F038FE804604E03946284600F004FE03
:103E10008046B8F1000F09D014B1D4F8009001E049
:103E20004FF000094946404600F1E6FA4046BDE839
:103E3000F8832DE9FF478046894614460020039009
:103E4000FFF750FF00284ED1B8F1000F4BD080266D
:103E500018258246471E44B3206808B1D4F800A054
:103E6000A06900B1A5692DB1382D03D8207900F0E3
:103E7000010018B1002004B0BDE8F087606908B106
:103E800060698608A06840B1E0685C2805D32069B5
:103E900018B1606908B1012708E0A06830B9E0688E
:103EA00020B9206910B9002700E00027012F0CD1AC
:103EB0002169A0684B463246CDE900510290514637
:103EC000404600F19DFE03900DE067B903A8B2B231
:103ED0004B465146CDE90050404600F15FFE0128B7
:103EE00001D0002003900398C5E700002DE9F041C0
:103EF00005460E461648076816480068001D00F083
:103F000031FB681C38B936B112480168091D1248E6
:103F100000F055FB1AE07C190E4800684460BC4272
:103F200007D20C480168091D0C48006800F1B9F976
:103F30000CE008480168091D0948006800F1B1F962
:103F400008480068844201D206480460BDE8F08158
:103F50009C000024880000246409002490000024B0
:103F60008C000024B800002410B5044600F1B4F918
:103F700024480068401C234908602348006840B971
:103F8000214804600846006801280DD1FFF0A2FF17
:103F90000AE01E48006838B91B480068C06AE16A38
:103FA000884201D81848046019480068401C184924
:103FB00008600846006860641649E06A096888423B
:103FC00002D91449E06A0860E16A01EB8101124AF2
:103FD00002EB8100211D00F0F2FA00F0FDFA0B481F
:103FE000006868B108480068C06AE16A884207D280
:103FF0004FF0805009490860BFF34F8FBFF36F8FB8
:1040000010BD00009800002488000024A4000024B3
:10401000B4000024A0000024B404002404ED00E057
:1040200010B516E000F158F90C48C068C468201DAE
:1040300000F098FA0A480068401E094908600948DB
:104040000068401E0749086000F0C6FA204600F0EC
:104050004AF8044800680028E4D110BD5009002443
:1040600098000024940000242DE9F04104460F46F6
:1040700015464FF00008A66B206C48B92068002850
:104080002CD1A06800F1AEFE80460020A06025E0A3
:104090007DB93946226C6068FCF7B4F9216C606820
:1040A00008446060D4E90101884217D32068606049
:1040B00014E03946226CE068FCF7A4F9216CE06852
:1040C000411AE1602168E068884203D2216CA0684F
:1040D000411AE160022D01D106B1761E701CA06369
:1040E0004046BDE8F08110B5044694F8590030B957
:1040F000206B00F11BF9204600F118F91AE094F842
:104100005900012803D1204600F110F912E094F87B
:104110005900022801D1012000E0002050B900BF61
:10412000502080F31188BFF34F8FBFF36F8F00BF14
:1041300000BFFEE710BD00000146084A1268126881
:104140000AB9012200E000220A600A6822B9034A83
:104150001268D268106800E000207047C400002494
:104160002DE9F04106460D4617469846069C0DB9C6
:10417000246000E02760E66325640121204600F109
:10418000C7FB84F84C80BDE8F081000010B5014603
:10419000164800E0006803688B42FBD30246436880
:1041A00013448B4204D143684C6823444360014666
:1041B0000A464B6813440468A34211D10C4C0368AF
:1041C0002468A34208D04B680468646823444B60A9
:1041D00003681B680B6005E0054B1B680B6001E082
:1041E00003680B60884200D0016010BDDC00002431
:1041F000E40000242DE9F04104460D4616461F4612
:104200004FF0000865602461B5420CD8F01BA1692D
:10421000884202D34FF0010811E0211D09480068CF
:1042200000F13FF80BE0BE4204D2BD4202D34FF092
:10423000010804E0211D0448006800F132F84046FE
:10424000BDE8F081C8000024C400002470B5054614
:1042500000F142F8A86B08B9012400E0002400F046
:10426000BBF9204670BD0000F8B505460F461A4858
:104270000068C068C468201D00F074F994F8280034
:1042800000F00400E8B1A06941192B463A462046E7
:10429000FFF7B0FFD8B1002003462A460146009040
:1042A000204600F179FE064656B900BF502080F343
:1042B0001188BFF34F8FBFF36F8F00BF00BFFEE7C2
:1042C00005E094F8280020F0010084F8280020463A
:1042D000216A8847F8BD0000C400002470B5044678
:1042E00000F0CCFD054607480068854204D200F086
:1042F0000BF80120206001E00020206001480560EB
:10430000284670BDD40000242DE9F84334E0254848
:104310000068C068056823480068C068C468201D3C
:1043200000F020F92046216A884794F8280000F020
:10433000040008B3A0694619AE4207D9666024613B
:10434000211D18480068FFF0ACFF15E0002003466F
:104350002A4601460090204600F11EFE074657B946
:1043600000BF502080F31188BFF34F8FBFF36F8FD2
:1043700000BF00BFFEE700BF0A480068006808B938
:10438000012000E000200028C1D00648D0F80080BD
:1043900005480068034908600348C0F80080BDE88C
:1043A000F8830000C4000024C80000240E48006800
:1043B000401C08B9012000E0002050B900BF502087
:1043C00080F31188BFF34F8FBFF36F8F00BF00BF23
:1043D000FEE700BF502080F31188BFF34F8FBFF37B
:1043E0006F8F00BF00BFFEE7FC0000242DE9F04105
:1043F00004464FF0000800F0B5F94948006808B9D4
:10440000FFF0B6FC474800682040002870D1D4B1C6
:10441000083404F00700B0B104F00700C0F1080050
:10442000044404F0070008B9012000E0002050B95E
:1044300000BF502080F31188BFF34F8FBFF36F8F01
:1044400000BF00BFFEE7002C52D03748006884420E
:104450004ED8364E3046056801E02E462D68686815
:10446000A04202D228680028F7D12D480068854272
:104470003ED0306800F10808286830606868001B8A
:10448000102819D92F1907F0070008B9012000E0FA
:10449000002050B900BF502080F31188BFF34F8F28
:1044A000BFF36F8F00BF00BFFEE76868001B786036
:1044B0006C603846FFF76AFE1B4968680968081A8D
:1044C000194908600846006819490968884203D2FA
:1044D0001548006816490860124968680968084369
:1044E00068600020286013480068401C114908607B
:1044F00000F06CFD08F0070008B9012000E0002082
:1045000050B900BF502080F31188BFF34F8FBFF325
:104510006F8F00BF00BFFEE74046BDE8F08100009E
:10452000E4000024F8000024E8000024DC0000245B
:10453000EC000024F0000024001F4FF080730360A3
:10454000001F21F001030360001F054B03601438B6
:104550000260001F6FF00203036020387047000004
:10456000AD43000801460A69D1E901309860D1E9FC
:10457000010358605068884201D18868506000206B
:1045800008611068401E106010687047034B03609C
:10459000034B0B608023136070470000900A0024D7
:1045A000EC0A002400F1080141604FF0FF31816006
:1045B00000F10801C160016100210160704742689B
:1045C0004A6093688B6093685960916008610368E2
:1045D0005B1C0360704700000D48006850B900BFC5
:1045E000502080F31188BFF34F8FBFF36F8F00BF50
:1045F00000BFFEE706480068401E054908600846FF
:10460000006820B9002080F3118800BF00BF704708
:10461000FC00002470B5FBF7E5FE0446102C16D311
:1046200004F1E02090F8F05315480078854201DB52
:10463000012000E0002050B900BF502080F3118815
:10464000BFF34F8FBFF36F8F00BF00BFFEE70D4872
:10465000006800F4E0600C490968884201D8012034
:1046600000E0002050B900BF502080F31188BFF354
:104670004F8FBFF36F8F00BF00BFFEE770BD00001C
:10468000000100240CED00E00401002470B5044694
:104690000D4654B900BF502080F31188BFF34F8FEF
:1046A000BFF36F8F00BF00BFFEE7054801681831F8
:1046B0002046FFF0F6FD01212846FFF717FC70BDEC
:1046C0008800002470B505460E462148006808B1F0
:1046D000012000E0002050B900BF502080F3118875
:1046E000BFF34F8FBFF36F8F00BF00BFFEE746F0F1
:1046F00000402860EC6854B900BF502080F3118856
:10470000BFF34F8FBFF36F8F00BF00BFFEE7284698
:10471000FFF728FF201DFFF725FF0E49E06A096813
:10472000884202D90B49E06A0860E16A01EB810125
:10473000094A02EB8100211DFFF741FF0749E06AAA
:104740000968C96A884202D901200549086070BD1C
:10475000C0000024A0000024B40400248800002429
:10476000AC00002402480068401C01490860704702
:10477000C00000241E48006818B101201D490860CF
:1047800034E000201B4908601B4801680CE051B967
:1047900000BF502080F31188BFF34F8FBFF36F8F9E
:1047A00000BF00BFFEE7491E01EB8100134A52F82B
:1047B000200008B9012000E000200028E7D101EB2B
:1047C00081020E4B03EB820042685268426000F1A6
:1047D00008024368934202D14268526842604268CC
:1047E000D268074B1A600448016000BF70470000A0
:1047F000C0000024AC000024A0000024B404002465
:104800008800002438B5054655B900BF502080F314
:104810001188BFF34F8FBFF36F8F00BF00BFFEE75C
:10482000202000900098202801D1012000E00020E5
:1048300050B900BF502080F31188BFF34F8FBFF3F2
:104840006F8F00BF00BFFEE72C4634B10020206010
:10485000201DFFF7A7FE01202077204638BD70B548
:1048600001460B4600BF5025EFF3118085F31188F8
:10487000BFF34F8FBFF36F8F00BF02461C68104617
:1048800080F3118800BF204670BD00002DE9F04183
:1048900004460D46164633462A462146034800F094
:1048A00017FC07463846BDE8F08100008D4210082D
:1048B0001CB5524800685249884201D0012000E0EE
:1048C000002050B900BF502080F31188BFF34F8FF4
:1048D000BFF36F8F00BF00BFFEE74848006848493C
:1048E000491E884201D0012000E0002050B900BFDD
:1048F000502080F31188BFF34F8FBFF36F8F00BF3D
:1049000000BFFEE73F49084600780190FF200A46B5
:1049100010700846007800909DF8000000F0F0004C
:104920009DF80020904201D1012000E0002050B904
:1049300000BF502080F31188BFF34F8FBFF36F8FFC
:1049400000BF00BFFEE79DF8000000F050002E4AB7
:10495000107007202D4A106009E02C480068401EA6
:104960002A4A10609DF800004006000E00909DF855
:10497000000000F080008028EFD024480068C0F1DB
:104980000700042801D1012000E0002050B900BF39
:10499000502080F31188BFF34F8FBFF36F8F00BF9C
:1049A00000BFFEE7194800680002184A1060104670
:1049B000008800F4E0601060124A019810700F48FF
:1049C0002030006840F470000C492031086008462F
:1049D000006840F070400860FFF0FAFC00200C49CD
:1049E0000860FBF7C7FC0B48006840F040400949ED
:1049F0000860FBF7ABFC00201CBD000000ED00E0F0
:104A000071C20F4100E400E0000100240401002411
:104A1000FC00002434EF00E070B505460E460DB1F1
:104A2000012000E0002050B900BF502080F3118821
:104A3000BFF34F8FBFF36F8F00BF00BFFEE7AE42E3
:104A400001D8012000E0002050B900BF502080F3C1
:104A50001188BFF34F8FBFF36F8F00BF00BFFEE71A
:104A6000022200212846FFF025FF044604B1A66378
:104A7000204670BDF8B505460E4617460DB101201B
:104A800000E0002050B900BF502080F31188BFF330
:104A90004F8FBFF36F8F00BF00BFFEE7AE4201D85C
:104AA000012000E0002050B900BF502080F31188A1
:104AB000BFF34F8FBFF36F8F00BF00BFFEE7022031
:104AC0003B46002211460090284600F005F80446B7
:104AD00004B1A6632046F8BD2DE9F84380460E4692
:104AE00017461D46DDF82090B8F1000F01D00120D7
:104AF00000E0002050B900BF502080F31188BFF3C0
:104B00004F8FBFF36F8F00BF00BFFEE70DB10120D5
:104B100000E0002050B900BF502080F31188BFF39F
:104B20004F8FBFF36F8F00BF00BFFEE707B10EB11D
:104B3000012000E0002050B900BF502080F3118810
:104B4000BFF34F8FBFF36F8F00BF00BFFEE707B902
:104B50000EB9012000E0002050B900BF502080F3C2
:104B60001188BFF34F8FBFF36F8F00BF00BFFEE709
:104B7000502000900098502801D1012000E0002032
:104B800050B900BF502080F31188BFF34F8FBFF39F
:104B90006F8F00BF00BFFEE700BF2C464CB1012065
:104BA00084F846004B463A46314640460094FFF7AB
:104BB000D7FA2046BDE8F8832DE9FF4383B00646C7
:104BC00088461D464FF00009344654B900BF5020B6
:104BD00080F31188BFF34F8FBFF36F8F00BF00BF0B
:104BE000FEE7B8F1000F01D1206C08B9012000E008
:104BF000002050B900BF502080F31188BFF34F8FC1
:104C0000BFF36F8F00BF00BFFEE7022D02D1E06B44
:104C1000012801D1012000E0002050B900BF502040
:104C200080F31188BFF34F8FBFF36F8F00BF00BFBA
:104C3000FEE700F013F908B9059808B9012000E073
:104C4000002050B900BF502080F31188BFF34F8F70
:104C5000BFF36F8F00BF00BFFEE700BFFFF03CFB5C
:104C6000A06BE16B884201D3022D28D12A46414630
:104C70002046FFF7F9F90746606A08B9012000E00D
:104C8000002068B904F1240000F1FEF888B14FF06B
:104C9000805032490860BFF34F8FBFF36F8F08E039
:104CA0003FB14FF080502D490860BFF34F8FBFF3E5
:104CB0006F8FFFF791FC012007B0BDE8F0830598E6
:104CC00018B9FFF789FC0020F6E7B9F1000F04D10D
:104CD00001A8FFF02DFC4FF00109FFF77DFCFFF765
:104CE00041FDFFF0F9FA94F94400401C10B900208E
:104CF00084F8440094F94500401C10B9002084F861
:104D00004500FFF769FC05A901A8FFF001FFF0B914
:104D10002046FFF013F9A0B104F110000599FFF748
:104D2000B5FC2046FFF02DFA00F050F9002895D18F
:104D30004FF0805009490860BFF34F8FBFF36F8F6A
:104D40008CE72046FFF01DFA00F040F986E7204688
:104D5000FFF017FA00F03AF90020ADE704ED00E0AB
:104D60002DE9F84F07468A4690461E463C4654B900
:104D700000BF502080F31188BFF34F8FBFF36F8FB8
:104D800000BF00BFFEE7BAF1000F01D1206C08B9E7
:104D9000012000E0002050B900BF502080F31188AE
:104DA000BFF34F8FBFF36F8F00BF00BFFEE7022E30
:104DB00002D1E06B012801D1012000E0002050B9B0
:104DC00000BF502080F31188BFF34F8FBFF36F8F68
:104DD00000BF00BFFEE7FFF71DFC00BF5021EFF34F
:104DE000118081F31188BFF34F8FBFF36F8F00BF26
:104DF0000546A06BE16B884201D3022E25D194F9C0
:104E000045B0A06B0090324651462046FFF72CF982
:104E10000BF1010088B9606A08B9012000E00020A8
:104E200050B904F1240000F12FF828B1B8F1000FB7
:104E300002D00120C8F8000004E00BF1010040B2EC
:104E400084F845004FF0010901E04FF0000900BF70
:104E500085F3118800BF4846BDE8F88F0549096809
:104E600009B9012005E00449096809B9022000E0F8
:104E700000207047A4000024C000002401490868F5
:104E8000704700009C0000242DE9F0414FF000081D
:104E90004348006800287BD142480068451C4148CF
:104EA000056015BB40480068006808B9012000E0B3
:104EB000002050B900BF502080F31188BFF34F8FFE
:104EC000BFF36F8F00BF00BFFEE737480768374862
:104ED0000068354908603548076035480068401C5F
:104EE00033490860FFF026F900BF32480068854268
:104EF0003BD300BF2C480068006808B9012000E0DF
:104F0000002020B14FF0FF302A4908602CE02648ED
:104F10000068C068C4686668B54202D22548066069
:104F200022E0201DFFF71EFBA06A18B104F1180053
:104F3000FFF718FB2049E06A0968884202D91E4938
:104F4000E06A0860E16A01EB81011C4A02EB810022
:104F5000211DFFF734FB1A49E06A0968C96A8842D3
:104F6000C8D34FF00108C5E700BF15480068C06A04
:104F700000EB8000114951F82000012801D94FF0C1
:104F800001081048006808B14FF0010805E0FFE78C
:104F90000D480068401C0C4908604046BDE8F0819F
:104FA000C00000249C0000248C00002490000024F9
:104FB000B0000024B8000024A0000024B4040024A1
:104FC00088000024AC000024A800002470B5002450
:104FD00000263648006850B900BF502080F3118881
:104FE000BFF34F8FBFF36F8F00BF00BFFEE7FFF02F
:104FF00073F92E480068401E2C4908600846006876
:1050000000284ED12A48006800284AD023E02948C9
:10501000C068C46804F11800FFF7A4FA201DFFF768
:10502000A1FA2549E06A0968884202D92249E06A62
:105030000860E16A01EB8101204A02EB8100211D39
:10504000FFF7BDFA1E49E06A0968C96A884202D3BF
:1050500001201C4908601748006808B9012000E0D9
:1050600000200028D3D00CB1FFF064F81648056882
:1050700065B100BFFFF708FF10B1012011490860BA
:105080006D1E002DF6D100200F4908600D48006804
:1050900038B1012630070D490860BFF34F8FBFF3C9
:1050A0006F8FFFF799FA304670BD0000C0000024F2
:1050B000980000243C090024A0000024B40400242B
:1050C00088000024AC000024A800002404ED00E0C7
:1050D0002DE9FF4104460D4616461F466FF00100BC
:1050E000009001940295039600233A4669460448CD
:1050F0000068FFF735FE8046404604B0BDE8F08109
:10510000CC0000240000000001020304010203049B
:10511000060708093A7474003A747400506F736992
:1051200074696F6E4576656E74315F4D5043310022
:10513000506F736974696F6E4576656E74325F4D3A
:1051400050433100506F736974696F6E4576656EB8
:1051500074335F4D50433100506F736974696F6EE3
:105160004576656E74345F4D50433100506F7369FE
:1051700074696F6E4576656E74315F4D50433200D1
:10518000506F736974696F6E4576656E74325F4DEA
:1051900050433200506F736974696F6E4576656E67
:1051A00074335F4D50433200506F736974696F6E92
:1051B0004576656E74345F4D504332004943546107
:1051C000736B000053796E635461736B00000000D1
:1051D0005265635F5377697463685461736B000051
:1051E000416C61726D5461736B000000486F6C65B7
:1051F00073436F756E74696E6753656D00000000D0
:10520000486F6C655F6C64656E7469667900000058
:10521000305200080000002414010000D4020008ED
:10522000445300081401002494530000F0020008C5
:10523000000001000000000000000000000000006D
:10524000000000000000000000000000000000005E
:10525000000000000000000000000000000000004E
:10526000000000000000000000000000000000003E
:10527000000000000000000000000000000000002E
:10528000000000000000000000000000000000001E
:10529000000000000000000000000000000000000E
:1052A00000010000000000001000000001000000EC
:1052B0000090D0030090D003000000000000000028
:1052C00000000000000000000000000000000000DE
:1052D00000000000000000000000000000000000CE
:1052E00000000000000000000000000000000000BE
:1052F00000000000000000000000000000000000AE
:10530000000000000000000000000000000000009D
:10531000000000000000000000000000000000008D
:10532000000000000000000000000000AAAAAAAAD5
:10533000000000000000000000000000000000006D
:045340000000000069
:020000040810E2
:100000001FB505F00BF89DE8030000F7A1FC00F018
:10001000E5F81FBD10B500F04AF910BD094880474A
:1000200009480047FEE7FEE7FEE7FEE7FEE7FEE7DA
:10003000FEE7FEE7FEE7FEE704480549054A064BF2
:1000400070470000AD35100899020008A84E002442
:10005000A8540024A8500024A850002453EA020CFD
:1000600000F069802DE9F04B4FF00006002B1FBF18
:10007000B3FA83F503FA05F424FA05F65E4012BFDD
:100080001643B2FA82F502FA05F4C5F120051EBF47
:1000900022FA05FC44EA0C04203556EA044C4FEAE7
:1000A000144418BF641C4FF000084FF00009904240
:1000B00071EB030C39D3002919BFB1FA81F701FAAA
:1000C00007F6B0FA80F700FA07F6C7F120071EBF5F
:1000D00020FA07FC46EA0C062037B6FBF4FCA7EB37
:1000E0000507103F07F01F0BCBF120060CFA0BFBA6
:1000F0002CFA06F644BFB3460026202FA4BF5E4666
:100100004FF0000B5BEA060C08BF4FF0010B19EB38
:100110000B09ABFB027C48EB0608C01B06FB02CCBC
:100120000BFB03CC71EB0C01C1E70B4602464146C9
:100130004846BDE8F08B13B54FF000004FF00001CA
:10014000AFF30080BDE81C40704702F0FF0343EAB4
:10015000032242EA024200F7CEB94FF0000200B596
:10016000134694469646203922BFA0E80C50A0E8DA
:100170000C50B1F12001BFF4F7AF090728BFA0E888
:100180000C5048BF0CC05DF804EB890028BF40F854
:10019000042B08BF704748BF20F8022B11F0804F96
:1001A00018BF00F8012B7047704770477047000078
:1001B000074B70B50D467B4400F7C3F9044628464B
:1001C00000F008F810B14FF0FF3070BD204670BD50
:1001D000313BF0FF007B00F08000704710B54248D3
:1001E0005421FFF7BAFF41485421FFF7B6FF4048BA
:1001F0005421FFF7B2FF3F493B483C4A3F4B086060
:100200003D490A603A491960531C0365481C106552
:10021000012008653B48344A39A1784400F7CAFAFE
:1002200020B9384878440A3800F769FB37482F4A24
:1002300035A1784400F7BEFA20B9344878440A382A
:1002400000F75DFB32482A4A2FA1784400F7B2FA42
:1002500020B92F4878440A3800F751FB4023224840
:10026000DC000021224600F0ADF820B1254878449A
:10027000543800F744FB1D4822464023002100F07B
:10028000A1F820B121487844543800F738FB1848C9
:1002900022461023002100F095F8002806D01C48C3
:1002A0007844BDE81040563800F729BB10BD10480F
:1002B00070B5006D20F001040B4800F7F1FA0B480F
:1002C00000F7EEFA0A4800F7EBFA09E0206D20F09B
:1002D0000105204600F7E4FA204600F745F92C46D0
:1002E000002CF3D170BD0000484D00249C4D00242B
:1002F000F04D0024080100240C010024100100240A
:1003000072000000F64EF0FF770000005E4F000024
:10031000CA4EF0FF0EB5CDE9000100F75DFC02907A
:1003200069460120ABBE0EBD08B5694600900220AB
:10033000ABBE08BD1FB58DE8070069460520ABBE02
:1003400004B010BD1FB58DE80F0069460620ABBE96
:10035000F6E708B5694600900920ABBE08BD1CB59C
:10036000CDE9000169460A20ABBE1CBD704708B547
:10037000694600900C20ABBE08BD754600F7C6FA72
:10038000AE4605006946534620F00700854618B082
:1003900020B5FFF751FEBDE820404FF000064FF0BA
:1003A00000074FF000084FF0000B21F00701AC46AA
:1003B000ACE8C009ACE8C009ACE8C009ACE8C009C9
:1003C0008D46704770B5C468A50713D0650211D477
:1003D000B2F5807F09D0B2F5007F06D0B2F5806F0C
:1003E00008D1012300F1240106E05D1E6FF07F4675
:1003F000B54201D3012070BD0161C361416024F4A5
:1004000070611143C160002070BD70B5064600F7F1
:1004100083FA056806F10B0020F00704B4429CBF84
:10042000002070BD2B466A68BAB11068A04210D394
:1004300004F1080188423CBF5068586007D35168F6
:10044000101941601168091B016058601460101D8B
:1004500070BD13465268002AE7D12146284600F7AE
:1004600063FA0028DED170BD01491820ABBEFEE75B
:100470002600020000210160C0E901107047102031
:100480007047034640688C46002818BF88423CBF2E
:1004900003464068F8D318681844884207D00CF126
:1004A000030020F00700001D411A521A0146081DE2
:1004B0000A6000F759B810B50146C268900703D02A
:1004C000900607D5886A0AE000F01EF80121016055
:1004D000881E10BD8B69486818440B69C01A91F8D2
:1004E00048301BB191F84910401A10BD1103FCD5DA
:1004F0000028FADD401E10BD08B569468DF80000E1
:100500000320ABBE08BD000000487047444E0024E5
:1005100010B5012805D0002103A000F77CFB0120C5
:1005200010BD09A1F8E7000053494752544D454D0D
:100530003A204F7574206F662068656170206D6584
:100540006D6F7279000000003A2048656170206D7F
:10055000656D6F727920636F727275707465640077
:1005600000BFFEE710B500220221054800F76CFD30
:1005700000224FF40041034800F766FD10BD000063
:10058000000C02580004025810B500220121054851
:1005900000F75AFD00224FF48071024800F754FD25
:1005A00010BD0000000C025810B50122114604488D
:1005B00000F74AFD01221102014800F745FD10BD78
:1005C000000C02582DE9F041044600F743FD804637
:1005D00014B90120BDE8F08194F83500022808D054
:1005E0008020606500BF002084F8340000BF012037
:1005F000F0E7FE492068884249D0FC49183120685C
:10060000884244D0F9493031206888423FD0F749C8
:100610004831206888423AD0F449603120688842E5
:1006200035D0F24978312068884230D0EF49903196
:10063000206888422BD0ED49A8312068884226D016
:10064000EB492068884222D0E94918312068884265
:100650001DD0E74930312068884218D0E44948313C
:100660002068884213D0E2496031206888420ED069
:10067000DF4978312068884209D0DD49903120680F
:10068000884204D0DA49A8312068884201D101208B
:1006900000E0002068B12068006820F01E0021689A
:1006A00008602068406920F0800021684861256862
:1006B00006E02068006820F00E00216808602568C8
:1006C000CA492068884270D0C849183120688842D9
:1006D0006BD0C64930312068884266D0C349483162
:1006E0002068884261D0C1496031206888425CD06E
:1006F000BE4978312068884257D0BC499031206883
:10070000884252D0B949A831206888424DD0B849B2
:100710002068884249D0B64918312068884244D0C0
:10072000B3493031206888423FD0B1494831206810
:1007300088423AD0AE4960312068884235D0AC4911
:1007400078312068884230D0A949903120688842A9
:100750002BD0A749A8312068884226D0A549206817
:10076000884222D0A3491431206888421DD0A14973
:1007700028312068884218D09E493C312068884240
:1007800013D09C495031206888420ED09949643179
