:020000040800F2
:1000000028DD0120C101000895390008F9380008F1
:1000100091390008150800085D5B00080000000029
:10002000000000000000000000000000D3010008F4
:10003000AD08000800000000D7010008353E0008A8
:10004000DB010008DB010008DB010008DB01000820
:10005000DB010008DB010008DB010008DB01000810
:10006000DB010008DB010008DB010008DB01000800
:10007000DB010008DB010008DB010008DB010008F0
:10008000DB010008DB010008DB010008DB010008E0
:10009000DB010008DB010008DB010008B1080008F3
:1000A000DB010008DB010008DB010008DB010008C0
:1000B000DB010008F13E0008DB010008DB0100085D
:1000C000DB010008DB010008DB010008DB010008A0
:1000D000DB010008DB010008DB010008DB01000890
:1000E000DB010008DB010008DB010008DB01000880
:1000F000DB010008DB010008DB010008DB01000870
:10010000DB010008DB010008DB010008DB0100085F
:10011000DB010008DB010008DB010008DB0100084F
:10012000DB010008DB010008DB010008DB0100083F
:10013000DB010008DB010008DB010008DB0100082F
:10014000DB010008DB010008DB0100089939000829
:10015000DB010008DB010008DB010008C1410008E9
:10016000DB010008DB010008DB010008DB010008FF
:10017000DB010008DB010008DB01000800000000D3
:10018000DB010008DB010008DB010008DB010008DF
:10019000DB010008DB010008DB010008DB010008CF
:1001A0000000000000000000DB010008DFF80CD0B8
:1001B00000F0ECFA004800475565000828DD0120F2
:1001C0000648804706480047FEE7FEE7FEE7FEE7F1
:1001D000FEE7FEE7FEE7FEE7FEE7FEE7DD3E00089E
:1001E000AD0100082DE9F05F0546002092469B46D0
:1001F00088460646814640241BE02846414647463D
:10020000224600F013FA53465A46C01A914110D3C1
:1002100011461846224600F0FAF92D1A67EB01083C
:100220004F4622460120002100F0F1F917EB0009AA
:100230004E41201EA4F10104DFDC484631462A4627
:100240004346BDE8F09F10B5431A934209D2831884
:10025000881803E010F8011D03F8011D521EF9D2A1
:1002600010BD40EA01039B0703D009E008C9121F33
:1002700008C0042AFAD203E011F8013B00F8013B60
:10028000521EF9D210BDD2B201E000F8012B491E76
:10029000FBD270470022F6E710B513460A46044623
:1002A0001946FFF7F0FF204610BD421C10F8011B55
:1002B0000029FBD1801A704730B504460020034660
:1002C00000E05B1C934203D2E05CCD5C401BF8D0A5
:1002D00030BD2DE9FE4F804681EA0300C00F0C4679
:1002E000009021F0004123F00045B8EB0200A94145
:1002F00005D24046214690461C460B46024623F056
:100300000040104347D0270DC7F30A00C3F30A513A
:100310000290401A019040286BDAC3F3130040F4B6
:10032000801B0098924620B10023D2EB030A63EBB6
:100330000B0B01985946C0F14002504600F067F996
:1003400006460D4650465946019A00F07FF910EBDB
:1003500008006141002487EA115284EAE7731A43D6
:1003600040D0009A62B3019A012A4FEA075215DC85
:10037000001B61EB02014FF0004202EA0752CDE997
:100380000042001C41F5801132462B4600F07FF9F7
:1003900003B0BDE8F08F40462146F9E7001B61EB52
:1003A0000201001C41F5801300185B412018A2F5E2
:1003B000001747EB030140EAD570B6196D4111E013
:1003C0006D084FEA360645EAC0754FEA0752001B32
:1003D00061EB0201001C41F5801149084FEA300031
:1003E0000019514132462B4603B0BDE8F04F00F0F2
:1003F0003FB90098012240000023D0EB020263EBDA
:10040000E073009821464FEAE074B8EB000061EB1E
:100410000401E9E783F000435BE781F0004158E71E
:100420002DE9FE4F81EA030404F0004421F000416D
:1004300000944FF0000B23F0004350EA01045ED01B
:1004400052EA03045BD0C3F30A54C1F30A552C44A7
:10045000A4F2F3340194A0FB0254C1F3130141F45C
:100460008011C3F3130343F4801301FB024400FB28
:10047000034E840A970A44EA815447EA8357A4FB4F
:10048000076802958D0A05FB07854FEA932C04FB4C
:100490000C542705029D4FEA065847EA1637B5EB7C
:1004A00008056EEB070C870E920E47EA811742EAA9
:1004B0008312A7FB0201B6EB0B0164EB00042B0DCA
:1004C00043EA0C335E1844EB1C50DA465146E7FB16
:1004D0000201C5F313044FEA0B3343EA14534FEA06
:1004E0000432019C43EA0603A4F10C040294009C2C
:1004F000CDE900B400F0CBF803B0BDE8F08F0020E8
:100500000146F9E72DE9F04D81EA030404F0004BC0
:1005100021F0004514464FF0000A23F0004150EA54
:10052000050220D054EA01021DD0C5F30A57024645
:10053000C5F31303C1F31300C1F30A5640F4801549
:1005400043F48013A7EB0608101BD64608F2FD38CB
:1005500073EB050002D308F1010801E092185B413A
:10056000B8F1000F03DA00200146BDE8F08D00204D
:100570004FF48011064684460EE0171B73EB050707
:1005800005D3121B63EB050306434CEA010C490833
:100590004FEA300092185B4150EA0107EDD152EA70
:1005A000030012D082EA040083EA0501084305D063
:1005B000101BAB4106D20122002306E000224FF0BF
:1005C000004302E06FF0010253101AEB06004CEBFF
:1005D000085110EB0A0041EB0B01BDE8F04D00F0B3
:1005E00047B830B50B46014600202022012409E01F
:1005F00021FA02F59D4205D303FA02F5491B04FADC
:1006000002F52844151EA2F10102F1DC30BD202ABA
:1006100004DB203A00FA02F1002070479140C2F159
:10062000200320FA03F3194390407047202A04DB8B
:10063000203A21FA02F00021704721FA02F3D0405B
:10064000C2F120029140084319467047202A06DB78
:10065000CB17203A41FA02F043EAE07306E041FA90
:1006600002F3D040C2F1200291400843194670477E
:1006700010B5141E73F1000408DA401C41F10001AA
:1006800092185B411A4301D120F0010010BD2DE901
:10069000F04D92469B4611B1B1FA81F202E0B0FAF8
:1006A00080F220329046FFF7B2FF04460F4640EA40
:1006B0000A0041EA0B0153465A46084313D011463B
:1006C00053EA010019D0C8F140025046FFF7AEFFCF
:1006D00005460E46504659464246FFF798FF0843E6
:1006E00005D0012004E020463946BDE8F08D002009
:1006F000054346EAE0762C4337430A986305E40A4B
:10070000A0EB08000022FD0A44EA47540A3002D553
:1007100000200146E9E7010510196941DDE90845B6
:1007200000196941BDE8F04DA2E7C1F30A52C1F3D7
:10073000130140F2FF3341F480119A4202DA0020A3
:100740000146704740F233439A42A2F2334202DC40
:100750005242FFF76BBFFFF75ABF000030B5041ECF
:1007600071F1000404DB4FF00044404264EB0101EE
:10077000141E73F1000405DB1C464FF00043524287
:1007800063EB0403994208BF904230BD1CB5094891
:100790000090094801900546009C06E0E06840F0A2
:1007A000010394E8070098471034AC42F6D3FFF7F2
:1007B00001FD0000D07C0008F07C000870B58C18AA
:1007C00010F8015B15F0070301D110F8013B2A1165
:1007D00006D110F8012B03E010F8016B01F8016B52
:1007E0005B1EF9D12B0705D40023521E0DD401F84E
:1007F000013BFAE710F8013BCB1A921C03E013F817
:10080000015B01F8015B521EF9D5A142D8D300204B
:1008100070BD0000FEE70000212811D0202822D161
:1008200040F208024879C2F20002D1F800C00B7908
:1008300050718879137190710020C2F800C0704720
:1008400040F20800C2F2000002680A700268120A50
:100850004A7042888A70C278CA7002790A714279F5
:100860004A7180798871002070470000002070472D
:1008700080B540F2C02041F25E41C2F20000C2F2F7
:10088000000103F0B5FD002080BD0000B0B50546B5
:1008900040F2C020C2F200000C4603F08BFD21683C
:1008A000284606F059FB0020B0BD0000704700004C
:1008B000402000F043BA00007047000080B543F6C6
:1008C000104EC4F2020EDEF800C04FF440722CF459
:1008D0004073CEF80030DEF80030032938BF0A023A
:1008E00043EA0201CEF80010DEF80010202221F0C9
:1008F000F801CEF80010DEF80030C1000B2888BFE8
:1009000002EBC00141EA030040F00200CEF8000013
:10091000DEF8000040F48030CEF8000080BD00001A
:100920002DE9F0414CF64028044643F60C46C2F24D
:1009300001080020C4F20206C8F81C0000F0DAFA30
:100940003168C9034ED43068C0071CBF0120306035
:10095000306810F4F97F4CD03068C00607D5D8F85D
:100960001C0040F01000C8F81C00102030603068F7
:10097000800607D5D8F81C0040F00800C8F81C0015
:10098000202030603068400607D5D8F81C0040F0C1
:100990000400C8F81C00402030603068000607D50D
:1009A000D8F81C0040F00200C8F81C00802030601D
:1009B0003068C00508D5D8F81C0040F00100C8F820
:1009C0001C004FF4807030603068800707D5D8F87D
:1009D0001C0040F02000C8F81C00022030600120FC
:1009E000BDE8F0810546671C06D054B90320BDE878
:1009F000F0810020BDE8F0813068C003A3D5002F4E
:100A0000FAD000F077FA401BA042F5D90320BDE8E8
:100A1000F0810000B3F5804F034619D1B0B553F80B
:100A200022C00020CCF6F0700CEA000E91E83100F4
:100A3000D1F818C040EA0E0040EA0410C96840EA44
:100A4000052040EA0C0040EA0141BDE8B04001E069
:100A50006FF07041002043F8221070472DE9F04FED
:100A600083B00B68024650F8230001F1240B20F0FC
:100A7000010042F82300D1E902C0D1E900E301906E
:100A80008869D1E9049A0290C86BD1E90776009091
:100A90009BE83008D1F8308052F82E008021CFF644
:100AA000F0710840BCF1080F08BF43F04003019902
:100AB000194341EA090141EA0A013943314321431B
:100AC000294341EA0B01029B41EA08011943009BBB
:100AD0001943084340EA0C01002042F82E1003B0ED
:100AE000BDE8F08FF0B500EB82025068D1E902E476
:100AF00000F0404CD1E90030D1E9045643EA0C0340
:100B0000002743EA0010CFF6F07740EA0E2089690B
:100B100007EB055540EA04402843FE36084340EA07
:100B2000066100205160F0BD70B5866D044600F08E
:100B3000E1F994F83510022925D105462068216C89
:100B4000026822F016020260426922F080024261CD
:100B500009B9A16C19B1016821F0080101600168AF
:100B600021F00101016000BF20680068C0070ED0BD
:100B700000F0C0F9401B0628F6D320206065032052
:100B800084F835000CE080206065012008E0E06D0D
:100B90003F2101FA00F0B060012084F83500002008
:100BA000002184F8341070BD90F83510022909D165
:100BB000052180F835100068016821F0010101600D
:100BC00000207047802141650120704780B54EF2BA
:100BD000180140F28C12CEF20001C2F2000251F86C
:100BE00004CC126880B250434FF47A7200FB02FECC
:100BF000086800230A688242FCD003449B1A8242A0
:100C000028BF63447345104628BF80BDF2E700004B
:100C100043F61041C4F20201086840F0004200208F
:100C20000A6070472DE9F0414CF64024C2F20104FD
:100C3000277E012F04BF0220BDE8F0810546012078
:100C400020764CF2503098460F461646FFF768FE65
:100C500000284CD12A46022D43F61045C4F2020565
:100C60001ED0012A314638460CD03ABB2A6822F4FD
:100C700040722A602A682A602A6842F001022A60CB
:100C800001702CE02A6822F440722A602A6842F43B
:100C900080722A602A6842F001022A6001801EE008
:100CA000286820F440702860286840F400702860AC
:100CB000286840F0010028603E6010E02A6822F4B5
:100CC00040722A602A6842F440722A602A6842F020
:100CD00001022A600160BFF36F8FC0F804804CF2FC
:100CE0005030FFF71DFE296821F001012960002125
:100CF0002176BDE8F081000043F60440C4F2020012
:100D0000C168B1F1FF3FC4BF0020704740F223111A
:100D1000C4F26751016048F6AB11CCF6EF510160A7
:100D2000C068C00F70470000402818BF704740F6E9
:100D30002C10C2F2000001210170704743F61441EB
:100D4000C4F201010A68024214BF08607047FFF74D
:100D5000EBBF00002DE9F04F83B000F1200200F15D
:100D60003E4742F20045009207F1FF77C4F20205C8
:100D70000A224FEAB726A84208BF0922092E38BF27
:100D80004FEAB72200274FF0000A4FF00008019207
:100D90000AE000BF08F101080AF1020AB8F1100FD9
:100DA00007F1040700F09D800D68012202FA08FC9B
:100DB00015EA0C09EED04D68032205F0030BABF1E8
:100DC0000106012E02FA0AFE10D88668CC6826EACF
:100DD0000E0604FA0AF4344384604468C5F300152F
:100DE00024EA0C0605FA08F52E434660BBF1030F12
:100DF0001BD0C6688D6826EA0E0605FA0AF52E4352
:100E0000BBF1020FC66010D16FF00302009D02EA31
:100E1000580655F806C007F01C040F220B69A240C3
:100E20002CEA0202A3401A43AA5102684B6822EA44
:100E30000E0203F0030606FA0AF6324313F4403FAB
:100E40000260A7D0002243F644030292C4F20203D8
:100E50001A6843F6004442F480421A601A68C4F2E9
:100E6000010402F480420292029A28F003024FF633
:100E7000084C2244CFF6FF7C52F80C3007F00C06E9
:100E80000F25B540AB43019D05FA06F6334342F802
:100E90000C30A2684B6842EA090643F60C4CDD02AE
:100EA00058BF22EA0906A660C4F2010CDCF8002053
:100EB0009D0242EA090658BF22EA0906CCF8006002
:100EC00062689D0342EA090658BF22EA0906666085
:100ED0002268DB0342EA090658BF22EA09062660B7
:100EE00058E703B0BDE8F08F002A08BF090481610C
:100EF000704700004DF21450C2F2010000687047C4
:100F000040F236204DF21451C2F20000C2F201014B
:100F100000780A68104408607047000080B543F606
:100F20000040C4F20200016841F4007101600168F0
:100F300041F480610160016841F480710160032027
:100F400000F070F80F2000F005F800F02BF80020FA
:100F500080BD0000B0B540F23622C2F2000240F27D
:100F600010011278C2F200014FF47A730968B3FBE2
:100F7000F2F20446B1FBF2F1084601F08DFC0F2CB1
:100F80004FF001050CD858B94FF0FF302146002230
:100F9000002500F01BF840F23820C2F20000046087
:100FA0002846B0BD70470000002848BF704700F0D9
:100FB0001F01012202FA01F11C2202EAD0004EF2C6
:100FC0000012CEF2000281507047000010B54EF6BC
:100FD0000C5CCEF2000CDCF80030C3F3022E8EF075
:100FE0000704042C28BF0424BEF103034FF0FF3E86
:100FF0000EFA04F438BF0023A14399400EFA03F31C
:101000009A43114300F1604200F00F03090102F519
:101010006442043B6344002848BF03F10C02117092
:1010200010BD00004EF60C51CEF200010A684FF6DA
:10103000FF031A4060F30A2242F0806040F0FD7026
:1010400008607047704700000268002051627047D6
:10105000B0B5D0F800E0DEF82400D1B1DEF82830D9
:10106000B1F1010C00EB13430BD05FFA8CF10EF5DC
:101070008070002450F8045F01348C4203EB154368
:10108000F8D343EA02400EEB8C01C1F804010020C2
:10109000B0BD40EA0240CEF828000020B0BD0000FC
:1010A00040F62E11C2F2000101220A70D0F8E004CD
:1010B00003F072BB01EBC102D0F8E03400EB820018
:1010C000026A184603F0E2BA01EBC102D0F8E0343C
:1010D00000EB8200D0F86022184603F02BBB000022
:1010E00040F62E11C2F2000100220A70D0F8E0048E
:1010F00003F054BB10B54FFA81FC4FF4157201F0A8
:101100000F0EBCF1000F48BF142290F89444024423
:101110000EEBCE034FEAD11C02EB8301012C81F8C8
:1011200001C002F823E004BF022010BD02680123C1
:1011300080F894340446104604F092F8002084F8B5
:10114000940410BDB0B5037901F00F029A4284BF38
:101150000120B0BD4BB24FF41574002B48BF1424CE
:1011600000EB040E90F8944402EBC2034FEAD11C4A
:101170000EEB8301012C4FF0000481F801C08C704C
:101180000EF8232004BF0220B0BD0268012380F8BE
:1011900094340546104604F0EFF9204685F894444F
:1011A000B0BD000001F00F0101EBC10100EB8100B7
:1011B000D0F868027047000070B54FFA81FC4FF418
:1011C000157EBCF1000F01F00F0C48BF4FF0140E5C
:1011D00000EB0E040CEBCC05CE0904EB85016FF39C
:1011E000DF224E7004F825C08A600B7118BFA1F889
:1011F0001AC0022B04BF00224A7190F89424012ADD
:1012000004BF022070BD0268012380F894340446B4
:10121000104603F051FF002084F8940470BD0000D4
:1012200010B501F00F0E0EEBCE0100EB81044FF074
:10123000000CC4F868C284F855C290F806C004F5E2
:101240001571C4F86022C4F86432BCF1010F84F84F
:1012500054E208BFCA610068624604F0D3F9002076
:1012600010BD0000B0B5027901F00F0494424FF0B8
:1012700001022CD84BB24FF41575002B48BF142532
:101280004FEAD11C48BF2146054401EBC10305EBE1
:10129000830181F801C090F894C48A70BCF1010FF9
:1012A00005F8234004BF0220B0BD026801230546B3
:1012B00080F89434104604F087F92CB92868A9798D
:1012C00005F29C4204F02AF9002285F89424104685
:1012D000B0BD000001F00F0C0CEBCC0100EB810164
:1012E00001F814CF4FF0000C0B618379C1F814C0E2
:1012F0004FF0010CCA60012B81F801C008BFCA6120
:1013000080B500681A4604F07DF9002080BD000019
:101310002DE9F04F87B005688246284604F0EAFAC6
:1013200010B107B0BDE8F08FDAF8000004F010FB50
:101330000028F6D0D5F80808C0F30D21DAF800002F
:10134000CAF8D41404F004FB800705D5DAF80000CD
:10135000416901F002014161DAF8000005F5006120
:10136000049104F0F5FAC006059536D5DAF80000C8
:10137000816921F0100181612C6A04F00F0000EBFB
:10138000C0000AEB8001C4F34340062801F515753F
:1013900011D002281AD147F6F07014EA000615D0D1
:1013A000E96834090598224604F0D6FAE86800EBAB
:1013B0001610E86007E005980AF29C41082204F044
:1013C000CBFAC4F30A14686920446861DAF80000B3
:1013D000816941F010018161059DDAF8000004F097
:1013E000B7FA000340F1EC80DAF8000004F08EFA5E
:1013F000002800F0E58006460AF29C404FF4306871
:1014000000244FF0000B06901AE000BF05EB080027
:1014100002218160B80642BF05EB080020218160EF
:10142000B80442BF05EB08004FF4005181600BF196
:10143000010B760808F1200804F1240400F0C080B4
:10144000F007F4D0DAF800005FFA8BF9494604F0AF
:1014500077FA0746C0075FD005EB080001218160DD
:10146000DAF8000008EB0001036C8A689AF806506D
:10147000012D25D1150732D4950600F1998043F24C
:101480000B05C4F65475AB42059D02D312F400421D
:101490002FD10AEB0402D2F8743209696FF3DF41ED
:1014A000A3EB0101C2F8681294BBD2F86432002B9E
:1014B00000F08480D2F860020844C2F8600227E09D
:1014C00043F20B05C4F65475FF35AB4217D1059DA9
:1014D00010040ED4900644BF2020886018E043F228
:1014E0000B00C4F65470059D834215D312F40040DE
:1014F00012D04FF40040886038070FD438E0059DC3
:1015000034B9DAF8641219B90021069A04F006F821
:1015100050464946FFF7D8FD380729D505EB0800A6
:1015200008218160DAF8000043F20B02056C4044A8
:101530008168C4F65472954205D311F400411CBF72
:101540004FF400418160504600F060FB43F20B0015
:10155000C4F654708542059D0AD39AF80600012806
:1015600006D1DAF80000069A012103F0D7FF00BF88
:10157000F80642BF05EB080010218160B8077FF52F
:1015800049AF6869000604D50499486840F4806052
:1015900048600AEB040090F8571201297FF436AF37
:1015A000002180F857125046494600F04DFA2DE7C9
:1015B00020208860059D3807B0D4D9E70121A4E731
:1015C000DAF80000CDF818A004F0C2F9400340F1A9
:1015D000D1800698006804F091F9002800F0CA80D4
:1015E000064605984FF0010B00F510670698002598
:1015F00000F1140900F29C400190CDE9029704E04B
:10160000760805F1010500F0B580F007F8D00698DE
:101610005FFA85FA0068514604F080F90446C00775
:1016200026D0049A05F00F00516B0BFA00F021EA66
:101630000000506307EB4510C0F808B006988079A9
:10164000012811D105EBC50009EB8000D0E9021299
:101650001144C16045B9006930B90698019A006823
:10166000012103F05BFF00BF06985146FFF722FD02
:10167000200742BF07EB451008218160E00642BF0A
:1016800007EB451010218160600642BF07EB451053
:1016900040218160A00715D50598294604F0F8F887
:1016A00005EBC50009EB800010F8031F012905D1E7
:1016B000002101700698514600F0C2F907EB451071
:1016C0000221816020069BD505EBC50009EB80084F
:1016D000D8E90410814293D3069A081A1468D8F8FE
:1016E0000820904238BF024604EB4510D0F8181984
:1016F000033289B2B1EB920F28D300F5106900BF15
:10170000D8E90420824221D9101A069AD8E902B1F8
:101710009779584538BF83461FFA8BF320465246C7
:10172000009704F007FAD8F80C00D8F814105844C1
:10173000C8F80C0001EB0B00C8F81400D9F8180029
:101740000BF1030180B2B0EB910FD9D2D8E90401BB
:10175000DDE9029788424FF0010B3FF651AF05F0EB
:101760000F00D4F834180BFA00F021EA0000C4F896
:10177000340845E7069C206804F0EAF8059DB0F1BE
:10178000FF3F18DC0499486820F00100486094F895
:10179000CC04012807D1002084F8CC042046002185
:1017A000FFF750FC02E0204600F014FA206841697F
:1017B00001F000414161206804F0CAF800050BD532
:1017C00004988068C00702D0204600F047FA2068DD
:1017D000416901F400614161206804F0B9F8C00476
:1017E0004DD50499486820F0010048602068102118
:1017F00004F04EF82079D0B105F510614FF67F3234
:101800008A600B68013823F400130B60C1F80822CA
:10181000D1F8003223F40013C1F80032D1F80032BD
:1018200043F00063C1F8003201F12001E8D1049FC8
:101830008421F869442240F00110F861E07B00281F
:101840004FF00B0008BF142108BF42F22B007B5859
:1018500008BF102218437850B85840F00B00B85019
:10186000386804F29C4220F4FE6038602068A17958
:1018700003F054FE2068416901F480514161206801
:1018800004F066F8800416D5206803F055FC206843
:1018900004F022F82568E07100F0BAFBE279014615
:1018A000284604F0BFF8204600F082F9206841691C
:1018B00001F400514161206804F04AF8000707D59F
:1018C000204600F08BF92068416901F00801416170
:1018D000206804F03DF8000627D50599886920F0B6
:1018E00080008861207902281FD304F5157804F15F
:1018F0001405012640F27B2706E000BF207901365F
:10190000864207F1240710D2E05D0128F6D106F0E7
:101910000F0000EBC0023006206805EB820158BFC3
:1019200008EB820103F066FFE8E7206804F010F896
:10193000C0022CD52079022824D3059804F114097B
:1019400000F5126504F13B064FF00108012706E09F
:10195000207901372035874206F1240612D2286803
:1019600071780129F4D1B0F1FF3FF1DC07F00F00ED
:1019700000EBC001206809EB810186F8008003F0CC
:1019800039FFE5E72068416901F480114161206871
:1019900003F0DEFF800232D52179059D022929D38B
:1019A00005F53260013904F51F72012305E000BF1F
:1019B0002030013902F124021CD007681678012E6C
:1019C000F6D1B7F1FF3FF3DCD4F8D46407F48037E5
:1019D00006F00106B742EBD102F8013CAF6947F0CF
:1019E0008007AF616F693F06E2D40499486840F40C
:1019F000007048602068416901F40011416120686D
:101A000003F0A6FF400007D52046FFF749FB2068FA
:101A1000416901F080414161206803F099FF40076E
:101A20007FF57FAC20684568680702D52046FFF740
:101A300057FB206841682943416007B0BDE8F08F3B
:101A4000D0F8E00402F0FCBED0F8E00402F00ABFD7
:101A5000002804BF01207047B0B582B00446056875
:101A600090F8950428B9002084F89404204600F0EA
:101A70005BF80320B5F1A04F84F8950404BF002063
:101A8000A071206803F042FD94E80F00257C0095CA
:101A900003F062FBB8BB2068002103F07FFF90BB1E
:101AA000207948B300EBC000800000214FF0010C0A
:101AB00000230022E51824332A75EA85984202F1B2
:101AC000010285F815C02976C5E907116962F1D1CF
:101AD00000210022002300BFA518243285F85432CB
:101AE000904203F1010385F8551285F85812C5E9B3
:101AF0009711C5F86412EFD194E80F00257C00958A
:101B000003F00EFC28B1022084F89504012002B0F5
:101B1000B0BD00206074012084F89504206803F0B3
:101B2000EFFB002002B0B0BD80B586B00068002198
:101B3000B0F1A04F0591CDE903110291019101D0BF
:101B400006B080BD43F63000C4F20200426842F0A5
:101B5000800242600091426942F4804242614269DF
:101B600002F480420092009A0091026842F0010261
:101B70000260006800F00100009000984FF4C0502F
:101B800001900220CDE90201032004900A20059073
:101B90000020C4F2020001A9FFF7DCF84320002175
:101BA0000322FFF713FA4320FFF7FEF906B080BDCA
:101BB000B0B50446C579D0F8E004002D18BF012562
:101BC00002F074FED4F8E0042946BDE8B04002F00B
:101BD000BBBE0000D0F8E00402F09ABED0F8E004EA
:101BE00002F0A0BE90F89424012A04BF022070479E
:101BF00010B5012280F8942441740268044610460E
:101C000003F0FEFE002084F8940410BDD0F8E02418
:101C100000F29C41104602F0A9BE000010B5044637
:101C200090F89404012804BF022010BD206801210F
:101C300084F89414C168490606D5617B012903D153
:101C4000816B41F48031816303F01AFE206803F058
:101C500047FB002084F8940410BD000040F62E11CC
:101C6000C2F2000100220A70D0F8E00402F0BEBE09
:101C7000F0B581B00446007843F6700610F0430FCB
:101C8000C4F2020634D06827C4F247270020386027
:101C9000FFF730F9054600BF56F8700C000105D576
:101CA000FFF728F9401B0228F6D993E02068C10706
:101CB00040F09380810700F19980400608D5E168E3
:101CC000D4E90102090641EA801040EA027070611D
:101CD00001203860FFF70EF9054600BF56F8700C7A
:101CE000000105D4FFF706F9401B0228F6D971E080
:101CF000207810F00C0F49D06827C4F24727002045
:101D0000B860FFF7F7F8054656F8700C800005D567
:101D1000FFF7F0F8401B0228F6D95BE02068410786
:101D200013D5B169D4E9042301F0E04141EA8211FD
:101D300041EA0361256AB161F1696FF0FF0221F4A4
:101D4000F85102EB05221143F16100070FD5B0698C
:101D5000216900F07060A26940EA811040EA0270D7
:101D6000636AB061F06920F440301843F0610120EB
:101D7000B860FFF7BFF8054656F8700C800005D430
:101D8000FFF7B8F8401B0228F6D923E02078800638
:101D900070D50020009056F8300C47F2000740F054
:101DA000805046F8300C56F8300CC4F2000700F0B2
:101DB000805000900098386840F480703860FFF7D9
:101DC00099F805463868C00525D4FFF793F8401BFD
:101DD0000228F7D9032001B0F0BDD4E9011212079F
:101DE00042EA8111716181077FF567AF71696268AD
:101DF00001F0E041E36841EA821141EA0361E569EB
:101E00007161F1696A1E21F01F011143F161400601
:101E10003FF555AF5CE7306810F4407013D0A16A0D
:101E200001F4407188420ED0306840F64061C4F23F
:101E30004721012220F440700A6000220A603060CD
:101E40003068C00724D1A06A56F8681C4FF6FF43DB
:101E500000F4407221F4F811C0F6FF730340B2F5AC
:101E6000407F08BF194346F8681C31686FF31F3084
:101E7000084330602078C00607D594F82C0040F65F
:101E80004061C4F24721C1F8A003002001B0F0BDB9
:101E9000FFF730F8054641F2883730688007D2D422
:101EA000FFF728F8401BB8424FF00300F5D9EDE7E3
:101EB000002804BF012070472DE9F04143F60808CF
:101EC000C4F202080446D8F8F8030D4600F00F00EB
:101ED000814207D988F8F853D8F8F80300F00F00CA
:101EE000A84276D12068810717D5410705D5D8F8D3
:101EF000001041F4E051C8F80010010705D5D8F8EA
:101F0000001041F46041C8F80010D8F80010A26831
:101F100021F0F0011143C8F80010C0073FD1D8F8F4
:101F2000F80300F00F00854207D288F8F853D8F87C
:101F3000F80300F00F00A8424BD12068410707D5F5
:101F4000D8F80010E26821F4E0511143C8F80010FD
:101F5000000708D5D8F80000216920F4604040EA65
:101F6000C100C8F8000000F081F8D8F8001047F66A
:101F7000C832C1F30311C0F60002515C40F21002F6
:101F800020FA01F140F23820C2F200000068C2F2EB
:101F900000021160FEF7DEFF0020BDE8F0816068FE
:101FA000811E022907D258F8081C89015CBF012054
:101FB000BDE8F08110E0012807D158F8081C89031A
:101FC0005CBF0120BDE8F08106E058F8081C8907D5
:101FD00002D40120BDE8F081D8F8001021F00301FF
:101FE0000843C8F80000FEF785FF064641F288372F
:101FF000D8F80000616800F00C00B0EB810F8ED0C3
:10200000FEF778FF801BB842F2D90320BDE8F081CB
:1020100040F21000C2F200000068704740F2100069
:1020200043F60801C2F20000C4F202010068096828
:1020300047F6D832C1F38221C0F60002515CC84095
:102040007047000040F2100043F60801C2F20000A1
:10205000C4F202010068096847F6D832C1F3423180
:10206000C0F60002515CC8407047000010B543F64E
:102070000404C4F202046168C1F3810142F2004029
:10208000C0F2F400DFE801F00203080210BD41F2E3
:102090000020C0F27A0010BD216801F03F022168E3
:1020A00023684902C3F3881105D4A1FB0001002372
:1020B000FEF798F806E041F20020C0F27A004843AB
:1020C000B0FBF2F021680222C1F3014102EB4101B1
:1020D000B0FBF1F010BD0000002804BF01207047E4
:1020E0002DE9F04182B00446007843F60006C007AF
:1020F000C4F2020649D0B06800F00C00042809D1EF
:102100003068800341D5606800283ED1012002B0CC
:10211000BDE8F081B06800F00C00082802D17068BA
:102120004002EDD465683068B5F5A02F05D0B5F54F
:10213000803F09D140F480300CE040F480203060D2
:10214000306840F4803005E020F480303060306842
:1021500020F480203060FEF7CDFE002D054611D022
:102160003068800311D4FEF7C5FE401B6428F7D900
:1021700028E100BFFEF7BEFE401B64284FF00300BD
:1021800000F2E08030688003F4D4207880071BD50B
:10219000B06810F00C0F09D0B06800F00C000828EF
:1021A00040F085807068400200F1818030688007CF
:1021B00003D5E068012840F09A803068216920F05A
:1021C000F80040EAC10030602078000734D420785D
:1021D000400746D4A5695DB3B06800F00C0008283C
:1021E00040F09C80012D00F082807068E16900F46D
:1021F00080028A427BD1216A00F03F028A4276D176
:1022000047F6C071626A0140B1EB821F6FD1A16ACB
:102210004FF6FF73C903994300F44032A1F58031B2
:102220008A4264D1E16A00F07060B0EB016F5ED168
:10223000002002B0BDE8F081606900285BD000207A
:10224000C4F247200121C0F8801EFEF753FE054668
:10225000706F8007BBD4FEF74DFE401B0228F7D9F4
:10226000B0E0306C5FEAC0080AD400200190306C06
:1022700040F080503064306C00F080500190019844
:1022800047F20007C4F200073868C00526D4386852
:1022900040F480703860FEF72DFE05463868C005B2
:1022A0001CD4FEF727FE401B0228F7D98AE0E0681D
:1022B000002840F20000C4F2472053D00121016001
:1022C000FEF718FE054600BF306880073FF575AF82
:1022D000FEF710FE401B0228F6D973E0A568306FA8
:1022E000052D51D0012D56D140F0010059E00120BB
:1022F00002B0BDE8F0810020C4F247200021C0F800
:10230000801EFEF7F7FD0546706F80077FF55FAF13
:10231000FEF7F0FD401B0228F6D953E00027C4F277
:10232000472700203866FEF7E5FD022D05460DD152
:10233000306880015DD5FEF7DDFD401B02284FF0BF
:102340000300F5D902B0BDE8F08100BF306880011C
:102350007FF56EAFFEF7CEFD401B02284FF0030065
:10236000F4D9EFE700210160FEF7C4FD054600BF88
:10237000306880077FF528AFFEF7BCFD401B0228C0
:102380004FF00300F4D9DDE740F004003067306F10
:1023900040F0010005E020F001003067306F20F0D0
:1023A00004003067FEF7A6FD002D054641F2883790
:1023B00013D000BF306F800712D4FEF79BFD401B87
:1023C000B842F7D9032002B0BDE8F081FEF792FDD4
:1023D000401BB8424FF00300B4D8306F8007F5D4EB
:1023E000B8F1000F3FF5F6AE306C20F0805030644D
:1023F000F0E604F11C052FCD084340EA8210D90312
:102400004FF6FF729143A1F5803140EA0560084321
:10241000706001203866FEF76DFD0446306880016B
:102420003FF506AFFEF766FD001B02284FF00300E4
:10243000F4D987E770B528B1416A29B1002101615B
:10244000142106E0012070BD4168B1F5827F02D001
:102450001C21002242500026866290F8511029B9B2
:1024600080F85060054600F03DF82846022180F8CB
:10247000511090E82E0002F482720C6803F40443B9
:1024800024F040040C601A4405F4006305691A4402
:1024900005F0020345691A4405F001038569C46922
:1024A0001A4405F400731A4404F03803046A1A4409
:1024B00004F08003846A1A4304F400531A430A6048
:1024C000436A042202EA154203F010031A444A60E8
:1024D000CA6922F40062CA610121466580F8511080
:1024E000304670BD70B586B0006843F60001C4F296
:1024F0000001884259D043F20001C4F20101884230
:1025000040F08580002043F630010190C4F20201C2
:102510000A68012642F002020A600A6840F200449A
:1025200002F002020192019A01900A68C4F20204C8
:1025300042F002020A600A6801AD02F00202019252
:10254000019A01900A6842F002020A600A6802F0E9
:1025500002020192019A0190086840F001000860AF
:102560000868294600F001000190019808200190B8
:1025700002200290CDE90360052005902046FEF779
:10258000E9FB1020019020462946FEF7E3FB2020BE
:10259000019020462946FEF7DDFB4FF40040CDE9CF
:1025A00001060396A4F580642DE00020019043F617
:1025B0003000C4F20200016840F2004441F0020120
:1025C00001600068C4F2020400F00200019001986A
:1025D0004FF4204001900220CDE902000490052034
:1025E00001AD059020462946FEF7B4FB4FF480600C
:1025F00001900120CDE9020020462946FEF7AAFB02
:102600004FF40060019001A92046FEF7A3FB06B03D
:1026100070BD00002DE9F04383B0044690F85000EF
:10262000012803D1022003B0BDE8F08301201E463B
:1026300015460F4684F85000FEF75CFC94F85110E4
:10264000814601296BD1002F4FF0010018BF002DEA
:1026500000F0AF80002E00F0AC8094F85100002113
:1026600004281CBF052084F851006165A563E68736
:10267000A6872763E6862068A686216461640168D0
:10268000490603D4016841F0400101606168731E8E
:10269000E268B1FA81F1B3FA83F3DDF828804909E1
:1026A0005B09B2F5006F41EA030147D131B137F858
:1026B000021BC1602763E08E0138E086012608F125
:1026C000010500BFE08E10B9E08F00287AD02068A5
:1026D000816889070CD5E18E51B1012E08D1216B9B
:1026E000002631F8022BC2602163E18E0139E186B8
:1026F0008168C9070AD0E18F41B1C068A16B01268A
:1027000021F8020BA163E08F0138E087FEF7F2FBAE
:10271000002DD7D0A0EB09004045D3D348E0606836
:10272000B0F5827F08D104294FF0020041D1A168A1
:1027300000293FF488AF3CE002203AE039B1397813
:102740000173206B01302063E08E0138E0860126A2
:1027500008F10105E08E08B9E08F98B32068816820
:1027600089070DD5E18E59B1012E09D1216B0026C3
:1027700009780173206B01302063E08E0138E08618
:1027800020688168C9070BD0E18F49B1C068A16B8F
:1027900001260870A06B0130A063E08F0138E0874C
:1027A000FEF7A8FB002DD5D0A0EB09004045D1D302
:1027B0000320012184F85110002184F8501003B047
:1027C000BDE8F08340F21000C2F20000006849F654
:1027D0008171C1F25E61A0FB0101480D4FF47A7175
:1027E000484302906068B0F5827F0ED12046802178
:1027F00042464B4601F0B6FA80B1606D40F02000D1
:102800006065202060650120D3E7029830B102980E
:1028100001380290206880680006F6D4A06800287D
:102820004FF00000C5D101902168CA680192896803
:1028300001910199BDE70000002804BF0120704705
:1028400070B5044690F8490015460E4628B9002098
:1028500084F84800204600F01DF8206804F10801C3
:10286000FEF7FCF82068A2683146FEF73BF9D4E990
:102870000102236B2946FEF7CDF82068A16850F8C5
:10288000212042F0010240F82120012084F8490073
:10289000002070BD70470000411E0020B0EB116F9A
:1028A0001CBF012070474EF21002CEF200025160B0
:1028B0004EF62351CEF20001F0230B7007219060F9
:1028C00011607047704700007047000090F83C208E
:1028D000012A4FF0020255D010B5012380F83C3098
:1028E00080F83D200268D2F804E0D2F808C00C68F5
:1028F0002EF07003234341F2FF74C4F20004A2429D
:1029000053600DDC40F2FF73C4F200039A4215DC01
:10291000B2F1804F29D040F20043C4F2000322E01C
:1029200040F2FF33C4F201039A4212DC41F6000385
:10293000C4F200039A4218D0002312E040F60003CC
:10294000C4F200039A4210D040F60043C4F20003E0
:1029500009E044F20003C4F201039A4205D040F2B8
:102960000043C4F201039A4204D149682CF0800369
:10297000194391600121002280F83D1080F83C202D
:10298000BDE8104010467047002804BF0120704782
:1029900010B5044690F83D0028B9002084F83C00AA
:1029A000204600F01FF8022084F83D002068211D19
:1029B00001F0A4FA012084F8460084F83E0084F86F
:1029C0003F0084F8400084F8410084F8420084F815
:1029D000430084F8440084F8450084F83D0000205A
:1029E00010BD0000006840F20041C4F200018842BE
:1029F00018BF704780B582B00020019043F64000B8
:102A0000C4F202000168032241F002010160006883
:102A1000012100F00200019001981D20FEF7D6FA76
:102A20001D2002B0BDE88040FEF7BEBA90F83D1010
:102A300001291CBF01207047022180F83D10006869
:102A400041F2FF72C168C4F20002904241F00101FC
:102A5000C1600DDC40F2FF71C4F20001884215DC58
:102A6000B0F1804F29D040F20041C4F2000122E0D1
:102A700040F2FF31C4F20101884212DC41F600014C
:102A8000C4F20001884218D0002112E040F6000193
:102A9000C4F20001884210D040F60041C4F20001A7
:102AA00009E044F20001C4F20101884205D040F27D
:102AB0000041C4F20101884206D1816801F007019A
:102AC000062904BF00207047016841F00101016040
:102AD000002070470146006841F21113C26822F0DD
:102AE0000102C260026A1A4208D1026A40F24443FB
:102AF0001A4203D1026822F0010202600122002082
:102B000081F83D207047000090F83C20012A4FF0EA
:102B100002026ED080B5012380F83C3080F83D2061
:102B2000D0F800C04FF67772DCF8083023EA0202D2
:102B3000CCF808200B684F2B28DC1F2B44DD202B02
:102B400045D0302B43D0402B40F0AC80D1F804E08E
:102B5000C968DCF82030DCF8202022F00102CCF833
:102B60002020DCF8182022F0F00242EA011123F0C4
:102B70000A0242EA0E02CCF81810CCF82020DCF849
:102B8000081041F0470121F0300127E06F2B32DDC2
:102B9000B3F5005F73D0B3F5805F21D0702B40F0A8
:102BA0008180D1E901E3C968DCF8082043EA0E031B
:102BB00022F47F4243EA01211143CCF80810DCF8EB
:102BC000081041F0770109E00BB1102B6AD1DCF855
:102BD000081021F07001194341F00701CCF80810EA
:102BE0000022012180F83D10002180F83C10BDE852
:102BF000804010467047502B21D0602B52D1D1F825
:102C000004E0C968DCF82030DCF8202022F0100253
:102C1000CCF82020DCF8182022F4704242EA01317E
:102C200023F0A00242EA0E12CCF81810CCF82020B3
:102C3000DCF8081041F0670121F01001CEE7D1F86F
:102C400004E0C968DCF82030DCF8202022F0010222
:102C5000CCF82020DCF8182022F0F00242EA011122
:102C600023F00A0242EA0E02CCF81810CCF8202019
:102C7000DCF8081041F0570121F02001AEE7D1E95E
:102C800001E3C968DCF8082043EA0E0322F47F421E
:102C900043EA01211143CCF80810DCF8081041F494
:102CA00080419BE701229CE77047000070B5044615
:102CB0000068C5680669B10716D515F0020113D082
:102CC0006FF002010161012121778069800703D043
:102CD0002046FFF7E9FF05E0204600F08DF820468A
:102CE00000F08CF800202077700718D515F004004C
:102CF00015D020686FF004010161022121778069FD
:102D000010F4407F03D02046FFF7CEFF05E02046B9
:102D100000F072F8204600F071F8002020773007AC
:102D200017D515F0080014D020686FF00801016174
:102D300004212177C069800703D02046FFF7B4FF44
:102D400005E0204600F058F8204600F057F8002033
:102D50002077F00618D515F0100015D020686FF018
:102D60001001016108212177C06910F4407F03D070
:102D70002046FFF799FF05E0204600F03DF8204689
:102D800000F03CF800202077F00718BF15F0010094
:102D900002D1300609D412E020686FF00101016110
:102DA000204600F02DF8300609D515F0800006D039
:102DB00020686FF0800101612046FFF783FD7006F7
:102DC00009D515F0400006D020686FF04001016180
:102DD000204600F031F8B00658BF70BD15F0200055
:102DE00008D021686FF0200220460A61BDE87040DB
:102DF000FFF76ABD70BD000070470000704700001B
:102E0000006840F20041C4F20001884218BF7047D8
:102E10004DF21850C2F20100007858B180B501207F
:102E200000F0E0FA42F27000C2F20000BDE880401B
:102E3000FFF7FCBD704700007047000070470000BE
:102E400070470000B0B582B002681168D468536959
:102E500001F02F05202D04F0200505D125B102B089
:102E6000BDE8B04001F0EAB85FEA017C1EBF03F0A4
:102E7000010E04F4907313EB0E0340D1036BCD06E7
:102E800018D5012B16D114F0100313D00021019195
:102E9000116801915168019101995169490647D41E
:102EA000818DC38DC58D002D18BF994240F0D7800C
:102EB00002B0B0BD0B062AD514F0800327D090F8DD
:102EC0003D102129F4D18168B1F5805F03D10169FA
:102ED000002900F0E180016A4B1C0362097851600F
:102EE000C18C01390B04C184E2D1D06820F080008C
:102EF000D060D06840F04000D06002B0B0BDCA07DA
:102F000018BF14F4807240D14A0744D44AE04906FD
:102F1000CED514F04001CBD0D16821F04001D16072
:102F2000202180F83D1002B0BDE8B04000F042BA68
:102F3000816B0B685B689DB2002DB9D0848DA54272
:102F4000B6D2C385CB69B3F5807F19D0D368044668
:102F500023F48073D360536923F0010353615369F1
:102F600023F040035361202380F83E3000230363A5
:102F7000D368084623F01003D360FDF7D5FD204643
:102F8000818DC28D891A89B27CE0026C42F0010207
:102F900002644A0706D5BEF1000F03D0026C42F06E
:102FA000020202648A0706D5BEF1000F03D0026C4C
:102FB00042F004020264BCF1000F06D55EEA05028D
:102FC00003D0026C42F008020264026C002A3FF453
:102FD0006FAF890604D51DB1044601F02FF82046D5
:102FE00001684A69036C02F0400203F00803D2183A
:102FF0002ED0CA6822F49072CA604A6922F0010297
:103000004A61026B012A03D1CA6822F01002CA6029
:10301000202280F83E20002202634A69520636D5FB
:103020004A6922F040024A61816B81B344F2310265
:10303000C0F60002044608460A65FDF7B5FD002803
:103040003FF436AFA06B016D02B0BDE8B040084759
:103050000446FFF7F5FE0020206402B0B0BDD5683D
:10306000C91A25F49075D560556989B225F0010516
:103070005561202580F83E5000250563D56825F070
:103080001003D36002B0BDE8B040FFF7D7BE02B076
:10309000BDE8B040FFF7D4BE016A31F8023B6FF3E0
:1030A0005F23536001621BE7002804BF01207047C3
:1030B00010B5044690F83D0028B9002084F83C0083
:1030C000204600F021F8242084F83D002068C168E3
:1030D00021F40051C160204601F002F82068016926
:1030E00021F490410161416921F02A014161C168E7
:1030F00041F40051C16000202021206484F83D107B
:1031000084F83E1010BD000070B586B040F6000493
:10311000C4F202040068A4F57441884201D006B0EC
:1031200070BD002043F630010190C4F202014A69EB
:1031300001AD42F020024A614A69082602F02002ED
:103140000192019A01900A6842F004020A600A683A
:1031500002F004020192019A0190086840F0040014
:1031600008600868012100F00400019001984020E7
:10317000019002200290CDE90310204629460596D1
:10318000FDF7E8FD80200190204629460596FDF7D1
:10319000E1FD4720FDF708FF472003210322FDF74B
:1031A00015FF06B070BD0000034690F83E002028D1
:1031B0000AD100294FF0010018BF002A00D1704742
:1031C00093F83C00012801D10220704700201863C9
:1031D000996222219A85DA85186483F83E1019686D
:1031E00083F83C00CA6842F48072CA604A6942F0BF
:1031F00001024A61CA6842F02002CA6070470000BA
:10320000006841F20041C4F20101884218BF7047D2
:1032100041F25C40C2F20000B0F90010002923D452
:1032200040F61462C2F2000289B21378B1F5804F01
:1032300004D20D2B0CD141F4804214E048F2000C72
:103240000022CFF6FF7C0A2B08BF41EA0C020AE0FD
:1032500041F25C02C2F2000253544A1C40F2FE33B7
:10326000994288BF0022028040F6187040F614612F
:10327000C2F20000C2F200010122FFF795BF000078
:103280002DE9F04381B0044690F83D0020280DD18F
:103290000E4600294FF0010018BF002A02D101B0EC
:1032A000BDE8F08394F83C00012803D1022001B06E
:1032B000BDE8F083012084F83C0000202064212038
:1032C000994684F83D001546FDF714FEA584E58473
:1032D000A1688046B1F5805F02D1206900283DD009
:1032E00037460026002084F83C00E08C58B309F1F2
:1032F000010509E097B117F8010B21684860E08CDF
:103300000138E084E08CF0B1206800680006F1D458
:10331000BDB1B9F1000F0ED122E000BF36F8020BAB
:1033200021686FF35F2048600027E8E7016809061D
:10333000E0D4002DFAD0FDF7DDFDA0EB08004845F4
:103340000ED82068F2E72068006840062AD4B9F158
:10335000000F05D019F1010517D01CE00027C1E7C7
:103360002068C16821F4D071C160416921F0010178
:103370004161202084F83D0084F83E00002084F85C
:103380003C00032001B0BDE8F083206801684906D5
:1033900008D4002DFAD0FDF7ADFDA0EB080048459C
:1033A000F3D9DDE7202084F83D00002001B0BDE81E
:1033B000F08300007047000010B541F65E04C2F2D1
:1033C00000040A460146204600F0ECFA20464FF47D
:1033D000806103F0C7FE4FF4FA60BDE8104003F0CF
:1033E0003DB8000010B541F65E04C2F2000420466C
:1033F000002100F05FFB2046802103F0B3FE4FF474
:103400007A70BDE8104003F029B800002DE9F043C0
:1034100081B08946E839142900F21E82DFE811F0F4
:10342000150079008B01BB01EB0149001C021C0255
:103430001C021C021C021C021C021C021C021C029C
:103440001C021C021C021C025A0140F62D18C2F27A
:10345000000898F8000038BB0026C0F60106FDF70A
:103460004BFC40F24027C2F20007002072B63875CC
:1034700004200221FDF722FA40F67C056FF00300DC
:10348000C2F20005041D38444268A119022000233D
:103490002A60FDF7C7FB7C2C2046F3D362B6FDF70C
:1034A000B7FB012088F8000047F65840C0F600003E
:1034B000D0E1417A847A002544EA012040F2B41137
:1034C000C2F20001C0F60105A1F83B00FDF714FCB3
:1034D00040F2402672B6C2F2000604200221347483
:1034E000FDF7ECF940F67C076FF00300C2F200072D
:1034F000041D304442686119022000233A60FDF740
:1035000091FB7C2C2046F3D362B6FDF781FBDCA057
:10351000A0E1B0F8097040F2B4153FBAC2F200055C
:103520003F0C037841788278A5F82370B0F80B70CF
:103530002B703FBA3F0CA5F82570B0F80970697080
:103540003FBA3F0CA5F83170B0F80B7000263FBAB7
:103550003F0CA5F83370B0F80D70C0F601063FBA05
:103560003F0CA5F83570B0F80F70AA703FBA3F0C49
:10357000A5F83770B0F811703FBA3F0CA5F8397054
:10358000B0F813703FBA3F0CA5F83B70B0F8157057
:103590003FBA3F0CA5F83D70B0F817703FBA3F0C2A
:1035A000A5F83F70B0F819703FBA3F0CA5F841700C
:1035B000B0F81B703FBA3F0CA5F84370B0F81D700F
:1035C0003FBA3F0CA5F84570B0F81F703FBA3F0CEA
:1035D000A5F84770B0F821703FBA3F0CA5F84970C4
:1035E000B0F823703FBA3F0CA5F84B70B0F82570C7
:1035F0003FBA3F0CA5F84D70B0F827703FBA3F0CAA
:10360000A5F82B70B0F827703FBA3F0CA5F84F70A3
:10361000B0F829703FBA3F0CA5F85170B0F82B7084
:103620003FBA3F0CA5F8537090F82D7085F855708F
:1036300090F82E7085F85670B0F82F703FBA3F0C96
:10364000A5F85770B0F831703BBA1B0CA5F859308B
:10365000B0F833301BBA1B0CA5F85B30B0F835302E
:1036600019BA090CA5F85D10B0F8370000BA000CC3
:10367000A5F85F00FDF740FB40F24027C2F20007CB
:1036800072B6384629468022FCF7DDFD38463146C1
:103690008022FCF711FEA8B104200221FDF70EF9EB
:1036A00040F67C056FF00300C2F20005041D3844AB
:1036B0004268A119022000232A60FDF7B3FA7C2C8E
:1036C0002046F3D362B6FDF7A3FA47F64140C0F6B1
:1036D0000000BFE0417A40F2B412C2F2000282F868
:1036E0005510847A0025C0F6010582F85640FDF792
:1036F00003FB40F2402672B6C2F20006042002210B
:103700003476FDF7DBF840F67C076FF00300C2F279
:10371000000700BF041D30444268611902200023E5
:103720003A60FDF77FFA7C2C2046F3D362B6FDF7B2
:103730006FFA4EA08EE0417A847A002544EA012097
:1037400040F2B411C2F20001C0F60105A1F8230055
:10375000FDF7D2FA40F2402672B6C2F2000604200B
:1037600002213471FDF7AAF840F67C076FF00300E0
:10377000C2F20007041D3044426861190220002390
:103780003A60FDF74FFA7C2C2046F3D362B6FDF782
:103790003FFA51A05EE0417A847A002544EA012094
:1037A00040F2B411C2F20001C0F60105A1F82500F3
:1037B000FDF7A2FA40F2402672B6C2F200060420DB
:1037C00002213472FDF77AF840F67C076FF00300AF
:1037D000C2F20007041D3044426861190220002330
:1037E0003A60FDF71FFA7C2C2046F3D362B6FDF752
:1037F0000FFA31A02EE0417A847A002544EA0120B4
:1038000040F2B411C2F20001C0F60105A1F839007E
:10381000FDF772FA40F2402672B6C2F200060420AA
:1038200002213473FDF74AF840F67C076FF003007D
:10383000C2F20007041D30444268611902200023CF
:103840003A60FDF7EFF97C2C2046F3D362B6FDF722
:10385000DFF912A004F0A6F947F62C40C0F60000EC
:10386000494601B0BDE8F04303F0EABC4741494E88
:1038700020534554E5B7B2E69BB4E696B00D000080
:10388000E5B7B2E69BB4E696B04453205354415298
:103890005420504F534954494F4E0D00E5B7B2E6FE
:1038A0009BB4E696B0575320535441525420504F86
:1038B000534954494F4E0D00E5B7B2E69BB4E69626
:1038C000B053545249502047415445204C494E452D
:1038D0002052494748540D00E5B7B2E69BB4E6963E
:1038E000B053545249502047415445204C494E450D
:1038F000204C4546540D0000FEE7000040F2B41095
:103900000021C2F20000C0F601018022FCF79BBC3E
:1039100080B586B042F270000021C2F2000040F291
:10392000004247F22F5CCDE90411CDE90211CDE947
:103930000011C4F2000242F2CF03C0E9021C01618F
:103940008021C0E900238161FFF71EF8002818BF1D
:10395000FCF7B2FF4FF48050029042F27000C2F2C6
:10396000000002A9FFF7D0F8002818BFFCF7A4FF59
:103970000020CDE9000042F27000C2F2000069466A
:10398000FEF7A4FF002818BFFCF796FF06B080BD25
:10399000FEE70000FEE7000040F63010C2F2000033
:1039A000FDF7B6BCF0B581B00E464FF48061154608
:1039B0000446FCF76FFC40F2B411C2F2000120464D
:1039C0003122FCF740FC701EB0FA80F0460900205E
:1039D00031462A464FF4C87302F0BAFF012031463F
:1039E0002A464FF4C87302F0B3FF40F2EA60C2F215
:1039F00000004CF618330138A11E4FF0FF32C2F21E
:103A0000010340F28F1700BF9E18767810F8015F0F
:103A1000013281F8336081F83450BA4201F1020179
:103A2000F2D1002084F8FF0321180A79CB78CA70FC
:103A30000B71C11C02302F29F6D304F25136002736
:103A400010A502E00137AE2F08D0F25D002AF9D0B0
:103A500007F25131284603F0F3FBF3E7601E002222
:103A600040F2FF3110F8013F01391A44FAD10BA09E
:103A70004FF4806184F8FF2301B0BDE8F04003F00B
:103A8000DFBB00BF72657365727665645B25645D3C
:103A9000203D203078253032580A000073697A655D
:103AA0006F66284164634672616D6529203D20255B
:103AB0007A750A0010B580210446FCF7EBFB40F252
:103AC00001102080FE20A07040F2B410C2F200006D
:103AD00001797F22E170C178217181796171417929
:103AE000A171017AE171C1792172817A6172417AA1
:103AF000A172017BE172C17A2173817B6173417B89
:103B0000A173017CE173C17B2174817C6174417C70
:103B1000A174017DE174C17C2175817D6175417D58
:103B2000A175017EE175C17D2176817E6176417E40
:103B3000A176017FE176C17E2177817F6177417F28
:103B4000A17790F82010E177C17F84F8201090F8D9
:103B5000221084F8211090F8211084F8221090F897
:103B6000241084F8231090F8231084F8241090F87F
:103B7000261084F8251090F8251084F8261090F867
:103B8000281084F8271090F8271084F8281090F84F
:103B90002A1084F8291090F8291084F82A1090F837
:103BA0002C1084F82B1090F82B1084F82C1090F81F
:103BB0002E1084F82D1090F82D1084F82E1090F807
:103BC000301084F82F1090F82F1084F8301090F8EF
:103BD000321084F8311090F8311084F8321090F8D7
:103BE000341084F8331090F8331084F8341090F8BF
:103BF000361084F8351090F8351084F8361090F8A7
:103C0000381084F8371090F8371084F8381090F88E
:103C10003A1084F8391090F8391084F83A1090F876
:103C20003C1084F83B1090F83B1084F83C1090F85E
:103C30003E1084F83D1090F83D1084F83E1090F846
:103C4000401084F83F1090F83F1084F8401090F82E
:103C5000421084F8411090F8411084F8421090F816
:103C6000441084F8431090F8431084F8441090F8FE
:103C7000461084F8451090F8451084F8461090F8E6
:103C8000481084F8471090F8471084F8481090F8CE
:103C90004A1084F8491090F8491084F84A1090F8B6
:103CA0004C1084F84B1090F84B1084F84C1090F89E
:103CB0004E1084F84D1090F84D1084F84E1090F886
:103CC000501084F84F1090F84F1084F8501090F86E
:103CD000521084F8511090F8511084F8521090F856
:103CE000541084F8531090F8531084F8541090F83E
:103CF000551084F8551090F8561084F8561090F826
:103D0000581084F8571090F8571084F8581090F80D
:103D10005A1084F8591090F8591084F85A1090F8F5
:103D20005C1084F85B1090F85B1084F85C1090F8DD
:103D30005E1084F85D1090F85D1084F85E1090F8C5
:103D4000601084F85F1090F85F00611E84F86000D6
:103D5000002000BF11F8013F013A1844FAD184F85D
:103D60007F0010BD2DE9F04381B01E4690460D4600
:103D70008146FDF7BFF8301A00EB0807FDF7BAF8E7
:103D800040F21001C2F200010968C1F3CB3179435E
:103D90000091D9F8001089682940A94219D1064636
:103DA00008F1010406E000BFD9F80000806828404F
:103DB000A8420ED1002CF7D0FDF79CF8801BB8422A
:103DC0000BD200980099002808BF0746481E0090B3
:103DD000EAE7002001B0BDE8F083D9E900014268BC
:103DE000B1F5827F22F0E00242600BD1D9F80810D1
:103DF000B1F5004F02D0B1F5806F03D1016821F019
:103E000040010160D9F82810B1F5005F07D10168C1
:103E100021F400510160016841F40051016001206A
:103E200089F85100002089F85000032001B0BDE856
:103E3000F0830000FDF764B870B592B006AC204680
:103E40003021FCF727FA002543F640000595CDE91F
:103E50000355CDE901550095C4F202000168022620
:103E600041F080510160006800F08050009000989F
:103E700047F200000095C4F20000016841F440419F
:103E80000160006800F44040009000980120069016
:103E90004FF4803007904FF480000D9008200E9072
:103EA0004FF4A870CDE90F060720119020460C961C
:103EB000FEF712F908B112B070BD0F20CDE901066E
:103EC0004FF4A05004904FF48050059001A80521B4
:103ED0000395FDF7EDFF12B070BD00004EF688505F
:103EE000CEF20000016841F47001016070470000EB
:103EF00042F27000C2F20000FEF7D8BE10B540F6E4
:103F0000FF3E0368C4F2000E40F2004C7045C4F25C
:103F1000010C0FDCB0F1804F19D040F20042C4F226
:103F20000002904213D040F60002C4F20002904218
:103F30000DD010E040F60042C4F20002904206D0DC
:103F4000604504D00022C4F20102904203D14A68C5
:103F500023F07003134341F6FF72C4F20002904253
:103F60000FDC704521DCB0F1804F41D040F20042BF
:103F7000C4F2000290423BD040F60002C4F20002BC
:103F800034E043F6FF72C4F2010290421EDC42F2BA
:103F90000002C4F2000290422AD00022C4F20102C0
:103FA000904225D0604523D026E040F60042C4F27E
:103FB000000290421CD041F60002C4F2000290427E
:103FC00016D041F60042C4F200020FE044F20002B3
:103FD000C4F2010290420BD044F60002C4F2010286
:103FE000904205D044F20042C4F20102904203D153
:103FF000CA6823F44073134323F080024B69D1F85D
:1040000000E08C681A430260C46240F48062C0F829
:1040100028E0624504BF096901630121416101692A
:10402000C90708BF10BD016921F00101016110BD80
:10403000806B0021C185C184FEF702BF90F83E105D
:10404000222942D18268B2F5805F01D10169E9B3CA
:10405000816AB2F5805F08D0082A01D1026922B1D5
:104060000268526802F07F0201E0026852680A703A
:10407000816A01318162C18D01390A04C18518BF8D
:10408000704710B50168CA6822F02002CA60CA6889
:1040900022F48072CA604A6922F001024A61202239
:1040A00080F83E20026B012A08D1CA68044622F03B
:1040B0001002CA60818DFEF7C1FE02E00446FFF7E0
:1040C0009FF800202063BDE8104070470168826AB5
:1040D00049686FF35F2122F8021B8262CBE7000080
:1040E000B0B50446006804F108030ECB0569194316
:1040F00025F440552A4302616269E3691143C268AD
:10410000194349F20C639A431143C1604169A269A2
:1041100021F4407141F20043114340F48062C4F243
:1041200001039A42416102D1FDF78CFF01E0FDF7E6
:1041300075FFE1694FF69C7563681922C0F6FF753B
:10414000B1F5004FA0FB02011CD15A00DB0FFCF7B8
:1041500049F848F21F51C5F2EB11A0FB01235A099F
:1041600005F1805302FB0300322303EBC000A0FBE8
:1041700001014FF4F87000EA111000EB0210C1F3D6
:10418000421118E09A009B0FFCF72CF848F21F51DF
:10419000C5F2EB11A0FB01235A0902FB05003223F3
:1041A00003EB0010A0FB0101F02000EA511000EB2E
:1041B0000210C1F34311084421688860B0BD0000BB
:1041C00040F61870C2F20000FEF73CBE10B5D0F801
:1041D000BC323BB38E4601EB810100EB810151F80B
:1041E000184F64B1D0F8C4C20EEBCE020CEB8202C1
:1041F000D2F81CC0B4FBFCF202FB1C42A2B10024AA
:10420000C3F81442D0F8C002D0F810C0BCF1000FBF
:1042100006D0D3F8080203F504717246E047002483
:10422000204610BD032010BD00240C607146002202
:10423000002300F0E5FB204610BD0000B0B5D0F82B
:10424000BC527DB1044600F0B7FAD4F8C02205F59F
:104250000371D368D5F80422C5F80C0210469847BC
:104260000020B0BD0320B0BDB0B58121044600F0F0
:1042700005FA002520460121258700F0FFF9204698
:104280008221A4F8785100F0F9F9D4F8BC02E56471
:1042900050B1D4F8C00240688047D4F8BC12002066
:1042A00002F0CAFAC4F8BC520020B0BD10B5D0F874
:1042B000BC4284B1D0F8C01259B194F80002FF2872
:1042C00007D08B6894F8012221469847FF2084F894
:1042D0000002002010BD032010BD0000014640F286
:1042E000D4000A22C2F200000A807047014640F260
:1042F0004C004322C2F200000A807047014640F29F
:1043000090004322C2F200000A807047014640F24A
:10431000E0004322C2F200000A8070472DE9F0411C
:10432000044600204FF407714FF0000802F0B8FA7D
:10433000D8B3217C4025C4F8BC02002908BF4FF443
:10434000007507462046812102222B4600F09CFA88
:1043500001262046012102222B46268700F094FAEE
:104360001020A4F84E002046822103220823A4F83E
:10437000786100F089FAD4F8C002A4F84C600068B3
:104380008047C7F81482C7F81882207CD7F8042227
:10439000002820464FF0010114BF40234FF4007362
:1043A00000F07CFA0020BDE8F0810220C4F8BC8255
:1043B000BDE8F081D0F8BC12002904BF032070478B
:1043C00080B590F810C0D1F8042240230121BCF13F
:1043D000000F08BF4FF4007300F060FA002080BDAA
:1043E00000290EBF0320C0F8C01200207047000053
:1043F000D0F8BC0200280EBF0320C0F80412002031
:1044000070470000D0F8BC0200280FBF0320C0F89E
:104410000812C0F81022002070470000F0B581B0EB
:10442000D0F8BC420022002C8DF80320ADF800200B
:1044300051D00B7813F0600211D0202A49D1CA88DC
:1044400002B35BB2B3F1FF3F24DD497884F8012267
:1044500084F80012214600F087F800243CE04A78F6
:104460000B2A36D80024DFE802F00637343434341F
:1044700034343434253090F89C22032A29D16946FB
:1044800002221EE0D0F8C00200228368487800248F
:10449000984721E0D0F8C03206469D684B780F4619
:1044A00018462146A847FA883046072A28BF07221F
:1044B000214606E090F89C22032A0AD10DF103015F
:1044C000012200F06BF8002406E090F89C22032AF9
:1044D00002D000F03DF80324204601B0F0BD0000FA
:1044E000D0F8BC22002A04BF03207047D2F814126F
:1044F00000294FF0010101D00846704780B5C2F88D
:104500001412D2F81032D2F808228121C36200F0CE
:1045100077FA0021BDE8804008467047D0F8B822FD
:1045200022B180B552689047BDE8804000207047B6
:1045300080B513460A46002100F0B0F9002080BD86
:1045400080B513460A46002100F05AFA002080BDCB
:1045500010B58021044600F039FA20460021BDE85C
:10456000104000F033BA000080B513460A4603211C
:10457000C0F894120021C0E9563300F08FF90020F2
:1045800080BD000080B50521C0F8941200210022F2
:10459000002300F083F9002080BD000080B51346A1
:1045A0000A460221C0F894120021C0E9063300F047
:1045B00027FA002080BD000080B50421C0F89412C5
:1045C00000210022002300F01BFA002080BD000023
:1045D000002808BF704710B503786BB1431E4FF039
:1045E000000C00BF93F802E00CF1010CBEF1000FCB
:1045F00003F10103F6D101E04FF0000C5FFA8CFCEF
:10460000022303EB4C03138003220B704A700278E1
:1046100092B1013802234FF0000C00BF5FFA83FE15
:1046200051FA83F401F80E2084F801C08278023335
:10463000002A00F10100F1D1BDE8104070470000F0
:10464000002804BF032070470023C0F8B832C0F828
:10465000C0320029C0F8CC3218BFC0F8B412012112
:1046600080F89C12027000F0ABB8000080B5D0F862
:10467000C402FCF767FD002080BD000080B5D0F8C3
:10468000C402FCF737FD002080BD0000B0B569B161
:1046900090F89C22032A4AD1D0F8B8225269002A05
:1046A00045D09047002808BF0020B0BDD0F8941234
:1046B000022935D1D0E907318B420DD95B1A114659
:1046C0001A46C3610446FFF73BFF20460021002243
:1046D000002300F0E3F822E00FD182698A420CD374
:1046E000D0F898128A4208D2002100220446002500
:1046F000FFF726FFC4F89852E7E790F89C120329C9
:1047000006D1D0F8B812C96811B1044688472046CE
:104710008021044600F05AF92046FFF733FF204677
:1047200090F8A012012904BF002180F8A0120020F7
:10473000B0BD000010B561B190F89C22032A1AD1D7
:10474000D0F8B8229269B2B19047002808BF002083
:1047500010BDD0F8941203290DD1D0E95713994216
:104760000BD9C91AC0F85C11994238BF0B461146E3
:104770001A46FFF7DDFE002010BD90F89C120329B9
:1047800006D1D0F8B812096911B10446884720460D
:10479000FFF712FF002010BD00207047012180F8B4
:1047A0009C12D0F8B81229B180B54A6801799047B7
:1047B000BDE8804000207047D0F8C402FCF7F2BC8E
:1047C00010B540F63014C2F200044FF0A041216051
:1047D000042121714FF40071E18000210222C4F80C
:1047E000E004C0F8C4422046E172A4F80920E18147
:1047F000FDF72EF920468021FCF726FC20460021FB
:104800004022FCF725FC204601218022FCF720FCF9
:10481000002010BDD0F8C40201F07F034AB203EBC0
:10482000C30301EBC10100EB830300EB810000F245
:104830005620002A48BF03F1160000787047000098
:10484000D0F8B822002A04BF0320704790F89C32A9
:10485000032B05D1126A1AB180B59047002080BDA4
:1048600000207047D0F8B822002A04BF0320704708
:1048700090F89C32032B05D1526A1AB180B590474B
:10488000002080BD0020704780B59446D0F8C40257
:104890001A466346FCF790FC002080BD80B5D0F836
:1048A000C402FCF7BDFC002080BD0000F0B581B063
:1048B00004460120002184F89C02C4F89412D4F824
:1048C000B8026160C4F8A412E8B1D4F8BC1221B1F6
:1048D000426812B120460021904720460021002264
:1048E000402300254026FFF7CFFF012720468021E7
:1048F00000224023A4F86471C4F86061FFF7C4FF8C
:10490000A784266200E00325284601B0F0BD000020
:1049100090F89C12042904BF90F89D1280F89C1214
:1049200000207047D0F8B812002904BF0320704758
:1049300090F89C22032A05D1C96919B180B588472E
:10494000002080BD0020704702460020117470478F
:1049500080B540F62E12C2F2000201231370D0F887
:10496000C402FDF73FF9002080BD0000B0B500F2A1
:10497000AA240546204600F04BF80121C5F8941200
:1049800095F8AA12B5F8B03201F01F02022AC5F854
:1049900098320ED0012A06D08AB928462146BDE8B1
:1049A000B04000F061B828462146BDE8B04000F0B4
:1049B00091BA28462146BDE8B04000F0F1B901F0B7
:1049C00080012846BDE8B040AFF3008080B5D0F844
:1049D000C402FCF747FC002080BD000080B5D0F881
:1049E000C402FDF71BF9002080BD0000014690F8CD
:1049F0009C02042281F89D02002081F89C227047CD
:104A000080B5D0F8C402FCF765FC002080BD000032
:104A10000A7802704A7842704A8842808A88828086
:104A2000C988C1807047000010B582B004460020DC
:104A3000ADF8060059B1CA6AC4F8B8122AB10DF12E
:104A400006009047C4F8CC02002002B010BD03203D
:104A500002B010BDD0F8B822002A04BF032070476E
:104A600012681047FFF7BABF0A78C2F34112531E0B
:104A7000022B03D2D0F8B8229268104770B582B0EA
:104A8000002A40F0B4804A78092A00F2B080DFE8BA
:104A900002F0052CAE4FAE5A79AE1A3C90F89C222B
:104AA000013A022A00F2A380C988022940F09F80BF
:104AB000D0F8A4120322002908BF0122014641F8C0
:104AC0000C2F022258E1C988012940F0908090F80B
:104AD0009C124A1E022A80F085800024014641F87B
:104AE000084F0122FFF75AFD8AE090F89C22013A14
:104AF000022A00F27C8049880024012940F080804D
:104B0000C0F8A442FFF758FD7AE0498840F290557A
:104B1000C2F2000511F0FE0F297048D08021044632
:104B2000FFF754FF20460021FFF750FF032467E002
:104B30004988012940F027810121C0F8A412FFF71C
:104B40003BFD00245CE08A88002A50D1CA88002AF4
:104B50004DD14D887F2D4AD890F89C12032946D01C
:104B6000E9B280F89E520446FFF7F2FE2046264640
:104B7000FFF722FD002D14BF0220012086F89C02C1
:104B800000243DE04A884FF0FF3303EB1223002658
:104B9000062BADF8066043D8DFE803F00444354245
:104BA00042535F000E46D0F8B4120A68C4E090F891
:104BB0009C22032A61D0022A40F083800A06BED0DC
:104BC00001F00102C9B242600546FFF743FF044607
:104BD000002800F0918028468021FFF7F7FE284644
:104BE00000210BE0032902D1011D0122C4E0802134
:104BF0000446FFF7EBFE204600210024FFF7E6FE07
:104C0000204602B070BDD2B2052A09D8DFE802F012
:104C1000038A80857B8F0E46D0F8B4124A688AE0FA
:104C20000E4691E00E46017C0446D0F8B8020029F9
:104C30000CBF816AC16A0DF1060088470546022053
:104C400018E00E46017C00297ED10446D0F8B80257
:104C5000416B0DF10600884773E00E46017C002988
:104C600072D10446D0F8B802016B0DF106008847F6
:104C7000054607206870012071E00A062FD04268BF
:104C800001F001018A423FF45AAFD1B20446FFF766
:104C900045FC2978204661602546FFF7DBFE044687
:104CA00030B328468021FFF791FE28460021FFF708
:104CB0008DFE29792846FFF731FC022085F89C02F9
:104CC0009EE780210446FFF781FE20460021FFF782
:104CD0007DFE29782046FFF721FC032490E702227D
:104CE0000024C9B280F89C2244600546FFF716FCF8
:104CF0002846FFF761FC83E72846FFF75DFC0320A9
:104D000085F89C027CE70E46D0F8B4124A6912E09E
:104D10000E46D0F8B412CA680DE00E46D0F8B412B0
:104D20000A6908E00E46D0F8B4128A6803E00E461D
:104D3000D0F8B4128A693AB10446007C0DF106013C
:104D40009047054601200AE080210546FFF73EFE18
:104D5000284600212C460025FFF738FE002090B1A0
:104D6000F2886AB1BDF8061079B1914238BF0A469F
:104D7000ADF8062020462946FFF710FC00243FE747
:104D80002046FFF719FC00243AE720468021FFF770
:104D90001DFE20460021FFF719FE002430E7000029
:104DA000B0B50A78C2F34112531E022B05D2D0F8D7
:104DB000B8229268BDE8B04010478ABB4A780C46DA
:104DC000097922B3012A14D0032A29D190F89C2210
:104DD000032A12D1628842B911F07F0205D0E2881D
:104DE0001AB90446FFF7F2FD2046FFF7E5FB002065
:104DF000B0BD90F89C22032A1CD0022A10D14A068A
:104E00000ED00446FFF7E2FD204680210EE090F828
:104E10009C22032A22D0022A08BF5FEA416245D0C1
:104E200080210446FFF7D2FD20460021FFF7CEFD8A
:104E30000020B0BD6288002A49D14A0603D0054649
:104E4000FFF714FC28460546FFF7B6FBD5F8B80275
:104E5000214682682846BDE8B040104701F00F02A5
:104E600002EB8202802900EB82022CBF928CB2F806
:104E70006421002AD4D001F07F0202EB820200EB11
:104E8000820202F1140401EB810200EB820280290C
:104E900038BF02F5AA744A0613D00546FFF7BAFCDC
:104EA00001462846002918BF01210BE009064FF0F2
:104EB00014024FF0000358BF4FF4AA7281188350B8
:104EC00002E00021216021460222FFF767FB00205B
:104ED000B0BD0000B0B50A7802F06002602A08D0C8
:104EE00090F89C22013A022A03D88A8812F0FE0F19
:104EF0000AD080210446FFF769FD204600210024E6
:104F0000FFF764FD2046B0BDD0F8B8220546926890
:104F10000C469047E1880446002908BF002CF1D1D7
:104F20002846FFF749FB2046B0BD000010B540F20F
:104F30009454C2F200040A4602A02146FFF748FB3F
:104F4000204610BD56435020436F6E6669670000CF
:104F500040F238101222C2F200000A8070470000AE
:104F600010B540F29454C2F200040A4602A0214651
:104F7000FFF72EFB204610BD56435020496E746546
:104F8000726661636500000040F24C100422C2F2B8
:104F900000000A807047000010B540F29454C2F23D
:104FA00000040A4602A02146FFF712FB204610BD6E
:104FB00053544D6963726F656C656374726F6E698B
:104FC0006373000010B50A4610A140F2945406A382
:104FD000002808BF1946C2F2000408462146FFF720
:104FE000F7FA204610BD00BF53544D3332205669A6
:104FF000727475616C20436F6D506F727420696EAE
:10500000204853204D6F64650000000053544D3319
:1050100032205669727475616C20436F6D506F72E7
:105020007420696E204653204D6F646500000000B7
:1050300070B547F61020C1F6FF70026883684FF024
:105040001A0CD218A1F800C031D0406840F2501CB0
:105050006FF00101C2F2000C4FF0370E002300BFC9
:105060000CEB01050EEB1276B2F1204F01F10201BB
:105070004FEA127438BF04F1300612010E292E7166
:105080006B71EDD10CF1100104224FF0370C0023AD
:105090000CEB1075B0F1204F4FEA107638BF06F1D7
:1050A000300501F8025F0001013A4B70F0D140F287
:1050B0005010C2F2000070BD10B50A784B78D0F8DD
:1050C0001CE802F00F04012B4FEA421C17D1012308
:1050D000A34043EA0E03C0F81C386044D0F80039FE
:1050E0001B0427D48B6800F51060097904686FF3FE
:1050F000DF2343EA814144EA8252114315E04FF431
:105100008032A24042EA0E02C0F81C286044D0F867
:10511000002B12040ED48A6800F5306009796FF311
:10512000DF22036842EA8141194341F0805141F492
:1051300000410160002010BD0146D0F8000940F296
:10514000FF729043C1F80009D1F8040840F480725E
:105150000020C1F80428704782B002F47F42B2F503
:10516000807F38D1826B4FF6BF7322F48032826326
:10517000C268CFF6BD731A40C260029BC268DBB240
:1051800022F44012012BC26003D1C26842F48012A3
:10519000C2600022009200BF009A01320092009A81
:1051A000B2F1706F3DD80269B2F1FF3FF4DC00222A
:1051B0000092026942F00102026100BF009A0132CE
:1051C0000092009AB2F1706F2BD80269D207F5D124
:1051D0004FF0000C33E0C26842F04002C26000228F
:1051E000019200BF019A01320192019AB2F1706FEF
:1051F0001AD80269B2F1FF3FF4DC00220192026981
:1052000042F00102026100BF019A01320192019A4B
:10521000B2F1706F08D80269D207F5D14FF0000CD7
:1052200004E04FF0030C0AE04FF0030C826B13F420
:105230007F4F14BF22F4803242F48032826301F443
:105240007F01B1F5803F07D1816841F0060181609F
:10525000816841F020018160604602B07047000023
:1052600010B54A7891F800E047F6000CCEF6334CC2
:10527000012A4FEA4E1226D10244D2F8001902F553
:105280001063B1F1FF3F4FF0010407DC196841F0F2
:1052900000611960196841F0804119600EF00F013A
:1052A000D0F83C2804FA01F18A43C0F83C28D0F831
:1052B0001C2822EA0101C0F81C18186800EA0C0139
:1052C0000020196010BD811801F53063D1F8001B72
:1052D0000CF1707CB1F1FF3F4FF48034DEDCD5E798
:1052E0000146D0F8000E20F00300C1F8000ED1F8FE
:1052F000040820F002020020C1F8042870470000D2
:105300000146D0F8000E20F00300C1F8000ED1F8DD
:10531000040840F002020020C1F804287047000091
:105320002DE9F04F83B01B0C00F580770F26002588
:10533000013E47F8045FFBD1DBB200933BB1836BC6
:1053400023F400138363836B43F4002310E0D0F84D
:10535000043843F00203C0F80438836B43F40013AD
:105360008363836B23F400238363836B23F48023A1
:1053700002F47F4783630023B7F5807FC0F8003EC7
:1053800007D1D0F80078B3EB116F07D1C0F80078DF
:1053900008E0D0F8003843F0030301E047F00103D0
:1053A000C0F8003800230193019B01330193019B56
:1053B000B3F1706F18D80369B3F1FF3FF4DC002339
:1053C00001934FF484630361019B4FF0000E01339E
:1053D0000193019BB3F1706F88BF4FF0010E05D8A8
:1053E00003699B06F0D401E04FF0010E0023029305
:1053F000029B01330293029BB3F1706F18D80369CB
:10540000B3F1FF3FF4DC002302931023036100BFDC
:10541000029B4FF0000A01330293029BB3F1706FBD
:1054200088BF4FF0010A05D80469E406F0D401E012
:105430004FF0010ACCB24FF00008C0F81088C0F855
:105440001488C0F81C8894B300F510664FEA441B1A
:105450004FF67F39002400BF33594FF09045002CA0
:1054600008BF4FF0006505EAE37337193351203464
:10547000A345C7F81080C7F80890EDD100F5306655
:105480004FF000094FF67F34002700BFF5594FF069
:10549000904C002F08BF4FF0006C0CEAE575F31933
:1054A000F5512037BB45C3F810909C60EED1D0F881
:1054B000103811F47F0F23F48073C0F810386FF0A8
:1054C0008043C0F81880436103D1816941F0100125
:1054D0008161816943F60003C8F23C03194312F469
:1054E0007F0F816103D0816941F0080181610099DA
:1054F000012905D1816941F0804141F004018161B8
:105500004EEA0A0003B0BDE8F08F00000146806853
:1055100020F0010200208A6070470000D0F840C0EF
:1055200043F20B03C4F654739C4503D3D0F8003BFD
:10553000002B1ED40023C0F8103BD0F8103B0129EB
:1055400043F40023C0F8103BD0F8103B43F018039D
:10555000C0F8103BD0F8103B43F0C043C0F8103BFC
:1055600007D1C0F8142BD0F8001B41F08021C0F8FF
:10557000001B0020704700004A780B78012A4FEA90
:10558000431210440DD1D0F8002922F40012C0F8C3
:105590000029097901F0FE01022913D100F51060FC
:1055A0000CE0D0F8002B22F40012C0F8002B09798F
:1055B00001F0FE01022905D100F53060016841F0DB
:1055C00080510160002070470A784B785101012B0F
:1055D000084406D1D0F80019002900F5106106D55D
:1055E0000AE0D0F8001B002900F5306104D41AB19C
:1055F000086820F080400860086840F4001200202D
:105600000A607047F0B54B78002491F800C04FF65F
:10561000FF75CFF6F874012BCEF207052AD10E697B
:1056200000EB4C1EDEF81079002E0EF510634CD006
:105630003C401C611C69BCF1000F04EA05041C61BC
:105640008C6856D03519013DB5FBF4F40025C1F640
:10565000F8751E6905EAC44535431D610D79012DB4
:105660004FD11D6925F0C0451D614FF0C04505EAC9
:10567000447443E000EB4C13D3F8107B4FF6FF7EED
:105680002740C3F8107BD3F8104BC0F2070E2C4014
:10569000C3F8104B0C69BCF1000F03F530631DD04B
:1056A0008E68002C6FD0A719013FB7FBF6F7BDB28B
:1056B0006E430E620025C1F6F8751C6905EAC747FE
:1056C000274306EA0E061F6164E03D401D611D6927
:1056D00045F400251D611D692C4017E0002C1CBFFE
:1056E0008F680F618F680F621E6907EA0E073743E4
:1056F0004DE0A64288BF0C614FF400241D692C4385
:105700001C610C691D696FF3DF442C43012A1C6185
:1057100015D1CA69002A18BFCEF8142909790129C0
:1057200050D1D0F80808DEF80019C0054FF08050BD
:1057300058BF4FF000500843CEF8000942E000F592
:1057400010634FEA4C169F5947F004479F510F7959
:10575000012F0DD1D0F80878F558FF054FF080578C
:1057600058BF4FF000572F43F75092B30020F0BDC1
:1057700009690029FAD00CF00F01012202FA01F1A7
:1057800000F6340320E01F6906EA0E0637431F6166
:105790004FF400261F69012A47EA06071F6103D15B
:1057A000CA68002A18BF5A61097901290AD1D0F8BC
:1057B00008081968C0054FF0805058BF4FF00050DE
:1057C000084318604FF0044118680843186000202F
:1057D000F0BD0A8A002AC9D0CB68D11C890800F51F
:1057E00080504FEA0C32043B53F8047F01391750C4
:1057F000FAD1BBE781B0002200924A780978012AE9
:105800004FEA41111BD100F510604258B2F1FF3F41
:105810002FDC0A5842F000620A500A5842F08042D7
:105820000A5042F2107200BF009B01330093009BAC
:10583000934221D84358B3F1FF3FF5DD19E000F55D
:1058400030604258B2F1FF3F13DC0A5842F0006268
:105850000A500A5842F080420A5042F2107200BFC9
:10586000009B01330093009B934205D84358002BC3
:10587000F6D4002001B07047012001B0704700004D
:105880000146806840F0010200208A6070470000F5
:1058900081B00022009200BF009A01320092009A6B
:1058A000B2F1706F15D80269B2F1FF3FF4DC8901E3
:1058B000002220310092016100990131009100998C
:1058C000B1F1706F05D801698906F5D4002001B0E7
:1058D0007047032001B07047D0F8080800F00601B7
:1058E00080074FF0020058BF0F20002908BF08466C
:1058F00070470000406900F001007047D0F81818A8
:10590000D0F81C08084080B270470000D0F8181882
:10591000D0F81C080840000C70470000D0F810C8F0
:10592000D0F8343801F00F0223FA02F2D20100EB72
:105930004110D2B2D0F8080942EA0C010840704781
:1059400000EB4111D1F8081BD0F81408084070474B
:10595000416980690840704780B5930802F00302EE
:1059600009D004394FF4805C50F80CE0013B41F859
:1059700004EFF9D1043172B14FF4805350F803C0F1
:10598000002300BF2CFA03F0013A01F8010B1004C8
:1059900003F10803F6D1084680BD0000B0B5044607
:1059A000C06820F0C040E06091B1012926D1E068D4
:1059B000002540F00050E0600A20FBF707F960691D
:1059C000C00705F10A0014D1BE2D0546F4D310E03E
:1059D000E068002540F08040E06000BF0A20FBF74F
:1059E000F5F86069C00705F10A0002D0BE2D054632
:1059F000F4D3C838B0FA80F04009B0BD0120B0BD82
:105A00000246D0F8000801F07F0120F4FE60C2F8E1
:105A10000008D2F8000840EA01110020C2F800187E
:105A200070470000022A02465CD145F24030CFF6B2
:105A3000277043F200530844C0F20C03984202D28C
:105A40004FF4705050E041F64060CFF61B7044F2C6
:105A500040230844C0F20F03984202D24FF4605032
:105A600042E0A1F5740044F68073A0F51050C0F236
:105A70001203984202D24FF4505035E0A1F18370E6
:105A80004DF22063A0F5E740C0F21303984202D222
:105A90004FF4405028E04BF26060CFF6E5604EF2E4
:105AA00060330844C0F21603984202D24FF43050DB
:105AB0001AE04DF20030CFF6CE6047F24073084452
:105AC000C0F21B03984202D24FF420500CE045F67E
:105AD000C030CFF6B36049F2C0130844C0F22103CE
