:020000040000FA
:1000000002278253D9BF22010000000222A3759863
:1000100010758850758921758E01758D64858D8B5D
:10002000D2AC22022E1DC2AF75B7A575B7F1758F80
:1000300003752D7E752E00852E82852D83E4F0F5C7
:020040008F220D
:100043000223588B4B8A4C894DE54F454E602F8FC9
:10005300964396C0E4FFFEC3EF954FEE954E501BBB
:10006300E59620E7FBAB4BAA4CA94D8F828E83E527
:0F0073009712146B0FBF00010E80DCE4F596228C
:100083000226EF78BDE614B40B0040030207389054
:1000930000A075F003A4C58325F0C583730200C1D6
:1000A3000201A00202930203390203B702043402DD
:1000B30004B30205440205BC02063A0206CC12351B
:1000C300507F31122B9A7F52122A9BAD077F041265
:1000D3002BB97F42122A9BAD077F05122BB9D2029F
:1000E3007896E67892F67897E67891F67898E678B7
:1000F30094F67899E67895F6789AE678BCF6787768
:10010300E664016003020738122EBD120C5D787796
:10011300E660F81237EF122EC67892E67896F678F4
:1001230091E67897F67894E67898F67895E6789954
:10013300F678BC122FE1D2AF7599523099FDC2996E
:100143007599423099FDC2997896E62430F5993035
:1001530099FDC2997897E62430F5993099FDC299B3
:1001630075992E3099FDC2997898E62430F5993027
:1001730099FDC2997899E62430F5993099FDC29991
:10018300789AE62430F5993099FDC29975990D3026
:1001930099FDC29975990A3099FD02027F12355073
:1001A3007F32122B9A7F52122A9BAD077F04122BA8
:1001B300B97F45122A9BAD077F05122BB9D202786E
:1001C3009BE67892F6789CE67891F6789DE67894AB
:1001D300F6789EE67895F6789FE678BCF67877E62B
:1001E30064016003020738122EBD120C5D7877E6B6
:1001F30060F81237EF122EC67892E6789BF6789164
:10020300E6789CF67894E6789DF67895E6789EF6FF
:1002130078BCE6789F122FE4D2AF7599523099FDDE
:10022300C2997599453099FDC299789BE62430F5BA
:10023300993099FDC299789CE62430F5993099FD5F
:10024300C29975992E3099FDC299789DE62430F5AF
:10025300993099FDC299789EE62430F5993099FD3D
:10026300C299789FE62430F5993099FDC299759922
:100273000D3099FDC29975990A3099FDC2991237CB
:10028300141237141232F11237141237140206CA39
:100293001235507F33122A9BAD077F01122BB97F92
:1002A3002D122A9BAD077F02122BB97F4F122BB25F
:1002B3007F50122A9BAD077F04122BB97F54122A59
:1002C3009BAD077F05122BB9D2027877E6640160F4
:1002D3000302073878B8E67892F608F6E47877F6FA
:1002E30075FEA07893E6FF7E006401700518760121
:1002F3008025EF64024E7006789276028019EF64CF
:10030300034E700678927603800DEF64044E7007F7
:1003130078927601087601122A64AD077F05122BC5
:10032300B97877E660BA1237EF7892E678B8122F89
:10033300E4D2AF0206CA1235507F34122B9A7F449F
:10034300122A9BAD077F04122BB97F4C122A9BAD57
:10035300077F05122BB9D20278A5E67892F678A624
:10036300E67891F678A7E67894F678A8E67895F695
:1003730078A9E678BCF67877E6640160030207386B
:10038300122EBD75FEA0120C607877E660F5123769
:10039300EF122EC67892E678A5F67891E678A6F65F
:1003A3007894E678A7F67895E678A8F678BCE678A8
:1003B300A90204AF1235507F35122B9A7F44122ABB
:1003C3009BAD077F04122BB97F48122A9BAD077F91
:1003D30005122BB9D20278A0E67892F678A1E678D6
:1003E30091F678A2E67894F678A3E67895F678A461
:1003F300E678BCF67877E664016003020738122ECC
:10040300BD75FEA0120C607877E660F51237EF1227
:100413002EC67892E678A0F67891E678A1F67894DD
:10042300E678A2F67895E678A3F678BCE678A48019
:100433007B1235507F36122B9A7F41122A9BAD07D0
:100443007F04122BB97F48122A9BAD077F05122B1D
:10045300B9D20278ABE67892F678ACE67891F67882
:10046300ADE67894F678AEE67895F678AFE678BCA4
:10047300F67877E664016003020738122EBD75FE35
:10048300A0120C607877E660F51237EF122EC6786B
:1004930092E678ABF67891E678ACF67894E678ADA8
:1004A300F67895E678AEF678BCE678AFF6020632D3
:1004B3001235507F37122A9BAD077F01122BB97F6C
:1004C3002D122A9BAD077F02122BB97F52122BB23A
:1004D3007F4C122A9BAD077F04122BB97F59122A36
:1004E3009BAD077F05122BB9D2027877E6640160D2
:1004F3000302073878B9E67892F608F6E47877F6D7
:1005030075FEA07893E6FF7E00700418F68017EF5F
:1005130064014E700678927601800BEF64024E7090
:10052300057892F608F6122A64AD077F05122BB9F7
:100533007877E660CB7892E678B9F61237EF020661
:10054300321235507F38122B9A7F50122A9BAD07F7
:100553007F04122BB97F30122A9BAD077F05122B24
:10056300B9D2027877E66401600302073878BAE605
:100573007892F608F6E47877F675FEA07893E6FFAE
:100583007E00700418F68017EF64014E70067892AF
:100593007601800BEF64024E70057892F608F6122E
:1005A3002A64AD077F05122BB97877E660CB789282
:1005B300E678BAF61237EF80761235507F39122B70
:1005C3009A7F43122A9BAD077F04122BB97F5012E7
:1005D3002A9BAD077F05122BB9D2027877E6640117
:1005E300600302073878BBE67892F608F6E478777A
:1005F300F675FEA07893E6FF7E00700418F6801768
:10060300EF64014E700678927601800BEF64024E20
:1006130070057892F608F6122A64AD077F05122B4F
:10062300B97877E660CB7892E678BBF61237EF12AB
:100633002FE5D2AF0207331235507F31122A9BAD1B
:10064300077F01122BB97F30122BA67F2D122A9B15
:10065300AD077F04122BB97F41122A9BAD077F059B
:10066300122BB9D2027877E6640160030207387867
:10067300AAE67892F678AAE675F00A847891F67875
:10068300AAE675F00A847894A6F078787601E4787F
:1006930093F67877F612361A75FEA0121B6D7877EB
:1006A300E660F51237EF12361A7891E675F00AA470
:1006B3007894267892F6D39419748094805008E63F
:1006C30078AA122FE4D2AF80671235507F31122AF5
:1006D3009BAD077F01122BB97F31122BA67F5512D9
:1006E3002A9BAD077F04122BB97F52122A9BAD07B9
:1006F3007F05122BB9D2027877E664017037F612C0
:1007030035507F20122A9BAD077F01122BB97F033F
:10071300122A9BEF4480FD7F02122BB97F02122A1B
:1007230083AD077F05122BB97877E660D21237EFD6
:10073300C2021237142278A0E6FF7E007C037DE814
:1007430012148DAC06AD0778A1E675F064A42DFDF7
:10075300EC35F0FC08E675F00AA42DFFE5F03CFE4D
:1007630008E67C002FFFEC3EFE7D0A12148D78A470
:10077300E62FFFEC3EFEE48F328E31F530F52F0885
:10078300E6FF7E007C037DE812148DAC06AD07788E
:10079300A6E675F064A42DFDEC35F0FC08E675F0D3
:1007A3000AA42DFFE5F03CFE08E67C002FFFEC3E9B
:1007B300FE7D0A12148D78A9E62FFFEC3EFEE48F2E
:1007C3002C8E2BF52AF52978ABE6FF7E007C037D82
:1007D300E812148DAC06AD0778ACE675F064A42D71
:1007E300FDEC35F0FC08E675F00AA42DFFE5F03CBE
:1007F300FE08E67C002FFFEC3EFE7D0A12148D7886
:10080300AFE62FFFEC3EFEE48F258E24F523F52281
:1008130078B8E6F54008E66401700A3001028010FA
:10082300C2A6020A3E78B9E66003020A3E30010F0F
:10083300C2A0123714D2A0123714D2A6020A3E3035
:100843000103020A3EE5406401707B7B02FAF9F87A
:10085300AF25AE24AD23AC2212152AEF252CFFEED3
:10086300352BFEED352AFDEC3529FC78CE1215D952
:10087300E47B02FAF9F8AF25AE24AD23AC221215BE
:100883002AC3E52C9FFFE52B9EFEE52A9DFDE52966
:100893009CFC78D21215D978CE1215CDAB45AA445B
:1008A300A943A842C31215BC4003020A3A78D212E4
:1008B30015CDAB45AA44A943A842D31215BC4003A6
:1008C300020A3E020A21E540640260030209BC7B7E
:1008D30002FAF9F8AF25AE24AD23AC2212152AEFA4
:1008E3002532FFEE3531FEED3530FDEC352FFC784A
:1008F300BE1215D9E47B02FAF9F8AF25AE24AD2375
:10090300AC2212152AC3E5329FFFE5319EFEE53086
:100913009DFDE52F9CFC78C21215D9E47B02FAF900
:10092300F8AF25AE24AD23AC2212152AEF252CFFF8
:10093300EE352BFEED352AFDEC3529FC78C6121574
:10094300D9E47B02FAF9F8AF25AE24AD23AC221229
:10095300152AC3E52C9FFFE52B9EFEE52A9DFDE5A9
:10096300299CFC78CA1215D978C61215CDAB45AAB5
:1009730044A943A842C31215BC401478C21215CD32
:10098300A842D31215BC5007C2A0C2A6020A3E78E1
:10099300CA1215CDAB45AA44A943A842C31215BC3C
:1009A300401078BE1215CDA842D31215BC500302D5
:1009B3000A3ED2A0D2A6020A3EE5406403707C7BC5
:1009C30002FAF9F8AF25AE24AD23AC2212152AEFB3
:1009D3002532FFEE3531FEED3530FDEC352FFC7859
:1009E300CE1215D9E47B02FAF9F8AF25AE24AD2374
:1009F300AC2212152AC3E5329FFFE5319EFEE53096
:100A03009DFDE52F9CFC78D21215D978CE1215CD19
:100A1300AB45AA44A943A842C31215BC4006C2A6CB
:100A2300C2A0801778D21215CDAB45AA44A943A81A
:100A330042D31215BC5004D2A6D2A078BAE6640100
:100A43007008300102800ED2A52278BAE660030254
:100A53000C5C30010DC2A0123714D2A0123714C29D
:100A6300A522300103020C5CE5406401707B7B022C
:100A7300FAF9F8AF25AE24AD23AC2212152AEF25DF
:100A83002CFFEE352BFEED352AFDEC3529FC78CE17
:100A93001215D9E47B02FAF9F8AF25AE24AD23ACE5
:100AA3002212152AC3E52C9FFFE52B9EFEE52A9D06
:100AB300FDE5299CFC78D21215D978CE1215CDAB61
:100AC30045AA44A943A842C31215BC4003020C58CB
:100AD30078D21215CDAB45AA44A943A842D3121527
:100AE300BC4003020C5C020C40E54064026003025C
:100AF3000BDB7B02FAF9F8AF25AE24AD23AC22124F
:100B0300152AEF2532FFEE3531FEED3530FDEC359C
:100B13002FFC78BE1215D9E47B02FAF9F8AF25AEA3
:100B230024AD23AC2212152AC3E5329FFFE5319E83
:100B3300FEE5309DFDE52F9CFC78C21215D9E47BC0
:100B430002FAF9F8AF25AE24AD23AC2212152AEF31
:100B5300252CFFEE352BFEED352AFDEC3529FC78EF
:100B6300C61215D9E47B02FAF9F8AF25AE24AD23FA
:100B7300AC2212152AC3E52C9FFFE52B9EFEE52A26
:100B83009DFDE5299CFC78CA1215D978C61215CDAE
:100B9300AB45AA44A943A842C31215BC401278C26C
:100BA3001215CDA842D31215BC5005C2A0D2A5225E
:100BB30078CA1215CDAB45AA44A943A842C312155E
:100BC300BC401078BE1215CDA842D31215BC5003F9
:100BD300020C5CD2A0C2A522E5406403707B7B02B9
:100BE300FAF9F8AF25AE24AD23AC2212152AEF256E
:100BF30032FFEE3531FEED3530FDEC352FFC78CE8E
:100C03001215D9E47B02FAF9F8AF25AE24AD23AC73
:100C13002212152AC3E5329FFFE5319EFEE5309D82
:100C2300FDE52F9CFC78D21215D978CE1215CDABE9
:100C330045AA44A943A842C31215BC4005D2A5C284
:100C4300A02278D21215CDAB45AA44A943A842D31A
:100C53001215BC5004C2A5D2A02275FEA07878E676
:100C630064016003020CF07892E608F675FEA07842
:100C730093E6B40B005064900C81F8282873020C9F
:100C8300A2020CA4020CAA020CB0020CB6020CBC09
:100C9300020CC2020CC8020CCE020CD4020CA280BD
:100CA3003678927601803478927602802E78927626
:100CB30003802878927604802278927605801C78C7
:100CC300927606801678927607801078927608805E
:100CD3000A789276098004E47892F6121A3F7878BB
:100CE300E664016003020F3918E66080227878E633
:100CF30064026003020D817891E67893F675FEA095
:100D03007893E6B40B005064900D12F82828730210
:100D13000D33020D35020D3B020D41020D47020D4D
:100D23004D020D53020D59020D5F020D65020D6B4D
:100D3300803678917601803478917602802E78918E
:100D43007603802878917604802278917605801C3A
:100D530078917606801678917607801078917608D8
:100D6300800A789176098004E47891F6121A3F7824
:100D730078E664026003020F3918E660802278780F
:100D8300E664036003020E117894E618F675FEA07C
:100D93007893E6B40B005064900DA2F828287302F0
:100DA3000DC3020DC5020DCB020DD1020DD7020DED
:100DB300DD020DE3020DE9020DEF020DF5020DFB5D
:100DC300803678947601803478947602802E7894F5
:100DD3007603802878947604802278947605801CA4
:100DE300789476068016789476078010789476083F
:100DF300800A789476098004E47894F6121A3F788E
:100E030078E664036003020F3918E660802278787D
:100E1300E664046003020EA27895E67893F675FE05
:100E2300A07893E6B40B005064900E33F82828732F
:100E3300020E54020E56020E5C020E62020E68028D
:100E43000E6E020E74020E7A020E80020E86020EDF
:100E53008C803678957601803478957602802E786A
:100E63009576038028789576048022789576058098
:100E73001C78957606801678957607801078957697
:100E830008800A789576098004E47895F6121A3F6B
:100E93007878E664046003020F3918E660802278EC
:100EA30078E664056003020F3078BCE67893F67544
:100EB300FEA07893E6B40B005064900EC4F8282883
:100EC30073020EE5020EE7020EED020EF3020EF9B7
:100ED300020EFF020F05020F0B020F11020F170282
:100EE3000F1D803678BC7601803478BC7602802E64
:100EF30078BC7603802878BC7604802278BC76059B
:100F0300801C78BC7606801678BC7607801078BC87
:100F13007608800A78BC76098004E478BCF6121A55
:100F23003F7878E66405700E18E66083227878E6E9
:100F3300640670027601223002030211FF200303CC
:100F43000211FFC2037864E6642E6003021167781E
:100F530061E6FF3395E0FEC3EF9430EE6480948046
:100F63005003021167D3EF9439EE648094804003F9
:100F730002116708E6FF3395E0FEC3EF9430EE6499
:100F83008094805003021167D3EF9439EE64809408
:100F930080400302116708E6FF3395E0FEC3EF9438
:100FA30030EE648094805003021167D3EF9439EEDE
:100FB3006480948040030211677865E6FF3395E00F
:100FC300FEC3EF9430EE648094805003021167D324
:100FD300EF9439EE64809480400302116708E6FFC2
:100FE3003395E0FEC3EF9430EE64809480500302A7
:100FF3001167D3EF9439EE64809480400302116744
:1010030008E6FF3395E0FEC3EF9430EE64809480EE
:101013005003021167D3EF9439EE64809480400348
:10102300021167C201786174D026F60874D026F6DF
:101033000874D026F6786574D026F60874D026F6A0
:101043000874D026F67862E6F55108E6F55278651D
:10105300E6F55308E6F55408E6F555E4855145F5FC
:1010630044F543F5427F0AFEFDFCAB45AA44A94380
:10107300A84212149FA804A905AA06AB07E4FCFD25
:10108300FEEB2552F545EE3AF544ED39F543EC38E0
:10109300F542E47F0AAB45AA44A943A84212149F30
:1010A300A804A905AA06AB07E4FCFDFEEB2553F54E
:1010B30045EE3AF544ED39F543EC38F542E47F0A61
:1010C300AB45AA44A943A84212149FA804A905AAA0
:1010D30006AB07E4FCFDFEEB2554F545EE3AF5447B
:1010E300ED39F543EC38F542E47F0AAB45AA44A950
:1010F30043A84212149FA804A905AA06AB07E4FC5F
:10110300FDFEEB2555F545EE3AF544ED39F543EC97
:1011130038F54274302551F55174302552F5527427
:10112300302553F55374302554F55474302555F553
:1011330055123550AF51122A9BAD077F01122BB9BF
:10114300AF52122A9BEF4480FD7F02122BB9AF539B
:10115300122BB2AF54122A9BAD077F04122BB9AFE7
:10116300550211F2E4FFEFC3940A74809480500F88
:1011730074612FF8E6FE74792FF8A6060F80E778DE
:1011830079E6FC642B702D12355008E6FF122A9B7A
:10119300AD077F01122BB908E6FF122A9BAD077F2B
:1011A30002122BB97D637F03122BB9E4FD7F041276
:1011B3002BB98040EC64457040D2011235507879E8
:1011C300E6FF122A9BAD077F01122BB908E6FF1237
:1011D3002A9BAD077F02122BB908E6FF122BB20838
:1011E300E6FF122A9BAD077F04122BB908E6FF1214
:1011F3002A9BAD077F05122BB912073922123745F7
:10120300122F08D2AF12376B12371412371412375A
:10121300141235507DFF7F01122BB97F02122BB9B7
:101223007D7F7F03122BB97F04122BB97F05122B0D
:10123300B9C293C2AF12332678B0E66401701108C5
:10124300E66402700B08E664037005FE7F01800408
:101253007E007F00EF4E7003122CC0E4FDEDC394BB
:101263002674809480501A74962DF8E6D3940974EA
:10127300809480400975FEA0120026122CC30D80B5
:10128300DCD283C28678A1E6FF7E007C037DE81270
:10129300148DAA06AB0778A0E6FF7E007C277D109D
:1012A30012148DEF2BFDEE3AFC78A2E675F064A4E0
:1012B3002DFDE5F03CFC08E675F00AA42DFFE5F0F2
:1012C3003CFE08E67C002FFFEC3EFEE48F328E31BD
:1012D300F530F52F78A6E6FF7E007C037DE8121437
:1012E3008DAA06AB0778A5E6FF7E007C277D10124A
:1012F300148DEF2BFDEE3AFC78A7E675F064A42D70
:10130300FDE5F03CFC08E675F00AA42DFFE5F03C92
:10131300FE08E67C002FFFEC3EFEE48F2C8E2BF5BF
:101323002AF52978ACE6FF7E007C037DE812148D54
:10133300AA06AB0778ABE6FF7E007C277D1012146C
:101343008DEF2BFDEE3AFC78ADE675F064A42DFD30
:10135300E5F03CFC08E675F00AA42DFFE5F03CFE41
:1013630008E67C002FFFEC3EFEE48F258E24F52358
:10137300F52278B8E6F540123326123714123714E3
:101383001237141237141237141237147BFF7A38BA
:1013930079BE1232F71237141237147BFF7A387979
:1013A300BE1232F71237141237147BFF7A3879C51D
:1013B3001232F71237141237141229151229871211
:1013C30032F11237141237141232F1123714E4784F
:1013D300BDF6C202ADD3ADD37890F6C204C20612F5
:1013E30036FBD283C286D2AFC298D2AC43D201AD10
:1013F300D3ADD31236C775FEA0120086120F3A1270
:1014030017C078BBE664017003121905122811A2F4
:10141300AFE433F550C2AF122F99E55024FF92AFDA
:1014230080D4BB010689828A83E0225002E722BB73
:10143300FE02E32289828A83E49322BB010CE582C4
:1014430029F582E5833AF583E0225006E92582F8FF
:10145300E622BBFE06E92582F8E222E58229F5822F
:10146300E5833AF583E49322F8BB010DE58229F580
:1014730082E5833AF583E8F0225006E92582C8F62F
:1014830022BBFE05E92582C8F222EF8DF0A4A8F065
:10149300CF8CF0A428CE8DF0A42EFE22E88FF0A4EA
:1014A300CC8BF0A42CFCE98EF0A42CFC8AF0EDA4E8
:1014B3002CFCEA8EF0A4CDA8F08BF0A42DCC38251B
:1014C300F0FDE98FF0A42CCD35F0FCEB8EF0A4FEFB
:1014D300A9F0EB8FF0A4CFC5F02ECD39FEE43CFC90
:1014E300EAA42DCE35F0FDE43CFC2275F0087582AC
:1014F30000EF2FFFEE33FECD33CDCC33CCC582339B
:10150300C5829BED9AEC99E58298400CF582EE9B9F
:10151300FEED9AFDEC99FC0FD5F0D6E4CEFBE4CDBD
:10152300FAE4CCF9A88222B800C1B90059BA002D57
:10153300EC8BF084CFCECDFCE5F0CBF97818EF2F10
:10154300FFEE33FEED33FDEC33FCEB33FB10D7033F
:10155300994004EB99FB0FD8E5E4F9FA227818EFE8
:101563002FFFEE33FEED33FDEC33FCC933C910D747
:10157300059BE99A4007EC9BFCE99AF90FD8E0E454
:10158300C9FAE4CCFB2275F010EF2FFFEE33FEED2A
:1015930033FDCC33CCC833C810D7079BEC9AE899FA
:1015A300400AED9BFDEC9AFCE899F80FD5F0DAE4DC
:1015B300CDFBE4CCFAE4C8F922EB9FF5F0EA9E42B6
:1015C300F0E99D42F0E89C45F022E6FC08E6FD08C0
:1015D300E6FE08E6FF22ECF608EDF608EEF608EF65
:1015E300F622D083D082F8E4937012740193700DC5
:1015F300A3A393F8740193F5828883E4737402932D
:101603006860EFA3A3A380DFE59620E7FB75960E42
:10161300E4F597E59620E7FB759691E59620E7FBC1
:10162300859749E5186405700DE59620E7FBE4F519
:1016330096850C97F518E54930E20EE59620E7FB11
:10164300759611E4F597F51822E54930E419E59606
:1016530020E7FB759611759708E59620E7FB7596CD
:1016630011759780E4F518E5186003021727E5491B
:1016730020E0030217277B007A007909754E007575
:101683004F087F20120046E50CFE7C00E4250BF595
:101693000CEC3EF50BE50EFEE4250DF50EEC3EF5E8
:1016A3000DE510FEE4250FF510EC3EF50FE50954AA
:1016B300607061E50AB40C0050679016C4F82828DE
:1016C300730216E80216ED0217150216F202171539
:1016D3000216F70216FC021715021701021706027B
:1016E300170B0217101223FB803A1225C9803512FB
:1016F300265C80301230FB802B121DB58026122B06
:1017030036802112289B801C122E6F80171234AD55
:101713008012800DE5095460644070051237FC8027
:10172300031236ADE518640160030217BFE54930C3
:10173300E1030217BFE59620E7FB759691E5962036
:10174300E7FB859749E54930E40320E06F754902DB
:10175300C3E5149440E5139400AB15AA16A91740EA
:101763002F754E00754F407F20123242744025176B
:10177300F517E43516F51674C02514F51474FF3502
:1017830013F51374402512F512E43511F511801188
:1017930085134E85144F7F20123242434908E4F5E6
:1017A30018E512B5100BE511B50F06434908E4F52A
:1017B30018E59620E7FB75961185499722C207E441
:1017C300F551F552AF3FC3EF9405748094805003F5
:1017D300021904300203021904200403021904C28B
:1017E3000478AAE62441FF7876E6640A700A786CE6
:1017F300E6B50704D2078002C207200703021904D3
:10180300786DE6F55108E6F552E551B44417E55213
:10181300B45412D20578BBE6640160030218EF12D8
:101823001C950218EFE551B45210E552B4420BC2B5
:1018330005121F8B12338E0218EFE551B45210E5D7
:1018430052B4450BC205121EC21233BE0218EFE595
:1018530051B44F10E552B4500BC205123029123562
:10186300940218EFE551B4440FE552B44C0AC20593
:101873001220511233EE8074E551B4440FE552B493
:10188300480AC20512211712341E8060E551B44183
:101893000FE552B4480AC2051221DD12344E804CC2
:1018A300E551B4520FE552B44C0AC20512306F121F
:1018B30035B68038E551B4500FE552B44F0AC2052E
:1018C3001230B51235D88024E551B4500CE552B42A
:1018D3004107C20512335B8013E551B4500EE55244
:1018E300B45209C205C2AF122CC0D2AFE4FFEFC39A
:1018F300940A748094805009746B2FF876200F80BB
:10190300ED22AF3FC3EF9405748094805003021A15
:101913003E300203021A3E854554854453854352A3
:10192300854251E47B107A27F9F8AF54AE53AD5298
:10193300AC5112152A78BEA607E47B107A27F9F872
:10194300AF54AE53AD52AC5112152AAC00AD01AE3B
:1019530002AF03E47BE87A03F9F812152A78BFA6ED
:1019630007E47BE87A03F9F8AF54AE53AD52AC51B8
:1019730012152AAC00AD01AE02AF03E47B64FAF9A1
:10198300F812152A78C0A607E47B64FAF9F8AF5475
:10199300AE53AD52AC5112152AAC00AD01AE02AF3D
:1019A30003E47B0AFAF9F812152A78C1A607E47B47
:1019B3000AFAF9F8AF54AE53AD52AC5112152AAF2F
:1019C3000378C2A60778BE743026F608743026F66C
:1019D30008743026F608743026F608743026F6307C
:1019E300055920012378BEE67884F678BFE678852A
:1019F300F608762E78C0E67887F678C1E67888F61A
:101A030078C2E67889F6801E30011B7879E67884FF
:101A1300F6787AE67885F6787BE67886F608762097
:101A2300087620087620788A760D08760A753A07B4
:101A33007541017883E6F5D3123714227878E6648A
:101A430001701B1231821237141235507F20122A73
:101A53009BAD077F01122BB97891E6FF8020787840
:101A6300E66402702F1231821237141235507892C5
:101A7300E6FF122A9BAD077F01122BB97F20122AA2
:101A83009BEF4480FD7F02122BB97894E6FF122B63
:101A9300B20880327878E66403702F1231821237ED
:101AA300141235507892E6FF122A9BAD077F01127C
:101AB3002BB918E6FF122A9BEF4480FD7F02122AFE
:101AC30096122BB57895E6FF80367878E664047035
:101AD3003F1231821237141235507892E6FF122AE0
:101AE3009BAD077F01122BB918E6FF122A9BEF4427
:101AF30080FD7F02122BB97894E6FF122BB27F2070
:101B0300122A9BAD077F04122BB978BCE6FF8043F2
:101B13007878E66405704912318212371412355011
:101B23007892E6FF122A9BAD077F01122BB918E6C4
:101B3300FF122A9BEF4480FD7F02122BB97894E6B3
:101B4300FF122BB208E6FF122A9BAD077F04122B6C
:101B5300B97F20122A9BAD077F05122BB9023714D8
:101B63007878E6640670027601227878E66401608C
:101B730003021BFE7891E67893F675FEA07893E650
:101B8300B40B005064901B8FF8282873021BB0021B
:101B93001BB2021BB8021BBE021BC4021BCA021BE0
:101BA300D0021BD6021BDC021BE2021BB08036787C
:101BB300917601803478917602802E789176038035
:101BC3002878917604802278917605801C78917626
:101BD30006801678917607801078917608800A78C7
:101BE3009176098004E47891F6122D1A7878E664E8
:101BF300016003021C9418E66080227878E6640290
:101C03006003021C8B7894E618F675FEA07893E6C1
:101C1300B40B005064901C1FF8282873021C400268
:101C23001C42021C48021C4E021C54021C5A021C79
:101C330060021C66021C6C021C72021C78803678DF
:101C4300947601803478947602802E78947603809B
:101C53002878947604802278947605801C7894768C
:101C630006801678947607801078947608800A7830
:101C73009476098004E47894F6122D1A7878E66451
:101C830002700E18E66083227878E66403700276A9
:101C93000122300203021DB4854556854455854310
:101CA30054854253E47B107A27F9F8AF56AE55AD0D
:101CB30054AC5312152A78BEA607E47B107A27F991
:101CC300F8AF56AE55AD54AC5312152AAC00AD0166
:101CD300AE02AF03E47BE87A03F9F812152A78BF62
:101CE300A607E47BE87A03F9F8AF56AE55AD54ACDA
:101CF3005312152AAC00AD01AE02AF03E47B64FAC4
:101D0300F9F812152A78C0A607E47B64FAF9F8AF4C
:101D130056AE55AD54AC5312152AAC00AD01AE020C
:101D2300AF03E47B0AFAF9F812152A78C1A607E48F
:101D33007B0AFAF9F8AF56AE55AD54AC5312152AD7
:101D4300AF0378C2A60778BE743026F6087430262F
:101D5300F608743026F608743026F608743026F632
:101D630030054E7886764408765420012378BEE603
:101D73007888F678BFE67889F608762E78C0E67814
:101D83008BF678C1E6788CF678C2E6788DF6801EFD
:101D930030011B7879E67888F6787AE67889F678E0
:101DA3007BE6788AF60876200876200876201235B6
:101DB3007222E50B24FE601E14603C14606C1460F8
:101DC3007924046003021E767515FF75163875179E
:101DD3001B90381B80607515FF75163875172D908D
:101DE3003830E493FE90382FE4937C002400F514FC
:101DF300EC3EF513021E79D3E50C940274809480B3
:101E03004002806F75F002E50CA424B3F582E5F07F
:101E13003438F583E493FE740193AA06F97BFF8BB0
:101E2300158A16F51712142580407515FF75163897
:101E3300751736903836E4938030AF0C7E00EF642C
:101E4300816005EF64017029EF64814E700E751592
:101E5300FF75163875173F90383F800D7515FF7560
:101E63001638751746903846E493751300F51480B9
:101E73000580001236ADAF0BEF64016014EF64020E
:101E8300600FEF6403600AEF64046005EF6405709C
:101E930014C3E5109514E49513500AE50F700685F5
:101EA3000F13851014E51864046013E59620E7FB0F
:101EB300759611759740751801E4F511F51222789E
:101EC30071E6642E6003021F8A786FE6FF7E00C30B
:101ED3009430748094805003021F8AD3EF94397432
:101EE3008094804003021F8A08E6FFC39430748005
:101EF30094805003021F8AD3EF94397480948040F6
:101F030003021F8A7872E6FFC39430748094804082
:101F130076D3EF943974809480506C08E6FFC394B1
:101F230030748094804060D3EF94397480948050EF
:101F33005608E6FFC3943074809480404AD3EF94EC
:101F430039748094805040786F74D026F60874D02A
:101F530026F6787274D026F60874D026F60874D064
:101F630026F6786FE6789BF67870E6789CF67872BA
:101F7300E6789DF67873E6789EF67874E6789F1295
:101F83002FE4D2AF122531227871E6642E6003026A
:101F93002050786FE6FF7E00C394307480948050A5
:101FA30003022050D3EF94397480948040030220BD
:101FB3005008E6FFC394307480948050030220508D
:101FC300D3EF94397480948040030220507872E6F2
:101FD300FFC39430748094804073D3EF943974803A
:101FE3009480506908E6FFC3943074809480405D08
:101FF300D3EF943974809480505308E6FFC3943030
:10200300748094804047D3EF943974809480503D1A
:10201300786F74D026F60874D026F6787274D026BA
:10202300F60874D026F60874D026F6786FE678960C
:10203300F67870E67897F67872E67898F67873E62D
:102043007899F67874122FE1D2AF1224992278711D
:10205300E6642E6003022116786FE6FF7E00C394C8
:1020630030748094805003022116D3EF9439748026
:102073009480400302211608E6FFC39430748094D1
:10208300805003022116D3EF943974809480400367
:102093000221167872E6FFC39430748094804073F3
:1020A300D3EF943974809480506908E6FFC3943069
:1020B30074809480405DD3EF94397480948050533E
:1020C30008E6FFC39430748094804047D3EF94397B
:1020D30074809480503D786F74D026F60874D026AF
:1020E300F6787274D026F60874D026F60874D026D3
:1020F300F6786FE678A5F67870E678A6F67872E655
:1021030078A7F67873E678A8F67874E678A9122F9C
:10211300E4D2AF227871E6642E60030221DC786F8B
:10212300E6FF7E00C394307480948050030221DC68
:10213300D3EF94397480948040030221DC08E6FFD6
:10214300C394307480948050030221DCD3EF94391C
:102153007480948040030221DC7872E6FFC39430DC
:10216300748094804073D3EF943974809480506961
:1021730008E6FFC3943074809480405DD3EF9439B4
:1021830074809480505308E6FFC394307480948025
:102193004047D3EF943974809480503D786F74D066
:1021A30026F60874D026F6787274D026F60874D012
:1021B30026F60874D026F6786FE678A0F67870E6EF
:1021C30078A1F67872E678A2F67873E678A3F678C3
:1021D30074E678A4122FE4D2AF227871E6642E60FD
:1021E300030222A2786FE6FF7E00C39430748094CA
:1021F3008050030222A2D3EF943974809480400369
:102203000222A208E6FFC394307480948050030234
:1022130022A2D3EF94397480948040030222A278DF
:1022230072E6FFC39430748094804073D3EF943983
:1022330074809480506908E6FFC39430748094805E
:10224300405DD3EF943974809480505308E6FFC304
:102253009430748094804047D3EF94397480948091
:10226300503D786F74D026F60874D026F6787274D1
:10227300D026F60874D026F60874D026F6786FE6D2
:1022830078ABF67870E678ACF67872E678ADF678E7
:1022930073E678AEF67874E678AF122FE4D2AF2205
:1022A300C0E0C0D075D000C000C001C002C003C0F0
:1022B30004C005C006C007AF3FC3EF940574809404
:1022C300805002053FE590F454F0F9606D7F0A7E7B
:1022D300001234DAE960631234DAAF01E924E06012
:1022E3003224E0601C24C0603B2470704D78BD062E
:1022F300D202E6640C7002760175FEA03094FA8077
:1023030032787806E664067002760175FEA0309690
:10231300FA8020789306E6640A7001F675FEA03011
:1023230095FA800F78BDE660047877760175FEA094
:102333003097FA7F0A7E001234DA758CB1758ADF22
:10234300D007D006D005D004D003D002D001D000EE
:10235300D0D0D0E032C0E0C0F0C083C082C0D0751E
:10236300D000C000C001C002C003C004C005C00645
:10237300C007E59620E7FB759686E59620E7FB8583
:102383009746E59620E7FB759682E59620E7FB8561
:102393009747E59620E7FB759684E59620E7FB854E
:1023A3009748E54630E1031237B9E54630E20312B8
:1023B300372DE54730E00312160BE54730E10312F2
:1023C3003203E54830E1031231C4E54630E003123D
:1023D300352CE54630E306122F511229F9D007D0E8
:1023E30006D005D004D003D002D001D000D0D0D085
:1023F30082D083D0F0D0E032E50C450B7008E510B5
:102403006402450F60031236ADE509247F600F14A3
:10241300601C24027063E50E450D604A805BE5088D
:1024230064047006E50E450D6002804D8038E508B2
:1024330064047004E50D6002803FAF0E7E00EF641C
:1024430081700AE51964037002800E8019EF64013C
:102453004E7024E51A6403700D7515FF751600752B
:102463001707F513800C7515FF7516007517097599
:102473001300751402800580001236ADE51864045C
:102483006013E59620E7FB75961175974075180163
:10249300E4F511F51222C2AC75FEA075995230997C
:1024A300FDC2997599423099FDC2997896E6243018
:1024B300F5993099FDC2997897E62430F5993099CA
:1024C300FDC29975992E3099FDC2997898E624300A
:1024D300F5993099FDC2997899E62430F5993099A8
:1024E300FDC299789AE62430F5993099FDC2997521
:1024F300990D3099FDC29975990A3099FDC29912C7
:1025030037141237147599443099FDC2997599544B
:102513003099FDC29975990D3099FDC29975990A43
:102523003099FDC299123714123714D2AC22C2ACBF
:1025330075FEA07599523099FDC2997599453099E8
:10254300FDC299789BE62430F5993099FDC29978BC
:102553009CE62430F5993099FDC29975992E3099EE
:10256300FDC299789DE62430F5993099FDC299789A
:102573009EE62430F5993099FDC299789FE6243080
:10258300F5993099FDC29975990D3099FDC29975E8
:10259300990A3099FDC29912371412371475994468
:1025A3003099FDC2997599543099FDC29975990D69
:1025B3003099FDC29975990A3099FDC29912371461
:1025C300123714D2AC22E5086404706DAF09EF60D2
:1025D3006864016064E50C450B705EE510450F60AF
:1025E300028056E50964027025E50C7021E50E644E
:1025F30081701BE59620E7FB75960E759701E596AE
:1026030020E7FB759611759740E4F519802EE509CF
:1026130064027025E50C7021E50E6401701BE596DC
:1026230020E7FB75960E759701E59620E7FB7596F7
:1026330014759780E4F51A80031236ADE59620E70A
:10264300FB75960EE4F597E5186404600BE5962098
:10265300E7FB75961175974822E5086404706DAF22
:1026630009EF606864016064E50C450B705EE5107A
:10267300450F60028056E50964027025E50C702160
:10268300E50E6481701BE59620E7FB75960E759742
:1026930001E59620E7FB7596117597107519038070
:1026A3002EE50964027025E50C7021E50E640170C6
:1026B3001BE59620E7FB75960E759701E59620E7D7
:1026C300FB759614759720751A0380031236ADE5D2
:1026D3009620E7FB75960EE4F597E5186404600B06
:1026E300E59620E7FB75961175974822C0E0C0D0A8
:1026F30075D000C000C006C007756000E5D2540164
:1027030064017043F53F53D2EFAFD3200433EF643A
:1027130023700CD20678907601786BA6078022305E
:10272300061F7890E6FEC3940C7480948050127454
:102733006B2EF8A607789006E6640C7004D204C2E8
:102743000643D21053D2FEE5D2540264027025AF81
:102753003AEF600FAF4174832FF8E6F5D3054115C7
:102763003A800E78BBE664017004D283C286753F5B
:102773000053D2FDD007D006D000D0D0D0E0321223
:102783000003787FE4F6D8FD7581D50227CC0212C9
:1027930000E493A3F8E493A34003F68001F208DF77
:1027A300F48029E493A3F85407240CC8C333C45416
:1027B3000F4420C8834004F456800146F6DFE480CA
:1027C3000B0102040810204080902BFEE47E01934D
:1027D30060BCA3FF543F30E509541FFEE493A3609C
:1027E300010ECF54C025E060A840B8E493A3FAE4F7
:1027F30093A3F8E493A3C8C582C8CAC583CAF0A348
:10280300C8C582C8CAC583CADFE9DEE780BEE5263C
:102813006046A2AFE433F551C2AFE59620E7FB75FE
:10282300960E759701E59620E7FB75961175970847
:10283300E59620E7FB759614759710E4F53DF53E94
:10284300F521FD7F011235FAE4FD7F021235FAE42A
:10285300F526E55124FF92AFE5211215E5287F0007
:10286300288210288511288812288B13288E142873
:1028730091152894F02897F10000289A02347E02DB
:10288300377D0236E1023503022D730232B8022D81
:10289300C80237C712379C22E5086402601BE509AA
:1028A3007017E50E450D7011E510450F700BD3E55C
:1028B3000C9401E50B940040051236AD8042D3E53C
:1028C3000C940074809480402E750804E4F519F587
:1028D3001AE59620E7FB75960E759701E59620E7B6
:1028E300FB759612759704123203E59620E7FB7584
:1028F300960EE4F5978009750803751903751A0395
:10290300E5186404600BE59620E7FB75961175974F
:102913004822C2AC75FEA07599523099FDC29975D3
:1029230099423099FDC2997896E62430F599309909
:10293300FDC2997897E62430F5993099FDC29975CF
:10294300992E3099FDC2997898E62430F5993099FB
:10295300FDC2997899E62430F5993099FDC29978AA
:102963009AE62430F5993099FDC29975990D3099FD
:10297300FDC29975990A3099FDC29912371412371D
:1029830014D2AC22C2AC75FEA07599523099FDC227
:10299300997599453099FDC299789BE62430F5994C
:1029A3003099FDC299789CE62430F5993099FDC29F
:1029B3009975992E3099FDC299789DE62430F59941
:1029C3003099FDC299789EE62430F5993099FDC27D
:1029D30099789FE62430F5993099FDC29975990D40
:1029E3003099FDC29975990A3099FDC2991237142D
:1029F300123714D2AC22E4FFE59620E7FB75960E5E
:102A0300759701E59620E7FB759694E59620E7FB1D
:102A1300AE97E51A64036048EE30E044E53E70404B
:102A2300E59620E7FB759696E59620E7FBAF97EFD3
:102A33006440600DE59620E7FB759614759710804A
:102A4300147B017A007940754E00754F407F211247
:102A53000046753E01E59620E7FB759614E4F5976D
:102A6300221235507892E6FF122A9BAD077F01129E
:102A73002BB97F20122A9BAD077F02122BB97F202F
:102A8300122A9BAD077F03122BB97F20122A9BAD1D
:102A9300077F04122BB97F20E4FEEE25E024F1F535
:102AA30082E43438F583E4936F60110E75FEA0EE73
:102AB300D394287480948040E17F2022EE25E02483
:102AC300F2F582E43438F583E493FF22E4F54AE532
:102AD300086404701DE50964407017E50E450D7028
:102AE30011E510450F700BD3E50C9401E50B940031
:102AF30040051236AD8015752601E50C6401450BC2
:102B0300700AAFB7EF64037003754A01E59620E7D7
:102B1300FB75960EE4F597E5186404600BE59620C3
:102B2300E7FB759611759748E54A600612378D43A2
:102B3300EF1022E50964807014E50C450B700EE577
:102B43000E450D7008E5106401450F60051236ADA2
:102B5300802BAF087E00EF6404700E7515FF7516A9
:102B630000751707F513751401EF64034E700E75A6
:102B730015FF751600751709F513751401E518642B
:102B8300046013E59620E7FB759611759740751859
:102B930001E4F511F51222122A9BAD077F01122BD6
:102BA300B97F2D122A9BAD077F02122BB97F2D12FD
:102BB3002A9BAD077F03C290C292E4FEEEC3940842
:102BC300748094805012EF339291C29075FEA0D21C
:102BD30090EF25E0FF0E80E4AF05E4FEEEC394081A
:102BE300748094805012EF339291C29075FEA0D2FC
:102BF30090EF25E0FF0E80E4D29222031800030336
:102C0300013D00013E000126000121000A79202038
:102C130020202020202020200178000C6B20202061
:102C23002020202020202020200D83202020202051
:102C33002020202020202020013F00C106C10501C3
:102C43009000C104013A000141000A6120202020C4
:102C5300202020202020C100C101C103008B568AFF
:102C6300578958A2AFE433F55B8E5C8F5DC2AF75B5
:102C73008F0143AF01E4F55EF55FC3E55F955AE568
:102C83005E9559502E851BB7851CB7AB56AA57A91D
:102C930058855F82855E8312143EFFE55D255FF5EF
:102CA30082E55C355EF583EFF0055FE55F70CB058C
:102CB3005E80C7E4F58FE55B24FF92AF2212002606
:102CC300E4F5AF758F017537FF7538387539CB75F6
:102CD3002D7EF52EF553C3E55394267480948050CE
:102CE3003075B7A575B7F1AB37AA38A939121425D2
:102CF300852E82852D83F0052EE52E7002052D7419
:102D0300012539F539E43538F53875FEA0055380CA
:102D1300C5E4F58F0233267878E66401701B12361A
:102D2300391237141235507F20122A9BAD077F01C9
:102D3300122BB97894E6FF80207878E66402702637
:102D43001236391237141235507891E6FF122A9B46
:102D5300AD077F01122BB97F20122A77AD077F05BC
:102D6300122BB90237147878E664037002760122D5
:102D7300E53464087012FD7F011235FAE53660040C
:102D83007521F0227521F122E53D7038E53C25E0FF
:102D9300FEE42400FDEE3412FCE53475F040A4AEED
:102DA300F02DF553EE3CF552E53660137B017A00C6
:102DB3007900755900755A40AF53AE5212314075C0
:102DC3003D01053422E53364087012FD7F0212359C
:102DD300FAE53560047521F0227521F122E53E60A4
:102DE30038E53B25E0FEE42400FDEE3412FCE53338
:102DF30075F040A4AEF02DF553EE3CF552E5356089
:102E0300137B017A007940755900755A40AF53AE70
:102E130052122C60E4F53E053322C0E0C0D075D0D9
:102E230000C000C004C005C007309833E4FFEFC3FF
:102E3300940A74809480502720980575FEA080F82A
:102E430074612FF8A699C29874612FF8E6FD339543
:102E5300E0FCED640A4C7004D20380030F80CFD0F2
:102E630007D005D004D000D0D0D0E032E508640408
:102E7300701AE50964817014E50C450B700EE50EBC
:102E8300450D7008E5106401450F60051236AD80ED
:102E93000F7515FF75160075170975130075140165
:102EA300E51864046013E59620E7FB7596117597A2
:102EB30040751801E4F511F512220876017893F6AE
:102EC3007877F61235507892E6FF122A9BAD077F8A
:102ED30001122BB918E6FF122A9BEF4480FD7F02F3
:102EE300122BB97894E6FF122BB208E6FF122A9B45
:102EF300AD077F04122BB978BCE6FF122A9BAD07FE
:102F03007F05022BB9E59620E7FB759601759708B7
:102F1300E59620E7FB759607759703E59620E7FB93
:102F2300759609759702E59620E7FB75960B7597DD
:102F33000F75D7E0E59620E7FB75960F75978943E4
:102F4300E602E59620E7FB75960175970122E59663
:102F530020E7FB75960E759701E59620E7FB7596BE
:102F630091E59620E7FBAF97E51964036027EF200F
:102F7300E023E53D601F7B017A007900754E007503
:102F83004F407F21123242E4F53DE59620E7FB7581
:102F9300961175970122E59620E7FB75960E7597B6
:102FA30001E59620E7FB759691E59620E7FBAF9741
:102FB300E51964036027EF20E023E53D601F7B01F3
:102FC3007A0079007555007556407F2112327DE4F1
:102FD300F53DE59620E7FB75961175970122E67896
:102FE3009AF6C2AF120026E4F5AF758F01752D7EF8
:102FF300F52EFFEFC3942674809480502375B7A5F4
:1030030075B7F174962FF8E6FE052EE52EAC2D70FC
:1030130002052D14F5828C83EEF075FEA00F80D38C
:10302300E4F58F023326786FE6FF7E00C394317494
:103033008094804036D3EF943374809480502C086E
:10304300E66430702608E66430702008E664307069
:103053001A08E66430701408E66430700E786F74F2
:10306300D026F6E678B8122FE4D2AF22786FE6FFC7
:103073007E00C39430748094804036D3EF943174CF
:10308300809480502C08E66430702608E664307023
:103093002008E66430701A08E66430701408E664A9
:1030A30030700E786F74D026F6E678B9122FE4D21A
:1030B300AF22786FE6FF7E00C39430748094804023
:1030C30036D3EF943174809480502C08E6643070CA
:1030D3002608E66430702008E66430701A08E66457
:1030E30030701408E66430700E786F74D026F6E6FC
:1030F30078BA122FE4D2AF22E509701DE50E450D13
:103103007017E510450F7011E50C450B600BD3E507
:103113000C947FE50B940040031236AD751805E55A
:103123000C60057508038003750802E518640460E4
:103133000BE59620E7FB759611759748228B568A07
:103143005789588E5B8F5CE4F55DF55EC3E55E954C
:103153005AE55D95595027E55C255EF582E55B35BB
:103163005DF583E493AB56AA57A958855E82855DC6
:103173008312146B055EE55E70D2055D80CE22126C
:1031830035507892E6FF122A9BAD077F01122BB9C7
:1031930018E6FF122A9BEF4480FD7F02122BB978B9
:1031A30094E6FF122BB208E6FF122A9BAD077F04B9
:1031B300122BB978BCE6FF122A9BAD077F05022BC1
:1031C300B9E59620E7FB75960E759701E59620E71E
:1031D300FB759694E59620E7FBAF97E51A640370B9
:1031E3000DE59620E7FB759614759720800FEF3059
:1031F300E60BE59620E7FB7596147597800229F98F
:10320300E59620E7FB75960E759701E59620E7FB9B
:10321300759691E59620E7FBAF97E5196403700D6A
:10322300E59620E7FB759611759710800FEF30E553
:103233000BE59620E7FB759611759740022F518B8E
:103243004B8A4C894DE54F454E602EE59620E7FBB2
:103253008F96E4FFFEC3EF954FEE954E501BAB4B9D
:10326300AA4CA94D8F828E8312143EF597E59620C2
:10327300E7FB0FBF00010E80DC228B528A53895477
:10328300E5564555602EE59620E7FB8F96E4FFFE55
:10329300C3EF9556EE9555501BAB52AA53A9548FC5
:1032A300828E8312143EF597E59620E7FB0FBF004D
:1032B300010E80DC227D017F021235FA900041E08D
:1032C300F53BE4F53EF533C3E53B943674809480D7
:1032D3005015753501E53B25E0FEE42400FFEE348F
:1032E30012FE1236588003E4F535752115227BFF53
:1032F3007A3879B98B518A528953AB51AA52A9535F
:10330300121425601D75FEA0AB510553E553AA5257
:103313007002055214F9121425F5993099FDC299DA
:1033230080D82275B6CFE4F58F75277EF528FFEF99
:10333300C3942674809480501E0528E528AC27701A
:1033430002052714F5828C83E493FE74962FF8A666
:103353000675FEA00F80D82212338E123714123353
:10336300BE1237141235941237141233EE12371477
:1033730012341E12371412344E1237141235B61289
:1033830037141235D81237140236767886765208F7
:1033930076427896E624307988F708E6243009F7F0
:1033A300788A762E7898E62430798BF708E62430ED
:1033B30009F708E6243009F7023572788676520851
:1033C3007645789BE624307988F708E6243009F7B8
:1033D300788A762E789DE62430798BF708E62430B8
:1033E30009F708E6243009F702357278867644082F
:1033F300764C78A5E624307988F708E6243009F777
:10340300788A762E78A7E62430798BF708E624307D
:1034130009F708E6243009F70235727886764408FE
:10342300764878A0E624307988F708E6243009F74F
:10343300788A762E78A2E62430798BF708E6243052
:1034430009F708E6243009F70235727886764108D1
:10345300764878ABE624307988F708E6243009F714
:10346300788A762E78ADE62430798BF708E6243017
:1034730009F708E6243009F7023572E53E602A9021
:103483000040E014600E14601614600F24037013E0
:1034930075211022E4F53E75211122752112227542
:1034A300211422E4F53E7521F122E509640170122D
:1034B300E510450F700CE50C450B7006E50E450D48
:1034C30060031236ADE5186404600BE59620E7FB54
:1034D30075961175974822E4FDFCC3ED9FEE648059
:1034E300F8EC6480985018E4FBFA75FEA00BBB005F
:1034F300010AEB64014A70F20DBD00010C80DB226E
:103503007D017F011235FA900041E0F53CE4F53E80
:10351300F534C3E53C9436748094805005753601C8
:103523008003E4F53675211322C2AF53E2BF53D7AC
:10353300BF75A910E4F5B943C91043B2200053C9BC
:10354300EF12369243D74043E240D2AF22E4FD7FED
:1035530009122BB97D027F0A122BB97D047F0B124E
:103563002BB97D017F0C122BB91D7F0F022BB9786C
:1035730083760508762378AAE624417985F7788E41
:10358300760D08760A753A0C7541017883E6F5D312
:10359300227886764F08765078B8E624307988F713
:1035A3007889762008762008762008762008762009
:1035B3000235727886765208764C78B9E6243079EB
:1035C30088F7788976200876200876200876200800
:1035D30076200235727886765008764F78BAE624DC
:1035E300307988F77889762008762008762008765F
:1035F30020087620023572EFFB7A0064017009ED32
:103603006003D2A222C2A222EB64024A7008ED60D8
:1036130003D2A322C2A3221235507891E6FF122AC5
:103623009BAD077F01122BB97894E6FF122A77AD81
:10363300077F05022BB91235507891E6FF122A9BBA
:10364300AD077F01122BB97894E6FF122A77AD07F5
:103653007F05022BB9A2AFE433FD8F828E83C2AF05
:10366300851BB7851CB7758F03E4F0F58FED24FF39
:1036730092AF227886765608766508767208763396
:1036830008762E0876320876300876300235724393
:10369300B203E4F5B943B98012378D43B9C0123789
:1036A3008DE5B930E5FB75A90222E59620E7FB75A8
:1036B300960EE4F597E59620E7FB7596117597202E
:1036C30075180422E4F9E9C3946474809480500D5E
:1036D30075FEA07F287E001234DA0980E922E53DD9
:1036E3007015900000F0A37436F0E4A3F0A3740205
:1036F300F0753D01E4F5212275E50C75D21075B521
:10370300FD75B48F43AC4343D20243E70243F70250
:1037130022E4F556C3E556940A74809480500A75E2
:10372300FEA01236C7055680EB22750802E59620E7
:10373300E7FB759601759701E4F518751903751A7A
:10374300032253D9BF12369212380875FF801237FD
:103753008D75EF0222E4F588758901F58ED2A9757E
:103763008CB1758ADFD28C221237D51237581200EA
:103773000E1236FB1237E20238127B017A007941CE
:103783001237ABE4F53E7521F022E4FFFE0FBF00D4
:10379300010EBE01F8BFF4F522E53D700A9000006A
:1037A30004F0F53DE4F52122121425F51B900001E8
:1037B30012143EF51C22E4F549F54A054AE54A7020
:1037C30002054922E53D7009900000F0753D01F5C1
:1037D300212253D9BFE4F5D975FDC243D9202275FF
:1037E300A41175E10175E24075E30122E478BDF6A9
:1037F3007893F67878F618F622E50A147003022A0D
:10380300CF1236AD2275A60C75D60C75E24022E4B4
:10381300F551F55275B2C3221201100100000040A8
:10382300C4104588000001020001090220000101C3
:103833000080140904000002FF0000000705810254
:103843004000010705010240000104030904340399
:10385300530069006C00690063006F006E00200074
:103863004C00610062006F007200610074006F0021
:103873007200690065007300200049006E00630058
:103883002E002E034300380030003500310046007F
:103893003300780078002000420075006C006B0054
:1038A30020004500780061006D0070006C00650029
:1038B300384D3851388544540D0A00415364740D12
:1038C3000A005345320D0A00000002000003000005
:1038D30000000100000000000200000000000002E0
:1038E3000000010203000205000001000001007E48
:1038F3000130026D03790433055B065F0770087FAF
:10390300097B307E3130326D33793433355B365F4A
:103913003770387F397B4177421F434E443D454FD3
:103923004647483749064C0E4D154F1D5067520503
:10393300535B5446593B553E2D0120000A000D00B0
:00000001FF
