:020000040800F2
:1000000070780020690300083F360008F9310008C5
:100010003D360008170D00087D570008000000005D
:10002000000000000000000000000000A90200081D
:10003000A10D00080000000005030008253C000891
:100040008303000883030008830300088303000878
:100050008303000883030008830300088303000868
:100060008303000883030008830300088303000858
:100070008303000883030008830300088303000848
:100080008303000883030008830300088303000838
:100090008303000883030008830300088303000828
:1000A0008303000883030008830300088303000818
:1000B00083030008053D000883030008830300084C
:1000C00083030008830300088303000883030008F8
:1000D00083030008830300088303000883030008E8
:1000E00083030008830300088303000883030008D8
:1000F00083030008113D0008830300088303000800
:1001000083030008830300088303000883030008B7
:1001100083030008830300088303000883030008A7
:100120008303000883030008830300088303000897
:100130008303000883030008830300088303000887
:100140008303000883030008830300084136000886
:100150008303000883030008830300088303000867
:100160008303000883030008830300088303000857
:1001700083030008830300088303000800000000D5
:100180008303000883030008830300088303000837
:100190008303000883030008830300088303000827
:1001A00000000000000000008303000800F002F8D7
:1001B00000F06BF80AA090E8000C82448344AAF196
:1001C0000107DA4501D100F060F8AFF2090EBAE894
:1001D0000F0013F0010F18BFFB1A43F0010318477B
:1001E000E0710000007200000A444FF0000C10F8AB
:1001F000013B13F0070408BF10F8014B1D1108BFA5
:1002000010F8015B641E05D010F8016B641E01F844
:10021000016BF9D113F0080F1EBF10F8014BAD1C94
:100220000C1B09D16D1E58BF01F801CBFAD505E0B2
:1002300014F8016B01F8016B6D1EF9D59142D6D30C
:10024000704700000023002400250026103A28BF34
:1002500078C1FBD8520728BF30C148BF0B60704738
:10026000642900F0A381752900F0A081782900F0AD
:100270000482002070471FB507F05AF89DE803007C
:1002800000F0C0FB1FBD10B510BD00F0D0FC114642
:10029000FFF7F1FF05F0B8FA00F0EEFC03B4FFF74A
:1002A000F2FF03BC05F082FA2C4B19680868B0E82D
:1002B000F04F80F30988BFF36F8F4FF0000080F399
:1002C000118870470000000008480068006880F34B
:1002D00008884FF0000080F3148862B661B6BFF35F
:1002E0004F8FBFF36F8F00DF00BF00BF08ED00E04E
:1002F000DFF80C00016841F470010160704700BF35
:1003000088ED00E0EFF30980BFF36F8F134B1A689D
:100310001EF0100F08BF20ED108A20E9F04F10608A
:1003200009B44FF0500080F31188BFF34F8FBFF333
:100330006F8F06F0CFFA4FF0000080F3118809BCF0
:1003400019680868B0E8F04F1EF0100F08BFB0EC55
:10035000108A80F30988BFF36F8F70475C0200201A
:10036000EFF30580704700000948804709480047BF
:10037000FEE7FEE7FEE7FEE7FEE7FEE7FEE7FEE755
:10038000FEE7FEE704480549054A064B70470000B2
:10039000F53C0008AD010008707200207078002064
:1003A0007074002070740020704770B5064600F02D
:1003B0000DFB056806F10B0020F00704B4429CBF5A
:1003C000002070BD2B466A68BAB11068A04210D3F5
:1003D00004F1080188423CBF5068586007D3516857
:1003E000101941601168091B016058601460101DEC
:1003F00070BD13465268002AE7D12146284600F016
:10040000EDFA0028DED170BD70B50446051F00F07E
:10041000DDFA0068002C14BF446870BD002C18BFC2
:10042000AC423CBF20466468F8D301680A18AA426F
:1004300018BF456003D12A68054611440160286849
:100440004119A1421CBF6C6070BD61686960216880
:100450000844286070BD53EA020C00F069802DE961
:10046000F04B4FF00006002B1FBFB3FA83F503FAE1
:1004700005F424FA05F65E4012BF1643B2FA82F57F
:1004800002FA05F4C5F120051EBF22FA05FC44EA74
:100490000C04203556EA044C4FEA144418BF641C7F
:1004A0004FF000084FF00009904271EB030C39D374
:1004B000002919BFB1FA81F701FA07F6B0FA80F7FF
:1004C00000FA07F6C7F120071EBF20FA07FC46EA2C
:1004D0000C062037B6FBF4FCA7EB0507103F07F02E
:1004E0001F0BCBF120060CFA0BFB2CFA06F644BFCF
:1004F000B3460026202FA4BF5E464FF0000B5BEAF8
:10050000060C08BF4FF0010B19EB0B09ABFB027C8B
:1005100048EB0608C01B06FB02CC0BFB03CC71EBBF
:100520000C01C1E70B46024641464846BDE8F08B48
:1005300013B54FF000004FF00001AFF30080BDE8AD
:100540001C4070470FB4044910B503AA029800F08C
:1005500001FB10BC5DF814FB1000002070B50446D0
:1005600085690068C10601D5302600E02026C00755
:1005700007D070BDD4E9012130469047206A401C65
:1005800020626D1EF6D570BD70B504468569007891
:10059000C00707D170BDD4E9012120209047206A0F
:1005A000401C20626D1EF6D570BD00002DE9F041A3
:1005B0000646002410687529314616A510D0AFF301
:1005C0000080002802DA404213A507E031688A075C
:1005D00001D512A502E0490704D511A5012401E0C7
:1005E000AFF3008000210A2206F1240709E0B0FBE6
:1005F000F2FCB0FBF2F302FB1C00303078541846DA
:10060000491C0028F3D123462A463046BDE8F04174
:1006100000F02EBA000000002D0000002B000000AA
:1006200020000000F0B40D460188090502D5214CD8
:100630007C4402E01F4C7C440E34002100F124066F
:1006400008E002F00F071209E75D42EA03721B0996
:100650007754491C52EA0307F3D1027800231207AA
:1006600004D5702D06D009B1022311342246F0BC06
:1006700000F0FEB901231034F8E770B504460D46CA
:1006800021461068AFF30080024629462046BDE8A7
:1006900070400023C6E7D21D22F00703D3E90023F0
:1006A000C0E70368126843F0200303600823C361B6
:1006B0000023B7E7446D00002DE9F05F894604464A
:1006C0004FF0000ADFF874B1FB44C0F820A02046C8
:1006D000E1688847002874D0252806D0D4E9012194
:1006E0009047206A401C2062F1E700265F462046C2
:1006F000E16888472028054607DB312D05D27819A7
:1007000010F8200C08B10643F1E7B00701D526F038
:100710000406C4F81CA00027C4F818A02A2D09D08C
:10072000284605F03CF838B304EB8708303DC8F89C
:10073000185019E059F8041B204604EB8702916118
:10074000E1688847012F054618D1E069002820DAC2
:1007500026F020061DE0D8F8180000EB800005EB1D
:1007600040003038C8F818002046E1688847054640
:1007700005F015F80028EED1012F0AD02E2D08D152
:100780002046E16888477F1C0546022F46F0200678
:10079000C4DBA069002803DA404246F00106A061EC
:1007A000F00701D026F010066C2D0BD0682D09D073
:1007B0004C2D39D06A2D35D0742D35D07A2D33D0CB
:1007C00016E038E0E1682F4620468847B8420546E3
:1007D00009D16C2F26D04FF48060E1680643204693
:1007E0008847054604E06C2F1AD04FF4807006430A
:1007F0000DB3A5F14100192802D8203546F4006652
:100800004A462946204626604E46FFF729FD80B11C
:1008100001280BD0F61D26F0070000F1080956E765
:100820004020E4E78020D8E70020D6E706F104095D
:100830004DE7284652E7206ABDE8F09FD46C0000DF
:1008400040EA010310B59B070FD1042A0DD310C84D
:1008500008C9121F9C42F8D020BA19BA884201D99F
:10086000012010BD4FF0FF3010BD1AB1D30703D0E7
:10087000521C07E0002010BD10F8013B11F8014B9D
:100880001B1B07D110F8013B11F8014B1B1B01D1B9
:10089000921EF1D1184610BD032A40F2308010F0AC
:1008A000030C00F0158011F8013BBCF1020F62440B
:1008B00098BF11F801CB00F8013B38BF11F8013B9C
:1008C000A2F1040298BF00F801CB38BF00F8013B49
:1008D00011F0030300F05081083AC0F0088051F88D
:1008E000043B083A51F804CBA0E80810F5E7121DC4
:1008F0005CBF51F8043B40F8043BAFF30080D207E3
:1009000024BF11F8013B11F801CB48BF11F8012BAE
:1009100024BF00F8013B00F801CB48BF00F8012BD1
:10092000704702F0FF0343EA032242EA024200F06A
:1009300002B84FF000020429C0F0128010F0030C3E
:1009400000F01B80CCF1040CBCF1020F18BF00F8C2
:10095000012BA8BF20F8022BA1EB0C0100F00DB871
:100960005FEAC17C24BF00F8012B00F8012B48BFCF
:1009700000F8012B70474FF0000200B51346944673
:100980009646203922BFA0E80C50A0E80C50B1F1E7
:100990002001BFF4F7AF090728BFA0E80C5048BFFB
:1009A0000CC05DF804EB890028BF40F8042B08BF99
:1009B000704748BF20F8022B11F0804F18BF00F895
:1009C000012B704770477047704770470048704769
:1009D00014720020704770477047704738B504465E
:1009E0000A4600206946AFF30080002808BF38BDE2
:1009F00002460099204600F0F5F8012038BD01209C
:100A000000F00EB9F8B5AFF30080054600200C46A3
:100A1000102000BF0646A819A0420DD932466946EB
:100A20000020AFF30080070008BF00F0F9F800983D
:100A3000A04218BF0546C419FFF7C8FF0560074666
:100A4000F01D20F007004619284600F00AF8B442CD
:100A500008BFF8BDA21B31463868BDE8F84000F079
:100A6000C1B800210160C0E9011070471020704733
:100A70002DE9F0470D4699469246044600F12408B8
:100A80000168880604D5E06921F01001216000E0CA
:100A90000120A84201DD471B00E00027A1697A1967
:100AA00002EB0900081AA0612078C00602D4204693
:100AB000FFF754FD002608E0D4E901211AF80600EA
:100AC0009047206A401C761C20624E45F4DB20785B
:100AD000C0060AD52046FFF741FD06E0D4E9012112
:100AE00030209047206A401C2062381EA7F1010781
:100AF000F4DC07E0D4E9012118F805009047206AEA
:100B0000401C2062281EA5F10105F3DC2046FFF7FA
:100B10003BFD2078000602D50220BDE8F0870120C9
:100B2000FBE7000001694A1C02610878704700B5C4
:100B30008FB0CDE901310021059105497944CDE916
:100B4000031011466846FFF7B7FD0FB000BD000067
:100B5000E5FFFFFF074B70B50D467B44FFF7E7FF4E
:100B60000446284600F058F810B14FF0FF3070BD31
:100B7000204670BD934C000010B5203AC0F00B80A9
:100B8000B1E81850203AA0E81850B1E81850A0E891
:100B90001850BFF4F5AF5FEA027C24BFB1E81850EB
:100BA000A0E8185044BF18C918C0BDE810405FEA5B
:100BB000827C24BF51F8043B40F8043B08BF7047D7
:100BC000D20728BF31F8023B48BF11F8012B28BFDC
:100BD00020F8023B48BF00F8012B704700487047DF
:100BE0000C720020034640688C46002818BF8842DB
:100BF0003CBF03464068F8D318681844884207D0C1
:100C00000CF1030020F00700001D411A521A0146A2
:100C1000081D0A60FFF7F8BB007B00F080007047FA
:100C200010B500F037F8BDE8104000F02EB875465A
:100C3000FFF7D4FFAE4605006946534620F0070093
:100C4000854618B020B5FFF79DFBBDE820404FF06A
:100C500000064FF000074FF000084FF0000B21F0A6
:100C60000701AC46ACE8C009ACE8C009ACE8C00973
:100C7000ACE8C0098D46704710B50446AFF300805C
:100C80002046BDE81040FFF709BB002801D004F062
:100C90008DBD704710B5012805D0002103A000F0DC
:100CA00021F8012010BD09A1F8E70000534947527F
:100CB000544D454D3A204F7574206F66206865612C
:100CC00070206D656D6F7279000000003A204865F4
:100CD0006170206D656D6F727920636F72727570CF
:100CE0007465640070B505460C460A2000E06D1C72
:100CF00004F05DFD35B128780028F8D102E0641CCD
:100D000004F055FD14B120780028F8D1BDE87040FA
:100D10000A2004F04CBDFEE7042822DD124A2028F8
:100D200002D021281DD10BE0CB78086863F31F6047
:100D3000106008791071487950718879907110E0CD
:100D4000107808701088000A48701068000C8870CD
:100D50001068000EC8701079087150794871907948
:100D600088710020704700002C0000200020704790
:100D7000034910B501F5167003F0FEF9002010BD0F
:100D80008C12002070B505460C46044803F0D9F9D2
:100D90002846216805F004FB002070BDE414002003
:100DA000704772B6FEE70000002229B101291DD06C
:100DB00002291ED04FF440720B2800D9001D0E49A5
:100DC0000B6823F440730B600B6813430B600A68D5
:100DD00022F0F8020A600A68022303EBC000024313
:100DE0000A60086840F48030086070474FF48072F1
:100DF000E2E74FF40072DFE7103C0240064A136856
:100E000023F44073136013681360136843F0010305
:100E10001360017070470000103C0240094910B592
:100E20000C6824F440740C600C6844F440740C604A
:100E30000C6844F001040C600260BFF36F8F4360E4
:100E400010BD0000103C0240074A136823F44073B1
:100E50001360136843F480731360136843F0010355
:100E60001360018070470000103C0240074A13687D
:100E700023F440731360136843F400731360136822
:100E800043F001031360016070470000103C024012
:100E90001C490868C2061C4805D5C26942F0100208
:100EA000C26110220A600A68920605D5C26942F042
:100EB0000802C26120220A600A68520605D5C2698A
:100EC00042F00402C26140220A600A68120605D597
:100ED000C26942F00202C26180220A600A68D20539
:100EE00006D5C26942F00102C2614FF480720A6005
:100EF0000A68920705D5C26942F02002C261022049
:100F0000086070470C3C02406C12002070B511491B
:100F100004460020C86100F05BFB06460E4D09E068
:100F2000601C07D024B100F053FB801BA04201D904
:100F3000032070BD2868C003F2D42868C00701D020
:100F400001202860286810F4F970F2D0FFF7A0FFA4
:100F5000012070BD6C1200200C3C024030B5B3F58E
:100F6000804F05D06FF0704140F82210002030BD56
:100F70008C690B688D6823434C688989240144EA95
:100F80000524234343EA014150F82230014C234019
:100F90001943E9E70000F0CF30B50A6850F8223075
:100FA00023F0010340F822308C68082C28D000235D
:100FB0004A68184D2243CC681C430B6922431A43EC
:100FC0004B691A43CB691A430B6A1A434B6A1A439B
:100FD0008B6A1A43CB6A1A430B6B1A438B69134310
:100FE0004A6B1A43CB6B13430A6850F82240AC4358
:100FF0001C4340F822404A6BB2F5801F02D007E044
:101000004023D5E7096819B1016841F480110160F6
:10101000002030BD7FFF1F0070B5D1E9003443EAE6
:1010200004138C688D89240244EA054423430D8A05
:10103000114C00EB820204EB05552B430D7D66013C
:1010400006EB05652B438D692B43556805F040453C
:101050002B4353600268D2020BD54268098A22F4FE
:10106000700204EB01511143426822F470020A43FA
:101070004260002070BD00000000F0FF10B50128A4
:1010800009D00021084605F0CFF80021BDE8104046
:10109000012005F0C9B80121002005F0C5F80121A3
:1010A000F4E770B5040003D094F8200010B104E018
:1010B000012070BD204600F081F82068016841F0F1
:1010C0000101016000F084FA0546052604E000F005
:1010D0007FFA401B0A2811D820684068C007F6D064
:1010E0002068016821F00201016000F071FA0546F4
:1010F0000BE000F06DFA401B0A2806D9606A40F444
:101100000030606284F82060D2E720684068800781
:10111000EFD4207E0128206801683DD021F08001B5
:101120000160607E01282068016838D021F040010C
:101130000160A07E01282068016833D021F02001E1
:101140000160E07E0128206801682ED041F0100186
:101150000160207F01282068016829D021F0080162
:101160000160607F01282068016824D021F004011B
:101170000160D4E902010843D4E904121143084391
:101180006168491E08432168C8610020606201202F
:1011900084F82000002070BD41F08001C0E741F0DC
:1011A0004001C5E741F02001CAE721F01001CFE777
:1011B00041F00801D4E741F00401D9E710B586B049
:1011C000044614216846FFF7D6FB1449206888427C
:1011D00021D113480021026842F0007202600068C9
:1011E00000F0007005900E481038026842F00202CC
:1011F0000260006800F0020005904FF4407000901B
:101200000220CDE9010103200390092004906946E2
:10121000044800F0BDF806B010BD000000640040B6
:10122000403802400004024080B204F0C1BA00001D
:101230000348016841F00041016000207047000050
:10124000103C02402DE9F0471B4E05461446307E07
:101250001F468946012808D0012030764CF25038CC
:101260004046FFF753FE18B114E00220BDE8F087B6
:101270009DB1012D16D0022D19D022463B4648467D
:10128000FFF7CCFD4046FFF741FE0C490A6822F00B
:1012900001020A6000213176E8E7E1B24846FFF733
:1012A000ADFDEFE7A1B24846FFF7CEFDEAE72146E4
:1012B0004846FFF7DBFDE5E76C120020103C0240DA
:1012C000074900200A68002A09DA054A054B0C3A4A
:1012D0001360054B13600968002900DA012070478C
:1012E000103C024023016745AB89EFCDF0B587B0D4
:1012F00014216846FFF73FFB1F480168002939D1D8
:10130000012101601D480024016841F001010160D4
:101310000068022500F0010005904FF23F00CDE982
:10132000000502AA03260C2782E8D000694614486B
:1013300000F02EF83F20CDE9000502AA694682E8B8
:10134000D000104800F024F84FF68070CDE9000579
:1013500002AA694682E8D0000B4800F019F84CF266
:10136000B370CDE9000502AA694682E8D0000748BB
:1013700000F00EF807B0F0BD080000203838024039
:10138000001402400018024000100240000C02400D
:101390002DE9F84FDFF8F8A10022012403254FF0D2
:1013A0000F090AF1040BAAF1040E00BF0B6804FA3E
:1013B00002F63340B34270D10F7907F00307012FD3
:1013C00001D0022F16D187684FEA420805FA08FCBF
:1013D00027EA0C07D1F80CC00CFA08FC4CEA070C01
:1013E000C0F808C04768B7430E79C6F300169640A8
:1013F0003E4346600E79F643B6070AD0C7684FEA07
:10140000420C05FA0CF6B7438E6806FA0CF63E431A
:10141000C6600E7906F00306022E10D1D60800EB46
:101420008608D8F8206057074FEAD76C09FA0CF7FE
:10143000BE430F6907FA0CF73743C8F820700668F7
:101440004FEA420C05FA0CF7BE430F7907F0030789
:1014500007FA0CF7374307604E6816F4403F1CD07C
:101460004C4E376847F480473760366822F00307F0
:1014700006F480460096484E07EB060CDCF8086838
:1014800097073F0F09FA07F826EA0806DFF80C81EC
:10149000404503D14FF0000841E072E0DFF80081E1
:1014A000404502D14FF0010839E0DFF8F8804045AF
:1014B00002D14FF0020832E0DFF8EC80404502D163
:1014C0004FF003082BE0DFF8E480404502D14FF0F5
:1014D000040824E0DFF8D880404502D14FF0050829
:1014E0001DE0DFF8D080404502D14FF0060816E03D
:1014F000DFF8C480404502D14FF007080FE0DFF865
:10150000BC80404502D14FF0080808E0DFF8B08009
:10151000404502D14FF0090801E04FF00A0808FAEF
:1015200007F848EA0608CCF80888DAF80060574659
:10153000D1F804C09E435FEACC2C00D51E433E6028
:10154000DBF800605F46D1F804C09E435FEA8C2C54
:1015500000D51E433E60DEF800607746D1F804C037
:101560009E435FEA8C3C00D51E433E60084F083F17
:101570003E68D1F804C09E435FEACC3C00D51E43D0
:101580003E60521C102AFFF411AFBDE8F88F000036
:10159000083C014044380240003001400000024055
:1015A0000004024000080240000C0240001002400B
:1015B0000014024000180240001C024000200240BB
:1015C000002402400AB1816170470904FBE7000072
:1015D00001488068704700001400002002488168BC
:1015E0000278114481607047140000200B4810B548
:1015F000016841F400710160016841F4806101609B
:10160000016841F480710160032000F09FF80F2011
:1016100000F006F800F050F8002010BD003C024039
:1016200030B505461F4887B00024016841F4807139
:101630000160006806A900F48070009001A800F025
:10164000B7FE0498A8B100F0D9FE40001649174A29
:10165000B0FBF1F11648491E026040F2E732C0E9E2
:101660000324C0E90114846101F03AFA040003D0B4
:1016700015E000F0C3FEE9E70D4801F07DFA040033
:101680000DD12D2000F034F8102D07D2002229466C
:101690002D2000F03BF80748056000E0012407B06A
:1016A000204630BD4038024040420F00002000403C
:1016B00024120020180000200C4882B0016841F478
:1016C00080410160006800F4804000900748001FDE
:1016D000016841F0805101600068002200F08050F4
:1016E00000900F21901E02B000F010B84438024064
:1016F000002809DB00F01F02012191404009800011
:1017000000F1E020C0F8001170470000F0B40E4B6B
:101710001B680C46C3F30223C3F10705042D00D94F
:101720000425191D072901D2002300E0DB1E012634
:1017300006FA05F1491E214099409E40761E16404A
:101740003143F0BC04F01BB80CED00E0064900F09A
:10175000070208684FF6FF03184040EA0220034AD8
:1017600010430860704700000CED00E00000FA052F
:1017700070470068416200207047F0B50368586AFE
:1017800039B19C6A4FF4827600EB144400204D1E60
:101790000AE040EA024098620FE006EB8007DF595A
:1017A000401C04EB1744C0B2A842F6D344EA0240FE
:1017B0004FF4807202EB810158500020F0BD000010
:1017C000034A01211170D0F8E00402F0FABE0000D3
:1017D0004800002001EBC10200EB8202D0F8E004D7
:1017E000126A02F064BE01EBC10200EB8202D0F883
:1017F000E004D2F8602202F0AEBE000010B5064947
:1018000004460020087005A0FEF79CFED4F8E00412
:10181000BDE8104002F0D7BE4800002055534220DA
:1018200044657669636520446973636F6E6E6563B2
:101830007465642E0D0A00000A0601F00F0101EB29
:10184000C10100EB810101D5143101E001F51571F1
:10185000006803F0E1BD70B504460B0601F00F000F
:1018600000EBC00104EB81014FF001024FF00005D5
:1018700002D54A75143103E081F8555201F515710E
:10188000087094F89404012808D084F894242068FF
:1018900003F0DCFA84F89454002070BD022070BD7F
:1018A00070B5044601F00F002279904201D9012061
:1018B00070BD0B0601F00F0101EBC10104EB8101CA
:1018C0004FF001024FF0000502D54A75143103E0D4
:1018D00081F8555201F515718D70087094F89404D3
:1018E000012808D084F89424206803F021FC84F8AF
:1018F0009454002070BD022070BD01F00F0101EB77
:10190000C10100EB8100D0F8680270472DE9F04179
:1019100004460F0601F00F0000EBC00104EB81014B
:101920004FF001064FF0000502D54E75143103E06B
:1019300081F8555201F51571C2F30A0208708A60E8
:101940000B714A7802B14883022B00D14D7194F893
:101950009404012809D084F89464206803F0C8F93D
:10196000284684F89454BDE8F0810220FBE710B5C6
:1019700001F00F0404EBC40100EB8101C1E99823DD
:101980000023C1F8683281F8553281F854428379D6
:1019900001F51571012B00D1CA618279006803F04D
:1019A0001FFC002010BD70B504460D4601F00F006D
:1019B0002179884201D9012070BD29064FF0000627
:1019C0004FF0010206D500EBC00104EB81014A751E
:1019D000143107E005EBC50104EB810181F8556284
:1019E00001F515718A70087094F89404012807D0E5
:1019F00084F89424206803F0C7FB280702D007E08E
:101A0000022070BDA17904F29C42206803F064FBBF
:101A100084F89464002070BD10B501F00F0404EB4D
:101A2000C40100EB8101C1E9082300238B6201237B
:101A30004B7501F8144F8379012B00D1CA6182796B
:101A4000006803F0CDFB002010BD00002DE9FC5F15
:101A500005680446284603F07BFD00287DD12068F8
:101A600003F0A2FD002878D0D5F80808C0F30D20B7
:101A7000C4F8D404206803F097FD800704D52068DB
:101A8000416901F002014161206803F08DFDC1064A
:101A900004F29C40009034D52068816921F0100147
:101AA00081612F6A07F00F0000EBC00004EB800695
:101AB000C7F3434006F51576022802D0062811D058
:101AC0001AE047F6F070074216D0C7F30A1217461D
:101AD0002846F16803F06CFDF0683844F0607069E6
:101AE000384408E008222846009903F061FD706937
:101AF000C7F30A11084470612068816941F0100140
:101B00008161206803F050FD00034FF0080B4FF097
:101B1000000A4FF001097CD50026206803F023FD60
:101B2000074674E0F80770D0F1B2206803F034FD86
:101B30008046C00707D005EB4611C1F8089B314627
:101B4000204601F083FD5FEA087024D505EB4611BD
:101B5000C1F808BB2068016C00E023E200EB4610EE
:101B60000191D0F8082BFB4B994205D9110403D5FC
:101B70004FF40041C0F8081B204600F038FBF5493F
:101B80000198884207D9A079012804D12068012151
:101B9000009A03F0A1FA5FEAC86004D505EB46118C
:101BA0001020C1F8080B5FEA88701DD5686900062F
:101BB00005D5D5F8040840F48061C5F8041806EB93
:101BC000C60004EB800090F8571200F5157001294B
:101BD00005D180F803A0F1B2204600F0E9F905EB49
:101BE00046110220C1F8080B5FEA886004D505EBB6
:101BF00046102021C0F8081B5FEA884005D505EB98
:101C000046104FF40051C0F8081B7F08761C002FC7
:101C100088D1206803F0C8FC40036ED5206803F02B
:101C20009BFC0746002666E0F80762D0F1B2206808
:101C300003F0A0FC8046C00723D006F00F01D5F8C2
:101C4000342809FA01F18A43C5F8342805EB461116
:101C5000C1F80899A07901280FD106EBC60004EB62
:101C60008000D0E907211144016236B9606A20B9C9
:101C700020680121009A03F02FFAF1B22046FFF705
:101C8000A9FD5FEA087003D505EB4611C1F808B954
:101C90005FEAC86004D505EB46111020C1F80809B9
:101CA0005FEA486004D505EB46104021C0F80819EA
:101CB0005FEA887016D53146284603F01EFC06EB15
:101CC000C60004EB8000C17D1430012905D180F8E5
:101CD00003A0F1B2204600F067F905EB461102209F
:101CE000C1F808095FEA086003D53146204601F0D3
:101CF00013FD7F08761C002F96D1206803F054FC5A
:101D0000002811DAD5F8040820F00101C5F80418FC
:101D100094F8CC0401282BD0204600F03BFA206830
:101D2000416901F000414161206803F03DFC00057C
:101D30000BD5D5F80808C00702D0204600F080FA7D
:101D40002068416901F400614161206803F02CFCC6
:101D5000C00467D5D5F8040820F00100C5F80408D0
:101D60001021206803F0C9FB00214FF67F3220E0EC
:101D700084F8CCA400212046FFF7FAFCCFE700BF8F
:101D800005EB4110C0F80829D0F8003923F40013FE
:101D9000C0F80039C0F8082BD0F8003B23F400133A
:101DA000C0F8003BD0F8003B43F00063C0F8003BB4
:101DB000491C20798842E3D8D5F81C0840F001116D
:101DC000C5F81C18E07B002828460DD0D0F8840800
:101DD00040F00B01C5F88418D5F8440840F00B0119
:101DE0002846C5F844180DE0D0F8140842F22B013B
:101DF0000843C5F81408D5F8100840F00B01284630
:101E0000C5F81018D0F8000820F4FE61C5F80018D5
:101E1000A1792068009A03F05FF92068416901F414
:101E200080514161206803F0BFFB800415D5206814
:101E300002F09EFF206803F07EFBE07100F0D8FA0C
:101E40000146E279206803F011FC204600F05CF9BD
:101E50002068416901F400514161206803F0A4FB4E
:101E6000000707D5204600F0ABF92068416901F072
:101E700008014161206803F097FB000616D5A869A8
:101E800020F08001A96101260DE000BF06EBC6002D
:101E900004EB800090F85702012803D1F1B22046EC
:101EA000FFF7CAFC761C2079B042EFD8206803F017
:101EB0007BFBC0021FD501264F4614E005EB461000
:101EC000D0F8001906EBC60004EB8002107E012852
:101ED00008D1002906DAF0B240F08001D77520461B
:101EE000FFF7AAFC761C2079B042E7D82068416948
:101EF00001F480114161206803F056FB800234D563
:101F000001204A4629E000BF05EB4011D1F8001B33
:101F100000EBC00304EB830393F85862012E1BD13E
:101F2000002919DA94F8D46401F4803106F001062E
:101F3000B14211D183F85722A96941F08003AB6106
:101F40006969090608D4D5F8040840F40070C5F89A
:101F5000040805E00A30544F401C21798142D3D84F
:101F60002068416901F400114161206803F01CFB05
:101F7000400007D52046FFF723FC2068416901F0A7
:101F800080414161206803F00FFB40070AD52068BB
:101F90004568680702D52046FFF730FC2068416895
:101FA00029434160BDE8FC9FD0F8E00402F055BB36
:101FB000D0F8E00402F061BBF8B5040005D094F855
:101FC00095042668002510B106E00120F8BD84F8CC
:101FD0009454204600F056F8032084F89504B6F196
:101FE000A04F00D1A571206803F070F8207C8DF817
:101FF000000094E80F0002F0C9FE0226B8BB0021E1
:10200000206803F0F4FA90BB002001270DE000BF28
:1020100000EBC00104EB81014F750875C8850D7692
:10202000CD610D62401CC0B24D6221798142EFD872
:10203000002011E000EBC00104EB810181F8555252
:1020400081F8540281F85852C1F85C52C1F86052CC
:10205000401CC0B2C1F8645221798142EAD8207C88
:102060008DF8000094E80F0002F072FF10B184F8C0
:102070009564AAE7657484F89574206802F05AFFA5
:102080000020F8BD10B586B0044614216846FEF75E
:1020900072FC2068B0F1A04F2FD11948016841F0BF
:1020A00080010160164800211030026842F480422D
:1020B0000260006800F4804005901148001F02682B
:1020C00042F001020260006800F0010005904FF448
:1020D000C05000900220CDE90101032003900A20A6
:1020E000049069460748FFF753F903220021432073
:1020F000FFF70CFB4320FFF7FBFA06B010BD000012
:10210000343802400000024070B50446C079012511
:1021100018B1022806D00AA005E010A0FEF712FAB6
:10212000002502E014A0FEF70DFAD4F8E00402F056
:10213000C5FA2946D4F8E004BDE8704002F005BBBA
:1021400055534220446576696365204C696272612B
:10215000727920205B46533F5D0D0A0055534220A3
:10216000446576696365204C6962726172792020EA
:102170005B48535D0D0A0000555342204465766963
:102180006365204C69627261727920205B46535D01
:102190000D0A000010B5044604A0FEF7D3F9D4F8E8
:1021A000E004BDE8104002F0B6BA0000446576696C
:1021B000636520526573756D65640D0A000000004B
:1021C000D0F8E00402F0B1BA10B5044690F89404D7
:1021D00001280AD0012084F894046174206803F077
:1021E00034FA002084F8940410BD022010BDD0F809
:1021F000E02400F29C41104602F0B6BA10B5044645
:10220000006894F89414012909D0012184F89414E9
:10221000C168490609D5617B012902D005E0022089
:1022200010BD816B41F480318163206803F043F974
:10223000206802F071FE002084F8940410BD0000B4
:1022400010B5064904460020087005A0FEF77AF98B
:10225000D4F8E004BDE8104002F0C4BA4800002001
:1022600044657669636520496E2073757370656E89
:1022700064206D6F64652E0D0A0000002DE9F047A3
:102280000E46050065D0DFF81481D8F80000F7B2DB
:1022900000F00F00B04207D288F80070D8F80000B4
:1022A00000F00F00B04254D128683D4C810712D590
:1022B000400703D5206840F4E050206028780007EC
:1022C00003D5206840F4604020602068A96820F0B1
:1022D000F000084320602878C0072DD03049686896
:1022E0000839012812D0022813D0032811D0096818
:1022F000890700292DDA216821F0030101432160BB
:10230000FFF766F9814641F2883A0EE009688903D1
:10231000EFE709688901ECE7FFF75AF9A0EB09013B
:10232000514502D90320BDE8F0872068696800F0B4
:102330000C00B0EB810FEFD1D8F80010404601F04F
:102340000F01B14207D90770006800F00F00B042DA
:1023500001D00120E7E72878400705D52068E96823
:1023600020F4E050084320602878000706D5206854
:10237000296920F4604040EAC100206000F05EF866
:102380002168084AC1F30311515CC840064908603E
:1023900006480068FFF744F90020C4E7003C02400B
:1023A0000838024060730008200000201800002058
:1023B0000F2202600C4A136803F0030343601368A2
:1023C00003F0F0038360136803F4E053C360126802
:1023D0004FF4E05303EAD20202610448006800F0BF
:1023E0000F0008607047000008380240003C0240BF
:1023F000014800687047000020000020044805499B
:1024000000680968044AC1F38221515CC8407047E2
:102410002000002008380240707300080448054975
:1024200000680968044AC1F34231515CC8407047F2
:10243000200000200838024070730008154810B5CD
:10244000006810F00C02144813D04110042A0FD079
:10245000082A0ED10F4C241F2268236802F03F0285
:102460005B0207D52068C0F38810A0FB010106E0DD
:10247000084610BD2168C1F38811A1FB00010023AB
:10248000FDF7E9FF2168C1F30141491C4900B0FB98
:10249000F1F010BD083802400024F400F0B51F4CE4
:1024A00016460D461D4B002102220327283C00281A
:1024B000186887B019D040F004001860186800F060
:1024C0000400059010020090CDE90121CDE90371CF
:1024D00069461348FEF75CFF206845EAC60120F014
:1024E00078400843206007B0F0BD40F0010018605C
:1024F000186800F0010005904FF480700090CDE95D
:102500000121CDE9037169460648FEF741FF2068C5
:10251000354320F0EC602843E4E700003038024007
:1025200000080240000002402DE9F84F04006ED080
:102530002078DFF84C93C007A9F104054AD009F1CF
:1025400004000168C1F38101012908D00068C0F3CB
:10255000810002280AD1D9F80000400206D5286877
:10256000800337D560680028E1D033E06068B0F5BB
:10257000803F10D0B0F5A02F286810D020F4803014
:102580002860286820F4802028606068A8B1FFF7E0
:102590001FF806460DE0286840F48030F4E740F468
:1025A00080202860F7E700BFFFF712F8801B64283F
:1025B00073D828688003F7D50CE0FFF709F80646C2
:1025C00005E000BFFFF704F8801B6428F0D82868F6
:1025D0008003F7D42078DFF8AC8280074FF0000A40
:1025E0003ED5A748001D016811F00C0F08D0006807
:1025F000C0F3810002280BD1D9F80000400207D4B3
:102600002868800716D5E068012800D112E033E180
:10261000E068B8B10120C8F80000FEF7D9FF06460F
:1026200005E000BFFEF7D4FF801B0228C0D8286851
:102630008007F7D52868216920F0F80040EAC1003A
:1026400028600DE0C8F800A0FEF7C2FF064604E0CF
:10265000FEF7BEFF801B02281FD828688007F7D42A
:102660002078000722D5864F87486169703771B19D
:1026700001210160FEF7ACFF064604E0FEF7A8FF6B
:10268000801B022809D838688007F7D50EE0C0F80B
:1026900000A0FEF79DFF064605E082E0FEF798FFEA
:1026A000801B02287DD838688007F7D4207840073F
:1026B00068D5DFF8CCB100270BF13C0BDBF800004C
:1026C000C0000BD4DBF8001041F08051CBF80010B3
:1026D000DBF80000012700F0805000906B4E30685E
:1026E000C00510D4306840F480703060FEF770FF91
:1026F000009005E0FEF76CFF0099401A022850D8C0
:102700003068C005F6D55E4EA0686C3601280FD043
:102710000528306810D020F001003060306820F0CB
:1027200004003060A068B8B1FEF752FF00900FE0DF
:10273000306840F00100F4E740F004003060F7E753
:10274000FEF746FF0099411A41F28830814266D86F
:1027500030688007F4D50EE0FEF73AFF009007E0FE
:10276000FEF736FF0099411A41F28830814256D86F
:1027700030688007F4D42FB1DBF8001021F08051CD
:10278000CBF80010A069C8B33D49091D0968C1F321
:10279000810102294AD00228504607D0C8F86000BB
:1027A00000E03CE0FEF714FF04463BE04746C8F873
:1027B0006000FEF70DFF064605E000BFFEF708FFCC
:1027C000801B02282BD828688001F7D4D4E90701A0
:1027D0000843A16A2E4A490802EB0141626A41EAB4
:1027E0008211084394F82C1040EA0161C9F80010E6
:1027F00001203866FEF7ECFE044606E03EE000BF2E
:10280000FEF7E6FE001B022809D828688001F7D5EC
:1028100034E000BFFEF7DCFE001B022802D90320D3
:10282000BDE8F88F28688001F4D427E00128F7D0AC
:10283000D9F80000E26900F4800191421CD1226ABB
:1028400000F03F01914217D147F6C071626A014022
:10285000B1EB821F10D1A26A4FF0FF3300F4403178
:1028600003EB5202B1EB024F06D194F82C1000F0AA
:102870007060B0EB016F01D00120D1E70020CFE7FD
:102880000438024000004742800E4742007000407A
:102890000000FFFF70B5040009D0606A002540B158
:1028A00025616561A56294F8510040B10CE00120FA
:1028B00070BD6068B0F5827FF4D0E561F2E784F81E
:1028C0005050204600F044F8022084F8510020685F
:1028D000016821F040010160A088218900F4827024
:1028E00001F404410843A18901F400610843217CFB
:1028F00001F002010843217D01F001010843218B11
:1029000001F400710843217F01F03801084394F875
:10291000201001F080010843218D01F4005108438B
:1029200021680860A069042101EA104094F824108D
:1029300001F010010843216848602068C16921F452
:102940000061C1616565012084F85100002070BDFF
:10295000F0B587B0044614216846FEF70CF81F4F07
:10296000236800221E490224032505261D48BB4278
:1029700013D11B4B14331F6847F480571F601B682B
:1029800003F4805305930B6843F002030B6009685E
:1029900001F002010591382116E0134FBB421BD113
:1029A0000F4B10331F6847F480471F601B6803F408
:1029B000804305930B6843F002030B60096801F044
:1029C000020105914FF42041CDE9001402AB6946A4
:1029D00083E86400FEF7DCFC07B0F0BD0030014086
:1029E00030380240000402400038004070B51546FF
:1029F0000E46040003D094F8490010B107E001200E
:102A000070BD002084F84800204600F01DF804F155
:102A100008012068FEF7C0FA3146A2682068FEF778
:102A2000FBFAD4E901022946236BFEF797FA2168E5
:102A3000A06851F8202042F0010241F82020012036
:102A400084F84900002070BDFEF750BC7047704705
:102A500070B590F83C20012A32D0012480F83C4027
:102A6000022280F83D2003685A689D6822F07006B3
:102A70000A6832435A60134B02689A4214D0B2F18A
:102A8000804F11D0104B9A420ED0104B9A420BD06F
:102A90000F4B9A4208D00F4B9A4205D00E4B9A42E8
:102AA00002D00E4B9A4204D1496825F080031943A5
:102AB000916080F83D40002180F83C10084670BDD0
:102AC000022070BD000001400004004000080040EA
:102AD000000C00400004014000400140001800408C
:102AE00010B5040003D094F83D0010B107E00120B8
:102AF00010BD002084F83C00204600F01FF80220A2
:102B000084F83D00211D206801F008F9012084F8B7
:102B1000460084F83E0084F83F0084F8400084F8C2
:102B2000410084F8420084F8430084F8440084F8AB
:102B3000450084F83D00002010BD000008B5006885
:102B40000B49884212D10B48016841F00201016033
:102B50000068002200F00200009005211D20FEF711
:102B6000D5FDBDE808401D20FEF7C2BD08BD000030
:102B7000000400404038024090F83D10012901D087
:102B800001207047022180F83D100168CA6842F0B8
:102B90000102CA6000681149884214D0B0F1804F28
:102BA00011D00F4988420ED00E4988420BD00E49F1
:102BB000884208D00D49884205D00D49884202D08C
:102BC0000C49884204D1816801F00701062903D02D
:102BD000016841F0010101600020704700000140E0
:102BE0000004004000080040000C004000040140C8
:102BF000004001400018004070B5044690F83C00C9
:102C00000025012817D0012684F83C60022084F8B2
:102C10003D002068826822F0770222F47F428260C1
:102C20000868502838D00DDC20284FD005DC90B340
:102C3000102811D14AE0022070BD302846D040282B
:102C40000AD13BE060282FD070280DD0B0F5805F0E
:102C500003D0B0F5005F12D0012584F83D6000205C
:102C600084F83C00284670BDCB68D1E9012120687A
:102C700001F0C0F82068816841F0770109E0CB6875
:102C8000D1E90121206801F0B5F82068816841F49C
:102C900080418160E1E719E0CA684968206801F075
:102CA000BBF85021206806E0CA684968206801F036
:102CB000C4F86021206801F0A7F8CEE7CA68496827
:102CC000206801F0A9F840212068F4E72268014655
:102CD0001046F0E770472DE9F04104460068C668E9
:102CE00005694FF00007A90713D5B10711D5F91EE3
:102CF000016101202077206880698007204602D08A
:102D0000FFF7E8FF04E000F07EF8204600F07CF8D2
:102D10002777680716D5700714D521686FF004006F
:102D20000861022020772068806910F4407F2046E7
:102D300002D0FFF7CFFF04E000F065F8204600F076
:102D400063F82777280715D5300713D521686FF06A
:102D500008000861042020772068C06980072046A9
:102D600002D0FFF7B7FF04E000F04DF8204600F076
:102D70004BF82777E80616D5F00614D521686FF0D2
:102D800010000861082020772068C06910F4407F97
:102D9000204602D0FFF79EFF04E000F034F8204602
:102DA00000F032F82777E80708D0F00706D021684E
:102DB0006FF001000861204600F028F8280608D5C9
:102DC000300606D521686FF0800008612046FFF7C5
:102DD0003DFE680608D5700606D521686FF04000F4
:102DE0000861204600F01CF8A8060AD5B00608D5F0
:102DF00021686FF0200008612046BDE8F041FFF730
:102E000026BEBDE8F08170477047000000680349A6
:102E1000884201D1FEF7E2BB70470000002000406D
:102E2000704770B5040004D094F84100002510B13B
:102E300006E0012070BD84F84050204600F024F8E0
:102E4000242084F841002068C16821F40051C16049
:102E5000204601F005F82068016921F490410161E4
:102E60002068416921F02A0141612068C16841F46C
:102E70000051C1606564202084F8410084F842005C
:102E80006563002070BD000070B586B00446142153
:102E90006846FDF770FD214E23680021204A022478
:102EA00003252048B34217D11D4B10331E6846F44A
:102EB00080261E601B6803F480230593136843F08B
:102EC00004031360126802F004020592AA02009241
:102ED000CDE90141072119E0134EB3421BD1104B3C
:102EE00014331E6846F020061E601B6803F02003A2
:102EF0000593136843F004031360126802F00402A0
:102F00000592C0220092CDE901410821CDE903518B
:102F10006946FEF73DFA06B070BD0000004800406B
:102F2000303802400008024000140140084810B543
:102F30000A460178074800F041FC4FF480610548DB
:102F400003F09AFABDE810404FF4FA6002F036BC84
:102F500000000020B41B002010B50146064800F018
:102F6000A1FC8021044803F087FABDE810404FF42B
:102F70007A7002F023BC0000B417002070B5624ADA
:102F80000C46E9290CD0EA2C78D0EB2C71D0EC2C33
:102F900070D0ED2C6FD0E82C6ED0FC2C6DD0ADE055
:102FA00010F8011B02F8211B10F8011B02F8201C6D
:102FB00010F8071B02F81F1C018849BA518041888C
:102FC00049BA9180018849BA1182418849BA51822F
:102FD000818849BA9182C18849BAD182018949BAA6
:102FE0001183418949BA5183818949BA9183C18941
:102FF00049BAD183018A49BA1184418A49BA5184B4
:10300000818A49BA9184C18A49BAD184018B49BA6B
:103010001185418B49BA5185818B49BA9185C18B04
:1030200049BA5181C18B49BAD185018C49BA1186FF
:1030300030F8221F49BA5186817882F83410C1785D
:1030400082F8351030F8041F49BAD186418849BA50
:103050001187818849BA5187C18849BA9187008907
:10306000002140BAD087084600F094FD27A043E035
:1030700004E00DE016E01FE028E032E0B0F80900BF
:1030800041BAA2F82310012000F084FD26A033E00D
:10309000B0F8090041BAA2F82510022000F07AFD2C
:1030A00029A029E0B0F8090041BAA2F8391003209C
:1030B00000F070FD2DA01FE0B0F8090041BAA2F8A1
:1030C0003B10042000F066FD30A015E0374D287855
:1030D00028B90021052000F05DFD0120287034A0F2
:1030E0000AE0417A02F8551F807A5070108841BA80
:1030F000062000F04FFD34A0FDF724FA2146BDE87C
:10310000704037A0FDF71EBADC010020E5B7B2E63B
:103110009BB4E696B0E68980E69C89E58F82E695C9
:10312000B05C720A00000000E5B7B2E69BB4E69618
:10313000B053545249502047415445204C494E45C4
:10314000204C4546540D0A00E5B7B2E69BB4E6961E
:10315000B053545249502047415445204C494E45A4
:103160002052494748540D0A00000000E5B7B2E676
:103170009BB4E696B0575320535441525420504FBD
:10318000534954494F4E0D0A00000000E5B7B2E61E
:103190009BB4E696B0445320535441525420504FB0
:1031A000534954494F4E0D0A00000000B40100205D
:1031B0004241534520555044415445E5B7B2E69B42
:1031C000B4E696B05C720A004741494E205345541C
:1031D000E5B7B2E69BB4E696B05C720A0000000068
:1031E000E5A484E79086307825303258E7BB93E633
:1031F0009D9F0D0A00000000FEE70000F0B50023CF
:103200000A24302537261F4611E000BFB4EB107F9B
:1032100002D905EB107C01E006EB107C01F813C02D
:1032200001EB430C00015B1C8CF80170DBB2934294
:10323000ECD3F0BD0D4810B50B4901601021416081
:1032400000218160C1600161416101764176817632
:10325000C17601774177FDF724FF002803D0BDE850
:103260001040FDF79EBD10BD00640040DC02002050
:1032700000B587B01C216846FDF77DFB16484FF06E
:103280002041102201601549416000218160C16028
:10329000C0E904128161C16113020162C0E909132E
:1032A000C162016341638163C16341640220009094
:1032B0000F20019002AB082083E807001120CDE920
:1032C0000501002269460448FFF790FB002801D061
:1032D000FDF767FD07B000BD680B0020040100A0EA
:1032E00010B5044A0021044802F000FB03490860BD
:1032F00010BD00003C7300081D3C000804000020C5
:103300002DE9F04F87B014216846FDF734FB5A4889
:103310000024016841F010010160016801F0100112
:103320000591016841F020010160016801F0200170
:103330000591016841F080010160016801F08001A0
:103340000591016841F040010160016801F0400110
:103350000591016841F002010160016801F002017C
:103360000591016841F008010160016801F0080160
:103370000591016841F004010160016801F0040158
:103380000591016841F0010101600068DFF8ECA0DF
:1033900000F001000590002220215046FEF712F9AE
:1033A000DFF8DCB04FF48077002239465846FEF74C
:1033B00009F900224FF440613248FEF703F94FF457
:1033C0000049002249463048FEF7FCF8202001263B
:1033D000CDE90006022569465046CDE90245FDF7D4
:1033E000D7FF40204FF48818CDE9000869460294C1
:1033F0005046FDF7CDFF8020CDE9000869460294D4
:103400005846FDF7C5FFCDE9007669465846CDE937
:103410000245FDF7BDFF6802CDE90006694619487F
:10342000CDE90245FDF7B4FFA802CDE90006CDE9DC
:10343000026569461348FDF7ABFF28020090CDE90D
:1034400001540394694611480494FDF7A1FF0097C5
:10345000CDE90154039469460B480494FDF798FFA5
:10346000CDE9009669460848CDE90245FDF790FF91
:1034700007B0BDE8F08F0000303802400010024075
:103480000014024000040240000002400008024014
:10349000104810B50E4901604FF48271416000215F
:1034A00002228160C0E9031201224261520282615C
:1034B0002022C0E90721416281620A21C162FFF72F
:1034C000E9F9002803D0BDE81040FDF76ABC10BD43
:1034D00000300140B80B0020114810B50F490160C1
:1034E0004FF4827141604FF400418160002102225B
:1034F000C0E9031201224261520282612022C0E926
:103500000721416281620A21C162FFF7C3F90028E5
:1035100003D0BDE81040FDF744BC10BD00380040AA
:10352000100C002010B586B00024184800940194B7
:1035300002940394049414490594016042F2CF016B
:10354000C0E9011447F22F51C0E9031480218161C1
:10355000FFF7C6FA08B1FDF724FC4FF48050009045
:1035600069460A48FFF748FB08B1FDF71AFC0494C6
:1035700004A906480594FFF76BFA002801D0FDF76F
:1035800010FC06B010BD000000040040680C0020D4
:103590000C4810B50A4901604FF4E1314160002147
:1035A00081600C22C160C0E904128161C161FFF732
:1035B00038FC002803D0BDE81040FDF7F2BB10BD79
:1035C00000480040B00C00200C4810B50A490160CA
:1035D0004FF4E1314160002181600C22C160C0E9FB
:1035E00004128161C161FFF71CFC002803D0BDE813
:1035F0001040FDF7D6BB10BD00140140F80C0020B0
:103600000D4810B54FF0A041016004210171022264
:10361000C2710021817142728172C17201730122F3
:103620008273C173FEF7C8FC002803D0BDE81040C8
:10363000FDF7B7BB10BD0000400D0020FEE7FEE720
:103640000148FEF703BA0000B41F00202DE9F04145
:1036500003680D4604461E6C03EB4511D1F8080BB8
:1036600094F806E04FF400474FF0200C04F29C421F
:10367000BEF1010F09D0DFF898E0764539D1020498
:1036800032D500BFC1F8087B3FE0224B5FEA007EE5
:1036900004D59E4239D90004F4D436E05FEA806E46
:1036A00002D5C1F808CB30E010F0280F2DD19E4292
:1036B00001D90004E6D405EBC50004EB8000D1F885
:1036C000101BD0F87432C1F31201591AC0F86812F5
:1036D00000F51570ADB903691BB1C2681144C16032
:1036E0000FE0012120680AE080060AD5C1F808CB66
:1036F00007E035B9D4F8640218B90021184601F082
:10370000EBFCE9B22046FEF76EF80020BDE8F08140
:103710000A31544F0A30544F2DE9F84F0E4601EB51
:10372000C60100EB810481460568D4E90910143410
:10373000884202D90120BDE8F88F081AA1688142A9
:1037400000D20846C01C870805EB46181BE000BFE6
:10375000A0EB010AA068504500D282460AF103009E
:10376000870899F8060000901FFA8AF3F2B22846FB
:10377000E16801F0EFFFE16801EB0A00E0606169D8
:1037800001EB0A006061D8F8180980B2B84205D38D
:10379000D4E90401814201D20028D9D1D4E904013D
:1037A000884208D806F00F0101208840D5F8341867
:1037B0008143C5F834180020BDE70000F8B50E4677
:1037C0004FF48067154604463946FDF7B2F83122BA
:1037D00026492046FDF760F8C820254B0090A3F548
:1037E000C87229463046FDF749FC214D0020A5F559
:1037F000C87600BF36F8103035F8102004EB800191
:103800004FEA132C01F831CF401C4B70130A8B7018
:1038100080B2CA70C828EDD3002184F8FF130320BA
:103820002118801C0A784B780B7080B24A703128BE
:10383000F6D340F2513540F2FF36625D1AB12946A7
:103840000CA0FCF77FFE6D1CB542F6DB002108469C
:10385000225C401C1144C9B2B042F9DB84F8FF136A
:103860003946BDE8F84009A0FCF76CBEDC01002039
:10387000A827002072657365727665645B25645DB8
:10388000203D203078253032580A000073697A656F
:103890006F66284164634672616D6529203D20256D
:1038A0007A750A0010B504468021FDF742F8012020
:1038B00020706070FE20A070B24830F8031F090A23
:1038C000E170017821714188090A61718178A171E3
:1038D0008188090AE17101792172C188090A61723E
:1038E0008179A1720189090AE172017A2173418902
:1038F000090A6173817AA1738189090AE173017BE5
:103900002174C189090A6174817BA174018A090A41
:10391000E174017C2175418A090A6175817CA17578
:10392000818A090AE175017D2176C18A090A6176D9
:10393000817DA176018B090AE176017E2177418B99
:10394000090A6177817EA177818B090AE177017F7E
:1039500084F82010C18B090A84F82110817F84F833
:103960002210018C090A84F8231090F8201084F8A2
:103970002410418C090A84F8251090F8221084F84C
:103980002610818C090A84F8271090F8241084F8F6
:103990002810C18C090A84F8291090F8261084F8A0
:1039A0002A10018D090A84F82B1090F8281084F849
:1039B0002C10418D090A84F82D1090F82A1084F8F3
:1039C0002E10818D090A84F82F1090F82C1084F89D
:1039D0003010C18D090A84F8311090F82E1084F847
:1039E0003210018E090A84F8331090F8301084F8F0
:1039F0003410418E090A84F8351090F8321084F89A
:103A00003610818E090A84F8371090F8341084F843
:103A10003810C18E090A84F8391090F8361084F8ED
:103A20003A10018F090A84F83B1090F8381084F896
:103A30003C10418F090A84F83D1090F83A1084F840
:103A40003E10818F090A84F83F1090F83C1084F8EA
:103A50004010C18F090A84F8411090F83E1084F894
:103A60004210B0F84010090A84F8431090F8401052
:103A700084F84410B0F84210090A84F8451090F810
:103A8000421084F84610B0F84410090A84F8471030
:103A900090F8441084F84810B0F84610090A84F8E9
:103AA000491090F8461084F84A10B0F84810090AF6
:103AB00084F84B1090F8481084F84C10B0F84A1075
:103AC000090A84F84D1090F84A1084F84E10B0F8A6
:103AD0004C10090A84F84F1090F84C1084F85010DC
:103AE000B0F84E10090A84F8511090F84E1084F87E
:103AF0005210B0F85010090A84F8531090F8501082
:103B000084F8541090F8521084F8551090F853101F
:103B100084F85610B0F85410090A84F8571090F839
:103B2000541084F85810B0F85610090A84F8591047
:103B300090F8561084F85A10B0F85810090A84F812
:103B40005B1090F8581084F85C10B0F85A10090A0D
:103B500084F85D1090F85A1084F85E10B0F85C108C
:103B6000090A84F85F1090F85C0084F86000002176
:103B70000846225C401C1144C9B27F28F9DB84F856
:103B80007F1010BDDC0100200178407841EA002060
:103B9000704700002DE9F04188460446FDF790FB90
:103BA0001A4F1B4D1B4EA4B107F82480022104209C
:103BB000FDF7FAF8002461193A59002302207260D7
:103BC000FDF740FB241D802CF5D3BDE8F041FDF747
:103BD0002FBB802210490D48FCF75EFE802229464B
:103BE0000A48FCF72DFE0028EFD002210420FDF743
:103BF000DBF8002461193A59002302207260FDF7B6
:103C000021FB241D802CF5D3DFE700009825002040
:103C100000000108B4010020DC010020012001F0B7
:103C200029FEFBE710B54FF0E020006903F0CAF968
:103C3000012803D0BDE8104002F0F8BE10BD00001E
:103C400030B593B030216846FCF795FE14210CA8DE
:103C5000FCF791FE25480025016841F08051016084
:103C6000006800F0805011902148016841F4404103
:103C700001600068022400F440401190032000908D
:103C80004FF48030019001200390102004908004B4
:103C9000CDE9064004200890A820CDE909040720BA
:103CA0000B906846FEF740FC08B172B6FEE70CA91F
:103CB0000F2081E831004FF4A0500F904FF4805056
:103CC000109005210CA8FEF7D9FA08B172B6FEE7EC
:103CD000002211461046FEF7E1FB4FF08062002102
:103CE0000120FEF7DBFB13B030BD0000403802407E
:103CF000007000400248016841F4700101607047A3
:103D000088ED00E00148FEF7E6BF0000680C0020E7
:103D10000148FEF7E0BF000024120020F0B5026861
:103D2000294C2A4D2A4E2B4F2B4B4FF0804CA04252
:103D300009D0604507D0A84205D0B04203D0B842B0
:103D400001D0984204D122F0700E4A6842EA0E0275
:103D5000A0421BD0604519D0A84217D0B04215D060
:103D6000B84213D0984211D01C4DA8420ED01C4D21
:103D7000A8420BD01B4DA84208D01B4DA84205D02D
:103D80001A4DA84202D01A4DA84203D122F4407520
:103D9000CA682A434D6922F080022A4302608A6879
:103DA000C2620A688262A04201D0984201D10969C8
:103DB0000163012141610169C90703D0016921F053
:103DC00001010161F0BD000000000140000400405D
:103DD00000080040000C0040000401400040014089
:103DE000004401400048014000180040001C004011
:103DF0000020004010B5846842EA032224F47F4486
:103E00000A432243826010BD826822F070020A4396
:103E100042F007018160704710B5036A046A24F01C
:103E200001040462846924F0F00444EA021423F0DB
:103E30000A020A438461026210BD10B5036A046A73
:103E400024F010040462846923F0A00324F4704475
:103E500044EA023243EA01118261016210BD0000AE
:103E600070B5044600680169E26821F440511143CD
:103E700001612169A068E26908436169114308434F
:103E80002168CA6849F20C639A430243CA602068F9
:103E90004169A26921F440711143416131492068AF
:103EA000884202D03049884202D1FEF7B7FA01E0D9
:103EB000FEF7A4FAE2690023192164253226B2F53F
:103EC000004F626828D0A0FB0101930F9200FCF71D
:103ED000C2FA0146B0FBF5F06FF01802504301EB57
:103EE000800006EB0010B0FBF5F000F0F002B1FB33
:103EF000F5F002EB0012B1FBF5F06FF01803584338
:103F000001EB800006EB0010B0FBF5F000F00F00B5
:103F100021681044886070BDA0FB010192185B41CC
:103F2000FCF799FA0146B0FBF5F00201B1FBF5F0A0
:103F30006FF01803584301EB800006EBC000B0FBA4
:103F4000F5F000F0F80002EB4002B1FBF5F0584349
:103F500001EB800006EBC000B0FBF5F000F00700BD
:103F6000D6E7000000100140001401402DE9F041A7
:103F70000C46D0F8C422D0F8BC12F9B104EB84038B
:103F800000EB83050026AB694BB104EBC40702EBE1
:103F90008702D269B3FBF2F702FB173282B1C1F894
:103FA0001462D0F8C00203692BB1D1F8080222468E
:103FB00001F5047198470020BDE8F0810320FBE77C
:103FC00000231A462146AE6100F015FCF3E770B5F8
:103FD000D0F8BC4205466CB100F001FBC4F80C02FD
:103FE000D5F8C012D4F80402CA6804F503719047EA
:103FF000002070BD032070BD70B50446812100F023
:104000004FFA002525870121204600F049FAA4F83F
:1040100078518221204600F043FAA4F84C50A4F8CD
:104020004E50D4F8BC0248B1D4F8C00204F52F7445
:10403000406880472068FCF7E7F92560002070BDE4
:1040400010B5D0F8BC4284B1D0F8C01259B194F880
:104050000002FF2807D08B6894F801222146984778
:10406000FF2084F80002002010BD032010BD0000D6
:104070000A210180004870479C00002043210180F4
:1040800000487047EC000020432101800048704741
:10409000A800002043210180004870473001002023
:1040A0002DE9F04704464FF40770FCF77EF9050050
:1040B0004FF0000735D0C4F8BC52207C4FF01008F8
:1040C0004FF40079012680B340230222812120464B
:1040D00000F0E3FA2687402302220121204600F067
:1040E000DCFAA4F87861A4F84E8008230322822128
:1040F000204600F0D2FAA4F84C60D4F8C002006860
:104100008047C5F81472C5F81872207CD5F80422CF
:10411000A8B140230121204600F0C9FA0020BDE8E3
:10412000F0870220C4F8BC72F9E7FFE74B46022291
:104130008121204600F0B1FA26874B46CCE74B465A
:10414000E8E710B5D0F8BC1251B1027C002AD1F8D2
:10415000042207D04023012100F0A9FA002010BD5D
:10416000032010BD4FF40073F5E719B1C0F8C01279
:104170000020704703207047D0F8BC0218B1C0F887
:1041800004120020704703207047D0F8BC0228B109
:10419000C0F81022C0F808120020704703207047B2
:1041A0002DE9FC410646D0F8BC7200200C468DF883
:1041B0000000ADF80400054637B1207810F060012A
:1041C00028D0202944D102E00320BDE8FC81E28808
:1041D000C2B1000660780AD5D6F8C0128B6839469D
:1041E0009847E288072A00D90722394628E087F84D
:1041F0000002A07987F80102E2883946304600F0D3
:104200006CF82AE0D6F8C012607800228B6821464C
:10421000984722E0607830B101281ED00A2809D0E2
:104220000B2815D110E096F89C02032810D1022229
:1042300001A905E096F89C02032809D101226946EC
:10424000304600F064F808E096F89C02032804D099
:104250002146304600F036F803252846B5E710B56C
:10426000D0F8BC12012219B1D1F8143213B10FE009
:10427000032010BD0122C1F81422D1F81022C2621D
:10428000D1F81032D1F80822812100F0B4FA0022CE
:10429000104610BD10B5D0F8B8220AB15268904748
:1042A000002010BD134610B50A46002100F0FFF9AA
:1042B000002010BD134610B50A46002100F09BFAFD
:1042C000002010BD10B50446802100F07DFA204684
:1042D000BDE81040002100F077BA10B50323C0F804
:1042E0009432C0F858211346C0F85C210A460021D8
:1042F00000F0DDF9002010BD10B50521C0F89412C2
:1043000000231A46194600F0D2F9002010BD10B55E
:104310000223C0F8943282611346C2610A4600212A
:1043200000F069FA002010BD10B50421C0F8941205
:1043300000231A46194600F05EFA002010BDF8B5B9
:1043400004460020ADF8000048880D46010A0829FF
:104350005FD2DFE801F05E0409175E5E3C45D4F8E9
:10436000B412207C0A6819E0207C02260028D4F8C8
:10437000B80205D0C16A684688470146467039E0F0
:10438000816AF8E7C0B2062843D2DFE800F0030AEA
:104390001014181CD4F8B402426805E0694690472E
:1043A0001CE0D4F8B402826892B3207CF6E7D4F81B
:1043B000B402C268F8E7D4F8B4020269F4E7D4F8AA
:1043C000B4024269F0E7D4F8B4028269ECE7207CD9
:1043D000F0B9D4F8B802416B68468847014609E055
:1043E000207CA8B9D4F8B802016B6846884701461A
:1043F00007204870EA888AB1BDF8000040B18242C7
:1044000000D90246ADF800202046FFF780FFF8BD36
:10441000FFE729462046FFF755FFF8E72046FFF75C
:1044200083FFF4E770B5002300281ED00025044662
:1044300002E06D1CEDB2641C2678002EF9D1022436
:1044400004EB450414801278CA545B1C0322CA543E
:1044500000245B1C06E0CA545B1CDAB28C54521C6C
:10446000D3B2401C0278002AF5D170BD78B1002388
:10447000C0F8B832C0F8C032C0F8CC3209B1C0F8C8
:10448000B412012180F89C12027000F0ADB8032034
:10449000704710B5D0F8C402FDF702FA002010BD35
:1044A00010B5D0F8C402FDF7D6F9002010BD70B5E4
:1044B0001646044621B194F89C02032841D048E0F6
:1044C000D4F8941204F114000025022932D1D0E965
:1044D00002318B4206D95A1A826031462046FFF7D4
:1044E000E9FE0FE0994214D14068884211D3D4F814
:1044F000981288420DD2002211462046FFF7DAFEBC
:10450000C4F8985200231A461946204600F0CFF806
:1045100010E094F89C02032805D1D4F8B802C168D1
:1045200009B1204688478021204600F04DF92046F9
:10453000FFF7E2FE94F8A00201280AD184F8A05205
:1045400007E0D4F8B80242691AB120469047002823
:1045500000D1002070BD10B51346044621B194F877
:104560009C02032823D02AE0D4F8941204F5AA7000
:10457000032924D1D0E9021291420AD98A1A826011
:10458000C068824200D3024619462046FFF78AFEE1
:1045900015E094F89C02032805D1D4F8B80201690B
:1045A00009B1204688472046FFF7BEFE07E0D4F851
:1045B000B80282691AB120469047002800D1002035
:1045C00010BD0020704710B5012180F89C12D0F872
:1045D000B82212B1526801799047002010BDD0F87E
:1045E000C402FDF78AB90000134910B54FF0A0428C
:1045F0000A6004220A710022CA738A71CA720223F5
:104600004B728A72CB718A73C1F8E004C0F8C4128D
:104610000846FDF7D1FC80210748FDF7AAF84022A3
:1046200000210548FDF7A9F8802201210248FDF785
:10463000A4F8002010BD0000B41F00200A0601F0FD
:104640007F01D0F8C40201EBC10100EB810001D56C
:10465000807D704790F85602704710B5D0F8B822A8
:1046600022B190F89C32032B02D004E0032010BD4D
:10467000126A02B19047002010BD10B5D0F8B822E0
:1046800022B190F89C32032B02D004E0032010BD2D
:10469000526A02B19047002010BD10B51C46134667
:1046A000D0F8C4022246FDF731F9002010BD10B544
:1046B000D0F8C402FDF75BF9002010BD70B50125EC
:1046C000044680F89C520020C4F894026060C4F84C
:1046D000A402D4F8B802E0B1D4F8BC1221B1426807
:1046E00012B1002120469047002240231146204667
:1046F000FFF7D3FF4026A4F86451334600228021FF
:104700002046C4F86061FFF7C8FFA5840020266238
:1047100070BD032070BD90F89C12042903D190F85D
:104720009D1280F89C120020704710B5D0F8B81286
:1047300021B190F89C22032A02D004E0032010BD8E
:10474000C96901B18847002010BD0174002070477D
:10475000044B10B501221A70D0F8C402FDF734FDE5
:10476000002010BD4800002070B5044600F2AA20C9
:10477000054600F047F80120C4F89402B4F8B002EE
:10478000C4F8980294F8AA0210F01F010AD0012977
:104790000ED0022912D000F080012046BDE8704002
:1047A00000F012B829462046BDE8704000F0BCB8C1
:1047B00029462046BDE8704000F0E0B92946204671
:1047C000BDE8704000F03AB910B5D0F8C402FDF76A
:1047D000EAF8002010BD10B5D0F8C402FDF70EFDB8
:1047E000002010BD90F89C1280F89D12042180F8E2
:1047F0009C120020704710B5D0F8C402FDF70CF9E8
:10480000002010BD70B5054611F8010B287008781E
:1048100068704C1C2046FFF7B7F96880A41C20463E
:10482000FFF7B2F9A880A01CFFF7AEF9E88070BDD1
:1048300038B504460020ADF8000049B1C4F8B812FC
:10484000C96A19B168468847C4F8CC02002038BD4F
:10485000032038BD02460320D2F8B832002B02D024
:104860001B681046184770472DE9F0410F462C4E43
:104870008978002504463170012906D93946204639
:10488000FFF720FD0320BDE8F08194F89C02022888
:104890000CD003281DD039462046FFF713FD317890
:1048A0002046FFF7F7FC03252846ECE799B320469E
:1048B0006160FFF7CFFF050004D039462046FFF7BF
:1048C00001FDF1E72046FFF72FFD032084F89C024D
:1048D000EAE74FF00208C1B1606888421BD0C1B25C
:1048E0002046FFF7D7FC317820466160FFF7B2FF22
:1048F000050010D039462046FFF7E4FC2179204618
:10490000FFF7C8FC84F89C82CEE784F89C8220469E
:104910006160FFF7BFFC2046FFF706FDC4E700001B
:10492000AC010020FFF757BF2DE9F0410A780025C0
:1049300012F0600208D0202A01D0402A71D1D0F8AC
:10494000B8229268904731E04B78002201260A2B6A
:1049500067D2DFE803F0415E6658660805662D29D8
:10496000FFF7EDFC5FE004468888D8B9C888C8B96D
:104970004888802816D200F07F0794F89C0203280C
:1049800010D084F89E7239462046FFF7E1FE20469B
:10499000FFF7CAFC1FB1022084F89C0243E084F8B0
:1049A0009C6240E020463CE0FFF75EFF05463AE0AF
:1049B000CB88012B35D190F89C32012B04D0022BEF
:1049C00002D0032B2DD104E08260012200F1080106
:1049D00016E00122011D13E090F89C22012A03D069
:1049E000022A01D0032A1CD1CA88022A19D1C66022
:1049F000D0F8A41209B10321C160022200F10C0118
:104A0000FFF785FC0FE0498801290CD1C0F8A462AA
:104A100011E090F89C32012B08D0022B06D0032B1A
:104A200004D0FFF74FFC2846BDE8F08149880129F2
:104A3000F9D1C0F8A422FFF777FCF4E72DE9F041A3
:104A40000D46044628780026097910F060000BD046
:104A5000202801D040286DD1D4F8B80229468268B8
:104A600020469047064686E06878A8B3012822D001
:104A700003287CD194F89C02022802D0032876D126
:104A80000BE0002973D0802971D02046FFF79CFEEF
:104A900080212046FFF798FE6DE0688838B931B173
:104AA000802904D0E88810B92046FFF78DFE204603
:104AB000FFF73AFC5FE094F89C020228E1D003285B
:104AC00055D16888A8BB480602D02046FFF7E1FC14
:104AD0002046FFF729FCBFE7FFE794F89C02002778
:104AE000022802D0032842D111E009B180293ED129
:104AF000080601F07F0000EB800004EB800101D587
:104B0000143101E001F5AA7102220F602BE00806C2
:104B100001F00F0000EB800004EB80000BD5808CCF
:104B200040B101F07F0000EB800004EB80051435FC
:104B30000CE020E01BE0B0F86401C0B101F07F00A0
:104B400000EB800004EB800505F5AA7541B18029D2
:104B500006D02046FFF772FD10B10120286000E06A
:104B60002F60022229462046FFF7D1FB03E02946A9
:104B70002046FFF7A7FB3046BDE8F08170B506463A
:104B8000087800240D4610F0600003D0202801D0E2
:104B9000402817D196F89C02012803D0022801D0A2
:104BA00003280FD1287901280CD8D6F8B8028268DA
:104BB000304690470446E888204306D13046FFF748
:104BC000B3FB02E03046FFF77DFB204670BD0000DE
:104BD00010B50A46024903A0FFF724FC004810BDA7
:104BE0009824002056435020436F6E66696700008A
:104BF00012200880004870476C00002010B50A465B
:104C0000024903A0FFF70EFC004810BD98240020C5
:104C100056435020496E74657266616365000000FA
:104C200004200880004870476800002010B50A463C
:104C3000024903A0FFF7F6FB004810BD98240020AE
:104C400053544D6963726F656C656374726F6E69FE
:104C5000637300000A4610B5044928B104A000BFE0
:104C6000FFF7E0FB014810BD0AA0F9E798240020F7
:104C700053544D3332205669727475616C20436F02
:104C80006D506F727420696E204653204D6F6465BD
:104C90000000000053544D33322056697274756120
:104CA0006C20436F6D506F727420696E20485320E2
:104CB0004D6F64650000000010B51A2008800A4896
:104CC0000168001D0468001D0068081809D008224A
:104CD0000649FEF793FA0549042210312046FEF7F3
:104CE0008DFA0248801E10BD107AFF1F820000203E
:104CF00070B50A78012302F00F054E78AB401B4CCB
:104D0000D0F81C58012E17D045EA0343C0F81C38D0
:104D100000EB4210D0F8002B12040BD4D0F8002B7B
:104D20000B890979C3F30A031A4344EA81410A4310
:104D3000C0F8002B002070BD9BB21D43C0F81C586A
:104D400000EB4210D0F800391B04F3D4D0F800393E
:104D50000D890979C5F30A0589042B4341EA82517B
:104D60000B432343C0F80039E4E700000080001043
:104D7000D0F800196FF30A01C0F80019D0F8041830
:104D800041F48071C0F804180020704770B50D46DA
:104D90000446C2F3072104981E4601291BD0E0688F
:104DA00040F04000E060204600F032F8C6F30721F2
:104DB0000029A16B26D021F48031A163C5F30741FE
:104DC000012907D1A16841F00601A160A16841F065
:104DD0002001A16070BDA16B21F48031A163E16865
:104DE0000A4A1140E160E16821F44011E160C0B27B
:104DF000012803D1E06840F48010E060204600F014
:104E000007F8DBE741F48031D7E70000BFFFBDFFC3
:104E100008B500214FF070620091009B5B1C00936D
:104E200093420CD80369002BF7DA0091016941F035
:104E3000010101610099491C0091914201D90320AF
:104E400008BD0169C907F5D1002008BD30B54C780F
:104E50000A78012300EB4212012C2CD0D2F8004B2F
:104E6000002C0BDAD2F8004B44F00064C2F8004B7F
:104E7000D2F8004B44F08044C2F8004BD0F83C58C4
:104E80000C7804F00F0403FA04F425EA0444C0F893
:104E90003C48D0F81C48097801F00F018B4024EA07
:104EA0000341C0F81C18D2F8000B19490840C2F899
:104EB000000B002030BDD2F80049002C0BDAD2F8EC
:104EC000004944F00064C2F80049D2F8004944F0B7
:104ED0008044C2F80049D0F83C480D7805F00F0531
:104EE00003FA05F5ADB2AC43C0F83C48D0F81C4815
:104EF000097801F00F018B4099B28C43C0F81C482F
:104F0000D2F8000903490840C2F80009D1E70000BF
:104F10000078F3EF007833ECD0F8001E21F00301A5
:104F2000C0F8001ED0F8041821F00201C0F80418DF
:104F300000207047D0F8001E21F00301C0F8001EC9
:104F4000D0F8041841F00201C0F80418002070479E
:104F50002DE9F04F00250E460446174628462946FF
:104F600004EB8002C2F80411401C0F28F8D3C3F3ED
:104F700007405FEA0009204616D0806B20F400123B
:104F8000A263A06B40F40022A26308468846214633
:104F9000C4F8000EC7F30720012817D00846D1F83F
:104FA000001841F0030118E0D0F8040840F00202B4
:104FB000C4F80428A06B40F40012A263A06B20F494
:104FC0000022A263A06B20F48022DDE7300E0846A9
:104FD000D1F8001801D041F00101C0F800181021EB
:104FE00000F08BFA00B10125204600F06AFA00B10A
:104FF00001254046C4F81088C4F81488C4F81C88F9
:1050000000214FF0006B4FF0904E4FF67F3AF2B216
:1050100015E000BF04EB4113D3F800C9BCF1000F49
:1050200006DA11B1C3F800E904E0C4F800B901E000
:10503000C3F80009C3F81009C3F808A9491C8A423B
:10504000E8D8002115E000BF04EB4113D3F800CBF2
:10505000BCF1000F06DA11B1C3F800EB04E0C4F8AC
:1050600000BB01E0C3F8000BC3F8100BC3F808AB9A
:10507000491C8A42E8D8D4F8101821F48072C4F888
:105080001028A0616FF080406061C6F3074018B936
:10509000A06940F01000A061A0690A490843A0611E
:1050A000C7F3074018B1A06940F00800A061B9F14A
:1050B000010F03D1A06904490843A0612846BDE857
:1050C000F08F000000383C8004000040816821F02F
:1050D000010181600020704710B5036C134CA3429E
:1050E00003D9D0F8003B002B1EDB0023C0F8103B97
:1050F000D0F8103B43F40023C0F8103BD0F8103B2D
:1051000043F01803C0F8103BD0F8103B43F0C04305
:10511000C0F8103B012907D1C0F8142BD0F8001BB0
:1051200041F08021C0F8001B002010BD0A30544F10
:105130004A780B78012A00EB43100BD0D0F8002BF3
:1051400022F40012C0F8002B0979032914D0022997
:1051500012D017E0D0F8002922F40012C0F800297C
:105160000979032901D002290CD1D0F8001941F0A6
:105170008051C0F8001905E0D0F8001B41F08051C3
:10518000C0F8001B002070470A784B78D1B200EBC2
:105190004110012B12D0D0F8001B002906DB2AB1E8
:1051A000D0F8001B21F08041C0F8001BD0F8001B94
:1051B00041F40011C0F8001B00207047D0F800191E
:1051C000002906DB2AB1D0F8001921F08041C0F88F
:1051D0000019D0F8001941F40011C0F80019EBE7EC
:1051E000F8B50C784F788B4DE3B26FF0604600EB6A
:1051F0004313012F29D0D3F8107B6FF31207C3F8A4
:10520000107BD3F8107B2F40C3F8107B002C7DD08F
:105210000D69002D7BD08C6825446D1EB5FBF4F51F
:10522000ADB26C430C62D3F8104B06EAC5452C4373
:10523000C3F8104BD3F8104B0D6AC5F312052C437D
:10524000C3F8104B012A70D0CBE00F69EFB1D3F84F
:1052500010796FF31207C3F81079D3F810792F4043
:10526000C3F810790CB30F698D682F447F1EB7FB0C
:10527000F5F5D3F81079ADB206EAC5463743C3F861
:1052800010790E79012E1CD02AE0D3F810692E4037
:10529000C3F81069D3F8105945F40025C3F8105924
:1052A000D3F810596FF3120520E00E698D68AE42F5
:1052B00000D90D61D0F8105945F40026C0F81069E6
:1052C0000EE0D3F8106926F0C046C3F81069D3F891
:1052D00010694FF0C04707EA45752E43C3F81069BF
:1052E000D3F810590E69C6F312063543C3F81059A6
:1052F000012A1BD000EB4413D3F8004944F00444C6
:10530000C3F800490C79012C31D001E044E057E0AA
:105310000A695AB3D0F83428097801F00F03012143
:1053200099400A43C0F8342871E056E0CA691AB1BE
:1053300000EB4413C3F81429097901290ED1D0F8E0
:105340000818C90500EB4411D1F8002902D442F035
:10535000005201E042F08052C1F8002900EB4410F5
:10536000D0F8001941F00441C0F800194FE0D0F81E
:105370000848E405D3F8004902D444F0005401E0A1
:1053800044F08054C3F8004900920A8A93B20A7824
:10539000C96800F0DFF93AE00C690CB18C680C6167
:1053A0008C680C62D0F8105BC4F312042543C0F87B
:1053B000105BD0F8104B44F40024C0F8104B41E7C8
:1053C000D3F8104B8D68C5F312052C43C3F8104B6E
:1053D000D3F8104B44F4002432E7CA680AB1C3F88A
:1053E000142B097901290CD1D0F80808C005D3F88D
:1053F000000B02D440F0005001E040F08050C3F8B0
:10540000000BD3F8000B40F00440C3F8000B002061
:10541000F8BD0000FFFF07E038B5002200921346F8
:105420004D780A7842F2107400EB4212012D19D027
:10543000D2F8005B002D3CDAD2F8005B45F0006545
:10544000C2F8005B0A7800EB4212D2F8005B45F02C
:105450008045C2F8005B009A521C0092A24221D9FA
:10546000012326E0D2F80059002D22DAD2F80059A3
:1054700045F00065C2F800590A7800EB4212D2F8F4
:10548000005945F08045C2F80059009A521C00921C
:10549000A242E5D80A7800EB4212D2F80029002A8D
:1054A000F3DB06E00A7800EB4212D2F8002B002A68
:1054B000D1DB184638BD816841F0010181600020D0
:1054C000704708B500214FF070620091009B5B1C93
:1054D000009393420AD80369002BF7DA0091102158
:1054E00001610099491C0091914201D9032008BD36
:1054F0000169C906F5D4002008BD18B500224FF097
:1055000070630092009C641C00949C420CD8046957
:10551000002CF7DA0092202242EA81110161009901
:10552000491C0091994201D9032018BD01698906DF
:10553000F5D4002018BDD0F8080810F0060004D0FB
:10554000022803D0062801D00F20704702207047A0
:10555000406900F001007047D0F81818D0F81C0816
:10556000084080B27047D0F81818D0F81C080840DE
:10557000000C704710B5D0F81038D0F8342801F07E
:105580000F0400EB4110E24002F00102D0F80809DC
:1055900043EAC212104010BD00EB4111D1F8081BC4
:1055A000D0F8140808407047416980690840704786
:1055B00030B503460846940802F00301002203F5C3
:1055C000805303E01D6840F8045B521CA242F9D3EB
:1055D00000290BD01C680022D50024FA05F3491ECF
:1055E000521C090400F8013B090CF5D130BD70B51F
:1055F0000446C068002520F0C040E060012901D0C9
:1056000079B120E0E06840F00050E0600A20FBF74C
:105610000BFE60690A3510F0010F10D1C82DF5D3CB
:105620000DE0E06840F08040E0600A20FBF7FCFD00
:1056300060690A3510F0010F01D0C82DF5D3C82DCF
:1056400001D0002070BD012070BDD0F8002822F4E8
:10565000FE62C0F80028D0F800284FF4FE6303EA89
:1056600001110A43C0F8002800207047022A3ED1E9
:10567000264A274B0A449A4201D20F2138E0254A94
:10568000254B0A449A4201D20E2131E0234A244B91
:105690000A449A4201D20D212AE0224A224B0A44AE
:1056A0009A4201D20C2123E0204A214B0A449A421B
:1056B00001D20B211CE01F4A1F4B0A449A4201D21F
:1056C0000A2115E01D4A1E4B0A449A420FD31D4A77
:1056D0001D4B0A449A4201D2082109E01B4A114499
:1056E0001B4A914201D2072102E0062100E0092174
:1056F000C26822F47052C260C2684FF4705303EA69
:1057000081210A43C260002070470000405327FFF8
:1057100000350C00401E1BFF40420F0000DC0BFF59
:10572000804F1200808CF9FE20D6130060B6E5FE93
:1057300060E3160000D3CEFE40771B00C05BB3FED3
:10574000C091210000CA91FE20753800E05459FE36
:10575000E09C410010B5029C74B9DB1C9C0800EB76
:105760000230002300F5805004E000BF51F8042B04
:1057700002605B1CA342F9D3002010BDFEE70907BD
:10578000090E002804DB00F1E02080F800147047C7
:1057900000F00F0000F1E02080F8141D7047303851
:1057A0000A2801D2012070470020704770477047D7
:1057B0004FF47A71484300F001B8000070B54FF023
:1057C000E024002265690949A36909684843A16981
:1057D0009942FCD002D2A3EB010302E0A5EB010643
:1057E00033441A440B468242F1D370BDB00100200D
:1057F00004490A685206FCD5024AC1B2121D116062
:105800007047000000140140FBF7F0FEFEF718FAA5
:10581000FDF776FDFDF72CFDFDF73AFEFDF75CFE8A
:10582000FDF708FDFDF7B4FEFDF7CEFEFDF7E8FE3F
:10583000FDF778FE00220B490B48FEF717FE0B49D7
:105840000948FEF7F5FF0A490748FEF78EFC0648AF
:10585000FFF768F800F01CF8FDF742FD00F02AF8A9
:10586000FEE700004C000020E4140020740100203A
:105870003400002010B5EFF3058111B16FF005047D
:1058800003E0002408B100F071FF204610BD0000C5
:10589000EFF3058010B16FF0050070470448016810
:1058A00011B14FF0FF3070470121016000207047B7
:1058B000AC02002010B5EFF3058010B16FF00500C9
:1058C00010BD08480168012902D04FF0FF3010BD1B
:1058D000054A002182F8141D0221016000F0AEFF8C
:1058E000002010BDAC0200200BE000E02DE9FF41DC
:1058F0000B464FF00005EFF30581039549BB40B31C
:105900008027182100244AB3166806B134469669E8
:105910001EB13146761E382E02D21679F60703D014
:10592000002004B0BDE8F081566906B1B708D2F88E
:1059300008C0BCF1000F0DD0D5685C2D18D31269DA
:105940003AB136B18DE806103A46214601F00FFB18
:1059500003900DE0D6685EB912694AB903AACDE991
:105960000012BAB2214601F0D5FA012800D0039501
:105970000398D6E72DE9F041134C0F460546E6683B
:105980002068001D00F0BEFD681C07D137B12168FA
:10599000BDE8F0410D48091D00F004BE2068354403
:1059A000B5424560216805D2A06BBDE8F041091DF4
:1059B00000F0E0BD606B091D00F0DCFDA06A8542CF
:1059C00000D2A562BDE8F0815C020020282E0020F4
:1059D0002DE9F041054600F0F1FD2D4CA068401C7A
:1059E000A06020682B4F10B1606930B32BE02560B8
:1059F000A068012827D1002606EB860007EB80006F
:105A000000F0AAFD761C382EF6D3234800F0A4FD42
:105A10002148143000F0A0FD1F48283000F09CFD04
:105A20001D483C3000F098FD1B48503000F094FDBC
:105A3000194860631430A06305E02068E96AC06A11
:105A4000884200D82560606A401C60626864E86A29
:105A50002169884200D9206100EB800007EB8000BB
:105A6000291D00F09FFD00F0C9FD606900280CD0E1
:105A70002068E96AC06A884207D208494FF080501E
:105A80000860BFF34F8FBFF36F8FBDE8F081000058
:105A90005C02002078290020D82D002004ED00E0D1
:105AA00038B500F08BFD104C2068C8B90F4800F0E5
:105AB00053FD0E48143000F04FFD0C48E0601430E8
:105AC00020610A4B0020F03B009003F150021021AE
:105AD0000A2000F0C1FF206010B105A100F010FE07
