:020000040800F2
:1000000010C900206503000815790008616F000819
:10001000117900087D17000889D000080000000051
:100020000000000000000000000000002186000821
:10003000F51A000800000000217D0008B5910008B5
:100040007F0300087F0300087F0300087F03000888
:100050007F0300087F0300087F0300087F03000878
:100060007F030008F91A00087F0300087F030008D7
:100070007F0300087F0300087F0300087F03000858
:100080007F0300087F0300087F030008A117000812
:1000900081170008911700087F030008051B00085E
:1000A0007F0300087F0300087F0300087F03000828
:1000B0007F030008C5920008D59200087F0300085E
:1000C0007F0300087F0300087F0300087F03000808
:1000D0007F0300087F0300087F0300087F030008F8
:1000E0007F0300087F0300087F0300087F030008E8
:1000F0007F030008059300087F0300087F030008C2
:100100007F0300087F0300087F0300087F030008C7
:100110007F0300087F030008E5920008F5920008BD
:100120007F0300087F0300087F0300087F030008A7
:100130007F0300087F0300087F0300087F03000897
:100140007F0300087F0300087F030008857900080B
:100150007F0300087F0300087F0300087F03000877
:100160007F0300087F0300087F0300087F03000867
:100170007F0300087F0300087F03000800000000E1
:100180007F0300087F0300087F0300087F03000847
:100190007F0300087F0300087F0300087F03000837
:1001A00000000000000000007F03000800F002F8DB
:1001B00000F0C8F814A696E8000CB244B344DA453F
:1001C00001D100F0BFF8BAE80F000FA696E83000A2
:1001D000A5EB040504EB0607AAEB0704A7F101074A
:1001E0004FEA15154FEA3414A4F10104AC4201D3CF
:1001F00000F0A8F813F0010F18BFFB1A43F0010339
:1002000000F001F8DBE71847103101003031010040
:100210000A444FF0000C10F8013B13F0070408BF2C
:1002200010F8014B1D1108BF10F8015B641E05D0CA
:1002300010F8016B641E01F8016BF9D113F0080F7F
:100240001EBF10F8014BAD1C0C1B09D16D1E58BF11
:1002500001F801CBFAD505E014F8016B01F8016B48
:100260006D1EF9D59142D6D370470000704700004B
:100270000023002400250026103A28BF78C1FBD8AF
:10028000520728BF30C148BF0B6070476E2900F08D
:10029000A582702900F0DB83662912F0A386652908
:1002A00012F0A086672912F09D86612912F09C86C3
:1002B00003681B0A28BF41F08001692900F05282BF
:1002C000642900F04F82752900F04C826F2900F0FC
:1002D0006983782900F0A783E92900F00383E429E2
:1002E00000F00083F52900F0FD82EF2900F066831D
:1002F000F82900F0A6830368DB0928BF41F08001DC
:10030000632901F0BF80732901F0C480E32901F063
:10031000CF80F32901F0D480002070471FB512F080
:1003200054FE01F02BF904000020002112F0C0FD62
:10033000401C60600020002112F0A4FDE0601FBDA1
:1003400010B510BD01F0ECF81146FFF7E7FF0EF015
:1003500011F901F0C9F903B4FFF7F2FF03BC0CF087
:1003600029FF00000948804709480047FEE7FEE7EB
:10037000FEE7FEE7FEE7FEE7FEE7FEE7FEE7FEE755
:1003800004480549054A064B70470000B192000831
:10039000AD01000810BD002010C9002010C10020D0
:1003A00010C10020704753EA020C00F069802DE96B
:1003B000F04B4FF00006002B1FBFB3FA83F503FA92
:1003C00005F424FA05F65E4012BF1643B2FA82F530
:1003D00002FA05F4C5F120051EBF22FA05FC44EA25
:1003E0000C04203556EA044C4FEA144418BF641C30
:1003F0004FF000084FF00009904271EB030C39D325
:10040000002919BFB1FA81F701FA07F6B0FA80F7AF
:1004100000FA07F6C7F120071EBF20FA07FC46EADC
:100420000C062037B6FBF4FCA7EB0507103F07F0DE
:100430001F0BCBF120062CFA06F60CFA0BFB44BF7F
:10044000B3460026202FA4BF5E464FF0000B5BEAA8
:10045000060C08BF4FF0010B19EB0B0948EB06081F
:10046000ABFB027C06FB02CC0BFB03CCC01B71EB8D
:100470000C01C1E70B46024641464846BDE8F08BF9
:1004800013B5084318BF4FF0FF300146AFF30080AB
:10049000BDE81C40704700000FB4044910B503AA22
:1004A000029800F0AFF910BC5DF814FBE0160020D4
:1004B00040EA010310B59B070FD1042A0DD310C8E1
:1004C00008C9121F9C42F8D020BA19BA884201D933
:1004D000012010BD4FF0FF3010BD1AB1D30703D07B
:1004E000521C07E0002010BD10F8013B11F8014B31
:1004F0001B1B07D110F8013B11F8014B1B1B01D14D
:10050000921EF1D1184610BD032A40F2308010F03F
:10051000030C00F0158011F8013BBCF1020F62449E
:1005200098BF11F801CB00F8013B38BF11F8013B2F
:10053000A2F1040298BF00F801CB38BF00F8013BDC
:1005400011F0030300F02580083AC0F0088051F84C
:10055000043B083A51F804CBA0E80810F5E7121D57
:100560005CBF51F8043B40F8043BAFF30080D20776
:1005700024BF11F8013B11F801CB48BF11F8012B42
:1005800024BF00F8013B00F801CB48BF00F8012B65
:10059000704710B5203AC0F00B80B1E81850A0E8C1
:1005A0001850B1E81850A0E81850203ABFF4F5AF41
:1005B0005FEA027C24BFB1E81850A0E8185044BF9D
:1005C00018C918C0BDE810405FEA827C24BF51F80A
:1005D000043B40F8043B08BF7047D20728BF31F8FE
:1005E000023B48BF11F8012B28BF20F8023B48BF4F
:1005F00000F8012B704702F0FF0343EA032242EAAE
:10060000024200F024B84FF000020429C0F012802A
:1006100010F0030C00F01B80CCF1040CBCF1020FB5
:1006200018BF00F8012BA8BF20F8022BA1EB0C018A
:1006300000F00DB85FEAC17C24BF00F8012B00F880
:10064000012B48BF00F8012B70474FF0000200B5A6
:10065000134694469646203922BFA0E80C50A0E8E5
:100660000C50B1F12001BFF4F7AF090728BFA0E893
:100670000C5048BF0CC05DF804EB890028BF40F85F
:10068000042B08BF704748BF20F8022B11F0804FA1
:1006900018BF00F8012B70477047704770477047CC
:1006A00070B5044685690068C10601D5302600E0B2
:1006B0002026C00707D070BDD4E9012130469047FD
:1006C000206A401C20626D1EF6D570BD70B50446D0
:1006D00085690078C00707D170BDD4E901212020C9
:1006E0009047206A401C20626D1EF6D570BD0968D7
:1006F0004A0501D540B27047C905FCD500B2704724
:1007000009684A0501D5C0B27047C905FCD580B259
:10071000704770B50C460546012A05D0287880063A
:1007200000D5EA69002302E0012305E05B1C934247
:1007300002D2E05C0028F9D1A869E618C01AA861C5
:10074000286A184428622846FFF7AAFF04E0D5E982
:10075000012114F8010B9047B442F8D32846FFF763
:10076000B5FF70BD2DE9F0410646002410687529DB
:10077000314616A510D0FFF7BAFF002802DA404232
:1007800013A507E031688A0701D512A502E04907E1
:1007900004D511A5012401E0FFF7B2FF00210A22D0
:1007A00006F1240709E0B0FBF2FCB0FBF2F302FB18
:1007B0001C00303078541846491C0028F3D12346D9
:1007C0002A463046BDE8F04100F055BA000000006E
:1007D0002D0000002B0000002000000011680268BE
:1007E000006A530501D508700AE0D30501D50880D9
:1007F00006E0130603D5C217C1E9000200E0086055
:1008000001207047074B70B50D467B4400F01DFE7C
:100810000446284600F058FE10B14FF0FF3070BD7E
:10082000204670BD17DD00002DE9FF5F15468A46A2
:100830000446DFF8AC80F8440027D8E900103E46B3
:10084000CDE9001010E03AF816106A4602A800F050
:100850003FFE411C07D02178890603D5E26939188B
:1008600091420DD80744761C2078800602D5E069B5
:10087000B84205DDAE42E6DB3AF816000028E2D1C8
:10088000A069C01BA0612046FFF70AFFD8E900104D
:10089000CDE90010002017E03AF818106A4602A8C7
:1008A00000F016FEB0F1FF3F81460BD000250DF1A0
:1008B000080B05E0D4E901211BF8050090476D1CE9
:1008C0004D45F7D308F10100B0428046E4DB206AD1
:1008D000384420622046FFF7F9FEBDE8FF9F000084
:1008E000B22701002DE9F0418046D21D22F0070217
:1008F0000025D2E90002F52915A614D0011E72F1D7
:10090000000106DA0023D0EB030063EB020211A61C
:1009100008E0D8F800108B0701D50FA602E04907C0
:1009200001D50EA601251146002408F1240704E094
:1009300000F05CF930323A55641C50EA0102F7D1FC
:100940002B46324621464046BDE8F04100F093B9BF
:10095000000000002D0000002B000000200000001F
:1009600030B4002100F1240408E002F00705D208A9
:10097000303542EA4372DB086554491C52EA0305EC
:10098000F3D10468002310A2250708D504F0200441
:100990000C4304D0C46901230CA2641EC46130BCA2
:1009A00000F069B910B5044621461068FFF7A8FEAB
:1009B00002462046BDE810400023D1E7D21D22F0B8
:1009C0000701D1E90023CBE7000000003000000060
:1009D000F0B40D460188090502D5214C7C4402E0A3
:1009E0001F4C7C440E34002100F1240608E002F084
:1009F0000F071209E75D42EA03721B097754491C8D
:100A000052EA0307F3D102780023120704D5702DB0
:100A100006D009B1022311342246F0BC00F02BB9F4
:100A200001231034F8E770B504460D4621461068DE
:100A3000FFF766FE024629462046BDE870400023C7
:100A4000C6E7D21D22F00703D3E90023C0E70368FD
:100A5000126843F0200303600823C3610023B7E753
:100A6000142601002DE9F05F894604464FF0000A84
:100A7000DFF874B1FB44C0F820A02046E168884745
:100A8000002874D0252806D0D4E901219047206A97
:100A9000401C2062F1E700265F462046E168884757
:100AA0002028054607DB312D05D2781910F8200CD7
:100AB00008B10643F1E7B00701D526F00406C4F8F3
:100AC0001CA00027C4F818A02A2D09D0284612F02F
:100AD000D1F938B304EB8708303DC8F8185019E055
:100AE00059F8041B204604EB87029161E1688847AE
:100AF000012F054618D1E069002820DA26F02006EB
:100B00001DE0D8F8180000EB800005EB40003038FD
:100B1000C8F818002046E1688847054612F0AAF98F
:100B20000028EED1012F0AD02E2D08D12046E168F1
:100B300088477F1C0546022F46F02006C4DBA069CB
:100B4000002803DA404246F00106A061F00701D018
:100B500026F010066C2D0BD0682D09D04C2D39D005
:100B60006A2D35D0742D35D07A2D33D016E038E08B
:100B7000E1682F4620468847B842054609D16C2FC8
:100B800026D04FF48060E16806432046884705463A
:100B900004E06C2F1AD04FF4807006430DB3A5F11A
:100BA0004100192802D8203546F400664A462946F5
:100BB000204626604E46FFF769FB80B101280BD026
:100BC000F61D26F0070000F1080956E74020E4E78B
:100BD0008020D8E70020D6E706F104094DE7284633
:100BE00052E7206ABDE8F09FA425010030B5B0F1BE
:100BF0000A0271F100034FEA900E4EEA817EB0EBDB
:100C00000E0061EB91014FEA101E4EEA017E10EBDF
:100C10000E0041EB11114FEA102E4EEA016E10EB5F
:100C20000E0041EB11214FEA104E4EEA014E10EB3F
:100C30000E0041EB1141401841F100014FEAD00094
:100C400040EA41704FEAD1014FEA810444EA9074CE
:100C500010EB800544EB01046D1944EB0404521BB6
:100C6000A3414FF0000348BF0A3200D530BD401CFD
:100C700041F1000130BD2DE9F0470D4699469246FD
:100C8000044600F124080168880604D5E06921F0D3
:100C90001001216000E00120A84201DD471B00E0B7
:100CA0000027A1697A1902EB0900081AA0612078CF
:100CB000C00602D42046FFF7F3FC002608E0D4E982
:100CC00001211AF806009047206A401C761C206219
:100CD0004E45F4DB2078C0060AD52046FFF7E0FC3D
:100CE00006E0D4E9012130209047206A401C2062B0
:100CF000381EA7F10107F4DC07E0D4E9012118F858
:100D000005009047206A401C2062281EA5F10105BD
:100D1000F3DC2046FFF7DAFC2078000602D502203B
:100D2000BDE8F0870120FBE72DE9FF4F0C461E468A
:100D30004FF0FF378BB0D2E90001DDF860800A90F8
:100D40008A46C1F30A5505B93D46002108464FF0D1
:100D50000000BAF1000F00F4400005DA00EB80005B
:100D60004FF4400101EA50004FEA9059B9F1010FE8
:100D700000DDB9460A9850EA4A000ED044F61050F9
:100D8000A5F2FF3545432F14B8F1000F1ED0754270
:100D9000291E1EDDC9F100021CE0B8F1010F4FF061
:100DA000000001D0302103E0F24305E02154401C53
:100DB000B042FBDB30460022002121540B99C1F8E0
:100DC0000880C1E900200FB0BDE8F08FBD1B6D1C8D
:100DD000DEE74A4600DA694206A800F013FC06ABDB
:100DE00093E8070003AB83E8070050460A9911F027
:100DF00060FC8DE80700A0F500501F3800900398B4
:100E0000002D0ADD42F21F014A460844002303A9CF
:100E10000390684611F0CAFE09E0A0F500504A466A
:100E20001F38002303A90390684611F0D4FE8DE813
:100E300007000004000C03D04FF0FF30410800E031
:100E40001046B8F1000F03D00022009215461EE0B4
:100E5000751E05D4FFF7CAFE303262556D1EF9D5F6
:100E6000B3460122084302D000227F1C04E0207810
:100E7000302801D100227F1E002A099784D01DE06E
:100E8000112D07DAFFF7B2FE303262556D1C50EAC1
:100E90000102F5D1084302D00098C8B10EE000214C
:100EA000681E05E0235C625C63542254401E491CAA
:100EB0008142F7DBAB46A81B401E0990002004F8D6
:100EC0000B000B98099AC0F80880C0E9002B7AE75C
:100ED00011264FF0000857E72DE9F04F88460446E9
:100EE000D21D22F0070191B0D1E90001CDE90A013C
:100EF00011F0A8FF02460B98C00F01D02D2007E08B
:100F00002068810701D52B2002E0202101EAC000E2
:100F1000032A099001D0072A05DB034641462046F3
:100F200000F030FB0BE12078800601D5E06900E09D
:100F30000620B8F1650F814606D0B8F1660F18D0CB
:100F4000B8F1670F70D131E00020B9F1110F0090B6
:100F500001DB112301E009F101030AAA01A90CA890
:100F6000FFF7E2FEDDE90C70002609F1010583467A
:100F700047E001204B4600904FF000470AAA01A924
:100F80000CA8FFF7D1FEDDE90DB00C995D460026F7
:100F900010B909F101000D18B9EB050003D4C0F137
:100FA000FF3609F10105A5EB09002BE0B9F1010FAE
:100FB00001DA4FF001090020B9F1110F0090484605
:100FC00001DD112300E003460AAA01A90CA8FFF7DE
:100FD000ABFEDDE90C704D46002683462078000705
:100FE0000AD4AB4500DA5D4601A8012D04DD4119A4
:100FF00011F8011C302907D04F4502DA17F1040F10
:1010000004DA012082460FE06D1EEEE7002F02DCBD
:10101000ED1B3E4403E0781CA84200DD7D1CB81B9C
:1010200000F1010A4FF000472078000703D4AA45D9
:1010300001DB4FF0FF3A0021B7F1004F0DF14308FB
:101040008DF8431024D002202B23002F01DA7F4299
:101050002D230A21021EA0F1010000DC5FB197FBE5
:10106000F1FC97FBF1F201FB1C7C17460CF1300CF4
:1010700008F801CDEEE7A8F1010003702188090509
:1010800001D5452100E06521A0F1010800F8011C0F
:1010900009980FA9A1EB0807FF1D00B10120411914
:1010A00001EBEA70A1693844081A401EA06120785B
:1010B000C00602D42046FFF7F3FA099828B1D4E914
:1010C00001219047206A401C20622078C00622D56A
:1010D0002046FFF7E5FA1EE0002E04DBB34502DDF3
:1010E00001A8805D00E03020D4E901219047206A0A
:1010F000401C2062761CAAF101005FEA000A0AD1B6
:1011000000F03CFAC0680168405CD4E901219047D6
:10111000206A401C2062281EA5F10105DCDC07E0E6
:10112000D4E9012118F8010B9047206A401C206285
:10113000381EA7F10107F3DC2046FFF7C7FA0320AA
:1011400011B041E62DE9F04F04460D46D21D22F0C4
:10115000070089B0D0E900974846394611F072FE81
:101160000246F80F01D02D2307E02068810701D542
:101170002B2302E0202101EAC0038DF820300BB1BF
:10118000012000E00020032A824601D0072A04DB68
:101190002946204600F0F6F93FE12078800601D488
:1011A0000D2500E0E569C7F30A560D2D49DA002147
:1011B0004FEA175B08464FF00000002F00F4400094
:1011C00007DA00EB80004FF4400100EBD07001EA39
:1011D00060008115012901DD4FF0FF3100224FEA47
:1011E000850CBCF1180F06D31346ACF118004FF074
:1011F0008052C24003E04FF4801323FA0CF30CF149
:101200000C0CBCF1200F04D3ACF1200C09FA0CF04B
:1012100001E007FA0CF000294FF0004801DD18B991
:101220000FE00ED140450CD319EB02095F4121B903
:10123000404502D19F4329EA0209BBEB175F00D06A
:10124000761C2088000502D57B48784402E07A4865
:101250007844193808AA302302F80A30037C0AF1CE
:101260000101002E0AF1020A53546A4602DC4FF0D3
:10127000300101E04FF031014FF001088DF800100E
:1012800002D0A6F2FF3603E059EA470100D06B4EC8
:10129000002D02DC2178090704D54FF002082E2129
:1012A0008DF80110C44600210BE0C7F303433F0152
:1012B000C35C491C6D1E02F80830052908F10108BD
:1012C00001DA002DF1DC00210CE000EB1973491C60
:1012D0001B786D1E082902F808304FEA091908F139
:1012E000010801DA002DF0DC21688B0602D516E03A
:1012F000A8F10108E04505DD02EB080313F8013C05
:10130000302BF5D0B8F1000F09DD02EB080313F81C
:10131000013C2E2B03D1090701D4A8F10108002DAF
:1013200005DD3E2102F808106D1E08F10108407C21
:10133000002E02F8080008F1010804DA2D20764298
:1013400002F8080002E02B2002F808000A214FF4FE
:101350007A70864208F101080BDB96FBF0F330331C
:1013600002F8083096FBF0F308F1010800FB136661
:1013700001E0642E0CDB642096FBF0F3303302F8BE
:10138000083096FBF0F308F1010800FB136601E05A
:101390000A2E06DB96FBF1F0303002F8080008F167
:1013A000010896FBF1F001FB1060303002F80800F4
:1013B000A16908F1010808EB050202EB0A00081A0E
:1013C000A0612078C00602D42046FFF769F9216A9F
:1013D00008AE01EB0A00206204E0D4E9012116F80E
:1013E000010B9047BAF1010AF7D22078C00602D566
:1013F0002046FFF755F96E4609E016F8010B3E2826
:101400000FD0D4E901219047206A401C2062B8F136
:101410000108F2D22046FFF759F909B00320BDE8D0
:10142000F08F206A2844206203E0D4E901213020B3
:1014300090476D1EEBD3F8E7F21D010002FCFFFFA1
:1014400001694A1C02610878704700B58FB0CDE988
:1014500001310021059105497944CDE90310114678
:101460006846FFF7FFFA0FB000BD0000E5FFFFFF81
:1014700010B5436913B1AFF3008001E0FFF749F9FC
:10148000012010BD127800F124010A7000224A7078
:101490000122EDE711684FF0FF32E9E710B543692B
:1014A00013B1AFF3008001E0FFF7BEF9012010BDDA
:1014B000128800F1240182840022C2840122EDE717
:1014C00011684FF0FF32E9E7007B00F080007047C1
:1014D0002DE9F04116460C46054600F047F8036832
:1014E00093F80101012807D0FF2C12D8185D80B1B4
:1014F00001202C70BDE8F081D3F807013246214667
:1015000003F20713C7182846BC46BDE8F041002384
:1015100060474FF0FF30EDE700487047B80100200A
:101520007546FFF7F9FFAE4605006946534620F0C1
:101530000700854618B020B5FEF722FFBDE8204021
:101540004FF000064FF000074FF000084FF0000B7F
:10155000AC46ACE8C009ACE8C009ACE8C009ACE8EE
:10156000C00921F007018D467047000010B500F05A
:1015700005F8001D10BD00BF391901000048704773
:10158000D80100202DE9F0411F46044603260168DA
:10159000072A01F4006004DB08B116A505E016A5D2
:1015A00003E008B115A500E015A521F010002060AA
:1015B000A069C01EA0610FB1401EA0612046FFF7C8
:1015C0006FF84FB1D4E9012138469047206A401C9A
:1015D0002062C01C206206E0206AFAE7D4E90121FB
:1015E00015F8010B9047761EF8D22046FFF76EF8EB
:1015F000BDE8F0814E414E006E616E00494E4600DE
:10160000696E66002DE9F047814616468AB0354876
:1016100078440DC88DE80D0032487844801C03AC36
:101620000DC884E80D0041F69B300844372190FB3B
:10163000F1F290FBF1F5A5F1800501FB12041B3CD2
:1016400002D56442012000E00020DFF898A0804627
:101650000027FA44AAF1BE0A0EE0E0070AD032469B
:10166000684607EB470101230AEB810111F0B3FA49
:101670008DE8070064107F1C002CEED1194F7F44C9
:10168000AE3F19E0E80715D007EB04100DF1180A7A
:1016900090E80E008AE80E00C068F04201D1981967
:1016A00008903246012306A903A811F094FA03AB6F
:1016B00083E807006D10641C002DE3D14FF0010397
:1016C00032466946B8F1000F03A802D011F06EFA55
:1016D00001E011F080FAC9E90001C9F808200AB058
:1016E000BDE8F087BC1A010010B50446AFF30080D6
:1016F0002046BDE81040FEF72EBE000000000000AE
:1017000030B44FF0013C50F8042B51F8043BCCFAB4
:1017100052F4D51A20D1FCB950F8042B51F8043BEF
:10172000CCFA52F4D51A17D1B4B950F8042B51F8A9
:10173000043BCCFA52F4D51A0ED16CB950F8042BF4
:1017400051F8043BCCFA52F4D51A05D1002CDAD06A
:1017500030BC4FF00000704729BAB1FA81F111F0A6
:101760001801D1F120008440F2D1CA40CB4012F0E0
:10177000FF0213F0FF0330BCD01A7047FFE7FEE70B
:1017800080B542F2C040C2F2000001F00BF880BD0B
:1017900080B542F2C040C2F2000001F003F880BD03
:1017A00080B542F2C040C2F2000000F0FBFF80BDF5
:1017B00080B58AB0FFE742F2C040C2F200000021CB
:1017C00000F084FE50B1FFE742F2C040C2F20000D8
:1017D000002103AA01AB00F0A3FEECE70AB080BD34
:1017E00080B542F2C040C2F20000022100F0C4FC09
:1017F00080BD000080B58CB00A9009918DF823203F
:10180000012001900A980290002003900590049016
:101810009DF8231006918DF81C0042F2C040C2F2E0
:10182000000000F087FF20B9FFE701208DF82F00AE
:1018300016E0099A42F2C040C2F2000002A901ABD0
:1018400000F0C4FC8DF803009DF8030020B1FFE711
:1018500001208DF82F0003E000208DF82F00FFE716
:101860009DF82F000CB080BD84B08DF80F00029160
:10187000ADF806209DF80F000146009123281DD8E1
:101880000099DFE801F012131415161B1B1B1B1B1C
:101890001B1B1B1B1B1B1B1B1B1B1B1B1B1B1B1B98
:1018A0001B1B1B1B1B1B1718191A08E007E006E07F
:1018B00005E004E003E002E001E000E0FFE70020D3
:1018C00004B070470020704780B582B042F2E41047
:1018D000C2F20000009040F6E061C2F20001002276
:1018E000019208F0BBFA009840F2E061C2F20001F8
:1018F00008F096FA019802B080BD000080B586B06D
:101900000590049100200390FFE70398049909686B
:10191000884231D2FFE741F65A50C2F200000088F7
:101920007F2810DCFFE705980399405C41F65A5385
:10193000C2F200031A88511C198041F6D941C2F243
:101940000001885413E041F65A51C2F20001002010
:10195000088041F6D940C2F200008021FEF753FE14
:1019600041F23671C2F2000101200880FFE7FFE773
:10197000039801300390C8E70020029041F6D4009C
:10198000C2F200000068012102AA0FF04FFA02988B
:1019900060B1FFE74EF60451CEF200014FF08050E7
:1019A0000860BFF34F8FBFF36F8FFFE7059942F2D7
:1019B000E410C2F20000019008F032FA019808F039
:1019C000D5F9002006B080BD83B0029001918DF85A
:1019D000032000208DF80200029840F6E061C2F278
:1019E0000001401A18BF01208DF801009DF8012068
:1019F00040F2A811C2F20001012088549DF90200B2
:101A000003B0704780B588B00690ADF8161000207E
:101A10008DF8150042F2E410C2F20000D0F8BC02CA
:101A200004904BF22851C2F20001086801300860AE
:101A300040F21C20C2F20000017840F2A810C2F26D
:101A40000000405CC00728B1FFE70498D0F81402FA
:101A500058B1FFE74BF22451C2F20001086801308F
:101A6000086001208DF81F003FE040F21C20C2F208
:101A700000000090017840F6E060C2F200000190A2
:101A800000EB81200699BDF81620FEF73DFD009978
:101A9000019891F800C040F2A813C2F2000300229E
:101AA00003F80C20097800EB8121BDF8162042F2E2
:101AB000E410C2F20000029008F0D0F9029808F099
:101AC000D7FA8DF80F009DF80F0048B9FFE740F2F4
:101AD0001C21C2F20001087880F001000870FFE7C5
:101AE0009DF80F008DF81F00FFE79DF81F0008B05C
:101AF00080BD00007047000080B5082001F0F6FBB3
:101B000080BD000080B5402001F0F0FB80BD0000EA
:101B100072B6FFE7FEE7000080B588B0079044F694
:101B2000206002900798052804D3FFE7079805383E
:101B3000019002E000200190FFE7019804900798CF
:101B40000430039003980299884204D3FFE7029877
:101B500001380390FFE703980499401A013005907B
:101B60004BF6FF30C2F20000007820B9FFE704987E
:101B70004000009006E0049949F6404000EB410027
:101B80000090FFE700980690FFE741F20040C4F2A2
:101B900002004FF48071002201F0D4FDFFE70699A6
:101BA000059A42F6B850C2F200000EF09BFAFFE729
:101BB00041F20040C4F202004FF48071012201F0B2
:101BC000C1FDFFE70699059A42F6A450C2F2000053
:101BD0000EF088FA059808B080BD000083B002902E
:101BE0008DF80710002000909DF8070018B9FFE756
:101BF0000020009017E09DF80700012804D1FFE7BE
:101C00004FF4807000900DE09DF80700022804D189
:101C1000FFE74FF40070009003E04FF44070009035
:101C2000FFE7FFE7FFE702980C2804D3FFE70298DD
:101C300004300290FFE743F61041C4F20201086845
:101C400020F440700860009A086810430860086833
:101C500020F0F8000860029A086840EAC20040F0EC
:101C600002000860086840F48030086003B07047E4
:101C700082B001908DF8031043F61041C4F20201C6
:101C8000086820F44070086008680860086840F040
:101C9000010008609DF803000199087002B07047C8
:101CA00084B003900193009243F61041C4F2020104
:101CB000086820F440700860086840F440700860CC
:101CC000086840F001000860009803990860BFF3BD
:101CD0006F8F01980399486004B0704782B00190FB
:101CE000ADF8021043F61041C4F20201086820F476
:101CF00040700860086840F480700860086840F030
:101D000001000860BDF802000199088002B0704728
:101D100082B00190009143F61041C4F202010868BC
:101D200020F440700860086840F40070086008689B
:101D300040F00100086000980199086002B0704707
:101D400043F60C40C4F202000068C00600280FD51C
:101D5000FFE740F20811C2F20001C86940F010002C
:101D6000C86143F60C41C4F2020110200860FFE78D
:101D700043F60C40C4F202000068800600280FD52C
:101D8000FFE740F20811C2F20001C86940F0080004
:101D9000C86143F60C41C4F2020120200860FFE74D
:101DA00043F60C40C4F202000068400600280FD53C
:101DB000FFE740F20811C2F20001C86940F00400D8
:101DC000C86143F60C41C4F2020140200860FFE7FD
:101DD00043F60C40C4F202000068000600280FD54C
:101DE000FFE740F20811C2F20001C86940F00200AA
:101DF000C86143F60C41C4F2020180200860FFE78D
:101E000043F60C40C4F202000068C005002810D55B
:101E1000FFE740F20811C2F20001C86940F001007A
:101E2000C86143F60C41C4F202014FF480700860AF
:101E3000FFE743F60C40C4F2020000688007002868
:101E40000FD5FFE740F20811C2F20001C86940F067
:101E50002000C86143F60C41C4F202010220086070
:101E6000FFE7704780B584B002900020019040F2F7
:101E70000811C2F20001C86101F07CFC0190FFE78B
:101E800043F60C40C4F202000068C003002815D5D8
:101E9000FFE70298013080B1FFE7029840B1FFE709
:101EA00001F068FC0199401A0299884204D9FFE7C1
:101EB00003208DF80F0023E0FFE7E1E743F60C4035
:101EC000C4F202000068C00738B1FFE743F60C41D6
:101ED000C4F2020101200860FFE743F60C40C4F29F
:101EE0000200006810F4F97F06D0FFE7FFF728FF33
:101EF00001208DF80F0003E000208DF80F00FFE7B0
:101F00009DF80F0004B080BD80B584B003900291AD
:101F1000019200930098B0F5804F1DD1FFE7039820
:101F2000019950F821000021CCF6F0710840029B85
:101F30001968D3F804E0D3F808C0DA6841EA0E1152
:101F400041EA0C219B69194341EA02410843039984
:101F5000019A41F8220006E00399019A6FF070405F
:101F600041F82200FFE7002004B080BD80B586B0B4
:101F70000590049105990498026851F8220020F018
:101F8000010041F8220004988068082803D1FFE787
:101F90004020039002E000200390FFE7039804999B
:101FA0000091D1F804E0D1F808C0CB680A6940EA92
:101FB0000E0040EA0C00184310434A691043CA69F6
:101FC00010430A6A10434A6A10438A6A1043CA6A75
:101FD0001043096B084302900498816902980843F2
:101FE00002900498416B0298084302900498C16BD8
:101FF0000298084302904FF67F30C0F2080001902B
:10200000019840F480600190019840F480100190A4
:10201000019840F4E020019005980499096850F86F
:10202000210001998843029908430599049A12688E
:1020300041F822000498406BB0F5801F0ED1FFE7F5
:102040000498006850B1FFE70598006820F48010FC
:102050000499496B084305990860FFE7002006B022
:1020600080BD000084B0039002910192029908683B
:10207000D1F804C08B68CA6840EA0C1040EA03201B
:1020800040EA02400B690022CFF6F07202EB0352E5
:1020900010434A69FE3240EA0260896908430399A5
:1020A000019A01EB8201486003980068C002002891
:1020B00018D5FFE70398406820F47000009002985C
:1020C00001690020CFF6F07000EB01510098084341
:1020D00000900398406820F4700000990843039929
:1020E0004860FFE7002004B07047000080B584B06E
:1020F000ADF80E0002910192ADF80230BDF80E105D
:10210000BDF8022000200DF083FEBDF80E10BDF8D2
:10211000022001200DF07CFE04B080BD80B584B0AB
:1021200047F61020C1F6FF700068039047F61420B0
:10213000C1F6FF700068029047F61820C1F6FF70E4
:10214000006801900199039808440390039888B1AE
:10215000FFE7039840F2EC01C2F200010091023166
:10216000082204F0FFFE009902981231042204F0C4
:10217000F9FEFFE704B080BD84B00290019102989F
:1021800090F820008DF803009DF80300012805D089
:10219000FFE79DF8030002280AD1FFE7019A0298A1
:1021A000016848691043486100208DF80F0008E07D
:1021B0000299486A40F48020486201208DF80F009F
:1021C000FFE79DF80F0004B07047000088B006904C
:1021D000059104920393069890F820008DF807006B
:1021E00006980068806800900598806808B9FFE745
:1021F00000E0FFE79DF80700012806D0FFE79DF803
:102200000700022840F08080FFE79DF803004007A8
:1022100000280CD4FFE79DF803000007002806D42F
:10222000FFE79DF80300C006002864D5FFE700988B
:10223000C0F3016002900299012088400399086070
:102240000598806868B9FFE705980168C06840EAAA
:10225000415006990968029A01EB0211C1F8800108
:102260000EE005994A688868C96840EAC2000843D8
:1022700006990968029A01EB0211C1F88001FFE793
:102280000598006906990968029A01EB0211C1F8E4
:1022900084010598007D01280CD1FFE706980068AD
:1022A000029900EB0111D1F8840140F48070C1F86B
:1022B0008401FFE70498406806990968029A01EBD7
:1022C0000211C1F88C010498006806990968029A05
:1022D00001EB0211C1F8880106980068029900EB31
:1022E0000111D1F8800140F00100C1F88001002007
:1022F0008DF81F0011E00699486A40F4001048620A
:1023000001208DF81F0008E00699486A40F48020FB
:10231000486201208DF81F00FFE79DF81F0008B0FC
:102320007047000086B004900391049890F8200054
:102330008DF803009DF80300012806D0FFE79DF803
:102340000300022840F0B080FFE746F20040C4F2EC
:10235000000001900199D1F8000240F00100C1F89D
:1023600000020199D1F8000220F47C50C1F800026B
:102370000398426A0199D1F8000240EA0220C1F8AC
:1023800000020398406900F01F010120884002907C
:10239000029A0199D1F81C029043C1F81C020398DB
:1023A000C069F0B9FFE7029A0199D1F80C02904395
:1023B000C1F80C02039A9088D168526940EA014042
:1023C000019901EBC201C1F84002039A108891689B
:1023D000526940EA0140019901EBC201C1F844028F
:1023E000FFE70398C06901281ED1FFE7029A01990F
:1023F000D1F80C021043C1F80C02039A90881168BE
:10240000526940EA0140019901EBC201C1F8400262
:10241000039A90899168526940EA0140019901EB61
:10242000C201C1F84402FFE70398806940B9FFE7A1
:10243000029A0199D1F804029043C1F8040207E01E
:10244000029A0199D1F804021043C1F80402FFE78F
:102450000398006940B9FFE7029A0199D1F8140284
:102460009043C1F8140207E0029A0199D1F81402CE
:102470001043C1F81402FFE70398006A012808D14D
:10248000FFE7029A0199D1F81C021043C1F81C021F
:10249000FFE70199D1F8000220F00100C1F8000225
:1024A00000208DF8170008E00499486A40F4802065
:1024B000486201208DF81700FFE79DF8170006B06D
:1024C0007047000081B0009001B0704784B0039065
:1024D000029100200190039890F820008DF80300ED
:1024E0009DF80300012805D0FFE79DF803000228AE
:1024F00012D1FFE7029838B9FFE703980068C06877
:1025000000F00300019006E003980068006900F005
:1025100003000190FFE7FFE7019804B07047000057
:1025200086B00490039102920193049890F82000E1
:102530008DF803009DF80300012806D0FFE79DF801
:102540000300022840F0E880FFE7039880B9FFE726
:1025500004980068C068800748B9FFE70499486A92
:1025600040F40010486201208DF81700DDE00FE014
:10257000049800680069800748B9FFE70499486A31
:1025800040F40010486201208DF81700CDE0FFE70D
:1025900004980068039900EB0110D0F8B00100F036
:1025A0000400029988600298806858B9FFE704988F
:1025B0000068039900EB0110D0F8B001400D0299BA
:1025C00008600AE004980068039900EB0110D0F855
:1025D000B001C00802994860FFE7049800680399B9
:1025E00000EB0110D0F8B00100F002000299C860C1
:1025F00004980068039900EB0110D0F8B40100F0D2
:102600000F00082804D3FFE70299082008610BE0B7
:1026100004980068039900EB0110D0F8B40100F0B1
:102620000F0002990861FFE704980068039900EB26
:102630000110D0F8B40180B2000A029988610498B0
:102640000068039900EB0110D0F8B401000C029966
:10265000486104980068039900EB0110D0F8B801B4
:102660000199087004980068039900EB0110D0F8F4
:10267000B801000A0199487004980068039900EBBA
:102680000110D0F8B801000C019988700498006816
:10269000039900EB0110D0F8B801000E0199C87041
:1026A00004980068039900EB0110D0F8BC0101996F
:1026B000087104980068039900EB0110D0F8BC0180
:1026C000000A0199487104980068039900EB011011
:1026D000D0F8BC01000C0199887104980068039936
:1026E00000EB0110D0F8BC01000E0199C8710398ED
:1026F00038B9FFE704980168C86840F02000C86056
:1027000006E004980168086940F020000861FFE7CE
:1027100000208DF8170008E00499486A40F48020F2
:10272000486201208DF81700FFE79DF8170006B0FA
:102730007047000083B0029000200190029890F84A
:1027400020008DF803009DF80300012805D0FFE765
:102750009DF80300022822D1FFE7029800688068F4
:102760004001002804D5FFE7019801300190FFE700
:102770000298006880680001002804D5FFE70198EE
:1027800001300190FFE7029800688068C0000028CF
:1027900004D5FFE7019801300190FFE7FFE70198BA
:1027A00003B0704780B58AB009900020089009985E
:1027B0000068406907900998006840680690099889
:1027C00000688068059009980068C06804900998BE
:1027D00000680069039009980068806902909DF87C
:1027E0001C00C007002800F09480FFE79DF814004B
:1027F000C00758B3FFE709980168012088609DF879
:1028000014008007002804D5FFE7099800F0B2FB08
:102810001BE09DF814004007002805D5FFE7089845
:1028200040F4006008900FE09DF8140000070028B5
:1028300005D5FFE7089840F48050089003E0099818
:1028400000F094FBFFE7FFE7FFE7FFE79DF81500C7
:10285000C00760B3FFE7099801684FF48070886093
:102860009DF815008007002804D5FFE7099800F0BF
:1028700089FB1BE09DF815004007002805D5FFE700
:10288000089840F4005008900FE09DF815000007EC
:10289000002805D5FFE7089840F48040089003E041
:1028A000099800F06BFBFFE7FFE7FFE7FFE79DF804
:1028B0001600C00760B3FFE7099801684FF4803045
:1028C00088609DF816008007002804D5FFE7099866
:1028D00000F060FB1BE09DF816004007002805D5BE
:1028E000FFE7089840F4004008900FE09DF81600BC
:1028F0000007002805D5FFE7089840F480300890CD
:1029000003E0099800F042FBFFE7FFE7FFE7FFE77E
:10291000FFE79DF81C000007002810D5FFE79DF891
:102920001000C006002809D5FFE7089840F40070A1
:102930000890099801681020C860FFE7FFE79DF83C
:102940001C00400700280FD5FFE79DF81000000786
:10295000002808D5FFE7099801680820C860099891
:1029600000F070FAFFE7FFE79DF81C0080070028E1
:102970000BD5FFE709980068C068800720B1FFE722
:10298000099800F063FAFFE7FFE79DF81C00400696
:10299000002810D5FFE79DF80C00C006002809D5D7
:1029A000FFE7089840F480600890099801681020BB
:1029B0000861FFE7FFE79DF81C00800600280FD59F
:1029C000FFE79DF80C000007002808D5FFE70998ED
:1029D000016808200861099800F076FAFFE7FFE730
:1029E0009DF81C00C00600280BD5FFE70998006879
:1029F0000069800720B1FFE7099800F069FAFFE756
:102A0000FFE79DF81E00800700280FD5FFE79DF81F
:102A10001800C006002808D5FFE7099801681020B3
:102A20004860099800F058FAFFE7FFE79DF81E009C
:102A3000C00778B1FFE79DF818000007002808D507
:102A4000FFE70998016808204860099800F0A6FA95
:102A5000FFE7FFE79DF81D000006002840F18D808C
:102A6000FFE79DF818004007002840F18180FFE74C
:102A70009DF81D00C00750B1FFE79DF80800C00792
:102A800028B1FFE7089840F001000890FFE79DF8A3
:102A90001D00800700280BD5FFE79DF80800800780
:102AA000002805D5FFE7089840F002000890FFE7EE
:102AB0009DF81D00400700280BD5FFE79DF8080092
:102AC0004007002805D5FFE7089840F0040008906B
:102AD000FFE79DF81D000007002848D5FFE79DF897
:102AE000080010F0700F42D0FFE7029800F070006D
:102AF00001460191102814D0FFE70198202815D035
:102B0000FFE70198302816D0FFE70198402817D03A
:102B1000FFE70198502818D0FFE70198602819D0E6
:102B20001DE0089840F00800089019E0089840F06F
:102B30001000089014E0089840F0200008900FE082
:102B4000089840F0400008900AE0089840F08000A3
:102B5000089005E0089840F48070089000E0FFE7D6
:102B600009980168886920F070008861FFE7FFE735
:102B70000998016804204860FFE7089848B1FFE71A
:102B8000089A0999486A104348620998FFF79AFC25
:102B9000FFE70AB080BD000080B584B002900298C3
:102BA00020B9FFE701208DF80F00E0E0029890F8CF
:102BB000200020B9FFE7029800F0DEF8FFE7029856
:102BC0000168086840F00100086000F0D3FD019042
:102BD000FFE7029800684068C007A8B9FFE700F067
:102BE000C9FD0199401A0B280DD3FFE70299486AE5
:102BF00040F4003048620299052081F8200001204D
:102C00008DF80F00B3E0E4E702980168086820F04F
:102C10000200086000F0AEFD0190FFE70298006836
:102C200040688007002815D5FFE700F0A3FD019953
:102C3000401A0B280DD3FFE70299486A40F4003090
:102C400048620299052081F8200001208DF80F00CC
:102C50008DE0E3E70298007E012807D1FFE70298A4
:102C60000168086840F08000086006E0029801688A
:102C7000086820F080000860FFE70298407E012885
:102C800007D1FFE702980168086840F0400008603B
:102C900006E002980168086820F040000860FFE73D
:102CA0000298807E012807D1FFE702980168086832
:102CB00040F02000086006E002980168086820F0F3
:102CC00020000860FFE70298C07E012807D1FFE7D7
:102CD00002980168086820F01000086006E0029879
:102CE0000168086840F010000860FFE70298007F64
:102CF000012807D1FFE702980168086840F0080042
:102D0000086006E002980168086820F00800086082
:102D1000FFE70298407F012807D1FFE7029801688A
:102D2000086840F00400086006E00298016808683E
:102D300020F004000860FFE7029B19685A68986851
:102D4000D3F80CC040EA0C00D3F810C040EA0C00E5
:102D50005B691843013A1043C86102990020486238
:102D6000029A012182F820108DF80F00FFE79DF8EC
:102D70000F0004B080BD000080B58EB00D90002023
:102D80000C900B900A90099008900D98006846F2FC
:102D90000041C4F20001884252D1FFE7FFE7002062
:102DA000079043F64000C4F20200016841F0007150
:102DB0000160006800F0007007900798FFE7FFE7E8
:102DC0000020069043F63000C4F20200016841F092
:102DD00002010160006800F0020006900698FFE71B
:102DE0004FF44070089002200990002004900A904F
:102DF00003200B9009200C9040F20040C4F2020026
:102E000008A900F08FFA049A13200190052103917C
:102E100000F08EFD019800F081FD0399049A1420C2
:102E2000029000F085FD029800F078FD0399049A65
:102E30001520059000F07CFD059800F06FFDFFE780
:102E40000EB080BD81B0009001B0704780B592B0E7
:102E500011901198006846F20041C4F200018842C6
:102E60002FD1FFE700210291079111980AAA08AB20
:102E70000093FFF755FB00990A9803900E988DF880
:102E8000180003A8019004300E9AFDF73DFB01994C
:102E9000029B41F23870C2F20000006807AA0EF0EF
:102EA000E3FB079860B1FFE74EF60451CEF2000154
:102EB0004FF080500860BFF34F8FBFF36F8FFFE775
:102EC000FFE712B080BD000081B0009001B07047F4
:102ED00081B0009001B0704781B0009001B07047A0
:102EE00080B584B00290029890F8200001282FD17C
:102EF000FFE70299022081F8200002980168086823
:102F000020F00100086000F035FC0190FFE7029816
:102F100000684068C007A8B1FFE700F02BFC0199EA
:102F2000401A0B280DD3FFE70299486A40F400309D
:102F300048620299052081F8200001208DF80F00D9
:102F40000FE0E4E70299002048628DF80F0008E0E6
:102F50000299486A40F40020486201208DF80F0071
:102F6000FFE79DF80F0004B080BD000081B0009025
:102F700001B0704781B0009001B0704781B00090FF
:102F800001B0704781B0009001B0704781B00090EF
:102F900001B0704781B0009001B0704781B00090DF
:102FA00001B0704780B584B0039000F0E3FB02905D
:102FB000039801900198013048B1FFE740F2AC104E
:102FC000C2F200000178019808440190FFE7FFE792
:102FD00000F0D0FB0299401A0199884201D2FFE724
:102FE000F6E704B080BD000043F61041C4F20201D0
:102FF000086840F0004008600020704780B588B045
:103000000690059103930292FFE740F20810C2F286
:103010000000007E012804D1FFE702208DF81F0088
:1030200051E040F20811C2F2000101200876FFE7EA
:10303000FFE74CF25030FEF715FF8DF807009DF8C2
:10304000070098BBFFE7069830B9FFE705989DF8A1
:103050000810FEF70DFE1AE00698012806D1FFE7DA
:103060000598BDF80810FEF739FE0FE00698022813
:1030700005D1FFE705980299FEF74AFE05E005989D
:10308000029A039BFEF70CFEFFE7FFE7FFE74CF217
:103090005030FEF7E7FE8DF8070043F61041C4F20A
:1030A0000201086820F001000860FFE7FFE740F236
:1030B0000811C2F2000100200876FFE79DF8070022
:1030C0008DF81F00FFE79DF81F0008B080BD0000CD
:1030D00081B000208DF8030043F61040C4F20200D6
:1030E0000068C00FD8B1FFE743F60441C4F2020103
:1030F00040F22310C4F26750086048F6AB10CCF6DB
:10310000EF50086043F61040C4F202000068C00FA0
:1031100020B1FFE701208DF80300FFE7FFE79DF8EE
:10312000030001B07047000080B58CB000200B9008
:103130000A9009900890079040F22020C2F2000007
:10314000006808B1FFE76DE040F22021C2F2000103
:1031500001200860FFE70020069043F63800C4F223
:103160000200016841F001010160006800F0010007
:1031700006900698FFE74FF23F000790022001906B
:103180000890002002900990032003900A900C20E0
:1031900004900B9041F20040C4F2020007A905918F
:1031A00000F0C0F8DDF804C0029B039A049805996A
:1031B0004FF03F0ECDF81CE0CDF820C009930A92E5
:1031C0000B9041F60000C4F2020000F0ABF8DDF80D
:1031D00004C0029B039A049805994FF6807ECDF8AF
:1031E0001CE0CDF820C009930A920B9041F2000038
:1031F000C4F2020000F096F8DDF804C0029B039AC6
:10320000049805994CF2B37ECDF81CE0CDF820C0AF
:1032100009930A920B9040F60040C4F2020000F0BD
:1032200081F8FFE70CB080BD80B584B0ADF80E002A
:10323000BDF80E000146019108282BD0FFE7019848
:10324000402850D1FFE741F6D801C2F20001012029
:1032500008700020029041F6D400C2F2000000681D
:10326000022102AA0DF0E2FD029860B1FFE74EF6DE
:103270000451CEF200014FF080500860BFF34F8F31
:10328000BFF36F8FFFE743F21551C2F20001002038
:10329000087029E0FFE741F20040C4F202008021FB
:1032A000002200F04FFAFFE742F63840C2F2000079
:1032B00002F0D8FF40F60040C4F20200082100F0FE
:1032C00029FA012807D1FFE74BF6FF31C2F20001CE
:1032D0000120087006E04BF6FF31C2F20001002029
:1032E0000870FFE700E0FFE704B080BD80B582B062
:1032F000ADF8060043F61440C4F201000068BDF8C2
:10330000061008420CD0FFE7BDF8060043F6144152
:10331000C4F201010860BDF80600FFF785FFFFE772
:1033200002B080BD90B00F900E9100200C900B90D9
:103330000A900D90FFE70D980F2800F2E881FFE753
:103340000D99012088400C900E9800680C99084057
:103350000B900B980C99884240F0D481FFE70E98AF
:10336000406800F00300012807D0FFE70E9840688E
:1033700000F0030002282FD1FFE70F9880680A9021
:103380000D984100032000FA01F10A9888430A9041
:103390000E98C0680D99490000FA01F10A98084397
:1033A0000A900A980F9988600F9840680A900D99C2
:1033B000012000FA01F10A9888430A900E984068AB
:1033C000C0F300100D9900FA01F10A9808430A9021
:1033D0000A980F994860FFE70E98406800F00300D4
:1033E000032818D0FFE70F98C0680A900D98410095
:1033F000032000FA01F10A9888430A900E98806829
:103400000D99490000FA01F10A9808430A900A98B8
:103410000F99C860FFE70E98406800F0030002288B
:1034200026D1FFE70F980D996FF0030202EA5101D0
:103430000844006A0A900D9800F0070081000F20F0
:1034400000FA01F10A9888430A900E9800690D99D4
:1034500001F00701890000FA01F10A9808430A9077
:103460000A980F990D9B02EA530211440862FFE784
:103470000F9800680A900D984100032000FA01F1AE
:103480000A9888430A900E98406800F003000D994E
:10349000490000FA01F10A9808430A900A980F9926
:1034A00008600E9880798007002800F02A81FFE7E5
:1034B000FFE70020099043F64400C4F202000168CF
:1034C00041F480410160006800F48040099009984F
:1034D000FFE70D9820F0030043F60801C4F2010154
:1034E00040580A900D9800F0030081000F2000FA68
:1034F00001F10A9888430A900F980021C4F2020152
:10350000884203D1FFE7002008907AE00F9840F24C
:103510000041C4F20201884203D1FFE70120079075
:103520006CE00F9840F60001C4F20201884203D11A
:10353000FFE7022006905EE00F9840F60041C4F2DB
:103540000201884203D1FFE70320059050E00F9865
:1035500041F20001C4F20201884203D1FFE70420D6
:10356000049042E00F9841F20041C4F20201884207
:1035700003D1FFE70520039034E00F9841F60001E6
:10358000C4F20201884203D1FFE70620029026E040
:103590000F9841F60041C4F20201884203D1FFE7CF
:1035A0000720019018E00F9842F20001C4F20201D6
:1035B000884203D1FFE7082000900AE00F9942F209
:1035C0000042C4F202020A20914208BF0920009082
:1035D000FFE700980190FFE701980290FFE702984B
:1035E0000390FFE703980490FFE704980590FFE736
:1035F00005980690FFE706980790FFE70798089060
:10360000FFE70898C0B20D9901F00301890000FAA4
:1036100001F10A9808430A900A980D9921F00301D4
:1036200043F60802C4F20102885043F60840C4F28F
:10363000010000680A900B990A9888430A900E9836
:103640008079C006002805D5FFE70B990A98084342
:103650000A90FFE70A9843F60841C4F201010860A6
:1036600043F60C40C4F2010000680A900B990A98D6
:1036700088430A900E9880798006002805D5FFE7D8
:103680000B990A9808430A90FFE70A9843F60C4101
:10369000C4F20101086043F60440C4F2010000686E
:1036A0000A900B990A9888430A900E9880798007AF
:1036B000002805D5FFE70B990A9808430A90FFE711
:1036C0000A9843F60441C4F20101086043F6004041
:1036D000C4F2010000680A900B990A9888430A9086
:1036E0000E988079C00728B1FFE70B990A98084324
:1036F0000A90FFE70A9843F60041C4F2010108600E
:10370000FFE7FFE7FFE70D9801300D9013E610B0DB
:103710007047000082B00190ADF802100198006976
:10372000BDF80210084204D0FFE701208DF8010027
:1037300003E000208DF80100FFE79DF8010002B0D2
:103740007047000082B00190ADF802108DF80120A2
:103750009DF8010028B1FFE7BDF8020001998861DA
:1037600005E0BDF80200000401998861FFE702B09E
:10377000704700004BF22C50C2F200000068704706
:1037800040F2AC10C2F2000002784BF22C51C2F2AF
:1037900000010868104408607047000080B543F6D7
:1037A0000041C4F20201086840F400700860086833
:1037B00040F480600860086840F48070086003206E
:1037C00000F0D0F80F2000F005F800F07BF80020A2
:1037D00080BD000080B58CB00B9000200490039059
:1037E000FFE70020009043F64000C4F202000168A9
:1037F00041F480710160006800F4807000900098CE
:10380000FFE706A802A901F069FB09980490049853
:1038100020B9FFE701F092FB059004E001F08EFB78
:1038200040000590FFE705984DF68361C4F21B3117
:10383000A0FB01014FF0FF3000EB9140039042F6F6
:10384000D020C2F2000042F20001C4F20001016087
:1038500040F2E731C160039941600021016181605C
:10386000816102F087FB8DF807009DF8070028BBF7
:10387000FFE742F6D020C2F2000002F0F3FC8DF820
:1038800007009DF80700C0B9FFE72D2000F046F8BB
:103890000B980F280CD8FFE70B992D20002200F081
:1038A00047F80B9840F2B011C2F20001086003E043
:1038B00001208DF80700FFE7FFE7FFE79DF807000D
:1038C0000CB080BD80B582B0FFE70020019043F6C8
:1038D0004400C4F20200016841F4804101600068C4
:1038E00000F4804001900198FFE7FFE7002000907E
:1038F00043F64000C4F20200016841F080510160CB
:10390000006800F0805000900098FFE76FF0010021
:103910000F21002200F00CF802B080BD80B582B00B
:103920008DF807009DF9070009F0C2FB02B080BDC9
:1039300080B586B08DF817000491039200200290A4
:1039400009F0CEFB02909DF91700019002980499AE
:10395000039A03F0E1FF0146019809F0C9FB06B0A4
:1039600080BD000080B582B00190019809F004FC90
:1039700002B080BD82B001908DF8031002B0704794
:1039800082B00190ADF80210BDF8020001990968FB
:103990004862002002B0704784B003908DF80B108D
:1039A000ADF8082003980068406A00909DF80B006D
:1039B00048B9FFE7BDF80810009840EA01400399B4
:1039C0000968886233E003980068816A009800EB18
:1039D0001140009000208DF80700FFE79DF80700D8
:1039E0009DF80B100139884213D2FFE70398006855
:1039F0009DF8071000EB8100D0F80411009800EB4F
:103A000011400090FFE79DF8070001308DF8070096
:103A1000E4E7BDF80810009840EA014003990968FE
:103A20009DF80B2001EB8201C1F80001FFE70020A7
:103A300004B0704780B582B001900198D0F8E004DE
:103A400007F0CAF902B080BD80B582B001908DF850
:103A50000310019AD2F8E0049DF8031001EBC103B2
:103A600002EB8302126A07F00BF802B080BD00007F
:103A700080B582B001908DF80310019AD2F8E0046D
:103A80009DF8031001EBC10302EB8302D2F8602220
:103A900007F0C4F802B080BD80B582B001900198F3
:103AA000D0F8E00407F09EF902B080BD80B584B084
:103AB00003908DF80B109DF80B00000600280CD524
:103AC000FFE703989DF80B1001F00F0101EBC10116
:103AD00000EB8100143001900CE003989DF80B106E
:103AE00001F00F0101EBC10100EB810000F5157041
:103AF0000190FFE703980068019908F0FDFE8DF83A
:103B00000A009DF80A0004B080BD000080B584B0B2
:103B100002908DF807109DF80700000600280FD5C9
:103B2000FFE702989DF8071001F00F0101EBC101BA
:103B300000EB8100143000900099012048700FE0E4
:103B400002989DF8071001F00F0101EBC10100EB95
:103B5000810000F515700090009900204870FFE783
:103B60009DF8070000F00F0000990870FFE7029829
:103B700090F89404012804D1FFE702208DF80F008B
:103B800014E00299012081F89404FFE7FFE702980E
:103B90000068009908F0A0F9FFE70299002081F879
:103BA0009404FFE700208DF80F00FFE79DF80F0059
:103BB00004B080BD80B584B002908DF807109DF8E8
:103BC000070000F00F0002990979884204D9FFE745
:103BD00001208DF80F004DE09DF807000006002839
:103BE0000FD5FFE702989DF8071001F00F0101EBD8
:103BF000C10100EB81001430009000990120487051
:103C00000FE002989DF8071001F00F0101EBC101D0
:103C100000EB810000F515700090009900204870BD
:103C2000FFE70099002088709DF8070000F00F0062
:103C300000990870FFE7029890F89404012804D1D5
:103C4000FFE702208DF80F0014E00299012081F8AF
:103C50009404FFE7FFE702980068009908F0ACFBC6
:103C6000FFE70299002081F89404FFE700208DF817
:103C70000F00FFE79DF80F0004B080BD82B00190F7
:103C80008DF8031001989DF8031001F00F0101EB6E
:103C9000C10100EB8100D0F8680202B0704700005B
:103CA00080B586B004908DF80F10ADF80C208DF81B
:103CB0000B3000208DF80A009DF80F000006002848
:103CC0000FD5FFE704989DF80F1001F00F0101EBED
:103CD000C10100EB8100143001900199012048706E
:103CE0000FE004989DF80F1001F00F0101EBC101E6
:103CF00000EB810000F515700190019900204870DB
:103D0000FFE79DF80F0000F00F0001990870BDF863
:103D10000C006FF3DF20019988609DF80B0001997A
:103D200008710198407820B1FFE70199087848832D
:103D3000FFE79DF80B00022804D1FFE7019900205E
:103D40004871FFE7FFE7049890F89404012804D134
:103D5000FFE702208DF8170015E00499012081F893
:103D60009404FFE7FFE704980068019907F07EFFDD
:103D7000FFE70499002081F89404FFE79DF80A000A
:103D80008DF81700FFE79DF8170006B080BD000012
:103D900080B586B005908DF81310039202930598B4
:103DA0009DF8131001F00F0101EBC10100EB810040
:103DB00000F51570019003980199C8600298019967
:103DC0000861019900204861019948709DF813002D
:103DD00000F00F000199087005988079012804D13E
:103DE000FFE703980199C861FFE7059A10680199F8
:103DF000927908F085FB002006B080BD80B584B0C4
:103E000002908DF807109DF8070000F00F0002994E
:103E10000979884204D9FFE701208DF80F0058E0A6
:103E20009DF80700000600280FD5FFE702989DF8CF
:103E3000071001F00F0101EBC10100EB810014300C
:103E400000900099012048700DE002989DF807103D
:103E500001EBC10100EB810000F5157000900099A5
:103E600000204870FFE70099012088709DF8070046
:103E700000F00F0000990870FFE7029890F8940492
:103E8000012804D1FFE702208DF80F0021E00299FC
:103E9000012081F89404FFE7FFE702980068009989
:103EA00008F0DAFA9DF80700000740B9FFE7029A28
:103EB0001068917902F29C4208F02EFAFFE7FFE7C2
:103EC0000299002081F89404FFE700208DF80F008C
:103ED000FFE79DF80F0004B080BD000080B586B0FC
:103EE00005908DF813100392029305989DF8131016
:103EF00001F00F0101EBC10100EB810014300190D2
:103F000003980199C86002980199086101990020FD
:103F100048610199012048709DF8130000F00F00DE
:103F20000199087005988079012804D1FFE703986A
:103F30000199C861FFE7059A10680199927908F024
:103F4000DFFA002006B080BD80B58CB00B900B98D6
:103F500000680A900A9809900B98006808F002FE21
:103F6000002840F00C84FFE70B98006808F066FE1C
:103F700010B9FFE700F003BC0998D0F80808C0F3B7
:103F80000D200B99C1F8D4040B98006808F056FE78
:103F90008007002807D5FFE70B980168486900F003
:103FA00002004861FFE70B98006808F047FEC00672
:103FB000002862D5FFE70B980168886920F010009F
:103FC00088610A98006A02900B98029901F00F012B
:103FD00001EBC10100EB810000F51570089002981B
:103FE00000F4F0110220B0EB514F23D1FFE7BDF8F0
:103FF000080047F6F07108421BD0FFE70A980899BD
:10400000C968029AC2F30A1208F026FE029847F61F
:10401000F07100EA0103089AD06800EB1310D06039
:10402000029800EA01020899486900EB1210486101
:10403000FFE71BE0029800F4F0110620B0EB514FAF
:1040400012D1FFE70A980B9901F29C41082208F06F
:1040500003FE029847F6F07100EA010208994869E8
:1040600000EB1210486100E0FFE7FFE70B980168E2
:10407000886940F010008861FFE70B98006808F03D
:10408000DDFD0003002840F1A680FFE7002004903A
:104090000B98006808F080FD0690FFE7069800285E
:1040A00000F09880FFE79DF81800C007002800F096
:1040B0008A80FFE70B9800689DF8101008F0A6FDB5
:1040C00005909DF81400C00760B1FFE709980499B6
:1040D00000EB41110120C1F8080B0B98049903F083
:1040E0009FFCFFE79DF81400000700280CD5FFE7B0
:1040F0000998049900EB41110820C1F8080B0B98AE
:10410000049903F047FCFFE79DF81400C00600285F
:1041100008D5FFE70998049900EB41111020C1F878
:10412000080BFFE79DF81400800700282DD5FFE756
:104130000A9840690006002808D5FFE70999D1F8D8
:10414000040840F48060C1F80408FFE70B98049964
:1041500001EBC10100EB810000F515700890089893
:10416000C078012809D1FFE708990020C8700B9892
:104170009DF8101000F014FBFFE70998049900EB7C
:1041800041110220C1F8080BFFE79DF814008006DA
:10419000002808D5FFE70998049900EB4111202079
:1041A000C1F8080BFFE79DF815008006002809D527
:1041B000FFE70998049900EB41114FF40050C1F852
:1041C000080BFFE7FFE704980130049006984008C9
:1041D000069063E7FFE70B98006808F02FFD4003A7
:1041E000002840F1C680FFE70B98006808F0C2FC89
:1041F000069000200490FFE70698002800F0B880A1
:10420000FFE79DF81800C007002800F0AA80FFE72C
:104210000B9800689DF8101008F0D0FC05909DF8F0
:104220001400C00700283ED0FFE7049800F00F01FB
:10423000012000FA01F10391039B099AD2F8341886
:104240009943C2F834180999049A01EB4211C1F854
:1042500008090B98807901281FD1FFE70B98049972
:1042600001EBC10100EB8101CA69086A10440862D0
:10427000049888B9FFE70B98049901EBC10100EBA2
:104280008100406A40B9FFE70B99086801F29C423F
:10429000012108F041F8FFE7FFE70B989DF81010A7
:1042A000FFF7D2FBFFE79DF814000007002808D5B0
:1042B000FFE70998049900EB41110820C1F80809AB
:1042C000FFE79DF81400C006002808D5FFE709980D
:1042D000049900EB41111020C1F80809FFE79DF88F
:1042E00014004006002808D5FFE70998049900EB60
:1042F00041114020C1F80809FFE79DF8140080072C
:10430000002822D5FFE70A98049908F0C7FB0B980C
:10431000049901EBC10100EB81001430089008986A
:10432000C078012809D1FFE708990020C8700B98D0
:104330009DF8101000F026FAFFE70998049900EBA9
:1043400041110220C1F80809FFE79DF8140000069A
:10435000002805D5FFE70B98049903F045FCFFE71B
:10436000FFE704980130049006984008069043E760
:10437000FFE70B98006808F061FCC00F00B3FFE78F
:104380000999D1F8040820F00100C1F804080B983D
:1043900090F8CC04012808D1FFE70B98002180F8A1
:1043A000CC140B98FFF7E6FA03E00B9800F0B8FB8B
:1043B000FFE70B980168486900F000404861FFE79B
:1043C0000B98006808F03AFC0005002811D5FFE7BB
:1043D0000998D0F80808C00720B1FFE70B9800F053
:1043E0002BFCFFE70B980168486900F40060486106
:1043F000FFE70B98006808F021FCC004002840F19A
:104400008680FFE70999D1F8040820F00100C1F87F
:1044100004080B980068102108F040FB002007906A
:10442000FFE707980B990979884231D2FFE709988D
:10443000079900EB41114FF67F30C1F8080909993F
:10444000079A01EB4212D2F8001921F40011C2F8C8
:1044500000190999079A01EB4211C1F8080B099854
:10446000079900EB4111D1F8000B20F40010C1F8BE
:10447000000B0998079900EB4111D1F8000B40F0AF
:104480000060C1F8000BFFE7079801300790C8E70C
:104490000999D1F81C0840F00110C1F81C080B98CC
:1044A000C07B78B1FFE70999D1F8840840F00B0090
:1044B000C1F884080999D1F8440840F00B00C1F80C
:1044C00044080FE00999D1F8140842F22B02104376
:1044D000C1F814080999D1F8100840F00B00C1F890
:1044E0001008FFE70999D1F8000820F4FE60C1F830
:1044F00000080B9A1068917902F29C4207F00CFFB9
:104500000B980168486900F480504861FFE70B98F8
:10451000006808F093FB800400281FD5FFE70B9884
:10452000006807F013FC0B98006808F0F5FA0B9987
:10453000C8710B980068019000F0FAFC01460198E0
:104540000B9AD27908F080FC0B9800F0BFFA0B9818
:104550000168486900F400504861FFE70B98006863
:1045600008F06CFB000700280AD5FFE70B9800F065
:10457000E1FA0B980168486900F008004861FFE71C
:104580000B98006808F05AFB0006002825D5FFE7C5
:104590000A99886920F08000886101200490FFE773
:1045A00004980B990979884216D2FFE70B98049971
:1045B00001EBC10100EB810090F85702012806D100
:1045C000FFE70B989DF81010FFF770FAFFE7FFE781
:1045D000049801300490E3E7FFE70B98006808F0C7
:1045E0002DFBC00200283CD5FFE701200490FFE727
:1045F00004980B99097988422CD2FFE7099804990D
:1046000000EB4110D0F8000902900B98049901EBDF
:10461000C10100EB8100007E012816D1FFE79DF863
:104620000B000006002810D5FFE70B98049901EB5A
:10463000C10100EB81010120C8750B989DF8101095
:1046400041F08001FFF732FAFFE7FFE704980130FD
:104650000490CDE70B980168486900F48010486128
:10466000FFE70B98006808F0E9FA8002002856D5A9
:10467000FFE701200490FFE704980B99097988422D
:1046800046D2FFE70998049900EB4110D0F8000BDF
:1046900002900B98049901EBC10100EB810090F8A6
:1046A000580201282FD1FFE79DF80B0000060028D3
:1046B00029D5FFE7029800F480310B98D0F8D40494
:1046C00000F00100B0EB114F1DD1FFE70B980499EA
:1046D00001EBC10100EB8101012081F857020A9929
:1046E000886940F0800088610A98406900060028C7
:1046F00008D4FFE70999D1F8040840F40070C1F824
:10470000040805E0FFE7FFE7049801300490B3E7F1
:104710000B980168486900F400104861FFE70B98A6
:10472000006808F08BFA400000280AD5FFE70B98D4
:10473000FFF780F90B980168486900F080404861F4
:10474000FFE70B98006808F079FA4007002815D5B4
:10475000FFE70B980068406802909DF8080040074A
:10476000002804D5FFE70B98FFF796F9FFE7029AB8
:104770000B980168486810434860FFE7FFE70CB0FA
:1047800080BD000080B582B001908DF803100198C3
:10479000D0F8E0049DF8031006F0C0FB02B080BD25
:1047A00080B582B001908DF803100198D0F8E00434
:1047B0009DF8031006F0EAFB02B080BD80B58EB014
:1047C0000C900C9820B9FFE701208DF8370012E11A
:1047D0000C9800680B900C9890F8950440B9FFE78E
:1047E0000C99002081F894040C9800F009F9FFE777
:1047F0000C99032081F895040B98B0F1A04F04D1D7
:10480000FFE70C9900208871FFE70C98006807F01B
:1048100079FD0C9B1868197C8DF8241059689A68EA
:10482000DB680893079206910699079A089BDDF8C2
:1048300024C0EE46CEF800C007F09EFA40B1FFE774
:104840000C99022081F8950401208DF83700D2E000
:104850000C980068002108F059FA40B1FFE70C9964
:10486000022081F8950401208DF83700C3E0002074
:104870008DF82B00FFE79DF82B000C9909798842F1
:1048800041DAFFE70C989DF82B1001EBC10100EB1A
:104890008101012048759DF82B000C9900EBC002A6
:1048A00001EB820108759DF82B000C9900EBC0020A
:1048B00001EB8201C8850C989DF82B1001EBC1011A
:1048C00000EB8101002008760C999DF82B2002EB6B
:1048D000C20201EB8201C8610C999DF82B2002EB0A
:1048E000C20201EB820108620C999DF82B2002EBB9
:1048F000C20201EB82014862FFE79DF82B00013004
:104900008DF82B00B7E700208DF82B00FFE79DF80E
:104910002B000C99097988423EDAFFE70C989DF844
:104920002B1001EBC10100EB8101002081F8550241
:104930009DF82B100C9A01EBC10302EB830282F865
:1049400054120C999DF82B2002EBC20201EB82015C
:1049500081F858020C999DF82B2002EBC20201EB62
:104960008201C1F85C020C999DF82B2002EBC20277
:1049700001EB8201C1F860020C999DF82B2002EB3B
:10498000C20201EB8201C1F86402FFE79DF82B002F
:1049900001308DF82B00BAE70C9B1868197C8DF854
:1049A000141059689A68DB68049303920291029983
:1049B000039A049BDDF814C0EE46CEF800C007F061
:1049C00053FB40B1FFE70C99022081F895040120C8
:1049D0008DF837000FE00C990020019048740C9975
:1049E000012081F895040C98006807F027FB0198D6
:1049F0008DF83700FFE79DF837000EB080BD00004E
:104A000080B58CB00B9000200A9009900890079018
:104A100006900B980068B0F1A04F54D1FFE7FFE774
:104A20000020059043F63000C4F20200016841F016
:104A300001010160006800F0010005900598FFE7A2
:104A40004FF400700690002001900790089000201D
:104A5000C4F20200029006A90391FEF763FC019ADA
:104A6000029803994FF4C0530693022307930892C8
:104A7000032209920A220A92FEF754FCFFE743F64A
:104A80003401C4F20201086840F080000860FFE7CA
:104A90000020049043F64400C4F20200016841F48F
:104AA00080410160006800F4804004900498FFE7B2
:104AB000FFE74320009005210022FEF739FF009810
:104AC000FEF72CFFFFE70CB080BD000080B582B080
:104AD000019001208DF803000198C07920B9FFE70B
:104AE00000208DF803000CE00198C079022804D161
:104AF000FFE701208DF8030002E0FDF709F8FFE76A
:104B0000FFE70198D0F8E0049DF8031006F040FBA1
:104B10000198D0F8E00406F0B9FA02B080BD0000B8
:104B200080B582B001900198D0F8E00406F0FEFA5A
:104B300002B080BD80B582B001900198D0F8E00449
:104B400006F006FB02B080BD80B584B002908DF8FF
:104B50000710FFE7029890F89404012804D1FFE7BA
:104B600002208DF80F0019E00299012081F89404C9
:104B7000FFE7FFE79DF80700029948740298006874
:104B80009DF8071008F032F9FFE70299002081F83C
:104B90009404FFE700208DF80F00FFE79DF80F0059
:104BA00004B080BD80B582B001900199D1F8E004D5
:104BB00001F29C4106F016FB02B080BD80B584B0C6
:104BC0000290029800680190FFE7029890F8940420
:104BD000012804D1FFE702208DF80F0028E0029998
:104BE000012081F89404FFE7FFE70198C0684006C0
:104BF00000280BD5FFE70298407B012806D1FFE78C
:104C00000199886B40F480308863FFE70298006860
:104C100007F000FF0298006807F0FAF9FFE7029931
:104C2000002081F89404FFE700208DF80F00FFE7D3
:104C30009DF80F0004B080BD80B582B0019001984E
:104C4000D0F8E00406F050FB01980168D1F8000E9E
:104C500040F00100C1F8000E0198C07A48B1FFE7AA
:104C60004EF61051CEF20001086840F006000860D0
:104C7000FFE702B080BD000080B584B002900191D2
:104C8000029820B9FFE701208DF80F0021E101987B
:104C900043F60041C4F20201096801F00F018842A5
:104CA00012D9FFE7019943F60040C4F202000170F7
:104CB000006800F00F000199884204D0FFE701204E
:104CC0008DF80F0005E1FFE70298007880070028C3
:104CD0002AD5FFE7029800784007002809D5FFE7AA
:104CE00043F60801C4F20201086840F4E05008608D
:104CF000FFE7029800780007002809D5FFE743F690
:104D00000801C4F20201086840F460400860FFE74F
:104D100043F60801C4F20201086820F0F000029A8C
:104D2000926810430860FFE702980078C0070028E7
:104D30006ED0FFE702984068012811D1FFE743F6E3
:104D40000000C4F20200006800F400310020B0EB63
:104D5000514F04D1FFE701208DF80F00B9E02CE09E
:104D600002984068022805D0FFE7029840680328AF
:104D700011D1FFE743F60000C4F20200006800F022
:104D800000710020B0EB516F04D1FFE701208DF8D6
:104D90000F009EE010E043F60000C4F2020000683D
:104DA00000F002010020B0EB510F04D1FFE7012019
:104DB0008DF80F008DE0FFE7FFE743F60801C4F22E
:104DC0000201086820F00300029A5268104308604C
:104DD000FEF7D0FC0090FFE743F60800C4F20200A3
:104DE000006800F00C0002994968B0EB810F0ED00A
:104DF000FFE7FEF7BFFC0099401A41F28931884273
:104E000004D3FFE703208DF80F0062E0E4E7FFE73B
:104E1000019843F60041C4F20201096801F00F0154
:104E2000884212D2FFE7019943F60040C4F2020023
:104E30000170006800F00F000199884204D0FFE77C
:104E400001208DF80F0044E0FFE70298007840074A
:104E500000280CD5FFE743F60801C4F202010868F8
:104E600020F4E050029AD26810430860FFE70298ED
:104E70000078000700280DD5FFE743F60801C4F2CB
:104E80000201086820F46040029A126940EAC200F8
:104E90000860FFE700F076F843F60801C4F202016B
:104EA0000968C9B20A0943F2E801C0F60101895C48
:104EB000C84040F23401C2F20001086040F2B01074
:104EC000C2F200000068FEF785FC00208DF80F009C
:104ED000FFE79DF80F0004B080BD000082B0019094
:104EE000009101990F20086043F60800C4F2020007
:104EF000016801F00301019A5160016801F0F001BD
:104F0000019A9160016801F4E051019AD160006852
:104F100000F46040C0080199086143F60040C4F203
:104F20000200006800F00F000099086002B07047AE
:104F300040F23400C2F200000068704780B5FFF70D
:104F4000F7FF43F60801C4F202010968C1F38222A7
:104F500043F2F801C0F60101895CC84080BD000041
:104F600080B5FFF7E5FF43F60801C4F202010968C6
:104F700089B24A0B43F2F801C0F60101895CC840CE
:104F800080BD000080B586B000200590049003909D
:104F9000029043F60800C4F20200006800F00C0022
:104FA0000146019140B1FFE7019804280AD0FFE7CC
:104FB000019808280CD04FE042F20040C0F2F40003
:104FC00002904FE041F20020C0F27A00029049E0E6
:104FD00043F60400C4F20200016801F03F010591AC
:104FE00000684002002813D5FFE743F60400C4F22E
:104FF00002000068C0F3881041F20021C0F27A017B
:10500000A0FB0101059A0023FBF7CDF9049012E003
:1050100043F60400C4F202000068C0F3881042F2B4
:105020000041C0F2F401A0FB0101059A0023FBF747
:10503000BAF90490FFE743F60400C4F202000068E6
:1050400000F44031022000EBD13003900498039922
:10505000B0FBF1F0029005E042F20040C0F2F40033
:105060000290FFE7029806B080BD000080B58AB0CC
:10507000099008910792099870BBFFE7FFE70020AD
:10508000019043F63000C4F20200016841F00101D2
:105090000160006800F0010001900198FFE74FF403
:1050A000807002900220039003200590002004905D
:1050B00006900020C4F2020002A9FEF733F943F67D
:1050C0000801C4F20201086820F0EC60089A079B0E
:1050D0001A43104308602FE0FFE70020009043F6DA
:1050E0003000C4F20200016841F004010160006870
:1050F00000F0040000900098FFE74FF40070029069
:10510000022003900320059000200490069040F6B2
:105110000000C4F2020002A9FEF704F943F60801F8
:10512000C4F20201086820F07840089A079B42EA1E
:10513000C30210430860FFE70AB080BD80B586B0A7
:105140000490049820B9FFE701208DF8170050E380
:1051500004980078C007002800F0A580FFE743F618
:105160000800C4F20200006800F00C00042813D00C
:10517000FFE743F60800C4F20200006800F00C00EC
:1051800008281ED1FFE743F60400C4F202000068BD
:105190004002002815D5FFE743F60000C4F20200E4
:1051A000006800F400310020B0EB514F08D0FFE759
:1051B0000498406820B9FFE701208DF8170018E334
:1051C00070E0FFE704984068B0F5803F09D1FFE741
:1051D00043F60001C4F20201086840F48030086020
:1051E00020E004984068B0F5A02F0DD1FFE743F60A
:1051F0000001C4F20201086840F4802008600868D9
:1052000040F4803008600CE043F60001C4F2020173
:10521000086820F480300860086820F48020086066
:10522000FFE7FFE7FFE704984068E8B1FFE7FEF714
:10523000A1FA0390FFE743F60000C4F20200006801
:1052400000F400310020B0EB514F0CD1FFE7FEF726
:1052500091FA0399401A652804D3FFE703208DF8DB
:105260001700C6E2E7E71CE0FEF784FA0390FFE7C9
:1052700043F60000C4F20200006800F40031002090
:10528000B0EB514F0CD0FFE7FEF774FA0399401AC8
:10529000652804D3FFE703208DF81700A9E2E7E7AC
:1052A000FFE7FFE7FFE7049800788007002840F158
:1052B0009680FFE743F60800C4F20200006810F091
:1052C0000C0F13D0FFE743F60800C4F20200006899
:1052D00000F00C0008282CD1FFE743F60400C4F2CC
:1052E000020000684002002823D4FFE743F60000D4
:1052F000C4F20200006800F002010020B0EB510F80
:1053000009D0FFE70498C068012804D0FFE7012016
:105310008DF817006DE243F60001C4F2020108683F
:1053200020F0F800049A126940EAC2000860FFE722
:1053300054E00498C06870B3FFE70021C4F247212D
:1053400001200860FEF716FA0390FFE743F600001D
:10535000C4F20200006800F002010020B0EB510F1F
:105360000CD1FFE7FEF706FA0399401A032804D38D
:10537000FFE703208DF817003BE2E7E743F6000163
:10538000C4F20201086820F0F800049A126940EAA9
:10539000C200086021E00021C4F24721002008601B
:1053A000FEF7E8F90390FFE743F60000C4F20200BD
:1053B000006800F002010020B0EB510F0CD0FFE7B5
:1053C000FEF7D8F90399401A032804D3FFE7032016
:1053D0008DF817000DE2E7E7FFE7FFE7FFE7049826
:1053E0000078000700284BD5FFE70498406918B300
:1053F000FFE740F68061C4F2472101200860FEF714
:10540000B9F90390FFE743F67400C4F202000068A4
:1054100000F002010020B0EB510F0CD1FFE7FEF7C6
:10542000A9F90399401A032804D3FFE703208DF854
:105430001700DEE1E7E722E040F68061C4F2472191
:1054400000200860FEF796F90390FFE743F674002A
:10545000C4F20200006800F002010020B0EB510F1E
:105460000CD0FFE7FEF786F90399401A032804D30E
:10547000FFE703208DF81700BBE1E7E7FFE7FFE751
:10548000049800784007002840F1CE80FFE7002014
:105490008DF8070043F64000C4F202000068C00027
:1054A000002815D4FFE7FFE70020009043F64000F6
:1054B000C4F20200016841F080510160006800F010
:1054C000805000900098FFE701208DF80700FFE76B
:1054D00047F20000C4F200000068C005002822D492
:1054E000FFE747F20001C4F20001086840F4807051
:1054F0000860FEF73FF90390FFE747F20000C4F2AF
:1055000000000068C00500280CD4FFE7FEF732F960
:105510000399401A032804D3FFE703208DF81700EE
:1055200067E1EAE7FFE7FFE704988068012809D10F
:10553000FFE743F67001C4F20201086840F0010081
:1055400008601FE00498806805280DD1FFE743F646
:105550007001C4F20201086840F0040008600868A5
:1055600040F0010008600CE043F67001C4F2020153
:10557000086820F001000860086820F00400086056
:10558000FFE7FFE7FFE704988068F8B1FFE7FEF761
:10559000F1F80390FFE743F67000C4F202000068E0
:1055A00000F002010020B0EB510F0ED1FFE7FEF733
:1055B000E1F80399401A41F28931884204D3FFE7A8
:1055C00003208DF8170014E1E5E71EE0FEF7D2F89E
:1055D0000390FFE743F67000C4F20200006800F099
:1055E00002010020B0EB510F0ED0FFE7FEF7C2F82A
:1055F0000399401A41F28931884204D3FFE703201E
:105600008DF81700F5E0E5E7FFE79DF807000128B2
:1056100009D1FFE743F64001C4F20201086820F017
:1056200080500860FFE7FFE704988069002800F0D9
:10563000DC80FFE743F60800C4F20200006800F0D7
:105640000C00082800F08580FFE704988069022894
:105650005CD1FFE76021C4F2472100200860FEF71B
:1056600089F80390FFE743F60000C4F202000068E7
:1056700000F000710020B0EB516F0CD0FFE7FEF797
:1056800079F80399401A032804D3FFE703208DF823
:105690001700AEE0E7E70499C869D1F820C04B6A6B
:1056A0008A6A40EA0C0040EA8310D2034FF6FF7387
:1056B0009A43A2F580321043C96A40EA016043F67A
:1056C0000401C4F2020108606021C4F247210120F4
:1056D0000860FEF74FF80390FFE743F60000C4F2BE
:1056E0000200006800F000710020B0EB516F0CD197
:1056F000FFE7FEF73FF80399401A032804D3FFE7BA
:1057000003208DF8170074E0E7E721E06021C4F280
:10571000472100200860FEF72DF80390FFE743F6CD
:105720000000C4F20200006800F000710020B0EB3D
:10573000516F0CD0FFE7FEF71DF80399401A0328BC
:1057400004D3FFE703208DF8170052E0E7E7FFE7F7
:105750004AE004988069012804D1FFE701208DF810
:10576000170046E043F60400C4F20200006802900D
:1057700004988069012831D0FFE7029800F4800086
:105780000499C969884229D1FFE7029800F03F00D7
:105790000499096A884221D1FFE7029847F6C0714F
:1057A00008400499496AB0EB811F17D1FFE70298BE
:1057B00000F440300499896AC9034FF6FF7291439F
:1057C000A1F58031884209D1FFE7029800F07060AE
:1057D0000499C96AB0EB016F04D0FFE701208DF88E
:1057E000170006E0FFE7FFE7FFE700208DF817004E
:1057F000FFE79DF8170006B080BD000080B584B0BB
:105800000290029820B9FFE701208DF80F0072E0A6
:105810000298406A60B9FFE702984068B0F5827F5D
:1058200001D1FFE703E002990020C861FFE705E02E
:1058300002990020086102994861FFE7029900205F
:105840008862029890F8510040B9FFE70299002061
:1058500081F85000029800F053F8FFE70299022007
:1058600081F8510002980168086820F04000086043
:10587000029A019211685068D2F808C0D36800F407
:1058800082700CF4044C604403F400631844136900
:1058900003F002031844536903F0010318449369A9
:1058A00003F400731844D36903F038031844136AEF
:1058B00003F080031843926A02F400521043086018
:1058C000029801688369426A042000EA134002F0EA
:1058D00010021044486002980168C86920F4006012
:1058E000C861029900204865029A012182F851108E
:1058F0008DF80F00FFE79DF80F0004B080BD000099
:1059000080B58AB009900020089007900690059015
:1059100004900998006843F20001C4F20101884232
:1059200034D1FFE7FFE70020039043F64400C4F2C0
:105930000200016841F480510160006800F4805069
:1059400003900398FFE7FFE70020029043F6300042
:10595000C4F20200016841F002010160006800F039
:10596000020002900298FFE7382004900220059080
:1059700001200690032007900520089040F2004087
:10598000C4F2020004A9FDF7CDFC3DE009980068CF
:1059900043F60001C4F20001884234D1FFE7FFE77B
:1059A0000020019043F64000C4F20200016841F477
:1059B00080410160006800F4804001900198FFE799
:1059C000FFE70020009043F63000C4F202000168B7
:1059D00041F002010160006800F0020000900098B0
:1059E000FFE74FF42040049002200590069003202A
:1059F00007900520089040F20040C4F2020004A97C
:105A0000FDF790FCFFE7FFE70AB080BD80B58CB0E2
:105A1000DDF838C00A9009910892ADF81E300120D7
:105A20000390FDF7A7FE04900A9890F851008DF8B6
:105A300017000A9840680690BDF81E00ADF81C00DB
:105A40009DF81700012812D0FFE70698B0F5827F75
:105A500009D1FFE70A98806828B9FFE79DF8170089
:105A6000042804D0FFE702208DF82F009BE109985D
:105A700038B1FFE7089820B1FFE7BDF81E0020B954
:105A8000FFE701208DF82F008DE1FFE70A9890F8DD
:105A90005000012804D1FFE702208DF82F0082E199
:105AA0000A99012081F85000FFE7FFE70A9890F873
:105AB0005100042805D0FFE70A99052081F851001C
:105AC000FFE70A990020486508990A9A9163BDF892
:105AD0001E100A9AD187BDF81E100A9A918709995B
