:020000040800F2
:1000000038540024050010087D2C00086B280008D7
:10001000192E100869011008A93610080000000008
:100020000000000000000000000000003503000890
:100030006D01100800000000910300089D300008C9
:100040001F0010081F0010081F0010081F001008D4
:100050001F0010081F0010081F0010089101100851
:10006000B90600081F0010081F0010081F00100824
:100070001F0010081F0010081F0010081F001008A4
:100080001F0010081F0010081F0010081F00100894
:100090001F0010081F0010081F0010081F00100884
:1000A0001F001008BD3110081F001008F1320008B1
:1000B00001330008CD311008113300081F0010086B
:1000C0001F0010081F0010081F0010081F00100854
:1000D0001F001008893A00081F0010081F001008B0
:1000E0001F0010081F001008000000001F0010086B
:1000F000313300081F001008ED3110081F001008F0
:100100001F0010081F0010081F0010081F00100813
:10011000B93410081F001008DD3110082133000821
:100120001F0010081F0010081F0010081F001008F3
:100130001F0010081F0010081F0010081F001008E3
:1001400000000000000000000000000000000000AF
:100150001F0010081F0010081F0010081F001008C3
:100160001F0010081F0010081F0010081F001008B3
:100170001F0010081F0010081F00100800000000DA
:100180001F0010081F0010081F0010081F00100893
:100190001F0010081F0010081F0010081F00100883
:1001A0001F0010081F0010081F0010081F00100873
:1001B0001F0010081F0010081F0010081F00100863
:1001C0001F0010081F0010081F0010081F00100853
:1001D0001F0010081F0010081F0010081F00100843
:1001E0001F0010081F0010081F0010081F00100833
:1001F0001F0010081F0010081F0010081F00100823
:100200001F0010081F0010081F0010081F00100812
:10021000E13200081F001008AD3110081F0010085F
:100220001F0010081F0010081F0010080000000029
:100230001F0010081F001008000000001F00100819
:100240001F0010081F0010081F0010081F001008D2
:100250001F0010081F0010081F0010081F001008C2
:100260001F0010081F0010081F0010081F001008B2
:100270001F0010081F0010081F00100800000000D9
:100280001F0010081F0010081F00100800000000C9
:10029000000000001F00100800F002F800F03AF81B
:1002A0000AA090E8000C82448344AAF10107DA45D1
:1002B00001D100F02FF8AFF2090EBAE80F0013F0E9
:1002C000010F18BFFB1A43F001031847344E00001A
:1002D000544E0000103A24BF78C878C1FAD85207AB
:1002E00024BF30C830C144BF04680C6070470000B0
:1002F0000023002400250026103A28BF78C1FBD82F
:10030000520728BF30C148BF0B6070471FB504F1CA
:1003100035FE1FBDFFF0FEFE1146FFF7F7FF03F0AD
:10032000E1FB00F08FF903B4FFF06AFE03BC03F1B8
:10033000C5F900002C4B19680868B0E8F04F80F34D
:100340000988BFF36F8F4FF0000080F3118870476A
:100350000000000008480068006880F308884FF03B
:10036000000080F3148862B661B6BFF34F8FBFF30D
:100370006F8F00DF00BF00BF08ED00E0DFF80C006A
:10038000016841F470010160704700BF88ED00E032
:10039000EFF30980BFF36F8F134B1A681EF0100F35
:1003A00008BF20ED108A20E9F04F106009B44FF02B
:1003B000500080F31188BFF34F8FBFF36F8F04F0AD
:1003C0001DFA4FF0000080F3118809BC1968086815
:1003D000B0E8F04F1EF0100F08BFB0EC108A80F3A9
:1003E0000988BFF36F8F70478C000024EFF30580FE
:1003F000704753EA020C00F069802DE9F04B4FF092
:100400000006002B1FBFB3FA83F503FA05F424FAA4
:1004100005F65E4012BF1643B2FA82F502FA05F401
:10042000C5F120051EBF22FA05FC44EA0C04203564
:1004300056EA044C4FEA144418BF641C4FF00008FD
:100440004FF00009904271EB030C39D3002919BF1A
:10045000B1FA81F701FA07F6B0FA80F700FA07F669
:10046000C7F120071EBF20FA07FC46EA0C0620371A
:10047000B6FBF4FCA7EB0507103F07F01F0BCBF111
:1004800020060CFA0BFB2CFA06F644BFB3460026F6
:10049000202FA4BF5E464FF0000B5BEA060C08BF9E
:1004A0004FF0010B19EB0B09ABFB027C48EB060884
:1004B000C01B06FB02CC0BFB03CC71EB0C01C1E7AC
:1004C0000B46024641464846BDE8F08B13B54FF057
:1004D00000004FF00001AFF30080BDE81C40704702
:1004E0000FB4044910B503AA029800F053F810BCE9
:1004F0005DF814FB74000024032A40F2308010F0F1
:10050000030C00F0158011F8013BBCF1020F6244AE
:1005100098BF11F801CB00F8013B38BF11F8013B3F
:10052000A2F1040298BF00F801CB38BF00F8013BEC
:1005300011F0030300F04080083AC0F0088051F841
:10054000043B083A51F804CBA0E80810F5E7121D67
:100550005CBF51F8043B40F8043BAFF30080D20786
:1005600024BF11F8013B11F801CB48BF11F8012B52
:1005700024BF00F8013B00F801CB48BF00F8012B75
:10058000704702F0FF0343EA032242EA0242FFF00F
:1005900085BD0000074B70B50D467B44FFF0A3FD01
:1005A00004462846FFF0B2FD10B14FF0FF3070BD99
:1005B000204670BD2B35000010B5203AC0F00B80EE
:1005C000B1E81850203AA0E81850B1E81850A0E857
:1005D0001850BFF4F5AF5FEA027C24BFB1E81850B1
:1005E000A0E8185044BF18C918C0BDE810405FEA21
:1005F000827C24BF51F8043B40F8043B08BF70479D
:10060000D20728BF31F8023B48BF11F8012B28BFA1
:1006100020F8023B48BF00F8012B70472DE9F0415C
:1006200006460024D6E90170F5688046304603E0AE
:100630004146B847641C3046A8470028F8D12046F8
:10064000BDE8F08110B50446AFF300802046BDE858
:100650001040FFF768BE000010B5002202210548D7
:1006600000F116F900224FF40041034800F110F99F
:1006700010BD0000000C02580004025810B5002202
:100680000121054800F104F900224FF4807102486D
:1006900000F1FEF810BD0000000C025810B5012258
:1006A0001146044800F1F4F801221102014800F15A
:1006B000EFF810BD000C025810B50420FFF0DCFF6D
:1006C00010BD72B600BFFEE770B504460CB901203C
:1006D00070BD94F83500022803D0802060650120A9
:1006E000F6E7DC492068884249D0DA4918312068A9
:1006F000884244D0D7493031206888423FD0D5491C
:100700004831206888423AD0D24960312068884216
:1007100035D0D04978312068884230D0CD499031E9
:10072000206888422BD0CB49A8312068884226D047
:10073000C9492068884222D0C749183120688842B8
:100740001DD0C54930312068884218D0C24948318F
:100750002068884213D0C0496031206888420ED09A
:10076000BD4978312068884209D0BB499031206862
:10077000884204D0B849A8312068884201D10120BC
:1007800000E00020F0B3042084F83500B14920686F
:1007900088424BD0AF4918312068884246D0AD49D5
:1007A00030312068884241D0AA49483120688842C7
:1007B0003CD0A84960312068884237D0A5497831BB
:1007C0002068884232D0A3499031206888422DD0D9
:1007D000A049A8312068884228D09F4920688842D3
:1007E00024D09D491831206888421FD09A49303161
:1007F000206888421AD0984948312068884215D02C
:10080000954900E020E06031206888420ED092498E
:1008100078312068884209D08F4990312068884219
:1008200004D08D49A8312068884206D1206800682C
:1008300020F001002168086009E12068006820F0CC
:1008400001002168086002E12068006820F00E00C5
:10085000216808607F492068884249D07D49183165
:100860002068884244D07B493031206888423FD09C
:1008700078494831206888423AD07649603120680A
:10088000884235D0734978312068884230D0714928
:100890009031206888422BD06E49A8312068884268
:1008A00026D06D492068884222D06B4918312068D3
:1008B00088421DD0684930312068884218D0664986
:1008C00048312068884213D06349603120688842EB
:1008D0000ED0614978312068884209D05E49903154
:1008E0002068884204D05C49A8312068884206D13B
:1008F0002068006820F001002168086005E0206899
:10090000006820F001002168086052492068884290
:1009100070D050491831206888426BD04D49303131
:100920002068884266D04B4948312068884261D0AF
:1009300048496031206888425CD046497831206857
:10094000884257D0434990312068884252D041496B
:10095000A831206888424DD03F492068884249D05C
:100960003D4918312068884244D03B4930312068E5
:1009700088423FD038494831206888423AD03649C9
:1009800060312068884235D0334978312068884208
:1009900030D031499031206888422BD02E49A8317F
:1009A0002068884226D02D492068884222D02B49D1
:1009B0001431206888421DD0284928312068884297
:1009C00018D026493C312068884213D02349503141
:1009D000206888420ED0214964312068884209D0BD
:1009E0001E4978312068884204D01C498C31206827
:1009F000884201D1012000E00020D8B1206E0068BB
:100A000020F48070216E0860A56D94F85C0000F001
:100A10001F01012088406860D4E919104860E06E29
:100A200040B1E06E006820F48070E16E0860D4E9A7
:100A30001C104860012084F8350000BF002084F8B5
:100A4000340000BF206D10B12046216D8847002082
:100A50003EE6000010000240100402400854025814
:100A600038B5044600200090022C11D104F038F96A
:100A700001280DD069460748006803F1B9FD0098C8
:100A800030B1E00604490860BFF34F8FBFF36F8FAA
:100A900038BD00001800002404ED00E001480068A3
:100AA000704700007800002410B50320FFF0A0FF7D
:100AB00001F150F910490968C1F303210F4A515C53
:100AC00001F01F0120FA01F40B48006800F00F004C
:100AD0001146085C00F01F0024FA00F00849086085
:100AE000084804600F2000F00FF808B1012010BD85
:100AF000FFF014FF0020FAE7184402589E4F100838
:100B0000880000248400002470B58AB00446102CAC
:100B10000AD2002221467620FFF02CFF7620FFF03B
:100B200015FF1948046002E001200AB070BD00BF43
:100B30001648006840F480201449086008460068A0
:100B400000F48020009000BF00BF01A902A800F0BF
:100B500085F901F1EDF845000D48B5FBF0F0461EB2
:100B60000C480D49086040F2E7310B48C16046600F
:100B700000210161816000F00DFE18B9064800F007
:100B8000BBFFD2E70120D0E77C000024F0440258EC
:100B900040420F0000480140B404002400BF00BFE1
:100BA00000BFBFF35F8F00BF00BF00BF05480068F4
:100BB00020F4803003490860002002497031086049
:100BC0007047000024ED00E040F001010D4A116083
:100BD0000C497039096841F480310A4A703A116051
:100BE00000BF00BF00BFBFF34F8F00BF00BF00BFFB
:100BF00000BF00BF00BFBFF36F8F00BF00BF00BFCB
:100C00007047000094ED00E010B500F05DF9054973
:100C10000968C1F30211044A515C01F01F01C84088
:100C200010BD0000204402589E4F100870B50146C8
:100C3000844D2D6805F00303824D2D68C5F30550E2
:100C4000804D2D1D2D68C5F300247E4D1C352D686B
:100C5000C5F3CC0515FB04F501EE105AB8EE411AA8
:100C6000F0EE410A00286FD023B1012B4ED0022BA9
:100C70006BD16BE0734D283D2D68C5F340153DB336
:100C8000704D283D2D68C5F3C1066F4D25FA06F25B
:100C900001EE102AF8EE411A01EE100AB8EE411AE0
:100CA00081EE812A9FED691AC0EE811A654D1835D3
:100CB0002D68C5F3080501EE105AB8EE411A31EE61
:100CC000811AF7EE001A31EE211A22EE010A1CE019
:100CD00001EE100AB8EE411ADFED5D1A81EE812AAD
:100CE0009FED5A1AC0EE811A564D18352D68C5F37E
:100CF000080501EE105AB8EE411A31EE811AF7EEEE
:100D0000001A31EE211A22EE010A5BE001EE100A10
:100D1000B8EE411ADFED4F1A81EE812A9FED4B1A92
:100D2000C0EE811A474D18352D68C5F3080501EE50
:100D3000105AB8EE411A31EE811AF7EE001A31EE70
:100D4000211A22EE010A3DE077E01DE001EE100AD3
:100D5000B8EE411A9FED402AC2EE011A9FED3B1AF0
:100D600080EE812A374D18352D68C5F3080501EE50
:100D7000105AB8EE411A32EE011AB7EE002A31EEDF
:100D8000021A21EE810A1DE001EE100AB8EE411AA6
:100D9000DFED301A81EE812A9FED2C1AC0EE811A08
:100DA000284D18352D68C5F3080501EE105AB8EE28
:100DB000411A31EE811AF7EE001A31EE211A22EEB5
:100DC000010A00BF00BF1F4D18352D68C5F3462529
:100DD00001EE105AB8EE411AF7EE001A31EE211A60
:100DE000C0EE011ABCEEE11A81ED001A154D18355E
:100DF0002D68C5F3064501EE105AB8EE411AF7EE1C
:100E0000001A31EE211AC0EE011ABCEEE11A81ED92
:100E1000011A0C4D18352D68C5F3066501EE105A00
:100E2000B8EE411AF7EE001A31EE211AC0EE011A9F
:100E3000BCEEE11A81ED021A03E000250D604D6061
:100E40008D6070BD284402580090D0030000004619
:100E50000024744C0024744A20BCBE4B3F22026024
:100E6000174A126802F007024260154A08321268F7
:100E700002F470628260124A0832126802F00F02B5
:100E8000C2600F4A0832126802F0700202610C4A16
:100E90000C32126802F070024261094A0C32126888
:100EA00002F4E0628261064A1032126802F07002B7
:100EB000C261044A126802F00F020A607047000023
:100EC000104402580020005210B500F143FF0D49B4
:100ED0000968C1F303210C4A515C01F01F0120FA9B
:100EE00001F40848006800F00F001146085C00F0AB
:100EF0001F0024FA00F00549086005480460084610
:100F0000006810BD184402589E4F10088800002445
:100F10008400002400B5FFF7D7FF05490968C1F335
:100F20000211044A515C01F01F01C84000BD0000DD
:100F30001C4402589E4F10082DE9F047044614B98E
:100F40000120BDE8F087207800F00100002870D073
:100F5000FA48006800F03808F8481830D0F80090D7
:100F6000B8F1100F06D0B8F1180F0FD109F0030037
:100F700002280BD1F14810380068C0F34040002827
:100F80006AD06068002867D10120DAE700BF606896
:100F9000B0F5803F08D1E9481038006840F480304F
:100FA000E649103908602EE0606868B9E3481038F7
:100FB000006820F48030E149103908600846006874
:100FC00020F4802008601EE06068B0F5A02F0DD1ED
:100FD000DA481038006840F48020D8491039086099
:100FE0000846006840F4803008600CE0D3481038B0
:100FF000006820F48030D149103908600846006844
:1010000020F48020086000BF606898B1FFF746FDBB
:10101000054606E0FFF742FD401B642801D9032086
:101020008FE7C64810380068C0F340400028F1D070
:1010300012E012E0FFF732FD054606E0FFF72EFD55
:10104000401B642801D903207BE7BC4810380068A6
:10105000C0F340400028F1D100BF207800F002002A
:10106000022874D1B548006800F03808B348183039
:10107000D0F80090B8F1000F05D0B8F1180F56D194
:1010800009F00300D0BBAD4810380068C0F3800001
:1010900018B1E06808B9012053E7A8481038006883
:1010A00020F01900E1680843A44910390860FFF7EF
:1010B000F5FC054606E0FFF7F1FC401B022801D9CC
:1010C00003203EE79D4810380068C0F380000028E8
:1010D000F1D000BFFFF0E2FB41F2030188421AD8D1
:1010E000206940280BD195480C38006820F47C30EA
:1010F00040F4003091490C39086017E017E08F4840
:101100000C38006820F47C30216940EA01308B49BA
:101110000C3908600AE089480C38006820F0FE406D
:10112000217C40EA016085490C39086066E0E0688E
:1011300088B382481038006820F01900E16808433D
:101140007E4910390860FFF7A9FC054607E056E024
:10115000FFF7A4FC401B022801D90320F1E67748E1
:1011600010380068C0F380000028F1D000BFFFF005
:1011700095FB41F2030188421AD8206940280BD11F
:101180006E480C38006820F47C3040F400306B4925
:101190000C39086017E017E068480C38006820F444
:1011A0007C30216940EA013064490C3908600AE06A
:1011B00062480C38006820F0FE40217C40EA016063
:1011C0005E490C39086019E05C481038006820F06E
:1011D00001005A4910390860FFF760FC054606E037
:1011E000FFF75CFC401B022801D90320A9E6534805
:1011F00010380068C0F380000028F1D100BF2078CB
:1012000000F0100010287CD14C48006800F038082D
:101210004A481830D0F80090B8F1080F06D0B8F15D
:10122000180F3DD109F00300012839D14348103887
:101230000068C0F3002020B1E069802801D00120BF
:101240007FE600BFFFF02AFB41F2030188421AD873
:10125000206A20280AD139480C38006820F0F8406C
:1012600040F0804035490C39086018E033480C38AC
:10127000006820F0F84094F8201040EA81602F497F
:101280000C3908600BE02D48001F006820F07C50EE
:1012900094F8201040EA01602849091F086066E0C0
:1012A000E06978B325481038006840F08000234991
:1012B00010390860FFF7F2FB054606E0FFF7EEFB8A
:1012C000401B022801D903203BE61C481038006867
:1012D000C0F300200028F1D000BFFFF0DFFA41F298
:1012E000030188421CD8206A20280CD113480C38EE
:1012F000006820F0F84040F0804010490C39086048
:101300001AE035E01CE00D480C38006820F0F84089
:1013100094F8201040EA816008490C3908600BE01D
:101320000648001F006820F07C5094F8201040EA26
:1013300001600249091F086019E0000010440258CA
:10134000FA48006820F08000F8490860FFF7A6FB23
:10135000054606E0FFF7A2FB401B022801D9032047
:10136000EFE5F2480068C0F300200028F2D100BF8A
:10137000207800F00800082836D16069D0B1EB4829
:101380007430006840F00100E84974310860FFF7EC
:1013900085FB054606E0FFF781FB401B022801D9CB
:1013A0000320CEE5E14874300068C0F34000002817
:1013B000F1D019E0DD487430006820F00100DB490D
:1013C00074310860FFF76AFB054606E0FFF766FB2D
:1013D000401B022801D90320B3E5D44874300068CB
:1013E000C0F340000028F1D1207800F02000202830
:1013F00030D1A069B8B1CD48006840F48050CB49E5
:101400000860FFF74BFB054606E0FFF747FB401B74
:10141000022801D9032094E5C4480068C0F3403095
:101420000028F2D016E0C148006820F48050BF497F
:101430000860FFF733FB054606E0FFF72FFB401B74
:10144000022801D903207CE5B8480068C0F3403089
:101450000028F2D1207800F0040004287DD1B4489F
:10146000006840F48070B2490860FFF717FB05463A
:1014700006E0FFF713FB401B642801D9032060E559
:10148000AB48006800F480700028F2D000BFA0686C
:10149000012808D1A5487030006840F00100A34938
:1014A000703108602DE0A06868B9A048703000680D
:1014B00020F001009D49703108600846006820F066
:1014C000040008601DE0A06805280DD19748703021
:1014D000006840F0040095497031086008460068D3
:1014E00040F0010008600CE090487030006820F087
:1014F00001008E49703108600846006820F0040041
:10150000086000BFA068A0B1FFF7C8FA054608E070
:10151000FFF7C4FA401B41F28831884201D9032009
:101520000FE5824870300068C0F340000028EFD01B
:1015300013E0FFF7B3FA054608E0FFF7AFFA401BE8
:1015400041F28831884201D90320FAE477487030AB
:101550000068C0F340000028EFD1606A00287DD009
:1015600072481030006800F03800182877D0606AA0
:10157000022875D16D48006820F080706B490860C2
:10158000FFF78CFA054606E0FFF788FA401B0228B1
:1015900001D90320D5E465480068C0F34060002805
:1015A000F2D100BFD4E90A1041EA00105F492831A6
:1015B000096840F2F332914308435C4928310860DE
:1015C000208E401EC0F30800616B491E4FF47E421E
:1015D00002EA41210843218F491ED20102EA01415A
:1015E00008433C21095D491E120202EA01610843D9
:1015F0004E493031086000BF081F006820F001002C
:10160000091F08604948343000684FF6F871884374
:10161000A16C40EAC10045493431086043482C3090
:10162000006820F00C00216C084340492C31086010
:101630000846006820F00200616C08433B492C31E9
:1016400008600846006840F480300860084600687A
:1016500040F4003008600846006802E093E038E09B
:101660001FE040F4802008600846006840F0010058
:1016700008602E48006840F080702C490860FFF731
:101680000DFA054606E0FFF709FA401B022801D9CA
:10169000032056E425480068C0F340600028F2D0DB
:1016A00071E02248006820F0807020490860FFF750
:1016B000F5F9054606E0FFF7F1F9401B022801D9CC
:1016C00003203EE419480068C0F340600028F2D1CE
:1016D00059E0164828300768144830300668606AB8
:1016E000012821D007F00301A06A81421CD1C7F371
:1016F0000511E06A884217D1C6F30801206B401E2D
:10170000814211D1606B401EC6F3462188420BD145
:10171000A06B401EC6F30641884205D1E06B401E17
:10172000C6F30661884205D001200AE4004402584D
:101730000048025815480068C0F3CC07A06CB842B6
:1017400021D012480838006820F001000F490839FC
:101750000860FFF7A3F9054600BFFFF79FF9401B9C
:10176000FBD00A4800684FF6F8718843A16C40EA44
:10177000C1000649086005480838006840F00100CB
:1017800002490839086000204AE400003444025845
:101790007047704710B504460CB9012010BD94F88D
:1017A0003D0028B9002084F83C00204600F02AF8CB
:1017B000022084F83D00211D206801F11FFD012059
:1017C00084F8480000BF84F83E0001213F20015505
:1017D000402001554120015542200155432001552B
:1017E00000BF00BF012084F8440045200155462079
:1017F00001554720015500BF012084F83D0000201D
:10180000CCE7000010B586B00446142101A8FEF014
:1018100019FC2068B0F1804F35D100BFAC4800689A
:1018200040F00100AA4908600846006800F0010085
:10183000009000BF00BF00BFA5480838006840F016
:101840000200A349083908600846006800F0020059
:10185000009000BF00BF4FF4006001900220029092
:1018600000200390022004900120059001A99948CE
:10187000FEF010FF002205211C20FFF07BF81C2049
:10188000FFF064F822E194492068884233D100BF18
:101890008F48006840F002008D49086008460068E3
:1018A00000F00200009000BF00BF00BF8848083869
:1018B000006840F00400864908390860084600685E
:1018C00000F00400009000BF00BF40200190022003
:1018D00002900020039002200490059001A97F4807
:1018E000FEF0D8FE002205211D20FFF043F81D2048
:1018F000FFF02CF8EAE07A492068884233D100BF33
:101900007348006840F004007149086008460068A8
:1019100000F00400009000BF00BF00BF6C48083812
:10192000006840F002006A4908390860084600680B
:1019300000F00200009000BF00BF40200190022094
:1019400002900020039002200490059001A96148B4
:10195000FEF0A0FE002205211E20FFF00BF81E2045
:10196000FEF0F4FFB2E05F492068884216D100BF64
:101970005748006840F01000554908600846006864
:1019800000F01000009000BF00BF002205213620AB
:10199000FEF0F0FF3620FEF0D9FF97E052492068B4
:1019A000884216D100BF4A48006840F020004849EC
:1019B00008600846006800F02000009000BF00BFEB
:1019C000002205213720FEF0D5FF3720FEF0BEFFB4
:1019D0007CE04649206888423ED100BF3C48083040
:1019E000006840F002003A49083108600846006883
:1019F00000F00200009000BF00BF00BF344808386C
:101A0000006840F004003249083908600846006860
:101A100000F00400009000BF00BF80200190022071
:101A2000029000200390022004900320059001A959
:101A30002A48FEF02FFE002205212C20FEF09AFFFE
:101A40002C20FEF083FF002205212E20FEF092FFC5
:101A50002E20FEF07BFF39E025492068884235D1F1
:101A600000BF1B480830006840F480301849083136
:101A700008600846006800F48030009000BF00BF96
:101A800000BF13480838006840F0100010490839BA
:101A900008600846006800F01000009000BF00BF1A
:101AA0004020019002200290002003900220049028
:101AB0000420059001A90F48FEF0ECFD002205214D
:101AC0007420FEF057FF7420FEF040FF06B010BDFA
:101AD000E84402580004025800040040000802587C
:101AE00000080040001000400014004000040140C5
:101AF0000040014000100258014691F83D000128C5
:101B000001D001207047022081F83D000868C068BC
:101B100040F001000B68D8601C4B086898421BD04D
:101B20000868B0F1804F17D0194B0868984213D05D
:101B3000184B086898420FD0174B086898420BD092
:101B4000164B0868984207D0154B0868984203D096
:101B5000144B0868984210D108688068124B00EA5C
:101B60000302062A0FD0B2F5803F0CD00868006847
:101B700040F001000B68186005E00868006840F05C
:101B800001000B6818600020BCE700000000014065
:101B90000004004000080040000C00400004014028
:101BA00000180040004001400700010038B504461D
:101BB000FE492068884240D1207F08283CD1FC485B
:101BC0000078012802D0022836D125E00C21F948FE
:101BD00000F06EFDF8490860F6480068006A20F4DD
:101BE0002040F4490968086200BFF2480068006AB2
:101BF00020F42040EF4909680862EE480068006A56
:101C000040F40050EB490968086200BFE8480078DA
:101C1000401CE74908700FE00C21E64800F048FD41
:101C2000E54948600C21E34800F1CCFAE04800782F
:101C3000401CDF49087000BF10E2E049206888427C
:101C40006BD1207F012867D1DD48007848B9002199
:101C5000DC4800F02DFDDC4908800120D8490870DF
:101C600020E00021D74800F023FDD849088000205B
:101C7000D3490870D5480088D349098888420ADCCE
:101C8000D24800884CF250310844CF490988401AA4
:101C9000CF49088006E0CD480088CB490988401A22
:101CA000CB490880CA480088052835D103F018F8C8
:101CB000012831D0C748007890B1C748007800F1BA
:101CC0000F05E81705EB10700011A5EB00120120BD
:101CD00000FA02F16A46C148006802F18DFA11E08B
:101CE000BF48007800F10F05E81705EB10700011F0
:101CF000A5EB0012012000FA02F16A46B94800681B
:101D000002F17AFA009838B14FF08050B649086075
:101D1000BFF34F8FBFF36F8FA0E1B44920688842B3
:101D20006BD1207F022867D1B148007848B90421DF
:101D3000B04800F0BDFCB04908800120AC490870F3
:101D400020E00421AB4800F0B3FCAC49088000203F
:101D5000A7490870A9480088A749098888420ADC71
:101D6000A64800884CF250310844A3490988401A1B
:101D7000A349088006E0A14800889F490988401AC5
:101D80009F4908809E480088052835D102F0A8FFA9
:101D9000012831D08F48007890B18F48007800F149
:101DA0000F05E81705EB10700011A5EB00120120DC
:101DB00000FA02F16A469348006802F11DFA11E048
:101DC0008748007800F10F05E81705EB1070001147
:101DD000A5EB0012012000FA02F16A468A48006869
:101DE00002F10AFA009838B14FF080507E4908603D
:101DF000BFF34F8FBFF36F8F30E184492068884273
:101E00006BD1207F012867D18148007848B9002133
:101E1000804800F04DFC8049088001207C49087012
:101E200020E000217B4800F043FC7C490880002032
:101E300077490870794800887749098888420ADC20
:101E4000764800884CF25031084473490988401A9A
:101E50007349088006E0714800886F490988401A74
:101E60006F4908806E480088052835D102F038FF98
:101E7000012831D05748007890B15748007800F1D8
:101E80000F05E81705EB10700011A5EB00120120FB
:101E900000FA02F16A466348006802F1ADF911E008
:101EA0004F48007800F10F05E81705EB107000119E
:101EB000A5EB0012012000FA02F16A465A480068B8
:101EC00002F19AF9009838B14FF080504649086005
:101ED000BFF34F8FBFF36F8FC0E02068B0F1804F2A
:101EE00062D1207F082860D15048007848B90C2181
:101EF0004F4800F0DDFB4F49088001204B49087036
:101F000020E00C214A4800F0D3FB4B490880002018
:101F100046490870484800884649098888420ADCD2
:101F2000454800884CF25031084442490988401A1B
:101F30004249088006E0404800883E490988401A26
:101F40003E4908803D48008805282ED102F0C8FE91
:101F500001282AD01F48007890B11F48007800F16E
:101F60000F05E81705EB10700011A5EB001201201A
:101F700000FA02F16A463248006802F13DF911E0C8
:101F80001748007800F10F05E81705EB10700011F5
:101F9000A5EB0012012000FA02F16A462948006808
:101FA00002F12AF900984FE058E056E000000140A5
:101FB000480000242C0100244000002400080040B8
:101FC0005400002410020024500000245200002479
:101FD00056000024710000243C0000241C00002452
:101FE0003D0000242C00002404ED00E000400140EE
:101FF0005C00002440030024580000245A00002400
:102000005E00002420000024300000240004004072
:1020100064000024C4010024600000246200002445
:102020006600002424000024340000246C000024F6
:1020300078010024680000246A0000246E00002457
:10204000280000243800002438B14FF080500449A3
:102050000860BFF34F8FBFF36F8F00BF38BD000024
:1020600004ED00E02DE9F04104460D461646002738
:1020700000BF94F83C00012802D10220BDE8F081A5
:10208000012084F83C0000BF96B9EB68D5E9001246
:10209000206801F15DF92068806920F00C0021685A
:1020A000886120688069A96808432168886141E0E7
:1020B000042E13D1EB68D5E90012206801F1A4F9D0
:1020C0002068806920F44060216888612068806908
:1020D000A96840EA0120216888612BE0082E12D10E
:1020E000EB68D5E90012206801F1ABF92068C069FE
:1020F00020F00C002168C8612068C069A968084305
:102100002168C86116E00C2E13D1EB68D5E90012E6
:10211000206801F1B2F92068C06920F440602168AC
:10212000C8612068C069A96840EA01202168C861C7
:1021300000E0012700BF002084F83C0000BF3846C3
:102140009CE710B504460CB9012010BD94F83D0081
:1021500028B9002084F83C00204600F029F802202D
:1021600084F83D00211D206801F148F8012084F821
:10217000480000BF84F83E0001213F200155402067
:10218000015541200155422001554320015500BF12
:1021900000BF012084F84400452001554620015528
:1021A0004720015500BF012084F83D000020CCE706
:1021B00010B586B00446142101A8FDF043FF214963
:1021C000206888423CD100BF1F48006840F00100F1
:1021D0001D4908600846006800F00100009000BF3B
:1021E00000BF00BF18481038006840F010001649C2
:1021F000103908600846006800F01000009000BF29
:1022000000BF4FF480400190022002900020039014
:10221000022004900120059001A90C48FEF03AFA32
:10222000002205211920FEF0A5FB1920FEF08EFBEF
:10223000002205211B20FEF09DFB1B20FEF086FBEB
:1022400006B010BD00000140F044025800100258D2
:102250002DE9F04304460D46002715B994F83E00D9
:1022600015E0042D02D13F20005D10E0082D02D1C1
:102270004020005D0BE00C2D02D14120005D06E006
:10228000102D02D14220005D01E04320005D804618
:1022900015B994F844000BE0042D02D14520005DEF
:1022A00006E0082D02D14620005D01E04720005DD8
:1022B0008146B8F1010F02D1B9F1010F02D001201E
:1022C000BDE8F0831DB9022084F83E001AE0042D19
:1022D00003D102213F20015514E0082D03D1022132
:1022E000402001550EE00C2D03D102214120015563
:1022F00008E0102D03D102214220015502E0022105
:10230000432001551DB9022084F844000EE0042D3D
:1023100003D102214520015508E0082D03D10221F7
:102320004620015502E002214720015535B1042D18
:102330000BD0082D10D00C2D1CD114E02068C068E3
:1023400040F002002168C86016E02068C06840F0D4
:1023500004002168C8600FE02068C06840F00800F1
:102360002168C86008E02068C06840F0100021685B
:10237000C86001E0012700BF00BFA7BB01222946BA
:10238000206800F1A9FF1C49206888421BD0206802
:10239000B0F1804F17D019492068884213D01849EE
:1023A000206888420FD01749206888420BD0164910
:1023B0002068884207D015492068884203D0144914
:1023C0002068884210D120688068124900EA01061E
:1023D000062E0FD0B6F5803F0CD02068006840F084
:1023E00001002168086005E02068006840F00100F5
:1023F00021680860384663E700000140000400409F
:1024000000080040000C004000040140001800409B
:10241000004001400700010070B504462068C6680E
:102420002068056905F00200022819D106F00200B3
:10243000022815D1401F21680861012020772068FB
:10244000806900F0030018B12046FFF7AFFB05E0FC
:102450002046FFF032FF2046FFF030FF00202077BB
:1024600005F00400042819D106F00400042815D151
:10247000C04321680861022020772068806900F449
:10248000407018B12046FFF791FB05E02046FFF0B1
:1024900014FF2046FFF012FF0020207705F008000F
:1024A000082819D106F00800082815D1C043216872
:1024B0000861042020772068C06900F0030018B18B
:1024C0002046FFF773FB05E02046FFF0F6FE2046AE
:1024D000FFF0F4FE0020207705F01000102819D13D
:1024E00006F01000102815D1C043216808610820AB
:1024F00020772068C06900F4407018B12046FFF7CB
:1025000055FB05E02046FFF0D8FE2046FFF0D6FE42
:102510000020207705F0010048B106F0010030B13D
:102520006FF0010021680861204600F041F805F0D5
:102530008000802804D005F40050B0F5005F0AD177
:1025400006F08000802806D16FF4025021680861EF
:102550002046FFF015FD05F48070B0F5807F0AD1AC
:1025600006F08000802806D16FF480702168086131
:102570002046FFF70DF905F04000402809D106F08C
:102580004000402805D1C043216808612046FFF083
:1025900096FE05F02000202809D106F02000202812
:1025A00005D1C043216808612046FFF7F2F870BDED
:1025B00038B5044632492068884201D1FEF074F9EA
:1025C0003049206888425AD12F480078F0B12F490D
:1025D0000978481CC11700EB11710911A0EB01111A
:1025E0002A4A11701046007800F04AFB274800780C
:1025F00000F06AFB25480078002840D1FEF72CF84F
:10260000FEF74CF800202049087038E0204909788E
:10261000481CC11700EB11710911A0EB01111C4AF4
:1026200011701046007800F02BFB1948007800F07C
:102630004BFB1648007810BB15480078F8B900200D
:1026400014490870FEF71AF81348FFF001FD002145
:102650001248FFF0B7FD04211148FFF0B3FD00213F
:102660001048FFF0AFFD0C210F48FFF0ABFD01203B
:102670000549087069460D48006801F081FF38BDC2
:102680000048014000100040710000243C0000247C
:102690003D000024480000245C02002410020024B5
:1026A00040030024C4010024780100241400002405
:1026B0000246002031B1042907D0082908D00C298E
:1026C0000CD108E01368586B09E01368986B06E0BA
:1026D0001368D86B03E01368186C00E000BF00BFFC
:1026E0007047014600BF91F88400012801D1022003
:1026F0007047012081F8840000BF2420C1F88800C1
:10270000086802680868006820F001000B6818601B
:1027100022F0005200204866086802602020C1F8BC
:10272000880000BF002081F8840000BF00BFDFE701
:10273000704770B504460D4600BF94F88400012828
:1027400001D1022070BD012084F8840000BF242044
:10275000C4F88800206806682068006820F001003E
:10276000216808602068806820F060602843216844
:102770008860204600F1A8FE206806602020C4F88A
:10278000880000BF002084F8840000BF00BFD9E7A4
:1027900070B504460D4600BF94F88400012801D1AD
:1027A000022070BD012084F8840000BF2420C4F8FA
:1027B0008800206806682068006820F00100216811
:1027C00008602068806820F06040284321688860A5
:1027D000204600F179FE206806602020C4F88800B9
:1027E00000BF002084F8840000BF00BFD9E7704715
:1027F000704710B504460CB9012010BDA06900B1A6
:1028000000E000BFD4F8880028B9002084F88400D4
:102810002046FFF0A1FF2420C4F88800206800684B
:1028200020F0010021680860A06A10B1204600F085
:1028300087FD204600F00CFE012800D1DDE720686E
:10284000406820F49040216848602068806820F04B
:102850002A00216888602068006840F00100216833
:102860000860204600F15CFEC7E700BFFEE70000FD
:1028700010B500224FF480410A48FEF009F800220A
:102880004FF400510748FEF003F800224FF40041D6
:102890000448FDF0FDFF002201210348FDF0F8FF90
:1028A00010BD0000000C02580010025810B5294A53
:1028B0000021102001F072F927490860274A002101
:1028C000274800F153FF27490860274A002127487D
:1028D00000F14CFF26490860264A0021264800F1F5
:1028E00045FF26490860264A0021264800F13EFFA0
:1028F00025490860254A0021254800F137FF254970
:102900000860254801F027F924490860244801F0AF
:1029100022F924490860244801F01DF92349086080
:10292000234801F018F923490860234801F013F9FE
:1029300022490860224801F00EF922490860224825
:1029400001F009F921490860214801F004F9214901
:10295000086010BD6050000818000024AC4F00084B
:10296000C52F000804000024D04F0008E5301008EF
:1029700008000024F44F0008553110080C00002412
:1029800018500008192D0008100000243C500008C1
:10299000B92D000814000024705000081C00002409
:1029A00080500008200000249050000824000024DB
:1029B000A050000828000024B05000082C0000247B
:1029C000C050000830000024D0500008340000241B
:1029D000E05000083800002400B587B0142102A898
:1029E000FDF030FB00BF6448006840F01000624911
:1029F00008600846006800F01000019000BF00BFAA
:102A000000BF0846006840F0800008600846006883
:102A100000F08000019000BF00BF00BF08460068C2
:102A200040F0010008600846006800F001000190D5
:102A300000BF00BF00BF0846006840F00200086009
:102A40000846006800F00200019000BF00BF00BF10
:102A50000846006840F0080008600846006800F07A
:102A60000800019000BF00BF00BF0846006840F0AA
:102A7000040008600846006800F00400019000BFF0
:102A800000BF002208213D48FDF002FF0022042182
:102A90003B48FDF0FDFE00224FF400413948FDF0B7
:102AA000F7FE01224FF63E713748FDF0F1FE00229D
:102AB00001213548FDF0ECFE012203212F48FDF0F5
:102AC000E7FE0820029001200390002004900220DD
:102AD000059002A92948FDF0DDFD042002900120A7
:102AE0000390002004900220059002A92448FDF0E4
:102AF000D1FD062002904FF488100390002004902E
:102B000002A92048FDF0C6FD4FF4004002901120BC
:102B10000390002004900220059002A91948FDF0BE
:102B2000B9FD4FF63F7002901120039000200490F1
:102B30000220059002A91448FDF0ACFD032002908C
:102B400011200390002004900220059002A90B4858
:102B5000FDF0A0FD002205210720FDF00BFF07205E
:102B6000FDF0F4FE002205210820FDF003FF0820FF
:102B7000FDF0ECFE07B000BDE04402580010025822
:102B80000000025800040258000C025800B58BB037
:102B900000200790089009900A90049005900690F4
:102BA00000900190029003901F4820490860EF2098
:102BB000486000211D4881604CF24F31C160002106
:102BC000016180218161FEF7E5FD08B1FDF779FD26
:102BD0004FF48050079007A91448FFF059FA08B144
:102BE000FDF76FFD1148FFF7ACFA08B1FDF769FD7D
:102BF00000200490069004A90C48FFF0C3F908B126
:102C0000FDF75FFD00200090012001900020029060
:102C10000390002269460548FFF724FA08B1FDF742
:102C200050FD0BB000BD000000040040C4010024B2
:102C30000EB500200090019002900E480E490860E9
:102C4000EF20486000210C4881600921C16080218B
:102C50008161FEF79FFD08B1FDF733FD0020009074
:102C6000029069460448FFF08DF908B1FDF729FD8F
:102C70000EBD0000001000405C02002400BFFEE713
:102C80002DE9F041044604F00F04E508C4F3800682
:102C9000C4F3400704F001082A4620210948FDF04A
:102CA000F7FD324610210748FDF0F2FD3A460821B3
:102CB0000448FDF0EDFD424604210248FDF0E8FD28
:102CC000BDE8F081000C02582DE9F041044604F003
:102CD0000F04E508C4F38006C4F3400704F00108BC
:102CE0002A464FF480510B48FDF0D2FD32464FF496
:102CF00000610848FDF0CCFD3A464FF4806105487C
:102D0000FDF0C6FD42464FF400710248FDF0C0FDE3
:102D1000BDE8F081000C025808B5002501F0F0FF75
:102D2000009000BF0021084600F1ECFF0446012C92
:102D300014D1002010E004E01B490988491C1A4AFC
:102D400011801A491A4A127851F82210014101F0F3
:102D500001010029F0D1401C2028ECDB1548006857
:102D600001F10AF885B20A211248006801F164FDF8
:102D70000D48008828440C49088000250846008832
:102D800000280CDD08460088401E0880FFF770FD13
:102D90004FF4FA71684601F1E5F8FFF0DDFD01201E
:102DA00000F18EFCBEE70000000000241C0100249E
:102DB000030000241800002490B000200C900D9017
:102DC0000E900F90089009900A900B907048006840
:102DD00000907048006801906F48006802906F484A
:102DE000006803906E48006804906E480068059083
:102DF0006D48006806906D480068079000BF00218C
:102E0000084600F17FFF0446012C34D16848007861
:102E100090B300206749087026E0664909780122CE
:102E200002EB41015DF8210000F080FE81B26248B2
:102E3000604A127840F822105E49097849005DF82E
:102E4000210000F073FE5C495A4A127851F82210B2
:102E500041EA00405849574A127841F82200554843
:102E60000078401C53490870524800780428D4DB8D
:102E700000204F49087086E0FFE700204D490870A8
:102E800068E04C490978012202EB41015DF821001C
:102E900000F04CFE81B20CA8464A127840F822108D
:102EA0004449097849005DF8210000F03FFE0CA973
:102EB000404A127851F8221041EA00400CA93D4ADC
:102EC000127841F822003C483A49097850F821002C
:102ED0000CA9384A127851F8221048403749354A2F
:102EE000127841F822000CA83249097850F82100E4
:102EF0003149304A127851F82210411A08A82D4A57
:102F0000127840F822102D482A49097850F82100FB
:102F100088B108A82749097850F8210000280ADD5F
:102F200001F0DEFE012806D00023022219462448C3
:102F3000006801F133FE0CA81E49097850F8210001
:102F40001D491C4A127841F822001A480078401C9A
:102F50001849087017480078042892DB00201549AA
:102F600008700CE0134A12785DF822004FF6FF71EA
:102F700001F104F90F480078401C0E4908700D4813
:102F800000780828EEDB012000F19AFB37E700000B
:102F90001C0000242C000024200000243000002409
:102FA00024000024340000242800002438000024D9
:102FB00002000024030000240C0100241C01002452
:102FC0001000002400BF2E48007810B1032852D111
:102FD00021E02B480078401C2949087029480068E6
:102FE000006A20F4204027490968086200BF25488C
:102FF0000068006A20F420402249096808622148DC
:103000000068006A1F490968086200BF0C211D485A
:10301000FFF71EF92FE01C4840681B4909688842E9
:1030200009D2194840681949084417490968401AE3
:103030001749086006E01448406813490968401AB7
:1030400013490860124800681B2811D105200C495B
:1030500008700023022219460E48006801F19EFD07
:103060000023022219460C48006801F197FD02E096
:1030700000200349087000BF012000F121FBA2E7F6
:10308000480000242C01002440000024A0860100F8
:103090004C000024080000240C00002410B54FF060
:1030A000E020006901F01CFE012801D001F1B6F812
:1030B00010BD000000B59DB04C210AA8FCF0C2FF75
:1030C000202102A8FCF0BEFF0220FDF0A5FC00BFFD
:1030D000002001904048006820F001003E4908604F
:1030E0000846006800F0010001903C48006840F488
:1030F00040403A4908600846006800F440400190AA
:1031000000BF00BF00BF35480068C0F34030002852
:10311000F9D000BF3248006840F002003049086032
:103120000846006800F00200019000BF00BF00BF29
:10313000002001902948006840F440402749086079
:103140000846006800F4404001902348006840F0C1
:103150000100214908600846006800F00100019064
:1031600000BF00BF00BF1D480068C0F3403000280A
:10317000F9D001200A9000040B9002201390022144
:10318000149105211591C0211691022117911891D2
:10319000199108211A9100211B911C910AA8FDF791
:1031A000CBFE08B1FDF78DFA3F200290032003907B
:1031B0000020049008200590402006900790000110
:1031C000089040200990042102A8FEF021FC08B1DB
:1031D000FDF777FA1DB000BD2C04005818480258BE
:1031E000F44402583448006840F4700032490860E2
:1031F0003248006800F00F00072806D22F48006808
:1032000020F00F00C01D2D4908602D48006840F0D7
:1032100001002B4908600020294910310860284826
:10322000006828490840264908602448006800F0E2
:103230000F00072806D92148006820F00F00C01DA4
:103240001E49086000201E4918310860091D0860E9
:10325000091D08601C481A49283108601B48091DCF
:1032600008601B48091D08600020091D08601848F7
:10327000091D08600020091D08601548091D086027
:103280000020091D08600E48006820F480200C49C9
:10329000086000200A49603108600E4800686FF33A
:1032A0000F00B0F1005F02D201200B49086043F229
:1032B000D2000A490860704788ED00E00020005203
:1032C000004402587FEDF6EA000202020000FF010E
:1032D000800201010010005C088100510040005292
:1032E00010B50248FFF798F810BD00004003002415
:1032F00010B50248FFF790F810BD00002C01002423
:1033000010B50248FFF788F810BD000078010024CE
:1033100010B50248FFF780F810BD0000100200242D
:1033200010B50248FFF778F810BD0000A80200248D
:1033300010B50248FFF770F810BD0000F402002439
:1033400090F8281001F00801082907D101684968A0
:1033500021F40041826B11430268516090F82810FB
:1033600001F0010139B10168496821F40031C26AF4
:1033700011430268516090F8281001F002010229FF
:1033800007D10168496821F48031026B114302685A
:10339000516090F8281001F00401042907D1016858
:1033A000496821F48021426B11430268516090F812
:1033B000281001F01001102907D10168896821F453
:1033C0008051C26B11430268916090F8281001F09F
:1033D0002001202907D10168896821F40051026C7D
:1033E00011430268916090F8281001F040014029D3
:1033F00013D10168496821F48011426C11430268BD
:103400005160416CB1F5801F07D10168496821F412
:10341000C001826C11430268516090F8281001F0DD
:103420008001802907D10168496821F40021C26C1C
:10343000114302685160704770B50546AC6B0020BF
:10344000A4F85E00A4F856002046FFF7D1F970BD3D
:103450002DE9F04F89B0054600200890F84928680A
:10346000884200D100E000BF2969A8680843696963
:103470000843E96940EA010828680068F149084002
:1034800040EA0800296808602868406820F4405035
:10349000E968084329684860D5F81880E849286831
:1034A000884202D0286A40EA080828688068E6490D
:1034B000084040EA0800296888602868C06A20F04F
:1034C0000F00696A08432968C86200BFDF4928689D
:1034D000884220D1DE48006800F03800182811D05A
:1034E00005DC48B1082809D0102811D108E02028AF
:1034F0000AD028280CD109E001240BE0042409E0BB
:10350000082407E0102405E0202403E0402401E023
:10351000802400BFF8E0CF492868884219D1CC4800
:10352000006800F00700062810D2DFE800F003056D
:1035300007090B0D00240BE0042409E0082407E030
:10354000102405E0202403E0402401E0802400BF93
:10355000DAE0C1492868884219D1BD48006800F006
:103560000700062810D2DFE800F0030507090B0D5D
:1035700000240BE0042409E0082407E0102405E0FF
:10358000202403E0402401E0802400BFBCE0B349D4
:103590002868884219D1AE48006800F00700062864
:1035A00010D2DFE800F0030507090B0D00240BE043
:1035B000042409E0082407E0102405E0202403E0A7
:1035C000402401E0802400BF9EE0A549286888428D
:1035D00019D19F48006800F00700062810D2DFE8E4
:1035E00000F0030507090B0D00240BE0042409E09B
:1035F000082407E0102405E0202403E0402401E033
:10360000802400BF80E097492868884220D19048F4
:10361000006800F03800182811D005DC48B10828EF
:1036200009D0102811D108E020280AD028280CD170
:1036300009E001240BE0042409E0082407E0102439
:1036400005E0202403E0402401E0802400BF5BE08B
:1036500085492868884219D17D48006800F0070034
:10366000062810D2DFE800F0030507090B0D00243F
:103670000BE0042409E0082407E0102405E02024DE
:1036800003E0402401E0802400BF3DE07749286842
:10369000884219D16E48006800F00700062810D251
:1036A000DFE800F0030507090B0D00240BE00424FC
:1036B00009E0082407E0102405E0202403E040246A
:1036C00001E0802400BF1FE05D49286888421AD1CC
:1036D0005F48001D006800F00700062810D2DFE8F0
:1036E00000F0030507090B0D02240BE0042409E098
:1036F000082407E0102405E0202403E0402401E032
:10370000802400BF00E0802400BF4D492868884223
:103710007DD1102C1AD006DC022C09D0042C0BD041
:10372000082C29D10DE0202C21D0402C24D120E0E0
:10373000FDF76AFA064623E005A8FDF09DF9069E0E
:103740001EE002A8FDF772FA039E19E040485438C3
:103750000068C0F3401040B13D4854380068C0F3E1
:10376000C101434820FA01F600E0414E08E0414E15
:1037700006E04FF4004603E000260120089000BF59
:1037800000BF002E10D03C49686A31F81000B6FB2B
:10379000F0F9686800EB4000484503D8686800030A
:1037A000484502D20120089003E13349686A31F8A4
:1037B00010C06246002330461946FCF71AFE4FF44B
:1037C000807300228446ACFB030B01FB03B10CFBAE
:1037D000021C69684908034659184CEB0200CDE900
:1037E0000010D5F804C06246002308460199FCF792
:1037F00000FE0746B7F5407F06D3B7F5801F03D21A
:103800002868C760D5E002E001200890D1E0E869AF
:10381000B0F5004F7BD1082C39D005DC5CB1012C10
:103820002CD0042C4CD12DE0102C35D0202C42D0A3
:10383000402C45D141E0FDF76DFB064644E0000019
:10384000000C0058F369FFCFFFF4FF110010014096
:10385000544402580044004000480040004C0040DE
:10386000005000400014014000780040007C0040FF
:103870000090D00300093D00864F1008FEF058FA72
:10388000064621E005A8FDF0F7F8069E1CE002A818
:10389000FDF7CCF9039E17E04C480068C0F34010D8
:1038A00038B14A480068C0F3C101494820FA01F61E
:1038B00000E0474E08E0474E06E04FF4004603E0C4
:1038C00000260120089000BF00BFFEB14249686A8F
:1038D00031F81000B6FBF0F04000696800EB5100D1
:1038E000B0FBF1F7102F0FD3B7F5803F0CD24FF696
:1038F000F07007EA000AC7F342004AEA000A2868A3
:10390000C0F80CA055E002E00120089051E0082C1E
:103910001AD005DC5CB1012C0DD0042C2DD10EE0A9
:10392000102C16D0202C23D0402C26D122E0FDF7DD
:10393000F1FA064625E0FEF0FBF9064621E005A86F
:10394000FDF09AF8069E1CE002A8FDF76FF9039EB1
:1039500017E01E480068C0F3401038B11B480068EB
:10396000C0F3C1011A4820FA01F600E0184E08E041
:10397000184E06E04FF4004603E0002601200890B0
:1039800000BF00BFAEB11449686A31F81000B6FB41
:10399000F0F0696800EB5100B0FBF1F7102F06D38F
:1039A000B7F5803F03D2B8B22968C86001E00120B2
:1039B00008900120A5F86A00A5F868000020686753
:1039C000A867089809B0BDE8F08F000000440258CD
:1039D0000090D00300093D00864F10082DE9F0410A
:1039E00004460D4617469846069E41E0701C002886
:1039F0003ED0FDF753F8A0EB0800B04200D816B94E
:103A00000320BDE8F0812068006800F0040070B376
:103A1000802D2DD0402D2BD02068C069C0F3C00070
:103A200078B10820216808622046FFF0EFFD0820E9
:103A3000C4F8900000BF002084F8840000BF01207B
:103A4000DFE72068C069C0F3C02080B14FF4006098
:103A5000216808622046FFF0D9FD2020C4F89000BC
:103A600000BF002084F8840000BF0320C9E7FFE7FF
:103A70002068C0692840A84201D1012000E0002050
:103A8000B842B3D00020BCE710B50248FEF01AFCE3
:103A900010BD00002004002410B5002804DB0A0734
:103AA000130E054A135406E00A07140E034A00F0E9
:103AB0000F031B1FD45410BD00E400E018ED00E01C
:103AC000EFF305807047000013B50C464FF6FF7307
:103AD000012269460248FEF0DDFE00981CBD000090
:103AE00020040024FEF052FFFCF7DEFFFFF7E2FAAD
:103AF000FEF772FFFFF008F8FFF748F8FFF054F800
:103B0000FFF0CAF8FEF06EFFFEF0BEFFFFF018F9FE
:103B1000FFF78EF8FFF04AF9FFF098F8FFF0E0FDAC
:103B2000FEF7C4FEFFF0F2FD00BFFEE770B50546EC
:103B30002E460DB900240CE0FFF7C2FF20B130463D
:103B400000F0D1FE044604E00021304600F116FBEF
:103B50000446204670BD70B504460026FFF7B0FF4E
:103B6000D0B9751E64B1A06820B1E068202801D3E7
:103B7000012506E0A06820B9E06810B9002500E042
:103B80000025012D04D1A06800F080FE064603E068
:103B900015B900F121FB0646304670BD2DE9F8430A
:103BA00005460F4614464FF00008FFF789FF00282E
:103BB00057D1002D55D0AF4253D8461E64B1A068EE
:103BC00020B1E068502801D3012606E0A06820B9A2
:103BD000E06810B9002600E00026701C002840D0E4
:103BE000012D23D1012E09D103200090002211467E
:103BF0000120A36801F003F8804605E003220021BC
:103C0000012000F0CFFF8046B8F1000F1CD0DFB1DB
:103C100000231A461946404600F198FB012813D0AC
:103C2000404600F07BFC4FF000080DE0012E06D16D
:103C300039462846A26800F10BFB804604E039466D
:103C4000284600F081FF8046B8F1000F09D014B17A
:103C5000D4F8009001E04FF000094946404600F1D9
:103C600017F94046BDE8F88308B500F0D3FB1248C9
:103C70000068E8B9114800F099FB114800F096FB84
:103C80000E48104908600E480F49086000200F4B8D
:103C90000F4A102100900A2000F0B1FF0649086089
:103CA0000846006820B10BA10348006800F1F0F855
:103CB00000F0DAFB08BD0000D0000024040A002454
:103CC000180A0024C8000024CC0000242C0A002478
:103CD0007C0A0024546D7251000000000146084A1D
:103CE000126812680AB9012200E000220A600A681C
:103CF00022B9034A1268D268106800E000207047B9
:103D0000C800002430B54FF47053174800F0070482
:103D10002CB1C01D20F00700134C041B1B1B0246D6
:103D2000124C22600024114D6C60D018083820F02D
:103D300007000F4C206000240D4D2D686C600C4D69
:103D40002D682C601146441A4C60094C24680C60A4
:103D5000084D4C682C60084D4C682C604FF00044B6
:103D6000064D2C6030BD0000D4110024E00000247A
:103D7000E8000024F0000024EC000024FC000024F3
:103D80002DE9F04106460D4617469846069C0DB9AA
:103D9000246000E02760E66325640121204600F1ED
:103DA00089FA84F84C80BDE8F0812DE9F05F824605
:103DB0000E4690469B460A9F0C9C4FEA8801A5221E
:103DC000206BFCF7DEFBA8F10100216B01EB800901
:103DD00029F0070909F0070008B9012000E00020D8
:103DE00050B900BF502080F31188BFF34F8FBFF34D
:103DF0006F8F00BF00BFFEE786B1002507E0715D51
:103E000004F134004155705D00B902E06D1C102DC5
:103E1000F5D300BF00214320015502E0002084F8C3
:103E20003400382F00D33727E762E764002020658D
:103E3000201DFFF0C3FF04F11800FFF0BFFF246155
:103E4000C7F13800A06164620020606584F8580002
:103E50005A465146484600F06BFA20600B9808B16C
:103E60000B980460BDE8F09F10B5002407E004EB58
:103E700084010F4A02EB810000F098FA641C382C90
:103E8000F5D30C4800F092FA0B4800F08FFA0B487B
:103E900000F08CFA0A4800F089FA0A4800F086FA25
:103EA00004480949086004480849086010BD00003A
:103EB00040050024A0090024B4090024C8090024F6
:103EC000DC090024F0090024900000249400002460
:103ED00010B50146164800E0006803688B42FBD32A
:103EE0000246436813448B4204D143684C68234420
:103EF000436001460A464B6813440468A34211D14B
:103F00000C4C03682468A34208D04B6804686468BA
:103F100023444B6003681B680B6005E0054B1B687E
:103F20000B6001E003680B60884200D0016010BDA7
:103F3000E0000024E80000242DE9F04104460D468D
:103F400016461F464FF0000865602461B5420CD844
:103F5000F01BA169884202D34FF0010811E0211D36
:103F60000948006800F02FFA0BE0BE4204D2BD42BF
:103F700002D34FF0010804E0211D0448006800F05E
:103F800022FA4046BDE8F081CC000024C80000249D
:103F900070B5054600F03EFAA86BE96B884201D186
:103FA000012400E0002400F05FFA204670BD00000C
:103FB000F0B587B0A0E00398002811DA04AE56B936
:103FC00000BF502080F31188BFF34F8FBFF36F8F76
:103FD00000BF00BFFEE7D6E90020B168904700BFF0
:103FE00003980028E6DB059C606908B9012000E021
:103FF000002010B9201D00F0B1F902A800F0C4F8AB
:10400000054603980A2875D2DFE800F0090507394C
:10401000416306083A4200BF00BF00BF00BF94F8EA
:10402000280040F0010084F828000498A269811853
:1040300003462A462046FFF77FFFF8B12046216A53
:10404000884794F8280000F00400B8B100200090E0
:104050000498A169421800231946204600F04AFF3F
:10406000074657B900BF502080F31188BFF34F8F28
:10407000BFF36F8F00BF00BFFEE700BF3BE000BF94
:1040800094F8280020F0010084F8280033E000BFF5
:1040900094F8280040F0010084F828000498A061FA
:1040A000A06908B1012000E0002050B900BF5020F5
:1040B00080F31188BFF34F8FBFF36F8F00BF00BF36
:1040C000FEE7A06941192B462A462046FFF734FF38
:1040D00011E094F8280000F0020018B92046FFF023
:1040E00071FE05E094F8280020F0010084F8280013
:1040F00001E0FFE700BF00BF002203A904480068F9
:1041000000F1E6FA00287FF456AF07B0F0BD0000DA
:10411000D0000024F8B505460C4600F127F86846A3
:1041200000F032F80646009820BB44B9B54206D8E4
:1041300000F166FE31462846FFF0DAFC1CE03CB197
:104140000E480068006808B9012000E0002004461D
:10415000A91B22460A480068FFF0B0FE00F150FE9D
:1041600050B94FF0805007490860BFF34F8FBFF33D
:104170006F8F01E000F144FEF8BD0000CC00002488
:10418000D000002404ED00E070B5044600F0B8FD56
:10419000054607480068854204D200F00BF801206C
:1041A000206001E00020206001480560284670BDC5
:1041B000D80000242DE9F84334E025480068C068A1
:1041C000056823480068C068C468201D00F0C6F870
:1041D0002046216A884794F8280000F0040008B3BC
:1041E000A0694619AE4207D966602461211D1848AE
:1041F000006800F0E8F815E0002003462A46014672
:104200000090204600F076FE074657B900BF5020C8
:1042100080F31188BFF34F8FBFF36F8F00BF00BFD4
:10422000FEE700BF0A480068006808B9012000E006
:1042300000200028C1D00648D0F80080054800685A
:10424000034908600348C0F80080BDE8F883000017
:10425000C8000024CC0000240E480068401C08B9A7
:10426000012000E0002050B900BF502080F31188E9
:10427000BFF34F8FBFF36F8F00BF00BFFEE700BFDC
:10428000502080F31188BFF34F8FBFF36F8F00BFB3
:1042900000BFFEE70001002408B500BF6846FFF735
:1042A0001DFD044620460099FFF734FFFFF780FE0E
:1042B000F4E770B5044600F0ADF894F9455010E00D
:1042C000606A08B9012000E0002038B904F1240038
:1042D00000F14AFD18B1FFF0BBFE00E003E0681EEC
:1042E00045B2002DECDC00BFFF2084F8450000F053
:1042F000BBF800F08FF894F9445010E0206908B939
:10430000012000E0002048B904F1100000F12CFD6C
:1043100008B1FFF09DFE681E45B200E001E0002DEF
:10432000ECDC00BFFF2084F8440000F09DF870BD75
:10433000001F4FF080730360001F21F00103036032
:10434000001F054B036014380260001F6FF002036A
:1043500003602038704700005942000801460A698E
:10436000D1E901309860D1E9010358605068884272
:1043700001D188685060002008611068401E1060FC
:1043800010687047034B0360034B0B60802313607E
:10439000704700001C0B0024780B002470B5044605
:1043A0000D462946204600F0B4FA70BD00F1080120
:1043B00041604FF0FF31816000F10801C16001618F
:1043C00000210160704710B502460B685C1C0CB9F7
:1043D000106907E002F1080000E0406844682468C2
:1043E0009C42FAD944684C604C68A1608860416086
:1043F0000A611468641C146010BD42684A609368C6
:104400008B60936859609160086103685B1C03606E
:104410007047000000BF502080F31188BFF34F8F1A
:10442000BFF36F8F00BF0E480068401C0C49086046
:1044300008460068012812D10A480068C0B208B9CD
:10444000012000E0002050B900BF502080F3118807
:10445000BFF34F8FBFF36F8F00BF00BFFEE7704702
:104460000001002404ED00E00D48006850B900BFD1
:10447000502080F31188BFF34F8FBFF36F8F00BFC1
:1044800000BFFEE706480068401E05490860084670
:10449000006820B9002080F3118800BF00BF70477A
:1044A0000001002470B5FBF7A1FF0446102C16D3C1
:1044B00004F1E02090F8F05315480078854201DBC4
:1044C000012000E0002050B900BF502080F3118887
:1044D000BFF34F8FBFF36F8F00BF00BFFEE70D48E4
:1044E000006800F4E0600C490968884201D80120A6
:1044F00000E0002050B900BF502080F31188BFF3C6
:104500004F8FBFF36F8F00BF00BFFEE770BD00008D
:10451000040100240CED00E00801002470B50446FD
:10452000254655B900BF502080F31188BFF34F8F47
:10453000BFF36F8F00BF00BFFEE7284600F008F80A
:1045400095F8460010B92846FFF03CFC70BD00000D
:10455000014600200EE0094A02EBC00252688A427E
:1045600007D10022054B43F8302003EBC0035A600B
:1045700002E0401C0828EED300BF7047000500246D
:104580002DE9F04105460F4655B900BF502080F394
:104590001188BFF34F8FBFF36F8F00BF00BFFEE7DF
:1045A000FFF780FF2C4600BF5021EFF3118081F30D
:1045B0001188BFF34F8FBFF36F8F00BF064694F88B
:1045C0005880022084F85800606D401C6065B8F186
:1045D000010F39D1A06A08B9012000E0002050B9CC
:1045E00000BF502080F31188BFF34F8FBFF36F8F50
:1045F00000BF00BFFEE717480068A0B9201DFFF705
:10460000ADFE1549E06A0968884202D91249E06A9C
:104610000860E16A01EB8101104A02EB8100211D73
:10462000FFF7EBFE04E004F118010D48FFF7E5FE8B
:104630000C49E06A0968C96A884205D90FB10120AE
:10464000386001200849086000BF86F3118800BF68
:10465000BDE8F081C4000024A4000024400500242B
:10466000C80900248C000024B000002470B5044662
:104670000D4654B900BF502080F31188BFF34F8F0F
:10468000BFF36F8F00BF00BFFEE705480168183118
:104690002046FFF798FE01212846FFF0C3F870BDC1
:1046A0008C00002470B505460E462148006808B10C
:1046B000012000E0002050B900BF502080F3118895
:1046C000BFF34F8FBFF36F8F00BF00BFFEE746F011
:1046D00000402860EC6854B900BF502080F3118876
:1046E000BFF34F8FBFF36F8F00BF00BFFEE72846B9
:1046F000FFF734FE201DFFF731FE0E49E06A09681E
:10470000884202D90B49E06A0860E16A01EB810145
:10471000094A02EB8100211DFFF76FFE0749E06A9D
:104720000968C96A884202D901200549086070BD3C
:10473000C4000024A4000024400500248C000024B0
:10474000B000002410B586B000200590049003AAA4
:1047500004A905A8FFF716FE0022DDE904101346A0
:10476000CDE9002102901EA11F48039A00F1B8F97B
:104770001E4908600846006808B1012400E00024D2
:10478000012C02D100F1BEFB0446012C15D100BF63
:10479000502080F31188BFF34F8FBFF36F8F00BF9E
:1047A0004FF0FF30124908600120124908600020D4
:1047B0001149086000F014F910E0601C08B10120F4
:1047C00000E0002050B900BF502080F31188BFF3F3
:1047D0004F8FBFF36F8F00BF00BFFEE706B010BD65
:1047E00049444C4500000000AD3A1008C0000024C8
:1047F000BC000024A8000024A00000241E4800687B
:1048000018B101201D49086034E000201B490860F0
:104810001B4801680CE051B900BF502080F311889B
:10482000BFF34F8FBFF36F8F00BF00BFFEE7491E7E
:1048300001EB8100134A52F8200008B9012000E082
:1048400000200028E7D101EB81020E4B03EB820030
:1048500042685268426000F108024368934202D104
:104860004268526842604268D268074B1A60044846
:10487000016000BF70470000C4000024B0000024A5
:10488000A4000024400500248C00002438B505460F
:1048900055B900BF502080F31188BFF34F8FBFF38D
:1048A0006F8F00BF00BFFEE72020009000982028F7
:1048B00001D1012000E0002050B900BF502080F35A
:1048C0001188BFF34F8FBFF36F8F00BF00BFFEE7AC
:1048D0002C4634B100202060201DFFF767FD012029
:1048E0002077204638BD70B501460B4600BF5025E5
:1048F000EFF3118085F31188BFF34F8FBFF36F8FF4
:1049000000BF02461C68104680F3118800BF204695
:1049100070BD2DE9FE4F07468846002001903C46B9
:10492000009057B900BF502080F31188BFF34F8F1C
:10493000BFF36F8F00BF00BFFEE708F07F4008B9EC
:10494000012000E0002050B900BF502080F3118802
:10495000BFF34F8FBFF36F8F00BF00BFFEE704F1BF
:10496000040909F108000290FFF000FCD9F80C607E
:10497000206840EA0800206026E0D6F804B03568D8
:104980000020009005F07F4A25F07F450AF0806006
:1049900028B92068284040B10120009005E0206837
:1049A0002840A84201D101200090009858B10AF097
:1049B000807010B1019828430190206840F0007188
:1049C0003046FFF76FFE5E4602988642D5D12068DA
:1049D00001998843206000F113FA2068BDE8FE8F3A
:1049E0001CB5524800685249884201D0012000E0BD
:1049F000002050B900BF502080F31188BFF34F8FC3
:104A0000BFF36F8F00BF00BFFEE74848006848490A
:104A1000491E884201D0012000E0002050B900BFAB
:104A2000502080F31188BFF34F8FBFF36F8F00BF0B
:104A300000BFFEE73F49084600780190FF200A4684
:104A400010700846007800909DF8000000F0F0001B
:104A50009DF80020904201D1012000E0002050B9D3
:104A600000BF502080F31188BFF34F8FBFF36F8FCB
:104A700000BF00BFFEE79DF8000000F050002E4A86
:104A8000107007202D4A106009E02C480068401E75
:104A90002A4A10609DF800004006000E00909DF824
:104AA000000000F080008028EFD024480068C0F1AA
:104AB0000700042801D1012000E0002050B900BF08
:104AC000502080F31188BFF34F8FBFF36F8F00BF6B
:104AD00000BFFEE7194800680002184A106010463F
:104AE000008800F4E0601060124A019810700F48CE
:104AF0002030006840F470000C49203108600846FE
:104B0000006840F070400860FFF0AEF900200C49EA
:104B10000860FBF733FC0B48006840F0404009494F
:104B20000860FBF717FC00201CBD000000ED00E052
:104B300071C20F4100E400E00401002408010024D8
:104B40000001002434EF00E070B505460E460DB1BB
:104B5000012000E0002050B900BF502080F31188F0
:104B6000BFF34F8FBFF36F8F00BF00BFFEE7AE42B2
:104B700001D8012000E0002050B900BF502080F390
:104B80001188BFF34F8FBFF36F8F00BF00BFFEE7E9
:104B900002220021284600F005F8044604B1A6636D
:104BA000204670BD2DE9F84305460E4617460DB167
:104BB000012000E0002050B900BF502080F3118890
:104BC000BFF34F8FBFF36F8F00BF00BFFEE705FB42
:104BD00006F808F15000FEF0DFFF044664B1A1467C
:104BE00009F15009002084F846003B464A46314608
:104BF00028460094FFF7C4F82046BDE8F8832DE965
:104C0000F84380460E4617461D46DDF82090B8F161
:104C1000000F01D0012000E0002050B900BF50205B
:104C200080F31188BFF34F8FBFF36F8F00BF00BFBA
:104C3000FEE70DB1012000E0002050B900BF502078
:104C400080F31188BFF34F8FBFF36F8F00BF00BF9A
:104C5000FEE707B10EB1012000E0002050B900BF0F
:104C6000502080F31188BFF34F8FBFF36F8F00BFC9
:104C700000BFFEE707B90EB9012000E0002050B9DF
:104C800000BF502080F31188BFF34F8FBFF36F8FA9
:104C900000BF00BFFEE7502000900098502801D1CF
:104CA000012000E0002050B900BF502080F311889F
:104CB000BFF34F8FBFF36F8F00BF00BFFEE700BF92
:104CC0002C464CB1012084F846004B463A4631460A
:104CD00040460094FFF754F82046BDE8F8830000F2
:104CE0000549096809B9012005E00449096809B9BD
:104CF000022000E000207047A8000024C400002427
:104D00000149086870470000A00000242DE9F04127
:104D10004FF000084348006800287BD142480068F3
:104D2000451C4148056015BB40480068006808B94B
:104D3000012000E0002050B900BF502080F311880E
:104D4000BFF34F8FBFF36F8F00BF00BFFEE7374841
:104D500007683748006835490860354807603548B6
:104D60000068401C33490860FEF0FCFE00BF32487A
:104D7000006885423BD300BF2C480068006808B932
:104D8000012000E0002020B14FF0FF302A490860E8
:104D90002CE026480068C068C4686668B54202D244
:104DA0002548066022E0201DFFF7D8FAA06A18B156
:104DB00004F11800FFF7D2FA2049E06A0968884236
:104DC00002D91E49E06A0860E16A01EB81011C4AD0
:104DD00002EB8100211DFFF710FB1A49E06A096808
:104DE000C96A8842C8D34FF00108C5E700BF15481B
:104DF0000068C06A00EB8000114951F820000128CA
:104E000001D94FF001081048006808B14FF00108BF
:104E100005E0FFE70D480068401C0C49086040466B
:104E2000BDE8F081C4000024A0000024900000240C
:104E300094000024B4000024BC000024A40000243A
:104E4000400500248C000024B0000024AC000024A5
:104E500070B505462C460026002D43D02248006838
:104E6000844201D1012000E0002050B900BF502051
:104E700080F31188BFF34F8FBFF36F8F00BF00BF68
:104E8000FEE7206D50B900BF502080F31188BFF3BA
:104E90004F8FBFF36F8F00BF00BFFEE7206D401E36
:104EA0002065E16CE06A88421CD0206DD0B9201DDD
:104EB000FFF754FAE06CE062E06AC0F13800A061EC
:104EC0000A49E06A0968884202D90849E06A08602C
:104ED000E16A01EB8101064A02EB8100211DFFF727
:104EE0008CFA0126304670BD8C000024A4000024FA
:104EF000400500242DE9FF4704460D4616461F468F
:104F0000DDF830804FF0000954B900BF502080F325
:104F10001188BFF34F8FBFF36F8F00BF00BFFEE755
:104F20001448006810B3009501960294062D15DA16
:104F3000FFF7D6FE022808D10023424669460D48F5
:104F40000068FFF003FA814610E000231A46694624
:104F500008480068FFF0FAF9814607E000233A4666
:104F6000694604480068FFF0C5FA8146484604B027
:104F7000BDE8F087D00000242DE9FF4104460D462E
:104F800016461F466FF001000090019402950396AB
:104F900000233A46694604480068FFF0ABFA8046B1
:104FA000404604B0BDE8F081D000002458501008FD
:104FB00000000000000000000000000000000000F1
:104FC00000020000180000000000000000000000C7
:104FD0005050100800000000000000000000000019
:104FE00000000000000200001900000000000000A6
:104FF00000000000645010080000000000000000E5
:105000000000000000000000000200001900000085
:1050100000000000000000007450100800000000B4
:10502000000000000000000000000000000200007E
:105030001A0000000000000000000000945010085A
:105040000000000000000000000000000000000060
:10505000000200001B000000000000000000000033
:105060008050100800000000000000000000000058
:10507000B04F100800000000000000000000000019
:10508000C44F1008000000000000000000000000F5
:10509000D84F1008000000000000000000000000D1
:1050A000EC4F1008000000000000000000000000AD
:1050B0000050100800000000000000000000000088
:1050C0001450100800000000000000000000000064
:1050D0002850100800000000000000000000000040
:1050E0003C5010080000000000000000000000001C
:1050F0000101010307010000080402040801010185
:1051000020510008000000240C010000D402000817
:105110002C5200080C0100242C530000F00200085F
:10512000000001000000000000000000000000007E
:10513000000000000000000000000000000000006F
:10514000000000000000000000000000000000005F
:10515000000000000000000000000000000000004F
:10516000000000000000000000000000000000003F
:10517000000000000000000000000000000000002F
:10518000000000000000000000000000000000001F
:1051900000010000000000000000000010000000FE
:1051A000010000000090D0030090D0030000000038
:1051B00000000000000000000000000000000000EF
:1051C00000000000000000000000000000000000DF
:1051D00000000000000000000000000000000000CF
:1051E00000000000000000000000000000000000BF
:1051F00000000000000000000000000000000000AF
:10520000000000000000000000000000000000009E
:10521000000000000000000000000000000000008E
:0C522000AAAAAAAA0000000000000000DA
:020000040810E2
:1000000010B510BD0948804709480047FEE7FEE7E4
:10001000FEE7FEE7FEE7FEE7FEE7FEE7FEE7FEE7B8
:1000200004480549054A064B70470000E5310008C1
:1000300099020008384E0024385400243850002417
:10004000385000244FF0000200B5134694469646FF
:10005000203922BFA0E80C50A0E80C50B1F12001DB
:10006000BFF4F7AF090728BFA0E80C5048BF0CC089
:100070005DF804EB890028BF40F8042B08BF7047E7
:1000800048BF20F8022B11F0804F18BF00F8012B59
:1000900070477047704770474FF000020429C0F066
:1000A000128010F0030C3FF4CFAFCCF1040CBCF184
:1000B000020F18BF00F8012BA8BF20F8022BA1EBFC
:1000C0000C01FFF7C1BF5FEAC17C24BF00F8012B20
:1000D00000F8012B48BF00F8012B704701694A1C4A
:1000E00002610878704700B58FB0CDE90131002179
:1000F000059105497944CDE903101146684600F79A
:100100008DFA0FB000BD0000E5FFFFFF007B00F09F
:1001100080007047754600F023F8AE46050069463A
:10012000534620F00700854618B020B5FFF778FF4A
:10013000BDE820404FF000064FF000074FF00008E8
:100140004FF0000B21F00701AC46ACE8C009ACE869
:10015000C009ACE8C009ACE8C0098D467047000092
:1001600000487047D44D002400BFFEE770470000F0
:1001700010B501220221044800F08AFB0122D103BC
:10018000024800F085FB10BD000C02580004025824
:1001900010B5022000F070FA10BD00002DE9F0410A
:1001A000044600F77BFC804614B90120BDE8F081CD
:1001B00094F83500022808D08020606500BF002038
:1001C00084F8340000BF0120F0E7FE49206888422F
:1001D00049D0FC4918312068884244D0F94930316F
:1001E000206888423FD0F7494831206888423AD099
:1001F000F44960312068884235D0F249783120686E
:10020000884230D0EF499031206888422BD0ED49A8
:10021000A8312068884226D0EB492068884222D045
:10022000E9491831206888421DD0E74930312068FB
:10023000884218D0E44948312068884213D0E24906
:100240006031206888420ED0DF49783120688842CA
:1002500009D0DD4990312068884204D0DA49A831BC
:100260002068884201D1012000E0002068B12068A8
:10027000006820F01E00216808602068406920F0B6
:10028000800021684861256806E02068006820F049
:100290000E00216808602568CA492068884270D02D
:1002A000C8491831206888426BD0C649303120686F
:1002B000884266D0C34948312068884261D0C1492C
:1002C0006031206888425CD0BE497831206888421D
:1002D00057D0BC4990312068884252D0B949A831E2
:1002E000206888424DD0B8492068884249D0B64934
:1002F00018312068884244D0B349303120688842A0
:100300003FD0B1494831206888423AD0AE49603187
:100310002068884235D0AC4978312068884230D096
:10032000A9499031206888422BD0A749A83120687C
:10033000884226D0A5492068884222D0A34914319A
:10034000206888421DD0A14928312068884218D0F1
:100350009E493C312068884213D09C495031206826
:1003600088420ED0994964312068884209D0974963
:1003700078312068884204D094498C3120688842C2
:1003800001D1012000E0002028B1206E006820F497
:100390008070216E08608B492068884249D0894965
:1003A00018312068884244D086493031206888421C
:1003B0003FD084494831206888423AD08149603131
:1003C0002068884235D07F4978312068884230D013
:1003D0007C499031206888422BD07A49A831206826
:1003E000884226D078492068884222D07649183140
:1003F000206888421DD0744930312068884218D066
:10040000714948312068884213D06F4960312068B3
:1004100088420ED06C4978312068884209D06A49F8
:1004200090312068884204D06749A831206888420A
:1004300006D12068006820F001002168086005E00E
:100440002068006820F001002168086011E000F7D2
:1004500025FBA0EB080005280BD9202060650320B0
:1004600084F8350000BF002084F8340000BF01206C
:100470009CE6286800F001000028E8D15149206876
:10048000884249D04F4918312068884244D04D49AC
:100490003031206888423FD04A494831206888423C
:1004A0003AD0484960312068884235D04549783192
:1004B0002068884230D043499031206888422BD050
:1004C0004049A8312068884226D03F4920688842A8
:1004D00022D03D491831206888421DD03A49303138
:1004E0002068884218D0384948312068884213D0A3
:1004F00035496031206888420ED033497831206810
:10050000884209D0304990312068884204D02E4971
:10051000A8312068884201D1012000E0002040B1CC
:10052000A66D94F85C0000F01F013F208840B06089
:1005300007E0A76D94F85C0000F01F0101208840DF
:10054000786020492068884276D01E49183120689A
:10055000884271D01B493031206888426CD01949DB
:1005600048312068884267D0164960312068884247
:1005700062D014497831206888425DD011499031A9
:100580002068884258D00F49A8312068884253D04B
:100590000D49206888424FD00B49183120688842A5
:1005A0004AD0094930312068884245D0064948314F
:1005B0002068884240D004496031206888423BD09E
:1005C000014905E01000024010040240085402589E
:1005D0007831206888422FD02549206888422BD066
:1005E000234918312068884226D022492068884251
:1005F00022D020491431206888421DD01D4928315D
:100600002068884218D01B493C312068884213D0AA
:1006100018495031206888420ED01649643120684C
:10062000884209D0134978312068884204D01149A2
:100630008C312068884201D1012000E0002068B19F
:10064000D4E919104860E06E40B1E06E006820F413
:100650008070E16E0860D4E91C104860012084F8C5
:10066000350000BF002084F8340000BF00BF9DE5C6
:10067000A00402400854025810B50446044800681B
:10068000204020B102480460204600F7E9F910BD7F
:1006900088000058F8B502460B4600216F4DD7E0A0
:1006A00001278F401E6806EA0704002C72D01E79CD
:1006B00006F00306012E04D01E7906F00306022E72
:1006C00013D190684F000326BE40B0434F00DE6850
:1006D000BE4030439060506801268E40B0431E7982
:1006E000C6F300168E40304350601E7906F00306B4
:1006F000032E09D0D0684F000326BE40B0434F0000
:100700009E68BE403043D0601E7906F00306022E7C
:1007100013D1CF0802F1200656F827004E07F70E36
:100720000F26BE40B0434F07FF0E1E69BE40304348
:10073000CF0802F1200646F8270010684F00032674
:10074000BE40B0431E7906F003064F00BE40304362
:1007500010605E6806F44036002E78D000BF404E30
:10076000366846F002063E4F3E603E46366806F06A
:100770000206009600BF00BF3A4E8F0856F82700C9
:100780008E07370F0F26BE40B043374EB24202D11C
:1007900000262EE05BE0354EB24201D1012628E072
:1007A000334EB24201D1022623E0324EB24201D191
:1007B00003261EE0304EB24201D1042619E02F4E2E
:1007C000B24201D1052614E02D4EB24201D10626D7
:1007D0000FE02C4EB24201D107260AE02A4EB24267
:1007E00001D1082605E0294EB24201D1092600E0D8
:1007F0000A268F073F0FBE4030431A4E8F0846F837
:1008000027004FF0B0463068A0435E6806F48016BB
:1008100006B120434FF0B04630607068A0435E6878
:1008200006F4001606B120434FF0B04670606868C9
:10083000A0435E6806F4003606B12043686028686D
:10084000A0435E6806F4803606B120432860491C48
:100850001E68CE40002E7FF423AFF8BD8000005804
:10086000F4440258080400580000025800040258DA
:1008700000080258000C02580010025800140258D8
:1008800000180258001C0258002002580024025888
:100890000AB1816101E00B0483617047014800687F
:1008A000000C70470010005C034800680349097899
