:020000040800F2
:100000003018002021020008A92D0008E12900086D
:10001000A52D0008E70300083139000800000000A2
:10002000000000000000000000000000890100083E
:10003000EB03000800000000CD0100087D3100083E
:100040003B0200083B0200083B0200083B0200089C
:100050003B0200083B0200083B0200083B0200088C
:100060003B0200083B0200083B0200083B0200087C
:100070003B0200083B0200083B0200083B0200086C
:100080003B0200083B0200083B0200083B0200085C
:100090003B0200083B0200083B0200083B0200084C
:1000A0003B020008393200083B0200083B0200080E
:1000B0004932000859320008693200083B02000842
:1000C0003B0200083B0200083B020008612E0008CA
:1000D0003B020008213900083B0200083B020008EF
:1000E0003B0200083B0200083B02000800F002F857
:1000F00000F03AF80AA090E8000C82448344AAF188
:100100000107DA4501D100F02FF8AFF2090EBAE885
:100110000F0013F0010F18BFFB1A43F0010318473B
:100120004C5A00006C5A0000103A24BF78C878C1BD
:10013000FAD8520724BF30C830C144BF04680C60ED
:10014000704700000023002400250026103A28BF35
:1001500078C1FBD8520728BF30C148BF0B60704739
:100160001FB51FBD10B510BD00F0D6F81146FFF742
:10017000F7FF03F0FBFB00F0F4F803B4FFF7F2FF26
:1001800003BC00F0FBF80000224B19680868B0E8D7
:10019000F00F80F30988BFF36F8F4FF0000080F3FA
:1001A00011884EF00D0E70470000000006480068F0
:1001B000006880F3088862B661B6BFF34F8FBFF363
:1001C0006F8F00DF00BF00BF08ED00E0EFF3098094
:1001D000BFF36F8F0F4B1A6820E9F00F106008B55E
:1001E0004FF0500080F31188BFF34F8FBFF36F8F34
:1001F00004F0F0F94FF0000080F31188BDE80840EA
:1002000019680868B0E8F00F80F30988BFF36F8FB2
:10021000704700BF30000020EFF3058070470000FA
:100220000948804709480047FEE7FEE7FEE7FEE78A
:10023000FEE7FEE7FEE7FEE7FEE7FEE704480549C6
:10024000054A064B7047000035320008ED000008F3
:10025000301200203018002030140020301400200C
:1002600010B5203AC0F00B80B1E81850203AA0E851
:100270001850B1E81850A0E81850BFF4F5AF5FEA85
:10028000027C24BFB1E81850A0E8185044BF18C938
:1002900018C0BDE810405FEA827C24BF51F8043BDF
:1002A00040F8043B08BF7047D20728BF31F8023B33
:1002B00048BF11F8012B28BF20F8023B48BF00F8C7
:1002C000012B70474FF0000200B513469446964646
:1002D000203922BFA0E80C50A0E80C50B1F1200159
:1002E000BFF4F7AF090728BFA0E80C5048BF0CC007
:1002F0005DF804EB890028BF40F8042B08BF704765
:1003000048BF20F8022B11F0804F18BF00F8012BD6
:100310007047704770477047754600F02BF8AE463F
:1003200005006946534620F00700854618B020B501
:10033000FFF784FFBDE820404FF000064FF00007B4
:100340004FF000084FF0000B21F00701AC46ACE87D
:10035000C009ACE8C009ACE8C009ACE8C0098D46EA
:10036000704710B50446AFF300802046BDE810404A
:10037000FFF703BF00487047CC1100200149182047
:10038000ABBEFEE726000200704770B504460025AC
:100390002068806800F0010018B32068806820F0B1
:1003A00001002168886000F0D3FB054613E000F0EF
:1003B000CFFB401B02280ED92068806800F00100A6
:1003C00048B1A06A40F01000A062E06A40F001006D
:1003D000E062012070BD2068806800F00100002804
:1003E000E5D10020F6E700BFFEE7704772B600BF18
:1003F000FEE7000038B5024600230020009000BF51
:1004000092F82400012801D1022038BD012082F891
:10041000240000BF4868072812D21068406B0C798E
:10042000641E04EB84051F24AC40A0430D796D1EAF
:1004300005EB85050C68AC4020431468606327E039
:1004400048680D2812D21068006B0C79E41F04EB89
:1004500084051F24AC40A0430D79ED1F05EB8505F5
:100460000C68AC4020431468206311E01068C06A37
:100470000C790D3C04EB84051F24AC40A0430D799E
:100480000D3D05EB85050C68AC4020431468E06227
:1004900008680A2812D31068C0680C780A3C04EB7C
:1004A00044050724AC40A0430D780A3D05EB450503
:1004B0008C68AC4020431468E0600FE0106800696D
:1004C0000C7804EB44050724AC40A0430D7805EB01
:1004D00045058C68AC4020431468206108681028EA
:1004E00002D00868112827D1174C1068A0421ED1ED
:1004F0001068806800F40000F0B91068806840F46B
:1005000000001468A0600868102815D10F48006822
:100510000F4CB0FBF4F000EB80004000009002E0D4
:100520000098401E009000980028F9D104E0906ADD
:1005300040F020009062012300BF002082F82400D8
:1005400000BF184661E70000002401402C00002095
:1005500040420F002DE9F041044600270025002607
:10056000A84614B90120BDE8F081A06810B1207D33
:1005700000B100BFA06A30B90020E06284F8240016
:10058000204600F089F82046FFF7FFFE0746A06AE4
:1005900000F01000002873D1002F71D1A06A20F460
:1005A000885040F00200A062E16960680843217B46
:1005B00040EA41000643A068B0F5807F02D0A06801
:1005C000012802D14FF4807000E000200543207D17
:1005D000012811D1207B38B9A069401E4FF4006179
:1005E00041EA4030054307E0A06A40F02000A062E5
:1005F000E06A40F00100E0622068406820F4694051
:1006000028432168486020688068214908403043B9
:1006100021688860A068B0F5807F02D0A0680128BA
:1006200002D14FF4807000E00020B0F5807F03D14C
:10063000208A401E4FEA00582068C06A20F47000EB
:1006400040EA08002168C8622068806811490840B3
:10065000B04208D10020E062A06A20F0020040F021
:100660000100A06211E0A06A20F0020040F010003A
:10067000A062E06A40F00100E062012705E0FFE7C8
:10068000A06A40F01000A062012738466BE7000026
:10069000FDF7E1FFFE0E1FFF10B586B004460020F7
:1006A000029003900490059014492068884222D15A
:1006B00000BF1348806940F4007011498861084602
:1006C000806900F40070019000BF00BF00BF0846C1
:1006D000806940F0040088610846806900F00400E9
:1006E000019000BF00BF022002900320039002A9E6
:1006F000044800F08DF806B010BD00000024014051
:1007000000100240000801400146002291F821003B
:10071000022808D00420886300BF002081F8200050
:1007200000BF012070470868006820F00E000B68C9
:1007300018600868006820F001000B68186091F8E4
:10074000403001209840CB6B5860012081F8210097
:1007500000BF002081F8200000BF1046E2E7000043
:1007600070B50446002594F82100022803D0042027
:10077000A063012548E02068006820F00E00216891
:1007800008602068006820F00100216808601F49A7
:100790002068884201D1012026E01C4914312068DC
:1007A000884201D110201FE0184928312068884272
:1007B00001D1801518E015493C312068884201D1EB
:1007C000801411E0114950312068884202D14FF461
:1007D000803009E00D4964312068884202D14FF42D
:1007E000801001E04FF0807008490839486001200E
:1007F00084F8210000BF002084F8200000BF606B57
:1008000010B12046616B8847284670BD0800024041
:100810002DE9F8470346002294466EE14FF00108A7
:1008200008FA02F4D1F8008008EA0400A0427DD161
:10083000DFF8DCA2D1F80480A8EB0A09D0453AD051
:1008400014DCB8F1030F50D009DCB8F1000F31D03F
:10085000B8F1010F1CD0B8F1020F49D120E0B8F176
:10086000110F18D0B8F1120F42D11EE0B9F5881F50
:1008700025D006DCB9F5803F20D0B9F5801F37D1EF
:100880001AE0B9F5001F18D0B9F5041F30D117E0F0
:10089000D1F80CC02DE0D1F80C8008F1040C28E050
:1008A000D1F80C8008F1080C23E0D1F80C8008F195
:1008B0000C0C1EE000BF00BF00BF00BF00BF00BFA8
:1008C000D1F80880B8F1000F02D14FF0040C0BE012
:1008D000D1F80880B8F1010F03D14FF0080C1C616A
:1008E00002E04FF0080C5C6103E04FF0000C00E008
:1008F00000BF00BFFF2801D8984601E003F10408BB
:100900004646FF2802D84FEA820803E0A2F1080811
:100910004FEA88084746D6F800804FF00F0909FAD9
:1009200007F928EA09080CFA07F900E088E048EA24
:100930000908C6F80080D1F8048008F08058B8F1A2
:10094000805F7DD100BFDFF8CC81D8F8188048F0F7
:100950000108DFF8C091C9F81880C846D8F8188097
:1009600008F00108CDF8008000BF00BF4FEAB93899
:100970004FEA920958F829504FEA82784FEA1879DD
:100980004FF00F0808FA09F825EA0805DFF8888112
:10099000434502D14FF0000816E0DFF8808143455F
:1009A00002D14FF001080FE0DFF87481434502D116
:1009B0004FF0020808E0DFF86C81434502D14FF0A8
:1009C000030801E04FF004084FEA82794FEA1979F1
:1009D00008FA09F848EA0505DFF84C814FEA920960
:1009E00048F82950D1F8048008F48018B8F5801F21
:1009F0000AD1DFF83881D8F8008048EA0008DFF82B
:100A00002C91C9F8008009E0DFF82081D8F8008037
:100A100028EA0008DFF81491C9F80080D1F80480B2
:100A200008F40018B8F5001F10D1DFF8008108F1B4
:100A30000408D8F8008048EA0008DFF8F09000E0E9
:100A40005AE009F10409C9F800800DE0DFF8DC8004
:100A500008F10408D8F8008028EA0008DFF8CC90F4
:100A600009F10409C9F80080D1F8048008F40038BD
:100A7000B8F5003F0ED1DFF8B480A8F10408D8F82B
:100A8000008048EA0008DFF8A490A9F10409C9F839
:100A900000800DE0DFF89480A8F10408D8F8008009
:100AA00028EA0008DFF88490A9F10409C9F8008059
:100AB000D1F8048008F48038B8F5803F0ED1DFF813
:100AC0006C80A8F10808D8F8008048EA0008DFF830
:100AD0005C90A9F10809C9F800800DE0DFF84C80AE
:100AE000A8F10808D8F8008028EA0008DFF83C9050
:100AF000A9F10809C9F80080521CD1F8008028FA31
:100B000002F8B8F1000F7FF489AEBDE8F887000065
:100B1000000011100010024000080140000C0140CC
:100B20000010014000140140080001400804014089
:100B300010B5C26821EA020302EA010443EA044351
:100B4000036110BD0AB1016101E00B04036170474C
:100B500001480068704700002000002010B50848D8
:100B6000006840F0100006490860032000F0D8F843
:100B70000F2000F007F800F055F8002010BD00002D
:100B800000200240F0B587B004460026002700256B
:100B900000BF1F48806940F400601D498861084615
:100BA000806900F40060009000BF00BF01A902A8A6
:100BB00000F028FA00F05EFA06461648B6FBF0F0A0
:100BC000471E15481549086040F2E7311348C160D7
:100BD0004760002101618160816100F02FFF0546BF
:100BE00095B90E4800F0D6FF05466DB9192000F002
:100BF00049F8102C07D200222146192000F052F8A3
:100C00000748046000E00125284607B0F0BD000059
:100C10000010024040420F00002C014094040020CC
:100C20002400002008B500BF1448806940F001008E
:100C3000124988610846806900F00100009000BFF9
:100C400000BF00BF0846C06940F08050C861084638
:100C5000C06900F08050009000BF00BF00220F214B
:100C6000901E00F01FF800BF0549486820F0E060C2
:100C700040F00070486000BF08BD00000010024056
:100C80000000014001460846002809DB00F01F0370
:100C900001229A4043099B0003F1E023C3F800219D
:100CA00000BF70472DE9F05F80460D4616460027CD
:100CB00002F040FE074639462A46334601F0070057
:100CC000C0F1070ABAF1040F02D94FF0040A01E09B
:100CD000C0F1070AD14600F1040ABAF1070F02D2A7
:100CE0004FF0000A01E0A0F1030AD4464FF0010AD8
:100CF0000AFA09FAAAF1010A0AEA020A0AFA0CFA3D
:100D00004FF0010B0BFA0CFBABF1010B0BEA030BE1
:100D10004AEA0B042146404602F014FEBDE8F09F6B
:100D200000BF00F00702064B19684FF6FF03194099
:100D3000044B0B4343EA0221014B196000BF70478B
:100D40000CED00E00000FA05F8B504460026002589
:100D5000207800F0010000286BD000274348C069CC
:100D600000F0805070B900BF4048C06940F080502A
:100D70003E49C8610846C06900F08050009000BF3D
:100D800000BF01273A48006800F48070B0B93848C5
:100D9000006840F4807036490860FFF7D9FE0646C7
:100DA00006E0FFF7D5FE801B642801D90320F8BDBB
:100DB0002F48006800F480700028F2D02B48006AA9
:100DC00000F440752DB3A08800F44070A84220D0F4
:100DD0002648006A20F4407501202649086000205A
:100DE00008602248056205F0010090B1FFF7B0FEEF
:100DF000064608E0FFF7ACFE801B41F288318842CE
:100E000001D90320D3E71948006A00F00200002846
:100E1000F0D01648006A20F4407061680843134916
:100E20000862012F04D10846C06920F08050C861D3
:100E300000BF207800F00200022807D10B4840686C
:100E400020F44040A168084308494860207800F039
:100E50001000102807D10548406820F48000E168A0
:100E60000843024948600020A1E70000001002404A
:100E7000007000404004424270B504460D460CB973
:100E8000012070BD5A48006800F00700A8420ED249
:100E90005748006820F00700284355490860084675
:100EA000006800F00700A84201D00120E9E720789F
:100EB00000F0020002281DD1207800F00400042870
:100EC00005D14C48406840F4E0604A4948602078C9
:100ED00000F00800082805D14648406840F46050FA
:100EE000444948604348406820F0F000A168084346
:100EF00040494860207800F0010078B3606801281C
:100F000006D13C48006800F4003090B90120B8E7F1
:100F10006068022806D13748006800F0007040B9C8
:100F20000120AEE73348006800F0020008B9012054
:100F3000A7E73048406820F00300616808432D4966
:100F40004860FFF705FE064609E0FFF701FE801B3B
:100F500041F28831884202D9032092E707E0254810
:100F6000406800F00C006168B0EB810FEDD12048C3
:100F7000006800F00700A8420ED91D48006820F064
:100F8000070028431A4908600846006800F0070077
:100F9000A84201D0012074E7207800F00400042862
:100FA00007D11448406820F4E060E1680843114923
:100FB0004860207800F00800082808D10D484068F3
:100FC00020F46050216940EAC1000A49486000F0FD
:100FD00061F808494968C1F30311074A515CC840E8
:100FE0000649086006480068FFF7CCFD002048E786
:100FF00000200240001002401E5B00082C00002070
:10100000240000200F2202600D4A526802F0030201
:1010100042600B4A526802F0F0028260084A52684D
:1010200002F4E062C260064A526802F46052D208DA
:101030000261044A126802F007020A607047000069
:101040000010024000200240014800687047000084
:101050002C00002000B5FFF7F7FF04494968C1F3F1
:101060000221034A515CC84000BD0000001002404C
:101070002E5B000800B5FFF7E7FF04494968C1F39C
:10108000C221034A515CC84000BD0000001002406C
:101090002E5B000870B500210022002400230020F0
:1010A000134D696801F00C05F5B1042D02D0082D2F
:1010B00019D101E00F4819E00F4DC1F38346AB5D34
:1010C00001F4803555B10A4D6D68C5F340450B4EAE
:1010D000725D084D5D43B5FBF2F402E0084D03FB81
:1010E00005F4204602E000BF024800BF00BF70BD0B
:1010F0000010024000127A000C5B00081C5B000824
:1011000000093D00F8B504460CB90120F8BD20786F
:1011100000F00100002878D0F848406800F00C008A
:1011200004280CD0F548406800F00C00082811D1C4
:10113000F248406800F48030B0F5803F0AD1EF48B3
:10114000006800F4003000285FD0606800285CD19F
:101150000120DBE700BF6068B0F5803F06D1E748BB
:10116000006840F48030E549086028E0606858B9BC
:10117000E248006820F48030E049086008460068D2
:1011800020F4802008601AE06068B0F5A02F0BD131
:10119000DA48006840F48020D849086008460068B2
:1011A00040F4803008600AE0D448006820F48030C1
:1011B000D24908600846006820F48020086000BF1B
:1011C000606888B1FFF7C4FC054606E0FFF7C0FC85
:1011D000401B642801D9032098E7C848006800F440
:1011E00000300028F2D010E0FFF7B2FC054606E020
:1011F000FFF7AEFC401B642801D9032086E7BF48F7
:10120000006800F400300028F2D1207800F00200DD
:10121000022857D1B948406800F00C0050B1B748D7
:10122000406800F00C00082818D1B448406800F469
:10123000803098B9B148006800F0020020B1206900
:10124000012801D0012061E7AC48006820F0F800D7
:10125000616940EAC100A949086033E02069E8B14A
:101260000120A7490860FFF773FC054606E0FFF779
:101270006FFC401B022801D9032047E79F48006804
:1012800000F002000028F2D09C48006820F0F8002E
:10129000616940EAC1009949086013E0002098495B
:1012A0000860FFF755FC054606E0FFF751FC401BC0
:1012B000022801D9032029E79048006800F00200C5
:1012C0000028F2D1207800F0080008282DD1A0696C
:1012D000B8B101208B490860FFF73AFC054606E0EB
:1012E000FFF736FC401B022801D903200EE7834894
:1012F000406A00F002000028F2D0012001F09CFDBD
:1013000013E000207F490860FFF722FC054606E055
:10131000FFF71EFC401B022801D90320F6E67748A0
:10132000406A00F002000028F2D1207800F00400AA
:10133000042873D100277148C06900F0805070B94B
:1013400000BF6E48C06940F080506C49C8610846D3
:10135000C06900F08050009000BF00BF01276A48BC
:10136000006800F48070B0B96748006840F480708D
:1013700065490860FFF7ECFB054606E0FFF7E8FB70
:10138000401B642801D90320C0E65F48006800F4D0
:1013900080700028F2D000BFE068012806D15748CD
:1013A000006A40F001005549086227E0E06858B93A
:1013B0005248006A20F00100504908620846006A5D
:1013C00020F00400086219E0E06805280BD14B48C2
:1013D000006A40F00400494908620846006A40F08B
:1013E000010008620AE04548006A20F00100434914
:1013F00008620846006A20F00400086200BFE06846
:10140000A0B1FFF7A5FB054609E0FFF7A1FB401BD4
:1014100041F28831884202D9032077E622E037483A
:10142000006A00F002000028EFD012E0FFF790FB06
:10143000054608E0FFF78CFB401B41F288318842EB
:1014400001D9032062E62D48006A00F0020000285E
:10145000F0D1012F05D12948C06920F080502749DB
:10146000C86100BFE069C8B32448406800F00C00C0
:10147000082860D0E069022848D100202049086689
:10148000FFF766FB054606E0FFF762FB401B0228FC
:1014900001D903203AE61948006800F000700028DE
:1014A000F2D1206AB0F5803F07D11448406820F49B
:1014B0000030A168084311494860D4E90801084395
:1014C0000E49496821F4741108430C494860012011
:1014D0000B490866FFF73CFB054607E03DE0FFF7D8
:1014E00037FB401B022801D903200FE603480068A0
:1014F00000F000700028F2D02FE000000010024041
:101500000000424280044242007000400020144922
:101510000866FFF71DFB054606E0FFF719FB401BB9
:10152000022801D90320F1E50E48006800F00070A0
:101530000028F2D111E0E069012800D1E6E5094870
:10154000466806F48031206A814204D106F47011A5
:10155000606A814201D00120D8E50020D6E5000074
:10156000000042420010024070470000F8B50446F7
:101570002068466820688568C5F3801048B905F082
:10158000010030B1C6F3801018B12046216C8847A5
:10159000F8BDC5F3400030B1C6F3C01018B1204605
:1015A000616C8847F4E7C5F3401018B9C5F38010A3
:1015B000002871D0C6F3401000286DD0C5F380100C
:1015C000F0B194F8510003280ED0606D40F0040093
:1015D000606500BF002000902068C068009020680F
:1015E0008068009000BF0BE000BF002000902068E2
:1015F000C068009020688068009000BF00BFC7E707
:10160000C5F3401088B1606D40F00100606500BF17
:10161000002000902068806800902068006820F01A
:1016200040002168086000BF00BF606D70B3206893
:10163000406820F0E00021684860012084F85100F3
:1016400006F0020010B906F0010000B320684068FF
:1016500020F0030021684860E06C50B10F48E16C55
:101660004863E06CFFF77CF818B1606D40F0400013
:101670006065A06C50B10948A16C4863A06CFFF78D
:101680006FF818B1606D40F04000606502E02046E0
:10169000FFF76AFF7CE7FFE700BF79E7B12E00089C
:1016A00010B504460CB9012010BD606A38B96068F5
:1016B000B0F5827F00D105E00021E16102E0002168
:1016C000216161610021A16294F8510028B90020D4
:1016D00084F85000204600F043F8022084F85100BE
:1016E0002068006820F0400021680860A08800F4AD
:1016F0008270218901F404410843A18901F4006149
:101700000843217C01F002010843217D01F0010121
:101710000843218B01F400710843217F01F0380157
:1017200008432021095D01F080010843218D01F467
:1017300000510843216808600421A06901EA1040B3
:10174000216848602068C06920F400602168C86191
:1017500000206065012084F851000020A4E700000B
:1017600010B586B0044600200290039004900590C6
:101770001D492068884235D100BF1C48806940F46B
:1017800080501A4988610846806900F480500190B1
:1017900000BF00BF00BF0846806940F004008861B8
:1017A0000846806900F00400019000BF00BFA0203F
:1017B0000290022003900320059002A90C48FFF735
:1017C00027F84020029000200390049002A90848C6
:1017D000FFF71EF8002205212320FFF763FA2320DC
:1017E000FFF750FA06B010BD003001400010024073
:1017F000000801402DE9F84304460F4616461D46F1
:10180000FFF7A6F98046B14694F85100012802D0AE
:101810000220BDE8F88307B10EB90120F9E700BF47
:1018200094F85000012801D10220F2E7012084F849
:10183000500000BF032084F851000020606527633A
:10184000A686E686A063A087E08760642064A0681F
:10185000B0F5004F0BD12068006820F040002168EF
:1018600008602068006840F48040216808602068B3
:10187000006800F04000402805D02068006840F073
:10188000400021680860E068B0F5006F37D16068FB
:1018900010B1B9F1010F09D1206B00882168C8602F
:1018A000206B801C2063E08E401EE08623E02068D1
:1018B000806800F0020002280AD1206B00882168AD
:1018C000C860206B801C2063E08E401EE08612E022
:1018D000FFF73EF9A0EB0800A84201D3681C00B94D
:1018E0004DB9012084F8510000BF002084F8500059
:1018F00000BF03208DE7E08E0028D8D136E0606875
:1019000010B1B9F1010F09D1206B0078216808737B
:10191000206B401C2063E08E401EE08623E02068A0
:10192000806800F0020002280AD1206B007821684C
:101930000873206B401C2063E08E401EE08612E09E
:10194000FFF706F9A0EB0800A84201D3681C00B914
:101950004DB9012084F8510000BF002084F85000E8
:1019600000BF032055E7E08E0028D8D14246294623
:10197000204601F0A7FA08B120206065A06850B9A0
:1019800000BF002000902068C06800902068806838
:10199000009000BF00BF012084F8510000BF00206C
:1019A00084F8500000BF606D08B1012031E70020CD
:1019B0002FE770477047000030B502460B4600BF66
:1019C00092F83C00012801D1022030BD012082F8AC
:1019D0003C0000BF022082F83D0010684468106897
:1019E000816824F070041868044310684460104D46
:1019F0001068A8420BD01068B0F1804F07D00D4D91
:101A00001068A84203D00C4D1068A84205D121F0FF
:101A100080015868014310688160012082F83D0010
:101A200000BF002082F83C0000BF00BFCDE70000EF
:101A3000002C0140000400400008004010B504469E
:101A40000CB9012010BD94F83D0028B9002084F89D
:101A50003C00204600F026F8022084F83D00211DBD
:101A6000206801F009FC012084F8460000BF84F8DA
:101A70003E0001213F2001554020015541200155E4
:101A800000BF00BF012084F84200432001554420DC
:101A900001554520015500BF012084F83D0000207C
:101AA000D0E7000010B586B00446002002900390F5
:101AB000049005902068B0F1804F2CD100BF3148D0
:101AC000C06940F001002F49C8610846C06900F0B4
:101AD0000100019000BF00BF00BF0846806940F0D0
:101AE000040088610846806900F00400019000BF8E
:101AF00000BF0420029000200390049002A9224815
:101B0000FEF786FE002205211C20FFF7CBF81C20E3
:101B1000FFF7B8F834E01D492068884216D100BFAD
:101B20001848C06940F002001649C8610846C069FB
:101B300000F00200019000BF00BF002205211D201F
:101B4000FFF7B0F81D20FFF79DF819E01049206855
:101B5000884215D100BF0B48C06940F00400094914
:101B6000C8610846C06900F00400019000BF00BFD2
:101B7000002205211E20FFF795F81E20FFF782F8AE
:101B800006B010BD001002400008014000040040F3
:101B900000080040014691F83D00012801D00120D5
:101BA0007047022081F83D000868C06840F00100DD
:101BB0000B68D860124B086898420BD00868B0F1E7
:101BC000804F07D00F4B0868984203D00E4B08682F
:101BD00098420CD10868806800F00702062A0CD0F1
:101BE0000868006840F001000B68186005E00868AC
:101BF000006840F001000B6818600020D0E700008A
:101C0000002C014000040040000800402DE9F04194
:101C100004460D46002700BF94F83C00012802D17D
:101C20000220BDE8F081012084F83C0000BF0220C2
:101C300084F83D002068866826F0770626F47F4603
:101C4000206886602868502833D00CDC202850D0CB
:101C500004DC00284BD0102851D149E0302849D06D
:101C600040284CD139E060282DD0702807D0B0F53D
:101C7000805F03D0B0F5005F41D10DE041E0D5E9D0
:101C800002136A68206801F04AFB2068866846F003
:101C900077062068866034E0D5E902136A68206818
:101CA00001F03DFB2068806840F480402168886036
:101CB00027E0EA686968206801F002FC502120688A
:101CC00001F038FB1DE0EA686968206801F040FC1B
:101CD0006021206801F02EFB13E0EA686968206843
:101CE00001F0EEFB4021206801F024FB09E000BF79
:101CF00000BF00BF2968206801F01CFB01E001273C
:101D000000BF00BF012084F83D0000BF002084F820
:101D10003C0000BF384684E72DE9F84F8246DAF8E8
:101D20000000B0F1804F62D19AF81C0004285ED107
:101D300000203049096848622F48007848B10821DE
:101D40002E4800F035FC2E49088000202A490870F2
:101D50004DE00821294800F02BFC2A49088008465C
:101D6000008827490988884216DD26490988244ABF
:101D70001288881A03F0B5F9804642460B460020C7
:101D8000214903F029F8064602F05AF9044603F007
:101D90007BF91E49088018E0194909884CF2503235
:101DA000511A184A1288881803F09BF906463246E1
:101DB0000B460020144903F00FF8044602F040F9E6
:101DC000804603F061F911490880694610480068AF
:101DD00002F028FB009838B14FF080500D490860A0
:101DE000BFF34F8FBFF36F8F012003490870BDE829
:101DF000F88F0000BC0300201800002074030020AE
:101E00001A0000201C000020006AF8401E0000207C
:101E10001000002004ED00E02DE9F04104460D46DD
:101E20001646002700BF94F83C00012802D102208A
:101E3000BDE8F081012084F83C0000BF96B9EB6852
:101E4000D5E90012206801F04FFB2068806920F07E
:101E50000C002168886120688069A96808432168AE
:101E6000886141E0042E13D1EB68D5E900122068A7
:101E700001F082FB2068806920F44060216888615D
:101E800020688069A96840EA0120216888612BE008
:101E9000082E12D1EB68D5E90012206801F089FB09
:101EA0002068C06920F00C002168C8612068C06902
:101EB000A96808432168C86116E00C2E13D1EB68AD
:101EC000D5E90012206801F090FB2068C06920F479
:101ED00040602168C8612068C069A96840EA0120A3
:101EE0002168C86100E0012700BF002084F83C00A1
:101EF00000BF38469CE710B504460CB9012010BD60
:101F000094F83D0028B9002084F83C00204600F0F9
:101F100025F8022084F83D00211D206801F0ACF96D
:101F2000012084F8460000BF84F83E0001213F20D4
:101F30000155402001554120015500BF00BF01203F
:101F400084F84200432001554420015545200155A5
:101F500000BF012084F83D000020D0E7704700005A
:101F60002DE9F04304460D46002615B994F83E00CD
:101F70000BE0042D02D13F20005D06E0082D02D1C8
:101F80004020005D01E04120005D804615B994F8D5
:101F900042000BE0042D02D14320005D06E0082D35
:101FA00002D14420005D01E04520005D8146B8F18A
:101FB000010F02D1B9F1010F02D00120BDE8F08379
:101FC0001DB9022084F83E000EE0042D03D1022149
:101FD0003F20015508E0082D03D102214020015582
:101FE00002E00221412001551DB9022084F842007F
:101FF0000EE0042D03D102214320015508E0082DF5
:1020000003D102214420015502E00221452001555F
:1020100035B1042D0BD0082D10D00C2D1CD114E09F
:102020002068C06840F002002168C86016E020689F
:10203000C06840F004002168C8600FE02068C068F4
:1020400040F008002168C86008E02068C06840F0DF
:1020500010002168C86001E0012600BF00BF06BB78
:1020600001222946206801F049F912492068884276
:102070000BD02068B0F1804F07D00F49206888420C
:1020800003D00E49206888420CD12068806800F097
:102090000707062F0CD02068006840F00100216877
:1020A000086005E02068006840F0010021680860D1
:1020B000304683E7002C0140000400400008004047
:1020C00070B504462068C5682068066906F00200FD
:1020D000022819D105F00200022815D1401F2168FD
:1020E0000861012020772068806900F0030018B1A2
:1020F0002046FFF711FE05E0204600F0C3F8204619
:1021000000F077F90020207706F00400042819D1A8
:1021100005F00400042815D1C0432168086102209D
:1021200020772068806900F4407018B12046FFF7DE
:10213000F3FD05E0204600F0A5F8204600F059F92F
:102140000020207706F00800082819D105F00800C3
:10215000082815D1C0432168086104202077206831
:10216000C06900F0030018B12046FFF7D5FD05E077
:10217000204600F087F8204600F03BF90020207749
:1021800006F01000102819D105F01000102815D104
:10219000C04321680861082020772068C06900F4E6
:1021A000407018B12046FFF7B7FD05E0204600F06B
:1021B00069F8204600F01DF90020207706F00100A4
:1021C00048B105F0010030B16FF0010021680861ED
:1021D000204600F0C7F906F08000802809D105F0FC
:1021E0008000802805D1C043216808612046FFF7A0
:1021F000E0FB06F04000402809D105F040004028EF
:1022000005D1C04321680861204600F0EAF906F0D4
:102210002000202809D105F02000202805D1C04346
:10222000216808612046FFF7C5FB70BD10B586B078
:102230000446002002900390049005900E49206807
:10224000884217D100BF0D48806940F008000B4953
:1022500088610846806900F00800019000BF00BF57
:1022600048150290022003900320059002A904481B
:10227000FEF7CEFA06B010BD000800400010024084
:10228000000C014070472DE9F04104460D4616460A
:10229000002700BF94F83C00012802D10220BDE8CD
:1022A000F081012084F83C0000BF36B1042E1BD021
:1022B000082E31D00C2E5ED145E02946206801F071
:1022C00043F82068806940F0080021688861206830
:1022D000806920F00400216888612068806929698C
:1022E00008432168886148E02946206801F05CF8CD
:1022F0002068806940F400602168886120688069F6
:1023000020F480602168886120688069296940EA3A
:1023100001202168886130E02946206801F078F8C2
:102320002068C06940F008002168C8612068C06961
:1023300020F004002168C8612068C0692969084349
:102340002168C86119E02946206801F095F82068E5
:10235000C06940F400602168C8612068C06920F449
:1023600080602168C8612068C069296940EA01204D
:102370002168C86101E0012700BF00BF00BF002045
:1023800084F83C0000BF384689E710B504460CB914
:10239000012010BD94F83D0028B9002084F83C00CD
:1023A000204600F025F8022084F83D00211D206819
:1023B00000F062FF012084F8460000BF84F83E0070
:1023C00001213F200155402001554120015500BF0A
:1023D00000BF012084F842004320015544200155EC
:1023E0004520015500BF012084F83D000020D0E7C2
:1023F0007047704770B504460D4615B994F83E0015
:102400000BE0042D02D13F20005D06E0082D02D133
:102410004020005D01E04120005D012801D0012045
:1024200070BD1DB9022084F83E000EE0042D03D1DA
:1024300002213F20015508E0082D03D10221402050
:10244000015502E002214120015501222946206860
:1024500000F054FF19492068884201D1012000E0B2
:10246000002028B12068406C40F400402168486496
:102470001249206888420BD02068B0F1804F07D005
:102480000F492068884203D00E49206888420CD149
:102490002068806800F00706062E0CD020680068CF
:1024A00040F001002168086005E02068006840F005
:1024B0000100216808600020B2E70000002C014004
:1024C000000400400008004030B504460D460022DC
:1024D0002946206800F012FF21492068884201D176
:1024E000012000E0002090B100BF2068006A41F2A6
:1024F0001111084050B92068006A8910084028B9B5
:102500002068406C20F400402168486400BF00BF90
:102510002068006A41F21111084050B92068006A31
:102520008910084028B92068006820F0010021685F
:10253000086000BF1DB9012084F83E000EE0042DA4
:1025400003D101213F20015508E0082D03D10121CD
:102550004020015502E0012141200155002030BDFD
:10256000002C014038B504460D492068884215D139
:1025700000200C49088002F013FA01280ED06946A9
:102580000948006801F04EFF009838B14FF08050C4
:1025900006490860BFF34F8FBFF36F8F38BD00004F
:1025A000000400401E0000201000002004ED00E0A8
:1025B0000246002031B1042907D0082908D00C298F
:1025C0000CD108E01368586B09E01368986B06E0BB
:1025D0001368D86B03E01368186C00E000BF00BFFD
:1025E00070477047704770472DE9F84F04462068E0
:1025F00005682068C668206847694FF00009CA4628
:1026000005F00F09B9F1000F0AD105F0200038B12B
:1026100006F0200020B1204601F055F8BDE8F88F03
:10262000B9F1000F7BD007F0010018B906F49070E3
:10263000002874D005F0010030B106F4807018B1A4
:10264000606C40F00100606405F0040030B107F0F8
:10265000010018B1606C40F00200606405F00200F7
:1026600030B107F0010018B1606C40F00400606404
:1026700005F0080048B106F0200010B907F001008D
:1026800018B1606C40F008006064606C002845D0B0
:1026900005F0200028B106F0200010B1204601F01E
:1026A00012F820684069C0F3801A606C00F00800DE
:1026B00010B9BAF1000F2CD0204600F0BEFF206800
:1026C000406900F0400000B300BF00BF2168143132
:1026D00051E8001F21F040002168143141E8000258
:1026E000002AF3D100BFE06B50B17748E16B48633B
:1026F000E06BFEF735F888B1E06B416B88470DE081
:102700002046FFF770FF09E009E02046FFF76BFF66
:1027100004E02046FFF767FF002060647EE7206B3F
:10272000012877D105F01000002873D006F01000C2
:102730000028FAD000BF00200090206800680090B8
:1027400020684068009000BF00BF2068406900F02A
:10275000400000285FD0E06B006840681FFA80F8F6
:10276000B8F1000F55D0A08D404552DDA4F82E8061
:10277000E06B8069202843D000BF00BF21680C3186
:1027800051E8001F21F4807021680C3141E80002FB
:10279000002AF3D100BF00BF00BF2168143151E807
:1027A000001F21F001002168143141E80002002AD5
:1027B000F3D100BF00BF00BF2168143151E8001FF2
:1027C00021F040002168143141E80002002AF3D1D1
:1027D00000BF202084F842000020206300BF00BF1B
:1027E00021680C3151E8001F21F0100021680C31E4
:1027F00041E80002002AF3D100BFE06BFDF784FF3F
:1028000002206063A08DE28D801A81B22046FFF71E
:10281000E9FE03E742E0A08DE18D401A1FFA80F83F
:10282000E08DD0B3B8F1000F37D000BF00BF2168F2
:102830000C3151E8001F21F4907021680C3141E8FF
:102840000002002AF3D100BF00BF00BF216814318D
:1028500051E8001F21F001002168143141E8000215
:10286000002AF3D100BF202084F84200002020631A
:1028700000BF00BF21680C3151E8001F21F010009B
:1028800021680C3141E80002002AF3D100BF022088
:10289000606341462046FFF7A5FEBFE605F08000D5
:1028A00030B106F0800018B1204601F009F8B5E615
:1028B00005F0400030B106F0400018B1204600F0AD
:1028C000F2FEABE600BFA9E62736000810B50446C5
:1028D0000CB9012010BDA06900B100E000BF94F860
:1028E000410028B9002084F84000204600F02AF872
:1028F000242084F841002068C06820F4005021683A
:10290000C860204600F05EFF2068006920F4904017
:10291000216808612068406920F02A002168486128
:102920002068C06840F400502168C86000206064DE
:10293000202084F8410084F842000020606300BF3A
:10294000C8E7000010B586B004460020029003904E
:10295000049005901E492068884236D100BF1D486A
:10296000806940F480401B4988610846806900F412
:102970008040019000BF00BF00BF0846806940F062
:10298000040088610846806900F00400019000BFDF
:1029900000BF48150290022003900320059002A971
:1029A0000D48FDF735FF4FF4806002900020039042
:1029B000049002A90848FDF72BFF002205212520DD
:1029C000FEF770F92520FEF75DF906B010BD000096
:1029D0000038014000100240000801407047704775
:1029E00000BFFEE70EB50020009001900290114854
:1029F00011490860002110488160017301754FF48E
:102A00006021C16100200C49486001210A48016130
:102A1000FDF7A0FD08B1FDF7E9FC01200090019051
:102A20000020029069460448FDF7E4FC08B1FDF778
:102A3000DDFC0EBD00240140EC02002000B59DB07D
:102A40001C22184916A8FDF70BFC002116A800F05F
:102A5000CFFF154908601C2212491C310FA8FDF751
:102A6000FFFB00210FA800F0C3FF104908601C22E3
:102A70000C49383108A8FDF7F3FB002108A800F045
:102A8000B7FF0B4908601C220649543101A8FDF725
:102A9000E7FB002101A800F0ABFF064908601DB06C
:102AA00000BD00009C5A0008080000200C00002017
:102AB000100000201400002000B585B00020019017
:102AC00002900390049000BF2648806940F02000E7
:102AD000244988610846806900F02000009000BF0A
:102AE00000BF00BF0846806940F0040088610846C6
:102AF000806900F00400009000BF00BF00BF0846DE
:102B0000806940F0080088610846806900F008008C
:102B1000009000BF00BF012240F618011248FEF7E6
:102B200011F8012202211148FEF70CF840F61800B6
:102B3000019001200290002003900320049001A93D
:102B40000948FDF765FE0220019001200290002057
:102B500003900320049001A90448FDF759FE05B035
:102B600000BD00000010024000080140000C0140C0
:102B700010B50E480E4908604FF48270486000217D
:102B80000B488160C160016101214161490281619D
:102B90000821C16100210162416281620A21C16292
:102BA000FEF77EFD08B1FDF721FC10BD00300140AD
:102BB0001C03002000B58BB00020079008900990FE
:102BC0000A900590069001900290039004904FF0B7
:102BD00080401F49086040F2CF20486000211C4817
:102BE00081604CF24F31C16000210161802181611F
:102BF000FEF724FF08B1FDF7F9FB4FF48050079072
:102C000007A91348FFF702F808B1FDF7EFFB1048DA
:102C1000FFF771F908B1FDF7E9FB00200590069078
:102C200005A90B48FEF7C8FE08B1FDF7DFFB002041
:102C3000019001200290002003900490082201A935
:102C40000348FFF7E9F808B1FDF7D0FB0BB000BD72
:102C50007403002000B587B0002003900490059015
:102C600006900190029015481549086041F61F40F2
:102C7000486000211248816043F69721C16000211D
:102C8000016180218161FEF7D9FE08B1FDF7AEFB3D
:102C90004FF48050039003A90948FEF7B7FF08B12D
:102CA000FDF7A4FB00200190029001A90448FEF763
:102CB00083FE08B1FDF79AFB07B000BD0004004099
:102CC000BC03002000B58DB0002009900A900B9045
:102CD0000C90079008901C216846FDF7F3FA2148F4
:102CE000214908604720486000211F48816041F267
:102CF0008731C1600021016180218161FEF79EFE64
:102D000008B1FDF773FB4FF48050099009A91648EC
:102D1000FEF77CFF08B1FDF769FB1348FFF735FBB1
:102D200008B1FDF763FB00200790089007A90E4843
:102D3000FEF742FE08B1FDF759FB6020009040F617
:102D4000C41001900020029004900C2269460648AD
:102D5000FFF799FA08B1FDF749FB0348FFF766FA58
:102D60000DB000BD000800400404002010B50B4861
:102D70000B4908604FF4E130486000210848816049
:102D8000C16001610C21416100218161C161FFF7D6
:102D90009DFD08B1FDF72AFB10BD00000038014081
:102DA0004C04002000BFFEE700BFFEE72DE9F0471E
:102DB00082460C211D48FFF787FB0AEB8A01490078
:102DC00001F1C80002F08DF9064632460B4600209C
:102DD000174902F001F8044601F032F9804602F08A
:102DE00053F9401E13490860084600680F490968F6
:102DF000C86210480068401C02F06CFD81464FF02C
:102E0000804102F085FC804602F056FC064601F047
:102E100017F9044602F038F90449096808640C21DE
:102E20000248FFF7E7FABDE8F0870000040400203D
:102E300080842E410400002008B508490968C908AB
:102E40004FF47A72B1FBF2F14143009100BF00BF31
:102E500000994A1E00920029F9D108BD2C000020DB
:102E600010B50248FEF782FB10BD00001C030020D5
:102E70002DE9F84305460C462612E7B28DF80050BE
:102E80008DF801608DF80270002210210748FDF7CF
:102E900059FE0321684600F037F8804601221021D0
:102EA0000248FDF74FFE4046BDE8F88300080140A8
:102EB00070B505466C6A0020E087E0862046FEF784
:102EC00053FB70BDF8B504460E4615463346012245
:102ED00002212046009500F023F828B1606D40F0F3
:102EE000200060650320F8BD334600228021204683
:102EF000009500F015F828B1606D40F02000606585
:102F00000320F0E70020EEE770B504460D46642389
:102F10002A4621460148FEF76DFC70BD1C030020C7
:102F20002DE9F84F04460D4690461E46DDF82890E0
:102F3000FDF70EFEA0EB0900371AFDF709FE8246E9
:102F40002C480068C0F3CB307843009045E0701CFB
:102F5000002842D0FDF7FCFDA0EB0A00B84200D2E9
:102F6000A7BB2068406820F0E000216848606068E6
:102F7000B0F5827F0DD1A068B0F5004F03D0A068F6
:102F8000B0F5806F05D12068006820F0400021680E
:102F90000860A06AB0F5005F0DD100BF206800682E
:102FA00020F40050216808602068006840F4005058
:102FB0002168086000BF012084F8510000BF002094
:102FC00084F8500000BF0320BDE8F88FFFE70098A9
:102FD00000B900270098401E0090206880682840B3
:102FE000A84201D1012000E000204045AFD10020DF
:102FF000EAE700002C00002000BF4FF40061054804
:10300000FDF796FD4FF4FA7001F0DEF9012000F0B3
:10301000DEFCF2E70008014008B54FF0000B00208D
:10302000009000BF0021084601F054F88246BAF132
:10303000010F1ED11148008802F06AF88046104A3C
:10304000104B02F0B5F806460F4A104B01F010FE87
:10305000044601F0DBFD00900D49009802F04EFCA3
:10306000044602F017FC1FFA80FB59460020FFF7C8
:10307000FFFE0A2000F0ABFCD4E7000002000020B5
:103080007B14AE47E17A943F9A9999999999D93FDF
:10309000CDCCCC46002500BF2A48008840B142F67E
:1030A000F50529460020FFF7E3FE002025490880AA
:1030B0000021084601F00EF80446012C3ED12248BA
:1030C000008822490988884238D020480088002892
:1030D00016DD1E480088502812DC00230222194603
:1030E0001B48006801F0C8FB00230222194619485A
:1030F000006801F0C1FB15480088134908801DE0F5
:103100001248008868B90020FFF750FE42F6F50526
:1031100029460020FFF7ACFE0C4800880A490880C9
:103120000CE00A480088502808DD4CF6CC452946BA
:103130000020FFF79DFE5020FFF738FE0A2000F028
:1031400046FCA9E700000020020000201E0000202D
:10315000080000200C00002000BF0021084600F0FD
:10316000B9FF0446012C03D103480088FFF71EFE77
:103170000A2000F02CFCF0E70200002010B500BF90
:10318000502080F31188BFF34F8FBFF36F8F00BFC4
:1031900001F016FC18B14FF080500449086000BFE0
:1031A000002080F3118800BF10BD000004ED00E096
:1031B00000B593B0282109A8FDF784F8142104A8CC
:1031C000FDF780F80020009001900290039001200C
:1031D000099000040A9000200B9001200D9002201D
:1031E0001090C10311914FF4E011129109A8FDF75D
:1031F00089FF08B1FDF7FAF80F200490022005902E
:10320000002006904FF48060079000200890022173
:1032100004A8FDF731FE08B1FDF7E8F802200090A0
:10322000800302906846FDF78FFD08B1FDF7DEF8D8
:1032300013B000BD7047000010B50248FEF740FF14
:1032400010BD00009404002010B50248FEF738FFBE
:1032500010BD00007403002010B50248FEF730FFD7
:1032600010BD0000BC03002010B50248FEF728FF87
:1032700010BD00000404002010B502681C4B9842E9
:1032800008D0B0F1804F05D01A4B984202D01A4BAB
:10329000984203D122F070024B681A43144B9842B3
:1032A00008D0B0F1804F05D0124B984202D0124B9B
:1032B000984203D122F44072CB681A4322F0800373
:1032C0004C6943EA040202608B68C3620B68836244
:1032D000074B984201D10B690363012343610369E2
:1032E00003F001031BB1036923F00103036110BD67
:1032F000002C0140000400400008004030B501F0FF
:103300001F05012404FA05F3046A9C430462046A5D
:1033100001F01F0502FA05F52C43046230BD30B5FB
:103320000C46816821F47F4142EA03252543294365
:10333000816030BD0A46816821F0700142F00703C8
:10334000194381607047000030B5026A056A25F0B4
:10335000010505624368846924F0700424F00304C5
:103360000D682C4322F002028D682A430D4DA842BD
:1033700006D100BF22F00802CD682A4322F00402E1
:10338000084DA84207D123F4807323F400734D69DC
:103390002B438D692B43436084614D684563026212
:1033A00030BD0000002C014030B5026A056A25F0EE
:1033B000100505624368846924F4E04424F44074F1
:1033C0000D6844EA052422F020028D6842EA0512C5
:1033D0000E4DA84207D100BF22F08002CD6842EA1C
:1033E000051222F04002094DA84209D123F480635E
:1033F00023F400634D6943EA85038D6943EA85033D
:10340000436084614D688563026230BD002C0140D9
:1034100030B5026A056A25F4807505624368C4699F
:1034200024F0700424F003040D682C4322F400728D
:103430008D6842EA05220F4DA84207D100BF22F451
:103440000062CD6842EA052222F48062094DA8425A
:1034500009D123F4805323F400534D6943EA051343
:103460008D6943EA05134360C4614D68C563026218
:1034700030BD0000002C014030B5036A056A25F418
:10348000805505624468C26922F4E04222F4407229
:103490000D6842EA052223F400538D6843EA0533A0
:1034A000064DA84204D124F480444D6944EA8514B1
:1034B0004460C2614D680564036230BD002C014068
:1034C00030B50B461446026A056A25F0010505620F
:1034D000816921F0F00141EA041122F00A021A4345
:1034E0008161026230BD000070B50C461546026A6B
:1034F000066A26F0010606628169124EB04208D0C3
:10350000B0F1804F05D0104EB04202D00F4EB04205
:1035100001D1012600E000261EB121F0030129435C
:1035200001E041F0010121F0F001F02606EA031666
:10353000314322F00A0204F00A063243816102623A
:1035400070BD0000002C0140000400400008004055
:1035500030B50B461446026A056A25F0100505626F
:10356000816921F4704141EA043122F0A00242EA6B
:1035700003128161026230BD70B50C461546026AC5
:10358000066A26F010060662816921F4407141EA5C
:10359000052121F470414FF4704606EA03363143A9
:1035A00022F0A002A02606EA0416324381610262DC
:1035B00070BD70B50C461546026A066A26F4807620
:1035C0000662C16921F00301294321F0F001F026D0
:1035D00006EA0316314322F400724FF4007606EA3D
:1035E00004263243C161026270BD70B50C461546B7
:1035F000026A066A26F480560662C16921F44071A7
:1036000041EA052121F470414FF4704606EA033681
:10361000314322F400524FF4005606EA0436324396
:10362000C161026270BD70B505466C6A0020E0851C
:10363000E0842046FEF7D7FF70BD00BF00BF0268E0
:103640000C3252E8002F22F4907102680C3242E8EA
:103650000013002BF3D100BF00BF00BF026814327B
:1036600052E8002F22F001010268143242E80013F0
:10367000002BF3D100BF016B01290ED100BF00BFA9
:1036800002680C3252E8002F22F0100102680C325E
:1036900042E80013002BF3D100BF202180F8421034
:1036A00000210163704710B504462068C06820F00F
:1036B00040002168C860202084F841002046FFF7C0
:1036C0008EF9002010BDF8B5044694F84200222877
:1036D00075D1A068B0F5805F0CD1206950B9002584
:1036E000A66A20684068C0F308003080A06A801C89
:1036F000A06215E0A56A0026A068B0F5805F03D03F
:10370000A06828B9206918B920684068287004E0CA
:103710002068406800F07F002870A06A401CA0620A
:10372000E08D401E80B2E085002846D12068C06848
:1037300020F020002168C8602068C06820F48070F4
:103740002168C8602068406920F001002168486154
:10375000202084F8420000206063206B012826D1DD
:103760000020206300BF00BF21680C3151E8001F1A
:1037700021F0100021680C3141E80002002AF3D149
:1037800000BF2068006800F0100010280AD100BFB8
:103790000020009020680068009020684068009039
:1037A00000BF00BFA18D2046FEF71CFF02E02046AF
:1037B000FFF714F90020F8BD01E00020FBE702202C
:1037C000F9E7000070B504462168096921F4405109
:1037D000E2681143226811612269A168114362699C
:1037E00041EA02052168C96841F20C62914329430C
:1037F0002268D1602168496921F44071A2691143AE
:10380000226851612D4A2168914202D1FDF732FCB4
:1038100001E0FDF71FFC00EBC00101EB0011626845
:103820009200B1FBF2F100EBC00202EB0012636800
:103830009B00B2FBF3F26423B2FBF3F202EBC20390
:1038400003EB0212A1EB8201322202EB011164228E
:10385000B1FBF2F101F0F00100EBC00202EB00124B
:1038600063689B00B2FBF3F26423B2FBF3F201EB5B
:10387000021200EBC00101EB001163689B00B1FB79
:10388000F3F100EBC00303EB00136668B600B3FB73
:10389000F6F36426B3FBF6F303EBC30606EB031360
:1038A000A1EB8301322303EB01116423B1FBF3F19C
:1038B00001F00F0111442268916070BD0038014091
:1038C000014691F84100212828D18868B0F5805F31
:1038D0000BD1086948B90A6A1088C0F308000B6860
:1038E0005860086A801C086205E00B6A581C086270
:1038F00018780B685860C88C401E80B2C88458B9CC
:103900000868C06820F080000B68D8600868C0684C
:1039100040F040000B68D860002070470220FCE7B0
:1039200010B50248FEF760FE10BD00004C040020F8
:1039300000BFFEE702480068C0F3022070470000A5
:103940000CED00E010B5002804DB0A07130E054A51
:10395000135406E00A07140E034A00F00F031B1F5E
:10396000D45410BD00E400E018ED00E0FDF7F6F8D7
:10397000FFF71EFCFFF7A0F8FFF734F8FFF7F8F8A1
:10398000FFF718F9FFF7F2F9FFF79CF9FFF762F973
:103990000C210848FEF72EFD08210748FEF7E0FA43
:1039A0000648FEF7F7F8FFF749F800F01CF800BFEB
:1039B000FEE700000404002074030020BC03002084
:1039C00001460020842901D0CA1C1044704770B5FC
:1039D000044625460DB1294600E00121084600F0C5
:1039E000F3FC002070BD10B500F094FD002010BD68
:1039F0007FB504460D46606998B1A06988B1B4F9F5
:103A00000800FFF7DDFF0646D4E90510CDE90061A7
:103A100002902B462269D4E9001000F0CFFE0390FB
:103A200013E0B4F90800FFF7CBFF064603A8CDE981
:103A30000060238A9AB22B46D4E9001000F08CFE75
:103A4000012802D0002004B070BD0398FBE70000FD
:103A50002DE9F04105460E461C4807681C480068E1
:103A6000001D00F071FB50B91948006890F82C1047
:103A70000120884017490968814316480160681C85
:103A800038B936B112480168091D134800F0A6FB89
:103A90001AE07C190E4800684460BC4207D20C480A
:103AA0000168091D0D48006800F07EFB0CE0084825
:103AB0000168091D0A48006800F076FB09480068A3
:103AC000844201D207480460BDE8F0814400002030
:103AD0003000002048000020B805002038000020F9
:103AE000340000206000002010B5044600F082FB86
:103AF00023480068401C224908602248006840B9F9
:103B0000204804600846006801280DD100F03EF905
:103B10000AE01D48006838B91A480068C06AE16ABE
:103B2000884201D81748046018480068401C1749AB
:103B3000086094F82C100120884015490968084352
:103B400013490860E16A01EB8101124A02EB81002E
:103B5000211D00F043FB00F077FB0B48006868B1C3
:103B600008480068C06AE16A884207D24FF0805076
:103B700009490860BFF34F8FBFF36F8F10BD00007E
:103B800040000020300000204C0000205C0000209D
:103B900048000020DC04002004ED00E010B516E031
:103BA00000F028FB0C48C068C468201D00F0CCFA67
:103BB0000A480068401E0949086009480068401E1C
:103BC0000749086000F040FB204600F00BF804486D
:103BD00000680028E4D110BDA405002040000020AA
:103BE0003C00002010B5044694F8510030B9206B19
:103BF00000F048FB204600F045FB1AE094F8510025
:103C0000012803D1204600F03DFB12E094F851005A
:103C1000022801D1012000E0002050B900BF50204F
:103C200080F31188BFF34F8FBFF36F8F00BF00BFCA
:103C3000FEE710BD30B54FF44063174800F00704AD
:103C40002CB1C01D20F00700134C041B1B1B0246A7
:103C5000124C22600024114D6C60D018083820F0FE
:103C600007000F4C206000240D4D2D686C600C4D3A
:103C70002D682C601146441A4C60094C24680C6075
:103C8000084D4C682C60084D4C682C604FF0004487
:103C9000064D2C6030BD0000CC0500206C000020DB
:103CA000740000207C0000207800002088000020A4
:103CB00000BFFFF773FF064800680128F9D94FF0ED
:103CC000805004490860BFF34F8FBFF36F8FF0E758
:103CD000DC04002004ED00E02DE9FF5F81460E4684
:103CE0009246DDE90E7B109CAAF10100216B01EBED
:103CF000800828F0070808F0070008B9012000E054
:103D0000002050B900BF502080F31188BFF34F8FBF
:103D1000BFF36F8F00BF00BFFEE786B1002507E04D
:103D2000715D04F134004155705D00B902E06D1C15
:103D3000102DF5D300BF00214320015502E00020E3
:103D400084F83400072F00D30627E7626764002059
:103D5000A064201D00F025FA04F1180000F021FAFB
:103D60002461C7F10700A06164620020E06484F868
:103D7000500049464046039A00F050F92060BBF1DC
:103D8000000F01D0CBF80040BDE8FF9F10B5002424
:103D900007E004EB84010F4A02EB810000F0F4F924
:103DA000641C072CF5D30C4800F0EEF90B4800F02A
:103DB000EBF90B4800F0E8F90A4800F0E5F90A4889
:103DC00000F0E2F90448094908600448084908601D
:103DD00010BD0000DC040020680500207C050020E8
:103DE00090050020A4050020B80500203400002024
:103DF0003800002010B50146164800E0006803684E
:103E00008B42FBD30246436813448B4204D1436880
:103E10004C682344436001460A464B6813440468D7
:103E2000A34211D10C4C03682468A34208D04B680C
:103E30000468646823444B6003681B680B6005E0FA
:103E4000054B1B680B6001E003680B60884200D0E3
:103E5000016010BD6C000020740000200A49096850
:103E6000096809B9012100E0002121B14FF0FF31BB
:103E7000064A116006E004490968C968C868034A2F
:103E8000416811607047000034000020600000208D
:103E90000E480068401C08B9012000E0002050B91D
:103EA00000BF502080F31188BFF34F8FBFF36F8F97
:103EB00000BF00BFFEE700BF502080F31188BFF3B2
:103EC0004F8FBFF36F8F00BF00BFFEE78C00002055
:103ED0002DE9F04104464FF0000800F073FB49481B
:103EE000006808B9FFF7A6FE474800682040002890
:103EF00070D1D4B1083404F00700B0B104F0070069
:103F0000C0F10800044404F0070008B9012000E0F3
:103F1000002050B900BF502080F31188BFF34F8FAD
:103F2000BFF36F8F00BF00BFFEE7002C52D03748B1
:103F3000006884424ED8364E3046056801E02E4671
:103F40002D686868A04202D228680028F7D12D4861
:103F5000006885423ED0306800F10808286830606B
:103F60006868001B102819D92F1907F0070008B935
:103F7000012000E0002050B900BF502080F31188DC
:103F8000BFF34F8FBFF36F8F00BF00BFFEE76868BE
:103F9000001B78606C603846FFF72CFF1B4968688F
:103FA0000968081A1949086008460068194909682B
:103FB000884203D2154800681649086012496868AB
:103FC0000968084368600020286013480068401CA6
:103FD0001149086000F098FD08F0070008B90120B9
:103FE00000E0002050B900BF502080F31188BFF3DB
:103FF0004F8FBFF36F8F00BF00BFFEE74046BDE8A5
:10400000F08100007400002088000020780000206B
:104010006C0000207C00002080000020001F4FF07A
:1040200080730360001F21F001030360001F034B36
:10403000036014380260203870470000913E000889
:104040002DE9F04D07460E4601F0E6F904460D460F
:104050003A46334601F03AFADFF86CA0DFF86CB06C
:104060001B4B0746884616F0004F4FF000020AD05F
:1040700001F062F80AD900225B463846414601F059
:1040800095F91BD212E001F057F808D200225346EE
:104090002046294601F026FA04460D460EE000228D
:1040A0005B463846414601F081F907D80022534665
:1040B0002046294600F0DCFD04460D4631462046E8
:1040C00065F31E01BDE8F08D0000F03F0000E03F09
:1040D0000000E0BF70B506460D4600F08BF81848AA
:1040E0000068C06C88B901201549096881F8500042
:1040F0005DB101212846FFF7ABFC4FF0805011491C
:104100000860BFF34F8FBFF36F8F00F09DF800F092
:1041100071F80B480068C46C4CB126B10020084906
:104120000968C86403E0601E05490968C864002086
:104130000349096881F8500000F086F8204670BDF8
:104140003000002004ED00E001460A69D1E90130A9
:104150009860D1E9010358605068884201D18868AD
:104160005060002008611068401E106010687047A1
:10417000034B0360034B0B60802313607047000008
:1041800098000020EC00002000F1080141604FF091
:10419000FF31816000F10801C1600161002101600F
:1041A000704700210161704710B502460B685C1C26
:1041B0000CB9106907E002F1080000E040684468AB
:1041C00024689C42FAD944684C604C68A1608860BD
:1041D00041600A611468641C146010BD42684A6042
:1041E00093688B60936859609160086103685B1CF9
:1041F0000360704700BF502080F31188BFF34F8FDA
:10420000BFF36F8F00BF0E480068401C0C49086068
:1042100008460068012812D10A480068C0B208B9EF
:10422000012000E0002050B900BF502080F3118829
:10423000BFF34F8FBFF36F8F00BF00BFFEE7704724
:104240008C00002004ED00E00D48006850B900BF6C
:10425000502080F31188BFF34F8FBFF36F8F00BFE3
:1042600000BFFEE706480068401E05490860084692
:10427000006820B9002080F3118800BF00BF70479C
:104280008C00002070B506463546002E44D0083D0F
:104290002C46224960680968084008B1012000E006
:1042A000002050B900BF502080F31188BFF34F8F1A
:1042B000BFF36F8F00BF00BFFEE7206808B9012081
:1042C00000E0002050B900BF502080F31188BFF3F8
:1042D0004F8FBFF36F8F00BF00BFFEE70F496068CD
:1042E00009680840C0B12068B0B90C496068096825
:1042F0008843606000F066F909496068096808440D
:10430000074908602046FFF775FD06480068401C15
:104310000449086000F0F8FB70BD00008800002030
:10432000780000208400002000204FF0E021086188
:104330008861064800684FF47A71B0FBF1F0401EC6
:104340004FF0E02148610720086170472C000020F1
:1043500070B5FBF761FF0446102C16D304F1E02082
:1043600090F8F05315480078854201DB012000E009
:10437000002050B900BF502080F31188BFF34F8F49
:10438000BFF36F8F00BF00BFFEE70D48006800F469
:10439000E0600C490968884201D8012000E0002053
:1043A00050B900BF502080F31188BFF34F8FBFF387
:1043B0006F8F00BF00BFFEE770BD000090000020BF
:1043C0000CED00E09400002070B504460025D4B147
:1043D0001248006808B9012000E0002050B900BF71
:1043E000502080F31188BFF34F8FBFF36F8F00BF52
:1043F00000BFFEE700F0E6F800212046FFF728FBAB
:1044000000F082FB05463DB94FF08050044908603A
:10441000BFF34F8FBFF36F8F70BD000068000020A7
:1044200004ED00E02DE9F04105460F4655B900BF07
:10443000502080F31188BFF34F8FBFF36F8F00BF01
:1044400000BFFEE7FFF784FF2C4600BF5021EFF3CB
:10445000118081F31188BFF34F8FBFF36F8F00BFBF
:10446000064694F85080022084F85000E06C401C0E
:10447000E064B8F1010F3AD1A06A08B9012000E068
:10448000002050B900BF502080F31188BFF34F8F38
:10449000BFF36F8F00BF00BFFEE718480068A8B9E0
:1044A000201DFFF751FE94F82C100120884014497C
:1044B0000968084312490860E16A01EB8101114A69
:1044C00002EB8100211DFFF789FE04E004F11801D1
:1044D0000D48FFF783FE0D49E06A0968C96A884202
:1044E00005D90FB10120386001200949086000BFDB
:1044F00086F3118800BFBDE8F0810000680000204D
:1045000048000020DC04002090050020300000203E
:104510005400002010B586B000200590049003AA36
:1045200004A905A8FFF724FE0022DDE904101346C4
:10453000CDE9002102901CA11D48039A00F03EF92C
:104540001C4908600846006808B1012400E0002406
:10455000012C15D100BF502080F31188BFF34F8F7D
:10456000BFF36F8F00BF4FF0FF3013490860012089
:104570001249086000201249086000F071F810E04C
:10458000601C08B1012000E0002050B900BF50209D
:1045900080F31188BFF34F8FBFF36F8F00BF00BF51
:1045A000FEE706B010BD000049444C450000000085
:1045B000B13C000864000020600000204C00002096
:1045C0004400002002480068401C01490860704710
:1045D000680000201D48006818B101201C490860CF
:1045E00032E000201A4908601A480068B0FA80F0EA
:1045F000C0F11F0101EB8100174A52F8200008B1F9
:10460000012000E0002050B900BF502080F3118845
:10461000BFF34F8FBFF36F8F00BF00BFFEE701EB0B
:1046200081020D4B03EB820042685268426000F148
:1046300008024368934202D142685268426042686D
:10464000D268064B1A6000BF704700006800002067
:104650005400002048000020DC040020300000202E
:104660001CB53849084600780190FF200A461070B2
:104670000846007800909DF8000000F0F0009DF8DA
:104680000020904201D1012000E0002050B900BF7D
:10469000502080F31188BFF34F8FBFF36F8F00BF9F
:1046A00000BFFEE79DF8000000F05000264A1070A1
:1046B0000720264A106009E024480068401E234A6B
:1046C00010609DF800004006000E00909DF800006C
:1046D00000F080008028EFD01C480068C0F107007F
:1046E000042801D1012000E0002050B900BF502073
:1046F00080F31188BFF34F8FBFF36F8F00BF00BFF0
:10470000FEE7124800680002104A10601046008858
:1047100000F4E06010600B4A019810700C480068CB
:1047200040F470000A4908600846006840F0704094
:104730000860FFF7F9FD002006490860FBF736FD29
:1047400000201CBD00E400E0900000209400002048
:1047500020ED00E08C0000202DE9FF4F85B0804661
:1047600089461746DDE912ABB800FFF7B1FB0646F4
:1047700056B15420FFF7ACFB04460CB1266304E0AD
:104780003046FFF77FFD00E000248CB1002084F864
:104790005100CDE900ABCDE902403A4649464046DA
:1047A000089BFFF799FA2046FFF79EF9012501E0E3
:1047B0004FF0FF35284609B0BDE8F08F2DE9F04FE6
:1047C00085B00746884691469A46DDE90EB6109CAC
:1047D0000EB1012000E0002050B900BF502080F34E
:1047E0001188BFF34F8FBFF36F8F00BF00BFFEE78D
:1047F0000CB1012000E0002050B900BF502080F330
:104800001188BFF34F8FBFF36F8F00BF00BFFEE76C
:10481000542003900398542801D1012000E0002087
:1048200050B900BF502080F31188BFF34F8FBFF302
:104830006F8F00BF00BFFEE700BFB4B1AEB1254629
:104840002C462E63022085F85100002004A953460F
:104850004A46CDE900B1CDE9025041463846FFF75E
:104860003BFA2846FFF740F901E000200490049845
:1048700005B0BDE8F08F00002DE9F04706460D4673
:10488000174698464FF0010A56B900BF502080F3F2
:104890001188BFF34F8FBFF36F8F00BF00BFFEE7DC
:1048A0003446FFF7A7FCB8F1000F02D0E06CC8F85F
:1048B000000094F85090022084F85000052F17D281
:1048C000DFE807F01503070B0D00E06C2843E064F8
:1048D00021E0E06C401CE0641DE0E5641BE0B9F100
:1048E000020F01D0E56401E04FF0000A13E012E08E
:1048F000E06C401C08B9012000E0002050B900BF66
:10490000502080F31188BFF34F8FBFF36F8F00BF2C
:1049100000BFFEE700BF00BFB9F1010F33D1201D7A
:10492000FFF712FC94F82C10012088401849096800
:10493000084317490860E16A01EB8101154A02EB5F
:104940008100211DFFF74AFCA06A08B9012000E0A0
:10495000002050B900BF502080F31188BFF34F8F63
:10496000BFF36F8F00BF00BFFEE70B49E06A096825
:10497000C96A884207D94FF0805008490860BFF3E0
:104980004F8FBFF36F8FFFF75FFC5046BDE8F08796
:1049900048000020DC0400203000002004ED00E08E
:1049A0000549096809B9012005E00449096809B900
:1049B000022000E0002070474C000020680000202A
:1049C0002DE9F0414FF000084448006800287CD1F0
:1049D00043480068451C4248056015BB41480068D3
:1049E000006808B9012000E0002050B900BF502045
:1049F00080F31188BFF34F8FBFF36F8F00BF00BFED
:104A0000FEE7384807683848006836490860364885
:104A1000076036480068401C34490860FFF71EFAFA
:104A200000BF3348006885423CD300BF2D48006872
:104A3000006808B9012000E0002020B14FF0FF30ED
:104A40002B4908602DE027480068C068C468666884
:104A5000B54202D22648066023E0201DFFF774FB12
:104A6000A06A18B104F11800FFF76EFB94F82C103F
:104A7000012088401F49096808431E490860E16A0F
:104A800001EB81011C4A02EB8100211DFFF7A6FB0F
:104A90001A49E06A0968C96A8842C7D34FF0010819
:104AA000C4E700BF15480068C06A00EB80001249E7
:104AB00051F82000012801D94FF001081048006882
:104AC00008B14FF0010805E0FFE70E480068401C00
:104AD0000C4908604046BDE8F081000068000020F5
:104AE000440000203400002038000020580000203E
:104AF0006000002048000020DC040020300000207E
:104B0000540000205000002070B5002400263648D4
:104B1000006850B900BF502080F31188BFF34F8F59
:104B2000BFF36F8F00BF00BFFEE7FFF763FB2E48A8
:104B30000068401E2C4908600846006800284FD1D4
:104B40002A48006800284BD024E02948C068C4687F
:104B500004F11800FFF7F8FA201DFFF7F5FA94F8B2
:104B60002C10012088402349096808432149086026
:104B7000E16A01EB8101204A02EB8100211DFFF770
:104B80002DFB1E49E06A0968C96A884202D30120E8
:104B90001B4908601648006808B9012000E00020A1
:104BA0000028D2D00CB1FFF759F91648056865B155
:104BB00000BFFFF705FF10B10120114908606D1E0D
:104BC000002DF6D100200F4908600D48006838B16B
:104BD000012630070C490860BFF34F8FBFF36F8F7A
:104BE000FFF732FB304670BD680000204000002017
:104BF0009005002048000020DC0400203000002048
:104C0000540000205000002004ED00E021F000429C
:104C1000A2F16052B2F5801F01F0004328BFD2F12B
:104C20007F6C0BD95FEA001C43EAC20242EB507072
:104C300018BF704728BF20F001007047B2F5801FF1
:104C4000BCBF184670474FEA410C1CF5001F02D24A
:104C5000084600F01ABF70B500F054FB0000008950
:104C6000FFF7F6BF4FF00040A0F58000704700004E
:104C700010B591EA030F48BF83F0004300F13A8476
:104C8000841A71EB030C05D2121943EB0C03001BC1
:104C900061EB0C01DFF824E14FEA1154A4EB135C43
:104CA0001EEA430F18BF9EEA445F73D023EA0E0347
:104CB000DCF1200E21EA045143F4801332D322FAAE
:104CC0000CFE10EB0E0023FA0CFE41EB0E01CCF1B2
:104CD000200E03FA0EFE10EB0E0051F10001B1F5AB
:104CE000801FCCF1200E32D201EB045112FA0EF2E9
:104CF000BDE8104058BF7047401C38BF5FEA420211
:104D000018BF7047002814BF20F0010041F10001D6
:104D10004FEA410313F5001F38BF7047A1F1C041AE
:104D200000F03EBB012A43EB0302ACF1200CDCF1A6
:104D30001F0E32BF4FF0000E23FA0CF310EB0300EE
:104D400041EB0451B4EB115FD0D0A1EB045101F55C
:104D5000801149085FEA300001EB04510ED350F195
:104D6000000038BF12FA0EFE08D1BDE81040C9E7B6
:104D7000401C38BF5FEA4202CAD1C3E7BDE8104019
:104D80004FEA410313F5001F38BF7047A1F1C0413E
:104D900000F006BB9EEA445F08D011EA5E0FBDE852
:104DA000104004BF01F0004100207047BDE81040F2
:104DB00070B500F0A7FA00BF64FBBE3E0000E0FF44
:104DC000491058BFC1F140415B1058BFC3F1404387
:104DD0008B42EFF3008070472DE9C04130B4DFF81B
:104DE000A0C23CEA111418BF3CEA131400F0EC8096
:104DF00081EA03051CEA111444EAD57418BF1CEAC1
:104E0000131500F0C780A4EB05044FF0004545EAF8
:104E1000C12145EAC32341EA505143EA525304F108
:104E20007F74994204F500344FEAC0204FEAC22251
:104E300008BF904200F09C804FEA13650FF24016C5
:104E4000765D4FEA134506FB05F7C7F1807706FB51
:104E500007F74FEAD737A7FB03687642C8F58038D3
:104E6000A7FB06CE38BFA8F1010807FB08E64FF004
:104E7000000EA6FB028CE6FB03CEDCF1000CCEF1AB
:104E8000004E38BFAEF1010EA6FB0C584FF00007E4
:104E90004FF00005E6FB0E87A1FB08C6A0FB07CE7E
:104EA00016EB0E0645F10005E1FB076515F1E04E36
:104EB0007EBFA4F580345FEA46066D4116F1800797
:104EC00045F100054FEA17274FEA066647EA0567EE
:104ED000A6F1DE46B6F1805F4FEA15251FD93846A8
:104EE00024F0010C05EBC471BCF1FE6F01EB0C1159
:104EF00002D8F0BCBDE8008124425CBF01F5801EF1
:104F00009EEAC47F02D4F0BCBDE80081244238D4BC
:104F1000F0BCA1F1C041BDE8004100F041BA4FEA48
:104F2000D22242EA43524FEAD323A7FB02864FEA3A
:104F3000D02040EA415007FB03661EEA0E0F4FEAFD
:104F4000D12105FB026658BFA6EB0056B6EB005612
:104F50004FEA520E4EEAC37E18EB0E0E56EB530E7E
:104F6000BDD518EB02085E417F1C55F10005B6E780
:104F70004FF480154FF000074FF000064FF0000887
:104F8000ADE7F0BC4FF0000001F1C04101F000417D
:104F9000BDE8008111EA0C1F0CEA131500D00CE0EB
:104FA00013EA0C1F00F025804FF00000F0BC81EAEE
:104FB000030101F00041BDE80081F0BCBDE8004103
:104FC00081EA030100F0ECB9F0BCBDE8004170B526
:104FD00000F098F9097EFC3E00F007B881EA030171
:104FE0004FF0000001F00041704781EA030100F03A
:104FF000D7B9F0BCBDE800414FF00000214970472F
:10500000FFFDFBF9F7F5F4F2F0EEEDEBE9E8E6E48D
:10501000E3E1E0DEDDDBDAD8D7D5D4D3D1D0CFCD14
:10502000CCCBCAC8C7C6C5C4C2C1C0BFBEBDBCBB4D
:10503000BAB9B8B7B6B5B4B3B2B1B0AFAEADACAB48
:10504000AAA9A8A8A7A6A5A4A3A3A2A1A09F9F9E22
:105050009D9C9C9B9A9999989797969595949393D4
:10506000929191908F8F8E8E8D8C8C8B8B8A89896B
:1050700088888787868585848483838282818180EE
:105080000000FF070000F87F4FEA1153A3F580638B
:10509000D3F11E03A8BFD3F1200C08DB4FF0004270
:1050A00042EAC12252EA505232FA03F070470942F2
:1050B0000BD4102BC4BF0020704703F5787CBCF1E3
:1050C000FF3F05D04FF0FF3070474FF000007047B2
:1050D00070B500F017F900BF499224800020704796
:1050E000F0E710F0004248BF4042B0FA80F310FAF7
:1050F00003F10AD0C3F11D0303F580634FEA415069
:1051000002EB035202EBD12170474FF000007047D1
:10511000B0FA80F310FA03F10AD0C3F11D0303F5CE
:1051200080634FEA41504FEA035202EBD1217047AE
:105130004FF000007047000051EA030C17D41CF533
:10514000801F58BFBCF5801F00F10680994218BF30
:10515000704708BF9042704707D711F5801F58BFAE
:1051600013F5801F19D499427047894270471CF586
:10517000801F08D5BCF5801FF7D58B4218BF70473C
:1051800008BF824270474FF4001C1CEB410F38BF30
:105190001CEB430F01D28B42704770B500F0B2F8A0
:1051A000922449004FF000514FF08053FFF708BEA2
:1051B000DFF848C170B51CEA111E1EBF1CEA1315AA
:1051C0009EEA0C0F95EA0C0F00F06F8081EA030451
:1051D00023EA4C134EEAD47E21EA4C1141F48011AB
:1051E00043F48013AE44A1FB024CA0FB0365AEF177
:1051F0007F7E361955EB0C05A1FB034C4CF10003E7
:10520000A0FB021C16EB0C06654153F1000309429A
:1052100018BF46F0010613F4007F0BD14FEA0331AB
:105220004FEA0530340341EA155140EA16506FF059
:1052300003020AE04FEAC3214FEAC520F40241EA23
:10524000555140EA56506FF0020202EB2E4201EB3C
:10525000025585EACE710AD05FEA440C18BF24F0EB
:10526000004450F1000041F1000120EAD47040F206
:10527000FE7C624500D270BDA84214BF4FF080444E
:105280004FF04044002E08BF0024BEF1806FA8BF3D
:10529000A1F1C041BDE8704080F282804FF0000073
:1052A00001F1C04101F0004170479EEA0C0F0CEA89
:1052B000131518BF95EA0C0F06D04FF0000081EAD5
:1052C000030E0EF0004170BD00F01CF88900013E95
:1052D00000F007B800F009B84FEA430C5FEA5C5CE5
:1052E00008D081EA030100F05BB84FEA410C5FEAA5
:1052F0005C5CF6D14FF00000014970470000FF07E9
:105300000000F87F0EF1020E2EF0030E5EF8046B23
:10531000364205D4012A43EB030515F5001F12D8C8
:10532000012841EB010C1CF5001F0CD80ED14FEAEF
:10533000D17C15F5001F0CEB4C0C0CF1020C08BFD6
:105340004CEBD37C04E04FF0080C01E04FEAD37C37
:105350000CEB4C0526FA05F606F00706B6F1040C30
:1053600006D20EEB860CBDE870404CF0010C604795
:10537000DFE80CF0090B02024FF000414FF0000093
:10538000A1F5002170BD19461046012851EB01041A
:1053900018BFD4F5001484BF002001F0004170BD97
:1053A0000808A0F500114FEA3101704753EA010CDB
:1053B00017D41CF5801F58BFBCF5801F00F1068074
:1053C0008B4218BF704708BF8242704707D713F55A
:1053D000801F58BF11F5801F19D48B4270479B4224
:1053E00070471CF5801F08D5BCF5801FF7D5994282
:1053F00018BF704708BF904270474FF4001C1CEB69
:10540000430F38BF1CEB410F01D2994270470FB4D4
:105410000CBC03BCFFF7C1BE5FEA410C5FEA5C5CF9
:10542000ACF580635B1C39D4D3F1340240F3458082
:10543000B2F1200314DA4FF0010C0CFA02FCACF1CB
:1054400001030340B3EB5C0220EA030008BF10EA4B
:105450000C0F98BF704710EB0C0041F10001704732
:105460000AD0C3F1200201FA02FC012821FA03F15B
:1054700001FA03F14CF100004FF0010C0CFA03FCAF
:10548000ACF10103B0F1004F21EA030108BF11EABA
:105490000C0F4FF0000088BF61447047B3F1FF3F2D
:1054A00028BF50EAC12C01F000414FF0000084BF3A
:1054B00041F07C5141F470017047B3F5806FB8BF83
:1054C000704770B5FFF71EFF40DBB6BE91EA030FD1
:1054D00010B581F000413FF5D3AB83F0004300F0FD
:1054E00009B8000010B591EA030F48BF83F00043EC
:1054F0003FF5C6AB841A71EB030C07D212198CF07E
:10550000004C43EB0C03001B61EB0C01DFF8A4E142
:105510004FEA1154A4EB135C1EEA430F18BF9EEA36
:10552000445F00F0B08023EA6E03524221EA045146
:10553000C3EB6E0338BF5B1EDCF1200E25D322FACD
:105540000CFE10EB0E0043FA0CFE41EB0E01CCF109
:10555000200E03FA0EFE10EB0E0051F10001CCF10B
:10556000200E29D412FA0EF201EB0451BDE81040CE
:1055700058BF7047401C1CBFB2F1004F7047002855
:105580000CBF491C20F00100704712EB020E43EBE8
:10559000030218BF4FF0010E4EEA4202ACF1200C9C
:1055A000DCF11E0E54D943FA0CFE10EB0E0051F143
:1055B000FF31CCF11E0ED5D50EF1010E12FA0EFE02
:1055C000404141EB010101EB445C5FEA5C5C10D9B6
:1055D00010EBDE7001EB045138BFBEF1004FBDE8A7
:1055E000104018BF704700280CBF491C20F0010074
:1055F000704730D24FEAD42C11F5001124F4006426
:105600001BD0B1FA81F20B3AA41AA41ED2F12003E6
:10561000914030FA03F31943904001EBCC71002C18
:1056200001EB0451BDE81040A8BF704701F1C04133
:105630004FF0000001F000417047B0FA80F310FA1B
:1056400003F100D110BDE41A173C4805C90AE4E78C
:1056500001EB045110BD491001EB0451BDE81040AD
:105660004FEA300002E04FF0000170474A0008BFE7
:105670000042F8D0B2F5001F28BF704701F000418A
:105680004FF0000070479EEA445F07D011EA5E0FBA
:10569000BDE8104004BF002100207047BDE8104065
:1056A00070B5FFF72FFE00BF40DFF63E83F00041EC
:1056B000104670470000E0FF43004FEAD30C4FEA6A
:1056C0003C0C43401FBF40070CF1605113F0FE4FEC
:1056D00070471CF0006F03D100200CF000417047B0
:1056E0000CF0004343EA507010B540EACC0000F0E3
:1056F00086F900BF000000924FEA0001FFF750BE9C
:105700004FF000414FF00000A1F50021704700006C
:105710004FF47F0C1CEAD0121EBF1CEAD11392EA90
:105720000C0F93EA0C0F00F0858090EA010F48BF40
:1057300042F4807240F4000C41F400002CF07F41F0
:1057400020F07F4000B58142A2EB03020FF2081C5B
:10575000ACEB504EC0F100009EF800E04FEA4E0E58
:1057600000FB0EFC38BF49004FEA2C1C02F5FA0280
:105770000CFB0EF34FEACE1E4FEA112C4FEAC1216B
:105780000EEB635E42EB22420EFB0CFC4FEA1C5315
:1057900000FB03114FEA112C4FEA01310EFB0CFC08
:1057A0004FEADC4C00FB0C11C14228BF09184CEB3E
:1057B00003335DF804EB10EB410143EBC250B2F54B
:1057C0007C0F38BF704729D512F0F00F1CBF00F1D5
:1057D000C04000F000407047008182838485868746
:1057E00088898B8C8D8E8F919293959697999A9CA0
:1057F0009D9FA0A2A3A5A7A8AAACAEB0B2B3B5B70F
:10580000B9BCBEC0C2C5C7C9CCCED1D4D7D9DCDFE4
:10581000E2E6E9ECF0F3F7FAFE0000004FEA400C94
:105820000CF1807CBCF17E4F28BF7047B0F1C040C6
:1058300000F02BB990EA010F0CEAD11348BF42F4F3
:105840008072624538BF634507D213F47F0F16D0CC
:1058500080EA010000F00040704710B500F0CFF87A
:10586000097EFC3E00F005B880EA010000F000402F
:10587000704780EA010000F0004000F006B912F421
:105880007F0F04BF0248704780EA010000F0FDB8B6
:105890000000C07FC10DD1F19E0206DB4FEA00235C
:1058A00043F0004323FA02F07047004207D54FEA65
:1058B0004001B1F1FE4F02D24FF00000704710B529
:1058C00000F09DF849922480002070476FEA200084
:1058D00070470000B0FA80F310FA03F2C3F19D03A1
:1058E0000AD0D90501EB1220530638BF704700F1EA
:1058F000010008BF20F00100704700004FF47F0C4A
:105900001CEAD0121EBF1CEAD11392EA0C0F93EAD4
:105910000C0F00F0478090EA010F48BF42F48072FC
:105920004FF0004C4CEA00204CEA012102EB03024C
:10593000A0FB0113A2F50002002918BF43F00103E8
:105940005B0028BF4FEA330342EB22425FEA132C8D
:105950004CEBC2502EBFBCEB436FB2F57C0F7047CF
:105960004FEA036CBCF1004F08BF20F00100B2F514
:105970007C0F38BF70470BD582F0FF0212F5803FD5
:10598000C8BF704700F1C040D8BF00F0004070476A
:1059900000F5000C5FEA4C0C48BF7047B0F1C04006
:1059A00000F073B890EA010F0CEAD11348BF42F43B
:1059B0008072624538BF634504D280EA010000F07E
:1059C0000040704710B500F01AF800BF8900013E92
:1059D00000F007B800F009B85FEA410C5FEA1C6C00
:1059E00008D080EA010000F050B85FEA400C5FEA9E
:1059F0001C6CF6D14FF00040A0F5800070470EF10E
:105A0000020E2EF0030E5EF8044B244204D44FEA3B
:105A10004102B2F17F4F11D84FEA4003B3F17F4FFB
:105A20000CD80ED14FEAD07CB2F17F4F0CEB4C0C6E
:105A30000CF1020C08BF4CEBD17C04E04FF0080CD9
:105A400001E04FEAD17C0CEB4C0324FA03F404F0A0
:105A50000704B4F1040C06D20EEB840CBDE8104030
:105A60004CF0010C6047DFE80CF0070802024FF031
:105A70000040A0F5800010BD0846420018BFD2F1DA
:105A8000807288BF00F0004010BDFF2141EAD05075
:105A9000C0057047CDCCCC46005000004C5B0008E0
:105AA00059310008000000000000000080000000E4
:105AB00000000000000000005C5B000819300008D6
:105AC0000000000000000000800000000000000056
:105AD00000000000405B0008953000080100000055
