:020000040800F2
:10000000E017002021020008F3230008FD2000086B
:10001000F1230008E30300082D2C00080000000075
:10002000000000000000000000000000890100083E
:10003000E503000800000000CD010008A926000823
:100040003B0200083B0200083B0200083B0200089C
:100050003B0200083B0200083B0200083B0200088C
:100060003B0200083B0200083B0200083B0200087C
:100070003B0200083B0200083B0200083B0200086C
:100080003B0200083B0200083B0200083B0200085C
:100090003B0200083B0200083B0200083B0200084C
:1000A0003B020008512700083B0200083B02000801
:1000B0005D2700083B020008692700083B02000892
:1000C0003B0200083B0200083B02000865240008D0
:1000D0003B020008212C00083B0200083B020008FC
:1000E0003B0200083B0200083B02000800F002F857
:1000F00000F03AF80AA090E8000C82448344AAF188
:100100000107DA4501D100F02FF8AFF2090EBAE885
:100110000F0013F0010F18BFFB1A43F0010318473B
:100120005447000074470000103A24BF78C878C1D3
:10013000FAD8520724BF30C830C144BF04680C60ED
:10014000704700000023002400250026103A28BF35
:1001500078C1FBD8520728BF30C148BF0B60704739
:100160001FB51FBD10B510BD00F0D6F81146FFF742
:10017000F7FF02F06DFD00F0F4F803B4FFF7F2FFB3
:1001800003BC00F0FBF80000224B19680868B0E8D7
:10019000F00F80F30988BFF36F8F4FF0000080F3FA
:1001A00011884EF00D0E70470000000006480068F0
:1001B000006880F3088862B661B6BFF34F8FBFF363
:1001C0006F8F00DF00BF00BF08ED00E0EFF3098094
:1001D000BFF36F8F0F4B1A6820E9F00F106008B55E
:1001E0004FF0500080F31188BFF34F8FBFF36F8F34
:1001F00003F0E0F94FF0000080F31188BDE80840FB
:1002000019680868B0E8F00F80F30988BFF36F8FB2
:10021000704700BF2C000020EFF3058070470000FE
:100220000948804709480047FEE7FEE7FEE7FEE78A
:10023000FEE7FEE7FEE7FEE7FEE7FEE704480549C6
:10024000054A064B704700004D270008ED000008E6
:10025000E0110020E0170020E0130020E013002050
:1002600010B5203AC0F00B80B1E81850203AA0E851
:100270001850B1E81850A0E81850BFF4F5AF5FEA85
:10028000027C24BFB1E81850A0E8185044BF18C938
:1002900018C0BDE810405FEA827C24BF51F8043BDF
:1002A00040F8043B08BF7047D20728BF31F8023B33
:1002B00048BF11F8012B28BF20F8023B48BF00F8C7
:1002C000012B70474FF0000200B513469446964646
:1002D000203922BFA0E80C50A0E80C50B1F1200159
:1002E000BFF4F7AF090728BFA0E80C5048BF0CC007
:1002F0005DF804EB890028BF40F8042B08BF704765
:1003000048BF20F8022B11F0804F18BF00F8012BD6
:100310007047704770477047754600F02BF8AE463F
:1003200005006946534620F00700854618B020B501
:10033000FFF784FFBDE820404FF000064FF00007B4
:100340004FF000084FF0000B21F00701AC46ACE87D
:10035000C009ACE8C009ACE8C009ACE8C0098D46EA
:10036000704710B50446AFF300802046BDE810404A
:10037000FFF703BF00487047801100200149182093
:10038000ABBEFEE7260002007047000070B50446D1
:1003900000688168C943C90717D1816821F001014C
:1003A000816000F0C1FA05460AE000BF00F0BCFA27
:1003B000401B022804D920688068C043C00706D0CB
:1003C00020688068C043C007F0D0002070BDA06ADC
:1003D00040F01000A062E06A40F00100E0620120FD
:1003E00070BDFEE7704772B6FEE70000F8B5002466
:1003F000009490F824202546012A12D0012280F88A
:1004000024204A681F23072A0DD20668776B521EE4
:1004100002EB820293409F430B6893401F43776334
:1004200019E00220F8BD06680D2A0AD2376BD21FE8
:1004300002EB820293409F430B6893401F43376354
:1004400009E0F76A0D3A02EB820293409F430B6882
:1004500093401F43F7620A68072306680A2A0AD3F3
:10046000F7680A3A02EB420293409F438B6893403D
:100470001F43F76008E0376902EB420293409F4355
:100480008B6893401F4337610A68102A01D0112AF4
:1004900020D1124B02689A4217D193681B0219D4DB
:1004A000936843F4000393600968102912D10C4942
:1004B0000C4A0968B1FBF2F101EB8101490000E04F
:1004C000491E00910029FBD104E0816A41F020011E
:1004D0008162012480F824502046F8BD00240140A8
:1004E0002800002040420F002DE9F0414FF00007A6
:1004F00004003D467ED0A06A002628B9E66284F852
:100500002460204600F07EF82046FFF73FFFA16AF6
:1005100001F01001014304D0A06A40F01000A06275
:1005200068E0A16A21F4885141F00201A162626889
:10053000E169237B0A4347EA43010A43A1684FF478
:100540008077B94208D0012906D0002194F814C060
:10055000BCF1010F02D00AE03946F7E7F3B1A36A14
:1005600043F02003A362E36A43F00103E3622368DC
:10057000D3F804C02CF4694C4CEA010CC3F804C055
:1005800023689968DFF870C001EA0C011143996093
:10059000A168B9420BD0012909D00CE0DFF85CC09A
:1005A000A3690CEB43330B4343F40061DFE7218A7B
:1005B0000D05A5F580152168CB6A23F470032B4344
:1005C000CB62216889680E4B1940914208D1E662DE
:1005D000A16A21F0020141F00101A162BDE8F081B0
:1005E000A06A20F0020040F01000A062E06A40F033
:1005F0000100E0620120F1E7FDF7E1FF00E0FFFF0D
:10060000FE0E1FFF00B585B00021009101910291FF
:10061000039100680E49884218D10E48816941F45F
:1006200000718161816901F400710491816941F077
:10063000040181618069694600F004000490022091
:10064000009003200190044800F078F805B000BD48
:1006500000240140001002400008014010B590F84D
:1006600021100022022905D00421816380F8202076
:10067000012010BD01680B6823F00E030B600168B8
:100680000B6823F001030B6090F84030C46B01212C
:1006900001FA03F3636080F8211080F820201046EF
:1006A00010BD000010B590F821100024022903D0DD
:1006B0000421816301243DE001680A6822F00E02F2
:1006C0000A6001680A6822F001020A601A4A016899
:1006D000914201D1012121E0174A1432914201D106
:1006E00010211BE0144A2832914201D1891515E0EE
:1006F000114A3C32914201D189140FE00E4A503226
:10070000914202D14FF4803108E00B4A64329142A9
:1007100002D14FF4801101E04FF08071064A083A8F
:100720005160012180F82110002180F82010416BD8
:1007300001B18847204610BD080002402DE9F84F5E
:10074000DFF8B8910024A9F1040B23460F2709F123
:10075000040AABF1040EC9E00125A5402A40AA42D3
:100760007DD1674ED1F804C0ACEB0608B44532D059
:1007700014DCBCF1030F3AD009DCBCF1000F2AD025
:10078000BCF1010F1CD0BCF1020F31D11DE0BCF156
:10079000110F17D0BCF1120F2AD119E0B8F5881F3C
:1007A00019D006DCB8F5803F15D0B8F5801F1FD1F1
:1007B00011E0B8F5001F0ED0B8F5041F18D10AE0FB
:1007C000CB6815E0CB681B1D12E0CB6808330FE047
:1007D000CB680C330CE08B682BB1012B4FF0080376
:1007E00003D0456104E0042302E0056100E000233A
:1007F000FF2A01D8064601E000F104064FEA84050D
:1008000001D9A5F12005D6F8008007FA05FC28EAF1
:100810000C0803FA05F548EA0508C6F800804D689B
:10082000ED0062D5374DAE6946F00106AE61AD69A7
:1008300024F0030605F001050095334D06EB050C89
:10084000DCF80850A607360F07FA06F825EA08056F
:10085000DFF8B880404503D14FF0000817E044E0CE
:10086000DFF8AC80404502D14FF001080FE0DFF81F
:10087000A480404502D14FF0020808E0DFF89880DC
:10088000404502D14FF0030801E04FF0040808FA98
:1008900006F848EA0508CCF808804D68D9F80060E9
:1008A000ED024D4601D5164300E096432E604D689B
:1008B000DAF80060AD02554601D5164300E09643D4
:1008C0002E604D68DBF80060AD035D4601D5164330
:1008D00000E096432E604D68DEF80060ED0375463B
:1008E00001D5164300E096432E60641C0D682A462D
:1008F000E5407FF431AFBDE8F88F00000804014007
:1009000000001110001002400000014000080140EA
:10091000000C014000100140001401400AB10161C7
:1009200070470904FBE70000014880687047000039
:100930001C000020024881680278114481607047E1
:100940001C000020074810B5016841F0100101604B
:10095000032000F0A1F80F2000F006F800F04AF89C
:10096000002010BD0020024030B505461C4887B06D
:10097000816941F400618161806906A900F4006029
:10098000009001A800F0A6F900F0D4F91549164A24
:10099000B0FBF1F11548491E0260416040F2E732B8
:1009A0000021C0E903218160816100F07FFD040026
:1009B00012D10E4800F0EEFD04000DD1192000F018
:1009C0003DF8102D07D200222946192000F044F8E6
:1009D0000748056000E0012407B0204630BD000054
:1009E0000010024040420F00002C0140480400204B
:1009F000200000200F4808B5816941F001018161A4
:100A0000816901F001010091C16941F08051C1612A
:100A1000C069002200F0805000900F21901E00F06D
:100A20001BF80548416821F0E06141F00071416028
:100A300008BD00000010024000000140002809DB52
:100A400000F01F02012191404009800000F1E020E8
:100A5000C0F8001170470000F0B40E4B1B680C4644
:100A6000C3F30223C3F10705042D00D90425191D82
:100A7000072901D2002300E0DB1E012606FA05F15A
:100A8000491E214099409E40761E16403143F0BCDD
:100A900002F0CDB80CED00E0064900F0070208684E
:100AA0004FF6FF03184040EA0220034A1043086053
:100AB000704700000CED00E00000FA052DE9F84356
:100AC00005460078354CC00754D0E0690026C000C8
:100AD00008D4E06940F08050E061E069012600F050
:100AE000805000902E480168C90512D401688046E4
:100AF00041F480710160FFF717FF074605E000BF72
:100B0000FFF712FFC01B642823D8D8F80000C005E7
:100B1000F6D5206A10F4407021D0A98801F4407104
:100B200081421CD0206A1F49012220F440700A60D3
:100B300000220A602062C00711D0FFF7F5FE0746C9
:100B400041F2883808E000BFFFF7EEFEC11B4145C7
:100B500002D90320BDE8F883206A8007F4D5206A13
:100B6000696820F44070084320621EB1E06920F0FB
:100B70008050E0612878800705D56068A96820F476
:100B80004040084360602878C00605D56068E96881
:100B900020F48000084360600020DBE70010024082
:100BA00000700040400442422DE9F0470F46050026
:100BB00061D0434E306800F00700B84209D2306877
:100BC00020F0070038433060306800F00700B8427A
:100BD00051D128683B4C810712D5400703D5606886
:100BE00040F4E06060602878000703D5606840F456
:100BF000605060606068A96820F0F00008436060A1
:100C00002878C00728D06868012810D021680228F9
:100C100010D0890700292EDA616821F00301014311
:100C20006160FFF781FE804641F288390DE021685E
:100C30008903EFE78901EDE7FFF776FEA0EB0801F6
:100C4000494502D90320BDE8F0876068696800F073
:100C50000C00B0EB810FEFD1306800F00700B84214
:100C60000BD9306820F0070038433060306800F05E
:100C70000700B84201D00120E5E72878400705D5F4
:100C80006068E96820F4E060084360602878000745
:100C900006D56068296920F4605040EAC1006060B0
:100CA00000F058F86168084AC1F30311515CC8406C
:100CB0000649086006480068FFF756FE0020C2E7B4
:100CC00000200240001002402E48000828000020AA
:100CD000200000200F2202600C4A536803F0030337
:100CE0004360536803F0F0038360536803F4E063E8
:100CF000C36052684FF4E06303EAD2020261044821
:100D0000006800F007000860704700000010024013
:100D1000002002400448054900684968044AC1F3BC
:100D20000221515CC840704728000020001002409A
:100D30003E4800080448054900684968044AC1F370
:100D4000C221515CC84070472800002000100240BA
:100D50003E4800080E4A51680E4801F00C03042B6F
:100D600011D0082B0FD10C48C1F38343C903C05CD9
:100D70000AD55168084AC1F34041921E515C054AA8
:100D80005043B0FBF1F070470449484370470000FE
:100D90000010024000127A001E48000800093D00C1
:100DA0002DE9F84F040070D02078C04DC00749D01D
:100DB0006868C0F38100012807D06868C0F381002B
:100DC000022809D16868C00306D52868800339D590
:100DD00060680028E7D035E06068B0F5803F0BD050
:100DE00010B1B0F5A02F11D0286820F48030286011
:100DF000286820F4802002E0286840F480302860D1
:100E0000606890B1FFF790FD06460AE0286840F45C
:100E100080202860F0E700BFFFF786FD801B642874
:100E200073D828688003F7D50CE0FFF77DFD0646F0
:100E300005E000BFFFF778FD801B6428F0D8286824
:100E40008003F7D420789A4E80074FF001094FF0C5
:100E5000000839D5686810F00C0F07D06868C0F337
:100E60008100022809D16868C00306D42868800779
:100E700014D52069012808D110E02069B0B1C6F866
:100E80000090FFF751FD074605E00AE1FFF74CFD32
:100E9000C01B0228C4D828688007F7D52868616974
:100EA00020F0F80040EAC10028600DE0C6F800809C
:100EB000FFF73AFD074604E0FFF736FDC01B0228A6
:100EC00023D828688007F7D4207800072CD57948E4
:100ED000A169D9B1C0F80090FFF726FD074604E0EC
:100EE000FFF722FDC01B02280FD8686A8007F7D5DC
:100EF00071484FF4FA510068B0FBF1F0009000BF68
:100F00000098411E0091FAD20EE080E0C0F8008007
:100F1000FFF70AFD074604E0FFF706FDC01B0228A5
:100F200075D8686A8007F7D42078400760D5E869EB
:100F30000027C00008D4E86940F08050E861E86903
:100F4000012700F0805000905C480168C90513D467
:100F50000168834641F480710160FFF7E5FC824639
:100F600006E000BFFFF7E0FCA0EB0A0064284ED8C3
:100F7000DBF80000C005F5D5E06801280AD008B10B
:100F8000052813D0286A20F001002862286A20F082
:100F9000040002E0286A40F001002862E06841F2A3
:100FA000883B98B1FFF7C0FC82460BE0286A40F00E
:100FB00004002862EEE700BFFFF7B6FCA0EB0A01D1
:100FC00059455AD8286A8007F6D50CE0FFF7ACFCE3
:100FD000824605E0FFF7A8FCA0EB0A0159454CD872
:100FE000286A8007F6D41FB1E86920F08050E861D4
:100FF000E06988B36968C1F38101022944D00228FD
:10100000C6F8608004D0FFF78FFC044638E034E077
:10101000FFF78AFC074604E0FFF786FCC01B0228A6
:101020002BD828688001F7D4206AB0F5803F05D11D
:101030006868A16820F4003008436860D4E90801BA
:101040000843696821F4741108436860C6F8609029
:10105000FFF76AFC044606E025E000BFFFF764FCEA
:10106000001B022809D828688001F7D51BE000BFC3
:10107000FFF75AFC001B022802D90320BDE8F88FB5
:1010800028688001F4D40EE00128F7D06868226A4D
:1010900000F48031914204D1616A00F470108842FA
:1010A00001D00120EAE70020E8E70000001002403C
:1010B00000004242800442422800002000700040AC
:1010C0007047000038B50446006842688168C9432B
:1010D0004B0606D5CB0704D1D3435B0601D4216C64
:1010E00005E08B0708D4D3431B0605D4616C01B01F
:1010F0002046BDE8304008478B0601D54B0646D454
:10110000D3439B0643D44B060AD494F85130032BA7
:101110003ED0636D43F004036365C3688368009346
:10112000890609D4616D41F0010161658168009112
:10113000016821F040010160606D002827D020681F
:10114000416821F0E0014160012084F851009007DE
:1011500022D02068416821F003014160104DE06C0D
:1011600040B14563E06CFFF79DFA18B1606D40F047
:1011700040006065A06C002809D04563A06CFFF7B3
:1011800091FA002803D0606D40F04000606538BDE2
:10119000C1688068009038BD2046FFF791FF38BDD8
:1011A000A924000870B5040009D0606A002540B188
:1011B00025616561A56294F8510040B10CE0012001
:1011C00070BD6068B0F5827FF4D0E561F2E784F825
:1011D0005050204600F040F8022084F8510020686A
:1011E000016821F040010160A088218900F482702B
:1011F00001F404410843A18901F400610843217C02
:1012000001F002010843217D01F001010843218B17
:1012100001F400710843217F01F03801084394F87C
:10122000201001F080010843218D01F40051084392
:1012300021680860A069042101EA10402168486023
:101240002068C16921F40061C1616565012084F8ED
:101250005100002070BD000030B585B0002400941E
:101260000194029403940068184988422BD11848CD
:10127000816941F480518161816901F48051049157
:10128000816941F0040181618069124D00F0040020
:101290000490A02000900220019003200390694652
:1012A0002846FFF74BFA4020CDE90004694628465E
:1012B0000294FFF743FA002205212320FFF7CCFB1D
:1012C0002320FFF7BBFB05B030BD0000003001401C
:1012D00000100240000801402DE9F84F98461646DC
:1012E0008A460446FFF720FB814694F85100012806
:1012F0001ED1BAF1000F73D0002E71D094F85000B7
:10130000012815D0012784F85070032084F851007B
:1013100000256565C4F830A0A686E686A563A58786
:10132000E58765642564A068B0F5004F03D00CE044
:101330000220BDE8F88F2068016821F040010160BB
:101340002068016841F48041016020680168490615
:1013500003D4016841F040010160E068B0F5006F1E
:10136000606803D048B3012E27D047E008B1012EB2
:101370001FD1206B21680088C86006E02068816862
:10138000890709D5216B0988C160206B801C206307
:10139000E08E401EE0860CE0FFF7C6FAA0EB0901E4
:1013A000414503D3B8F1FF3F03D035E0B8F1000F5A
:1013B00032D0E08E0028E1D123E0206B2168007854
:1013C000087306E02068816889070AD5216B0978CF
:1013D0000173206B401C2063E08E401EE0860DE010
:1013E0002BE0FFF7A1FAA0EB0901414503D3B8F1C7
:1013F000FF3F03D010E0B8F1000F0DD0E08E0028C1
:10140000E0D14A464146204601F056F808B1202076
:101410006065A06830B109E084F8517084F85050DC
:10142000032086E72068C1688068009084F85170C6
:1014300004F8505F60680028F3D0012079E7704716
:101440007047000070B590F83C20012A26D0012496
:1014500080F83C40022280F83D2003685A689D686D
:1014600022F070060A6832435A600D4B02689A42B5
:1014700008D0B2F1804F05D00A4B9A4202D00A4BF5
:101480009A4204D1496825F080031943916080F89D
:101490003D40002180F83C10084670BD022070BD20
:1014A000002C0140000400400008004010B504007A
:1014B00003D094F83D0010B107E0012010BD0020DA
:1014C00084F83C00204600F01FF8022084F83D001C
:1014D000211D206801F04EF9012084F8460084F8AF
:1014E0003E0084F83F0084F8400084F8410084F80E
:1014F000420084F8430084F8440084F8450084F8EE
:101500003D00002010BD000000B585B00021009115
:1015100001910291039101681B48B1F1804F15D0F0
:101520001A4A914210D1C16941F00401C161C069F8
:10153000002200F00400049005211E20FFF78CFA21
:101540005FF01E00FFF77AFA05B000BDC16941F0F7
:101550000101C161C16901F001010491816941F09A
:10156000040181618069694600F004000490042050
:1015700000900748FFF7E2F8002205211C20FFF742
:101580006BFA1C20DEE7000000100240000800405B
:101590000008014090F83D10012901D0012070475A
:1015A000022180F83D100168CA6842F00102CA6059
:1015B00000680B49884208D0B0F1804F05D0094936
:1015C000884202D00849884204D1816801F00701AD
:1015D000062903D0016841F0010101600020704735
:1015E000002C0140000400400008004070B5044693
:1015F00090F83C000025012817D0012684F83C60B3
:10160000022084F83D002068826822F0770222F4EC
:101610007F4282600868502838D00DDC20284FD0E7
:1016200005DC90B3102811D14AE0022070BD3028AB
:1016300046D040280AD13BE060282FD070280DD03A
:10164000B0F5805F03D0B0F5005F12D0012584F8BB
:101650003D60002084F83C00284670BDCB68D1E98D
:101660000121206801F0CFF82068816841F07701FE
:1016700009E0CB68D1E90121206801F0C4F82068B5
:10168000816841F480418160E1E719E0CA684968F6
:10169000206801F06DF95021206806E0CA684968A9
:1016A000206801F0A3F96021206801F0B6F8CEE7C8
:1016B000CA684968206801F05BF940212068F4E7B6
:1016C000226801461046F0E738B50168B1F1804F55
:1016D00030D1007F04282DD1174C4FF0080120781D
:1016E0000028164804D000F047FB6080002020E06E
:1016F00000F042FB80B2A0806188114D884201D980
:10170000401A03E04CF25032511A084402F0CFFB69
:1017100002460B460020294602F044FA01F01CFD67
:1017200002F098FBE08007486946006801F0AAFED5
:101730000120207038BD000014000020700300203C
:10174000006AF840100000202DE9F041054690F8AD
:101750003C0000260C46012810D0012085F83C00F2
:1017600072B1042A1CD0082A2CD00C2A50D0012691
:10177000002085F83C003046BDE8F0810220FBE700
:10178000D4E90012E368286801F004F92868816947
:1017900021F00C01816128688169A26811430FE082
:1017A000D4E90012E368286801F032F928688169F9
:1017B00021F44061816128688169A26841EA0221BF
:1017C0008161D5E72868D4E9002C277B036A016A88
:1017D00021F480710162C16923F4007321F00301D7
:1017E00041EA0C0121F0F00C39074FF400774CEA84
:1017F000116107EA02221A43C16102622868C169C5
:1018000021F00C01C1612868C169A26811432BE075
:101810002868D4E90021E768036AD0F820C02CF4D6
:10182000805CC0F820C0D0F81CC023F400532CF416
:10183000407C4CEA012121F4704C4FF6FF7101EA23
:1018400007314FF4005741EA0C0107EA02321A430C
:10185000C16102622868C16921F44061C1612868E0
:10186000C169A26841EA0221C16181E710B50400A3
:1018700003D094F83D0010B107E0012010BD002016
:1018800084F83C00204600F01EF8022084F83D0059
:10189000211D206800F06EFF012084F8460084F8C6
:1018A0003E0084F83F0084F8400084F8410084F84A
:1018B000420084F8430084F8440084F8450084F82A
:1018C0003D00002010BD704730B50446002551B1E1
:1018D00004290DD0082910D094F8410094F845202F
:1018E000012811D10EE094F83E0094F84220F7E769
:1018F00094F83F0094F84320F2E794F8400094F8FD
:101900004420EDE7012A01D0012030BD022059B169
:10191000042912D0082919D084F8410084F8450020
:101920000C2938D0012534E084F83E0084F84200C8
:101930002068C26842F0020210E084F83F0084F898
:1019400043002068C26842F0040207E084F84000C7
:1019500084F844002068C26842F00802C260012294
:10196000206800F043FF0E492068884208D0B0F19B
:10197000804F05D00B49884202D00B49884204D1E0
:10198000816801F00701062903D0016841F00101D7
:101990000160284630BD2068C26842F01002DDE7D1
:1019A000002C014000040040000800402DE9F041F7
:1019B00004460068C66805694FF00007A90713D5FB
:1019C000B10711D5F91E01610120207720688069D7
:1019D0008007204602D0FFF777FE04E000F0A6F86B
:1019E000204600F038F92777680716D5700714D518
:1019F00021686FF004000861022020772068806968
:101A000010F4407F204602D0FFF75EFE04E000F0B5
:101A10008DF8204600F01FF92777280715D53007E5
:101A200013D521686FF00800086104202077206832
:101A3000C0698007204602D0FFF746FE04E000F0B0
:101A400075F8204600F007F92777E80616D5F00666
:101A500014D521686FF010000861082020772068F5
:101A6000C06910F4407F204602D0FFF72DFE04E04D
:101A700000F05CF8204600F0EEF82777E80708D081
:101A8000F00706D021686FF001000861204600F0E1
:101A900069F9280608D5300606D521686FF0800060
:101AA00008612046FFF7CBFC680608D5700606D50E
:101AB00021686FF040000861204600F072F9A80626
:101AC0000AD5B00608D521686FF0200008612046CD
:101AD000BDE8F041FFF7B4BCBDE8F08100B585B0CA
:101AE0000021009101910291039100680C49884204
:101AF00013D10C48816941F0080181618069694610
:101B000000F0080004904FF4007000900220019053
:101B1000032003900448FEF711FE05B000BD00004D
:101B20000008004000100240000C0140704770B5F2
:101B3000044690F83C0000260D4601280FD00120F5
:101B400084F83C006AB1042A1DD0082A2FD00C2A40
:101B50003FD00126002084F83C00304670BD0220B2
:101B600070BD206800F062FE2068816941F00801C4
:101B700081612068816921F00401816120688169A7
:101B80002A69114311E0206800F078FE206881691D
:101B900041F4006181612068816921F48061816183
:101BA000206881692A6941EA02218161D2E72068BF
:101BB00000F090FE2068C16941F00801C161206811
:101BC000C16921F00401C1612068C1692A6911431A
:101BD00011E0206800F0AAFE2068C16941F40061AC
:101BE000C1612068C16921F48061C1612068C16957
:101BF0002A6941EA0221C161ACE710B5040003D0B3
:101C000094F83D0010B107E0012010BD002084F8D9
:101C10003C00204600F01EF8022084F83D00211D03
:101C2000206800F0A7FD012084F8460084F83E00FB
:101C300084F83F0084F8400084F8410084F84200B2
:101C400084F8430084F8440084F8450084F83D009B
:101C5000002010BD7047704710B50446022249B1FC
:101C600004290ED0082913D094F84100012816D079
:101C7000012010BD94F83E000128F9D184F83E20DF
:101C80000FE094F83F000128F2D184F83F2008E0EB
:101C900094F840000128EBD184F8402001E084F85A
:101CA00041200122206800F0A1FD0F4920688842F0
:101CB00003D1426C42F4004242642068884208D05A
:101CC000B0F1804F05D00949884202D008498842C6
:101CD00004D1816801F00701062903D0016841F0B1
:101CE00001010160002010BD002C014000040040F3
:101CF0000008004030B504460D460068002200F0A0
:101D000075FD174B41F2111120688A10984209D1D4
:101D1000036A0B4206D1036A134203D1436C23F4D6
:101D2000004343642068036A0B4206D1016A1142F2
:101D300003D1016821F00101016001203DB1042DB2
:101D400008D0082D09D084F84100002030BD84F867
:101D50003E00FAE784F83F00F7E784F84000F4E734
:101D6000002C014000680349884201D1FEF7E2BD22
:101D700070470000002C01400246002041B10429B8
:101D800009D008290AD00C2901D11068006C7047CD
:101D90001068406B70471068806B70471068C06BAC
:101DA0007047704770477047F8B501680446086887
:101DB000CA684B6910F00F0F4FF000055AD003F0BE
:101DC000010602F49077374365D0C10705D0D105ED
:101DD00003D5616C41F001016164410705D5D90764
:101DE00003D0616C41F002016164810705D5D90718
:101DF00003D0616C41F004016164010707D502F072
:101E00002001314303D0616C41F008016164616CD1
:101E100000293BD0800604D5900602D5204600F06C
:101E200041FE20684069616CC0F3801001F0080138
:101E3000014320462BD000F00EFE2068406940068A
:101E400021D52068143050E8001F21F0400140E8FF
:101E50000012002AF5D1E06BA8B16D494163E06B37
:101E6000FEF720FC002811D0E06B416B01B0BDE80B
:101E7000F040084783060ED593060CD52046BDE8F2
:101E8000F84000F00FBE2046FFF78DFFF8BDFFF7CA
:101E90008AFF6564F8BD266B2023012E7CD1C6061F
:101EA0007AD5D60678D508684868009048694FF01A
:101EB0000206400640D5E16B086840680004000C4B
:101EC000E8D0A28D8242E5D9E085886920282DD00E
:101ED00020680C3050E8001F21F4807140E80012A7
:101EE000002AF5D12168143151E8000F20F00100DB
:101EF00041E80002002AF5D12068143050E8001FA4
:101F000021F0400140E80012002AF5D184F8423067
:101F1000256320680C3050E8001F21F0100140E8D4
:101F20000012002AF5D1E06BFEF798FB6663A08DE6
:101F3000E18D401A81B22AE0A08DE18D401A81B274
:101F4000E08D0028A6D00029A4D022680C3252E8E7
:101F5000000F20F4907042E80007002FF5D12068B0
:101F6000143050E8002F22F0010240E80027002F33
:101F7000F5D184F84230256320680C3050E8002FFA
:101F800022F0100240E80023002BF5D166632046C2
:101F9000FFF708FFF8BDFFE705062BD5150629D585
:101FA00094F841002128F5D1A068B0F5805F01D1F7
:101FB0002069B0B1206A411C216221680078486024
:101FC000E08C401E0004000CE084E3D12068C1686E
:101FD00021F08001C1602068C16841F04001C1600A
:101FE000D8E7206A0088C0F308004860206A801C97
:101FF0002062E5E74006CDD55006CBD5CA6820461D
:1020000022F04002CA6084F8413000F076F8C1E75F
:10201000472A000870B5040004D094F84100002558
:1020200010B106E0012070BD84F84050204600F059
:1020300023F8242084F841002068C16821F400516D
:10204000C160204600F090FD2068016921F49041B4
:1020500001612068416921F02A0141612068C1685D
:1020600041F40051C1606564202084F8410084F887
:1020700042006563002070BD30B585B00024009437
:102080000194029403940068184988422CD118489E
:10209000816941F480418161816901F48041049149
:1020A000816941F0040181618069124D00F00400F2
:1020B00004904FF4007000900220019003200390E0
:1020C00069462846FEF73AFB2815CDE90004694623
:1020D00028460294FEF732FB002205212520FEF758
:1020E000BBFC2520FEF7AAFC05B030BD003801403E
:1020F000001002400008014070477047FEE70000F2
:102100003EB5002410480094019402940D49846067
:10211000016004730475012505614FF4602144607A
:10212000C161FEF7E1F908B1FEF75DF90095CDE96F
:10213000015469460448FEF759F9002801D0FEF71A
:1021400052F93EBD00240140E802002010B596B0CF
:102150001C2211496846FEF783F80021684600F00A
:10216000ABFD0E4C0C491C22A0601C3107A8FEF7E9
:1021700077F8002107A800F09FFD0749E0601C22C6
:1021800038310EA8FEF76CF800210EA800F094FD7F
:10219000206116B010BD0000C847000800000020F4
:1021A0002DE9F04186B00024204800940194029467
:1021B0000394816941F020018161816901F020016E
:1021C0000491816941F004018161816901F0040198
:1021D0000491816941F0080181618069144F00F028
:1021E000080040F618050490012229463846FEF7FB
:1021F00095FBDFF84080012202214046FEF78EFB6E
:102200000095032601250396CDE901546946384619
:10221000FEF794FA0220CDE90005CDE902466946B1
:102220004046FEF78BFA06B0BDE8F0810010024090
:1022300000080140000C0140104810B50E49016033
:102240004FF482714160002181600122C160C0E9C8
:102250000412520282610822C0E9072141628162B0
:102260000A21C162FEF79EFF002803D0BDE810409E
:10227000FEF7B9B810BD000000300140180300207F
:1022800010B58AB00024234804940594069407945A
:10229000089409940094019402944FF080410394AF
:1022A000016040F2CF21C0E901144CF24F31C0E986
:1022B000031480218161FFF7F9F808B1FEF793F864
:1022C0004FF48050049004A91248FFF78FF908B129
:1022D000FEF789F80F48FFF7C9FA08B1FEF783F84F
:1022E000089408A90B480994FFF7ACF808B1FEF769
:1022F0007AF80120CDE90040029408226946054899
:102300000394FFF721FA002801D0FEF76CF80AB019
:1023100010BD00007003002010B58EB0002407949B
:10232000089409940A940B941C2168460C94FDF7B8
:10233000C9FF20481E4901604721C0E9011441F24C
:102340008731C0E9031480218161FFF7AFF808B13C
:10235000FEF749F84FF48050079007A91548FFF79A
:1023600045F908B1FEF73FF81248FFF746FC08B1FF
:10237000FEF739F80B940BA90E480C94FFF762F89E
:1023800008B1FEF730F86020009040F6C410CDE9A7
:1023900001040C22694607480494FFF7C8FB08B102
:1023A000FEF721F80348FFF799FB0EB010BD0000BF
:1023B00000080040B80300200C4810B50A4901602D
:1023C0004FF4E1314160002181600C22C160C0E91D
:1023D00004128161C161FFF71DFE002803D0BDE832
:1023E0001040FEF700B810BD003801400004002086
:1023F000FEE7FEE710B504460C211748FFF77AFC0C
:1024000004EB8400C82101EB400001F067FD0246A7
:102410000B460020114901F0C5FB00F09DFE01F0C4
:1024200019FD0F4A0C4C411E51602268D16202F026
:102430007BF84FF0FF3102F089F902F023F800F049
:102440008BFE01F007FD216808642046BDE81040BE
:102450000C21FFF701BC0000B803002080842E414E
:10246000000000200148FEF72DBE000018030020E8
:1024700038B50A0A8DF800008DF80120094D8DF855
:102480000210002210212846FEF748FA0321684670
:1024900000F02CF80446012210212846FEF73EFAEF
:1024A000204638BD0008014010B5406A0021C187B0
:1024B000C186FEF705FE10BDF8B515460E460B4663
:1024C000009204460122022100F018F840B9334678
:1024D000002280212046009500F010F8002804D04A
:1024E000606D40F0200060650320F8BD0A4601469B
:1024F00064230148FEF7F0BE180300202DE9F843DD
:102500001E46914688460446089DFEF70DFA401B7C
:10251000351AFEF709FA074625480068C0F3CB30A4
:10252000684338E0701C37D0FEF7FEF9C01BA842A4
:1025300003D215B1009860B32CE02068416821F007
:10254000E00141606068B0F5827F0BD1A068B0F512
:10255000004F02D0B0F5806F04D12068016821F0EF
:1025600040010160A06AB0F5005F09D120680168F0
:1025700021F4005101602068016841F400510160BC
:10258000012084F85100002084F850000320BDE8A9
:10259000F8830025401E00902068816838EA010019
:1025A00004D000214945BDD10020F0E70121F9E721
:1025B000280000200021084600F018FE012816D14E
:1025C0000D48008801F08AFC0C4A0D4B01F0D6FC46
:1025D0000C4A0D4B01F032FA01F0FEF90B4901F003
:1025E000B7FF01F081FF81B20020FFF741FF0A2011
:1025F00000F056FBDEE70000000000207B14AE4731
:10260000E17A943F9A9999999999D93FCDCCCC4642
:102610001A4D1B4C0021084600F0E8FD01281ED190
:102620002988208881421AD0411E4F290CD80023C6
:1026300002221946A86801F097F8002302221946E1
:10264000E86801F091F816E068B1502807D90C212C
:102650000C48FFF74FFB00210846FFF709FF0A204F
:1026600000F01EFBD6E70020FFF7C4FE42F6F5019E
:102670000020FFF7FDFE20882880F0E70000002002
:102680001A000020B8030020064C0021084600F084
:10269000ADFD012802D12088FFF7ACFE0A2000F032
:1026A000FFFAF2E70000002010B5502080F31188F7
:1026B000BFF34F8FBFF36F8F01F0C6F818B1044915
:1026C0004FF080500860002080F3118810BD00009A
:1026D00004ED00E030B593B028216846FDF7F2FD27
:1026E00014210AA8FDF7EEFD002501200F95109595
:1026F0001195010412958DE8230004904FF4E01029
:10270000CDE90810022407946846FEF749FB08B19A
:1027100072B6FEE70AA90F2081E831004FF480600D
:10272000CDE90D0502210AA8FEF73EFA08B172B6FE
:10273000FEE74FF4004011900F940FA8FEF7BEF98A
:10274000002801D072B6FEE713B030BD704700001C
:102750000148FFF72BB90000480400200148FFF7AB
:1027600025B90000700300200148FFF71FB90000E1
:10277000B8030020F0B50268194B1A4C1A4D4FF0FF
:102780008047984205D0B84203D0A04201D0A84269
:1027900003D122F070064A683243984205D0B8420D
:1027A00003D0A04201D0A84203D122F44074CA68E9
:1027B00022434C6922F08002224302608A68C2628E
:1027C0000A688262984201D109690163012141616D
:1027D0000169C90703D0016921F001010161F0BD60
:1027E000002C0140000400400008004010B501F03A
:1027F0001F030121046A99408C430462016A9A40D4
:102800001143016210BD10B5846842EA032224F42A
:102810007F440A432243826010BD826822F0700226
:102820000A4342F0070181607047000030B5036A37
:10283000026A22F0010202624268846924F0730590
:102840000C682C4323F002058B682B430A4DA842E9
:102850000BD123F00805CB6822F440722B434D695D
:1028600023F0040315438A692A434260846149685E
:102870004163036230BD0000002C014030B5026AA4
:10288000036A23F010030362436884690D6824F42B
:10289000E64444EA05248D6822F0200242EA05124B
:1028A0000B4DA8420ED1CD6822F0800242EA0512FB
:1028B0004D6923F4406343EA85038D6922F04002A9
:1028C00043EA85034360846149688163026230BDE5
:1028D000002C014030B5036A026A22F48072026261
:1028E0004268C46923F4007324F073050C682C4318
:1028F0008D6843EA05230C4DA8420ED1CD6823F420
:10290000006343EA05234D6922F4405242EA05126E
:102910008D6923F4806342EA05124260C46149680C
:10292000C163036230BD0000002C014030B5046A71
:10293000026A22F4805202624268C3690D6823F47D
:10294000E64343EA05238D6824F4005444EA053441
:10295000064DA84204D14D6922F4804242EA851214
:102960004260C36149680164046230BD002C0140CB
:1029700010B5036A046A24F001040462846924F037
:10298000F00444EA021423F00A020A43846102625A
:1029900010BD000070B5056A046A24F001040462E9
:1029A00084690F4EB04208D0B0F1804F05D00D4E73
:1029B000B04202D00C4EB04203D124F003041443C1
:1029C00001E044F001041A0724F0F00444EA126222
:1029D00025F00A0301F00A0119438261016270BD0A
:1029E000002C0140000400400008004010B5036ABC
:1029F000046A24F010040462846923F0A00324F420
:102A0000704444EA023243EA01118261016210BD5E
:102A100030B5046A056A25F010050562856925F45C
:102A2000407545EA022222F470454FF6FF7202EA31
:102A3000033224F0A0032A43A02404EA011119431D
:102A40008261016230BD10B5406A0021C185C18438
:102A5000FFF7A9F910BD01680C3151E8002F22F4ED
:102A6000907241E80023002BF5D10168143151E840
:102A7000002F22F0010241E80023002BF5D1016B69
:102A8000012909D101680C3151E8002F22F0100210
:102A900041E80023002BF5D1202180F842100021CD
:102AA0000163704708B590F84210222901D0022036
:102AB00008BD82684FF480539A4201D1016921B167
:102AC000816A9A421BD04AB10AE00268816A526860
:102AD000C2F308020A80816A891C08E0026972B1A7
:102AE0000268526802F07F020A70816A491C8162A2
:102AF000C18D491E0904090CC18503D01BE0026881
:102B00005268F1E70168CA6822F02002CA600168D1
:102B1000CA6822F48072CA6001684A6922F0010220
:102B20004A61202180F8421000214163026B012A92
:102B300003D0FFF7E1FA002008BD016301680C3102
:102B400051E8002F22F0100241E80023002BF5D1BC
:102B500001680A68D20602D50A6849680091818D29
:102B6000FFF720F9E7E7000070B504460068016947
:102B7000E26821F44051114301612169A0680843D2
:102B8000616908432168CA6841F20C639A430243B1
:102B9000CA6020684169A26921F440711143416112
:102BA0001E492068884202D1FEF7C4F801E0FEF712
:102BB000B1F800EBC00101EB0012606864218000F5
:102BC000B2FBF0F3B3FBF1F36FF018067343B2FB03
:102BD000F0F5B2FBF0F605EB8305322303EB0515A8
:102BE000B5FBF1F5B6FBF1F605F0F00505EB0615C2
:102BF000B2FBF0F6B2FBF0F0B0FBF1F06FF01802B0
:102C0000504306EB800003EB0010B0FBF1F02168AD
:102C100000F00F002844886070BD000000380140BB
:102C20000148FFF7C1B8000000040020FEE70907D3
:102C3000090E002804DB00F1E02080F80014704742
:102C400000F00F0000F1E02080F8141D7047000034
:102C5000FDF778FEFFF73EFDFFF7A2FAFFF750FA07
:102C6000FFF7EAFAFFF70CFBFFF7A6FBFFF754FBB1
:102C70000C210648FEF7F0FF08210548FEF724FE68
:102C8000FFF764FA00F013F8FEE70000B803002035
:102C90007003002001460020842900D0C81C704722
:102CA00010B500B9012000F0C7FB002010BD10B521
:102CB00000F042FC002010BD7FB50D46044641697E
:102CC000B0F9080081B1A16971B1FFF7E3FFD4E960
:102CD00005128DE80700D4E900102B46226900F0A8
:102CE00018FD039004B070BDFFF7D4FF03A9CDE930
:102CF0000001208A2B4682B2D4E9001000F0DCFCEF
:102D0000012801D00020EDE70398EBE72DE9F04121
:102D1000184C0F460546E6682068001D00F09AFA38
:102D200038B9206890F82C1001208840216981432F
:102D30002161681C07D137B12168BDE8F0410E4818
:102D4000091D00F0CBBA20683544B54245602168C2
:102D500005D2A06BBDE8F041091D00F0A7BA606B79
:102D6000091D00F0A3FAA06A854200D2A562BDE861
:102D7000F08100002C0000206C0500202DE9F041BE
:102D8000054600F0B7FA2E4CA068401CA0602068F1
:102D90002C4F10B1606940B32DE02560A068012878
:102DA00029D1002606EB860007EB800000F070FAC0
:102DB000761C072EF6D323488C3000F069FA2148A0
:102DC000A03000F065FA1F48B43000F061FA1D48E9
:102DD000C83000F05DFA1B48DC3000F059FA1948A1
:102DE0008C3060631430A06305E02068E96AC06A33
:102DF000884200D82560606A401C6062E96A012050
:102E0000226988401043206101EB810007EB8000BC
:102E1000291D00F063FA00F08DFA606900280CD0DB
:102E20002068E96AC06A884207D207494FF080509B
:102E30000860BFF34F8FBFF36F8FBDE8F0810000D4
:102E40002C0000209004002004ED00E010B50446A2
:102E500090F8510058B101280CD002280FD0502012
:102E600080F31188BFF34F8FBFF36F8FFEE7206BA6
:102E700000F074FA2046BDE8104000F06FBA10BDB3
:102E800010484FF44061420706D0C01D0D4920F0A4
:102E90000700411AC1F540610B4A00230144C2E911
:102EA00000030839183A21F0070111604B600B60EC
:102EB0000B1AC0E9001393604FF00040536050615B
:102EC000704700008005002080000020144E154C43
:102ED000A6F1C8074FF08058DFF84C9012E000BF11
:102EE00000F008FAF068C568281D00F0B3F9A06882
:102EF000401EA0606068401E606000F01BFA28461B
:102F0000FFF7A4FF60680028EAD138680128F9D9E2
:102F1000C9F80080BFF34F8FBFF36F8FF2E7000057
:102F2000580500202C00002004ED00E02DE9F047BA
:102F30009A46DDE9098481466FF00303206B03EBB9
:102F400082021044089E20F00707780707D050201F
:102F500080F31188BFF34F8FBFF36F8FFEE700251B
:102F600061B1002023180A5C83F834200A5C12B196
:102F7000401C1028F6D384F8435001E084F8345004
:102F8000072E00D30626E662C4E91165201D00F075
:102F90008AF904F1180000F086F92461C6F10700EF
:102FA0006462A061E56484F8505052464946384650
:102FB00000F0C0F82060B8F1000F01D0C8F8004060
:102FC000BDE8F08730B5114900E011460A68824239
:102FD000FBD34B685C18844203D1406818444860B6
:102FE000084643681C18944209D1084C183C2468D0
:102FF000A24209D052681A4442600A68126802600C
:10300000814200D0086030BD0460F9E780000020F4
:103010000648416B096829B1416BC968C9684968AC
:10302000816270474FF0FF31FAE700002C0000206A
:1030300008484068401C4FF0500080F3118804D0CD
:10304000BFF34F8FBFF36F8FFEE7BFF34F8FBFF319
:103050006F8FFEE7880000202DE9F041054600272C
:1030600000F0A0FA324E306808B9FFF709FF706926
:1030700005424ED1C5B3083568070ED005F00700EC
:10308000C0F108000544680707D0502080F311887C
:10309000BFF34F8FBFF36F8FFEE72DB3706885428C
:1030A00037D82348183001460C6801E020460C460A
:1030B0006168A94202D221680029F7D131688C42A7
:1030C00027D007682168016060680837411B102914
:1030D0000FD96019420708D0502080F31188BFF340
:1030E0004F8FBFF36F8FFEE713E041606560FFF71E
:1030F00069FF61687068401A7060B268904200D2DF
:10310000B060706901430020C4E90001F068401C10
:10311000F06000F0FFFB780707D0502080F31188A3
:10312000BFF34F8FBFF36F8FFEE73846BDE8F081E6
:103130006800002010B5031F4FF080741C601B1F37
:1031400021F001011960191F024B0B60143940383E
:103150000A6010BD313000082DE9F04D07460E46DB
:1031600001F040F804460D463A46334601F094F823
:10317000DFF86CA0DFF86CB01B4B0746884616F0F2
:10318000004F4FF000020AD000F0BCFE0AD9002226
:103190005B463846414600F0EFFF1BD212E000F0DC
:1031A000B1FE08D2002253462046294601F080F89D
:1031B00004460D460EE000225B463846414600F0CC
:1031C000DBFF07D8002253462046294600F036FC94
:1031D00004460D463146204665F31E01BDE8F08DDC
:1031E0000000F03F0000E03F0000E0BF70B50C467B
:1031F000064600F07FF8154D2868C06C80B9296834
:10320000012081F850005CB101212046FFF77EFDCE
:103210000F494FF080500860BFF34F8FBFF36F8F9F
:1032200000F088F800F066F82868C46C002034B11B
:1032300016B12968C86402E02A68611ED164296851
:1032400081F8500000F076F8204670BD2C00002078
:1032500004ED00E0D0E9013201699A60D0E9012370
:103260005A604A68824201D182684A600022026143
:103270000868401E0860086870470000034B036040
:1032800003F1540008608020106070479400002013
:1032900000F108014FF0FF32C0E90112C160016185
:1032A00000210160704700210161704730B50B6853
:1032B0005A1C02D000F1080202E0026904E0224632
:1032C000546825689D42FAD953684B6099608A60BA
:1032D000516008610168491C016030BD42684A6064
:1032E00093688B6093685960916008610168491C1C
:1032F00001607047502080F31188BFF34F8FBFF3F8
:103300006F8F0A494868401C486001280CD1084862
:10331000006810F0FF0F07D0502080F31188BFF332
:103320004F8FBFF36F8FFEE77047000088000020CB
:1033300004ED00E00849486828B1401E486001D10A
:1033400080F311887047502080F31188BFF34F8FAE
:10335000BFF36F8FFEE700008800002070B50028E3
:103360002AD0164DA0F1080460686969084207D1A7
:10337000502080F31188BFF34F8FBFF36F8FFEE7AC
:1033800022683AB1502080F31188BFF34F8FBFF30A
:103390006F8FFEE78843606000F004F96068696839
:1033A000084468602046FFF70DFE2869401C28612C
:1033B000BDE8704000F0AEBA70BD000068000020AB
:1033C0004FF0E02000210161816105494FF47A72DC
:1033D0000968B1FBF2F1491E4161072101617047A3
:1033E0002800002010B5FCF717FF114910280ED354
:1033F00000F1E02090F8F0030A78904207D25020C4
:1034000080F31188BFF34F8FBFF36F8FFEE709483A
:103410000068896800F4E060884207D9502080F392
:103420001188BFF34F8FBFF36F8FFEE710BD000011
:10343000880000200CED00E010B5020014D00F4809
:10344000006B38B1502080F31188BFF34F8FBFF36A
:103450006F8FFEE700F0A6F800211046FFF756FC3C
:1034600000F058FA002807D105494FF08050086055
:10347000BFF34F8FBFF36F8F10BD00002C000020F3
:1034800004ED00E02DE9F0418846040015D0FFF777
:10349000A9FF5020EFF3118680F31188BFF34F8FFF
:1034A000BFF36F8F94F85000022184F85010E16C44
:1034B000491CE164012808D025E0502080F31188E0
:1034C000BFF34F8FBFF36F8FFEE7A06A38B1502074
:1034D00080F31188BFF34F8FBFF36F8FFEE7144D5A
:1034E000286B012798B104F118011248FFF7F6FE86
:1034F000E06A2968C96A884205D9B8F1000F01D08D
:10350000C8F80070EF6186F31188BDE8F081201DD6
:10351000FFF7A0FEE16A2A6907FA01F0104328616B
:1035200001EB81000349B43901EB8000211DDDE787
:103530002C0000204405002010B586B00024039420
:1035400005AA04A903A80494FFF798FEDDE9030186
:103550000094CDE9011000230EA11048059A00F057
:10356000D8F80F490028C86211D0502080F3118884
:10357000BFF34F8FBFF36F8F4FF0FF308862012092
:103580004861CC6006B0BDE8104000F041B806B01C
:1035900010BD000049444C4500000000CD2E00083D
:1035A0002C0000200248016B491C01637047000099
:1035B0002C0000201448016B11B10121C16170473A
:1035C0000021C1610169B1FA81F1C1F11F0101EB73
:1035D00081020E4951F822306BB101EB820101F1F9
:1035E00008034A6852684A609A4201D152684A60A8
:1035F000D16801607047502080F31188BFF34F8F6E
:10360000BFF36F8FFEE700002C0000209004002025
:103610001CB5264908780190FF20087008788DF8BD
:1036200000009DF800009DF8002000F0F00090429E
:1036300007D0502080F31188BFF34F8FBFF36F8FF7
:10364000FEE79DF800001A4C00F0500020700720A3
:10365000A06005E09DF8002052008DF80020401E7B
:103660009DF800201206F5D4A060032807D0502052
:1036700080F31188BFF34F8FBFF36F8FFEE74FF4D6
:103680004070A060019808700A48016841F4700118
:103690000160016841F070410160FFF791FE002078
:1036A0006060FCF783FD00201CBD000000E400E02A
:1036B0008800002020ED00E02DE9FF5F8346DDE972
:1036C0000E87994616468A469000FFF7C5FC05000E
:1036D0001CD05420FFF7C0FC040014D00020256348
:1036E00084F85100CDE90240CDE900874B463246CF
:1036F00051465846FFF71AFC2046FFF73FFB0120D2
:1037000004B0BDE8F09F2846FFF728FE4FF0FF30D9
:10371000F6E7F0B585B0DDE90B640A9DA6B1DCB132
:10372000542700972663022684F85160002604AFD0
:10373000CDE90246CDE90057FFF7F8FB2046FFF739
:103740001DFB049805B0F0BD502080F31188BFF335
:103750004F8FBFF36F8FFEE7502080F31188BFF3C8
:103760004F8FBFF36F8FFEE72DE9F0411F46904664
:103770000D46012690B10446FFF7BCFD0FB1E06C89
:10378000386094F85000022184F85010B8F1050F09
:1037900019D2DFE808F0230B0E141200502080F33A
:1037A0001188BFF34F8FBFF36F8FFEE7E16C2943A2
:1037B00001E0E16C491CE16410E0022801D0E564FD
:1037C0000CE0002635E0E16C491C07D0502080F366
:1037D0001188BFF34F8FBFF36F8FFEE7012828D109
:1037E000201DFFF737FD154DE06A01212A69814050
:1037F00011432961124900EB800001EB8000211D7B
:10380000FFF76CFDA06A38B1502080F31188BFF338
:103810004F8FBFF36F8FFEE7E06A2968C96A88425D
:1038200007D908494FF080500860BFF34F8FBFF3AE
:103830006F8FFFF77FFD3046BDE8F0812C00002040
:103840009004002004ED00E02DE9F0412F4C00260B
:10385000206B28B1A069401CA0613046BDE8F08112
:10386000E5686D1CE56013D1606B006838B15020CD
:1038700080F31188BFF34F8FBFF36F8FFEE7606B4C
:10388000A16B6163A063206A401C2062FFF7C0FB4C
:10389000A06ADFF87C80854209D3606B0068A0B124
:1038A000606BC068C7687868854211D2A0622068E2
:1038B000C06A00EB800158F82100012800D90126D8
:1038C000E0690028C9D00126C7E74FF0FF30EDE7D7
:1038D000381DFFF7BFFCB86A18B107F11800FFF7F1
:1038E000B9FCF96A0120226988401043206101EB8C
:1038F000810108EB8100391DFFF7F0FCF86A2168AF
:10390000C96A8842C9D30126C7E700002C000020FD
:10391000900400202DE9F0472C4D00242746286B09
:1039200038B1FFF7E7FC286B401E2863286B40B1D5
:1039300046E0502080F31188BFF34F8FBFF36F8FA5
:10394000FEE7A968224E0120D1B3A6F1B409804652
:103950003068E8B1F068C46804F11800FFF77AFC39
:10396000201DFFF777FCE06A2A6908FA00F111438D
:10397000296100EB800109EB8100211DFFF7AEFCFE
:10398000E06A2968C96A8842E2D3C5F81C80DFE78B
:103990000CB1FFF73DFBAC6944B14646FFF754FF5D
:1039A00000B1EE61641EF9D10020A861E86938B168
:1039B0000849012738070860BFF34F8FBFF36F8FA7
:1039C000FFF7B8FC3846BDE8F08700002C00002067
:1039D0004405002004ED00E021F00042A2F1605215
:1039E000B2F5801F01F0004328BFD2F17F6C0BD9E4
:1039F0005FEA001C43EAC20242EB507018BF7047F6
:103A000028BF20F001007047B2F5801FBCBF1846E8
:103A100070474FEA410C1CF5001F02D2084600F027
:103A20005EBE70B500F054FB00000089FFF7F6BFE2
:103A30004FF00040A0F580007047000010B591EAFB
:103A4000030F48BF83F0004300F13A84841A71EBFE
:103A5000030C05D2121943EB0C03001B61EB0C01A4
:103A6000DFF824E14FEA1154A4EB135C1EEA430F84
:103A700018BF9EEA445F73D023EA0E03DCF1200EE8
:103A800021EA045143F4801332D322FA0CFE10EBE6
:103A90000E0023FA0CFE41EB0E01CCF1200E03FACE
:103AA0000EFE10EB0E0051F10001B1F5801FCCF1BC
:103AB000200E32D201EB045112FA0EF2BDE8104092
:103AC00058BF7047401C38BF5FEA420218BF7047BA
:103AD000002814BF20F0010041F100014FEA41032A
:103AE00013F5001F38BF7047A1F1C04100F03EBB85
:103AF000012A43EB0302ACF1200CDCF11F0E32BFB4
:103B00004FF0000E23FA0CF310EB030041EB0451CD
:103B1000B4EB115FD0D0A1EB045101F5801149083D
:103B20005FEA300001EB04510ED350F1000038BFC2
:103B300012FA0EFE08D1BDE81040C9E7401C38BF9C
:103B40005FEA4202CAD1C3E7BDE810404FEA410331
:103B500013F5001F38BF7047A1F1C04100F006BB4C
:103B60009EEA445F08D011EA5E0FBDE8104004BF32
:103B700001F0004100207047BDE8104070B500F032
:103B8000A7FA00BF64FBBE3E0000E0FF491058BF2B
:103B9000C1F140415B1058BFC3F140438B42EFF38A
:103BA000008070472DE9C04130B4DFF8A0C23CEA84
:103BB000111418BF3CEA131400F0EC8081EA0305ED
:103BC0001CEA111444EAD57418BF1CEA131500F05E
:103BD000C780A4EB05044FF0004545EAC12145EA42
:103BE000C32341EA505143EA525304F17F7499428E
:103BF00004F500344FEAC0204FEAC22208BF9042C9
:103C000000F09C804FEA13650FF24016765D4FEA94
:103C1000134506FB05F7C7F1807706FB07F74FEA68
:103C2000D737A7FB03687642C8F58038A7FB06CED6
:103C300038BFA8F1010807FB08E64FF0000EA6FB0D
:103C4000028CE6FB03CEDCF1000CCEF1004E38BF57
:103C5000AEF1010EA6FB0C584FF000074FF0000527
:103C6000E6FB0E87A1FB08C6A0FB07CE16EB0E06EF
:103C700045F10005E1FB076515F1E04E7EBFA4F5B7
:103C800080345FEA46066D4116F1800745F1000574
:103C90004FEA17274FEA066647EA0567A6F1DE46B0
:103CA000B6F1805F4FEA15251FD9384624F0010C84
:103CB00005EBC471BCF1FE6F01EB0C1102D8F0BC36
:103CC000BDE8008124425CBF01F5801E9EEAC47FEE
:103CD00002D4F0BCBDE80081244238D4F0BCA1F18C
:103CE000C041BDE8004100F041BA4FEAD22242EAA9
:103CF00043524FEAD323A7FB02864FEAD02040EA83
:103D0000415007FB03661EEA0E0F4FEAD12105FB67
:103D1000026658BFA6EB0056B6EB00564FEA520EAD
:103D20004EEAC37E18EB0E0E56EB530EBDD518EBC4
:103D300002085E417F1C55F10005B6E74FF480157F
:103D40004FF000074FF000064FF00008ADE7F0BC61
:103D50004FF0000001F1C04101F00041BDE80081D9
:103D600011EA0C1F0CEA131500D00CE013EA0C1F2B
:103D700000F025804FF00000F0BC81EA030101F063
:103D80000041BDE80081F0BCBDE8004181EA0301CB
:103D900000F0ECB9F0BCBDE8004170B500F098F956
:103DA000097EFC3E00F007B881EA03014FF00000F5
:103DB00001F00041704781EA030100F0D7B9F0BC7F
:103DC000BDE800414FF0000021497047FFFDFBF9BD
:103DD000F7F5F4F2F0EEEDEBE9E8E6E4E3E1E0DE3E
:103DE000DDDBDAD8D7D5D4D3D1D0CFCDCCCBCAC8B0
:103DF000C7C6C5C4C2C1C0BFBEBDBCBBBAB9B8B7D7
:103E0000B6B5B4B3B2B1B0AFAEADACABAAA9A8A8C9
:103E1000A7A6A5A4A3A3A2A1A09F9F9E9D9C9C9B97
:103E20009A99999897979695959493939291919042
:103E30008F8F8E8E8D8C8C8B8B8A898988888787D3
:103E40008685858484838382828181800000FF0748
:103E50000000F87F4FEA1153A3F58063D3F11E03EE
:103E6000A8BFD3F1200C08DB4FF0004242EAC12288
:103E700052EA505232FA03F0704709420BD4102B29
:103E8000C4BF0020704703F5787CBCF1FF3F05D02C
:103E90004FF0FF3070474FF00000704770B500F0F2
:103EA00017F900BF4992248000207047F0E710F016
:103EB000004248BF4042B0FA80F310FA03F10AD042
:103EC000C3F11D0303F580634FEA415002EB035237
:103ED00002EBD12170474FF000007047B0FA80F339
:103EE00010FA03F10AD0C3F11D0303F580634FEA12
:103EF00041504FEA035202EBD12170474FF00000CE
:103F00007047000051EA030C17D41CF5801F58BFFE
:103F1000BCF5801F00F10680994218BF704708BFAA
:103F20009042704707D711F5801F58BF13F5801FC7
:103F300019D499427047894270471CF5801F08D5F3
:103F4000BCF5801FF7D58B4218BF704708BF82426F
:103F500070474FF4001C1CEB410F38BF1CEB430FA4
:103F600001D28B42704770B500F0B2F8922449003C
:103F70004FF000514FF08053FFF708BEDFF848C103
:103F800070B51CEA111E1EBF1CEA13159EEA0C0F29
:103F900095EA0C0F00F06F8081EA030423EA4C13CA
:103FA0004EEAD47E21EA4C1141F4801143F480138F
:103FB000AE44A1FB024CA0FB0365AEF17F7E361937
:103FC00055EB0C05A1FB034C4CF10003A0FB021CBC
:103FD00016EB0C06654153F10003094218BF46F089
:103FE000010613F4007F0BD14FEA03314FEA05308D
:103FF000340341EA155140EA16506FF003020AE01B
:104000004FEAC3214FEAC520F40241EA555140EA84
:1040100056506FF0020202EB2E4201EB025585EA88
:10402000CE710AD05FEA440C18BF24F0004450F16E
:10403000000041F1000120EAD47040F2FE7C6245AC
:1040400000D270BDA84214BF4FF080444FF04044EE
:10405000002E08BF0024BEF1806FA8BFA1F1C041AF
:10406000BDE8704080F282804FF0000001F1C04155
:1040700001F0004170479EEA0C0F0CEA131518BFBF
:1040800095EA0C0F06D04FF0000081EA030E0EF007
:10409000004170BD00F01CF88900013E00F007B837
:1040A00000F009B84FEA430C5FEA5C5C08D081EA93
:1040B000030100F05BB84FEA410C5FEA5C5CF6D1AB
:1040C0004FF00000014970470000FF070000F87F33
:1040D0000EF1020E2EF0030E5EF8046B364205D48C
:1040E000012A43EB030515F5001F12D8012841EB07
:1040F000010C1CF5001F0CD80ED14FEAD17C15F530
:10410000001F0CEB4C0C0CF1020C08BF4CEBD37CE9
:1041100004E04FF0080C01E04FEAD37C0CEB4C05B7
:1041200026FA05F606F00706B6F1040C06D20EEBE9
:10413000860CBDE870404CF0010C6047DFE80CF0E5
:10414000090B02024FF000414FF00000A1F50021E1
:1041500070BD19461046012851EB010418BFD4F573
:10416000001484BF002001F0004170BD0808A0F5D4
:1041700000114FEA3101704753EA010C17D41CF5C6
:10418000801F58BFBCF5801F00F106808B4218BF0E
:10419000704708BF8242704707D713F5801F58BF8A
:1041A00011F5801F19D48B4270479B4270471CF554
:1041B000801F08D5BCF5801FF7D5994218BF7047FE
:1041C00008BF904270474FF4001C1CEB430F38BFF0
:1041D0001CEB410F01D2994270470FB40CBC03BCD9
:1041E000FFF7C1BE5FEA410C5FEA5C5CACF580633F
:1041F0005B1C39D4D3F1340240F34580B2F1200383
:1042000014DA4FF0010C0CFA02FCACF1010303408C
:10421000B3EB5C0220EA030008BF10EA0C0F98BF62
:10422000704710EB0C0041F1000170470AD0C3F158
:10423000200201FA02FC012821FA03F101FA03F13C
:104240004CF100004FF0010C0CFA03FCACF101033F
:10425000B0F1004F21EA030108BF11EA0C0F4FF043
:10426000000088BF61447047B3F1FF3F28BF50EAA8
:10427000C12C01F000414FF0000084BF41F07C519F
:1042800041F470017047B3F5806FB8BF704770B5E7
:10429000FFF71EFF40DBB6BE91EA030F10B581F0B9
:1042A00000413FF5D3AB83F0004300F009B80000B4
:1042B00010B591EA030F48BF83F000433FF5C6AB4A
:1042C000841A71EB030C07D212198CF0004C43EBEB
:1042D0000C03001B61EB0C01DFF8A4E14FEA115461
:1042E000A4EB135C1EEA430F18BF9EEA445F00F084
:1042F000B08023EA6E03524221EA0451C3EB6E03FD
:1043000038BF5B1EDCF1200E25D322FA0CFE10EB29
:104310000E0043FA0CFE41EB0E01CCF1200E03FA25
:104320000EFE10EB0E0051F10001CCF1200E29D44D
:1043300012FA0EF201EB0451BDE8104058BF70476D
:10434000401C1CBFB2F1004F704700280CBF491C35
:1043500020F00100704712EB020E43EB030218BF7E
:104360004FF0010E4EEA4202ACF1200CDCF11E0EC1
:1043700054D943FA0CFE10EB0E0051F1FF31CCF191
:104380001E0ED5D50EF1010E12FA0EFE404141EB84
:10439000010101EB445C5FEA5C5C10D910EBDE705C
:1043A00001EB045138BFBEF1004FBDE8104018BF0B
:1043B000704700280CBF491C20F00100704730D224
:1043C0004FEAD42C11F5001124F400641BD0B1FA8B
:1043D00081F20B3AA41AA41ED2F12003914030FAC4
:1043E00003F31943904001EBCC71002C01EB045115
:1043F000BDE81040A8BF704701F1C0414FF0000078
:1044000001F000417047B0FA80F310FA03F100D1D7
:1044100010BDE41A173C4805C90AE4E701EB045152
:1044200010BD491001EB0451BDE810404FEA3000C7
:1044300002E04FF0000170474A0008BF0042F8D088
:10444000B2F5001F28BF704701F000414FF0000097
:1044500070479EEA445F07D011EA5E0FBDE8104046
:1044600004BF002100207047BDE8104070B5FFF781
:104470002FFE00BF40DFF63E83F00041104670473C
:104480000000E0FF43004FEAD30C4FEA3C0C4340EE
:104490001FBF40070CF1605113F0FE4F70471CF036
:1044A000006F03D100200CF0004170470CF0004376
:1044B00043EA507010B540EACC0000F0CAF800BFE3
:1044C000000000924FEA0001FFF750BE4FF000419C
:1044D0004FF00000A1F5002170470000014800F0F6
:1044E00003B900BF0000C07FC10DD1F19E0206DB01
:1044F0004FEA002343F0004323FA02F070470042E2
:1045000007D54FEA4001B1F1FE4F02D24FF0000053
:10451000704710B500F09DF8499224800020704744
:104520006FEA200070470000B0FA80F310FA03F23F
:10453000C3F19D030AD0D90501EB1220530638BF01
:10454000704700F1010008BF20F001007047000033
:104550004FF47F0C1CEAD0121EBF1CEAD11392EA62
:104560000C0F93EA0C0F00F0478090EA010F48BF50
:1045700042F480724FF0004C4CEA00204CEA0121DA
:1045800002EB0302A0FB0113A2F50002002918BFF1
:1045900043F001035B0028BF4FEA330342EB2242A2
:1045A0005FEA132C4CEBC2502EBFBCEB436FB2F54D
:1045B0007C0F70474FEA036CBCF1004F08BF20F03E
:1045C0000100B2F57C0F38BF70470BD582F0FF02B7
:1045D00012F5803FC8BF704700F1C040D8BF00F05F
:1045E0000040704700F5000C5FEA4C0C48BF704774
:1045F000B0F1C04000F073B890EA010F0CEAD1139B
:1046000048BF42F48072624538BF634504D280EAF5
:10461000010000F00040704710B500F01AF800BF2C
:104620008900013E00F007B800F009B85FEA410CCC
:104630005FEA1C6C08D080EA010000F050B85FEA25
:10464000400C5FEA1C6CF6D14FF00040A0F58000F2
:1046500070470EF1020E2EF0030E5EF8044B24425A
:1046600004D44FEA4102B2F17F4F11D84FEA400320
:10467000B3F17F4F0CD80ED14FEAD07CB2F17F4F0F
:104680000CEB4C0C0CF1020C08BF4CEBD17C04E0A1
:104690004FF0080C01E04FEAD17C0CEB4C0324FAFC
:1046A00003F404F00704B4F1040C06D20EEB840CFE
:1046B000BDE810404CF0010C6047DFE80CF0070843
:1046C00002024FF00040A0F5800010BD08464200F5
:1046D00018BFD2F1807288BF00F0004010BDFF21EA
:1046E00041EAD050C00570470CF00F03092B08BFFA
:1046F000082000F051800A2B0BD0082B18BF704700
:1047000008BF1CF0400F0AD04FF000004FF000012E
:1047100070471CF0400F18BF4FF0004070471CF06E
:10472000100F08D020F0704300F07F4242EAD3011E
:104730004FEA4370704700F0604021F07F4242EA48
:10474000000201F07F4040EA727070474FF0FF02B4
:1047500012EAD0521CBF92F0FF038B42C2BFD1427B
:1047600000EBC1507047002A0AD0002B0BD0002963
:1047700000F00040A4BF40F0FE4040F4000070474D
:1047800000F00040704743024FF00B0C18BF4CF094
:10479000806C7FF4A3AE70471CF4801F11D01CF412
:1047A000E02F03D06FEACC31490070474FF0405002
:1047B000EFF3008222F0704242EA000282F30088A6
:1047C00070474FF0000070475448000889260008E1
:1047D0000000000000000000800000000000000059
:1047E0000000000064480008B52500080000000033
:1047F0000000000080000000000000000000000039
:1048000048480008112600080100000000000000D0
:104810008000000000000000000000000102020310
:104820000405060708090A0B0C0D0E0F10100000F6
:104830000000000000000102030406070809000050
:104840000000010203040000467265715F49435491
:1048500061736B00467265715F6F75745461736B41
:104860000000000043757272656E745F6F7574545A
:1048700061736B0094480008000000209400000061
:104880002801000828490008940000204C17000067
:1048900044010008000000000000000000000000CB
:1048A0000000000000000000010000000000000007
:1048B0000100000010000000000000000024F400CF
:1048C00000000000000000000000000000000000E8
:1048D00000000000000000000000000000000000D8
:1048E00000000000000000000000000000000000C8
:1048F00000000000000000000000000000000000B8
:1049000000000000000000000000000000000000A7
:104910000000000000000000000000000000000097
:08492000AAAAAAAA00000000E7
:04000005080000ED02
:00000001FF
