:020000040800F2
:1000000028530020E9020008C726000859230008E9
:10001000C526000815080008E52B000800000000B0
:10002000000000000000000000000000290200089D
:100030002509000800000000850200089D2700082F
:100040000303000803030008030300080303000878
:100050000303000803030008030300080303000868
:100060000303000803030008030300080303000858
:100070000303000803030008030300080303000848
:100080000303000803030008AD060008030300088B
:1000900003030008030300080303000827090008FE
:1000A0000303000803030008030300080303000818
:1000B0000303000803030008030300080303000808
:1000C00003030008030300080303000803030008F8
:1000D00003030008030300080303000803030008E8
:1000E00003030008030300080303000803030008D8
:1000F000030300085D280008030300080303000849
:1001000003030008030300080303000803030008B7
:1001100003030008030300080303000803030008A7
:1001200069080008750800080303000803030008B5
:100130000303000803030008030300080303000887
:100140000303000803030008030300080303000877
:10015000030300080303000803030008D92B000869
:100160000303000803030008030300080303000857
:100170000303000803030008030300080000000055
:10018000030300080303000800F002F800F03CF845
:100190000AA090E8000C82448344AAF10107DA45E2
:1001A00001D100F031F8AFF2090EBAE80F0013F0F8
:1001B000010F18BFFB1A43F001031847C0430000AA
:1001C000E0430000103A24BF78C878C1FAD852073B
:1001D00024BF30C830C144BF04680C6070470000C1
:1001E0000023002400250026103A28BF78C1FBD840
:1001F000520728BF30C148BF0B6070471FB504F0DD
:1002000051F91FBD10B510BD00F0D0F91146FFF730
:10021000F5FF02F0F9FC00F0EEF903B4FFF7F2FF8E
:1002200003BC00F0F5F900002C4B19680868B0E831
:10023000F04F80F30988BFF36F8F4FF0000080F319
:10024000118870470000000008480068006880F3CB
:1002500008884FF0000080F3148862B661B6BFF3DF
:100260004F8FBFF36F8F00DF00BF00BF08ED00E0CE
:10027000DFF80C00016841F470010160704700BFB5
:1002800088ED00E0EFF30980BFF36F8F134B1A681E
:100290001EF0100F08BF20ED108A20E9F04F10600B
:1002A00009B44FF0500080F31188BFF34F8FBFF3B4
:1002B0006F8F03F0A9FB4FF0000080F3118809BC99
:1002C00019680868B0E8F04F1EF0100F08BFB0ECD6
:1002D000108A80F30988BFF36F8F704728000020D1
:1002E000EFF3058070470000094880470948004740
:1002F000FEE7FEE7FEE7FEE7FEE7FEE7FEE7FEE7D6
:10030000FEE7FEE704480549054A064B7047000032
:100310004D28000889010008284D0020285300209E
:10032000284F0020284F002053EA020C00F069807B
:100330002DE9F04B4FF00006002B1FBFB3FA83F5F9
:1003400003FA05F424FA05F65E4012BF1643B2FA2A
:1003500082F502FA05F4C5F120051EBF22FA05FC5C
:1003600044EA0C04203556EA044C4FEA144418BF02
:10037000641C4FF000084FF00009904271EB030C31
:1003800039D3002919BFB1FA81F701FA07F6B0FA9B
:1003900080F700FA07F6C7F120071EBF20FA07FC16
:1003A00046EA0C062037B6FBF4FCA7EB0507103F26
:1003B00007F01F0BCBF120060CFA0BFB2CFA06F60C
:1003C00044BFB3460026202FA4BF5E464FF0000B6B
:1003D0005BEA060C08BF4FF0010B19EB0B09ABFBF6
:1003E000027C48EB0608C01B06FB02CC0BFB03CCCF
:1003F00071EB0C01C1E70B46024641464846BDE899
:10040000F08B13B54FF000004FF00001AFF3008008
:10041000BDE81C407047032A40F2308010F0030C06
:1004200000F0158011F8013BBCF1020F624498BF47
:1004300011F801CB00F8013B38BF11F8013BA2F1E4
:10044000040298BF00F801CB38BF00F8013B11F05F
:10045000030300F05780083AC0F0088051F8043BCD
:10046000083A51F804CBA0E80810F5E7121D5CBF6C
:1004700051F8043B40F8043BAFF30080D20724BF9F
:1004800011F8013B11F801CB48BF11F8012B24BF33
:1004900000F8013B00F801CB48BF00F8012B704782
:1004A00002F0FF0343EA032242EA024200F05EB890
:1004B0004FF0000200B5134694469646203922BFFD
:1004C000A0E80C50A0E80C50B1F12001BFF4F7AF48
:1004D000090728BFA0E80C5048BF0CC05DF804EB2A
:1004E000890028BF40F8042B08BF704748BF20F898
:1004F000022B11F0804F18BF00F8012B7047704796
:100500007047704710B5203AC0F00B80B1E8185022
:10051000203AA0E81850B1E81850A0E81850BFF4ED
:10052000F5AF5FEA027C24BFB1E81850A0E818508C
:1005300044BF18C918C0BDE810405FEA827C24BFE0
:1005400051F8043B40F8043B08BF7047D20728BF6E
:1005500031F8023B48BF11F8012B28BF20F8023BBD
:1005600048BF00F8012B70474FF000020429C0F08B
:10057000128010F0030C3FF49DAFCCF1040CBCF1E1
:10058000020F18BF00F8012BA8BF20F8022BA1EB27
:100590000C01FFF78FBF5FEAC17C24BF00F8012B7D
:1005A00000F8012B48BF00F8012B7047754600F09A
:1005B0002BF8AE4605006946534620F007008546F5
:1005C00018B020B5FFF79EFEBDE820404FF00006B2
:1005D0004FF000074FF000084FF0000B21F007012B
:1005E000AC46ACE8C009ACE8C009ACE8C009ACE86E
:1005F000C0098D46704710B50446AFF30080204611
:10060000BDE81040FFF709BE00487047C44C002009
:1006100001491820ABBEFEE726000200704710B566
:100620000146806B026C12F0500F05D0026CD206AE
:1006300026D500F02DFA10BD016C41F40071016463
:1006400001688A6812F0405F17D1027EAAB9CA6AAF
:1006500012F4700F02D08A6852050ED44A6822F054
:1006600020024A60016C21F480710164016CC904AC
:1006700003D4016C41F00101016400F007FA10BDE0
:10068000806BC26CBDE810400846104710B5806B07
:1006900040210164416C41F00401416400F0F8F92B
:1006A00010BD10B5806B00F0F2F910BD10B5044814
:1006B00000F0EFF9BDE81040024800F0EAB9000090
:1006C00098010020E0010020464910B54A6822F454
:1006D00040324A604A6843681A434A6001684A687F
:1006E00022F480724A6001684A68036942EA032280
:1006F0004A6001684A6822F040724A6001684A68AC
:1007000083681A434A6001688A6822F400628A603A
:1007100001688A68C3681A438A60816A6FF07062F0
:10072000D14201688A6822F070628A6001688A6832
:100730000CD0836A1A438A6001688A6822F04052AA
:100740008A6001688A68C36A1A4301E022F0405255
:100750008A6001688A6822F002028A6001688A68F9
:10076000037E42EA43028A6090F820100029016863
:100770004A680FD042F400624A6001684A6822F475
:1007800060424A6001684A68174C436A04EB43338D
:100790001A4301E022F400624A600168CA6A22F446
:1007A0007002CA620168CA6A838B104C04EB03535F
:1007B0001A43CA6201688A6822F400728A6001687A
:1007C0008A6890F8303042EA43228A6001688A6879
:1007D00022F480628A6001688A68406942EA802067
:1007E000886010BD0023014000E0FFFF0000F0FF23
:1007F000074910B5282201F1F00000F0B9FA0449C8
:100800001422A031BDE8104001F1980000F0B0BA08
:10081000A8000020FEE70000F0B50024DFED100A7C
:100820009FED101A19E00026354605E005FB02474A
:100830006D1C50F827703E449D42F7D3B6FBF3F58C
:1008400000EE105A01EB8405641CB8EE400A20EE5D
:10085000200A20EE010A85ED000A9442E3D3F0BDA0
:100860000000803933335340014800F087BB00005B
:1008700028020020014800F081BB0000880200200F
:1008800001681823CAB2103AB2FBF3F2054B6FF3BA
:100890000901032A9B5CC36500D9091D81650846CF
:1008A000704700003445000810B5014600208B69F0
:1008B0008A6A4FF0C07453B1B3F5005F15D072B1BE
:1008C000012A0CD0022A0AD0032A09D104E01AB165
:1008D000012A06D0022A03D1C96AC90100D5012024
:1008E00010BDC96AA142FAD010BD002AF7D0012A72
:1008F000F2D0022AF3D0032AF3D010BD30B5046839
:10090000256825F480252560046863608368402B92
:10091000036803D099600068C26030BD9A600068C7
:10092000C16030BD704710B5402000F0B9FCBDE893
:100930001040802000F0B4BC72B6FEE770470000A3
:1009400078B50024009490F83C20012A19D00122A7
:1009500080F83C200A6807230568092A13D9EE6845
:100960000A3A02EB420293409E43EE600B788A689B
:100970000A3B03EB43039A400368DD682A43DA60CD
:1009800010E0022078BD2E6902EB420293409E43A4
:100990002E610B788A6803EB43039A4003681D6954
:1009A0002A431A614A681F23072A13D205686E6B0F
:1009B000521E02EB820293409E436E630B790A88BB
:1009C0005B1E92B203EB83039A4003685D6B2A437C
:1009D0005A6327E005680D2A12D22E6BD21F02EB54
:1009E000820293409E432E630B790A88DB1F92B2EA
:1009F00003EB83039A4003681D6B2A431A6311E0DB
:100A0000EE6A0D3A02EB820293409E43EE620B794E
:100A10000A880D3B92B203EB83039A400368DD6AB8
:100A20002A43DA62164B0568144A9D4206D10D68C6
:100A3000122D03D1556845F48005556005689D4227
:100A400018D10B68102B01D0112B13D1536843F42C
:100A500000035360096810290CD10A490A4A096841
:100A6000B1FBF2F101EB8101490000E0491E009168
:100A70000029FBD180F83C40002078BD00230140D4
:100A8000002001402400002040420F0070477047C2
:100A9000704770B5044600680668456816F0020F96
:100AA00005F020012AD049B3216CC90603D4216C7A
:100AB00041F400712164816811F0405F17D1217EFB
:100AC000A9B9C16A11F4700F02D0816849050ED42A
:100AD000416821F020014160206C20F48070206486
:100AE000206CC00403D4206C40F001002064204638
:100AF000FFF7CCFF21686FF01200086016F0040FBA
:100B000005F0800132D089B3206CC00603D4206C7C
:100B100040F4005020642068816811F4401F1ED109
:100B2000816B11F4401F02D08168490517D44168D8
:100B3000490514D4816811F0405F10D1217E71B94C
:100B4000416821F080014160206C20F480502064D5
:100B5000206CC00503D4206C40F0010020642046C6
:100B6000FFF7ECFE21686FF00C00086016F0010F33
:100B700005F040010FD071B120680068C0070AD0AD
:100B8000206C40F480302064204600F043F8216857
:100B90006FF00100086016F0200F05F080610ED0A4
:100BA00000290CD0606C40F00200606420686FF097
:100BB000200505602046FFF76BFF2068056070BDCB
:100BC00070B504004FF0000503D0206C002610B172
:100BD00007E0012070BD204600F01EF8666484F82E
:100BE0003C60206CC00610D4206C20F4885040F08B
:100BF000020020642046FFF767FD6664206C20F049
:100C0000020040F00100206400E0012584F83C600F
:100C1000284670BD704700002DE9F04F87B00646AA
:100C200014216846FFF744FC4948484B14383268A1
:100C300000254749032407154FF480584FF4804995
:100C40004FF4807A4FF4803B9A424DD10A6842F4C7
:100C500080720A60096801F480710591016841F0B1
:100C600004010160016801F004010591016841F08F
:100C700001010160016801F001010591016841F085
:100C8000020101600068694600F0020005901A2028
:100C90008DE831002F4800F00FFB0F208DE8310068
:100CA00069462D4800F008FB02208DE831006946B6
:100CB0002A4800F001FB2B4C294804F10C02C4E93E
:100CC0000005A56082E8A00F2046656236E0B463A7
:100CD000002205211220A66300F084FC122000F0FF
:100CE00073FC07B0BDE8F08F1F4B9A42F9D10A6838
:100CF00042F480620A60096801F48061059101682C
:100D000041F0200101600068694600F02000059074
:100D10004FF4B8608DE83100144800F0CDFA114C62
:100D20000F486034183020604FF08060C4E901053E
:100D300004F10C02204682E8A00F656200F0EEF993
:100D40000028C4D0FFF7F8FDC1E7000000200140F3
:100D50004438024000080240000002400004024003
:100D600010640240280200200022014000140240CA
:100D7000F8B5044600200E46009094F83C10012976
:100D800007D0012184F83C1021688B68DB0702D072
:100D900011E00220F8BD8B6843F001038B604049ED
:100DA000404B0968B1FBF3F101EB410100E0491E42
:100DB00000910029FBD121688B68DB0503D58B6886
:100DC00023F480738B6021688B68DB075DD0236C14
:100DD00040F20165AB4343F48073236449684905DD
:100DE00005D5216C21F4005141F480512164216C1E
:100DF000C90404D5616C21F00601616400E06064FF
:100E000084F83C00A16B2948274DC863A16B284892
:100E10000864A16B2748C86421686FF0220008604D
:100E20002068416841F0806141602068816841F438
:100E3000807181602168134632464C31A06B00F00E
:100E4000D7F968681C49C006206806D0884224D1BA
:100E5000816811F0405F13D01FE08842F8D0174A34
:100E6000904203D1D1F80423D206F1D0144A904223
:100E700013D1D1F8041301F01F011029E8D30CE0BD
:100E8000816841F08041816007E0206C40F01000F3
:100E90002064606C40F0010060640020F8BD000038
:100EA0002400002040420F00002301401F060008DC
:100EB000A30600088D060008002001400021014023
:100EC000002201402DE9F0410446876D00F0ECFA64
:100ED000064694F835000025022806D0802060657B
:100EE00084F834500120BDE8F0812068016821F0C9
:100EF000160101602068416921F080014161206C88
:100F000008B9A06C20B12068016821F008010160D7
:100F10002068016821F0010101600CE000F0C4FAD2
:100F2000801B052807D920206065032084F8350040
:100F300084F83450D7E720680068C007EED194F8F1
:100F40005C103F208840B860012084F8350084F8A8
:100F500034500020C7E790F83510022903D08021D3
:100F6000416501207047052180F83510006801684F
:100F700021F0010101600020704700002DE9F843D5
:100F800004464FF00009CDF8009063484FF4165125
:100F9000A56D0068B0FBF1F72E6894F85C1008208E
:100FA00000FA01F131420FD021680A6852070BD5CF
:100FB0000A6822F004020A6094F85C108840A86075
:100FC000606D40F00100606594F85C104FF001081E
:100FD00008FA01F0304208D021684969090604D5B1
:100FE000A860606D40F00200606594F85C10042019
:100FF0008840304208D021680968890704D5A86074
:10100000606D40F00400606594F85C10102088402A
:10101000304218D021680968090714D5A8602068F3
:101020000168490304D50068000308D5A16C07E0F6
:101030000168C90503D4016821F008010160216C31
:1010400009B12046884794F85C102020884030423F
:1010500031D021680968C9062DD5A86094F83500FB
:1010600005282068016806D0490347D500680003B9
:101070001DD4616C1CE021F01601016020684169FB
:1010800021F080014161206C08B9A06C20B120687A
:10109000016821F00801016094F85C103F2088404D
:1010A000A86084F8358084F83490216D1FE0E16BEE
:1010B00009B120468847606D00282BD0606DC007BD
:1010C00014D0052084F835002068016821F0010162
:1010D00001600098401C0090B84203D82068006866
:1010E000C007F6D184F8358084F83490E16C00298B
:1010F00010D001B02046BDE8F04308470168C9059B
:10110000D5D4016821F01001016084F8358084F89D
:101110003490CCE7BDE8F883240000202DE9F041AD
:10112000044600F0C1F906465CB1022084F835009F
:10113000002584F834502068016821F00101016025
:101140000DE00120BDE8F08100F0AEF9801B05281C
:1011500005D920206065032084F83500F2E7206877
:101160000068C007F0D12268116820480140D4E926
:1011700001031843D4E90336334318436369184322
:10118000A3691843E3691843236A18430843616A53
:10119000042903D1D4E90B131943084310602068D4
:1011A0004069666A20F0070130460E430127042893
:1011B0000CD1A06A0643E06A40B12046FFF774FBF9
:1011C00020B14020606584F83570BAE72068466138
:1011D0002046FFF755FB94F85C203F219140816049
:1011E000656584F835700020ACE700003F8010F0A2
:1011F0002DE9F0410446866D90F834000025012861
:101200000DD0012084F8340094F835700020012FAF
:1012100007D084F8340002252846BDE8F08102207A
:10122000FBE7022784F8357060652046FFF766FB10
:1012300094F85C103F208840B0602068016841F05D
:1012400016010160206C20B12068016841F008019E
:1012500001602068016841F001010160DCE70000E5
:1012600001B582B00020009002F066FF012811D085
:10127000094800236A4602A9406902F0CFFD0098A0
:10128000002807D005494FF080500860BFF34F8F0A
:10129000BFF36F8F0EBD00000000002004ED00E0E2
:1012A000044910B50A68024202D00860FFF7D8FF6F
:1012B00010BD0000143C01402DE9F84FDFF8BCA13F
:1012C0000022012503264FF00F090AF1040BAAF1B1
:1012D000040E00BF0B6805FA02F42340A34270D14C
:1012E0000F7907F00307012F01D0022F16D187686D
:1012F0004FEA420806FA08FC27EA0C07D1F80CC0AE
:101300000CFA08FC4CEA070CC0F808C04768A74371
:101310000C79C4F3001494403C4344600C79E443DA
:10132000A4070AD0C4684FEA420C06FA0CF7BC4383
:101330008F6807FA0CF72743C7600C7904F00304A1
:10134000022C12D1D40800EB840CDCF820405707A3
:10135000FF0E09FA07F824EA0804D1F8108008FA09
:1013600007F848EA0408CCF8208004684FEA420CE9
:1013700006FA0CF7BC430F7907F0030707FA0CF7DE
:10138000274307604C6814F4403F70D03C4C2768FA
:1013900047F480472760246822F0030704F4804460
:1013A0000094384C07EB040CDCF8084897074FEA28
:1013B000177809FA08F7BC43334FB84202D1002727
:1013C00024E054E0314FB84201D101271EE0304FF4
:1013D000B84201D1022719E02E4FB84201D10327AC
:1013E00014E02D4FB84201D104270FE02B4FB84233
:1013F00001D105270AE02A4FB84201D1062705E0AE
:10140000284FB84201D1072700E0082707FA08F75C
:101410002743CCF80878DAF800405746D1F804C0E2
:101420009C435FEACC2C00D51C433C60DBF80040B9
:101430005F46D1F804C09C435FEA8C2C00D51C4366
:101440003C60DEF800407746D1F804C09C435FEA78
:101450008C3C00D51C433C60084F083F3C68D1F8E9
:1014600004C09C435FEACC3C00D51C433C60521C4A
:10147000102AFFF42FAFBDE8F88F0000083C0140B0
:1014800044380240003001400000024000040240A5
:1014900000080240000C024000100240001402400C
:1014A00000180240001C024001488068704700009C
:1014B000180000200248816802781144816070475A
:1014C000180000200B4810B5016841F4007101605C
:1014D000016841F480610160016841F4807101603C
:1014E000032000F09FF80F2000F006F800F050F8FD
:1014F000002010BD003C024030B505461F4887B0B3
:101500000024016841F480710160006806A900F4BC
:101510008070009001A800F031F90498A8B100F0A3
:101520004DF940001649174AB0FBF1F11648491E23
:10153000026040F2E732C0E90324C0E9011484618B
:1015400000F08CFB040003D015E000F037F9E9E768
:101550000D4800F0FFFB04000DD12D2000F034F801
:10156000102D07D2002229462D2000F03BF8074815
:10157000056000E0012407B0204630BD403802403D
:1015800040420F0000200040A80300201C00002063
:101590000C4882B0016841F480410160006800F4A9
:1015A000804000900748001F016841F080510160B1
:1015B0000068002200F0805000900F21901E02B0C1
:1015C00000F010B844380240002809DB00F01F0288
:1015D000012191404009800000F1E020C0F8001195
:1015E00070470000F0B40E4B1B680C46C3F3022397
:1015F000C3F10705042D00D90425191D072901D2BF
:10160000002300E0DB1E012606FA05F1491E2140F9
:1016100099409E40761E16403143F0BC01F0E3BA7B
:101620000CED00E0064900F0070208684FF6FF03E2
:10163000184040EA0220034A104308607047000047
:101640000CED00E00000FA052DE9F0470E4605001C
:1016500065D0DFF81481D8F80000F7B200F0070079
:10166000B04207D288F80070D8F8000000F00700F8
:10167000B04254D128683D4C810712D5400703D5AC
:10168000206840F4E05020602878000703D52068E7
:1016900040F4604020602068A96820F0F000084312
:1016A00020602878C0072DD03049686808390128A3
:1016B00012D0022813D0032811D009688907002905
:1016C0002DDA216821F0030101432160FFF7ECFED0
:1016D000814641F2883A0EE009688903EFE709681C
:1016E0008901ECE7FFF7E0FEA0EB0901514502D9C3
:1016F0000320BDE8F0872068696800F00C00B0EBBB
:10170000810FEFD1D8F80010404601F00701B14237
:1017100007D90770006800F00700B04201D001202F
:10172000E7E72878400705D52068E96820F4E0500D
:10173000084320602878000706D52068296920F42E
:10174000604040EAC100206000F058F82168084A73
:10175000C1F30311515CC84006490860064800689F
:10176000FFF7CAFE0020C4E7003C024008380240F0
:101770003C450008240000201C0000200F220260CD
:101780000C4A136803F003034360136803F0F0038B
:101790008360136803F4E053C36012684FF4E053AE
:1017A00003EAD20202610448006800F00700086002
:1017B0007047000008380240003C024004480549D8
:1017C00000680968044AC1F38221515CC84070472F
:1017D00024000020083802404C4500080448054910
:1017E00000680968044AC1F34231515CC84070473F
:1017F00024000020083802404C450008154810B568
:10180000006810F00C02144813D04110042A0FD0C5
:10181000082A0ED10F4C241F2268236802F03F02D1
:101820005B0207D52068C0F38810A0FB010106E029
:10183000084610BD2168C1F38811A1FB00010023F7
:10184000FEF772FD2168C1F30141491C4900B0FB5C
:10185000F1F010BD083802400024F4002DE9F84FE3
:1018600004006ED02078DFF84C93C007A9F104057E
:101870004AD009F104000168C1F38101012908D0AF
:101880000068C0F3810002280AD1D9F800004002A4
:1018900006D52868800337D560680028E1D033E09A
:1018A0006068B0F5803F10D0B0F5A02F286810D048
:1018B00020F480302860286820F480202860606848
:1018C000A8B1FFF7F1FD06460DE0286840F480302E
:1018D000F4E740F480202860F7E700BFFFF7E4FD5D
:1018E000801B642873D828688003F7D50CE0FFF7C5
:1018F000DBFD064605E000BFFFF7D6FD801B642830
:10190000F0D828688003F7D42078DFF8AC8280070D
:101910004FF0000A3ED5A748001D016811F00C0FDA
:1019200008D00068C0F3810002280BD1D9F800006C
:10193000400207D42868800716D5E068012800D146
:1019400012E033E1E068B8B10120C8F80000FFF709
:10195000ABFD064605E000BFFFF7A6FD801B022891
:10196000C0D828688007F7D52868216920F0F800DA
:1019700040EAC10028600DE0C8F800A0FFF794FD20
:10198000064604E0FFF790FD801B02281FD8286858
:101990008007F7D42078000722D5864F87486169F1
:1019A000703771B101210160FFF77EFD064604E04A
:1019B000FFF77AFD801B022809D838688007F7D521
:1019C0000EE0C0F800A0FFF76FFD064605E082E0DC
:1019D000FFF76AFD801B02287DD838688007F7D49E
:1019E0002078400768D5DFF8CCB100270BF13C0B1D
:1019F000DBF80000C0000BD4DBF8001041F0805190
:101A0000CBF80010DBF80000012700F080500090B8
:101A10006B4E3068C00510D4306840F48070306080
:101A2000FFF742FD009005E0FFF73EFD0099401AE8
:101A3000022850D83068C005F6D55E4EA0686C36D6
:101A400001280FD00528306810D020F00100306048
:101A5000306820F004003060A068B8B1FFF724FDC2
:101A600000900FE0306840F00100F4E740F004001F
:101A70003060F7E7FFF718FD0099411A41F288300E
:101A8000814266D830688007F4D50EE0FFF70CFD80
:101A9000009007E0FFF708FD0099411A41F28830F5
:101AA000814256D830688007F4D42FB1DBF800109B
:101AB00021F08051CBF80010A069C8B33D49091D41
:101AC0000968C1F3810102294AD00228504607D093
:101AD000C8F8600000E03CE0FFF7E6FC04463BE0AD
:101AE0004746C8F86000FFF7DFFC064605E000BF88
:101AF000FFF7DAFC801B02282BD828688001F7D476
:101B0000D4E907010843A16A2E4A490802EB0141C2
:101B1000626A41EA8211084394F82C1040EA01619C
:101B2000C9F8001001203866FFF7BEFC044606E045
:101B30003EE000BFFFF7B8FC001B022809D8286868
:101B40008001F7D534E000BFFFF7AEFC001B022890
:101B500002D90320BDE8F88F28688001F4D427E07B
:101B60000128F7D0D9F80000E26900F48001914221
:101B70001CD1226A00F03F01914217D147F6C07193
:101B8000626A0140B1EB821F10D1A26A4FF0FF33AD
:101B900000F4403103EB5202B1EB024F06D194F84E
:101BA0002C1000F07060B0EB016F01D00120D1E784
:101BB0000020CFE70438024000004742800E474231
:101BC000007000400000FFFF7047704770B590F84C
:101BD0003C20012A32D0012480F83C40022280F8C7
:101BE0003D2003685A689D6822F070060A683243F7
:101BF0005A60134B02689A4214D0B2F1804F11D050
:101C0000104B9A420ED0104B9A420BD00F4B9A4277
:101C100008D00F4B9A4205D00E4B9A4202D00E4B81
:101C20009A4204D1496825F080031943916080F8F5
:101C30003D40002180F83C10084670BD022070BD78
:101C4000000001400004004000080040000C00407B
:101C500000040140004001400018004010B504009D
:101C600003D094F83D0010B107E0012010BD002022
:101C700084F83C00204600F01FF8022084F83D0064
:101C8000211D206800F0F0FD012084F8460084F852
:101C90003E0084F83F0084F8400084F8410084F856
:101CA000420084F8430084F8440084F8450084F836
:101CB0003D00002010BD000008B50068B0F1804F65
:101CC00008D10548016841F001010160006800F099
:101CD0000100009008BD00004038024090F83D101F
:101CE000012901D001207047022180F83D100068D1
:101CF0001149884214D0B0F1804F11D00F49884269
:101D00000ED00F4988420BD00E49884208D00E49A8
:101D1000884205D00D49884202D00D49884204D13D
:101D2000816801F00701062903D0016841F0010133
:101D300001600020704700000000014000040040E6
:101D400000080040000C0040000401400040014039
:101D50000018004090F83D10012901D00120704783
:101D6000022180F83D100168CA6842F00102CA6091
:101D700000681149884214D0B0F1804F11D00F494A
:101D800088420ED00E4988420BD00E49884208D0B6
:101D90000D49884205D00D49884202D00C4988423D
:101DA00004D1816801F00701062903D0016841F0E0
:101DB0000101016000207047000001400004004064
:101DC00000080040000C00400004014000400140B9
:101DD0000018004070B5044690F83C00002501282A
:101DE00017D0012684F83C60022084F83D0020686A
:101DF000826822F0770222F47F42826008685028CD
:101E000038D00DDC20284FD005DC90B3102811D13C
:101E10004AE0022070BD302846D040280AD13BE07D
:101E200060282FD070280DD0B0F5805F03D0B0F5BA
:101E3000005F12D0012584F83D60002084F83C004A
:101E4000284670BDCB68D1E90121206800F078FDFB
:101E50002068816841F0770109E0CB68D1E9012170
:101E6000206800F06DFD2068816841F48041816048
:101E7000E1E719E0CA684968206800F073FD502165
:101E8000206806E0CA684968206800F07CFD60218F
:101E9000206800F05FFDCEE7CA684968206800F05E
:101EA00061FD40212068F4E7226801461046F0E712
:101EB00070472DE9F04104460068C66805694FF097
:101EC0000007A90713D5B10711D5F91E016101203B
:101ED0002077206880698007204602D0FFF7E8FF5E
:101EE00004E000F07EF8204600F07CF827776807D1
:101EF00016D5700714D521686FF004000861022020
:101F000020772068806910F4407F204602D0FFF7D8
:101F1000CFFF04E000F065F8204600F063F8277773
:101F2000280715D5300713D521686FF00800086120
:101F3000042020772068C0698007204602D0FFF780
:101F4000B7FF04E000F04DF8204600F04BF827778B
:101F5000E80616D5F00614D521686FF01000086168
:101F6000082020772068C06910F4407F204602D006
:101F7000FFF79EFF04E000F034F8204600F032F84E
:101F80002777E80708D0F00706D021686FF0010036
:101F90000861204600F028F8280608D5300606D546
:101FA00021686FF0800008612046FFF70DFE68068B
:101FB00008D5700606D521686FF0400008612046FC
:101FC00000F01CF8A8060AD5B00608D521686FF005
:101FD000200008612046BDE8F041FFF7F6BDBDE8EE
:101FE000F08170477047000000680349884201D1C2
:101FF000FFF760BA7047000000200040704770474C
:1020000070470000F8B5016804460868CA684B6963
:1020100010F00F0F4FF000055AD003F0010602F444
:102020009077374365D0C10705D0D10503D5616CE2
:1020300041F001016164410705D5D90703D0616C06
:1020400041F002016164810705D5D90703D0616CB5
:1020500041F004016164010707D502F0200131431A
:1020600003D0616C41F008016164616C00293BD0D0
:10207000800604D5900602D5204600F0C5FC2068F5
:102080004069616CC0F3801001F0080101432046F3
:102090002BD000F092FC20684069400621D52068D2
:1020A000143050E8001F21F0400140E80012002ADF
:1020B000F5D1E06BA8B16E490165E06BFEF74BFF0F
:1020C000002811D0E06B016D01B0BDE8F040084779
:1020D00083060ED593060CD52046BDE8F84000F0E7
:1020E00093BC2046FFF78CFFF8BDFFF789FF6564BE
:1020F000F8BD266B2023012E7DD1C6067BD5D606E2
:1021000079D508684868009048694FF00206400693
:1021100041D5E16B086840680004000CE8D0A28D4E
:102120008242E5D9E085C869B0F5807F2DD020686E
:102130000C3050E8001F21F4807140E80012002AA2
:10214000F5D12168143151E8000F20F0010041E879
:102150000002002AF5D12068143050E8001F21F059
:10216000400140E80012002AF5D184F8423025638E
:1021700020680C3050E8001F21F0100140E80012E8
:10218000002AF5D1E06BFEF79DFE6663A08DE18D20
:10219000401A81B22AE0A08DE18D401A81B2E08D13
:1021A0000028A5D00029A3D022680C3252E8000FE5
:1021B00020F4907042E80007002FF5D12068143019
:1021C00050E8002F22F0010240E80027002FF5D14F
:1021D00084F84230256320680C3050E8002F22F04C
:1021E000100240E80023002BF5D166632046FFF77C
:1021F00006FFF8BDFFE705062BD5150629D594F88F
:1022000041002128F5D1A068B0F5805F01D1206997
:10221000B0B1206A411C2162216800784860E08CDE
:10222000401E0004000CE084E3D12068C16821F066
:102230008001C1602068C16841F04001C160D8E7F9
:10224000206A0088C0F308004860206A801C206271
:10225000E5E74006CDD55006CBD5CA68204622F02A
:102260004002CA6084F8413000F075F8C1E7000010
:10227000AB29000870B5040004D094F84100002593
:1022800010B106E0012070BD84F84050204600F0F7
:1022900023F8242084F841002068C16821F400510B
:1022A000C160204600F012FC2068016921F49041D1
:1022B00001612068416921F02A0141612068C168FB
:1022C00041F40051C1606564202084F8410084F825
:1022D00042006563002070BD10B586B0044614212D
:1022E0006846FEF7E5F818492068884229D1174862
:1022F0000021026842F020020260006800F0200025
:10230000059012481438026842F0400202600068EA
:1023100000F0400005904FF4844000900220CDE989
:102320000101032003900820049069460848FEF745
:10233000C3FF002205214720FFF754F94720FFF78C
:1023400043F906B010BD00000014014044380240BB
:102350000018024070477047FEE700007FB5002577
:102360003A4800950195029537490395016001248B
:102370004FF480310461C0E90115047680F82050E3
:102380003349C0E90A150826C661C56080F83040A7
:102390004461FEF715FC08B1FEF7CEFACDE9005412
:1023A0000325694629480295FEF7CAFA08B1FEF7E7
:1023B000C3FA00940224694624480194FEF7C0FA47
:1023C00008B1FEF7B9FA69462048CDE90045FEF7A5
:1023D000B7FA08B1FEF7B0FA0420CDE9005069461B
:1023E0001A48FEF7ADFA08B1FEF7A6FA09200090E8
:1023F0000520019069461548FEF7A2FA08B1FEF7DC
:102400009BFA0B2000900620019069460F48FEF7CA
:1024100097FA08B1FEF790FA0D200090072001907E
:1024200069460A48FEF78CFA08B1FEF785FA0E20D5
:10243000CDE9000669460548FEF782FA002801D07A
:10244000FEF77AFA7FBD00000020014098010020CD
:102450000100000F7FB500212548009101910291F4
:10246000224A0391026001244FF480320461C0E9E2
:102470000121047680F820101E4AC0E90A210425B3
:10248000C561C16080F830404461FEF799FB08B136
:10249000FEF752FACDE90054032469461448029429
:1024A000FEF74EFA08B1FEF747FA05200090022029
:1024B000019069460E48FEF743FA08B1FEF73CFA70
:1024C0000620CDE9000469460948FEF739FA08B14B
:1024D000FEF732FA0820CDE9000569460448FEF708
:1024E0002FFA002801D0FEF727FA7FBD0022014015
:1024F000E00100200100000F0D4808B5016841F41B
:10250000800101600068002200F480000090052135
:102510003820FFF767F83820FFF756F8002205212A
:102520003920FFF75FF8BDE808403920FFF74CB8C5
:102530003038024010B502210D4A084600F0BEFBBB
:102540000C4C0B4A002160616C3A0B4800F0E2FB36
:10255000074AA060483A0021084800F0DBFB044A23
:10256000E060243A0021064800F0D4FB206110BD51
:102570001C4500080000002001270008C9260008AB
:10258000F926000800B587B014216846FDF790FFD2
:102590002248016841F020010160016801F020013A
:1025A0000591016841F080010160016801F080013E
:1025B0000591016841F004010160016801F0040126
:1025C0000591016841F001010160016801F001011C
:1025D0000591016841F002010160016801F002010A
:1025E0000591016841F0400101600068694600F012
:1025F00040000590C02000904FF40410019001208D
:1026000002900748FEF758FE002206211720FEF729
:10261000E9FF1720FEF7D8FF07B000BD30380240B1
:102620000018024010B586B00024164800940194AA
:102630000294039404944FF0804105940160532167
:10264000C0E901141049C0E9031480218161FFF73A
:1026500005FB08B1FEF770F94FF480500090694611
:102660000848FFF7B7FB08B1FEF766F9049404A920
:1026700004480594FFF7AAFA002801D0FEF75CF998
:1026800006B010BD180300209F8601000C4810B54D
:102690000A4901604FF4E1314160002181600C2260
:1026A000C160C0E904128161C161FFF7E3FD002848
:1026B00003D0BDE81040FEF73FB910BD0014014043
:1026C00060030020FEE7FEE70523082206490748CD
:1026D000FEF7A2F80523042205490648FEF79CF8F8
:1026E000012000F0AFFAEFE7E8020020A800002088
:1026F0000803002048010020012000F0A3FAFBE7B6
:10270000002408B5DFF88490DFF884B0214DDFF8AD
:1027100088A0A046264627464FF0FF3269466869E2
:1027200001F0DCFB01282CD1BDF80000402802D0CC
:10273000802813D025E0D9F8000026B1406AA042D5
:1027400004D9001B05E0446A01261AE0ABEB040142
:102750000844BAFBF0F00026286012E0D9F8000027
:10276000406A27B1404505D9A0EB080005E0804646
:10277000012706E0ABEB08010844BAFBF0F00027A4
:102780006860012000F05EFAC6E700001803002030
:102790009F8601000000002040420F0010B54FF05E
:1027A000E020006901F0C8FC012803D0BDE810401A
:1027B00001F0D6B910BD000030B593B030216846A5
:1027C000FDF776FE14210CA8FDF772FE1D480025CA
:1027D000016841F080510160006800F08050119064
:1027E0001948016841F4804101600068022400F446
:1027F00080401190012003901020049000940694D2
:102800000820CDE90750A820CDE9090404200B9049
:102810006846FFF723F808B172B6FEE70CA90F204F
:1028200081E831004FF4A0500F904FF48050109089
:1028300005210CA8FEF708FF002801D072B6FEE7BC
:1028400013B030BD403802400070004002480168BB
:1028500041F470010160704788ED00E00148FFF726
:1028600028BB0000A8030020F0B50268294C2A4DBF
:102870002A4E2B4F2B4B4FF0804CA04209D0604585
:1028800007D0A84205D0B04203D0B84201D0984248
:1028900004D122F0700E4A6842EA0E02A0421BD018
:1028A000604519D0A84217D0B04215D0B84213D015
:1028B000984211D01C4DA8420ED01C4DA8420BD0FE
:1028C0001B4DA84208D01B4DA84205D01A4DA84266
:1028D00002D01A4DA84203D122F44075CA682A4397
:1028E0004D6922F080022A4302608A68C2620A6847
:1028F0008262A04201D0984201D10969016301219D
:1029000041610169C90703D0016921F00101016139
:10291000F0BD00000000014000040040000800403D
:10292000000C004000040140004001400044014010
:102930000048014000180040001C004000200040FA
:1029400010B5846842EA032224F47F440A432243F8
:10295000826010BD826822F070020A4342F00701D3
:102960008160704710B5036A046A24F001040462B0
:10297000846924F0F00444EA021423F00A020A43B2
:102980008461026210BD10B5036A046A24F0100469
:102990000462846923F0A00324F4704444EA023200
:1029A00043EA01118261016210BD10B5806B002104
:1029B000C185C184FFF724FB10BD01680C3151E8CB
:1029C000002F22F4907241E80023002BF5D101681A
:1029D000143151E8002F22F0010241E80023002BBE
:1029E000F5D1016B012909D101680C3151E8002FA3
:1029F00022F0100241E80023002BF5D1202180F8BD
:102A0000421000210163704708B590F84210222956
:102A100001D0022008BD82684FF480539A4201D150
:102A2000016921B1816A9A421BD04AB10AE0026869
:102A3000816A5268C2F308020A80816A891C08E030
:102A4000026972B10268526802F07F020A70816AFC
:102A5000491C8162C18D491E0904090CC18503D03E
:102A60001BE002685268F1E70168CA6822F02002A0
:102A7000CA600168CA6822F48072CA6001684A6943
:102A800022F001024A61202180F8421000214163B6
:102A9000026B012A03D0FFF75DFC002008BD016333
:102AA00001680C3151E8002F22F0100241E80023A8
:102AB000002BF5D101680A68D20602D50A68496878
:102AC0000091818DFFF79BFAE7E7000070B504469F
:102AD00000680169E26821F44051114301612169F4
:102AE000A068E26908436169114308432168CA6824
:102AF00049F20C639A430243CA6020684169A269A3
:102B000021F440711143416131492068884202D06B
:102B10003049884202D1FEF761FE01E0FEF74EFE29
:102B2000E2690023192164253226B2F5004F62685C
:102B300028D0A0FB0101930F9200FDF7F5FB0146A1
:102B4000B0FBF5F06FF01802504301EB800006EB8C
:102B50000010B0FBF5F000F0F002B1FBF5F002EB75
:102B60000012B1FBF5F06FF01803584301EB800041
:102B700006EB0010B0FBF5F000F00F0021681044E8
:102B8000886070BDA0FB010192185B41FDF7CCFB92
:102B90000146B0FBF5F00201B1FBF5F06FF0180350
:102BA000584301EB800006EBC000B0FBF5F000F0ED
:102BB000F80002EB4002B1FBF5F0584301EB800056
:102BC00006EBC000B0FBF5F000F00700D6E7000010
:102BD00000100140001401400148FFF713BA000043
:102BE00060030020FEE70907090E002804DB00F15E
:102BF000E02080F80014704700F00F0000F1E020A2
:102C000080F8141D70470000FEF75CFCFFF7D4FD50
:102C1000FFF7B8FCFFF770FCFFF7A0FBFFF736FDEE
:102C2000FFF700FDFFF716FC0548FFF757F8FDF723
:102C3000DFFD00F015F8FFF77DFC00F023F8FEE75C
:102C40001803002010B5EFF3058111B16FF00504F2
:102C500003E0002408B100F023FE204610BD000070
:102C6000EFF3058010B16FF005007047044801686C
:102C700011B14FF0FF307047012101600020704713
:102C80007800002010B5EFF3058010B16FF005005B
:102C900010BD08480168012902D04FF0FF3010BD77
:102CA000054A002182F8141D0221016000F060FE37
:102CB000002010BD780000200BE000E0F8B51446BD
:102CC0004FF00005EFF3058212BB08B301B3A4B1C6
:102CD000D4E9023263B1502A1AD32269C2B16769BA
:102CE00000FB01F6B74213D3009500F070FF07E038
:102CF00072B9226962B9626952B9002200F046FFD6
:102D0000050005D00CB1216800E0002100F092FD23
:102D10002846F8BD2DE9FF410B464FF00005EFF3C3
:102D20000581039549BB40B38027182100244AB38D
:102D3000166806B1344696691EB13146761E382EA5
:102D400002D21679F60703D0002004B0BDE8F08166
:102D5000566906B1B708D2F808C0BCF1000F0DD013
:102D6000D5685C2D18D312693AB136B18DE80610DA
:102D70003A46214601F0B5F903900DE0D6685EB9F8
:102D800012694AB903AACDE90012BAB2214601F08C
:102D90007BF9012800D003950398D6E72DE9F0418F
:102DA000134C0F460546E6682068001D00F044FC01
:102DB000681C07D137B12168BDE8F0410D48091DF5
:102DC00000F08ABC20683544B5424560216805D2D0
:102DD000A06BBDE8F041091D00F066BC606B091DE9
:102DE00000F062FCA06A854200D2A562BDE8F081D5
:102DF00028000020E00800202DE9F041054600F001
:102E000077FC2D4CA068401CA06020682B4F10B1AF
:102E1000606930B32BE02560A068012827D1002627
:102E200006EB860007EB800000F030FC761C382EA5
:102E3000F6D3234800F02AFC2148143000F026FC89
:102E40001F48283000F022FC1D483C3000F01EFCDA
:102E50001B48503000F01AFC194860631430A0631E
:102E600005E02068E96AC06A884200D82560606A87
:102E7000401C60626864E86A2169884200D9206168
:102E800000EB800007EB8000291D00F025FC00F01E
:102E90004FFC606900280CD02068E96AC06A88424B
:102EA00007D208494FF080500860BFF34F8FBFF33F
:102EB0006F8FBDE8F0810000280000203004002062
:102EC0009008002004ED00E038B500F011FC104C33
:102ED0002068C8B90F4800F0D9FB0E48143000F044
:102EE000D5FB0C48E060143020610A4B0020F03B19
:102EF000009003F1500210210A2000F068FE2060CB
:102F000010B105A100F096FCBDE8384000F010BCFF
:102F100064000020E4090020546D7251000000009C
:102F200030B4026C0B46002A0BD0C1681144C1605A
:102F30008468A14201D30168C16030BC1846FDF726
:102F40006ABA30BC70472DE9F041856B17460446DC
:102F50000026026C82B1C7B1E068FDF75CFAE16857
:102F6000206C091AE1602268914202D2A168081A15
:102F7000E060022F16D017E02068A8B9A06801F021
:102F800053F906460020A0600EE06068FDF743FAA2
:102F9000216C606808446060A168884204D320689E
:102FA000606001E005B16D1E6D1CA5633046BDE893
:102FB000F08110B5044690F8590058B101280CD0A2
:102FC00002280FD0502080F31188BFF34F8FBFF33A
:102FD0006F8FFEE7206B00F0BFFB2046BDE810407E
:102FE00000F0BABB10BD000010484FF4705142070A
:102FF00006D0C01D0D4920F00700411AC1F57051DF
:103000000B4A00230144C2E900030839183A21F0B1
:10301000070111604B600B600B1AC0E9001393604D
:103020004FF000405360506170470000C410002012
:1030300094000020144E154CA6F29C474FF0805887
:10304000DFF84C9012E000BF00F052FBF068C5685A
:10305000281D00F0F1FAA068401EA0606068401EC4
:10306000606000F065FB2846FFF7A3FF606800285A
:10307000EAD138680128F9D9C9F80080BFF34F8F29
:10308000BFF36F8FF2E70000CC080020280000207B
:1030900004ED00E070B51D46049C51B1C4F8002059
:1030A000C4E90F010121204600F0C4FD84F84C5012
:1030B00070BD2460F4E700002DE9F05F8846DDE98B
:1030C0000B941546834691009A460A9EA522206BD2
:1030D000FDF7E6F96FF00301206B01EB8501084471
:1030E00020F00707780707D0502080F31188BFF33E
:1030F0004F8FBFF36F8FFEE70025B8F1000F0FD0A1
:103100005FF00000221818F8001082F8341018F848
:10311000001011B1401C1028F4D384F8435001E092
:1031200084F83450382E00D33726E662C4E913659C
:10313000201D00F0B6FA04F1180000F0B2FA246184
:10314000C6F138006462A061656584F85850524643
:103150005946384600F05AFA2060B9F1000F01D004
:10316000C9F80040BDE8F09F30B5114900E01146B4
:103170000A688242FBD34B685C18844203D14068E2
:1031800018444860084643681C18944209D1084C0A
:10319000183C2468A24209D052681A4442600A6866
:1031A00012680260814200D0086030BD0460F9E717
:1031B0009400002070B5002441600B4D00619142E5
:1031C00006D8D11A8269914206D2011D286907E00A
:1031D0009A4203D2994201D3012403E0011DE86819
:1031E00000F062FA204670BD6400002010B504466D
:1031F00000F07EFAA06B28B15FF0000400F098FAAE
:10320000204610BD0124F9E730B589B03C4D6EE091
:103210000498002806DADDE90601059A904704982B
:10322000002864DB069C606910B1201D00F004FAE0
:1032300003A800F0D7F8024604980A2857D2DFE81E
:1032400000F00505052D334A05052D3394F82800B7
:1032500040F0010084F828000599A069059B01440D
:103260002046FFF7A7FF68B3216A2046884794F8F5
:10327000280040073BD5002000900598A169002355
:1032800042181946204601F0D9F8D8B9502080F3E9
:103290001188BFF34F8FBFF36F8FFEE714F8280F2D
:1032A00020F00100207022E094F8280040F0010096
:1032B00084F828000598A06128B18118134620469B
:1032C000FFF778FF13E0502080F31188BFF34F8F92
:1032D000BFF36F8FFEE794F82800810703D42046E0
:1032E00000F03AFA03E020F0010084F82800002200
:1032F00004A9286800F0F2FD002889D109B030BD8A
:10330000640000202DE9FC410F46054600F074FBE7
:1033100001A800F067F80446019818B100F0FCFF1E
:10332000BDE8FC81254EAFB130690068D0B30027FD
:10333000291B3A46306800F091FA00F0EDFF0028B2
:10334000EED11F494FF080500860BFF34F8FBFF39D
:103350006F8FE5E7A542EBD800F0DEFFF068274667
:10336000C068C468201D00F067F994F82800410780
:1033700019D5A0692B4641193A462046FFF71AFF96
:10338000A8B100200346014600902A46204601F0DD
:1033900055F860B9502080F31188BFF34F8FBFF309
:1033A0006F8FFEE707E020F0010084F82800216A13
:1033B00020468847B4E70127BAE7000064000020F0
:1033C00004ED00E00648416B096829B1416BC9680A
:1033D000C9684968816270474FF0FF31FAE7000021
:1033E0002800002070B5054600F0B4FE064E0446E5
:1033F000B068844203D200F009F8012000E0002008
:1034000028602046B46070BD64000020F8B5194DF6
:1034100020E0C068C4680668201D00F00DF9216A2C
:103420002046884794F82800400713D5A069304407
:10343000B04206D924616060211DE86800F034F9CB
:1034400008E000200346014600903246204600F086
:10345000F5FF38B1E86801680029DAD12969C5E9C2
:103460000310F8BD502080F31188BFF34F8FBFF3D6
:103470006F8FFEE76400002008484068401C4FF052
:10348000500080F3118804D0BFF34F8FBFF36F8FCC
:10349000FEE7BFF34F8FBFF36F8FFEE79C00002066
:1034A000074CE068016841B1C0680021D0F8000015
:1034B000FFF728FFFFF7A8FEF3E701210020F7E759
:1034C000640000202DE9F041044600F011F994F960
:1034D000455004F1240609E0606A48B1304600F026
:1034E000E3FE08B100F00AFA6D1E6DB2002DF3DCA8
:1034F0004FF0FF3684F8456000F01AF900F0F8F854
:1035000094F9445004F1100709E0206948B13846A5
:1035100000F0CAFE08B100F0F1F96D1E6DB2002D89
:10352000F3DC84F84460BDE8F04100F001B900002C
:103530002DE9F0410546002700F05EFA324E306872
:1035400008B9FFF751FD706905424ED1C5B3083582
:1035500068070ED005F00700C0F1080005446807B1
:1035600007D0502080F31188BFF34F8FBFF36F8FC8
:10357000FEE72DB37068854237D8234818300146DE
:103580000C6801E020460C466168A94202D221681D
:103590000029F7D131688C4227D007682168016083
:1035A00060680837411B10290FD96019420708D0FD
:1035B000502080F31188BFF34F8FBFF36F8FFEE76A
:1035C00013E041606560FFF7CFFD61687068401AE5
:1035D0007060B268904200D2B06070690143002010
:1035E000C4E90001F068401CF06000F095FE780727
:1035F00007D0502080F31188BFF34F8FBFF36F8F38
:10360000FEE73846BDE8F0817C00002010B5031FBE
:103610004FF080741C601B1F21F001011960191FFD
:10362000044B0B6014390A60091F6FF00202443822
:103630000A6010BD79340008D0E9013201699A604E
:10364000D0E901235A604A68824201D182684A6007
:10365000002202610868401E086008687047000088
:10366000034B036003F15C0008608020106070472A
:103670000C0A0020044B036003F15C0008604FF467
:103680008070106070470000680C002000F1080195
:103690004FF0FF32C0E90112C160016100210160F9
:1036A000704700210161704730B50B685A1C02D089
:1036B00000F1080202E0026904E02246546825682D
:1036C0009D42FAD953684B6099608A6051600861E5
:1036D0000168491C016030BD42684A6093688B6094
:1036E00093685960916008610168491C01607047E6
:1036F000502080F31188BFF34F8FBFF36F8F0A49BB
:103700004868401C486001280CD10848006810F047
:10371000FF0F07D0502080F31188BFF34F8FBFF306
:103720006F8FFEE7704700009C00002004ED00E072
:103730000849486828B1401E486001D180F31188CB
:103740007047502080F31188BFF34F8FBFF36F8F06
:10375000FEE700009C00002070B500282AD0164D1E
:10376000A0F1080460686969084207D1502080F31D
:103770001188BFF34F8FBFF36F8FFEE722683AB116
:10378000502080F31188BFF34F8FBFF36F8FFEE798
:103790008843606000F030F96068696808446860D8
:1037A0002046FFF7E1FC2869401C2861BDE8704015
:1037B00000F0B2BD70BD00007C0000204FF0E020A2
:1037C00000210161816105494FF47A720968B1FBFA
:1037D000F2F1491E41610721016170472400002078
:1037E00010B5FCF77DFD114910280ED300F1E02043
:1037F00090F8F0030A78904207D2502080F31188A5
:10380000BFF34F8FBFF36F8FFEE7094800688968E9
:1038100000F4E060884207D9502080F31188BFF39C
:103820004F8FBFF36F8FFEE710BD00009C0000209C
:103830000CED00E010B5084B002200BF53F83240F9
:103840001CB1521C082AF9D310BD43F8321003EB07
:10385000C201486010BD0000F003002070B515469D
:103860000E460446FFF744FF94F944100020491C1B
:1038700001D184F8440094F94510491C01D184F821
:103880004500FFF755FFA06B28B92A46314604F1E1
:10389000240000F051F82046BDE87040FFF712BE4A
:1038A00010B5020014D00F48006B38B1502080F3DF
:1038B0001188BFF34F8FBFF36F8FFEE700F09CF8C6
:1038C00000211046FFF76AFA00F026FD002807D114
:1038D00005494FF080500860BFF34F8FBFF36F8FE3
:1038E00010BD00002800002004ED00E002490A6A33
:1038F0000260C9684160704728000020014901202A
:10390000C86170472800002010B50C4650B1094925
:1039100009681831FFF7C8FE2046BDE810400121B4
:10392000FFF73CBA502080F31188BFF34F8FBFF3ED
:103930006F8FFEE72800002070B514460D4668B171
:103940000A4909681831FFF7C7FE0CB14FF0FF357F
:1039500021462846BDE87040FFF720BA502080F38A
:103960001188BFF34F8FBFF36F8FFEE72800002051
:1039700030B587B00024039405AA04A903A80494D1
:10398000FFF76EFEDDE903010094CDE9011000238D
:1039900015A11748059A00F0A4FB164D0028E8620F
:1039A0001FD000F01BFD012809D0401C19D1502068
:1039B00080F31188BFF34F8FBFF36F8FFEE7502066
:1039C00080F31188BFF34F8FBFF36F8F4FF0FF303D
:1039D000A86201206861EC6007B0BDE8304000F0EB
:1039E00045B807B030BD000049444C450000000018
:1039F00035300008280000200248016B491C016393
:103A00007047000028000020164810B5016B11B166
:103A10000121C16110BD0021C1610169124A01E0AB
:103A2000B9B1491E01EB810352F82330002BF7D0C6
:103A300001EB810302EB830202F1080453685B6827
:103A40005360A34201D15B685360DA680260016190
:103A500010BD502080F31188BFF34F8FBFF36F8FDD
:103A6000FEE7000028000020300400201CB5374885
:103A70000168374A914207D1502080F31188BFF383
:103A80004F8FBFF36F8FFEE700683149491E8842B0
:103A900007D1502080F31188BFF34F8FBFF36F8F92
:103AA000FEE72C4908780190FF20087008788DF80F
:103AB00000009DF800009DF8002000F0F00090420A
:103AC00007D0502080F31188BFF34F8FBFF36F8F63
:103AD000FEE79DF80000204C00F050002070072009
:103AE000A06005E09DF8002052008DF80020401EE7
:103AF0009DF800201206F5D4A060032807D05020BE
:103B000080F31188BFF34F8FBFF36F8FFEE74FF441
:103B10004070A060019808700C482030016841F4A2
:103B200070010160016841F070410160FFF746FEDD
:103B300000206060FCF79CFB0848016841F04041B0
:103B40000160FCF781FB00201CBD000000ED00E0DF
:103B500071C20F4100E400E09C00002034EF00E05F
:103B600010B5502080F31188BFF34F8FBFF36F8FD4
:103B700000F0F6FA18B104494FF0805008600020B8
:103B800080F3118810BD000004ED00E0F8B5174681
:103B90000E46050013D005FB06F05030FFF7C8FCB9
:103BA00004000AD0002084F8460004F150023B468D
:103BB000314628460094FFF76DFA2046F8BD5020A4
:103BC00080F31188BFF34F8FBFF36F8FFEE738B5D7
:103BD000049D18B153B1CAB181B120E0502080F3E7
:103BE0001188BFF34F8FBFF36F8FFEE7502080F334
:103BF0001188BFF34F8FBFF36F8FFEE7502080F324
:103C00001188BFF34F8FBFF36F8FFEE739B150209C
:103C100080F31188BFF34F8FBFF36F8FFEE75024FF
:103C20001C46012384F846302B460094FFF732FAF5
:103C3000204638BD70B50D46040025D0FFF758FD6D
:103C4000D4E90F20216802FB0011A1600021A163CB
:103C5000216861600A46D4E90F01401E00FB012182
:103C6000E16021464FF0FF3001F8440F487004F145
:103C700010008DB1FFF70AFD04F12400FFF706FDE7
:103C8000FFF756FD012070BD502080F31188BFF36F
:103C90004F8FBFF36F8FFEE721690029F0D000F04E
:103CA00003FB0028ECD004494FF080500860BFF3BC
:103CB0004F8FBFF36F8FE3E704ED00E02DE9FF477F
:103CC00082B01D468A464FF00008040003D0BAF1C6
:103CD000000F08D011E0502080F31188BFF34F8F00
:103CE000BFF36F8FFEE7206C38B1502080F311884E
:103CF000BFF34F8FBFF36F8FFEE7022D0AD1E06B4A
:103D0000012807D0502080F31188BFF34F8FBFF3F5
:103D10006F8FFEE700F010FA3F4F4FF000094FF0B1
:103D2000805648B9049838B1502080F31188BFF309
:103D30004F8FBFF36F8FFEE7FFF7DAFCA06BE16BED
:103D4000884207D3022D05D00498D0B1B8F1000FF6
:103D50001AD01EE02A4651462046FFF7F4F8616A61
:103D600019B104F1240000F09FFA20B13E60BFF3C6
:103D70004F8FBFF36F8FFFF7DBFC012006B0BDE86C
:103D8000F087FFF7D5FC22E06846FFF7AFFD4FF064
:103D90000108FFF7CDFCFFF72FFEFFF7A9FC94F910
:103DA0004400401C01D184F8449094F94500401C23
:103DB00001D184F84590FFF7BBFC04A9684600F0E8
:103DC00029F930B12046FFF77DFB00F0A5FA00206D
:103DD000D4E7FFF78DFCA06BE16B884213D1FFF7AE
:103DE000A7FC04F110000499FFF78EFD2046FFF7B1
:103DF00069FB00F091FA00289ED13E60BFF34F8F1F
:103E0000BFF36F8F98E7FFF793FC2046FFF75AFB4D
:103E100000F082FA90E7000004ED00E02DE9F047A1
:103E20001F4690468946040003D0B9F1000F08D020
:103E300011E0502080F31188BFF34F8FBFF36F8FD5
:103E4000FEE7206C38B1502080F31188BFF34F8F0C
:103E5000BFF36F8FFEE7022F0AD1E06B012807D076
:103E6000502080F31188BFF34F8FBFF36F8FFEE7B1
:103E7000FFF7B6FC5020EFF3118680F31188BFF3F3
:103E80004F8FBFF36F8FA06BE16B884206D3022F79
:103E900004D0002086F31188BDE8F08794F94550DE
:103EA000A06B3A4649462046FFF74DF8681C04D0FF
:103EB0006D1C84F845500120ECE7606A0028FAD0B8
:103EC00004F1240000F0F0F90028F4D0B8F1000F5C
:103ED000F1D00121C8F80010EDE700002DE9F74707
:103EE000002683B08A46040003D0BAF1000F08D040
:103EF00011E0502080F31188BFF34F8FBFF36F8F15
:103F0000FEE7206C38B1502080F31188BFF34F8F4B
:103F1000BFF36F8FFEE700F00FF9DFF8F4804FF08A
:103F200000094FF0805748B9059838B1502080F308
:103F30001188BFF34F8FBFF36F8FFEE7FFF7D8FBFA
:103F4000A56BC5B151462046FEF7EAFF6D1EA5637D
:103F5000206950B104F1100000F0A6F928B1C8F8AA
:103F60000070BFF34F8FBFF36F8FFFF7E1FB0120AE
:103F700006B0BDE8F087059808B11EB106E0FFF76E
:103F8000D7FB27E06846FFF7B1FC0126FFF7D0FB1F
:103F9000FFF732FDFFF7ACFB94F94400401C01D160
:103FA00084F8449094F94500401C01D184F8459070
:103FB000FFF7BEFB05A9684600F02CF80028204654
:103FC0000AD0FFF77FFA00F0A7F92046FFF70EF9B5
:103FD0000028B3D00020CBE7FFF708F990B104F137
:103FE00024000599FFF790FC2046FFF76BFA00F0DC
:103FF00093F90028A2D1C8F80070BFF34F8FBFF328
:104000006F8F9BE72046FFF75DFA00F085F995E793
:1040100004ED00E02DE9F0410C46050011D0C4B1DB
:10402000FFF766FB174BDA686E682068911B471C28
:1040300017D02F681B6A9F4219D0964217D80124C7
:1040400010E0502080F31188BFF34F8FBFF36F8FC4
:10405000FEE7502080F31188BFF34F8FBFF36F8FBF
:10406000FEE70024FFF764FB2046BDE8F0818842AC
:1040700005D9401A20602846FFF738FCF1E70020F8
:104080002060DCE7280000202DE9FF5F8346DDE9A2
:104090000E87994616468A469000FFF749FA0500B2
:1040A0001CD05C20FFF744FA040014D000202563E4
:1040B00084F85900CDE90240CDE900874B463246ED
:1040C00051465846FEF7F8FF2046FEF795FE0120C0
:1040D00004B0BDE8F09F2846FFF73EFB4FF0FF30ED
:1040E000F6E7F0B585B0DDE90B640A9DA6B1DCB159
:1040F0005C2700972663022684F85960002604AFE7
:10410000CDE90246CDE90057FEF7D6FF2046FEF77F
:1041100073FE049805B0F0BD502080F31188BFF302
:104120004F8FBFF36F8FFEE7502080F31188BFF3EE
:104130004F8FBFF36F8FFEE70548416919B1006BE0
:1041400018B100207047012070470220704700001E
:10415000280000200148C0687047000028000020A7
:104160002DE9F0412E4C0027206B28B1A069401C9E
:10417000A0613846BDE8F081E668761CE66013D1A0
:10418000606B006838B1502080F31188BFF34F8F07
:10419000BFF36F8FFEE7606BA16B6163A063206A62
:1041A000401C2062FFF70EF9A06ADFF87880864293
:1041B00009D3606B0068A0B1606BC068C5686868AF
:1041C000864211D2A0622068C06A00EB800158F8D4
:1041D0002100012800D90127E0690028C9D0012762
:1041E000C7E74FF0FF30EDE7281DFFF725FAA86A73
:1041F00018B105F11800FFF71FFAE86A2169884233
:1042000000D9206100EB800108EB8100291DFFF738
:1042100063FAE86A2168C96A8842CAD30127C8E7F5
:10422000280000203004002070B504004FF0000189
:1042300033D01B4D2868844207D0502080F311886A
:10424000BFF34F8FBFF36F8FFEE7206D38B1401E75
:104250002065E36CE26A9A421FD040B11DE0502015
:1042600080F31188BFF34F8FBFF36F8FFEE7201DE0
:10427000FFF7E2F9E06CE062C0F13800A061E06AAB
:104280002969884200D92861064900EB800001EBCA
:104290008000211DFFF720FA0121084670BD0000B3
:1042A000280000203004002070B5C068C46854B1F4
:1042B00004F118000646FFF7BFF9144D286B50B102
:1042C0003146134815E0502080F31188BFF34F8F1B
:1042D000BFF36F8FFEE7201DFFF7AEF9E06A296993
:1042E000884200D928610B4900EB800001EB800077
:1042F000211DFFF7F1F9E06A2968C96A884202D9ED
:104300000120E86170BD002070BD00002800002081
:10431000B8080020300400202DE9F0472C4D00247F
:104320002746286B38B1FFF7E3F9286B401E286356
:10433000286B40B146E0502080F31188BFF34F8FC7
:10434000BFF36F8FFEE7A968224E0120D1B3A6F517
:10435000916980463068E0B1F068C46804F11800E3
:10436000FFF76AF9201DFFF767F9E06A29698842BB
:1043700000D9286100EB800109EB8100211DFFF7C6
:10438000ABF9E06A2968C96A8842E3D3C5F81C80A2
:10439000E0E70CB1FFF716F8AC694CB14FEA08063C
:1043A000FFF7DEFE00B1EE61641EF9D10020A861C6
:1043B000E86938B10849012738070860BFF34F8F13
:1043C000BFF36F8FFFF7B4F93846BDE8F087000000
:1043D00028000020B808002004ED00E010B586B0E9
:1043E000FEF772FD114C2068B8B1002003900490D4
:1043F00005AA04A903A8FFF73DF9DDE9032102207E
:104400008DE8070000230AA10B48059AFFF769FE13
:10441000606010B106B0012010BD502080F31188FB
:10442000BFF34F8FBFF36F8FFEE7000064000020E3
:10443000546D722053766300A13400082DE9FF41CA
:104440001E46134602000A9D4FF0000016D0144C81
:104450002768002F0FD0CDE900130292062917DA42
:10446000FFF76AFE02284FF000030FD000226946D2
:104470002068FFF723FC04B0BDE8F081502080F3F2
:104480001188BFF34F8FBFF36F8FFEE72A46EEE729
:104490000023324669463846FFF7C0FCEBE70000D0
:1044A000640000204FF04070E1EE100A70470000F9
:1044B0006845000800000000000000000000000047
:1044C00000000000000200001800000000000000D2
:1044D000000000006045000800000000000000002F
:1044E00000000000000000000002000018000000B2
:1044F00000000000000000007045000800000000FF
:1045000000000000000000000000000000020000A9
:1045100008000000000000000000000054450008F2
:10452000000000000000000000000000000000008B
:104530000000000000061016000610160000000023
:104540000000000001020304060708090000000043
:104550000102030446494E5175657565000000006F
:104560004144435461736B0046494E5461736B0080
:10457000417564696F5461736B0000009C450008CD
:1045800000000020A8000000C40100084446000804
:10459000A800002080520000E00100080000000098
:1045A000000000000000000000000000000000000B
:1045B00000000000010000001000000000000000EA
:1045C0000024F400000000000000000000000000D3
:1045D00000000000000000000000000000000000DB
:1045E00000000000000000000000000000000000CB
:1045F00000000000000000000000000000000000BB
:1046000000000000000000000000000000000000AA
:10461000000000000000000000000000000000009A
:10462000000000000000000000000000000000008A
:10463000000000000000000000000000AAAAAAAAD2
:044640000000000076
:040000050800018965
:00000001FF
