:020000040800F2
:1000000038080024AD020008951B00087719000885
:100010001D22100815030008EB2610080000000040
:10002000000000000000000000000000F91C0008B3
:10003000A5001008000000001F221008FB1C00088B
:10004000C7020008C7020008C7020008C70200086C
:10005000C7020008C7020008C7020008C70200085C
:10006000C7020008C7020008C7020008C70200084C
:10007000C7020008C7020008C7020008C70200083C
:10008000C7020008C7020008C7020008C70200082C
:10009000C7020008C7020008C7020008C70200081C
:1000A000C7020008E11D0008C702000871241008FB
:1000B0007D241008ED1D000889241008C7020008DF
:1000C000C7020008C7020008C7020008C7020008EC
:1000D000C702000835240008C7020008C70200084C
:1000E000C7020008C702000800000000C70200089D
:1000F000051E0008C7020008C7020008C702000862
:10010000C7020008C7020008C7020008C7020008AB
:10011000C5241008C7020008F91D0008952410081E
:10012000C7020008C7020008C7020008C70200088B
:10013000C7020008C7020008C7020008C70200087B
:1001400000000000000000000000000000000000AF
:10015000C7020008C7020008C7020008C70200085B
:10016000C7020008C7020008C7020008C70200084B
:10017000C7020008C7020008C7020008000000000C
:10018000C7020008C7020008C7020008C70200082B
:10019000C7020008C7020008C7020008C70200081B
:1001A000C7020008C7020008C7020008C70200080B
:1001B000C7020008C7020008C7020008C7020008FB
:1001C000C7020008C7020008C7020008C7020008EB
:1001D000C7020008C7020008C7020008C7020008DB
:1001E000C7020008C7020008C7020008C7020008CB
:1001F000C7020008C7020008C7020008C7020008BB
:10020000C7020008C7020008C7020008C7020008AA
:1002100065241008C7020008C7020008C7020008CA
:10022000C7020008C7020008C7020008000000005B
:10023000C7020008C702000800000000C70200084B
:10024000C7020008C7020008C7020008C70200086A
:10025000C7020008C7020008C7020008C70200085A
:10026000C7020008C7020008C7020008C70200084A
:10027000C7020008C7020008C7020008000000000B
:10028000C7020008C7020008C702000800000000FB
:1002900000000000C7020008DFF80CD000F028F8CA
:1002A00000480047492500083808002406488047D0
:1002B00006480047FEE7FEE7FEE7FEE7FEE7FEE74B
:1002C000FEE7FEE7FEE7FEE7892310089902000833
:1002D000202A04DB203A21FA02F00021704721FA9B
:1002E00002F3D040C2F12002914008431946704702
:1002F000064C074D06E0E06840F0010394E8070073
:1003000098471034AC42F6D3FFF7CAFF80270008A5
:10031000A0270008FEE7000006480122022110B5D0
:10032000FFF0E6FF01220448BDE81040D103FFF0D2
:10033000DFBF0000000C02580004025810B5064C44
:10034000012211462046FFF0D3FF01222046BDE8DE
:1003500010401102FFF0CCBF000C025872B6FEE74D
:100360002DE9F84F044600F0E1FA009034B194F81A
:100370003500022805D080206065EBE00120BDE853
:10038000F88FCC4ECB4FCB491836DFF82883303767
:10039000DFF82093DFF81CA308F14808DFF814B356
:1003A00009F1600920680AF1780A0BF1900B884284
:1003B0002ED0B0422CD0B8422AD0404528D0484553
:1003C00026D0504524D0584522D0BA4AA83290426F
:1003D0001ED0B94A90421BD0B74A1832904217D06B
:1003E000B54A3032904213D0B34A483290420FD0CF
:1003F000B14A603290420BD0AF4A7832904207D077
:10040000AD4A9032904203D0AB4AA832904209D113
:10041000026822F01E0202602068426922F0800217
:10042000426103E0026822F00E02026025688D42FC
:1004300028464DD0B0424BD0B84249D0404547D075
:10044000484545D0504543D0584541D0994AA832F7
:1004500090423DD0984A90423AD0974A1832904202
:1004600036D0954A3032904232D0934A4832904248
:100470002ED0914A603290422AD08F4A78329042F0
:1004800026D08D4A9032904222D08B4AA832904298
:100490001ED08A4A90421BD0884A1432904217D00C
:1004A000864A2832904213D0844A3C3290420FD080
:1004B000824A503290420BD0804A6432904207D038
:1004C0007E4A7832904203D07C4A8C32954204D1E5
:1004D000206E026822F480720260764920688842A9
:1004E00028D0B04226D0B84224D0404522D048453A
:1004F00020D050451ED058451CD06E49A8318842A6
:1005000018D06D49884215D06B491831884211D0F6
:100510006949303188420DD067494831884209D055
:1005200065496031884205D063497831884201D0FD
:1005300061499031016821F0010101600EE000F095
:10054000F5F90099401A052808D920206065032094
:1005500084F83500002084F834000FE72868C007CD
:10056000EDD1544A0121206890422ED0B0422CD0C7
:10057000B8422AD0404528D0484526D0504524D0FE
:10058000584522D04B4BA83398421ED04A4B984234
:100590001BD0494B1833984217D0474B3033984201
:1005A00013D0454B483398420FD0434B60339842A9
:1005B0000BD0414B7833984207D03F4B9033984251
:1005C00003D03D4BA833984208D194F85C30A06D1D
:1005D00003F01F053F23AB40836007E094F85C30D5
:1005E000A06D03F01F0301FA03F3436020689042FB
:1005F0004DD0B0424BD0B84249D0404547D0484595
:1006000045D0504543D0584541D02A4AA83290425F
:100610003DD0294A90423AD0274A1832904236D0EB
:10062000254A3032904232D0234A483290422ED06E
:10063000214A603290422AD01F4A7832904226D016
:100640001D4A9032904222D01B4AA83290421ED0BE
:100650001A4A90421BD0194A1432904217D0174AB6
:100660002832904213D0154A3C3290420FD0134AA0
:10067000503290420BD0114A6432904207D00F4A58
:100680007832904203D00D4A8C3290420BD1D4E99B
:1006900019024260E06E30B1026822F4807202609A
:1006A000D4E91C02426084F83510002084F834003C
:1006B00065E6000010000240100402400854025891
:1006C0002DE9F05F28B190F83510022904D080217F
:1006D00041650120BDE8F09F914A914B914D183240
:1006E000904E3033DFF838C21835DFF834E2483640
:1006F000DFF83092DFF82CA20EF1600EDFF824B2A2
:1007000009F1300901680AF1600A864C0BF1A80B67
:10071000614529D0914227D0994225D0804F483752
:10072000B94221D071451FD07D4F7837B9421BD0D7
:100730007B4F9037B94217D0794FA837B94213D0C1
:10074000A14211D0A9420FD049450DD0B1420BD0E2
:10075000514509D0734F7837B94205D0714F903762
:10076000B94201D059452FD1042780F83570614531
:1007700025D0914223D0994221D069484830814206
:100780001DD071451BD066487830814217D064482F
:100790009030814213D06248A83081420FD0A142EC
:1007A0000DD0A9420BD0494509D0B14207D05145DF
:1007B00005D05C487830814201D05A4890300868B2
:1007C00020F001000860A8E0D1F8008028F00E08B1
:1007D000C1F800800168E04641452BD0914229D004
:1007E000994227D0DFF838C10CF1480C614521D07F
:1007F00071451FD0DFF828C10CF1780C614519D084
:10080000DFF81CC10CF1900C614513D0DFF810C16A
:100810000CF1A80C61450DD0A1420BD0A94209D022
:10082000494507D0B14205D0514503D0DFF8F4C0A7
:100830000CF1780CD1F800C02CF0010CC1F800C00C
:1008400001684FF0010C414546D0914244D0994295
:1008500042D0334A483291423ED071453CD0304A72
:100860007832914238D02E4A9032914234D02C4A7C
:10087000A832914230D0A1422ED0A9422CD0494575
:100880002AD0B14228D0514526D0264A783291420A
:1008900022D0B94220D059451ED0234A91421BD0C4
:1008A000214A1432914217D01F4A2832914213D064
:1008B0001D4A3C3291420FD01B4A503291420BD01C
:1008C000194A6432914207D0174A7832914203D0D4
:1008D000154A8C32914218D1016E0A6822F4807256
:1008E0000A6090F85C20816D02F01F020CFA02F29F
:1008F0004A60D0E919124A60C16E31B10A6822F427
:1009000080720A60D0E91C124A6080F835C000216C
:1009100080F83410016D01B188470020DAE600004C
:100920001000024010040240085402580148806838
:10093000704700005C00002402488168027811447E
:10094000816070475C000024032010B5FFF042FD79
:1009500000F03CF90F4A11681268C1F303230E49F5
:10096000CB5C03F01F03D84002F00F02895C0B4AF6
:1009700001F01F0120FA01F11160094908600F2000
:1009800000F010F808B1012010BDFFF0E7FC0020D6
:1009900010BD000018440258702700086C000024A5
:1009A0006800002470B50D4D04462A78A2B14FF4BA
:1009B0007A700B49B0FBF2F00968B1FBF0F000F07F
:1009C00054FC48B9102C07D200222146501EFFF0DB
:1009D000E1FC00206C6070BD012070BD5C00002453
:1009E00068000024BFF35F8F0448016821F4803160
:1009F00001600249002070310860704724ED00E07A
:100A0000074940F00100086005487038016841F46A
:100A100080310160BFF34F8FBFF36F8F70470000CD
:100A200094ED00E000280DDB012100F01F02914051
:100A30004009800000F1E020C0F88011BFF34F8F23
:100A4000BFF36F8F7047000010B500F1A7FB054999
:100A50000968054AC1F30211515C01F01F01C84049
:100A600010BD00002044025870270008484910B506
:100A70000A68096802F00302454B1B1DC1F30551CA
:100A80001B68434C1C34C3F300232468C4F3CC0418
:100A900014FB03F300EE103AB8EE400AE9B33C4B06
:100AA0009FED3C1A1833F7EE000A62B1DFED3A1AF7
:100AB000012A01D0022A5ED002EE101AF8EE422A74
:100AC00081EEA22A1AE0324A283A1468A4060DD50B
:100AD0001268C2F3C104314AE24001EE902AF8EEF6
:100AE000612A01EE901AF8EE611A05E001EE901A03
:100AF000DFED2B2AF8EE611A82EEA12A1968C1F304
:100B0000080101EE901A1968F8EE611A40EE011A18
:100B100031EEA00A22EE000A00E033E0C1F34621E4
:100B200001EE101AB8EE411A31EE201AC0EE011A89
:100B3000BCEEE11A80ED001A1968C1F3064101EE1E
:100B4000101AB8EE411A31EE201AC0EE011ABCEEAE
:100B5000E11A80ED011A1968C1F3066101EE101A5D
:100B6000B8EE411A71EE200A80EE201ABCEEC10ADE
:100B700080ED020A10BD01EE901ADFED0A2AF8EEB0
:100B8000611AB9E7002101604160816010BD000079
:100B900028440258000000390024744A0090D00311
:100BA0000024744C20BCBE4B00B500F1F7FA054997
:100BB0000968054AC1F30211515C01F01F01C840E8
:100BC00000BD00001C44025870270008434830B59F
:100BD0000068444C10F03801414808D0021108293F
:100BE00003D010290BD018290BD0104630BD216836
:100BF0008906FBD52168C1F3C101C84030BD3A4820
:100C000030BD364918310A68096802F00302334BD7
:100C10001C33C1F305111B68304D03F0010324356B
:100C20002D68C5F3CC0515FB03F300EE103AB8EEC2
:100C3000400AE9B3294BDFED2D0A2033B7EE001A45
:100C400062B1DFED2B1A012A01D0022A3CD002EE5C
:100C5000101AF8EE422A81EEA22A17E022689206C4
:100C60000CD52268C2F3C102D04001EE900AF8EE22
:100C7000612A01EE901AF8EE611A05E001EE901A71
:100C8000DFED1C2AF8EE611A82EEA12A1868C0F383
:100C9000080001EE900A1868F8EE611A40EE201A7A
:100CA00031EE810A22EE000AC0F34620401C00E02B
:100CB00011E000EE900AF8EE600A80EE201ABCEE19
:100CC000C10A10EE100A30BD01EE901ADFED0A2ABB
:100CD000F8EE611AD8E7002030BD00001044025839
:100CE0000090D0030044025840787D010000003994
:100CF0000024744A0024744C20BCBE4B2DE9F05FE4
:100D0000040079D02078DFF8F8A3FE4EFE4DC0072E
:100D100047D0DAF80000316800F03800102815D00C
:100D2000182803D101F0030002280FD06068B0F545
:100D3000803F12D010B1B0F5A02F18D0286820F451
:100D400080302860286820F4802009E0286880032B
:100D500027D560680028D4D023E0286840F480308C
:100D60002860606888B1FFF7E1FD074609E0286860
:100D700040F480202860F0E7FFF7D8FDC01B64280E
:100D800072D828688003F7D50BE0FFF7CFFD074640
:100D900004E0FFF7CBFDC01B6428F1D8286880036E
:100DA000F7D4207841F20309D84F800766D5DAF8E6
:100DB0000000316810F038000ED0182801D18807E3
:100DC0000AD0E06880B3296821F019010143296045
:100DD000FFF7ACFD80462EE02868400702D5E068AA
:100DE00000288ED02868E16820F0190008432860A8
:100DF000FFF79CFD804606E0D8E0FFF797FDA0EBEB
:100E000008000228BCD828684007F6D5FFF076FA1B
:100E100048451AD82069402811D0396821F47C311E
:100E200041EA0030386029E016E0FFF77FFDA0EBD3
:100E300008000228A4D828684007F6D5E6E73868F5
:100E400020F47C3040F40030ECE73868217C20F05E
:100E5000FE4040EA0160E5E7286820F001002860D4
:100E6000FFF764FD804606E000E1FFF75FFDA0EBC1
:100E70000800022884D828684007F6D42078C006E5
:100E80005AD5DAF80000316800F03800DFF870B2A7
:100E90000828ABF1040B10D0182803D101F003008F
:100EA00001280AD0E0690028286836D040F0800088
:100EB0002860FFF73BFD804621E02868C00521D56A
:100EC000E069802872D11DE0206A20281FD039688F
:100ED00021F0F84141EA806038602DE0DBF8001035
:100EE00094F8202021F07C5141EA0261CBF80010F7
:100EF00022E0FFF71BFDA0EB080002289AD8286823
:100F0000C005F6D5FFF0FAF94845E7D8DCE73868C0
:100F100020F0F84040F08040DEE720F080002860BC
:100F2000FFF704FD074604E0FFF700FDC01B0228A1
:100F3000A0D82868C005F7D42078000728D57149C3
:100F400060694C31002888460846096810D041F095
:100F500001010160FFF7EAFC074604E0FFF7E6FC49
:100F6000C01B022886D8D8F800008007F6D50FE00D
:100F700021F001010160FFF7D9FC074604E0FFF70B
:100F8000D5FCC01B022871D8D8F800008007F6D421
:100F90002078800623D5A0690028286810D040F466
:100FA00080502860FFF7C2FC074605E038E1FFF7F4
:100FB000BDFCC01B022859D828688004F7D50EE074
:100FC00020F480502860FFF7B1FC074604E0FFF7EB
:100FD000ADFCC01B022849D828688004F7D42078CB
:100FE00040074DD5DFF82881D8F8001041F4807112
:100FF000C8F80010FFF79AFC074604E0FFF796FCDC
:10100000C01B642832D8D8F80000C005F6D53D4F83
:10101000A068483701280AD008B1052813D03868DD
:1010200020F001003860386820F0040002E03868E1
:1010300040F001003860A06841F2883990B1FFF7B4
:1010400075FC80460AE0386840F004003860EEE73E
:10105000FFF76CFCA0EB0801494507D8386880070A
:10106000F6D50DE0FFF762FC804606E083E0FFF76F
:101070005DFCA0EB080149457DD838688007F6D4AF
:10108000616AD9B3DAF800004FF6F87BDFF87480B4
:1010900008F10808C0F3C200032808F10409A8F108
:1010A000040A69D02868022920F08070286003D0E3
:1010B000FFF73CFC044688E0FFF738FC074604E0F5
:1010C000FFF734FCC01B02287CD828688001F7D4C5
:1010D000306840F2F3318843E16A40EA0110A16AC6
:1010E0000843306094F83400218E4002491EA0F578
:1010F000007080B2C1F3080108430BE0B3E00000C8
:10110000104402582844025800440258044402582B
:1011100000480258218F4FF4FE02491E02EA0141A5
:10112000084394F83C101202491E02EA0161084388
:10113000C8F80000DAF80010504621F00101CAF8A2
:101140000010D9F80020A36C22EA0B0242EAC30285
:10115000C9F80020DAF80010226C21F00C011143CC
:10116000CAF80010DAF80010626C21F00201114395
:101170000160016801E025E02BE041F4803101606D
:10118000016841F400310160016841F4802101608F
:10119000016841F001010160286840F0807028601A
:1011A000FFF7C4FB044604E0FFF7C0FB001B022866
:1011B00008D828688001F7D555E0FFF7B7FB001B7A
:1011C000022802D90320BDE8F09F28688001F4D4EA
:1011D00049E03268D8F80000012921D0A36A02F062
:1011E000030199421CD1E16AC2F30512914217D161
:1011F000216BC0F30802491E8A4211D1616BC0F312
:101200004622491E91420BD1A16BC0F30642491EF2
:10121000914205D1E16BC0F30660491E814201D0C5
:101220000120D0E7D9F800004F46A16CC0F3CC00F4
:10123000814218D0DAF80000564620F00100CAF8C2
:101240000000FFF773FB0546FFF770FBA842FBD0D9
:101250003868A16C20EA0B0040EAC10038603068B1
:1012600040F0010030600020ADE7401EB0F1807F0B
:1012700010B501D3012010BD4FF0E02460610F21B3
:10128000601701F14AFA0020A061072020610020C8
:1012900010BD7047F0B590F83C20012A3CD00125E4
:1012A00080F83C50022280F83D2003685A689C6810
:1012B0001A4E1B4FB34201D0BB4204D122F4700C32
:1012C0004A6842EA0C0222F0700C0A6842EA0C02F8
:1012D0005A600268B24213D0B2F1804F10D0114B65
:1012E0009A420DD0104B9A420AD0104B9A4207D026
:1012F000BA4205D00E4B9A4202D00E4B9A4204D10C
:10130000896824F080031943916080F83D500021E2
:1013100080F83C100846F0BD0220F0BD00000140FE
:10132000000401400004004000080040000C0040A0
:10133000001800400040014090F83D10012901D004
:1013400001207047022180F83D100168CA6842F010
:101350000102CA6000681349884214D0B0F1804F7E
:1013600011D0114988420ED0104988420BD0104943
:10137000884208D00F49884205D00F49884202D0E0
:101380000E49884207D181680D4A1140062906D0CE
:10139000B1F5803F03D0016841F0010101600020F8
:1013A00070470000000001400004004000080040B9
:1013B000000C0040000401400018004000400140C3
:1013C000070001000168CA6822F00102CA600168D2
:1013D0000A6A41F211131A4207D10A6A9B101A4293
:1013E00003D10A6822F001020A60012180F83D1051
:1013F0000020704710B5040003D094F83D0010B1F0
:1014000007E0012010BD002084F83C00204600F1D8
:101410004BFA022084F83D002068211D00F0F8FC02
:10142000012084F8480084F83E0084F83F0084F8E6
:10143000400084F8410084F8420084F8430084F8B6
:10144000440084F8450084F8460084F8470084F896
:101450003D00002010BD000030B50025044699B1C4
:10146000042914D0082915D00C2916D0102917D01A
:1014700094F84300B9B1042918D0082919D094F878
:10148000472001281AD117E094F83E00F2E794F8BB
:101490003F00EFE794F84000ECE794F84100E9E7FB
:1014A00094F84200E6E794F84420EAE794F84520EF
:1014B000E7E794F84620E4E7012A01D0012030BD97
:1014C0000220A1B1042917D008291AD00C291DD057
:1014D00010291ED084F8430084F84700E1B10429A4
:1014E0001FD008294DD00C2950D0012547E084F8A1
:1014F0003E0084F84400F1E784F83F0084F845009A
:10150000ECE784F8400084F84600E7E784F84100FF
:10151000E2E784F84200DFE72068C26842F0020296
:1015200003E02068C26842F00402C2602068012221
:1015300000F0D6FC18492068884214D0B0F1804FE2
:1015400011D0164988420ED0154988420BD0154952
:10155000884208D01449884205D01449884202D0F4
:101560001349884207D18168124A1140062906D0E2
:10157000B1F5803F03D0016841F0010101602846C8
:1015800030BD2068C26842F00802CEE72068C26819
:1015900042F01002C9E700000000014000040040D2
:1015A00000080040000C004000040140001800400A
:1015B000004001400700010070B50D0004464FF0E7
:1015C000000607D0042D0AD0082D30D00C2D33D0C2
:1015D00001262AE02068C16821F0020103E02068AA
:1015E000C16821F00401C16020680022294600F092
:1015F00077FC2068016A41F21112114207D1016A99
:101600009210114203D1016821F001010160012013
:10161000BDB1042D1AD0082D1DD00C2D20D0102DB9
:1016200021D084F8430084F84700304670BD20681C
:10163000C16821F00801D6E72068C16821F01001D7
:10164000D1E784F83E0084F84400EEE784F83F00D8
:1016500084F84500E9E784F8400084F84600E4E7B0
:1016600084F84100DFE784F84200DCE72DE9F0412F
:1016700004460068C66805694FF00007A90713D53E
:10168000B10711D5F91E016101202077206880691A
:101690008007204602D0FFF053FF04E000F08BF8F3
:1016A000204600F145F92777680716D5700714D54D
:1016B00021686FF0040008610220207720688069AB
:1016C00010F4407F204602D0FFF03AFF04E000F023
:1016D00072F8204600F12CF92777280715D5300736
:1016E00013D521686FF00800086104202077206876
:1016F000C0698007204602D0FFF022FF04E000F01E
:101700005AF8204600F114F92777E80616D5F006B6
:1017100014D521686FF01000086108202077206838
:10172000C06910F4407F204602D0FFF009FF04E0BA
:1017300000F041F8204600F1FBF82777E80708D0D1
:10174000F00706D021686FF001000861204600F123
:10175000F1F8280601D4A80408D5300606D521687A
:101760006FF4025008612046FFF793FDE80508D5A5
:10177000300606D521686FF4807008612046FFF0BE
:1017800041FD680608D5700606D521686FF0400057
:101790000861204600F010F8A8060AD5B00608D562
:1017A00021686FF0200008612046BDE8F041FFF09D
:1017B0002ABDBDE8F08170477047704770B5044698
:1017C00090F8840001281DD0012084F88400242092
:1017D000C4F8880020680568026822F001020260EF
:1017E0002068826822F060420A438260204600F04E
:1017F00007FC206805602020C4F88800002084F8D9
:10180000840070BD022070BD704710B5040003D085
:10181000D4F8880010B107E0012010BD002084F842
:101820008400204600F026F82420C4F888002068B0
:10183000016821F001010160A06A10B1204600F1A9
:1018400047FE204600F028FC0128E6D020684168C9
:1018500021F4904141602068816821F02A01816073
:101860002068016841F0010101602046BDE8104098
:1018700000F192BEF0B5B7B00446142130A8FEF0D6
:10188000F7FBC0216846FEF0F3FB364902262068CC
:101890000024354D354F88422ED100201E94022160
:1018A000CDE900106846FEF06DFE08B1FEF756FD6A
:1018B0002D480830016841F400210160006800F4FF
:1018C00000203590286840F001002860286830A981
:1018D00000F001003590032030900820CDE93164FC
:1018E000CDE933403846FEF015FC002206213420B5
:1018F000FEF050FD342031E01D49884230D10020F7
:101900001F940121CDE900106846FEF03BFE08B1AE
:10191000FEF724FD14481030016841F01001016009
:10192000006800F010003590286840F00100286041
:10193000286830A900F0010035904FF4C060309065
:101940000720CDE93164CDE933403846FEF0E2FBB3
:10195000002206212520FEF01DFD2520FEF00CFDB5
:1019600037B0F0BD004C0040E0440258000002587F
:10197000001001407047FEE730B50B4C00200B4BC8
:1019800004EBC001496853F820500A8854F830101D
:10199000098842EA01410D4343F82050401CC0B27F
:1019A0000428EDD330BD0000100000247000002496
:1019B00010B58CB02348002421490094019402946E
:1019C00003940494059406940794089409940A9443
:1019D00001601721C0E901144CF24F31C0E9031432
:1019E00080218161FFF010FC08B1FEF7B7FC4FF4D5
:1019F0008050009013486946FFF024FD08B1FEF7BF
:101A0000ADFC1048FFF7F6FC08B1FEF7A7FC0D4847
:101A100004A904940694FFF73DFC08B1FEF79EFC70
:101A20000120002207A9CDE90740064809940A943D
:101A3000FFF0A8FE002801D0FEF790FC0CB010BD0E
:101A4000000400404801002410B58CB02448002454
:101A500022490094019402940394049405940694FA
:101A60000794089409940A9401601721C0E90114AD
:101A70004CF24F31C0E9031480218161FFF0C4FBB7
:101A800008B1FEF76BFC4FF4805000901448694693
:101A9000FFF0D8FC08B1FEF761FC1148FFF7AAFC83
:101AA00008B1FEF75BFC0E4804A904940694FFF706
:101AB000F1FB08B1FEF752FC0220079001200A94C6
:101AC000CDE908040648002207A9FFF05BFE0028C4
:101AD00001D0FEF743FC0CB010BD00000008004030
:101AE000940100243EB5104800240E49009401944E
:101AF00002940160EF21C0E9011440F2E731C160B6
:101B000080218161FFF080FB08B1FEF727FC0648C9
:101B1000694600940294FFF7BDFB002801D0FEF750
:101B20001DFC3EBD001400402C02002418480C226D
:101B3000164910B501604FF4E13141600021816028
:101B4000C160C0E904128161C161016241628162C8
:101B5000FFF75BFE08B1FEF701FC0D480021FFF71F
:101B60002DFE08B1FEF7FAFB09480021FFF08BFFBC
:101B700008B1FEF7F3FB0648FFF065FF002803D02D
:101B8000BDE81040FEF7EABB10BD000000100140A8
:101B9000A4030024FEE70000401E00F00F002DE922
:101BA000F041C0F10F000E4F00F00106C208C0F373
:101BB0008005C0F3400438462021FEF099FB102137
:101BC0002A463846FEF094FB082122463846FEF0AD
:101BD0008FFB32463846BDE8F0410421FEF088BB59
:101BE000000C02582DE9F047DFF8088104460E4644
:101BF0004FF00009D8F80000C043800709D03D4DE0
:101C0000283D286820F080602860FEF78FFE074698
:101C100007E00120BDE8F087FEF788FEC01B022820
:101C200060D828680001F7D4D8F80010226821F4A1
:101C30007C3141EA0231C8F80010207A4FF4FE02EC
:101C4000A1884002491EA0F5007080B2C1F30801CE
:101C50000843A189491E02EA01410843217C12027E
:101C6000491E02EA016108432249103108602148F7
:101C7000001D0168626921F0C00111430160016823
:101C8000A26921F0200111430160016821F01001D7
:101C90000160184914310A684FF6F8739A43E369F2
:101CA00042EAC3020A60016841F0100101606EB1AE
:101CB0000168012E0ED041F400110160286840F047
:101CC00080602860FEF732FE04460DE0016841F4B2
:101CD0000021F2E741F48011EFE7FEF727FE001B39
:101CE000022801D9032095E728680001F5D5484668
:101CF00090E70000284402587047FEF71DBE000020
:101D000030B59DB04C216846FEF0B2F9202113A8F1
:101D1000FEF0AEF90220FEF06FFB2E4A00241068A0
:101D200020F00100106010682B48016841F4404128
:101D30000160016801F440411B910168C9438904B5
:101D4000FBD426490B6843F002030B60096801F0DD
:101D500002011B91016841F4404101600168116872
:101D600041F001011160116801F001011B9101684E
:101D7000C9438904FBD4012000900521000401908F
:101D800002200990CDE90A01C0210E90CDE90C1086
:101D900008250F90CDE9105468461294FEF7AEFF67
:101DA00008B172B6FEE714A93F201390032081E822
:101DB0003100402017901A900101CDE9180104214B
:101DC00013A8FFF0B3F8002801D072B6FEE71DB0EB
:101DD00030BD00002C04005818480258F444025842
:101DE0000148FFF743BC0000B00000240148FFF7A2
:101DF0003DBC0000480100240148FFF737BC00004B
:101E0000E00100240148FFF731BC00007802002403
:101E10002DE9F04702684FF0804A294C294D2A4E9F
:101E2000A0422A4F2A4B09D0504507D0A84205D0DE
:101E3000B04203D0B84201D0984204D122F0700CD5
:101E40004A6842EA0C02DFF88CC0DFF88C80A042BE
:101E5000DFF888900FD050450DD0A8420BD0B0428B
:101E600009D0B84207D0984205D0604503D040451C
:101E700001D0484503D122F44075CA682A434D6910
:101E800022F080022A4302608A68C2620A68826283
:101E9000A04207D0984205D0604503D0404501D00C
:101EA000484501D109690163012141610169C907FF
:101EB00003D0016921F001010161BDE8F087000054
:101EC000000001400004004000080040000C0040F9
:101ED000000401400040014000440140004801402E
:101EE000012301F01F0110B5046A8B409C4304627A
:101EF000036A8A401343036210BD10B5846842EA46
:101F000003220A4324F47F442243826010BD000070
:101F10008268034B1A400A4342F007018160704710
:101F20008FFFCFFF70B5056A046A24F001040462D4
:101F30008469154EB04214D0B0F1804F11D0134EC9
:101F4000B0420ED0124EB0420BD0124EB04208D06A
:101F5000114EB04205D0114EB04202D0104EB042E8
:101F600003D124F00304144301E044F001041A07F0
:101F700024F0F00425F00A0301F00A01194344EAB1
:101F800012628261016270BD0000014000040040E5
:101F900000080040000C0040000401400018004010
:101FA0000040014010B5036A046A24F01004046282
:101FB000846923F0A00343EA011124F4704444EA45
:101FC00002328261016210BD30B5046A056A25F0F3
:101FD00010050562856925F4407545EA022222F460
:101FE00070454FF6FF7202EA033224F0A003A024EA
:101FF0002A43826104EA01111943016230BD0000E5
:1020000030B5416EB9B1026891689268C1F342611E
:102010000B4C520FA35C1D0104F108039A5CB5FB45
:10202000F2F2A0F86A20625C595C1201B2FBF1F195
:10203000A0F8681030BD0121A0F86A10F8E7000090
:102040005227100810B5016851E8002F22F4907251
:1020500041E80023002BF6D10E4B0168083151E80E
:10206000002F1A4041E80024002CF6D1C16E01294E
:1020700008D1016851E8002F22F0100241E8002346
:10208000002BF6D12021C0F88C100021C1664167D9
:1020900010BD0000FEFFFFEF2DE9F043044600688D
:1020A0000025DFF8548387B02269A168E3691143F2
:1020B00062691A4311430268D04B1A400A43026016
:1020C00020684168E26821F4405111434160216871
:1020D000A069414501D0226A10438A68C84B1A4062
:1020E00002438A602068C16A626A21F00F011143CD
:1020F000C162C4492268C4488A420ED1006800F017
:102100003800182873D047DCB8B3082879D01028D5
:102110006FD178E028287ED17BE0BC498A4209D182
:10212000006800F00700062875D2DFE800F0546A66
:102130006C6E7072B6498A4209D1006800F00700DF
:10214000062868D2DFE800F0475D5F616365B1494A
:102150008A4209D1006800F0070006285BD2DFE858
:1021600000F03A5052545658AB498A420BD100689D
:1021700000F0070006284ED200E010E0DFE800F093
:102180002B4143454749A5498A420AD1006800F0DE
:102190003800182839D0B7DD2028BBD137E001211D
:1021A0003AE09F498A4209D1006800F007000628FA
:1021B00031D2DFE800F01026282A2C2E99498A42D5
:1021C0000BD1006800F00700062824D2DFE800F0F9
:1021D00003191B1D1F2100211EE042451BD18A4807
:1021E000001D006800F00700062814D202E00CE091
:1021F00007E010E0DFE800F0030507090B0D0221FE
:102200000AE0042108E0082106E0102104E0202172
:1022100002E0402100E0802183487B4B4FF4004CDA
:10222000824E4FF000090711543B42454DD1102911
:1022300019D006DC022909D004290AD008297DD149
:102240000CE020293DD0402978D13CE0FEF7FCFB92
:1022500010E06846FEF0F8F801980BE003A8FEF7DE
:1022600005FC049806E01968890605D51968C1F3CC
:10227000C101C840002823D0616A36F81120666881
:10228000B0FBF2F106EB46038B4257D8B1EB063FA9
:1022900054D800234F461946FDF0B2FE090202024F
:1022A00041EA106170081018324679410023FDF0B0
:1022B000A7FE5F4AA0F5407191423FD82168C860EF
:1022C00086E03846D8E76046D6E7E2694FF6EF7811
:1022D000624545D1082918D005DC59B101290CD037
:1022E000042974D10CE0102914D0202934D04029BD
:1022F0006DD133E0FEF758FC13E0FEF071FF10E003
:102300006846FEF0A1F801980BE003A8FEF7AEFBCB
:10231000049806E01968890604D51968C1F3C1015B
:10232000C84080B3616A36F81110B0FBF1F041008B
:10233000606801EB5001B1FBF0F000E047E0A0F174
:102340001002424543D84FF6F0710140C0F34200FD
:1023500001432068C1603BE03846E3E76046E1E7BF
:10236000082919D005DC59B101290DD004292ED135
:102370000DE0102915D0202937D0402927D136E08B
:10238000FEF712FC14E023E0FEF02AFF10E068469E
:10239000FEF05AF801980BE003A8FEF767FB0498DB
:1023A00006E01968890604D51968C1F3C101C8405F
:1023B00070B1616A36F81110B0FBF1F1606801EBA1
:1023C0005001B1FBF0F0A0F11001414511D90125F8
:1023D0000120A4F86A00A4F868002846C4F87490A4
:1023E000C4F8789007B0BDE8F0833846E1E760466E
:1023F000DFE780B262E70000000C0058F369FFCF0E
:10240000FFF4FF1100100140544402580044004002
:1024100000480040004C00400050004000140140C3
:1024200000780040007C00400090D0033A2710085C
:10243000FFFC0F000148FFF04FBB0000A403002485
:1024400031482DE9F84300788DF800002F480078D6
:102450008DF801002E4800788DF802002D48007894
:102460008DF8030000202C4B2C4D03EBC001496874
:102470000A8853F83010098842EA014145F82010D3
:10248000401CC0B20428F0D3244F0024203F07F1A1
:10249000300807F1100655F8242057F8241011EAE7
:1024A0000200A2EB010146F8240048F8241025D0D0
:1024B000002923DD4FF055324FF0333102EA50024C
:1024C000801A00F0333201EA9000134910440839B1
:1024D00000EB101000F00F3000EB102000EB10406C
:1024E00000F03F00012821F8140007D10C48012218
:1024F0000221FDF0FDFE0B48FEF71EFF641CE4B256
:10250000042CC8D3BDE8F8834B0000244900002404
:102510004A0000244C0000241000002490000024F5
:10252000000402582C02002402E008C8121F08C14F
:10253000002AFAD170477047002001E001C1121F44
:10254000002AFBD1704700001FB5002500950195BA
:1025500002950395FEF746FA4FF0010A8DF80CA09C
:102560001F218DF8081087218DF809108DF80DA016
:1025700068468DF800A08DF80A508DF80E508DF841
:10258000015001958DF80B508DF80F50FDF0BCFEF9
:102590000420FEF735FAFEF7D7F9FFF7B1FBFFF09D
:1025A0005DFCFFF097FDFFF703FAFFF74DFAFFF030
:1025B00007FDFFF053FDFFF0FDFDFFF0D7FDFFF736
:1025C000B5FAFFF78FFAFFF0E1FC5748FEF7B4FECB
:1025D000DFF85891DFF858B1564F574E574CDFF897
:1025E00060812078A0B1032825D00528F9D198F87A
:1025F00000000128F5D19BF8000030B130780128A7
:1026000067D072B6FFF71CFF62B688F800505EE034
:102610004C4984F800A00868026A22F42042026251
:102620000868026A22F4204202620868016A0162B4
:102630000C21444848E04448D0E90001814204D2DA
:10264000081A4CF25031014400E0091AC9F8001090
:10265000A1F1190017283AD83C4805703C4805708C
:102660003C4805703C48057000203349B560F56072
:1026700010318BF800A051F82020401CC0B208286F
:102680001580F8D37068401C7060052020701E20F3
:10269000FDF072FE1D20FDF06FFE1C20FDF06CFEB3
:1026A0007420FDF069FE2D48FEF746FE2C480021FF
:1026B000FEF7D2FE2B480421FEF7CEFE2A48002169
:1026C000FEF7CAFE29480C21FEF7C6FE89E72570F1
:1026D00087E73D6002207D60BD60FD60FDF008FD84
:1026E0007078002891D0FFF747F97278012A11D14C
:1026F000002005E020B107EB800151F8041C61B116
:1027000057F82010C94347F82010401CC0B20428D5
:10271000F0D33570521E727077E757F82010C94316
:1027200021F00301EFE700002C02002458000024F0
:102730004E00002470000024000000244200002409
:102740004F000024B0000024500000244900002461
:102750004A0000244B0000244C000024E001002427
:1027600094010024C402002448010024FC00002439
:102770000000000001020304010203040607080927
:10278000A027000800000024700000002825000891
:102790001028000870000024C80700003825000831
:1027A0000104000000000000000000000000000024
:1027B00034000024360000243000002432000024BD
:1027C0003C0000243E000024380000243A0000248D
:1027D00000000000000000000000000000000000F9
:1027E00000000000000000000000000000010100E7
:1027F00000000000000000000000000001000000D8
:1028000010000000000000000090D0030090D003F2
:020000040810E2
:100000002DE9F05F0546002092469B46884606464D
:10001000814640241BE0284641464746224600F7D9
:1000200057F953465A46C01A914110D31146184603
:10003000224600F028F82D1A67EB01084F462246A9
:100040000120002100F01FF817EB00094E41201E8F
:10005000A4F10104DFDC484631462A464346BDE8A8
:10006000F09FD2B201E000F8012B491EFBD270478D
:100070000022F6E710B513460A4604461946FFF774
:10008000F0FF204610BD202A04DB203A00FA02F1DE
:10009000002070479140C2F1200320FA03F3194376
:1000A000904070477047000006480022022110B5BA
:1000B00000F01EF9BDE81040034800224FF4004153
:1000C00000F016B9000C02580004025810B5074C95
:1000D00000220121204600F00BF92046BDE8104027
:1000E00000224FF4807100F003B90000000C0258A8
:1000F00070B5044600F71AFC0546601C02D004489F
:100100000078044400F712FC401BA042FAD370BDF3
:100110005C0000242DE9F84F694C00224FF0B04AF2
:100120004FF0010B4FF003084FF00F09C0E00BFA3E
:1001300002F6334073D00D7905F00305012D01D08F
:10014000022D15D18768550008FA05FC27EA0C072F
:10015000D1F80CC00CFA05FC4CEA070CC0F808C03A
:100160004568B5430E79C6F3001696402E434660A7
:100170000D79ED43AD0708D0C668550008FA05F7BC
:10018000BE438F68AF403743C7600D7905F0030564
:10019000022D11D1D50800EB85073E6A5507ED0EFB
:1001A00009FA05FC26EA0C06D1F810C00CFA05FC89
:1001B0004CEA060CC7F820C00668550008FA05F797
:1001C000BE430F7907F00307AF40374307604D6820
:1001D00015F4403F6BD03B4D2E6846F002062E6072
:1001E0002D6822F0030606F1B04605F002050095E1
:1001F000D6F8087495074FEA157C09FA0CF5AF4359
:10020000314DA84201D100252EE0304DA84201D148
:10021000012529E02E4DA84202D1022524E046E026
:100220002C4DA84201D103251EE02B4DA84201D13F
:10023000042519E0294DA84201D1052514E0284DD7
:10024000A84201D106250FE0264DA84201D107257D
:100250000AE0254DA84201D1082505E0234DA8421A
:1002600001D1092500E00A2505FA0CF53D43C6F841
:100270000854DAF8005056464F689D43FF0200D5F7
:100280001D43356075684F689D43BF0200D51D430F
:10029000756065684E689D43B60300D51D43656073
:1002A00025684E689D43F60300D51D432560521C0A
:1002B0000B6833FA02F57FF43AAFBDE8F88F00001F
:1002C00080000058F444025800000258000402580C
:1002D00000080258000C025800100258001402587E
:1002E00000180258001C025800200258002402582E
:1002F0000AB1816170470904FBE70000014800680A
:10030000000C70470010005C134A417811601249DC
:1003100008310A6822F001020A600B1F42681A6065
:10032000027BC37A120742EA0362837A42EAC3423B
:10033000437B42EA8342837B42EA4342C37B42EAF5
:100340000342437A42EA0322037A007842EA4302F4
:1003500002430A607047000098ED00E0054808B5C8
:10036000016841F002010160006800F002000090A5
:1003700008BD0000F4440258002809DB012100F008
:100380001F0291404009800000F1E020C0F80011F8
:10039000704700000E4BF0B41B68C3F30223C3F197
:1003A0000704042C00D904241D1D072D01D20023AD
:1003B00000E0DB1E012606FA04F56D1E0D409D408F
:1003C0009E40761E164045EA0601F0BC02F0A5B933
:1003D0000CED00E0064A00F0070110684FF6FF033D
:1003E000184040EA012003490843106070470000AC
:1003F0000CED00E00000FA05124970B50A68D2431E
:10040000520705D5096801F00701814212D117E0B2
:100410000A6822F0070202430A6000F787FA094DD2
:100420004FF47A760446083D06E000F77FFA001B99
:10043000B04201D9012070BD2868C0438004F4D4C3
:10044000002070BD0C480258484910B50A68096878
:1004500002F00302454B1B1DC1F305311B68434CE1
:100460001434C3F300132468C4F3CC0414FB03F363
:1004700000EE103AB8EE400AE9B33C4B9FED3C1A4F
:100480001033F7EE000A62B1DFED3A1A012A01D00B
:10049000022A5ED002EE101AF8EE422A81EEA22A5B
:1004A0001AE0324A283A1468A4060DD51268C2F33D
:1004B000C104314AE24001EE902AF8EE612A01EED1
:1004C000901AF8EE611A05E001EE901ADFED2B2A82
:1004D000F8EE611A82EEA12A1968C1F3080101EE53
:1004E000901A1968F8EE611A40EE011A31EEA00A6E
:1004F00022EE000A00E033E0C1F3462101EE101ABB
:10050000B8EE411A31EE201AC0EE011ABCEEE11A23
:1005100080ED001A1968C1F3064101EE101AB8EE19
:10052000411A31EE201AC0EE011ABCEEE11A80ED3C
:10053000011A1968C1F3066101EE101AB8EE411AEA
:1005400071EE200A80EE201ABCEEC10A80ED020A8C
:1005500010BD01EE901ADFED0A2AF8EE611AB9E734
:10056000002101604160816010BD000028440258F4
:10057000000000390024744A0090D0030024744C19
:1005800020BCBE4B2DE9FC5F044600680025FA4FF5
:10059000C043DFF8E8832E46010104F10800019012
:1005A00004F1280000901DD4A06E50B1B0F5801F5A
:1005B0000CD0B0F5001F0ED0B0F5401F1ED00125A5
:1005C0000FE0386840F40030386017E001980221ED
:1005D00001F708FB03E00098022101F04BFE050043
:1005E0000CD02E462088C043C00523D4A06D05281A
:1005F0001ED2DFE800F00C11161B1B00D8F800100B
:10060000A26E21F440111143C8F80010EAE73868DF
:1006100040F40030386009E00198002101F7E2FA67
:1006200003E00098002101F025FE054675B100E0C9
:1006300001252E462088C043800528D4E06D8028FF
:100640001ED00CDC90B140280ED114E0D8F8001078
:10065000A26D21F007011143C8F80010EAE7C02895
:1006600013D0B0F5807F10D001250FE0386840F43A
:100670000030386009E00198002101F7B3FA03E087
:100680000098002101F0F6FD05468DB12E46208828
:10069000DFF8EC92C04340052CD4D4F8A800B0F5A4
:1006A000800F20D00DDCA0B1B0F5001F0FD115E0F8
:1006B000D8F80010E26D21F4E0711143C8F8001081
:1006C000E5E7B0F5C00F13D0B0F5000F10D001254D
:1006D0000FE0386840F40030386009E001980021EC
:1006E00001F780FA03E00098002101F0C3FD054600
:1006F0007DB12E462088C04300052DD4D4F8AC002F
:10070000B0F1007F21D00EDCA8B1B0F1807F10D114
:1007100016E0D9F80010D4F8A82021F460011143A4
:10072000C9F80010E6E7B0F1407F13D0B0F1806F58
:1007300010D001250FE0386840F40030386009E03F
:100740000198002101F74EFA03E00098002101F022
:1007500091FD054675B12E462068C04380011FD427
:10076000E06CD8B110280FD0202812D0302815D036
:10077000012514E0D9F80010D4F8AC2021F0E06194
:100780001143C9F80010E7E7386840F400303860DA
:1007900004E00198022101F725FA054675B12E46BD
:1007A0002088C043C0042BD4206EB0F5005F20D059
:1007B0000DDCA0B1B0F5805F0FD115E06F48001FD0
:1007C0000168E26C21F0300111430160E8E7B0F507
:1007D000405F13D0B0F5804F10D001250FE038688E
:1007E00040F40030386009E00198002101F7FAF97F
:1007F00003E00098002101F03DFD05468DB12E4635
:100800002088C043800429D4606EB0F5403F23D0D7
:1008100010DC08B3B0F5803F14D0B0F5003F0FD125
:1008200015E0D8F80010226E21F4E0411143C8F819
:100830000010E5E7B0F5802F0ED0B0F5A02F0BD05B
:1008400001250AE00198012101F7CCF903E00098A5
:10085000012101F00FFD054695B12E462088C043C9
:1008600040042AD4D4F8B000B0F1405F23D010DCAB
:1008700008B3B0F1805F14D0B0F1005F0FD115E084
:10088000D8F80010626E21F4E0211143C8F800107E
:10089000E4E7B0F1804F0ED0B0F1A04F0BD00125AE
:1008A0000AE00198012101F79DF903E00098012178
:1008B00001F0E0FC054675B12E462088C0430004D7
:1008C0001FD4206FD8B1B0F1805F0ED0B0F1005FBF
:1008D00010D0012514E0D9F80010D4F8B02021F090
:1008E000E0411143C9F80010E7E7386840F40030F0
:1008F000386004E00198012101F774F9054675B1EB
:100900002E462068C043C0011ED4A06CD0B101287F
:100910000ED0022811D0032814D0012513E0D8F8F6
:100920000010226F21F040511143C8F80010E8E791
:10093000386840F40030386004E00198022101F783
:1009400051F905467DB12E462068DFF838B0C04326
:10095000400256D40C48016841F480710160FFF6F2
:10096000E5FF824618E00548001F0168A26C21F0EF
:10097000030111430160E7E72C4402585044025838
:10098000584402581044025800480258FFF6CEFF5F
:10099000A0EB0A0064282CD8FE480068C005F5D5F5
:1009A00045BBFD480068B4F8B41000F4407001F491
:1009B000407188420CD0F8480168026821F4407107
:1009C00042F480320260026822F4803202600160E8
:1009D000D4F8B400B0F5807F1AD1FFF6A7FF8246A5
:1009E00009E0FFF6A3FFA0EB0A0141F28830814243
:1009F00001D9032504E0E84800688007F1D53DB13E
:100A00002E462078DFF894A3C043C00720D03BE0F7
:100A1000D4F8B400C0F3012103290ED0DBF8001094
:100A200021F47C51CBF80010DB480168B4F8B42005
:100A3000C2F30B0211430160E3E7DBF80020D84B5F
:100A400022F47C5203EA10100243CBF80020EBE7BB
:100A5000E06F182816D005DCA0B1082808D01028AF
:100A600004D10AE020280DD028280BD001250AE067
:100A70000198012101F7B6F803E00098012101F087
:100A8000F9FB054665B12E462078C04380071ED489
:100A9000A06F062819D2DFE800F0160C1116161602
:100AA000DAF80010E26F21F038011143CAF80010A3
:100AB000EAE70198012101F795F803E00098012188
:100AC00001F0D8FB05467DB100E001252E462078D7
:100AD000C04340071FD4D4F89400062819D2DFE899
:100AE00000F0160C11161616DAF80010A26F21F09D
:100AF00007011143CAF80010E9E70198012101F745
:100B000071F803E00098012101F0B4FB0546A5B19E
:100B100000E001252E462078C04380062BD4D4F86F
:100B20009000B0F1405F24D011DC10B3B0F1805FD1
:100B300015D0B0F1005F10D116E0D9F80010D4F84C
:100B4000942021F007011143C9F80010E3E7B0F148
:100B5000804F0ED0B0F1A04F0BD001250AE00198D4
:100B6000002101F73FF803E00098022101F082FB29
:100B7000054695B12E462078C04340062BD4D4F8C4
:100B80009C00B0F5406F24D011DC10B3B0F5806F3D
:100B900015D0B0F5006F10D116E0DAF80010D4F8D7
:100BA000902021F0E0411143CAF80010E3E7B0F5CE
:100BB000805F0ED0B0F5A05F0BD001250AE0019850
:100BC000002101F70FF803E00098022101F052FB29
:100BD000054695B12E462078C04300062BD4D4F8A4
:100BE000A000B0F5C04F24D011DC10B3B0F5005F09
:100BF00015D0B0F5804F10D116E0D9F80010D4F818
:100C00009C2021F4E0511143C9F80010E3E7B0F54E
:100C1000004F0ED0B0F5204F0BD001250AE001980F
:100C2000002100F7DFFF03E00098022101F022FB22
:100C3000054655B12E462078C04300071ED4D4F88F
:100C40008400B0F5805F0AD00FE0D9F80010D4F826
:100C5000A02021F460411143C9F80010EBE700988F
:100C6000022101F007FB00B10126DAF80010D4F8E8
:100C7000842021F440511143CAF800102078C04369
:100C8000C00613D4D4F89800B0F5807F05D1009841
:100C9000022101F0EFFA00B10126D9F80010D4F8D2
:100CA000982021F440711143C9F800102068C04316
:100CB000000316D4D4F8A40038B1B0F5803F09D0B1
:100CC000B0F5003F0BD001250AE00198002100F7A4
:100CD00089FF03E00098022101F0CCFA05468DB1AE
:100CE0002E462068C043400322D4D4F88800B0F5D3
:100CF000801F11D0B0F5001F13D0B0F5401F15D0E4
:100D0000012514E0D9F80010D4F8A42021F44031D2
:100D10001143C9F80010E4E7386840F40030386047
:100D200004E00098012101F0A5FA05465DB12E46C8
:100D30002068C043C0031CD4206D70B1B0F5803F63
:100D400010D0012514E0DAF80010D4F8882021F43E
:100D500040111143CAF80010EAE7386840F4003047
:100D6000386004E00198022100F73CFF05462DB3EE
:100D70002E462068C043800005D40098022101F06F
:100D800079FA00B101262068C043800324D4D4F846
:100D9000800007E00048025870440258544402584A
:100DA000CFFFFF00B0B1B0F5807F0FD0B0F5007F6E
:100DB00010D0B0F5407F0DD001250CE05A480168F5
:100DC000226D21F4803111430160D2E7386840F48C
:100DD00000303860F5B32E462068C043C00207D407
:100DE000D8F80010626F21F000411143C8F80010DC
:100DF0002068C043C00008D4DBF80010D4F8B82045
:100E000021F480411143CBF800102068C0438002D8
:100E100007D4D8F80010E26E21F080711143C8F8B1
:100E200000102068C04340000CD4DBF8001021F40F
:100E30000041CBF80010DBF80010D4F8BC201143BF
:100E4000CBF800102068C04308D43748016821F06F
:100E5000405100E017E0626D114301602068C0431B
:100E6000000208D4DAF80010D4F88C2021F44001F4
:100E70001143CAF8001020790025C04300F001009A
:100E800028430AD00FE0DAF80010D4F8802021F4CB
:100E900040711143CAF800109EE70198002100F745
:100EA000A1FE00B106462079C04300F002002843AD
:100EB00005D10198012100F795FE00B10646207981
:100EC000C04300F00400284305D10198022100F737
:100ED00089FE00B106462079C04300F0080028438F
:100EE00005D10098002101F0C5F900B1064620792E
:100EF000C04300F01000284305D10098012101F003
:100F0000B9F900B106462079C04300F0200005433E
:100F100004D10098022101F0ADF900B916B1012009
:100F2000BDE8FC9F0020FBE74C4402582DE9F05F30
:100F300004000D467ED0DFF84492D9F8000000F09E
:100F40000F00A8420CD2D9F8001021F00F0129435C
:100F5000C9F80010D9F8000000F00F00A84269D1CC
:100F60002078874E40070AD52069316801F070016A
:100F7000884204D9316821F0700101433160207842
:100F8000DFF8008200070CD560694146D8F80020E0
:100F900002F07002904204D90A6822F07002024303
:100FA0000A602078C0060CD5A0694146D8F8002018
:100FB00002F4E062904204D90A6822F4E06202433B
:100FC0000A602078DFF8C0B180060CD5E069594688
:100FD000DBF8002002F07002904204D90A6822F087
:100FE000700202430A60207880070AD5E068316801
:100FF00001F00F01884204D9316821F00F0101434B
:1010000031602078C0073DD03068A16820F470605E
:10101000084330605A4960681839022818D00328FC
:1010200019D00968012819D04907002949DADFF8E1
:1010300050A100E045E0AAF1080ADAF8001021F01A
:1010400007010143CAF80010FFF670FC074611E0E3
:1010500009688903E9E709688901E6E7C905E4E762
:10106000FFF664FCC11B41F28830814202D90320A3
:10107000BDE8F09FDAF80000616800F03800B0EBDE
:10108000C10FEDD1207880070AD5E068316801F002
:101090000F01884204D2316821F00F010143316011
:1010A000D9F80010484601F00F01A9420BD9016898
:1010B00021F00F0129430160006800F00F00A842F1
:1010C00001D00120D4E7207840070AD52069316893
:1010D00001F07001884204D2316821F070010143AF
:1010E0003160207800070CD560694146D8F80020AF
:1010F00002F07002904204D20A6822F070020243A9
:101100000A602078C0060CD5A0694246D8F80010C5
:1011100001F4E061884204D2116821F4E0610143E6
:101120001160207880060CD5E0695946DBF8002074
:1011300002F07002904204D20A6822F07002024368
:101140000A60FFF643FD3168C1F303220F498A5C50
:1011500002F01F02D040326802F00F02895C0C4A94
:1011600001F01F0120FA01F111600A4908600A48E4
:101170000068BDE8F05FFFF615BC000000200052DB
:10118000184402581C440258204402587027000892
:101190006C000024680000246000002400B5FFF605
:1011A00015FD0B4A11681268C1F303230949CB5C92
:1011B00003F01F03D84002F00F02895C064A01F0D9
:1011C0001F0120FA01F11160044A1060084600BDB9
:1011D00018440258702700086C000024680000249E
:1011E00000B5FFF7DBFF05490968054AC1F3022195
:1011F000515C01F01F01C84000BD00001C440258B2
:10120000702700087047704710B5040003D094F8A9
:101210003D0010B107E0012010BD002084F83C0023
:10122000204600F023F8022084F83D002068211DAC
:1012300000F7EEFD012084F8480084F83E0084F8B1
:101240003F0084F8400084F8410084F8420084F8AC
:10125000430084F8440084F8450084F8460084F88C
:10126000470084F83D00002010BD0000F0B587B0B5
:10127000044614216846FEF7FBFE684B00252168F2
:101280000224664A083B6648B1F1804F26D0654F7C
:101290004026B94243D1106840F002001060106847
:1012A00000F002000590186840F00400186018680B
:1012B0006946009600F00400CDE901450394CDE9AC
:1012C00004405948FEF726FF002206211D20FFF7A3
:1012D00061F81D20FFF750F807B0F0BD116841F02C
:1012E00001011160116801F001010591196841F0D7
:1012F00002011960196801F0020105914FF40061C3
:101300008DE832000121CDE903416946FEF702FF75
:10131000002208211C20FFF73DF81C20DAE7434F8C
:10132000B9421ED1116841F004011160116801F049
:1013300004010591196841F00201196019680096CD
:1013400001F00201CDE901450394CDE9044169466C
:10135000FEF7E0FE002208211E20FFF71BF81E20EA
:10136000B8E7334881420ED1106840F01000106099
:1013700010680022114600F0100005903620FFF79B
:1013800009F83620A6E72B4881420ED1106840F0BC
:101390002000106010680022082100F02000059055
:1013A0003720FEF7F7FF372094E7234881420ED11C
:1013B000106840F08000106010680022062100F0E4
:1013C000800005902C20FEF7E5FF2C2082E71B48CB
:1013D000814281D111480830016841F480310160B7
:1013E000006800F480300590186840F01000186024
:1013F00018686946009600F0100005900420CDE9B9
:101400000145CDE903400E48FEF784FE0022082185
:101410007420FEF7BFFF74205CE70000E844025828
:101420000004025800040040000802580008004070
:101430000010004000140040001C0040004001402B
:101440000010025870B5044690F83C0000250128B1
:1014500015D0012684F83C60022084F83D00206805
:101460008268364B1A4022F47F42826008687028F6
:1014700002462FD010DC10F00F0F03D022E04FF007
:10148000020070BD4FEA201007281BD2DFE800F0F1
:10149000535353534B394100B0F1101F4BD009DC6B
:1014A000B0F5805F0FD0B0F5005F1ED0B0F5801FA3
:1014B00008D140E02038B0F580103CD010283AD058
:1014C000202838D0012584F83D60002084F83C00B5
:1014D000284670BD4A682068D1E9021300F70DFD67
:1014E0002068816841F0770109E04A682068D1E905
:1014F000021300F702FD2068816841F48041816099
:10150000E1E7CA684968206800F0CAFF20685021F6
:1015100006E0CA684968206800F744FD2068602139
:1015200000F7F6FCCFE7CA684968206800F0B8FF0A
:1015300020684021F4E720681146F1E788FFCEFFDC
:101540002DE9F0417F4902687F4D8A422DD1007F0D
:10155000082812D1A87805F1100401280FD002281C
:101560000BD17A480C2100F059FA60600C217748C1
:1015700000F722F8A878401CA870BDE8F0817348F5
:101580000C2100F04BFA714920600868026A22F4CD
:10159000204202620868026A22F42042026208685D
:1015A000016A41F400510162E4E7674B0124DFF86E
:1015B000A0C14FF6FF761978491E01F00F01C1F165
:1015C0000F0704FA07F15F785B7B7F1E07F00F07B8
:1015D000C7F10F0704FA07F7624528D1007F0128F9
:1015E000CBD1E879401CE871002B01D0594800E0CC
:1015F0005948028800D1394642EA01020280E8785F
:1016000000B9EC70E87A00F10100E872514C2088D2
:1016100000F47C4001F06AF80328AEDB1E20FFF6E0
:1016200001FA7420FFF6FEF94B48268025E0DFF82A
:101630002CC1624523D1007F02289ED1002B01D00E
:10164000474800E04748028800D1394642EA010293
:101650000280287900B92C71687A00F10100687263
:101660003F4C208800F47C4001F040F8032884DBE4
:101670007420FFF6D7F93B48268006807DE7DFF827
:10168000E8C0624532D1007F0128F7D1002B01D09C
:10169000364800E03648028800D1394642EA010265
:1016A0000280687900B96C71A87A00F10100A87213
:1016B0002E4F388800F47C4001F018F80328DDDB59
:1016C0000020A8732B482C490470042008701E20A9
:1016D000FFF6A8F91D20FFF6A5F91C20FFF6A2F9D8
:1016E0007420FFF69FF922483E80C6E7B2F1804F92
:1016F000C4D1007F0828C1D1002B01D01F4800E0D1
:101700001F48028800D1394642EA01020280A879C6
:1017100000B9AC71287B00F101002873174C2088B8
:1017200000F47C4000F0E2FF0328A7DB1E20FFF658
:1017300079F91C20FFF676F97420FFF673F910484A
:1017400026809AE70000014040000024B0000024F9
:101750000008004030000024320000240040014016
:101760003400002436000024000400403800002427
:101770003A00002400000024010000243C00002462
:101780003E0000242DE9F041054690F83C0000267B
:101790000C46012810D0012085F83C0072B1042AC3
:1017A0001CD0082A2CD00C2A50D00126002085F805
:1017B0003C003046BDE8F0810220FBE7E368286882
:1017C000D4E9001200F7AEFB2868816921F00C0112
:1017D000816128688169A26811430FE0E368286885
:1017E000D4E9001200F7F0FB2868816921F4406118
:1017F000816128688169A26841EA02218161D5E797
:101800002868D4E9002C277B036A016A21F48071DF
:101810000162C16923F4206321F0030141EA0C0154
:1018200021F0F00C39074FF4206707EA02221A432F
:101830004CEA1161C16102622868C16921F00C01A2
:10184000C1612868C169A26811432AE02868D4E907
:101850000032E168076AD0F820C02CF4805CC0F840
:1018600020C0D0F81CC02CF4407C4CEA02224FF679
:10187000FF7C22F470420CEA01311143C16127F46C
:1018800020424FF4204707EA0333134303622868DA
:10189000C16921F44061C1612868C169A26841EA57
:1018A0000221C16182E7000010B586B00446142110
:1018B0006846FEF7DDFB1B492068884230D11A4894
:1018C000016841F001010160006800F0010005902D
:1018D00015481038016841F01001016000680021CE
:1018E00000F0100005904FF4804000900220CDE9F8
:1018F000010103900120049069460C48FEF70AFCA0
:10190000002205211920FEF745FD1920FEF734FDC0
:10191000002205211B20FEF73DFD1B20FEF72CFDBC
:1019200006B010BD00000140F044025800100258FB
:101930007047000070B5324904460068884217D1EC
:10194000FEF7C4FB2F48FFF63DFD2E480021E4388A
:10195000FFF632FE2B4804214C30FFF62DFE2A48BC
:101960000021FFF629FE28480C214C38FFF624FE02
:1019700026492068884208D1254800220221FEF726
:10198000B7FC20484C38FFF61DFD224920688842EC
:1019900027D1214D287A401C2872687B002801D06D
:1019A0002C4602E01C4C04F1010402D0FEF6B4FC0B
:1019B00003E0FEF779FBFEF6C1FC2078401C00F046
:1019C0000F00207000F7E8F8207800F029FC20785C
:1019D000002806D1687B2978014303D080F00100FC
:1019E000687370BD07489838FFF6ECFC01206873F7
:1019F0000021E971E873BDE870400248FFF69CBC25
:101A0000001C00407802002448010024001400401B
:101A1000000402580010004040000024024600204C
:101A200041B1042909D008290AD00C2901D1106834
:101A3000006C70471068406B70471068806B70478F
:101A40001068C06B704790F88410012918D00121EC
:101A500080F884102421C0F8881001680A680B6897
:101A600023F001030B6022F000510022426603685C
:101A700019602021C0F8881080F884201046704733
:101A800002207047704770B5044690F88400012822
:101A90001DD0012084F884002420C4F88800206828
:101AA0000568026822F0010202602068826822F064
:101AB00060620A438260204600F7A2FA206805604F
:101AC0002020C4F88800002084F8840070BD022023
:101AD00070BD7047704700002DE9F041076804466B
:101AE000F8693968BA6840F60F0318424FF00005EC
:101AF0004FF002060AD183067ED501F0200302F0E2
:101B0000805C53EA0C0377D0616F73E1CE4BDFF852
:101B10003CC3134001EA0C0C53EA0C0C6CD05FEA96
:101B2000C07C0CD05FEAC15C09D54FF0010CC7F84E
:101B300020C0D4F8907047F00107C4F89070870770
:101B400009D5D70707D027683E62D4F8906046F0E1
:101B50000406C4F8906046070AD5D60708D027685F
:101B600004263E62D4F8906046F00206C4F8906005
:101B700006070CD501F020061E4308D0266808236E
:101B80003362D4F8903043F00803C4F89030030572
:101B90000BD54B0109D526684FF400633362D4F8A6
:101BA000903043F02003C4F89030D4F89030002BEC
:101BB0003DD0800609D501F0200002F08051084395
:101BC00003D0616F09B120468847D4F8900021689E
:101BD0008968490602D410F0280F2AD0204600F761
:101BE00031FA2068806840061ED52068083050E829
:101BF000001F21F0400100E021E040E80012002A2F
:101C0000F3D1D4F8800078B191490165D4F880000F
:101C1000FEF656FD00280AD0D4F88000016D00E0E1
:101C20002046BDE8F04108472046FFF753FFBDE8D6
:101C3000F0812046FFF74EFFC4F89050F7E7D4F844
:101C40006CC02023BCF1010F7ED15FEAC06C7BD554
:101C50005FEAC16C78D51020386220688068400641
:101C600073D5D4F880107B4A0868904234D0794A02
:101C70001832904230D0774A303290422CD0754A98
:101C80004832904228D0734A6032904224D0714A40
:101C90007832904220D06F4A903290421CD06D4AE8
:101CA000A832904218D06C4A904215D06A4A183235
:101CB000904211D0684A303290420DD0664A483284
:101CC000904209D0644A6032904205D0624A78322C
:101CD000904201D0604A903240680004000CA6D0C7
:101CE000B4F85C208242A2D9A4F85E00C869B0F5BD
:101CF000807F2FD0206850E8001F21F4807140E8D9
:101D00000012002AF6D12068083050E8001F21F0A8
:101D1000010140E80012002AF5D12068083050E89F
:101D2000001F21F0400140E80012002AF5D1C4F85C
:101D30008C30E566206850E8001F21F0100140E873
:101D40000012002AF6D101E03FE00BE0D4F8800059
:101D5000FEF606FB2667B4F85C00B4F85E10401A85
:101D600081B22EE0B4F85C00B4F85E10401A81B283
:101D7000B4F85E000028B2D00029B0D0206850E846
:101D8000002F22F4907240E80027002FF6D12E4F4A
:101D9000FF432068083050E8002F3A4040E8002C0C
:101DA000BCF1000FF5D1C4F88C30E566656720689A
:101DB00050E8002F22F0100240E80023002BF6D15B
:101DC00026672046FFF6F9FC31E7C60209D5560220
:101DD00007D54FF4801038622046BDE8F041FFF788
:101DE00078BE06060AD501F0800602F4000216430A
:101DF00004D0A16F00297FF413AF18E7420611D574
:101E00004A060FD52046016851E8002F22F0400213
:101E100041E80024002CF6D1C0F888308567FFF631
:101E2000A9FD04E7020206D54A0004D52046BDE814
:101E3000F041FFF6E9BCC001C6D50029C4DA20464E
:101E4000BDE8F041FFF71EBE0100001020010004B4
:101E50004526100810000240100402402DE9F04F02
:101E600087B014216846FEF703F94348016841F042
:101E700010010160016801F010010591016841F055
:101E800080010160016801F080010591016841F065
:101E900001010160016801F001010591016841F053
:101EA00002010160016801F002010591016841F041
:101EB00008010160016801F008010591016841F025
:101EC0000401016000680122DFF8B090082100F0F1
:101ED000040005904846FEF70BFADFF8A4A00022A4
:101EE00004215046FEF704FADFF898B000220621DC
:101EF0005846FEF7FDF901225846D7033946FEF74A
:101F0000F7F941F63F78204801224146FEF7F0F903
:101F100001266946022508200024CDE90006CDE906
:101F200002454846FEF7F6F804206946CDE900066A
:101F3000CDE902455046FEF7EDF806206946CDE9A9
:101F400000060320CDE902405846FEF7E3F81126CB
:101F50006946CDE902455846CDE90076FEF7DAF844
:101F600009486946CDE90245CDE90086FEF7D2F879
:101F700007B0BDE8F08F0000E0440258001002589E
:101F80000000025800040258000C02580B480922B5
:101F9000094910B50160EF2141600021C0E902123A
:101FA00001618161FFF730F9002803D0BDE81040DE
:101FB000FEF6D4B910BD0000001C004078020024D9
:101FC00010B58CB024480024224900940194029456
:101FD00003940494059406940794089409940A942D
:101FE00001601721C0E901144CF24F31C0E903141C
:101FF0008021C0E90541FFF707F908B1FEF6AEF907
:102000004FF48050009014486946FFF71BFA08B15E
:10201000FEF6A4F91048FFF6EDF908B1FEF69EF9B8
:102020000D4804A904940694FFF634F908B1FEF6AD
:1020300095F90220079001200A94CDE9080406488A
:10204000042207A9FFF79EFB002801D0FEF686F9BF
:102050000CB010BD00400140C402002410B588B08F
:102060001B48002419490094019402940394049499
:10207000059406940160EF21C0E901144CF24F3140
:10208000C0E903148021C0E90541FFF6B3F908B1A6
:10209000FEF664F90E486946009401940294FFF636
:1020A000F9F808B1FEF65AF901200C2203A9CDE98E
:1020B00003400F20CDE905400548FFF763FB0028EA
:1020C00001D0FEF64BF908B010BD00000000014041
:1020D000B000002410B58CB0234800244FF080419C
:1020E0000094019402940394049405940694079434
:1020F000089409940A9401601721C0E901144CF274
:102100004F31C0E9031480218161FFF77DF808B1E8
:10211000FEF624F94FF48050009013486946FFF70B
:1021200091F908B1FEF61AF90F48FFF663F908B104
:10213000FEF614F90C4804A904940694FFF6AAF8D4
:1021400008B1FEF60BF901200C2207A9CDE90740E2
:10215000054809940A94FFF715FB002801D0FEF604
:10216000FDF80CB010BD0000FC0000243EB5104886
:1021700000240E4900940194029401601721C0E9E3
:1021800001146321C16080218161FFF73DF808B12E
:10219000FEF6E4F80648694600940294FFF67AF8E1
:1021A000002801D0FEF6DAF83EBD00000010004025
:1021B000E001002418480C22164910B501604FF4C4
:1021C000E131416000218160C160C0E90412816198
:1021D000C161016241628162FFF617FB08B1FEF640
:1021E000BDF80D480021FFF6E9FA08B1FEF6B6F891
:1021F00009480021FFF747FC08B1FEF6AFF8064892
:10220000FFF721FC002803D0BDE81040FEF6A6B879
:1022100010BD0000004C004010030024FEE7704792
:10222000401E00F00F002DE9F041C0F10F00104FEB
:1022300000F00106C208C0F38005C0F34004384630
:102240004FF48051FEF754F84FF400612A463846A7
:10225000FEF74EF84FF4806122463846FEF748F804
:1022600032463846BDE8F0414FF40071FEF740B801
:10227000000C02582DE9F047DFF8088104460E46AD
:102280004FF00009D8F80000C043800709D03D4D49
:10229000283D286820F080502860FEF647FB07465E
:1022A00007E00120BDE8F087FEF640FBC01B0228D6
:1022B00060D828688000F7D4D8F80010228821F070
:1022C0007C7141EA0251C8F80010207A4FF4FE02F6
:1022D000A1884002491EA0F5007080B2C1F3080138
:1022E0000843A189491E02EA01410843217C1202E8
:1022F000491E02EA01610843224918310860214859
:10230000001D0168626921F44061114301600168A8
:10231000A26921F4007111430160016821F4807108
:10232000016018491C310A684FF6F8739A43E36953
:1023300042EAC3020A60016841F4807101606EB133
:102340000168012E0ED041F080710160286840F0D4
:1023500080502860FEF6EAFA04460DE0016841F478
:102360008001F2E741F40001EFE7FEF6DFFA001B1F
:10237000022801D9032095E728688000F5D5484652
:1023800090E70000284402582C4810B5016841F439
:10239000700101602A4A106800F00F00072804D27B
:1023A000106820F00F00C01D10602649086840F03A
:1023B00001000860234B0020103318600B68224C8A
:1023C00023400B60136803F00F03072B04D9136835
:1023D00023F00F03DB1D13601A4A18321060121D20
:1023E0001060121D1060174B184A28331A601B1D0D
:1023F000174A1A601B1D174A1A601B1D18601B1D07
:102400001A601B1D18601B1D1A601A1D10600A68D7
:1024100022F480220A600B49603108600E4800688F
:102420006FF30F00B0F1005F03D20C490120C1F837
:10243000080143F2D2000A49086010BD88ED00E0AF
:1024400000200052004402587FEDF6EA000202022A
:102450000000FF01800201010010005C00800051BB
:10246000004000520148FFF601B90000C4020024F8
:102470000148FFF6FBB80000B00000240148FFF659
:10248000F5B80000FC0000240148FFF6EFB800009A
:10249000940100240148FFF6E9B800002C02002452
:1024A00010B5046A036A23F001030362836923F011
:1024B000F00343EA0213836124F00A020A43026232
:1024C00010BD00000148FFF707BB00001003002407
:1024D00090F82810090706D501684A68836B22F432
:1024E00000421A434A6090F82810C90706D00168D4
:1024F0004A68C36A22F400321A434A6090F82810EE
:10250000890706D501684A68036B22F480321A43B2
:102510004A6090F82810490706D501684A68436B5D
:1025200022F480221A434A6090F82810C90606D582
:1025300001688A68C36B22F480521A438A6090F85B
:102540002810890606D501688A68036C22F40052B7
:102550001A438A6090F82810490611D501684A6824
:10256000436C22F480121A434A60416CB1F5801F1B
:1025700006D101684A68836C22F4C0021A434A609B
:1025800090F82810090606D501684A68C06C22F444
:10259000002202434A6070472DE9F84300250446B3
:1025A000C0F89050FEF6C2F98046206800686FF0CF
:1025B0007E474FF02006000713D500224346310422
:1025C0002046009700F048F858B1206850E8001FF6
:1025D00021F0800140E80012002AF6D1C4F888609A
:1025E00021E020680068400722D5002243464FF4CE
:1025F00080012046009700F02FF8C8B1206850E80D
:10260000001F21F4907140E80012002AF6D12068E2
:10261000083050E8001F21F0010140E80012002AB4
:10262000F5D1C4F88C60032084F88450BDE8F883A9
:10263000C4F88860C4F88C60E5662567002084F8DB
:102640008450F3E710B5806B0021A0F85E10A0F86D
:102650005610FFF73FFA10BD2DE9F0471F46904690
:102660000D460446089E4FF0000932E0701C30D041
:10267000FEF65CF9C01BB04218D8BEB120680168F4
:10268000490726D5802D24D0402D22D0C169C943C9
:1026900009070DD4082505622046FFF6D3FCC4F8CF
:1026A0009050012084F88490BDE8F0870320FBE778
:1026B000C069C04300050CD421684FF40060086273
:1026C0002046FFF6BFFC2020C4F8900084F88490D8
:1026D000ECE72068C06935EA000004D000204045DE
:1026E000C4D00020E0E70120F9E7FEE74FF05532C3
:1026F0004FF0333102EA5002801A00F0333201EA1F
:102700009000104400EB101000F00F3000EB102090
:1027100000EB104000F03F0070470907090E002849
:1027200004DB00F1E02080F80014704700F00F0097
:1027300000F1E02080F8141D704701000200040041
:10274000060008000A000C00100020004000800075
:10275000000101010103070100000804020408014F
:042760000101000073
:040000050800029954
:00000001FF
