:020000040800F2
:10000000B007002029020008A71C0008D917000823
:10001000A51C000849050008372000080000000062
:10002000000000000000000000000000AB1C000801
:100030004B05000800000000A91C0008AD1C0008CA
:10004000430200084302000843020008430200087C
:10005000430200084302000843020008430200086C
:10006000430200084302000843020008430200085C
:10007000430200084302000843020008430200084C
:10008000430200084302000843020008430200083C
:10009000430200084302000843020008430200082C
:1000A000430200084302000843020008430200081C
:1000B000430200084302000843020008430200080C
:1000C00043020008430200084302000843020008FC
:1000D00043020008430200084302000843020008EC
:1000E00043020008430200084302000843020008DC
:1000F00043020008430200084302000843020008CC
:1001000043020008430200084302000843020008BB
:1001100043020008430200084302000843020008AB
:10012000430200084302000843020008430200089B
:10013000430200084302000843020008430200088B
:10014000430200084302000843020008430200087B
:10015000430200084302000843020008430200086B
:10016000430200084302000843020008430200085B
:100170004302000843020008430200080000000098
:10018000430200084302000800F002F800F03CF8C7
:100190000AA090E8000C82448344AAF10107DA45E2
:1001A00001D100F031F8AFF2090EBAE80F0013F0F8
:1001B000010F18BFFB1A43F001031847041F00008A
:1001C000241F0000103A24BF78C878C1FAD852071B
:1001D00024BF30C830C144BF04680C6070470000C1
:1001E0000023002400250026103A28BF78C1FBD840
:1001F000520728BF30C148BF0B6070471FB501F0E0
:1002000051FF1FBD10B510BD00F0CFF81146FFF72C
:10021000F5FF01F021FF00F0EDF803B4FFF7F2FF66
:1002200003BC00F0F5F80000094880470948004782
:10023000FEE7FEE7FEE7FEE7FEE7FEE7FEE7FEE796
:10024000FEE7FEE704480549054A064B70470000F3
:10025000451D000889010008B0010020B0070020FA
:10026000B0030020B003002053EA020C00F06980C4
:100270002DE9F04B4FF00006002B1FBFB3FA83F5BA
:1002800003FA05F424FA05F65E4012BF1643B2FAEB
:1002900082F502FA05F4C5F120051EBF22FA05FC1D
:1002A00044EA0C04203556EA044C4FEA144418BFC3
:1002B000641C4FF000084FF00009904271EB030CF2
:1002C00039D3002919BFB1FA81F701FA07F6B0FA5C
:1002D00080F700FA07F6C7F120071EBF20FA07FCD7
:1002E00046EA0C062037B6FBF4FCA7EB0507103FE7
:1002F00007F01F0BCBF120060CFA0BFB2CFA06F6CD
:1003000044BFB3460026202FA4BF5E464FF0000B2B
:100310005BEA060C08BF4FF0010B19EB0B09ABFBB6
:10032000027C48EB0608C01B06FB02CC0BFB03CC8F
:1003300071EB0C01C1E70B46024641464846BDE859
:10034000F08B13B54FF000004FF00001AFF30080C9
:10035000BDE81C4070474FF0000200B513469446BC
:100360009646203922BFA0E80C50A0E80C50B1F10D
:100370002001BFF4F7AF090728BFA0E80C5048BF21
:100380000CC05DF804EB890028BF40F8042B08BFBF
:10039000704748BF20F8022B11F0804F18BF00F8BB
:1003A000012B7047704770477047754600F02CF876
:1003B000AE4605006946534620F00700854618B052
:1003C00020B5FFF73FFFBDE820404FF000064FF09B
:1003D00000074FF000084FF0000B21F00701AC467A
:1003E000ACE8C009ACE8C009ACE8C009ACE8C00999
:1003F0008D46704710B50446AFF300802046BDE837
:100400001040FFF70ABF000000487047500100206D
:1004100001491820ABBEFEE726000200704700002D
:10042000464910B54A6822F440324A604A68436837
:100430001A434A6001684A6822F480724A6001687F
:100440004A68036942EA03224A6001684A6822F066
:1004500040724A6001684A6883681A434A600168CA
:100460008A6822F400628A6001688A68C3681A4355
:100470008A60816A6FF07062D14201688A6822F0F6
:1004800070628A6001688A680CD0836A1A438A6045
:1004900001688A6822F040528A6001688A68C36AEB
:1004A0001A4301E022F040528A6001688A6822F013
:1004B00002028A6001688A68037E42EA43028A6017
:1004C00090F82010002901684A680FD042F40062B9
:1004D0004A6001684A6822F460424A6001684A68DA
:1004E000174C436A04EB43331A4301E022F40062E1
:1004F0004A600168CA6A22F47002CA620168CA6A64
:10050000838B104C04EB03531A43CA6201688A6858
:1005100022F400728A6001688A6890F8303042EAFA
:1005200043228A6001688A6822F480628A600168D6
:100530008A68406942EA8020886010BD002301403B
:1005400000E0FFFF0000F0FFFEE7704772B6FEE735
:1005500078B50024009490F83C20012A19D001229B
:1005600080F83C200A6807230568092A13D9EE6839
:100570000A3A02EB420293409E43EE600B788A688F
:100580000A3B03EB43039A400368DD682A43DA60C1
:1005900010E0022078BD2E6902EB420293409E4398
:1005A0002E610B788A6803EB43039A4003681D6948
:1005B0002A431A614A681F23072A13D205686E6B03
:1005C000521E02EB820293409E436E630B790A88AF
:1005D0005B1E92B203EB83039A4003685D6B2A4370
:1005E0005A6327E005680D2A12D22E6BD21F02EB48
:1005F000820293409E432E630B790A88DB1F92B2DE
:1006000003EB83039A4003681D6B2A431A6311E0CE
:10061000EE6A0D3A02EB820293409E43EE620B7942
:100620000A880D3B92B203EB83039A400368DD6AAC
:100630002A43DA62164B0568144A9D4206D10D68BA
:10064000122D03D1556845F48005556005689D421B
:1006500018D10B68102B01D0112B13D1536843F420
:1006600000035360096810290CD10A490A4A096835
:10067000B1FBF2F101EB8101490000E0491E00915C
:100680000029FBD180F83C40002078BD00230140C8
:10069000002001401000002040420F0070B504000F
:1006A0004FF0000503D0206C002610B107E00120B8
:1006B00070BD204600F01CF8666484F83C60206C35
:1006C000C00610D4206C20F4885040F00200206452
:1006D0002046FFF7A5FE6664206C20F0020040F083
:1006E0000100206400E0012584F83C60284670BDCC
:1006F00030B587B0044614216846FFF72CFE2F481A
:100700002D4B226800242D49143803259A4235D1F7
:100710000A6842F480720A60096801F480710591E8
:10072000016841F004010160016801F004010591D4
:10073000016841F001010160016801F001010591CA
:10074000016841F0020101600068694600F00200A2
:1007500005903F20CDE900050294194800F0B0F95A
:100760000F20CDE9000569460294164800F0A8F96B
:100770000095CDE901546946134819E0134B9A429C
:1007800018D10A6842F480620A60096801F4806145
:100790000591016841F0200101600068694600F0A0
:1007A000200005904FF4F860CDE900050294084858
:1007B00000F086F907B030BD002001404438024007
:1007C00000080240000002400004024000220140F4
:1007D0000014024070B5040003D094F8200010B15A
:1007E00004E0012070BD204600F082F82068016816
:1007F00041F00101016000F069FA0546052604E0B8
:1008000000F064FA401B0A2811D820684068C0072D
:10081000F6D02068016821F00201016000F056FA6C
:1008200005460BE000F052FA401B0A2806D9606A20
:1008300040F40030606284F82060D2E720684068AD
:100840008007EFD4207E0128206801683DD021F088
:1008500080010160607E01282068016838D021F0A5
:1008600040010160A07E01282068016833D021F09A
:1008700020010160E07E0128206801682ED041F04F
:1008800010010160207F01282068016829D021F033
:1008900008010160607F01282068016824D021F0F0
:1008A00004010160D4E902010843D4E904121143B0
:1008B00008436168491E08432168C86100206062DE
:1008C000012084F82000002070BD41F08001C0E7C5
:1008D00041F04001C5E741F02001CAE721F01001D5
:1008E000CFE741F00801D4E741F00401D9E7000067
:1008F0002DE9F04387B0044614216846FFF72BFD2D
:100900002C4B2D48DFF8A8801968D4F800C02A4A7B
:10091000022503260927DFF8A49010300024491C83
:10092000C44515D11960012907D1016841F0007152
:100930000160006800F000700590106840F002004F
:100940001060106800F0020005904FF4407023E042
:10095000DFF86C80C44528D1D0F800C04CF0806C22
:10096000C0F800C0D0F800C001290CF0806CCDF8B0
:1009700014C0196007D1016841F00071016000687E
:1009800000F000700590106840F0020010601068E0
:1009900000F0020005906020CDE9000502AB694639
:1009A00083E8D000484600F08BF807B0BDE8F0833C
:1009B0000064004000000020303802400004024083
:1009C0000068004070B500B3F9B14379012B1ED027
:1009D000012646710223037105682C6802F010039A
:1009E00040F6FE729A409443D1E900210A439A40AE
:1009F00022432A6001680A68C0249C40A2430A601E
:100A0000067100214171084670BD012070BD0220B1
:100A100070BD70B5040003D02079002510B105E049
:100A2000012070BD6571204600F008F80220207199
:100A3000256101202071002070BD000010B586B036
:100A4000044614216846FFF786FC11492068884255
:100A50001CD110480021026842F000520260006878
:100A600000F0005005900B481038026842F0010277
:100A70000260006800F00100059010200090032043
:100A8000CDE901016946044800F01AF806B010BD2E
:100A900000740040403802400000024070B5044637
:100AA00000F014F90546601C02D0044800780444A4
:100AB00000F00CF9401BA042FAD370BD04000020E6
:100AC0002DE9F84FDFF8BCA10022012503264FF0E5
:100AD0000F090AF1040BAAF1040E00BF0B6805FA16
:100AE00002F42340A34270D10F7907F00307012FCE
:100AF00001D0022F16D187684FEA420806FA08FC97
:100B000027EA0C07D1F80CC00CFA08FC4CEA070CD9
:100B1000C0F808C04768A7430C79C4F30014944098
:100B20003C4344600C79E443A4070AD0C4684FEA0C
:100B3000420C06FA0CF7BC438F6807FA0CF7274300
:100B4000C7600C7904F00304022C12D1D40800EB26
:100B5000840CDCF820405707FF0E09FA07F824EA56
:100B60000804D1F8108008FA07F848EA0408CCF81D
:100B7000208004684FEA420C06FA0CF7BC430F7958
:100B800007F0030707FA0CF7274307604C6814F4D3
:100B9000403F70D03C4C276847F48047276024686A
:100BA00022F0030704F480440094384C07EB040C53
:100BB000DCF8084897074FEA177809FA08F7BC43AA
:100BC000334FB84202D1002724E054E0314FB842FD
:100BD00001D101271EE0304FB84201D1022719E0B0
:100BE0002E4FB84201D1032714E02D4FB84201D156
:100BF00004270FE02B4FB84201D105270AE02A4F06
:100C0000B84201D1062705E0284FB84201D1072795
:100C100000E0082707FA08F72743CCF80878DAF845
:100C200000405746D1F804C09C435FEACC2C00D565
:100C30001C433C60DBF800405F46D1F804C09C4395
:100C40005FEA8C2C00D51C433C60DEF80040774600
:100C5000D1F804C09C435FEA8C3C00D51C433C6047
:100C6000084F083F3C68D1F804C09C435FEACC3C85
:100C700000D51C433C60521C102AFFF42FAFBDE886
:100C8000F88F0000083C0140443802400030014029
:100C9000000002400004024000080240000C024034
:100CA000001002400014024000180240001C0240E4
:100CB000426921EA02030A4043EA02418161704726
:100CC0000AB1816170470904FBE7000001488068B0
:100CD0007047000004000020024881680278114437
:100CE00081607047040000200B4810B5016841F492
:100CF00000710160016841F480610160016841F4A4
:100D000080710160032000F061F80F2000F006F808
:100D100000F024F8002010BD003C024070B50D4DDD
:100D200004464FF47A712878B1FBF0F00A4909685B
:100D3000B1FBF0F000F0DCFA48B9102C07D2002229
:100D40002146501E00F022F800206C6070BD01208A
:100D500070BD000004000020100000200A4808B503
:100D6000016841F480410160006800F48040009017
:100D70000548001F016841F080510160006800F0E3
:100D80008050009008BD000044380240F0B40E4B83
:100D90001B680C46C3F30223C3F10705042D00D9D9
:100DA0000425191D072901D2002300E0DB1E0126BE
:100DB00006FA05F1491E214099409E40761E1640D4
:100DC0003143F0BC01F038B90CED00E0064900F009
:100DD000070208684FF6FF03184040EA0220034A62
:100DE00010430860704700000CED00E00000FA05B9
:100DF0002DE9F0470E46050065D0DFF81481D8F8DC
:100E00000000F7B200F00700B04207D288F8007087
:100E1000D8F8000000F00700B04254D128683D4CDB
:100E2000810712D5400703D5206840F4E0502060C8
:100E30002878000703D5206840F4604020602068CF
:100E4000A96820F0F000084320602878C0072DD062
:100E5000304968680839012812D0022813D00328C5
:100E600011D00968890700292DDA216821F00301D2
:100E700001432160FFF72AFF814641F2883A0EE0E4
:100E800009688903EFE709688901ECE7FFF71EFFAE
:100E9000A0EB0901514502D90320BDE8F087206885
:100EA000696800F00C00B0EB810FEFD1D8F80010AA
:100EB000404601F00701B14207D90770006800F011
:100EC0000700B04201D00120E7E72878400705D5A8
:100ED0002068E96820F4E050084320602878000783
:100EE00006D52068296920F4604040EAC1002060EE
:100EF00000F018F82168084AC1F30311515CC8409A
:100F00000649086006480068FFF708FF0020C4E7AC
:100F1000003C024008380240AE20000810000020CB
:100F200008000020154810B5006810F00C021448A5
:100F300013D04110042A0FD0082A0ED10F4C241FC1
:100F40002268236802F03F025B0207D52068C0F3E5
:100F50008810A0FB010106E0084610BD2168C1F31E
:100F60008811A1FB00010023FFF77EF92168C1F37E
:100F70000141491C4900B0FBF1F010BD08380240A6
:100F80000024F4002DE9F84F04006ED02078DFF83B
:100F90004C93C007A9F104054AD009F10400016887
:100FA000C1F38101012908D00068C0F38100022843
:100FB0000AD1D9F80000400206D52868800337D549
:100FC00060680028E1D033E06068B0F5803F10D061
:100FD000B0F5A02F286810D020F480302860286851
:100FE00020F4802028606068A8B1FFF76FFE0646F5
:100FF0000DE0286840F48030F4E740F48020286059
:10100000F7E700BFFFF762FE801B642873D82868EB
:101010008003F7D50CE0FFF759FE064605E000BF58
:10102000FFF754FE801B6428F0D828688003F7D4AB
:101030002078DFF8AC8280074FF0000A3ED5A74841
:10104000001D016811F00C0F08D00068C0F381008A
:1010500002280BD1D9F80000400207D42868800785
:1010600016D5E068012800D112E033E1E068B8B19C
:101070000120C8F80000FFF729FE064605E000BF82
:10108000FFF724FE801B0228C0D828688007F7D508
:101090002868216920F0F80040EAC10028600DE0CE
:1010A000C8F800A0FFF712FE064604E0FFF70EFEA8
:1010B000801B02281FD828688007F7D420780007F3
:1010C00022D5864F87486169703771B1012101606F
:1010D000FFF7FCFD064604E0FFF7F8FD801B022841
:1010E00009D838688007F7D50EE0C0F800A0FFF7F0
:1010F000EDFD064605E082E0FFF7E8FD801B0228D3
:101100007DD838688007F7D42078400768D5DFF8A5
:10111000CCB100270BF13C0BDBF80000C0000BD476
:10112000DBF8001041F08051CBF80010DBF8000034
:10113000012700F0805000906B4E3068C00510D43D
:10114000306840F480703060FFF7C0FD009005E02B
:10115000FFF7BCFD0099401A022850D83068C0053E
:10116000F6D55E4EA0686C3601280FD00528306891
:1011700010D020F001003060306820F004003060B2
:10118000A068B8B1FFF7A2FD00900FE0306840F012
:101190000100F4E740F004003060F7E7FFF796FD48
:1011A0000099411A41F28830814266D83068800740
:1011B000F4D50EE0FFF78AFD009007E0FFF786FD0B
:1011C0000099411A41F28830814256D83068800730
:1011D000F4D42FB1DBF8001021F08051CBF80010CF
:1011E000A069C8B33D49091D0968C1F381010229FD
:1011F0004AD00228504607D0C8F8600000E03CE022
:10120000FFF764FD04463BE04746C8F86000FFF77F
:101210005DFD064605E000BFFFF758FD801B022874
:101220002BD828688001F7D4D4E907010843A16AC4
:101230002E4A490802EB0141626A41EA82110843E1
:1012400094F82C1040EA0161C9F8001001203866BA
:10125000FFF73CFD044606E03EE000BFFFF736FD29
:10126000001B022809D828688001F7D534E000BFA8
:10127000FFF72CFD001B022802D90320BDE8F88FE0
:1012800028688001F4D427E00128F7D0D9F80000BD
:10129000E26900F4800191421CD1226A00F03F0112
:1012A000914217D147F6C071626A0140B1EB821FCB
:1012B00010D1A26A4FF0FF3300F4403103EB520229
:1012C000B1EB024F06D194F82C1000F07060B0EB37
:1012D000016F01D00120D1E70020CFE704380240A0
:1012E00000004742800E4742007000400000FFFFB0
:1012F00010B5401EB0F1807F01D3012010BD4FF02A
:10130000E02460610F21601700F096FE0020A061CC
:1013100007202061002010BD10B590F83C20012A64
:1013200022D0012280F83C20CA688C6822F44072E6
:1013300022434C6822F4806222430C6822F400624B
:1013400022430C6922F4805222434C6922F4005259
:101350002243C969002322F480420A4301684A6497
:1013600080F83C30002010BD022010BD70B590F810
:101370003C20012A32D0012480F83C40022280F82F
:101380003D2003685A689D6822F070060A6832435F
:101390005A60134B02689A4214D0B2F1804F11D0B8
:1013A000104B9A420ED0104B9A420BD00F4B9A42E0
:1013B00008D00F4B9A4205D00E4B9A4202D00E4BEA
:1013C0009A4204D1496825F080031943916080F85E
:1013D0003D40002180F83C10084670BD022070BDE1
:1013E000000001400004004000080040000C0040E4
:1013F00000040140004001400018004010B50446C0
:10140000022249B104290ED0082913D094F84500CE
:10141000012816D0012010BD94F842000128F9D10E
:1014200084F842200FE094F843000128F2D184F8B8
:10143000432008E094F844000128EBD184F84420CC
:1014400001E084F845200422206800F0EFFC2068C9
:10145000416C41F40041416411492068884214D034
:10146000B0F1804F11D00F4988420ED00E4988420A
:101470000BD00E49884208D00D49884205D00D494D
:10148000884202D00C49884204D1816801F00701EA
:10149000062903D0016841F001010160002010BD60
:1014A000000001400004004000080040000C004023
:1014B00000040140004001400018004010B5040045
:1014C00003D094F83D0010B107E0012010BD0020CA
:1014D00084F83C00204600F01FF8022084F83D000C
:1014E000211D206800F036FC012084F8460084F8B5
:1014F0003E0084F83F0084F8400084F8410084F8FE
:10150000420084F8430084F8440084F8450084F8DD
:101510003D00002010BD000010B586B00446142127
:101520006846FEF718FF13492068884220D1124808
:101530000021026842F001020260006800F0010030
:1015400005900D481438026842F0100202600068ED
:1015500000F0100005904FF42A5000900220CDE9D1
:1015600001010120CDE9031069460448FFF7A8FAFC
:1015700006B010BD00000140443802400010024097
:1015800070B5044690F83C000025012817D00126CC
:1015900084F83C60022084F83D002068826822F0D4
:1015A000770222F47F4282600868502838D00DDC30
:1015B00020284FD005DC90B3102811D14AE002203A
:1015C00070BD302846D040280AD13BE060282FD09B
:1015D00070280DD0B0F5805F03D0B0F5005F12D059
:1015E000012584F83D60002084F83C00284670BD49
:1015F000CB68D1E90121206800F025FC20688168D2
:1016000041F0770109E0CB68D1E90121206800F0C1
:101610001AFC2068816841F480418160E1E719E0AB
:10162000CA684968206800F0E3FC5021206806E0A1
:10163000CA684968206800F0ECFC6021206800F06E
:101640000CFCCEE7CA684968206800F0D1FC402154
:101650002068F4E7226801461046F0E710B586B02E
:10166000044614216846FEF776FE0E49206888423B
:1016700016D10D480021026842F010020260006895
:1016800000F0100005904FF4A85000900220CDE922
:1016900001010120CDE9031069460448FFF710FA63
:1016A00006B010BD0000014030380240001002407A
:1016B00070B5044690F83C0000260D4601280FD076
:1016C000012084F83C006AB1042A1DD0082A2FD0DA
:1016D0000C2A3FD00126002084F83C00304670BD23
:1016E000022070BD206800F0C1FB2068816941F0D4
:1016F000080181612068816921F00401816120680D
:1017000081692A69114311E0206800F0DFFB20683D
:10171000816941F4006181612068816921F48061FF
:101720008161206881692A6941EA02218161D2E7E9
:10173000206800F001FC2068C16941F00801C16126
:101740002068C16921F00401C1612068C1692A696A
:10175000114311E0206800F023FC2068C16941F4C6
:101760000061C1612068C16921F48061C1612068A4
:10177000C1692A6941EA0221C161ACE710B50400E0
:1017800003D094F83D0010B107E0012010BD002007
:1017900084F83C00204600F01EF8022084F83D004A
:1017A000211D206800F0D6FA012084F8460084F854
:1017B0003E0084F83F0084F8400084F8410084F83B
:1017C000420084F8430084F8440084F8450084F81B
:1017D0003D00002010BD7047FEE700007FB50024EB
:1017E00015480094019402941249039401604FF447
:1017F0008031C0E901140461047680F820400F496B
:10180000C0E90A140125C561C46080F83040456113
:10181000FEF744FF08B1FEF799FECDE900456946A1
:1018200005480294FEF794FE002801D0FEF78EFED4
:101830007FBD000000200140140000200100000FC7
:101840007FB5002415480094019402941249039432
:1018500001604FF48031C0E901140461047680F81E
:1018600020400F49C0E90A140125C561C46080F811
:1018700030404561FEF712FF08B1FEF767FE042015
:10188000CDE90005694602940448FEF761FE002890
:1018900001D0FEF75BFE7FBD002201405C0000200E
:1018A0000100000F0D4810B50B4901601021416087
:1018B00000218160C16001614161017641768176DC
:1018C000C17601774177FEF785FF002803D0BDE898
:1018D0001040FEF73BBE10BD00640040A400002095
:1018E0000D4810B50B490160102141600021816055
:1018F000C16001614161017641768176C1760177EF
:101900004177FEF767FF002803D0BDE81040FEF7DF
:101910001DBE10BD00680040CC0000201CB5002496
:101920000C4900940A48019408600846FFF771F8D2
:1019300008B1FEF70BFE00940022694605480194A9
:10194000FFF740F8002801D0FEF700FE1CBD0000A4
:1019500000740040F40000202DE9F04F87B01421FE
:101960006846FEF7F8FC93480024016841F0100136
:101970000160016801F010010591016841F0040166
:101980000160016801F004010591016841F0200146
:101990000160016801F020010591016841F08001BA
:1019A0000160016801F080010591016841F00101C9
:1019B0000160016801F001010591016841F0020137
:1019C0000160016801F002010591016841F0080120
:1019D0000160016801F008010591016841F04001D2
:1019E00001600068DFF8D08100F04000059000221F
:1019F0004CF20C014046FFF763F900224EF24031F1
:101A00006E48FFF75DF9DFF8B89147F63F05002211
:101A100029464846FFF754F9DFF8A8B14FF480573C
:101A2000002239465846FFF74BF94CF20C00009063
:101A30000126CDE90164694640460394FFF740F86A
:101A40007020CDE90004694640460294FFF738F85B
:101A50004FF463400090CDE9016469465748039410
:101A6000FFF72EF80095CDE90164694648460394D6
:101A7000FFF726F8E020009001AA022003254FF08E
:101A8000050882E8310169465846FFF719F8F00366
:101A9000CDE90004694648460294FFF711F84FF477
:101AA0004069CDE90094DFF820A1694650460294D0
:101AB000FFF706F84FF47040009001AA022082E878
:101AC000310169465046FEF7FBFF4FF69B70CDE9AA
:101AD0000004DFF8F8A0694650460294FEF7F0FFD4
:101AE0001C20CDE90004694639480294FEF7E8FF5E
:101AF0004020CDE900060220CDE9024069462F488A
:101B0000FEF7DEFF8020CDE9000469462B480294F1
:101B1000FEF7D6FF3002CDE900056946029458462B
:101B2000FEF7CEFF6802009001AA02204FF00708DE
:101B300082E8310169465846FEF7C2FFF002CDE95E
:101B40000004694658460294FEF7BAFF0097CDE9B3
:101B50000164694658460394FEF7B2FF01AA0220C9
:101B60000826CDF8009082E8710069461348FEF718
:101B7000A7FF01AA0220009782E8710069460F487A
:101B8000FEF79EFF0420009001AA022082E8710067
:101B900069465046FEF794FF6020009001AA02209B
:101BA00082E8310169465046FEF78AFF07B0BDE87A
:101BB000F08F000030380240001002400008024060
:101BC000001402400000024000040240000C0240E9
:101BD0000018024010B596B000240F941094119490
:101BE000129413941C2108A81494FEF7B4FB20212E
:101BF0006846FEF7B0FB2A482849016044F29F116D
:101C0000C0E9011442F20F71C0E903148021C0E958
:101C10000541FFF753FC08B1FEF798FC4FF48050E4
:101C20000F900FA91E48FFF7ABFC08B1FEF78EFC22
:101C30001B48FFF7A3FD08B1FEF788FC139413A916
:101C400017481494FFF792FB08B1FEF77FFC602061
:101C500008903220CDE909040B940C940D940022D5
:101C600008A90F480E94FFF723FD08B1FEF76EFC9C
:101C700000944FF40050CDE9044002940194039481
:101C8000694607480794FFF747FB08B1FEF75EFC7B
:101C90000348FFF7E3FC16B010BD00000000014050
:101CA00008010020FEE7FEE770477047FFF714B811
:101CB00030B593B030216846FEF74DFB14210CA8D7
:101CC000FEF749FB1D480025016841F08051016085
:101CD000006800F0805011901948016841F480417B
:101CE00001600068022400F48040119001200090FF
:101CF000000401908001CDE9064008AA0420A82133
:101D000082E813000B906846FFF73CF908B172B601
:101D1000FEE70CA90F2081E831004FF4A0500F908E
:101D20004FF48050109005210CA8FFF761F80028AF
:101D300001D072B6FEE713B030BD0000403802405B
:101D4000007000400248016841F470010160704772
:101D500088ED00E0F0B50268294C2A4D2A4E2B4F41
:101D60002B4B4FF0804CA04209D0604507D0A842D1
:101D700005D0B04203D0B84201D0984204D122F03D
:101D8000700E4A6842EA0E02A0421BD0604519D08C
:101D9000A84217D0B04215D0B84213D0984211D003
:101DA0001C4DA8420ED01C4DA8420BD01B4DA84282
:101DB00008D01B4DA84205D01A4DA84202D01A4D9A
:101DC000A84203D122F44075CA682A434D6922F023
:101DD00080022A4302608A68C2620A688262A04264
:101DE00001D0984201D10969016301214161016972
:101DF000C90703D0016921F001010161F0BD0000B4
:101E0000000001400004004000080040000C0040B9
:101E100000040140004001400044014000480140EE
:101E200000180040001C00400020004010B501F0E8
:101E30000F030421046A99408C430462016A9A40AA
:101E40001143016210BD10B5846842EA032224F4F4
:101E50007F440A432243826010BD826822F07002F0
:101E60000A4342F00701816070470000F0B5036A41
:101E7000026A22F00102026242688469124E24F072
:101E800073050C682C4323F002058B682B430D4D22
:101E9000A84201D0B04205D123F00807CB683B43EC
:101EA00023F00403A84201D0B04205D14D6922F4C9
:101EB000407215438A692A434260846149684163DC
:101EC0000362F0BD0000014000040140F0B5026A69
:101ED000036A23F010030362436884690D6824F4E5
:101EE000E64444EA05248D6822F0200242EA051205
:101EF0000F4D104EA84201D0B04206D1CF6822F05B
:101F0000800242EA071222F04002A84201D0B04209
:101F100007D14D6923F4406343EA85038D6943EAA1
:101F2000850343608461496881630262F0BD0000FB
:101F30000000014000040140F0B5026A036A23F486
:101F4000807303624368C46922F4007224F073054D
:101F50000C68124E2C438D6842EA05220E4DA842B1
:101F600001D0B04206D1CF6822F4006242EA0722D3
:101F700022F48062A84201D0B04207D14D6923F417
:101F8000405343EA05138D6943EA05134360C46176
:101F90004968C1630262F0BD0000014000040140D5
:101FA00030B5046A026A22F4805202624268C36950
:101FB0000D6823F4E64343EA05238D6824F40054B6
:101FC00044EA0534084DA84202D0084DA84204D185
:101FD0004D6922F4804242EA85124260C361496839
:101FE0000164046230BD00000000014000040140B3
:101FF00010B5036A046A24F001040462846924F0C1
:10200000F00444EA021423F00A020A4384610262E3
:1020100010BD10B5036A046A24F0100404628469D8
:1020200023F0A00324F4704444EA023243EA01118D
:102030008261016210BDFEE70907090E002804DB7A
:1020400000F1E02080F80014704700F00F0000F16C
:10205000E02080F8141D7047FEF746FEFFF728FECB
:10206000FFF77AFCFFF7BAFBFFF7EAFBFFF71AFC72
:10207000FFF736FCFFF752FCFFF7ACFD00210748E5
:10208000FFF7BCF9064C4FF4FA7540212046FEF7E5
:102090000FFE2846FEF702FDF7E7000008010020CA
:1020A000000802404FF04070E1EE100A7047000057
:1020B00000000000000001020304060708090000F8
:1020C000E02000080000002014000000C401000807
:1020D000F4200008140000209C070000E001000824
:1020E00000000000010000001000000000000000DF
:0420F0000024F400D4
:040000050800018965
:00000001FF
